{
	"Example_Calls/MCall.sol": {
		"Caller": {
			"abi": [
				{
					"inputs": [
						{
							"internalType": "string",
							"name": "_func",
							"type": "string"
						},
						{
							"internalType": "string",
							"name": "_arg",
							"type": "string"
						}
					],
					"name": "encode",
					"outputs": [
						{
							"internalType": "bytes",
							"name": "",
							"type": "bytes"
						}
					],
					"stateMutability": "pure",
					"type": "function"
				},
				{
					"inputs": [
						{
							"internalType": "address[]",
							"name": "targets",
							"type": "address[]"
						},
						{
							"internalType": "bytes[]",
							"name": "data",
							"type": "bytes[]"
						}
					],
					"name": "multiCallTx",
					"outputs": [],
					"stateMutability": "nonpayable",
					"type": "function"
				}
			],
			"devdoc": {
				"kind": "dev",
				"methods": {},
				"version": 1
			},
			"evm": {
				"assembly": "    /* \"Example_Calls/MCall.sol\":1273:1790  contract Caller{... */\n  mstore(0x40, 0x80)\n  callvalue\n  dup1\n  iszero\n  tag_1\n  jumpi\n  0x00\n  dup1\n  revert\ntag_1:\n  pop\n  dataSize(sub_0)\n  dup1\n  dataOffset(sub_0)\n  0x00\n  codecopy\n  0x00\n  return\nstop\n\nsub_0: assembly {\n        /* \"Example_Calls/MCall.sol\":1273:1790  contract Caller{... */\n      mstore(0x40, 0x80)\n      callvalue\n      dup1\n      iszero\n      tag_1\n      jumpi\n      0x00\n      dup1\n      revert\n    tag_1:\n      pop\n      jumpi(tag_2, lt(calldatasize, 0x04))\n      shr(0xe0, calldataload(0x00))\n      dup1\n      0x17fe2da2\n      eq\n      tag_3\n      jumpi\n      dup1\n      0x6105187e\n      eq\n      tag_4\n      jumpi\n    tag_2:\n      0x00\n      dup1\n      revert\n        /* \"Example_Calls/MCall.sol\":1611:1787  function encode(string calldata _func, string calldata _arg) public pure returns(bytes memory) {... */\n    tag_3:\n      tag_5\n      0x04\n      dup1\n      calldatasize\n      sub\n      dup2\n      add\n      swap1\n      tag_6\n      swap2\n      swap1\n      tag_7\n      jump\t// in\n    tag_6:\n      tag_8\n      jump\t// in\n    tag_5:\n      mload(0x40)\n      tag_9\n      swap2\n      swap1\n      tag_10\n      jump\t// in\n    tag_9:\n      mload(0x40)\n      dup1\n      swap2\n      sub\n      swap1\n      return\n        /* \"Example_Calls/MCall.sol\":1294:1605  function multiCallTx(address[] calldata targets, bytes[] calldata data) public{... */\n    tag_4:\n      tag_11\n      0x04\n      dup1\n      calldatasize\n      sub\n      dup2\n      add\n      swap1\n      tag_12\n      swap2\n      swap1\n      tag_13\n      jump\t// in\n    tag_12:\n      tag_14\n      jump\t// in\n    tag_11:\n      stop\n        /* \"Example_Calls/MCall.sol\":1611:1787  function encode(string calldata _func, string calldata _arg) public pure returns(bytes memory) {... */\n    tag_8:\n        /* \"Example_Calls/MCall.sol\":1692:1704  bytes memory */\n      0x60\n        /* \"Example_Calls/MCall.sol\":1760:1765  _func */\n      dup5\n      dup5\n        /* \"Example_Calls/MCall.sol\":1766:1770  _arg */\n      dup5\n      dup5\n        /* \"Example_Calls/MCall.sol\":1723:1780  abi.encodeWithSignature(... */\n      add(0x24, mload(0x40))\n      tag_16\n      swap3\n      swap2\n      swap1\n      tag_17\n      jump\t// in\n    tag_16:\n      mload(0x40)\n      0x20\n      dup2\n      dup4\n      sub\n      sub\n      dup2\n      mstore\n      swap1\n      0x40\n      mstore\n      swap2\n      swap1\n      mload(0x40)\n      tag_18\n      swap3\n      swap2\n      swap1\n      tag_19\n      jump\t// in\n    tag_18:\n      mload(0x40)\n      dup1\n      swap2\n      sub\n      swap1\n      keccak256\n      not(0xffffffffffffffffffffffffffffffffffffffffffffffffffffffff)\n      and\n      0x20\n      dup3\n      add\n      dup1\n      mload\n      0xffffffffffffffffffffffffffffffffffffffffffffffffffffffff\n      dup4\n      dup2\n      dup4\n      and\n      or\n      dup4\n      mstore\n      pop\n      pop\n      pop\n      pop\n        /* \"Example_Calls/MCall.sol\":1716:1780  return abi.encodeWithSignature(... */\n      swap1\n      pop\n        /* \"Example_Calls/MCall.sol\":1611:1787  function encode(string calldata _func, string calldata _arg) public pure returns(bytes memory) {... */\n      swap5\n      swap4\n      pop\n      pop\n      pop\n      pop\n      jump\t// out\n        /* \"Example_Calls/MCall.sol\":1294:1605  function multiCallTx(address[] calldata targets, bytes[] calldata data) public{... */\n    tag_14:\n        /* \"Example_Calls/MCall.sol\":1408:1412  data */\n      dup2\n      dup2\n        /* \"Example_Calls/MCall.sol\":1408:1419  data.length */\n      swap1\n      pop\n        /* \"Example_Calls/MCall.sol\":1390:1397  targets */\n      dup5\n      dup5\n        /* \"Example_Calls/MCall.sol\":1390:1404  targets.length */\n      swap1\n      pop\n        /* \"Example_Calls/MCall.sol\":1390:1419  targets.length == data.length */\n      eq\n        /* \"Example_Calls/MCall.sol\":1382:1444  require(targets.length == data.length, \"invalid targets/data\") */\n      tag_21\n      jumpi\n      mload(0x40)\n      0x08c379a000000000000000000000000000000000000000000000000000000000\n      dup2\n      mstore\n      0x04\n      add\n      tag_22\n      swap1\n      tag_23\n      jump\t// in\n    tag_22:\n      mload(0x40)\n      dup1\n      swap2\n      sub\n      swap1\n      revert\n    tag_21:\n        /* \"Example_Calls/MCall.sol\":1460:1466  uint i */\n      0x00\n        /* \"Example_Calls/MCall.sol\":1455:1599  for (uint i; i < targets.length; ++i){... */\n    tag_24:\n        /* \"Example_Calls/MCall.sol\":1472:1479  targets */\n      dup5\n      dup5\n        /* \"Example_Calls/MCall.sol\":1472:1486  targets.length */\n      swap1\n      pop\n        /* \"Example_Calls/MCall.sol\":1468:1469  i */\n      dup2\n        /* \"Example_Calls/MCall.sol\":1468:1486  i < targets.length */\n      lt\n        /* \"Example_Calls/MCall.sol\":1455:1599  for (uint i; i < targets.length; ++i){... */\n      iszero\n      tag_25\n      jumpi\n        /* \"Example_Calls/MCall.sol\":1507:1518  bool result */\n      0x00\n        /* \"Example_Calls/MCall.sol\":1523:1530  targets */\n      dup6\n      dup6\n        /* \"Example_Calls/MCall.sol\":1531:1532  i */\n      dup4\n        /* \"Example_Calls/MCall.sol\":1523:1533  targets[i] */\n      dup2\n      dup2\n      lt\n      tag_27\n      jumpi\n      tag_28\n      tag_29\n      jump\t// in\n    tag_28:\n    tag_27:\n      swap1\n      pop\n      0x20\n      mul\n      add\n      0x20\n      dup2\n      add\n      swap1\n      tag_30\n      swap2\n      swap1\n      tag_31\n      jump\t// in\n    tag_30:\n        /* \"Example_Calls/MCall.sol\":1523:1538  targets[i].call */\n      0xffffffffffffffffffffffffffffffffffffffff\n      and\n        /* \"Example_Calls/MCall.sol\":1539:1543  data */\n      dup5\n      dup5\n        /* \"Example_Calls/MCall.sol\":1544:1545  i */\n      dup5\n        /* \"Example_Calls/MCall.sol\":1539:1546  data[i] */\n      dup2\n      dup2\n      lt\n      tag_32\n      jumpi\n      tag_33\n      tag_29\n      jump\t// in\n    tag_33:\n    tag_32:\n      swap1\n      pop\n      0x20\n      mul\n      dup2\n      add\n      swap1\n      tag_34\n      swap2\n      swap1\n      tag_35\n      jump\t// in\n    tag_34:\n        /* \"Example_Calls/MCall.sol\":1523:1547  targets[i].call(data[i]) */\n      mload(0x40)\n      tag_36\n      swap3\n      swap2\n      swap1\n      tag_37\n      jump\t// in\n    tag_36:\n      0x00\n      mload(0x40)\n      dup1\n      dup4\n      sub\n      dup2\n      0x00\n      dup7\n      gas\n      call\n      swap2\n      pop\n      pop\n      returndatasize\n      dup1\n      0x00\n      dup2\n      eq\n      tag_40\n      jumpi\n      mload(0x40)\n      swap2\n      pop\n      and(add(returndatasize, 0x3f), not(0x1f))\n      dup3\n      add\n      0x40\n      mstore\n      returndatasize\n      dup3\n      mstore\n      returndatasize\n      0x00\n      0x20\n      dup5\n      add\n      returndatacopy\n      jump(tag_39)\n    tag_40:\n      0x60\n      swap2\n      pop\n    tag_39:\n      pop\n        /* \"Example_Calls/MCall.sol\":1506:1547  (bool result,) = targets[i].call(data[i]) */\n      pop\n      swap1\n      pop\n        /* \"Example_Calls/MCall.sol\":1569:1575  result */\n      dup1\n        /* \"Example_Calls/MCall.sol\":1561:1588  require(result,\"tx failed\") */\n      tag_41\n      jumpi\n      mload(0x40)\n      0x08c379a000000000000000000000000000000000000000000000000000000000\n      dup2\n      mstore\n      0x04\n      add\n      tag_42\n      swap1\n      tag_43\n      jump\t// in\n    tag_42:\n      mload(0x40)\n      dup1\n      swap2\n      sub\n      swap1\n      revert\n    tag_41:\n        /* \"Example_Calls/MCall.sol\":1492:1599  {... */\n      pop\n        /* \"Example_Calls/MCall.sol\":1488:1491  ++i */\n      dup1\n      0x01\n      add\n      swap1\n      pop\n        /* \"Example_Calls/MCall.sol\":1455:1599  for (uint i; i < targets.length; ++i){... */\n      jump(tag_24)\n    tag_25:\n      pop\n        /* \"Example_Calls/MCall.sol\":1294:1605  function multiCallTx(address[] calldata targets, bytes[] calldata data) public{... */\n      pop\n      pop\n      pop\n      pop\n      jump\t// out\n        /* \"#utility.yul\":88:205   */\n    tag_45:\n        /* \"#utility.yul\":197:198   */\n      0x00\n        /* \"#utility.yul\":194:195   */\n      dup1\n        /* \"#utility.yul\":187:199   */\n      revert\n        /* \"#utility.yul\":211:328   */\n    tag_46:\n        /* \"#utility.yul\":320:321   */\n      0x00\n        /* \"#utility.yul\":317:318   */\n      dup1\n        /* \"#utility.yul\":310:322   */\n      revert\n        /* \"#utility.yul\":334:451   */\n    tag_47:\n        /* \"#utility.yul\":443:444   */\n      0x00\n        /* \"#utility.yul\":440:441   */\n      dup1\n        /* \"#utility.yul\":433:445   */\n      revert\n        /* \"#utility.yul\":457:574   */\n    tag_48:\n        /* \"#utility.yul\":566:567   */\n      0x00\n        /* \"#utility.yul\":563:564   */\n      dup1\n        /* \"#utility.yul\":556:568   */\n      revert\n        /* \"#utility.yul\":580:697   */\n    tag_49:\n        /* \"#utility.yul\":689:690   */\n      0x00\n        /* \"#utility.yul\":686:687   */\n      dup1\n        /* \"#utility.yul\":679:691   */\n      revert\n        /* \"#utility.yul\":717:1270   */\n    tag_50:\n        /* \"#utility.yul\":775:783   */\n      0x00\n        /* \"#utility.yul\":785:791   */\n      dup1\n        /* \"#utility.yul\":835:838   */\n      dup4\n        /* \"#utility.yul\":828:832   */\n      0x1f\n        /* \"#utility.yul\":820:826   */\n      dup5\n        /* \"#utility.yul\":816:833   */\n      add\n        /* \"#utility.yul\":812:839   */\n      slt\n        /* \"#utility.yul\":802:924   */\n      tag_84\n      jumpi\n        /* \"#utility.yul\":843:922   */\n      tag_85\n      tag_47\n      jump\t// in\n    tag_85:\n        /* \"#utility.yul\":802:924   */\n    tag_84:\n        /* \"#utility.yul\":956:962   */\n      dup3\n        /* \"#utility.yul\":943:963   */\n      calldataload\n        /* \"#utility.yul\":933:963   */\n      swap1\n      pop\n        /* \"#utility.yul\":986:1004   */\n      0xffffffffffffffff\n        /* \"#utility.yul\":978:984   */\n      dup2\n        /* \"#utility.yul\":975:1005   */\n      gt\n        /* \"#utility.yul\":972:1089   */\n      iszero\n      tag_86\n      jumpi\n        /* \"#utility.yul\":1008:1087   */\n      tag_87\n      tag_48\n      jump\t// in\n    tag_87:\n        /* \"#utility.yul\":972:1089   */\n    tag_86:\n        /* \"#utility.yul\":1122:1126   */\n      0x20\n        /* \"#utility.yul\":1114:1120   */\n      dup4\n        /* \"#utility.yul\":1110:1127   */\n      add\n        /* \"#utility.yul\":1098:1127   */\n      swap2\n      pop\n        /* \"#utility.yul\":1176:1179   */\n      dup4\n        /* \"#utility.yul\":1168:1172   */\n      0x01\n        /* \"#utility.yul\":1160:1166   */\n      dup3\n        /* \"#utility.yul\":1156:1173   */\n      mul\n        /* \"#utility.yul\":1146:1154   */\n      dup4\n        /* \"#utility.yul\":1142:1174   */\n      add\n        /* \"#utility.yul\":1139:1180   */\n      gt\n        /* \"#utility.yul\":1136:1264   */\n      iszero\n      tag_88\n      jumpi\n        /* \"#utility.yul\":1183:1262   */\n      tag_89\n      tag_49\n      jump\t// in\n    tag_89:\n        /* \"#utility.yul\":1136:1264   */\n    tag_88:\n        /* \"#utility.yul\":717:1270   */\n      swap3\n      pop\n      swap3\n      swap1\n      pop\n      jump\t// out\n        /* \"#utility.yul\":1276:2150   */\n    tag_7:\n        /* \"#utility.yul\":1368:1374   */\n      0x00\n        /* \"#utility.yul\":1376:1382   */\n      dup1\n        /* \"#utility.yul\":1384:1390   */\n      0x00\n        /* \"#utility.yul\":1392:1398   */\n      dup1\n        /* \"#utility.yul\":1441:1443   */\n      0x40\n        /* \"#utility.yul\":1429:1438   */\n      dup6\n        /* \"#utility.yul\":1420:1427   */\n      dup8\n        /* \"#utility.yul\":1416:1439   */\n      sub\n        /* \"#utility.yul\":1412:1444   */\n      slt\n        /* \"#utility.yul\":1409:1528   */\n      iszero\n      tag_91\n      jumpi\n        /* \"#utility.yul\":1447:1526   */\n      tag_92\n      tag_45\n      jump\t// in\n    tag_92:\n        /* \"#utility.yul\":1409:1528   */\n    tag_91:\n        /* \"#utility.yul\":1595:1596   */\n      0x00\n        /* \"#utility.yul\":1584:1593   */\n      dup6\n        /* \"#utility.yul\":1580:1597   */\n      add\n        /* \"#utility.yul\":1567:1598   */\n      calldataload\n        /* \"#utility.yul\":1625:1643   */\n      0xffffffffffffffff\n        /* \"#utility.yul\":1617:1623   */\n      dup2\n        /* \"#utility.yul\":1614:1644   */\n      gt\n        /* \"#utility.yul\":1611:1728   */\n      iszero\n      tag_93\n      jumpi\n        /* \"#utility.yul\":1647:1726   */\n      tag_94\n      tag_46\n      jump\t// in\n    tag_94:\n        /* \"#utility.yul\":1611:1728   */\n    tag_93:\n        /* \"#utility.yul\":1760:1825   */\n      tag_95\n        /* \"#utility.yul\":1817:1824   */\n      dup8\n        /* \"#utility.yul\":1808:1814   */\n      dup3\n        /* \"#utility.yul\":1797:1806   */\n      dup9\n        /* \"#utility.yul\":1793:1815   */\n      add\n        /* \"#utility.yul\":1760:1825   */\n      tag_50\n      jump\t// in\n    tag_95:\n        /* \"#utility.yul\":1742:1825   */\n      swap5\n      pop\n      swap5\n      pop\n        /* \"#utility.yul\":1538:1835   */\n      pop\n        /* \"#utility.yul\":1902:1904   */\n      0x20\n        /* \"#utility.yul\":1891:1900   */\n      dup6\n        /* \"#utility.yul\":1887:1905   */\n      add\n        /* \"#utility.yul\":1874:1906   */\n      calldataload\n        /* \"#utility.yul\":1933:1951   */\n      0xffffffffffffffff\n        /* \"#utility.yul\":1925:1931   */\n      dup2\n        /* \"#utility.yul\":1922:1952   */\n      gt\n        /* \"#utility.yul\":1919:2036   */\n      iszero\n      tag_96\n      jumpi\n        /* \"#utility.yul\":1955:2034   */\n      tag_97\n      tag_46\n      jump\t// in\n    tag_97:\n        /* \"#utility.yul\":1919:2036   */\n    tag_96:\n        /* \"#utility.yul\":2068:2133   */\n      tag_98\n        /* \"#utility.yul\":2125:2132   */\n      dup8\n        /* \"#utility.yul\":2116:2122   */\n      dup3\n        /* \"#utility.yul\":2105:2114   */\n      dup9\n        /* \"#utility.yul\":2101:2123   */\n      add\n        /* \"#utility.yul\":2068:2133   */\n      tag_50\n      jump\t// in\n    tag_98:\n        /* \"#utility.yul\":2050:2133   */\n      swap3\n      pop\n      swap3\n      pop\n        /* \"#utility.yul\":1845:2143   */\n      pop\n        /* \"#utility.yul\":1276:2150   */\n      swap3\n      swap6\n      swap2\n      swap5\n      pop\n      swap3\n      pop\n      jump\t// out\n        /* \"#utility.yul\":2156:2254   */\n    tag_51:\n        /* \"#utility.yul\":2207:2213   */\n      0x00\n        /* \"#utility.yul\":2241:2246   */\n      dup2\n        /* \"#utility.yul\":2235:2247   */\n      mload\n        /* \"#utility.yul\":2225:2247   */\n      swap1\n      pop\n        /* \"#utility.yul\":2156:2254   */\n      swap2\n      swap1\n      pop\n      jump\t// out\n        /* \"#utility.yul\":2260:2428   */\n    tag_52:\n        /* \"#utility.yul\":2343:2354   */\n      0x00\n        /* \"#utility.yul\":2377:2383   */\n      dup3\n        /* \"#utility.yul\":2372:2375   */\n      dup3\n        /* \"#utility.yul\":2365:2384   */\n      mstore\n        /* \"#utility.yul\":2417:2421   */\n      0x20\n        /* \"#utility.yul\":2412:2415   */\n      dup3\n        /* \"#utility.yul\":2408:2422   */\n      add\n        /* \"#utility.yul\":2393:2422   */\n      swap1\n      pop\n        /* \"#utility.yul\":2260:2428   */\n      swap3\n      swap2\n      pop\n      pop\n      jump\t// out\n        /* \"#utility.yul\":2434:2573   */\n    tag_53:\n        /* \"#utility.yul\":2523:2529   */\n      dup3\n        /* \"#utility.yul\":2518:2521   */\n      dup2\n        /* \"#utility.yul\":2513:2516   */\n      dup4\n        /* \"#utility.yul\":2507:2530   */\n      mcopy\n        /* \"#utility.yul\":2564:2565   */\n      0x00\n        /* \"#utility.yul\":2555:2561   */\n      dup4\n        /* \"#utility.yul\":2550:2553   */\n      dup4\n        /* \"#utility.yul\":2546:2562   */\n      add\n        /* \"#utility.yul\":2539:2566   */\n      mstore\n        /* \"#utility.yul\":2434:2573   */\n      pop\n      pop\n      pop\n      jump\t// out\n        /* \"#utility.yul\":2579:2681   */\n    tag_54:\n        /* \"#utility.yul\":2620:2626   */\n      0x00\n        /* \"#utility.yul\":2671:2673   */\n      0x1f\n        /* \"#utility.yul\":2667:2674   */\n      not\n        /* \"#utility.yul\":2662:2664   */\n      0x1f\n        /* \"#utility.yul\":2655:2660   */\n      dup4\n        /* \"#utility.yul\":2651:2665   */\n      add\n        /* \"#utility.yul\":2647:2675   */\n      and\n        /* \"#utility.yul\":2637:2675   */\n      swap1\n      pop\n        /* \"#utility.yul\":2579:2681   */\n      swap2\n      swap1\n      pop\n      jump\t// out\n        /* \"#utility.yul\":2687:3060   */\n    tag_55:\n        /* \"#utility.yul\":2773:2776   */\n      0x00\n        /* \"#utility.yul\":2801:2839   */\n      tag_104\n        /* \"#utility.yul\":2833:2838   */\n      dup3\n        /* \"#utility.yul\":2801:2839   */\n      tag_51\n      jump\t// in\n    tag_104:\n        /* \"#utility.yul\":2855:2925   */\n      tag_105\n        /* \"#utility.yul\":2918:2924   */\n      dup2\n        /* \"#utility.yul\":2913:2916   */\n      dup6\n        /* \"#utility.yul\":2855:2925   */\n      tag_52\n      jump\t// in\n    tag_105:\n        /* \"#utility.yul\":2848:2925   */\n      swap4\n      pop\n        /* \"#utility.yul\":2934:2999   */\n      tag_106\n        /* \"#utility.yul\":2992:2998   */\n      dup2\n        /* \"#utility.yul\":2987:2990   */\n      dup6\n        /* \"#utility.yul\":2980:2984   */\n      0x20\n        /* \"#utility.yul\":2973:2978   */\n      dup7\n        /* \"#utility.yul\":2969:2985   */\n      add\n        /* \"#utility.yul\":2934:2999   */\n      tag_53\n      jump\t// in\n    tag_106:\n        /* \"#utility.yul\":3024:3053   */\n      tag_107\n        /* \"#utility.yul\":3046:3052   */\n      dup2\n        /* \"#utility.yul\":3024:3053   */\n      tag_54\n      jump\t// in\n    tag_107:\n        /* \"#utility.yul\":3019:3022   */\n      dup5\n        /* \"#utility.yul\":3015:3054   */\n      add\n        /* \"#utility.yul\":3008:3054   */\n      swap2\n      pop\n        /* \"#utility.yul\":2777:3060   */\n      pop\n        /* \"#utility.yul\":2687:3060   */\n      swap3\n      swap2\n      pop\n      pop\n      jump\t// out\n        /* \"#utility.yul\":3066:3375   */\n    tag_10:\n        /* \"#utility.yul\":3177:3181   */\n      0x00\n        /* \"#utility.yul\":3215:3217   */\n      0x20\n        /* \"#utility.yul\":3204:3213   */\n      dup3\n        /* \"#utility.yul\":3200:3218   */\n      add\n        /* \"#utility.yul\":3192:3218   */\n      swap1\n      pop\n        /* \"#utility.yul\":3264:3273   */\n      dup2\n        /* \"#utility.yul\":3258:3262   */\n      dup2\n        /* \"#utility.yul\":3254:3274   */\n      sub\n        /* \"#utility.yul\":3250:3251   */\n      0x00\n        /* \"#utility.yul\":3239:3248   */\n      dup4\n        /* \"#utility.yul\":3235:3252   */\n      add\n        /* \"#utility.yul\":3228:3275   */\n      mstore\n        /* \"#utility.yul\":3292:3368   */\n      tag_109\n        /* \"#utility.yul\":3363:3367   */\n      dup2\n        /* \"#utility.yul\":3354:3360   */\n      dup5\n        /* \"#utility.yul\":3292:3368   */\n      tag_55\n      jump\t// in\n    tag_109:\n        /* \"#utility.yul\":3284:3368   */\n      swap1\n      pop\n        /* \"#utility.yul\":3066:3375   */\n      swap3\n      swap2\n      pop\n      pop\n      jump\t// out\n        /* \"#utility.yul\":3398:3966   */\n    tag_56:\n        /* \"#utility.yul\":3471:3479   */\n      0x00\n        /* \"#utility.yul\":3481:3487   */\n      dup1\n        /* \"#utility.yul\":3531:3534   */\n      dup4\n        /* \"#utility.yul\":3524:3528   */\n      0x1f\n        /* \"#utility.yul\":3516:3522   */\n      dup5\n        /* \"#utility.yul\":3512:3529   */\n      add\n        /* \"#utility.yul\":3508:3535   */\n      slt\n        /* \"#utility.yul\":3498:3620   */\n      tag_111\n      jumpi\n        /* \"#utility.yul\":3539:3618   */\n      tag_112\n      tag_47\n      jump\t// in\n    tag_112:\n        /* \"#utility.yul\":3498:3620   */\n    tag_111:\n        /* \"#utility.yul\":3652:3658   */\n      dup3\n        /* \"#utility.yul\":3639:3659   */\n      calldataload\n        /* \"#utility.yul\":3629:3659   */\n      swap1\n      pop\n        /* \"#utility.yul\":3682:3700   */\n      0xffffffffffffffff\n        /* \"#utility.yul\":3674:3680   */\n      dup2\n        /* \"#utility.yul\":3671:3701   */\n      gt\n        /* \"#utility.yul\":3668:3785   */\n      iszero\n      tag_113\n      jumpi\n        /* \"#utility.yul\":3704:3783   */\n      tag_114\n      tag_48\n      jump\t// in\n    tag_114:\n        /* \"#utility.yul\":3668:3785   */\n    tag_113:\n        /* \"#utility.yul\":3818:3822   */\n      0x20\n        /* \"#utility.yul\":3810:3816   */\n      dup4\n        /* \"#utility.yul\":3806:3823   */\n      add\n        /* \"#utility.yul\":3794:3823   */\n      swap2\n      pop\n        /* \"#utility.yul\":3872:3875   */\n      dup4\n        /* \"#utility.yul\":3864:3868   */\n      0x20\n        /* \"#utility.yul\":3856:3862   */\n      dup3\n        /* \"#utility.yul\":3852:3869   */\n      mul\n        /* \"#utility.yul\":3842:3850   */\n      dup4\n        /* \"#utility.yul\":3838:3870   */\n      add\n        /* \"#utility.yul\":3835:3876   */\n      gt\n        /* \"#utility.yul\":3832:3960   */\n      iszero\n      tag_115\n      jumpi\n        /* \"#utility.yul\":3879:3958   */\n      tag_116\n      tag_49\n      jump\t// in\n    tag_116:\n        /* \"#utility.yul\":3832:3960   */\n    tag_115:\n        /* \"#utility.yul\":3398:3966   */\n      swap3\n      pop\n      swap3\n      swap1\n      pop\n      jump\t// out\n        /* \"#utility.yul\":3987:4566   */\n    tag_57:\n        /* \"#utility.yul\":4071:4079   */\n      0x00\n        /* \"#utility.yul\":4081:4087   */\n      dup1\n        /* \"#utility.yul\":4131:4134   */\n      dup4\n        /* \"#utility.yul\":4124:4128   */\n      0x1f\n        /* \"#utility.yul\":4116:4122   */\n      dup5\n        /* \"#utility.yul\":4112:4129   */\n      add\n        /* \"#utility.yul\":4108:4135   */\n      slt\n        /* \"#utility.yul\":4098:4220   */\n      tag_118\n      jumpi\n        /* \"#utility.yul\":4139:4218   */\n      tag_119\n      tag_47\n      jump\t// in\n    tag_119:\n        /* \"#utility.yul\":4098:4220   */\n    tag_118:\n        /* \"#utility.yul\":4252:4258   */\n      dup3\n        /* \"#utility.yul\":4239:4259   */\n      calldataload\n        /* \"#utility.yul\":4229:4259   */\n      swap1\n      pop\n        /* \"#utility.yul\":4282:4300   */\n      0xffffffffffffffff\n        /* \"#utility.yul\":4274:4280   */\n      dup2\n        /* \"#utility.yul\":4271:4301   */\n      gt\n        /* \"#utility.yul\":4268:4385   */\n      iszero\n      tag_120\n      jumpi\n        /* \"#utility.yul\":4304:4383   */\n      tag_121\n      tag_48\n      jump\t// in\n    tag_121:\n        /* \"#utility.yul\":4268:4385   */\n    tag_120:\n        /* \"#utility.yul\":4418:4422   */\n      0x20\n        /* \"#utility.yul\":4410:4416   */\n      dup4\n        /* \"#utility.yul\":4406:4423   */\n      add\n        /* \"#utility.yul\":4394:4423   */\n      swap2\n      pop\n        /* \"#utility.yul\":4472:4475   */\n      dup4\n        /* \"#utility.yul\":4464:4468   */\n      0x20\n        /* \"#utility.yul\":4456:4462   */\n      dup3\n        /* \"#utility.yul\":4452:4469   */\n      mul\n        /* \"#utility.yul\":4442:4450   */\n      dup4\n        /* \"#utility.yul\":4438:4470   */\n      add\n        /* \"#utility.yul\":4435:4476   */\n      gt\n        /* \"#utility.yul\":4432:4560   */\n      iszero\n      tag_122\n      jumpi\n        /* \"#utility.yul\":4479:4558   */\n      tag_123\n      tag_49\n      jump\t// in\n    tag_123:\n        /* \"#utility.yul\":4432:4560   */\n    tag_122:\n        /* \"#utility.yul\":3987:4566   */\n      swap3\n      pop\n      swap3\n      swap1\n      pop\n      jump\t// out\n        /* \"#utility.yul\":4572:5528   */\n    tag_13:\n        /* \"#utility.yul\":4705:4711   */\n      0x00\n        /* \"#utility.yul\":4713:4719   */\n      dup1\n        /* \"#utility.yul\":4721:4727   */\n      0x00\n        /* \"#utility.yul\":4729:4735   */\n      dup1\n        /* \"#utility.yul\":4778:4780   */\n      0x40\n        /* \"#utility.yul\":4766:4775   */\n      dup6\n        /* \"#utility.yul\":4757:4764   */\n      dup8\n        /* \"#utility.yul\":4753:4776   */\n      sub\n        /* \"#utility.yul\":4749:4781   */\n      slt\n        /* \"#utility.yul\":4746:4865   */\n      iszero\n      tag_125\n      jumpi\n        /* \"#utility.yul\":4784:4863   */\n      tag_126\n      tag_45\n      jump\t// in\n    tag_126:\n        /* \"#utility.yul\":4746:4865   */\n    tag_125:\n        /* \"#utility.yul\":4932:4933   */\n      0x00\n        /* \"#utility.yul\":4921:4930   */\n      dup6\n        /* \"#utility.yul\":4917:4934   */\n      add\n        /* \"#utility.yul\":4904:4935   */\n      calldataload\n        /* \"#utility.yul\":4962:4980   */\n      0xffffffffffffffff\n        /* \"#utility.yul\":4954:4960   */\n      dup2\n        /* \"#utility.yul\":4951:4981   */\n      gt\n        /* \"#utility.yul\":4948:5065   */\n      iszero\n      tag_127\n      jumpi\n        /* \"#utility.yul\":4984:5063   */\n      tag_128\n      tag_46\n      jump\t// in\n    tag_128:\n        /* \"#utility.yul\":4948:5065   */\n    tag_127:\n        /* \"#utility.yul\":5097:5177   */\n      tag_129\n        /* \"#utility.yul\":5169:5176   */\n      dup8\n        /* \"#utility.yul\":5160:5166   */\n      dup3\n        /* \"#utility.yul\":5149:5158   */\n      dup9\n        /* \"#utility.yul\":5145:5167   */\n      add\n        /* \"#utility.yul\":5097:5177   */\n      tag_56\n      jump\t// in\n    tag_129:\n        /* \"#utility.yul\":5079:5177   */\n      swap5\n      pop\n      swap5\n      pop\n        /* \"#utility.yul\":4875:5187   */\n      pop\n        /* \"#utility.yul\":5254:5256   */\n      0x20\n        /* \"#utility.yul\":5243:5252   */\n      dup6\n        /* \"#utility.yul\":5239:5257   */\n      add\n        /* \"#utility.yul\":5226:5258   */\n      calldataload\n        /* \"#utility.yul\":5285:5303   */\n      0xffffffffffffffff\n        /* \"#utility.yul\":5277:5283   */\n      dup2\n        /* \"#utility.yul\":5274:5304   */\n      gt\n        /* \"#utility.yul\":5271:5388   */\n      iszero\n      tag_130\n      jumpi\n        /* \"#utility.yul\":5307:5386   */\n      tag_131\n      tag_46\n      jump\t// in\n    tag_131:\n        /* \"#utility.yul\":5271:5388   */\n    tag_130:\n        /* \"#utility.yul\":5420:5511   */\n      tag_132\n        /* \"#utility.yul\":5503:5510   */\n      dup8\n        /* \"#utility.yul\":5494:5500   */\n      dup3\n        /* \"#utility.yul\":5483:5492   */\n      dup9\n        /* \"#utility.yul\":5479:5501   */\n      add\n        /* \"#utility.yul\":5420:5511   */\n      tag_57\n      jump\t// in\n    tag_132:\n        /* \"#utility.yul\":5402:5511   */\n      swap3\n      pop\n      swap3\n      pop\n        /* \"#utility.yul\":5197:5521   */\n      pop\n        /* \"#utility.yul\":4572:5528   */\n      swap3\n      swap6\n      swap2\n      swap5\n      pop\n      swap3\n      pop\n      jump\t// out\n        /* \"#utility.yul\":5534:5703   */\n    tag_58:\n        /* \"#utility.yul\":5618:5629   */\n      0x00\n        /* \"#utility.yul\":5652:5658   */\n      dup3\n        /* \"#utility.yul\":5647:5650   */\n      dup3\n        /* \"#utility.yul\":5640:5659   */\n      mstore\n        /* \"#utility.yul\":5692:5696   */\n      0x20\n        /* \"#utility.yul\":5687:5690   */\n      dup3\n        /* \"#utility.yul\":5683:5697   */\n      add\n        /* \"#utility.yul\":5668:5697   */\n      swap1\n      pop\n        /* \"#utility.yul\":5534:5703   */\n      swap3\n      swap2\n      pop\n      pop\n      jump\t// out\n        /* \"#utility.yul\":5709:5857   */\n    tag_59:\n        /* \"#utility.yul\":5807:5813   */\n      dup3\n        /* \"#utility.yul\":5802:5805   */\n      dup2\n        /* \"#utility.yul\":5797:5800   */\n      dup4\n        /* \"#utility.yul\":5784:5814   */\n      calldatacopy\n        /* \"#utility.yul\":5848:5849   */\n      0x00\n        /* \"#utility.yul\":5839:5845   */\n      dup4\n        /* \"#utility.yul\":5834:5837   */\n      dup4\n        /* \"#utility.yul\":5830:5846   */\n      add\n        /* \"#utility.yul\":5823:5850   */\n      mstore\n        /* \"#utility.yul\":5709:5857   */\n      pop\n      pop\n      pop\n      jump\t// out\n        /* \"#utility.yul\":5887:6204   */\n    tag_60:\n        /* \"#utility.yul\":5985:5988   */\n      0x00\n        /* \"#utility.yul\":6006:6077   */\n      tag_136\n        /* \"#utility.yul\":6070:6076   */\n      dup4\n        /* \"#utility.yul\":6065:6068   */\n      dup6\n        /* \"#utility.yul\":6006:6077   */\n      tag_58\n      jump\t// in\n    tag_136:\n        /* \"#utility.yul\":5999:6077   */\n      swap4\n      pop\n        /* \"#utility.yul\":6087:6143   */\n      tag_137\n        /* \"#utility.yul\":6136:6142   */\n      dup4\n        /* \"#utility.yul\":6131:6134   */\n      dup6\n        /* \"#utility.yul\":6124:6129   */\n      dup5\n        /* \"#utility.yul\":6087:6143   */\n      tag_59\n      jump\t// in\n    tag_137:\n        /* \"#utility.yul\":6168:6197   */\n      tag_138\n        /* \"#utility.yul\":6190:6196   */\n      dup4\n        /* \"#utility.yul\":6168:6197   */\n      tag_54\n      jump\t// in\n    tag_138:\n        /* \"#utility.yul\":6163:6166   */\n      dup5\n        /* \"#utility.yul\":6159:6198   */\n      add\n        /* \"#utility.yul\":6152:6198   */\n      swap1\n      pop\n        /* \"#utility.yul\":5887:6204   */\n      swap4\n      swap3\n      pop\n      pop\n      pop\n      jump\t// out\n        /* \"#utility.yul\":6210:6543   */\n    tag_17:\n        /* \"#utility.yul\":6333:6337   */\n      0x00\n        /* \"#utility.yul\":6371:6373   */\n      0x20\n        /* \"#utility.yul\":6360:6369   */\n      dup3\n        /* \"#utility.yul\":6356:6374   */\n      add\n        /* \"#utility.yul\":6348:6374   */\n      swap1\n      pop\n        /* \"#utility.yul\":6420:6429   */\n      dup2\n        /* \"#utility.yul\":6414:6418   */\n      dup2\n        /* \"#utility.yul\":6410:6430   */\n      sub\n        /* \"#utility.yul\":6406:6407   */\n      0x00\n        /* \"#utility.yul\":6395:6404   */\n      dup4\n        /* \"#utility.yul\":6391:6408   */\n      add\n        /* \"#utility.yul\":6384:6431   */\n      mstore\n        /* \"#utility.yul\":6448:6536   */\n      tag_140\n        /* \"#utility.yul\":6531:6535   */\n      dup2\n        /* \"#utility.yul\":6522:6528   */\n      dup5\n        /* \"#utility.yul\":6514:6520   */\n      dup7\n        /* \"#utility.yul\":6448:6536   */\n      tag_60\n      jump\t// in\n    tag_140:\n        /* \"#utility.yul\":6440:6536   */\n      swap1\n      pop\n        /* \"#utility.yul\":6210:6543   */\n      swap4\n      swap3\n      pop\n      pop\n      pop\n      jump\t// out\n        /* \"#utility.yul\":6549:6697   */\n    tag_61:\n        /* \"#utility.yul\":6651:6662   */\n      0x00\n        /* \"#utility.yul\":6688:6691   */\n      dup2\n        /* \"#utility.yul\":6673:6691   */\n      swap1\n      pop\n        /* \"#utility.yul\":6549:6697   */\n      swap3\n      swap2\n      pop\n      pop\n      jump\t// out\n        /* \"#utility.yul\":6727:7057   */\n    tag_62:\n        /* \"#utility.yul\":6843:6846   */\n      0x00\n        /* \"#utility.yul\":6864:6953   */\n      tag_143\n        /* \"#utility.yul\":6946:6952   */\n      dup4\n        /* \"#utility.yul\":6941:6944   */\n      dup6\n        /* \"#utility.yul\":6864:6953   */\n      tag_61\n      jump\t// in\n    tag_143:\n        /* \"#utility.yul\":6857:6953   */\n      swap4\n      pop\n        /* \"#utility.yul\":6963:7019   */\n      tag_144\n        /* \"#utility.yul\":7012:7018   */\n      dup4\n        /* \"#utility.yul\":7007:7010   */\n      dup6\n        /* \"#utility.yul\":7000:7005   */\n      dup5\n        /* \"#utility.yul\":6963:7019   */\n      tag_59\n      jump\t// in\n    tag_144:\n        /* \"#utility.yul\":7044:7050   */\n      dup3\n        /* \"#utility.yul\":7039:7042   */\n      dup5\n        /* \"#utility.yul\":7035:7051   */\n      add\n        /* \"#utility.yul\":7028:7051   */\n      swap1\n      pop\n        /* \"#utility.yul\":6727:7057   */\n      swap4\n      swap3\n      pop\n      pop\n      pop\n      jump\t// out\n        /* \"#utility.yul\":7063:7358   */\n    tag_19:\n        /* \"#utility.yul\":7205:7208   */\n      0x00\n        /* \"#utility.yul\":7227:7332   */\n      tag_146\n        /* \"#utility.yul\":7328:7331   */\n      dup3\n        /* \"#utility.yul\":7319:7325   */\n      dup5\n        /* \"#utility.yul\":7311:7317   */\n      dup7\n        /* \"#utility.yul\":7227:7332   */\n      tag_62\n      jump\t// in\n    tag_146:\n        /* \"#utility.yul\":7220:7332   */\n      swap2\n      pop\n        /* \"#utility.yul\":7349:7352   */\n      dup2\n        /* \"#utility.yul\":7342:7352   */\n      swap1\n      pop\n        /* \"#utility.yul\":7063:7358   */\n      swap4\n      swap3\n      pop\n      pop\n      pop\n      jump\t// out\n        /* \"#utility.yul\":7364:7534   */\n    tag_63:\n        /* \"#utility.yul\":7504:7526   */\n      0x696e76616c696420746172676574732f64617461000000000000000000000000\n        /* \"#utility.yul\":7500:7501   */\n      0x00\n        /* \"#utility.yul\":7492:7498   */\n      dup3\n        /* \"#utility.yul\":7488:7502   */\n      add\n        /* \"#utility.yul\":7481:7527   */\n      mstore\n        /* \"#utility.yul\":7364:7534   */\n      pop\n      jump\t// out\n        /* \"#utility.yul\":7540:7906   */\n    tag_64:\n        /* \"#utility.yul\":7682:7685   */\n      0x00\n        /* \"#utility.yul\":7703:7770   */\n      tag_149\n        /* \"#utility.yul\":7767:7769   */\n      0x14\n        /* \"#utility.yul\":7762:7765   */\n      dup4\n        /* \"#utility.yul\":7703:7770   */\n      tag_58\n      jump\t// in\n    tag_149:\n        /* \"#utility.yul\":7696:7770   */\n      swap2\n      pop\n        /* \"#utility.yul\":7779:7872   */\n      tag_150\n        /* \"#utility.yul\":7868:7871   */\n      dup3\n        /* \"#utility.yul\":7779:7872   */\n      tag_63\n      jump\t// in\n    tag_150:\n        /* \"#utility.yul\":7897:7899   */\n      0x20\n        /* \"#utility.yul\":7892:7895   */\n      dup3\n        /* \"#utility.yul\":7888:7900   */\n      add\n        /* \"#utility.yul\":7881:7900   */\n      swap1\n      pop\n        /* \"#utility.yul\":7540:7906   */\n      swap2\n      swap1\n      pop\n      jump\t// out\n        /* \"#utility.yul\":7912:8331   */\n    tag_23:\n        /* \"#utility.yul\":8078:8082   */\n      0x00\n        /* \"#utility.yul\":8116:8118   */\n      0x20\n        /* \"#utility.yul\":8105:8114   */\n      dup3\n        /* \"#utility.yul\":8101:8119   */\n      add\n        /* \"#utility.yul\":8093:8119   */\n      swap1\n      pop\n        /* \"#utility.yul\":8165:8174   */\n      dup2\n        /* \"#utility.yul\":8159:8163   */\n      dup2\n        /* \"#utility.yul\":8155:8175   */\n      sub\n        /* \"#utility.yul\":8151:8152   */\n      0x00\n        /* \"#utility.yul\":8140:8149   */\n      dup4\n        /* \"#utility.yul\":8136:8153   */\n      add\n        /* \"#utility.yul\":8129:8176   */\n      mstore\n        /* \"#utility.yul\":8193:8324   */\n      tag_152\n        /* \"#utility.yul\":8319:8323   */\n      dup2\n        /* \"#utility.yul\":8193:8324   */\n      tag_64\n      jump\t// in\n    tag_152:\n        /* \"#utility.yul\":8185:8324   */\n      swap1\n      pop\n        /* \"#utility.yul\":7912:8331   */\n      swap2\n      swap1\n      pop\n      jump\t// out\n        /* \"#utility.yul\":8337:8517   */\n    tag_29:\n        /* \"#utility.yul\":8385:8462   */\n      0x4e487b7100000000000000000000000000000000000000000000000000000000\n        /* \"#utility.yul\":8382:8383   */\n      0x00\n        /* \"#utility.yul\":8375:8463   */\n      mstore\n        /* \"#utility.yul\":8482:8486   */\n      0x32\n        /* \"#utility.yul\":8479:8480   */\n      0x04\n        /* \"#utility.yul\":8472:8487   */\n      mstore\n        /* \"#utility.yul\":8506:8510   */\n      0x24\n        /* \"#utility.yul\":8503:8504   */\n      0x00\n        /* \"#utility.yul\":8496:8511   */\n      revert\n        /* \"#utility.yul\":8523:8649   */\n    tag_65:\n        /* \"#utility.yul\":8560:8567   */\n      0x00\n        /* \"#utility.yul\":8600:8642   */\n      0xffffffffffffffffffffffffffffffffffffffff\n        /* \"#utility.yul\":8593:8598   */\n      dup3\n        /* \"#utility.yul\":8589:8643   */\n      and\n        /* \"#utility.yul\":8578:8643   */\n      swap1\n      pop\n        /* \"#utility.yul\":8523:8649   */\n      swap2\n      swap1\n      pop\n      jump\t// out\n        /* \"#utility.yul\":8655:8751   */\n    tag_66:\n        /* \"#utility.yul\":8692:8699   */\n      0x00\n        /* \"#utility.yul\":8721:8745   */\n      tag_156\n        /* \"#utility.yul\":8739:8744   */\n      dup3\n        /* \"#utility.yul\":8721:8745   */\n      tag_65\n      jump\t// in\n    tag_156:\n        /* \"#utility.yul\":8710:8745   */\n      swap1\n      pop\n        /* \"#utility.yul\":8655:8751   */\n      swap2\n      swap1\n      pop\n      jump\t// out\n        /* \"#utility.yul\":8757:8879   */\n    tag_67:\n        /* \"#utility.yul\":8830:8854   */\n      tag_158\n        /* \"#utility.yul\":8848:8853   */\n      dup2\n        /* \"#utility.yul\":8830:8854   */\n      tag_66\n      jump\t// in\n    tag_158:\n        /* \"#utility.yul\":8823:8828   */\n      dup2\n        /* \"#utility.yul\":8820:8855   */\n      eq\n        /* \"#utility.yul\":8810:8873   */\n      tag_159\n      jumpi\n        /* \"#utility.yul\":8869:8870   */\n      0x00\n        /* \"#utility.yul\":8866:8867   */\n      dup1\n        /* \"#utility.yul\":8859:8871   */\n      revert\n        /* \"#utility.yul\":8810:8873   */\n    tag_159:\n        /* \"#utility.yul\":8757:8879   */\n      pop\n      jump\t// out\n        /* \"#utility.yul\":8885:9024   */\n    tag_68:\n        /* \"#utility.yul\":8931:8936   */\n      0x00\n        /* \"#utility.yul\":8969:8975   */\n      dup2\n        /* \"#utility.yul\":8956:8976   */\n      calldataload\n        /* \"#utility.yul\":8947:8976   */\n      swap1\n      pop\n        /* \"#utility.yul\":8985:9018   */\n      tag_161\n        /* \"#utility.yul\":9012:9017   */\n      dup2\n        /* \"#utility.yul\":8985:9018   */\n      tag_67\n      jump\t// in\n    tag_161:\n        /* \"#utility.yul\":8885:9024   */\n      swap3\n      swap2\n      pop\n      pop\n      jump\t// out\n        /* \"#utility.yul\":9030:9359   */\n    tag_31:\n        /* \"#utility.yul\":9089:9095   */\n      0x00\n        /* \"#utility.yul\":9138:9140   */\n      0x20\n        /* \"#utility.yul\":9126:9135   */\n      dup3\n        /* \"#utility.yul\":9117:9124   */\n      dup5\n        /* \"#utility.yul\":9113:9136   */\n      sub\n        /* \"#utility.yul\":9109:9141   */\n      slt\n        /* \"#utility.yul\":9106:9225   */\n      iszero\n      tag_163\n      jumpi\n        /* \"#utility.yul\":9144:9223   */\n      tag_164\n      tag_45\n      jump\t// in\n    tag_164:\n        /* \"#utility.yul\":9106:9225   */\n    tag_163:\n        /* \"#utility.yul\":9264:9265   */\n      0x00\n        /* \"#utility.yul\":9289:9342   */\n      tag_165\n        /* \"#utility.yul\":9334:9341   */\n      dup5\n        /* \"#utility.yul\":9325:9331   */\n      dup3\n        /* \"#utility.yul\":9314:9323   */\n      dup6\n        /* \"#utility.yul\":9310:9332   */\n      add\n        /* \"#utility.yul\":9289:9342   */\n      tag_68\n      jump\t// in\n    tag_165:\n        /* \"#utility.yul\":9279:9342   */\n      swap2\n      pop\n        /* \"#utility.yul\":9235:9352   */\n      pop\n        /* \"#utility.yul\":9030:9359   */\n      swap3\n      swap2\n      pop\n      pop\n      jump\t// out\n        /* \"#utility.yul\":9365:9482   */\n    tag_69:\n        /* \"#utility.yul\":9474:9475   */\n      0x00\n        /* \"#utility.yul\":9471:9472   */\n      dup1\n        /* \"#utility.yul\":9464:9476   */\n      revert\n        /* \"#utility.yul\":9488:9605   */\n    tag_70:\n        /* \"#utility.yul\":9597:9598   */\n      0x00\n        /* \"#utility.yul\":9594:9595   */\n      dup1\n        /* \"#utility.yul\":9587:9599   */\n      revert\n        /* \"#utility.yul\":9611:9728   */\n    tag_71:\n        /* \"#utility.yul\":9720:9721   */\n      0x00\n        /* \"#utility.yul\":9717:9718   */\n      dup1\n        /* \"#utility.yul\":9710:9722   */\n      revert\n        /* \"#utility.yul\":9734:10458   */\n    tag_35:\n        /* \"#utility.yul\":9811:9815   */\n      0x00\n        /* \"#utility.yul\":9817:9823   */\n      dup1\n        /* \"#utility.yul\":9873:9884   */\n      dup4\n        /* \"#utility.yul\":9860:9885   */\n      calldataload\n        /* \"#utility.yul\":9973:9974   */\n      0x01\n        /* \"#utility.yul\":9967:9971   */\n      0x20\n        /* \"#utility.yul\":9963:9975   */\n      sub\n        /* \"#utility.yul\":9952:9960   */\n      dup5\n        /* \"#utility.yul\":9936:9950   */\n      calldatasize\n        /* \"#utility.yul\":9932:9961   */\n      sub\n        /* \"#utility.yul\":9928:9976   */\n      sub\n        /* \"#utility.yul\":9908:9926   */\n      dup2\n        /* \"#utility.yul\":9904:9977   */\n      slt\n        /* \"#utility.yul\":9894:10062   */\n      tag_170\n      jumpi\n        /* \"#utility.yul\":9981:10060   */\n      tag_171\n      tag_69\n      jump\t// in\n    tag_171:\n        /* \"#utility.yul\":9894:10062   */\n    tag_170:\n        /* \"#utility.yul\":10093:10111   */\n      dup1\n        /* \"#utility.yul\":10083:10091   */\n      dup5\n        /* \"#utility.yul\":10079:10112   */\n      add\n        /* \"#utility.yul\":10071:10112   */\n      swap3\n      pop\n        /* \"#utility.yul\":10145:10149   */\n      dup3\n        /* \"#utility.yul\":10132:10150   */\n      calldataload\n        /* \"#utility.yul\":10122:10150   */\n      swap2\n      pop\n        /* \"#utility.yul\":10173:10191   */\n      0xffffffffffffffff\n        /* \"#utility.yul\":10165:10171   */\n      dup3\n        /* \"#utility.yul\":10162:10192   */\n      gt\n        /* \"#utility.yul\":10159:10276   */\n      iszero\n      tag_172\n      jumpi\n        /* \"#utility.yul\":10195:10274   */\n      tag_173\n      tag_70\n      jump\t// in\n    tag_173:\n        /* \"#utility.yul\":10159:10276   */\n    tag_172:\n        /* \"#utility.yul\":10303:10305   */\n      0x20\n        /* \"#utility.yul\":10297:10301   */\n      dup4\n        /* \"#utility.yul\":10293:10306   */\n      add\n        /* \"#utility.yul\":10285:10306   */\n      swap3\n      pop\n        /* \"#utility.yul\":10360:10364   */\n      0x01\n        /* \"#utility.yul\":10352:10358   */\n      dup3\n        /* \"#utility.yul\":10348:10365   */\n      mul\n        /* \"#utility.yul\":10332:10346   */\n      calldatasize\n        /* \"#utility.yul\":10328:10366   */\n      sub\n        /* \"#utility.yul\":10322:10326   */\n      dup4\n        /* \"#utility.yul\":10318:10367   */\n      sgt\n        /* \"#utility.yul\":10315:10451   */\n      iszero\n      tag_174\n      jumpi\n        /* \"#utility.yul\":10370:10449   */\n      tag_175\n      tag_71\n      jump\t// in\n    tag_175:\n        /* \"#utility.yul\":10315:10451   */\n    tag_174:\n        /* \"#utility.yul\":9824:10458   */\n      pop\n        /* \"#utility.yul\":9734:10458   */\n      swap3\n      pop\n      swap3\n      swap1\n      pop\n      jump\t// out\n        /* \"#utility.yul\":10464:10611   */\n    tag_72:\n        /* \"#utility.yul\":10565:10576   */\n      0x00\n        /* \"#utility.yul\":10602:10605   */\n      dup2\n        /* \"#utility.yul\":10587:10605   */\n      swap1\n      pop\n        /* \"#utility.yul\":10464:10611   */\n      swap3\n      swap2\n      pop\n      pop\n      jump\t// out\n        /* \"#utility.yul\":10639:10966   */\n    tag_73:\n        /* \"#utility.yul\":10753:10756   */\n      0x00\n        /* \"#utility.yul\":10774:10862   */\n      tag_178\n        /* \"#utility.yul\":10855:10861   */\n      dup4\n        /* \"#utility.yul\":10850:10853   */\n      dup6\n        /* \"#utility.yul\":10774:10862   */\n      tag_72\n      jump\t// in\n    tag_178:\n        /* \"#utility.yul\":10767:10862   */\n      swap4\n      pop\n        /* \"#utility.yul\":10872:10928   */\n      tag_179\n        /* \"#utility.yul\":10921:10927   */\n      dup4\n        /* \"#utility.yul\":10916:10919   */\n      dup6\n        /* \"#utility.yul\":10909:10914   */\n      dup5\n        /* \"#utility.yul\":10872:10928   */\n      tag_59\n      jump\t// in\n    tag_179:\n        /* \"#utility.yul\":10953:10959   */\n      dup3\n        /* \"#utility.yul\":10948:10951   */\n      dup5\n        /* \"#utility.yul\":10944:10960   */\n      add\n        /* \"#utility.yul\":10937:10960   */\n      swap1\n      pop\n        /* \"#utility.yul\":10639:10966   */\n      swap4\n      swap3\n      pop\n      pop\n      pop\n      jump\t// out\n        /* \"#utility.yul\":10972:11263   */\n    tag_37:\n        /* \"#utility.yul\":11112:11115   */\n      0x00\n        /* \"#utility.yul\":11134:11237   */\n      tag_181\n        /* \"#utility.yul\":11233:11236   */\n      dup3\n        /* \"#utility.yul\":11224:11230   */\n      dup5\n        /* \"#utility.yul\":11216:11222   */\n      dup7\n        /* \"#utility.yul\":11134:11237   */\n      tag_73\n      jump\t// in\n    tag_181:\n        /* \"#utility.yul\":11127:11237   */\n      swap2\n      pop\n        /* \"#utility.yul\":11254:11257   */\n      dup2\n        /* \"#utility.yul\":11247:11257   */\n      swap1\n      pop\n        /* \"#utility.yul\":10972:11263   */\n      swap4\n      swap3\n      pop\n      pop\n      pop\n      jump\t// out\n        /* \"#utility.yul\":11269:11428   */\n    tag_74:\n        /* \"#utility.yul\":11409:11420   */\n      0x7478206661696c65640000000000000000000000000000000000000000000000\n        /* \"#utility.yul\":11405:11406   */\n      0x00\n        /* \"#utility.yul\":11397:11403   */\n      dup3\n        /* \"#utility.yul\":11393:11407   */\n      add\n        /* \"#utility.yul\":11386:11421   */\n      mstore\n        /* \"#utility.yul\":11269:11428   */\n      pop\n      jump\t// out\n        /* \"#utility.yul\":11434:11799   */\n    tag_75:\n        /* \"#utility.yul\":11576:11579   */\n      0x00\n        /* \"#utility.yul\":11597:11663   */\n      tag_184\n        /* \"#utility.yul\":11661:11662   */\n      0x09\n        /* \"#utility.yul\":11656:11659   */\n      dup4\n        /* \"#utility.yul\":11597:11663   */\n      tag_58\n      jump\t// in\n    tag_184:\n        /* \"#utility.yul\":11590:11663   */\n      swap2\n      pop\n        /* \"#utility.yul\":11672:11765   */\n      tag_185\n        /* \"#utility.yul\":11761:11764   */\n      dup3\n        /* \"#utility.yul\":11672:11765   */\n      tag_74\n      jump\t// in\n    tag_185:\n        /* \"#utility.yul\":11790:11792   */\n      0x20\n        /* \"#utility.yul\":11785:11788   */\n      dup3\n        /* \"#utility.yul\":11781:11793   */\n      add\n        /* \"#utility.yul\":11774:11793   */\n      swap1\n      pop\n        /* \"#utility.yul\":11434:11799   */\n      swap2\n      swap1\n      pop\n      jump\t// out\n        /* \"#utility.yul\":11805:12224   */\n    tag_43:\n        /* \"#utility.yul\":11971:11975   */\n      0x00\n        /* \"#utility.yul\":12009:12011   */\n      0x20\n        /* \"#utility.yul\":11998:12007   */\n      dup3\n        /* \"#utility.yul\":11994:12012   */\n      add\n        /* \"#utility.yul\":11986:12012   */\n      swap1\n      pop\n        /* \"#utility.yul\":12058:12067   */\n      dup2\n        /* \"#utility.yul\":12052:12056   */\n      dup2\n        /* \"#utility.yul\":12048:12068   */\n      sub\n        /* \"#utility.yul\":12044:12045   */\n      0x00\n        /* \"#utility.yul\":12033:12042   */\n      dup4\n        /* \"#utility.yul\":12029:12046   */\n      add\n        /* \"#utility.yul\":12022:12069   */\n      mstore\n        /* \"#utility.yul\":12086:12217   */\n      tag_187\n        /* \"#utility.yul\":12212:12216   */\n      dup2\n        /* \"#utility.yul\":12086:12217   */\n      tag_75\n      jump\t// in\n    tag_187:\n        /* \"#utility.yul\":12078:12217   */\n      swap1\n      pop\n        /* \"#utility.yul\":11805:12224   */\n      swap2\n      swap1\n      pop\n      jump\t// out\n\n    auxdata: 0xa26469706673582212207942f6b1e86398b13bc6986516ba3de26fea094ba4da66e479674df3c36dce7764736f6c634300081a0033\n}\n",
				"bytecode": {
					"linkReferences": {},
					"object": "6080604052348015600e575f80fd5b506108328061001c5f395ff3fe608060405234801561000f575f80fd5b5060043610610034575f3560e01c806317fe2da2146100385780636105187e14610068575b5f80fd5b610052600480360381019061004d91906102de565b610084565b60405161005f91906103cc565b60405180910390f35b610082600480360381019061007d9190610496565b610119565b005b60608484848460405160240161009b92919061055e565b60405160208183030381529060405291906040516100ba9291906105ae565b60405180910390207bffffffffffffffffffffffffffffffffffffffffffffffffffffffff19166020820180517bffffffffffffffffffffffffffffffffffffffffffffffffffffffff83818316178352505050509050949350505050565b818190508484905014610161576040517f08c379a000000000000000000000000000000000000000000000000000000000815260040161015890610610565b60405180910390fd5b5f5b8484905081101561026e575f8585838181106101825761018161062e565b5b905060200201602081019061019791906106b5565b73ffffffffffffffffffffffffffffffffffffffff168484848181106101c0576101bf61062e565b5b90506020028101906101d291906106ec565b6040516101e092919061077c565b5f604051808303815f865af19150503d805f8114610219576040519150601f19603f3d011682016040523d82523d5f602084013e61021e565b606091505b5050905080610262576040517f08c379a0000000000000000000000000000000000000000000000000000000008152600401610259906107de565b60405180910390fd5b50806001019050610163565b5050505050565b5f80fd5b5f80fd5b5f80fd5b5f80fd5b5f80fd5b5f8083601f84011261029e5761029d61027d565b5b8235905067ffffffffffffffff8111156102bb576102ba610281565b5b6020830191508360018202830111156102d7576102d6610285565b5b9250929050565b5f805f80604085870312156102f6576102f5610275565b5b5f85013567ffffffffffffffff81111561031357610312610279565b5b61031f87828801610289565b9450945050602085013567ffffffffffffffff81111561034257610341610279565b5b61034e87828801610289565b925092505092959194509250565b5f81519050919050565b5f82825260208201905092915050565b8281835e5f83830152505050565b5f601f19601f8301169050919050565b5f61039e8261035c565b6103a88185610366565b93506103b8818560208601610376565b6103c181610384565b840191505092915050565b5f6020820190508181035f8301526103e48184610394565b905092915050565b5f8083601f8401126104015761040061027d565b5b8235905067ffffffffffffffff81111561041e5761041d610281565b5b60208301915083602082028301111561043a57610439610285565b5b9250929050565b5f8083601f8401126104565761045561027d565b5b8235905067ffffffffffffffff81111561047357610472610281565b5b60208301915083602082028301111561048f5761048e610285565b5b9250929050565b5f805f80604085870312156104ae576104ad610275565b5b5f85013567ffffffffffffffff8111156104cb576104ca610279565b5b6104d7878288016103ec565b9450945050602085013567ffffffffffffffff8111156104fa576104f9610279565b5b61050687828801610441565b925092505092959194509250565b5f82825260208201905092915050565b828183375f83830152505050565b5f61053d8385610514565b935061054a838584610524565b61055383610384565b840190509392505050565b5f6020820190508181035f830152610577818486610532565b90509392505050565b5f81905092915050565b5f6105958385610580565b93506105a2838584610524565b82840190509392505050565b5f6105ba82848661058a565b91508190509392505050565b7f696e76616c696420746172676574732f646174610000000000000000000000005f82015250565b5f6105fa601483610514565b9150610605826105c6565b602082019050919050565b5f6020820190508181035f830152610627816105ee565b9050919050565b7f4e487b71000000000000000000000000000000000000000000000000000000005f52603260045260245ffd5b5f73ffffffffffffffffffffffffffffffffffffffff82169050919050565b5f6106848261065b565b9050919050565b6106948161067a565b811461069e575f80fd5b50565b5f813590506106af8161068b565b92915050565b5f602082840312156106ca576106c9610275565b5b5f6106d7848285016106a1565b91505092915050565b5f80fd5b5f80fd5b5f80fd5b5f8083356001602003843603038112610708576107076106e0565b5b80840192508235915067ffffffffffffffff82111561072a576107296106e4565b5b602083019250600182023603831315610746576107456106e8565b5b509250929050565b5f81905092915050565b5f610763838561074e565b9350610770838584610524565b82840190509392505050565b5f610788828486610758565b91508190509392505050565b7f7478206661696c656400000000000000000000000000000000000000000000005f82015250565b5f6107c8600983610514565b91506107d382610794565b602082019050919050565b5f6020820190508181035f8301526107f5816107bc565b905091905056fea26469706673582212207942f6b1e86398b13bc6986516ba3de26fea094ba4da66e479674df3c36dce7764736f6c634300081a0033",
					"opcodes": "PUSH1 0x80 PUSH1 0x40 MSTORE CALLVALUE DUP1 ISZERO PUSH1 0xE JUMPI PUSH0 DUP1 REVERT JUMPDEST POP PUSH2 0x832 DUP1 PUSH2 0x1C PUSH0 CODECOPY PUSH0 RETURN INVALID PUSH1 0x80 PUSH1 0x40 MSTORE CALLVALUE DUP1 ISZERO PUSH2 0xF JUMPI PUSH0 DUP1 REVERT JUMPDEST POP PUSH1 0x4 CALLDATASIZE LT PUSH2 0x34 JUMPI PUSH0 CALLDATALOAD PUSH1 0xE0 SHR DUP1 PUSH4 0x17FE2DA2 EQ PUSH2 0x38 JUMPI DUP1 PUSH4 0x6105187E EQ PUSH2 0x68 JUMPI JUMPDEST PUSH0 DUP1 REVERT JUMPDEST PUSH2 0x52 PUSH1 0x4 DUP1 CALLDATASIZE SUB DUP2 ADD SWAP1 PUSH2 0x4D SWAP2 SWAP1 PUSH2 0x2DE JUMP JUMPDEST PUSH2 0x84 JUMP JUMPDEST PUSH1 0x40 MLOAD PUSH2 0x5F SWAP2 SWAP1 PUSH2 0x3CC JUMP JUMPDEST PUSH1 0x40 MLOAD DUP1 SWAP2 SUB SWAP1 RETURN JUMPDEST PUSH2 0x82 PUSH1 0x4 DUP1 CALLDATASIZE SUB DUP2 ADD SWAP1 PUSH2 0x7D SWAP2 SWAP1 PUSH2 0x496 JUMP JUMPDEST PUSH2 0x119 JUMP JUMPDEST STOP JUMPDEST PUSH1 0x60 DUP5 DUP5 DUP5 DUP5 PUSH1 0x40 MLOAD PUSH1 0x24 ADD PUSH2 0x9B SWAP3 SWAP2 SWAP1 PUSH2 0x55E JUMP JUMPDEST PUSH1 0x40 MLOAD PUSH1 0x20 DUP2 DUP4 SUB SUB DUP2 MSTORE SWAP1 PUSH1 0x40 MSTORE SWAP2 SWAP1 PUSH1 0x40 MLOAD PUSH2 0xBA SWAP3 SWAP2 SWAP1 PUSH2 0x5AE JUMP JUMPDEST PUSH1 0x40 MLOAD DUP1 SWAP2 SUB SWAP1 KECCAK256 PUSH28 0xFFFFFFFFFFFFFFFFFFFFFFFFFFFFFFFFFFFFFFFFFFFFFFFFFFFFFFFF NOT AND PUSH1 0x20 DUP3 ADD DUP1 MLOAD PUSH28 0xFFFFFFFFFFFFFFFFFFFFFFFFFFFFFFFFFFFFFFFFFFFFFFFFFFFFFFFF DUP4 DUP2 DUP4 AND OR DUP4 MSTORE POP POP POP POP SWAP1 POP SWAP5 SWAP4 POP POP POP POP JUMP JUMPDEST DUP2 DUP2 SWAP1 POP DUP5 DUP5 SWAP1 POP EQ PUSH2 0x161 JUMPI PUSH1 0x40 MLOAD PUSH32 0x8C379A000000000000000000000000000000000000000000000000000000000 DUP2 MSTORE PUSH1 0x4 ADD PUSH2 0x158 SWAP1 PUSH2 0x610 JUMP JUMPDEST PUSH1 0x40 MLOAD DUP1 SWAP2 SUB SWAP1 REVERT JUMPDEST PUSH0 JUMPDEST DUP5 DUP5 SWAP1 POP DUP2 LT ISZERO PUSH2 0x26E JUMPI PUSH0 DUP6 DUP6 DUP4 DUP2 DUP2 LT PUSH2 0x182 JUMPI PUSH2 0x181 PUSH2 0x62E JUMP JUMPDEST JUMPDEST SWAP1 POP PUSH1 0x20 MUL ADD PUSH1 0x20 DUP2 ADD SWAP1 PUSH2 0x197 SWAP2 SWAP1 PUSH2 0x6B5 JUMP JUMPDEST PUSH20 0xFFFFFFFFFFFFFFFFFFFFFFFFFFFFFFFFFFFFFFFF AND DUP5 DUP5 DUP5 DUP2 DUP2 LT PUSH2 0x1C0 JUMPI PUSH2 0x1BF PUSH2 0x62E JUMP JUMPDEST JUMPDEST SWAP1 POP PUSH1 0x20 MUL DUP2 ADD SWAP1 PUSH2 0x1D2 SWAP2 SWAP1 PUSH2 0x6EC JUMP JUMPDEST PUSH1 0x40 MLOAD PUSH2 0x1E0 SWAP3 SWAP2 SWAP1 PUSH2 0x77C JUMP JUMPDEST PUSH0 PUSH1 0x40 MLOAD DUP1 DUP4 SUB DUP2 PUSH0 DUP7 GAS CALL SWAP2 POP POP RETURNDATASIZE DUP1 PUSH0 DUP2 EQ PUSH2 0x219 JUMPI PUSH1 0x40 MLOAD SWAP2 POP PUSH1 0x1F NOT PUSH1 0x3F RETURNDATASIZE ADD AND DUP3 ADD PUSH1 0x40 MSTORE RETURNDATASIZE DUP3 MSTORE RETURNDATASIZE PUSH0 PUSH1 0x20 DUP5 ADD RETURNDATACOPY PUSH2 0x21E JUMP JUMPDEST PUSH1 0x60 SWAP2 POP JUMPDEST POP POP SWAP1 POP DUP1 PUSH2 0x262 JUMPI PUSH1 0x40 MLOAD PUSH32 0x8C379A000000000000000000000000000000000000000000000000000000000 DUP2 MSTORE PUSH1 0x4 ADD PUSH2 0x259 SWAP1 PUSH2 0x7DE JUMP JUMPDEST PUSH1 0x40 MLOAD DUP1 SWAP2 SUB SWAP1 REVERT JUMPDEST POP DUP1 PUSH1 0x1 ADD SWAP1 POP PUSH2 0x163 JUMP JUMPDEST POP POP POP POP POP JUMP JUMPDEST PUSH0 DUP1 REVERT JUMPDEST PUSH0 DUP1 REVERT JUMPDEST PUSH0 DUP1 REVERT JUMPDEST PUSH0 DUP1 REVERT JUMPDEST PUSH0 DUP1 REVERT JUMPDEST PUSH0 DUP1 DUP4 PUSH1 0x1F DUP5 ADD SLT PUSH2 0x29E JUMPI PUSH2 0x29D PUSH2 0x27D JUMP JUMPDEST JUMPDEST DUP3 CALLDATALOAD SWAP1 POP PUSH8 0xFFFFFFFFFFFFFFFF DUP2 GT ISZERO PUSH2 0x2BB JUMPI PUSH2 0x2BA PUSH2 0x281 JUMP JUMPDEST JUMPDEST PUSH1 0x20 DUP4 ADD SWAP2 POP DUP4 PUSH1 0x1 DUP3 MUL DUP4 ADD GT ISZERO PUSH2 0x2D7 JUMPI PUSH2 0x2D6 PUSH2 0x285 JUMP JUMPDEST JUMPDEST SWAP3 POP SWAP3 SWAP1 POP JUMP JUMPDEST PUSH0 DUP1 PUSH0 DUP1 PUSH1 0x40 DUP6 DUP8 SUB SLT ISZERO PUSH2 0x2F6 JUMPI PUSH2 0x2F5 PUSH2 0x275 JUMP JUMPDEST JUMPDEST PUSH0 DUP6 ADD CALLDATALOAD PUSH8 0xFFFFFFFFFFFFFFFF DUP2 GT ISZERO PUSH2 0x313 JUMPI PUSH2 0x312 PUSH2 0x279 JUMP JUMPDEST JUMPDEST PUSH2 0x31F DUP8 DUP3 DUP9 ADD PUSH2 0x289 JUMP JUMPDEST SWAP5 POP SWAP5 POP POP PUSH1 0x20 DUP6 ADD CALLDATALOAD PUSH8 0xFFFFFFFFFFFFFFFF DUP2 GT ISZERO PUSH2 0x342 JUMPI PUSH2 0x341 PUSH2 0x279 JUMP JUMPDEST JUMPDEST PUSH2 0x34E DUP8 DUP3 DUP9 ADD PUSH2 0x289 JUMP JUMPDEST SWAP3 POP SWAP3 POP POP SWAP3 SWAP6 SWAP2 SWAP5 POP SWAP3 POP JUMP JUMPDEST PUSH0 DUP2 MLOAD SWAP1 POP SWAP2 SWAP1 POP JUMP JUMPDEST PUSH0 DUP3 DUP3 MSTORE PUSH1 0x20 DUP3 ADD SWAP1 POP SWAP3 SWAP2 POP POP JUMP JUMPDEST DUP3 DUP2 DUP4 MCOPY PUSH0 DUP4 DUP4 ADD MSTORE POP POP POP JUMP JUMPDEST PUSH0 PUSH1 0x1F NOT PUSH1 0x1F DUP4 ADD AND SWAP1 POP SWAP2 SWAP1 POP JUMP JUMPDEST PUSH0 PUSH2 0x39E DUP3 PUSH2 0x35C JUMP JUMPDEST PUSH2 0x3A8 DUP2 DUP6 PUSH2 0x366 JUMP JUMPDEST SWAP4 POP PUSH2 0x3B8 DUP2 DUP6 PUSH1 0x20 DUP7 ADD PUSH2 0x376 JUMP JUMPDEST PUSH2 0x3C1 DUP2 PUSH2 0x384 JUMP JUMPDEST DUP5 ADD SWAP2 POP POP SWAP3 SWAP2 POP POP JUMP JUMPDEST PUSH0 PUSH1 0x20 DUP3 ADD SWAP1 POP DUP2 DUP2 SUB PUSH0 DUP4 ADD MSTORE PUSH2 0x3E4 DUP2 DUP5 PUSH2 0x394 JUMP JUMPDEST SWAP1 POP SWAP3 SWAP2 POP POP JUMP JUMPDEST PUSH0 DUP1 DUP4 PUSH1 0x1F DUP5 ADD SLT PUSH2 0x401 JUMPI PUSH2 0x400 PUSH2 0x27D JUMP JUMPDEST JUMPDEST DUP3 CALLDATALOAD SWAP1 POP PUSH8 0xFFFFFFFFFFFFFFFF DUP2 GT ISZERO PUSH2 0x41E JUMPI PUSH2 0x41D PUSH2 0x281 JUMP JUMPDEST JUMPDEST PUSH1 0x20 DUP4 ADD SWAP2 POP DUP4 PUSH1 0x20 DUP3 MUL DUP4 ADD GT ISZERO PUSH2 0x43A JUMPI PUSH2 0x439 PUSH2 0x285 JUMP JUMPDEST JUMPDEST SWAP3 POP SWAP3 SWAP1 POP JUMP JUMPDEST PUSH0 DUP1 DUP4 PUSH1 0x1F DUP5 ADD SLT PUSH2 0x456 JUMPI PUSH2 0x455 PUSH2 0x27D JUMP JUMPDEST JUMPDEST DUP3 CALLDATALOAD SWAP1 POP PUSH8 0xFFFFFFFFFFFFFFFF DUP2 GT ISZERO PUSH2 0x473 JUMPI PUSH2 0x472 PUSH2 0x281 JUMP JUMPDEST JUMPDEST PUSH1 0x20 DUP4 ADD SWAP2 POP DUP4 PUSH1 0x20 DUP3 MUL DUP4 ADD GT ISZERO PUSH2 0x48F JUMPI PUSH2 0x48E PUSH2 0x285 JUMP JUMPDEST JUMPDEST SWAP3 POP SWAP3 SWAP1 POP JUMP JUMPDEST PUSH0 DUP1 PUSH0 DUP1 PUSH1 0x40 DUP6 DUP8 SUB SLT ISZERO PUSH2 0x4AE JUMPI PUSH2 0x4AD PUSH2 0x275 JUMP JUMPDEST JUMPDEST PUSH0 DUP6 ADD CALLDATALOAD PUSH8 0xFFFFFFFFFFFFFFFF DUP2 GT ISZERO PUSH2 0x4CB JUMPI PUSH2 0x4CA PUSH2 0x279 JUMP JUMPDEST JUMPDEST PUSH2 0x4D7 DUP8 DUP3 DUP9 ADD PUSH2 0x3EC JUMP JUMPDEST SWAP5 POP SWAP5 POP POP PUSH1 0x20 DUP6 ADD CALLDATALOAD PUSH8 0xFFFFFFFFFFFFFFFF DUP2 GT ISZERO PUSH2 0x4FA JUMPI PUSH2 0x4F9 PUSH2 0x279 JUMP JUMPDEST JUMPDEST PUSH2 0x506 DUP8 DUP3 DUP9 ADD PUSH2 0x441 JUMP JUMPDEST SWAP3 POP SWAP3 POP POP SWAP3 SWAP6 SWAP2 SWAP5 POP SWAP3 POP JUMP JUMPDEST PUSH0 DUP3 DUP3 MSTORE PUSH1 0x20 DUP3 ADD SWAP1 POP SWAP3 SWAP2 POP POP JUMP JUMPDEST DUP3 DUP2 DUP4 CALLDATACOPY PUSH0 DUP4 DUP4 ADD MSTORE POP POP POP JUMP JUMPDEST PUSH0 PUSH2 0x53D DUP4 DUP6 PUSH2 0x514 JUMP JUMPDEST SWAP4 POP PUSH2 0x54A DUP4 DUP6 DUP5 PUSH2 0x524 JUMP JUMPDEST PUSH2 0x553 DUP4 PUSH2 0x384 JUMP JUMPDEST DUP5 ADD SWAP1 POP SWAP4 SWAP3 POP POP POP JUMP JUMPDEST PUSH0 PUSH1 0x20 DUP3 ADD SWAP1 POP DUP2 DUP2 SUB PUSH0 DUP4 ADD MSTORE PUSH2 0x577 DUP2 DUP5 DUP7 PUSH2 0x532 JUMP JUMPDEST SWAP1 POP SWAP4 SWAP3 POP POP POP JUMP JUMPDEST PUSH0 DUP2 SWAP1 POP SWAP3 SWAP2 POP POP JUMP JUMPDEST PUSH0 PUSH2 0x595 DUP4 DUP6 PUSH2 0x580 JUMP JUMPDEST SWAP4 POP PUSH2 0x5A2 DUP4 DUP6 DUP5 PUSH2 0x524 JUMP JUMPDEST DUP3 DUP5 ADD SWAP1 POP SWAP4 SWAP3 POP POP POP JUMP JUMPDEST PUSH0 PUSH2 0x5BA DUP3 DUP5 DUP7 PUSH2 0x58A JUMP JUMPDEST SWAP2 POP DUP2 SWAP1 POP SWAP4 SWAP3 POP POP POP JUMP JUMPDEST PUSH32 0x696E76616C696420746172676574732F64617461000000000000000000000000 PUSH0 DUP3 ADD MSTORE POP JUMP JUMPDEST PUSH0 PUSH2 0x5FA PUSH1 0x14 DUP4 PUSH2 0x514 JUMP JUMPDEST SWAP2 POP PUSH2 0x605 DUP3 PUSH2 0x5C6 JUMP JUMPDEST PUSH1 0x20 DUP3 ADD SWAP1 POP SWAP2 SWAP1 POP JUMP JUMPDEST PUSH0 PUSH1 0x20 DUP3 ADD SWAP1 POP DUP2 DUP2 SUB PUSH0 DUP4 ADD MSTORE PUSH2 0x627 DUP2 PUSH2 0x5EE JUMP JUMPDEST SWAP1 POP SWAP2 SWAP1 POP JUMP JUMPDEST PUSH32 0x4E487B7100000000000000000000000000000000000000000000000000000000 PUSH0 MSTORE PUSH1 0x32 PUSH1 0x4 MSTORE PUSH1 0x24 PUSH0 REVERT JUMPDEST PUSH0 PUSH20 0xFFFFFFFFFFFFFFFFFFFFFFFFFFFFFFFFFFFFFFFF DUP3 AND SWAP1 POP SWAP2 SWAP1 POP JUMP JUMPDEST PUSH0 PUSH2 0x684 DUP3 PUSH2 0x65B JUMP JUMPDEST SWAP1 POP SWAP2 SWAP1 POP JUMP JUMPDEST PUSH2 0x694 DUP2 PUSH2 0x67A JUMP JUMPDEST DUP2 EQ PUSH2 0x69E JUMPI PUSH0 DUP1 REVERT JUMPDEST POP JUMP JUMPDEST PUSH0 DUP2 CALLDATALOAD SWAP1 POP PUSH2 0x6AF DUP2 PUSH2 0x68B JUMP JUMPDEST SWAP3 SWAP2 POP POP JUMP JUMPDEST PUSH0 PUSH1 0x20 DUP3 DUP5 SUB SLT ISZERO PUSH2 0x6CA JUMPI PUSH2 0x6C9 PUSH2 0x275 JUMP JUMPDEST JUMPDEST PUSH0 PUSH2 0x6D7 DUP5 DUP3 DUP6 ADD PUSH2 0x6A1 JUMP JUMPDEST SWAP2 POP POP SWAP3 SWAP2 POP POP JUMP JUMPDEST PUSH0 DUP1 REVERT JUMPDEST PUSH0 DUP1 REVERT JUMPDEST PUSH0 DUP1 REVERT JUMPDEST PUSH0 DUP1 DUP4 CALLDATALOAD PUSH1 0x1 PUSH1 0x20 SUB DUP5 CALLDATASIZE SUB SUB DUP2 SLT PUSH2 0x708 JUMPI PUSH2 0x707 PUSH2 0x6E0 JUMP JUMPDEST JUMPDEST DUP1 DUP5 ADD SWAP3 POP DUP3 CALLDATALOAD SWAP2 POP PUSH8 0xFFFFFFFFFFFFFFFF DUP3 GT ISZERO PUSH2 0x72A JUMPI PUSH2 0x729 PUSH2 0x6E4 JUMP JUMPDEST JUMPDEST PUSH1 0x20 DUP4 ADD SWAP3 POP PUSH1 0x1 DUP3 MUL CALLDATASIZE SUB DUP4 SGT ISZERO PUSH2 0x746 JUMPI PUSH2 0x745 PUSH2 0x6E8 JUMP JUMPDEST JUMPDEST POP SWAP3 POP SWAP3 SWAP1 POP JUMP JUMPDEST PUSH0 DUP2 SWAP1 POP SWAP3 SWAP2 POP POP JUMP JUMPDEST PUSH0 PUSH2 0x763 DUP4 DUP6 PUSH2 0x74E JUMP JUMPDEST SWAP4 POP PUSH2 0x770 DUP4 DUP6 DUP5 PUSH2 0x524 JUMP JUMPDEST DUP3 DUP5 ADD SWAP1 POP SWAP4 SWAP3 POP POP POP JUMP JUMPDEST PUSH0 PUSH2 0x788 DUP3 DUP5 DUP7 PUSH2 0x758 JUMP JUMPDEST SWAP2 POP DUP2 SWAP1 POP SWAP4 SWAP3 POP POP POP JUMP JUMPDEST PUSH32 0x7478206661696C65640000000000000000000000000000000000000000000000 PUSH0 DUP3 ADD MSTORE POP JUMP JUMPDEST PUSH0 PUSH2 0x7C8 PUSH1 0x9 DUP4 PUSH2 0x514 JUMP JUMPDEST SWAP2 POP PUSH2 0x7D3 DUP3 PUSH2 0x794 JUMP JUMPDEST PUSH1 0x20 DUP3 ADD SWAP1 POP SWAP2 SWAP1 POP JUMP JUMPDEST PUSH0 PUSH1 0x20 DUP3 ADD SWAP1 POP DUP2 DUP2 SUB PUSH0 DUP4 ADD MSTORE PUSH2 0x7F5 DUP2 PUSH2 0x7BC JUMP JUMPDEST SWAP1 POP SWAP2 SWAP1 POP JUMP INVALID LOG2 PUSH5 0x6970667358 0x22 SLT KECCAK256 PUSH26 0x42F6B1E86398B13BC6986516BA3DE26FEA094BA4DA66E479674D RETURN 0xC3 PUSH14 0xCE7764736F6C634300081A003300 "
				},
				"gasEstimates": {
					"creation": {
						"codeDepositCost": "419600",
						"executionCost": "453",
						"totalCost": "420053"
					},
					"external": {
						"encode(string,string)": "infinite",
						"multiCallTx(address[],bytes[])": "infinite"
					}
				},
				"methodIdentifiers": {
					"encode(string,string)": "17fe2da2",
					"multiCallTx(address[],bytes[])": "6105187e"
				}
			},
			"storageLayout": {
				"storage": [],
				"types": null
			},
			"userdoc": {
				"kind": "user",
				"methods": {},
				"version": 1
			}
		}
	}
}