{
	"Example_Calls/Interface.sol": {
		"toCallFromOther": {
			"abi": [
				{
					"inputs": [
						{
							"internalType": "contract ICallFromOther",
							"name": "_demoAddr",
							"type": "address"
						}
					],
					"name": "callGetName",
					"outputs": [
						{
							"internalType": "string",
							"name": "",
							"type": "string"
						}
					],
					"stateMutability": "view",
					"type": "function"
				},
				{
					"inputs": [
						{
							"internalType": "contract ICallFromOther",
							"name": "_pay",
							"type": "address"
						}
					],
					"name": "callPay",
					"outputs": [],
					"stateMutability": "payable",
					"type": "function"
				},
				{
					"inputs": [
						{
							"internalType": "contract ICallFromOther",
							"name": "_name",
							"type": "address"
						}
					],
					"name": "callSetName",
					"outputs": [],
					"stateMutability": "nonpayable",
					"type": "function"
				}
			],
			"devdoc": {
				"kind": "dev",
				"methods": {},
				"version": 1
			},
			"evm": {
				"assembly": "    /* \"Example_Calls/Interface.sol\":257:625  contract toCallFromOther{... */\n  mstore(0x40, 0x80)\n  callvalue\n  dup1\n  iszero\n  tag_1\n  jumpi\n  0x00\n  dup1\n  revert\ntag_1:\n  pop\n  dataSize(sub_0)\n  dup1\n  dataOffset(sub_0)\n  0x00\n  codecopy\n  0x00\n  return\nstop\n\nsub_0: assembly {\n        /* \"Example_Calls/Interface.sol\":257:625  contract toCallFromOther{... */\n      mstore(0x40, 0x80)\n      jumpi(tag_1, lt(calldatasize, 0x04))\n      shr(0xe0, calldataload(0x00))\n      dup1\n      0x780fa31e\n      eq\n      tag_2\n      jumpi\n      dup1\n      0x7c52d3db\n      eq\n      tag_3\n      jumpi\n      dup1\n      0x7fa37d84\n      eq\n      tag_4\n      jumpi\n    tag_1:\n      0x00\n      dup1\n      revert\n        /* \"Example_Calls/Interface.sol\":287:412  function callGetName(ICallFromOther _demoAddr) public view returns (string memory){... */\n    tag_2:\n      callvalue\n      dup1\n      iszero\n      tag_5\n      jumpi\n      0x00\n      dup1\n      revert\n    tag_5:\n      pop\n      tag_6\n      0x04\n      dup1\n      calldatasize\n      sub\n      dup2\n      add\n      swap1\n      tag_7\n      swap2\n      swap1\n      tag_8\n      jump\t// in\n    tag_7:\n      tag_9\n      jump\t// in\n    tag_6:\n      mload(0x40)\n      tag_10\n      swap2\n      swap1\n      tag_11\n      jump\t// in\n    tag_10:\n      mload(0x40)\n      dup1\n      swap2\n      sub\n      swap1\n      return\n        /* \"Example_Calls/Interface.sol\":418:509  function callSetName(ICallFromOther _name) public{... */\n    tag_3:\n      callvalue\n      dup1\n      iszero\n      tag_12\n      jumpi\n      0x00\n      dup1\n      revert\n    tag_12:\n      pop\n      tag_13\n      0x04\n      dup1\n      calldatasize\n      sub\n      dup2\n      add\n      swap1\n      tag_14\n      swap2\n      swap1\n      tag_8\n      jump\t// in\n    tag_14:\n      tag_15\n      jump\t// in\n    tag_13:\n      stop\n        /* \"Example_Calls/Interface.sol\":515:623  function callPay(ICallFromOther _pay) public payable {... */\n    tag_4:\n      tag_16\n      0x04\n      dup1\n      calldatasize\n      sub\n      dup2\n      add\n      swap1\n      tag_17\n      swap2\n      swap1\n      tag_8\n      jump\t// in\n    tag_17:\n      tag_18\n      jump\t// in\n    tag_16:\n      stop\n        /* \"Example_Calls/Interface.sol\":287:412  function callGetName(ICallFromOther _demoAddr) public view returns (string memory){... */\n    tag_9:\n        /* \"Example_Calls/Interface.sol\":355:368  string memory */\n      0x60\n        /* \"Example_Calls/Interface.sol\":386:395  _demoAddr */\n      dup2\n        /* \"Example_Calls/Interface.sol\":386:403  _demoAddr.getName */\n      0xffffffffffffffffffffffffffffffffffffffff\n      and\n      0x17d7de7c\n        /* \"Example_Calls/Interface.sol\":386:405  _demoAddr.getName() */\n      mload(0x40)\n      dup2\n      0xffffffff\n      and\n      0xe0\n      shl\n      dup2\n      mstore\n      0x04\n      add\n      0x00\n      mload(0x40)\n      dup1\n      dup4\n      sub\n      dup2\n      dup7\n      gas\n      staticcall\n      iszero\n      dup1\n      iszero\n      tag_21\n      jumpi\n      returndatasize\n      0x00\n      dup1\n      returndatacopy\n      revert(0x00, returndatasize)\n    tag_21:\n      pop\n      pop\n      pop\n      pop\n      mload(0x40)\n      returndatasize\n      0x00\n      dup3\n      returndatacopy\n      returndatasize\n      not(0x1f)\n      0x1f\n      dup3\n      add\n      and\n      dup3\n      add\n      dup1\n      0x40\n      mstore\n      pop\n      dup2\n      add\n      swap1\n      tag_22\n      swap2\n      swap1\n      tag_23\n      jump\t// in\n    tag_22:\n        /* \"Example_Calls/Interface.sol\":379:405  return _demoAddr.getName() */\n      swap1\n      pop\n        /* \"Example_Calls/Interface.sol\":287:412  function callGetName(ICallFromOther _demoAddr) public view returns (string memory){... */\n      swap2\n      swap1\n      pop\n      jump\t// out\n        /* \"Example_Calls/Interface.sol\":418:509  function callSetName(ICallFromOther _name) public{... */\n    tag_15:\n        /* \"Example_Calls/Interface.sol\":477:482  _name */\n      dup1\n        /* \"Example_Calls/Interface.sol\":477:490  _name.setName */\n      0xffffffffffffffffffffffffffffffffffffffff\n      and\n      0xc47f0027\n        /* \"Example_Calls/Interface.sol\":477:502  _name.setName(\"New Name\") */\n      mload(0x40)\n      dup2\n      0xffffffff\n      and\n      0xe0\n      shl\n      dup2\n      mstore\n      0x04\n      add\n      tag_25\n      swap1\n      tag_26\n      jump\t// in\n    tag_25:\n      0x00\n      mload(0x40)\n      dup1\n      dup4\n      sub\n      dup2\n      0x00\n      dup8\n      dup1\n      extcodesize\n      iszero\n      dup1\n      iszero\n      tag_27\n      jumpi\n      0x00\n      dup1\n      revert\n    tag_27:\n      pop\n      gas\n      call\n      iszero\n      dup1\n      iszero\n      tag_29\n      jumpi\n      returndatasize\n      0x00\n      dup1\n      returndatacopy\n      revert(0x00, returndatasize)\n    tag_29:\n      pop\n      pop\n      pop\n      pop\n        /* \"Example_Calls/Interface.sol\":418:509  function callSetName(ICallFromOther _name) public{... */\n      pop\n      jump\t// out\n        /* \"Example_Calls/Interface.sol\":515:623  function callPay(ICallFromOther _pay) public payable {... */\n    tag_18:\n        /* \"Example_Calls/Interface.sol\":578:582  _pay */\n      dup1\n        /* \"Example_Calls/Interface.sol\":578:586  _pay.pay */\n      0xffffffffffffffffffffffffffffffffffffffff\n      and\n      0x0c11dedd\n        /* \"Example_Calls/Interface.sol\":594:603  msg.value */\n      callvalue\n        /* \"Example_Calls/Interface.sol\":605:615  msg.sender */\n      caller\n        /* \"Example_Calls/Interface.sol\":578:616  _pay.pay{value: msg.value}(msg.sender) */\n      mload(0x40)\n      dup4\n      0xffffffff\n      and\n      0xe0\n      shl\n      dup2\n      mstore\n      0x04\n      add\n      tag_31\n      swap2\n      swap1\n      tag_32\n      jump\t// in\n    tag_31:\n      0x00\n      mload(0x40)\n      dup1\n      dup4\n      sub\n      dup2\n      dup6\n      dup9\n      dup1\n      extcodesize\n      iszero\n      dup1\n      iszero\n      tag_33\n      jumpi\n      0x00\n      dup1\n      revert\n    tag_33:\n      pop\n      gas\n      call\n      iszero\n      dup1\n      iszero\n      tag_35\n      jumpi\n      returndatasize\n      0x00\n      dup1\n      returndatacopy\n      revert(0x00, returndatasize)\n    tag_35:\n      pop\n      pop\n      pop\n      pop\n      pop\n        /* \"Example_Calls/Interface.sol\":515:623  function callPay(ICallFromOther _pay) public payable {... */\n      pop\n      jump\t// out\n        /* \"#utility.yul\":7:82   */\n    tag_36:\n        /* \"#utility.yul\":40:46   */\n      0x00\n        /* \"#utility.yul\":73:75   */\n      0x40\n        /* \"#utility.yul\":67:76   */\n      mload\n        /* \"#utility.yul\":57:76   */\n      swap1\n      pop\n        /* \"#utility.yul\":7:82   */\n      swap1\n      jump\t// out\n        /* \"#utility.yul\":88:205   */\n    tag_37:\n        /* \"#utility.yul\":197:198   */\n      0x00\n        /* \"#utility.yul\":194:195   */\n      dup1\n        /* \"#utility.yul\":187:199   */\n      revert\n        /* \"#utility.yul\":211:328   */\n    tag_38:\n        /* \"#utility.yul\":320:321   */\n      0x00\n        /* \"#utility.yul\":317:318   */\n      dup1\n        /* \"#utility.yul\":310:322   */\n      revert\n        /* \"#utility.yul\":334:460   */\n    tag_39:\n        /* \"#utility.yul\":371:378   */\n      0x00\n        /* \"#utility.yul\":411:453   */\n      0xffffffffffffffffffffffffffffffffffffffff\n        /* \"#utility.yul\":404:409   */\n      dup3\n        /* \"#utility.yul\":400:454   */\n      and\n        /* \"#utility.yul\":389:454   */\n      swap1\n      pop\n        /* \"#utility.yul\":334:460   */\n      swap2\n      swap1\n      pop\n      jump\t// out\n        /* \"#utility.yul\":466:562   */\n    tag_40:\n        /* \"#utility.yul\":503:510   */\n      0x00\n        /* \"#utility.yul\":532:556   */\n      tag_66\n        /* \"#utility.yul\":550:555   */\n      dup3\n        /* \"#utility.yul\":532:556   */\n      tag_39\n      jump\t// in\n    tag_66:\n        /* \"#utility.yul\":521:556   */\n      swap1\n      pop\n        /* \"#utility.yul\":466:562   */\n      swap2\n      swap1\n      pop\n      jump\t// out\n        /* \"#utility.yul\":568:685   */\n    tag_41:\n        /* \"#utility.yul\":626:633   */\n      0x00\n        /* \"#utility.yul\":655:679   */\n      tag_68\n        /* \"#utility.yul\":673:678   */\n      dup3\n        /* \"#utility.yul\":655:679   */\n      tag_40\n      jump\t// in\n    tag_68:\n        /* \"#utility.yul\":644:679   */\n      swap1\n      pop\n        /* \"#utility.yul\":568:685   */\n      swap2\n      swap1\n      pop\n      jump\t// out\n        /* \"#utility.yul\":691:855   */\n    tag_42:\n        /* \"#utility.yul\":785:830   */\n      tag_70\n        /* \"#utility.yul\":824:829   */\n      dup2\n        /* \"#utility.yul\":785:830   */\n      tag_41\n      jump\t// in\n    tag_70:\n        /* \"#utility.yul\":778:783   */\n      dup2\n        /* \"#utility.yul\":775:831   */\n      eq\n        /* \"#utility.yul\":765:849   */\n      tag_71\n      jumpi\n        /* \"#utility.yul\":845:846   */\n      0x00\n        /* \"#utility.yul\":842:843   */\n      dup1\n        /* \"#utility.yul\":835:847   */\n      revert\n        /* \"#utility.yul\":765:849   */\n    tag_71:\n        /* \"#utility.yul\":691:855   */\n      pop\n      jump\t// out\n        /* \"#utility.yul\":861:1042   */\n    tag_43:\n        /* \"#utility.yul\":928:933   */\n      0x00\n        /* \"#utility.yul\":966:972   */\n      dup2\n        /* \"#utility.yul\":953:973   */\n      calldataload\n        /* \"#utility.yul\":944:973   */\n      swap1\n      pop\n        /* \"#utility.yul\":982:1036   */\n      tag_73\n        /* \"#utility.yul\":1030:1035   */\n      dup2\n        /* \"#utility.yul\":982:1036   */\n      tag_42\n      jump\t// in\n    tag_73:\n        /* \"#utility.yul\":861:1042   */\n      swap3\n      swap2\n      pop\n      pop\n      jump\t// out\n        /* \"#utility.yul\":1048:1419   */\n    tag_8:\n        /* \"#utility.yul\":1128:1134   */\n      0x00\n        /* \"#utility.yul\":1177:1179   */\n      0x20\n        /* \"#utility.yul\":1165:1174   */\n      dup3\n        /* \"#utility.yul\":1156:1163   */\n      dup5\n        /* \"#utility.yul\":1152:1175   */\n      sub\n        /* \"#utility.yul\":1148:1180   */\n      slt\n        /* \"#utility.yul\":1145:1264   */\n      iszero\n      tag_75\n      jumpi\n        /* \"#utility.yul\":1183:1262   */\n      tag_76\n      tag_37\n      jump\t// in\n    tag_76:\n        /* \"#utility.yul\":1145:1264   */\n    tag_75:\n        /* \"#utility.yul\":1303:1304   */\n      0x00\n        /* \"#utility.yul\":1328:1402   */\n      tag_77\n        /* \"#utility.yul\":1394:1401   */\n      dup5\n        /* \"#utility.yul\":1385:1391   */\n      dup3\n        /* \"#utility.yul\":1374:1383   */\n      dup6\n        /* \"#utility.yul\":1370:1392   */\n      add\n        /* \"#utility.yul\":1328:1402   */\n      tag_43\n      jump\t// in\n    tag_77:\n        /* \"#utility.yul\":1318:1402   */\n      swap2\n      pop\n        /* \"#utility.yul\":1274:1412   */\n      pop\n        /* \"#utility.yul\":1048:1419   */\n      swap3\n      swap2\n      pop\n      pop\n      jump\t// out\n        /* \"#utility.yul\":1425:1524   */\n    tag_44:\n        /* \"#utility.yul\":1477:1483   */\n      0x00\n        /* \"#utility.yul\":1511:1516   */\n      dup2\n        /* \"#utility.yul\":1505:1517   */\n      mload\n        /* \"#utility.yul\":1495:1517   */\n      swap1\n      pop\n        /* \"#utility.yul\":1425:1524   */\n      swap2\n      swap1\n      pop\n      jump\t// out\n        /* \"#utility.yul\":1530:1699   */\n    tag_45:\n        /* \"#utility.yul\":1614:1625   */\n      0x00\n        /* \"#utility.yul\":1648:1654   */\n      dup3\n        /* \"#utility.yul\":1643:1646   */\n      dup3\n        /* \"#utility.yul\":1636:1655   */\n      mstore\n        /* \"#utility.yul\":1688:1692   */\n      0x20\n        /* \"#utility.yul\":1683:1686   */\n      dup3\n        /* \"#utility.yul\":1679:1693   */\n      add\n        /* \"#utility.yul\":1664:1693   */\n      swap1\n      pop\n        /* \"#utility.yul\":1530:1699   */\n      swap3\n      swap2\n      pop\n      pop\n      jump\t// out\n        /* \"#utility.yul\":1705:1844   */\n    tag_46:\n        /* \"#utility.yul\":1794:1800   */\n      dup3\n        /* \"#utility.yul\":1789:1792   */\n      dup2\n        /* \"#utility.yul\":1784:1787   */\n      dup4\n        /* \"#utility.yul\":1778:1801   */\n      mcopy\n        /* \"#utility.yul\":1835:1836   */\n      0x00\n        /* \"#utility.yul\":1826:1832   */\n      dup4\n        /* \"#utility.yul\":1821:1824   */\n      dup4\n        /* \"#utility.yul\":1817:1833   */\n      add\n        /* \"#utility.yul\":1810:1837   */\n      mstore\n        /* \"#utility.yul\":1705:1844   */\n      pop\n      pop\n      pop\n      jump\t// out\n        /* \"#utility.yul\":1850:1952   */\n    tag_47:\n        /* \"#utility.yul\":1891:1897   */\n      0x00\n        /* \"#utility.yul\":1942:1944   */\n      0x1f\n        /* \"#utility.yul\":1938:1945   */\n      not\n        /* \"#utility.yul\":1933:1935   */\n      0x1f\n        /* \"#utility.yul\":1926:1931   */\n      dup4\n        /* \"#utility.yul\":1922:1936   */\n      add\n        /* \"#utility.yul\":1918:1946   */\n      and\n        /* \"#utility.yul\":1908:1946   */\n      swap1\n      pop\n        /* \"#utility.yul\":1850:1952   */\n      swap2\n      swap1\n      pop\n      jump\t// out\n        /* \"#utility.yul\":1958:2335   */\n    tag_48:\n        /* \"#utility.yul\":2046:2049   */\n      0x00\n        /* \"#utility.yul\":2074:2113   */\n      tag_83\n        /* \"#utility.yul\":2107:2112   */\n      dup3\n        /* \"#utility.yul\":2074:2113   */\n      tag_44\n      jump\t// in\n    tag_83:\n        /* \"#utility.yul\":2129:2200   */\n      tag_84\n        /* \"#utility.yul\":2193:2199   */\n      dup2\n        /* \"#utility.yul\":2188:2191   */\n      dup6\n        /* \"#utility.yul\":2129:2200   */\n      tag_45\n      jump\t// in\n    tag_84:\n        /* \"#utility.yul\":2122:2200   */\n      swap4\n      pop\n        /* \"#utility.yul\":2209:2274   */\n      tag_85\n        /* \"#utility.yul\":2267:2273   */\n      dup2\n        /* \"#utility.yul\":2262:2265   */\n      dup6\n        /* \"#utility.yul\":2255:2259   */\n      0x20\n        /* \"#utility.yul\":2248:2253   */\n      dup7\n        /* \"#utility.yul\":2244:2260   */\n      add\n        /* \"#utility.yul\":2209:2274   */\n      tag_46\n      jump\t// in\n    tag_85:\n        /* \"#utility.yul\":2299:2328   */\n      tag_86\n        /* \"#utility.yul\":2321:2327   */\n      dup2\n        /* \"#utility.yul\":2299:2328   */\n      tag_47\n      jump\t// in\n    tag_86:\n        /* \"#utility.yul\":2294:2297   */\n      dup5\n        /* \"#utility.yul\":2290:2329   */\n      add\n        /* \"#utility.yul\":2283:2329   */\n      swap2\n      pop\n        /* \"#utility.yul\":2050:2335   */\n      pop\n        /* \"#utility.yul\":1958:2335   */\n      swap3\n      swap2\n      pop\n      pop\n      jump\t// out\n        /* \"#utility.yul\":2341:2654   */\n    tag_11:\n        /* \"#utility.yul\":2454:2458   */\n      0x00\n        /* \"#utility.yul\":2492:2494   */\n      0x20\n        /* \"#utility.yul\":2481:2490   */\n      dup3\n        /* \"#utility.yul\":2477:2495   */\n      add\n        /* \"#utility.yul\":2469:2495   */\n      swap1\n      pop\n        /* \"#utility.yul\":2541:2550   */\n      dup2\n        /* \"#utility.yul\":2535:2539   */\n      dup2\n        /* \"#utility.yul\":2531:2551   */\n      sub\n        /* \"#utility.yul\":2527:2528   */\n      0x00\n        /* \"#utility.yul\":2516:2525   */\n      dup4\n        /* \"#utility.yul\":2512:2529   */\n      add\n        /* \"#utility.yul\":2505:2552   */\n      mstore\n        /* \"#utility.yul\":2569:2647   */\n      tag_88\n        /* \"#utility.yul\":2642:2646   */\n      dup2\n        /* \"#utility.yul\":2633:2639   */\n      dup5\n        /* \"#utility.yul\":2569:2647   */\n      tag_48\n      jump\t// in\n    tag_88:\n        /* \"#utility.yul\":2561:2647   */\n      swap1\n      pop\n        /* \"#utility.yul\":2341:2654   */\n      swap3\n      swap2\n      pop\n      pop\n      jump\t// out\n        /* \"#utility.yul\":2660:2777   */\n    tag_49:\n        /* \"#utility.yul\":2769:2770   */\n      0x00\n        /* \"#utility.yul\":2766:2767   */\n      dup1\n        /* \"#utility.yul\":2759:2771   */\n      revert\n        /* \"#utility.yul\":2783:2900   */\n    tag_50:\n        /* \"#utility.yul\":2892:2893   */\n      0x00\n        /* \"#utility.yul\":2889:2890   */\n      dup1\n        /* \"#utility.yul\":2882:2894   */\n      revert\n        /* \"#utility.yul\":2906:3086   */\n    tag_51:\n        /* \"#utility.yul\":2954:3031   */\n      0x4e487b7100000000000000000000000000000000000000000000000000000000\n        /* \"#utility.yul\":2951:2952   */\n      0x00\n        /* \"#utility.yul\":2944:3032   */\n      mstore\n        /* \"#utility.yul\":3051:3055   */\n      0x41\n        /* \"#utility.yul\":3048:3049   */\n      0x04\n        /* \"#utility.yul\":3041:3056   */\n      mstore\n        /* \"#utility.yul\":3075:3079   */\n      0x24\n        /* \"#utility.yul\":3072:3073   */\n      0x00\n        /* \"#utility.yul\":3065:3080   */\n      revert\n        /* \"#utility.yul\":3092:3373   */\n    tag_52:\n        /* \"#utility.yul\":3175:3202   */\n      tag_93\n        /* \"#utility.yul\":3197:3201   */\n      dup3\n        /* \"#utility.yul\":3175:3202   */\n      tag_47\n      jump\t// in\n    tag_93:\n        /* \"#utility.yul\":3167:3173   */\n      dup2\n        /* \"#utility.yul\":3163:3203   */\n      add\n        /* \"#utility.yul\":3305:3311   */\n      dup2\n        /* \"#utility.yul\":3293:3303   */\n      dup2\n        /* \"#utility.yul\":3290:3312   */\n      lt\n        /* \"#utility.yul\":3269:3287   */\n      0xffffffffffffffff\n        /* \"#utility.yul\":3257:3267   */\n      dup3\n        /* \"#utility.yul\":3254:3288   */\n      gt\n        /* \"#utility.yul\":3251:3313   */\n      or\n        /* \"#utility.yul\":3248:3336   */\n      iszero\n      tag_94\n      jumpi\n        /* \"#utility.yul\":3316:3334   */\n      tag_95\n      tag_51\n      jump\t// in\n    tag_95:\n        /* \"#utility.yul\":3248:3336   */\n    tag_94:\n        /* \"#utility.yul\":3356:3366   */\n      dup1\n        /* \"#utility.yul\":3352:3354   */\n      0x40\n        /* \"#utility.yul\":3345:3367   */\n      mstore\n        /* \"#utility.yul\":3135:3373   */\n      pop\n        /* \"#utility.yul\":3092:3373   */\n      pop\n      pop\n      jump\t// out\n        /* \"#utility.yul\":3379:3508   */\n    tag_53:\n        /* \"#utility.yul\":3413:3419   */\n      0x00\n        /* \"#utility.yul\":3440:3460   */\n      tag_97\n      tag_36\n      jump\t// in\n    tag_97:\n        /* \"#utility.yul\":3430:3460   */\n      swap1\n      pop\n        /* \"#utility.yul\":3469:3502   */\n      tag_98\n        /* \"#utility.yul\":3497:3501   */\n      dup3\n        /* \"#utility.yul\":3489:3495   */\n      dup3\n        /* \"#utility.yul\":3469:3502   */\n      tag_52\n      jump\t// in\n    tag_98:\n        /* \"#utility.yul\":3379:3508   */\n      swap2\n      swap1\n      pop\n      jump\t// out\n        /* \"#utility.yul\":3514:3822   */\n    tag_54:\n        /* \"#utility.yul\":3576:3580   */\n      0x00\n        /* \"#utility.yul\":3666:3684   */\n      0xffffffffffffffff\n        /* \"#utility.yul\":3658:3664   */\n      dup3\n        /* \"#utility.yul\":3655:3685   */\n      gt\n        /* \"#utility.yul\":3652:3708   */\n      iszero\n      tag_100\n      jumpi\n        /* \"#utility.yul\":3688:3706   */\n      tag_101\n      tag_51\n      jump\t// in\n    tag_101:\n        /* \"#utility.yul\":3652:3708   */\n    tag_100:\n        /* \"#utility.yul\":3726:3755   */\n      tag_102\n        /* \"#utility.yul\":3748:3754   */\n      dup3\n        /* \"#utility.yul\":3726:3755   */\n      tag_47\n      jump\t// in\n    tag_102:\n        /* \"#utility.yul\":3718:3755   */\n      swap1\n      pop\n        /* \"#utility.yul\":3810:3814   */\n      0x20\n        /* \"#utility.yul\":3804:3808   */\n      dup2\n        /* \"#utility.yul\":3800:3815   */\n      add\n        /* \"#utility.yul\":3792:3815   */\n      swap1\n      pop\n        /* \"#utility.yul\":3514:3822   */\n      swap2\n      swap1\n      pop\n      jump\t// out\n        /* \"#utility.yul\":3828:4262   */\n    tag_55:\n        /* \"#utility.yul\":3917:3922   */\n      0x00\n        /* \"#utility.yul\":3942:4008   */\n      tag_104\n        /* \"#utility.yul\":3958:4007   */\n      tag_105\n        /* \"#utility.yul\":4000:4006   */\n      dup5\n        /* \"#utility.yul\":3958:4007   */\n      tag_54\n      jump\t// in\n    tag_105:\n        /* \"#utility.yul\":3942:4008   */\n      tag_53\n      jump\t// in\n    tag_104:\n        /* \"#utility.yul\":3933:4008   */\n      swap1\n      pop\n        /* \"#utility.yul\":4031:4037   */\n      dup3\n        /* \"#utility.yul\":4024:4029   */\n      dup2\n        /* \"#utility.yul\":4017:4038   */\n      mstore\n        /* \"#utility.yul\":4069:4073   */\n      0x20\n        /* \"#utility.yul\":4062:4067   */\n      dup2\n        /* \"#utility.yul\":4058:4074   */\n      add\n        /* \"#utility.yul\":4107:4110   */\n      dup5\n        /* \"#utility.yul\":4098:4104   */\n      dup5\n        /* \"#utility.yul\":4093:4096   */\n      dup5\n        /* \"#utility.yul\":4089:4105   */\n      add\n        /* \"#utility.yul\":4086:4111   */\n      gt\n        /* \"#utility.yul\":4083:4195   */\n      iszero\n      tag_106\n      jumpi\n        /* \"#utility.yul\":4114:4193   */\n      tag_107\n      tag_50\n      jump\t// in\n    tag_107:\n        /* \"#utility.yul\":4083:4195   */\n    tag_106:\n        /* \"#utility.yul\":4204:4256   */\n      tag_108\n        /* \"#utility.yul\":4249:4255   */\n      dup5\n        /* \"#utility.yul\":4244:4247   */\n      dup3\n        /* \"#utility.yul\":4239:4242   */\n      dup6\n        /* \"#utility.yul\":4204:4256   */\n      tag_46\n      jump\t// in\n    tag_108:\n        /* \"#utility.yul\":3923:4262   */\n      pop\n        /* \"#utility.yul\":3828:4262   */\n      swap4\n      swap3\n      pop\n      pop\n      pop\n      jump\t// out\n        /* \"#utility.yul\":4282:4637   */\n    tag_56:\n        /* \"#utility.yul\":4349:4354   */\n      0x00\n        /* \"#utility.yul\":4398:4401   */\n      dup3\n        /* \"#utility.yul\":4391:4395   */\n      0x1f\n        /* \"#utility.yul\":4383:4389   */\n      dup4\n        /* \"#utility.yul\":4379:4396   */\n      add\n        /* \"#utility.yul\":4375:4402   */\n      slt\n        /* \"#utility.yul\":4365:4487   */\n      tag_110\n      jumpi\n        /* \"#utility.yul\":4406:4485   */\n      tag_111\n      tag_49\n      jump\t// in\n    tag_111:\n        /* \"#utility.yul\":4365:4487   */\n    tag_110:\n        /* \"#utility.yul\":4516:4522   */\n      dup2\n        /* \"#utility.yul\":4510:4523   */\n      mload\n        /* \"#utility.yul\":4541:4631   */\n      tag_112\n        /* \"#utility.yul\":4627:4630   */\n      dup5\n        /* \"#utility.yul\":4619:4625   */\n      dup3\n        /* \"#utility.yul\":4612:4616   */\n      0x20\n        /* \"#utility.yul\":4604:4610   */\n      dup7\n        /* \"#utility.yul\":4600:4617   */\n      add\n        /* \"#utility.yul\":4541:4631   */\n      tag_55\n      jump\t// in\n    tag_112:\n        /* \"#utility.yul\":4532:4631   */\n      swap2\n      pop\n        /* \"#utility.yul\":4355:4637   */\n      pop\n        /* \"#utility.yul\":4282:4637   */\n      swap3\n      swap2\n      pop\n      pop\n      jump\t// out\n        /* \"#utility.yul\":4643:5167   */\n    tag_23:\n        /* \"#utility.yul\":4723:4729   */\n      0x00\n        /* \"#utility.yul\":4772:4774   */\n      0x20\n        /* \"#utility.yul\":4760:4769   */\n      dup3\n        /* \"#utility.yul\":4751:4758   */\n      dup5\n        /* \"#utility.yul\":4747:4770   */\n      sub\n        /* \"#utility.yul\":4743:4775   */\n      slt\n        /* \"#utility.yul\":4740:4859   */\n      iszero\n      tag_114\n      jumpi\n        /* \"#utility.yul\":4778:4857   */\n      tag_115\n      tag_37\n      jump\t// in\n    tag_115:\n        /* \"#utility.yul\":4740:4859   */\n    tag_114:\n        /* \"#utility.yul\":4919:4920   */\n      0x00\n        /* \"#utility.yul\":4908:4917   */\n      dup3\n        /* \"#utility.yul\":4904:4921   */\n      add\n        /* \"#utility.yul\":4898:4922   */\n      mload\n        /* \"#utility.yul\":4949:4967   */\n      0xffffffffffffffff\n        /* \"#utility.yul\":4941:4947   */\n      dup2\n        /* \"#utility.yul\":4938:4968   */\n      gt\n        /* \"#utility.yul\":4935:5052   */\n      iszero\n      tag_116\n      jumpi\n        /* \"#utility.yul\":4971:5050   */\n      tag_117\n      tag_38\n      jump\t// in\n    tag_117:\n        /* \"#utility.yul\":4935:5052   */\n    tag_116:\n        /* \"#utility.yul\":5076:5150   */\n      tag_118\n        /* \"#utility.yul\":5142:5149   */\n      dup5\n        /* \"#utility.yul\":5133:5139   */\n      dup3\n        /* \"#utility.yul\":5122:5131   */\n      dup6\n        /* \"#utility.yul\":5118:5140   */\n      add\n        /* \"#utility.yul\":5076:5150   */\n      tag_56\n      jump\t// in\n    tag_118:\n        /* \"#utility.yul\":5066:5150   */\n      swap2\n      pop\n        /* \"#utility.yul\":4869:5160   */\n      pop\n        /* \"#utility.yul\":4643:5167   */\n      swap3\n      swap2\n      pop\n      pop\n      jump\t// out\n        /* \"#utility.yul\":5173:5331   */\n    tag_57:\n        /* \"#utility.yul\":5313:5323   */\n      0x4e6577204e616d65000000000000000000000000000000000000000000000000\n        /* \"#utility.yul\":5309:5310   */\n      0x00\n        /* \"#utility.yul\":5301:5307   */\n      dup3\n        /* \"#utility.yul\":5297:5311   */\n      add\n        /* \"#utility.yul\":5290:5324   */\n      mstore\n        /* \"#utility.yul\":5173:5331   */\n      pop\n      jump\t// out\n        /* \"#utility.yul\":5337:5702   */\n    tag_58:\n        /* \"#utility.yul\":5479:5482   */\n      0x00\n        /* \"#utility.yul\":5500:5566   */\n      tag_121\n        /* \"#utility.yul\":5564:5565   */\n      0x08\n        /* \"#utility.yul\":5559:5562   */\n      dup4\n        /* \"#utility.yul\":5500:5566   */\n      tag_45\n      jump\t// in\n    tag_121:\n        /* \"#utility.yul\":5493:5566   */\n      swap2\n      pop\n        /* \"#utility.yul\":5575:5668   */\n      tag_122\n        /* \"#utility.yul\":5664:5667   */\n      dup3\n        /* \"#utility.yul\":5575:5668   */\n      tag_57\n      jump\t// in\n    tag_122:\n        /* \"#utility.yul\":5693:5695   */\n      0x20\n        /* \"#utility.yul\":5688:5691   */\n      dup3\n        /* \"#utility.yul\":5684:5696   */\n      add\n        /* \"#utility.yul\":5677:5696   */\n      swap1\n      pop\n        /* \"#utility.yul\":5337:5702   */\n      swap2\n      swap1\n      pop\n      jump\t// out\n        /* \"#utility.yul\":5708:6127   */\n    tag_26:\n        /* \"#utility.yul\":5874:5878   */\n      0x00\n        /* \"#utility.yul\":5912:5914   */\n      0x20\n        /* \"#utility.yul\":5901:5910   */\n      dup3\n        /* \"#utility.yul\":5897:5915   */\n      add\n        /* \"#utility.yul\":5889:5915   */\n      swap1\n      pop\n        /* \"#utility.yul\":5961:5970   */\n      dup2\n        /* \"#utility.yul\":5955:5959   */\n      dup2\n        /* \"#utility.yul\":5951:5971   */\n      sub\n        /* \"#utility.yul\":5947:5948   */\n      0x00\n        /* \"#utility.yul\":5936:5945   */\n      dup4\n        /* \"#utility.yul\":5932:5949   */\n      add\n        /* \"#utility.yul\":5925:5972   */\n      mstore\n        /* \"#utility.yul\":5989:6120   */\n      tag_124\n        /* \"#utility.yul\":6115:6119   */\n      dup2\n        /* \"#utility.yul\":5989:6120   */\n      tag_58\n      jump\t// in\n    tag_124:\n        /* \"#utility.yul\":5981:6120   */\n      swap1\n      pop\n        /* \"#utility.yul\":5708:6127   */\n      swap2\n      swap1\n      pop\n      jump\t// out\n        /* \"#utility.yul\":6133:6251   */\n    tag_59:\n        /* \"#utility.yul\":6220:6244   */\n      tag_126\n        /* \"#utility.yul\":6238:6243   */\n      dup2\n        /* \"#utility.yul\":6220:6244   */\n      tag_40\n      jump\t// in\n    tag_126:\n        /* \"#utility.yul\":6215:6218   */\n      dup3\n        /* \"#utility.yul\":6208:6245   */\n      mstore\n        /* \"#utility.yul\":6133:6251   */\n      pop\n      pop\n      jump\t// out\n        /* \"#utility.yul\":6257:6479   */\n    tag_32:\n        /* \"#utility.yul\":6350:6354   */\n      0x00\n        /* \"#utility.yul\":6388:6390   */\n      0x20\n        /* \"#utility.yul\":6377:6386   */\n      dup3\n        /* \"#utility.yul\":6373:6391   */\n      add\n        /* \"#utility.yul\":6365:6391   */\n      swap1\n      pop\n        /* \"#utility.yul\":6401:6472   */\n      tag_128\n        /* \"#utility.yul\":6469:6470   */\n      0x00\n        /* \"#utility.yul\":6458:6467   */\n      dup4\n        /* \"#utility.yul\":6454:6471   */\n      add\n        /* \"#utility.yul\":6445:6451   */\n      dup5\n        /* \"#utility.yul\":6401:6472   */\n      tag_59\n      jump\t// in\n    tag_128:\n        /* \"#utility.yul\":6257:6479   */\n      swap3\n      swap2\n      pop\n      pop\n      jump\t// out\n\n    auxdata: 0xa2646970667358221220dd62a2cfd7dbc8e6d8392b5adadbdddf7677e206f0a599799270745c5ae814f164736f6c634300081a0033\n}\n",
				"bytecode": {
					"linkReferences": {},
					"object": "6080604052348015600e575f80fd5b506105648061001c5f395ff3fe608060405260043610610033575f3560e01c8063780fa31e146100375780637c52d3db146100735780637fa37d841461009b575b5f80fd5b348015610042575f80fd5b5061005d6004803603810190610058919061027e565b6100b7565b60405161006a9190610319565b60405180910390f35b34801561007e575f80fd5b506100996004803603810190610094919061027e565b610130565b005b6100b560048036038101906100b0919061027e565b610197565b005b60608173ffffffffffffffffffffffffffffffffffffffff166317d7de7c6040518163ffffffff1660e01b81526004015f60405180830381865afa158015610101573d5f803e3d5ffd5b505050506040513d5f823e3d601f19601f820116820180604052508101906101299190610457565b9050919050565b8073ffffffffffffffffffffffffffffffffffffffff1663c47f00276040518163ffffffff1660e01b8152600401610167906104e8565b5f604051808303815f87803b15801561017e575f80fd5b505af1158015610190573d5f803e3d5ffd5b5050505050565b8073ffffffffffffffffffffffffffffffffffffffff16630c11dedd34336040518363ffffffff1660e01b81526004016101d19190610515565b5f604051808303818588803b1580156101e8575f80fd5b505af11580156101fa573d5f803e3d5ffd5b505050505050565b5f604051905090565b5f80fd5b5f80fd5b5f73ffffffffffffffffffffffffffffffffffffffff82169050919050565b5f61023c82610213565b9050919050565b5f61024d82610232565b9050919050565b61025d81610243565b8114610267575f80fd5b50565b5f8135905061027881610254565b92915050565b5f602082840312156102935761029261020b565b5b5f6102a08482850161026a565b91505092915050565b5f81519050919050565b5f82825260208201905092915050565b8281835e5f83830152505050565b5f601f19601f8301169050919050565b5f6102eb826102a9565b6102f581856102b3565b93506103058185602086016102c3565b61030e816102d1565b840191505092915050565b5f6020820190508181035f83015261033181846102e1565b905092915050565b5f80fd5b5f80fd5b7f4e487b71000000000000000000000000000000000000000000000000000000005f52604160045260245ffd5b610377826102d1565b810181811067ffffffffffffffff8211171561039657610395610341565b5b80604052505050565b5f6103a8610202565b90506103b4828261036e565b919050565b5f67ffffffffffffffff8211156103d3576103d2610341565b5b6103dc826102d1565b9050602081019050919050565b5f6103fb6103f6846103b9565b61039f565b9050828152602081018484840111156104175761041661033d565b5b6104228482856102c3565b509392505050565b5f82601f83011261043e5761043d610339565b5b815161044e8482602086016103e9565b91505092915050565b5f6020828403121561046c5761046b61020b565b5b5f82015167ffffffffffffffff8111156104895761048861020f565b5b6104958482850161042a565b91505092915050565b7f4e6577204e616d650000000000000000000000000000000000000000000000005f82015250565b5f6104d26008836102b3565b91506104dd8261049e565b602082019050919050565b5f6020820190508181035f8301526104ff816104c6565b9050919050565b61050f81610232565b82525050565b5f6020820190506105285f830184610506565b9291505056fea2646970667358221220dd62a2cfd7dbc8e6d8392b5adadbdddf7677e206f0a599799270745c5ae814f164736f6c634300081a0033",
					"opcodes": "PUSH1 0x80 PUSH1 0x40 MSTORE CALLVALUE DUP1 ISZERO PUSH1 0xE JUMPI PUSH0 DUP1 REVERT JUMPDEST POP PUSH2 0x564 DUP1 PUSH2 0x1C PUSH0 CODECOPY PUSH0 RETURN INVALID PUSH1 0x80 PUSH1 0x40 MSTORE PUSH1 0x4 CALLDATASIZE LT PUSH2 0x33 JUMPI PUSH0 CALLDATALOAD PUSH1 0xE0 SHR DUP1 PUSH4 0x780FA31E EQ PUSH2 0x37 JUMPI DUP1 PUSH4 0x7C52D3DB EQ PUSH2 0x73 JUMPI DUP1 PUSH4 0x7FA37D84 EQ PUSH2 0x9B JUMPI JUMPDEST PUSH0 DUP1 REVERT JUMPDEST CALLVALUE DUP1 ISZERO PUSH2 0x42 JUMPI PUSH0 DUP1 REVERT JUMPDEST POP PUSH2 0x5D PUSH1 0x4 DUP1 CALLDATASIZE SUB DUP2 ADD SWAP1 PUSH2 0x58 SWAP2 SWAP1 PUSH2 0x27E JUMP JUMPDEST PUSH2 0xB7 JUMP JUMPDEST PUSH1 0x40 MLOAD PUSH2 0x6A SWAP2 SWAP1 PUSH2 0x319 JUMP JUMPDEST PUSH1 0x40 MLOAD DUP1 SWAP2 SUB SWAP1 RETURN JUMPDEST CALLVALUE DUP1 ISZERO PUSH2 0x7E JUMPI PUSH0 DUP1 REVERT JUMPDEST POP PUSH2 0x99 PUSH1 0x4 DUP1 CALLDATASIZE SUB DUP2 ADD SWAP1 PUSH2 0x94 SWAP2 SWAP1 PUSH2 0x27E JUMP JUMPDEST PUSH2 0x130 JUMP JUMPDEST STOP JUMPDEST PUSH2 0xB5 PUSH1 0x4 DUP1 CALLDATASIZE SUB DUP2 ADD SWAP1 PUSH2 0xB0 SWAP2 SWAP1 PUSH2 0x27E JUMP JUMPDEST PUSH2 0x197 JUMP JUMPDEST STOP JUMPDEST PUSH1 0x60 DUP2 PUSH20 0xFFFFFFFFFFFFFFFFFFFFFFFFFFFFFFFFFFFFFFFF AND PUSH4 0x17D7DE7C PUSH1 0x40 MLOAD DUP2 PUSH4 0xFFFFFFFF AND PUSH1 0xE0 SHL DUP2 MSTORE PUSH1 0x4 ADD PUSH0 PUSH1 0x40 MLOAD DUP1 DUP4 SUB DUP2 DUP7 GAS STATICCALL ISZERO DUP1 ISZERO PUSH2 0x101 JUMPI RETURNDATASIZE PUSH0 DUP1 RETURNDATACOPY RETURNDATASIZE PUSH0 REVERT JUMPDEST POP POP POP POP PUSH1 0x40 MLOAD RETURNDATASIZE PUSH0 DUP3 RETURNDATACOPY RETURNDATASIZE PUSH1 0x1F NOT PUSH1 0x1F DUP3 ADD AND DUP3 ADD DUP1 PUSH1 0x40 MSTORE POP DUP2 ADD SWAP1 PUSH2 0x129 SWAP2 SWAP1 PUSH2 0x457 JUMP JUMPDEST SWAP1 POP SWAP2 SWAP1 POP JUMP JUMPDEST DUP1 PUSH20 0xFFFFFFFFFFFFFFFFFFFFFFFFFFFFFFFFFFFFFFFF AND PUSH4 0xC47F0027 PUSH1 0x40 MLOAD DUP2 PUSH4 0xFFFFFFFF AND PUSH1 0xE0 SHL DUP2 MSTORE PUSH1 0x4 ADD PUSH2 0x167 SWAP1 PUSH2 0x4E8 JUMP JUMPDEST PUSH0 PUSH1 0x40 MLOAD DUP1 DUP4 SUB DUP2 PUSH0 DUP8 DUP1 EXTCODESIZE ISZERO DUP1 ISZERO PUSH2 0x17E JUMPI PUSH0 DUP1 REVERT JUMPDEST POP GAS CALL ISZERO DUP1 ISZERO PUSH2 0x190 JUMPI RETURNDATASIZE PUSH0 DUP1 RETURNDATACOPY RETURNDATASIZE PUSH0 REVERT JUMPDEST POP POP POP POP POP JUMP JUMPDEST DUP1 PUSH20 0xFFFFFFFFFFFFFFFFFFFFFFFFFFFFFFFFFFFFFFFF AND PUSH4 0xC11DEDD CALLVALUE CALLER PUSH1 0x40 MLOAD DUP4 PUSH4 0xFFFFFFFF AND PUSH1 0xE0 SHL DUP2 MSTORE PUSH1 0x4 ADD PUSH2 0x1D1 SWAP2 SWAP1 PUSH2 0x515 JUMP JUMPDEST PUSH0 PUSH1 0x40 MLOAD DUP1 DUP4 SUB DUP2 DUP6 DUP9 DUP1 EXTCODESIZE ISZERO DUP1 ISZERO PUSH2 0x1E8 JUMPI PUSH0 DUP1 REVERT JUMPDEST POP GAS CALL ISZERO DUP1 ISZERO PUSH2 0x1FA JUMPI RETURNDATASIZE PUSH0 DUP1 RETURNDATACOPY RETURNDATASIZE PUSH0 REVERT JUMPDEST POP POP POP POP POP POP JUMP JUMPDEST PUSH0 PUSH1 0x40 MLOAD SWAP1 POP SWAP1 JUMP JUMPDEST PUSH0 DUP1 REVERT JUMPDEST PUSH0 DUP1 REVERT JUMPDEST PUSH0 PUSH20 0xFFFFFFFFFFFFFFFFFFFFFFFFFFFFFFFFFFFFFFFF DUP3 AND SWAP1 POP SWAP2 SWAP1 POP JUMP JUMPDEST PUSH0 PUSH2 0x23C DUP3 PUSH2 0x213 JUMP JUMPDEST SWAP1 POP SWAP2 SWAP1 POP JUMP JUMPDEST PUSH0 PUSH2 0x24D DUP3 PUSH2 0x232 JUMP JUMPDEST SWAP1 POP SWAP2 SWAP1 POP JUMP JUMPDEST PUSH2 0x25D DUP2 PUSH2 0x243 JUMP JUMPDEST DUP2 EQ PUSH2 0x267 JUMPI PUSH0 DUP1 REVERT JUMPDEST POP JUMP JUMPDEST PUSH0 DUP2 CALLDATALOAD SWAP1 POP PUSH2 0x278 DUP2 PUSH2 0x254 JUMP JUMPDEST SWAP3 SWAP2 POP POP JUMP JUMPDEST PUSH0 PUSH1 0x20 DUP3 DUP5 SUB SLT ISZERO PUSH2 0x293 JUMPI PUSH2 0x292 PUSH2 0x20B JUMP JUMPDEST JUMPDEST PUSH0 PUSH2 0x2A0 DUP5 DUP3 DUP6 ADD PUSH2 0x26A JUMP JUMPDEST SWAP2 POP POP SWAP3 SWAP2 POP POP JUMP JUMPDEST PUSH0 DUP2 MLOAD SWAP1 POP SWAP2 SWAP1 POP JUMP JUMPDEST PUSH0 DUP3 DUP3 MSTORE PUSH1 0x20 DUP3 ADD SWAP1 POP SWAP3 SWAP2 POP POP JUMP JUMPDEST DUP3 DUP2 DUP4 MCOPY PUSH0 DUP4 DUP4 ADD MSTORE POP POP POP JUMP JUMPDEST PUSH0 PUSH1 0x1F NOT PUSH1 0x1F DUP4 ADD AND SWAP1 POP SWAP2 SWAP1 POP JUMP JUMPDEST PUSH0 PUSH2 0x2EB DUP3 PUSH2 0x2A9 JUMP JUMPDEST PUSH2 0x2F5 DUP2 DUP6 PUSH2 0x2B3 JUMP JUMPDEST SWAP4 POP PUSH2 0x305 DUP2 DUP6 PUSH1 0x20 DUP7 ADD PUSH2 0x2C3 JUMP JUMPDEST PUSH2 0x30E DUP2 PUSH2 0x2D1 JUMP JUMPDEST DUP5 ADD SWAP2 POP POP SWAP3 SWAP2 POP POP JUMP JUMPDEST PUSH0 PUSH1 0x20 DUP3 ADD SWAP1 POP DUP2 DUP2 SUB PUSH0 DUP4 ADD MSTORE PUSH2 0x331 DUP2 DUP5 PUSH2 0x2E1 JUMP JUMPDEST SWAP1 POP SWAP3 SWAP2 POP POP JUMP JUMPDEST PUSH0 DUP1 REVERT JUMPDEST PUSH0 DUP1 REVERT JUMPDEST PUSH32 0x4E487B7100000000000000000000000000000000000000000000000000000000 PUSH0 MSTORE PUSH1 0x41 PUSH1 0x4 MSTORE PUSH1 0x24 PUSH0 REVERT JUMPDEST PUSH2 0x377 DUP3 PUSH2 0x2D1 JUMP JUMPDEST DUP2 ADD DUP2 DUP2 LT PUSH8 0xFFFFFFFFFFFFFFFF DUP3 GT OR ISZERO PUSH2 0x396 JUMPI PUSH2 0x395 PUSH2 0x341 JUMP JUMPDEST JUMPDEST DUP1 PUSH1 0x40 MSTORE POP POP POP JUMP JUMPDEST PUSH0 PUSH2 0x3A8 PUSH2 0x202 JUMP JUMPDEST SWAP1 POP PUSH2 0x3B4 DUP3 DUP3 PUSH2 0x36E JUMP JUMPDEST SWAP2 SWAP1 POP JUMP JUMPDEST PUSH0 PUSH8 0xFFFFFFFFFFFFFFFF DUP3 GT ISZERO PUSH2 0x3D3 JUMPI PUSH2 0x3D2 PUSH2 0x341 JUMP JUMPDEST JUMPDEST PUSH2 0x3DC DUP3 PUSH2 0x2D1 JUMP JUMPDEST SWAP1 POP PUSH1 0x20 DUP2 ADD SWAP1 POP SWAP2 SWAP1 POP JUMP JUMPDEST PUSH0 PUSH2 0x3FB PUSH2 0x3F6 DUP5 PUSH2 0x3B9 JUMP JUMPDEST PUSH2 0x39F JUMP JUMPDEST SWAP1 POP DUP3 DUP2 MSTORE PUSH1 0x20 DUP2 ADD DUP5 DUP5 DUP5 ADD GT ISZERO PUSH2 0x417 JUMPI PUSH2 0x416 PUSH2 0x33D JUMP JUMPDEST JUMPDEST PUSH2 0x422 DUP5 DUP3 DUP6 PUSH2 0x2C3 JUMP JUMPDEST POP SWAP4 SWAP3 POP POP POP JUMP JUMPDEST PUSH0 DUP3 PUSH1 0x1F DUP4 ADD SLT PUSH2 0x43E JUMPI PUSH2 0x43D PUSH2 0x339 JUMP JUMPDEST JUMPDEST DUP2 MLOAD PUSH2 0x44E DUP5 DUP3 PUSH1 0x20 DUP7 ADD PUSH2 0x3E9 JUMP JUMPDEST SWAP2 POP POP SWAP3 SWAP2 POP POP JUMP JUMPDEST PUSH0 PUSH1 0x20 DUP3 DUP5 SUB SLT ISZERO PUSH2 0x46C JUMPI PUSH2 0x46B PUSH2 0x20B JUMP JUMPDEST JUMPDEST PUSH0 DUP3 ADD MLOAD PUSH8 0xFFFFFFFFFFFFFFFF DUP2 GT ISZERO PUSH2 0x489 JUMPI PUSH2 0x488 PUSH2 0x20F JUMP JUMPDEST JUMPDEST PUSH2 0x495 DUP5 DUP3 DUP6 ADD PUSH2 0x42A JUMP JUMPDEST SWAP2 POP POP SWAP3 SWAP2 POP POP JUMP JUMPDEST PUSH32 0x4E6577204E616D65000000000000000000000000000000000000000000000000 PUSH0 DUP3 ADD MSTORE POP JUMP JUMPDEST PUSH0 PUSH2 0x4D2 PUSH1 0x8 DUP4 PUSH2 0x2B3 JUMP JUMPDEST SWAP2 POP PUSH2 0x4DD DUP3 PUSH2 0x49E JUMP JUMPDEST PUSH1 0x20 DUP3 ADD SWAP1 POP SWAP2 SWAP1 POP JUMP JUMPDEST PUSH0 PUSH1 0x20 DUP3 ADD SWAP1 POP DUP2 DUP2 SUB PUSH0 DUP4 ADD MSTORE PUSH2 0x4FF DUP2 PUSH2 0x4C6 JUMP JUMPDEST SWAP1 POP SWAP2 SWAP1 POP JUMP JUMPDEST PUSH2 0x50F DUP2 PUSH2 0x232 JUMP JUMPDEST DUP3 MSTORE POP POP JUMP JUMPDEST PUSH0 PUSH1 0x20 DUP3 ADD SWAP1 POP PUSH2 0x528 PUSH0 DUP4 ADD DUP5 PUSH2 0x506 JUMP JUMPDEST SWAP3 SWAP2 POP POP JUMP INVALID LOG2 PUSH5 0x6970667358 0x22 SLT KECCAK256 0xDD PUSH3 0xA2CFD7 0xDB 0xC8 0xE6 0xD8 CODECOPY 0x2B GAS 0xDA 0xDB 0xDD 0xDF PUSH23 0x77E206F0A599799270745C5AE814F164736F6C63430008 BYTE STOP CALLER "
				},
				"gasEstimates": {
					"creation": {
						"codeDepositCost": "276000",
						"executionCost": "316",
						"totalCost": "276316"
					},
					"external": {
						"callGetName(address)": "infinite",
						"callPay(address)": "infinite",
						"callSetName(address)": "infinite"
					}
				},
				"methodIdentifiers": {
					"callGetName(address)": "780fa31e",
					"callPay(address)": "7fa37d84",
					"callSetName(address)": "7c52d3db"
				}
			},
			"storageLayout": {
				"storage": [],
				"types": null
			},
			"userdoc": {
				"kind": "user",
				"methods": {},
				"version": 1
			}
		}
	}
}