{
	"Example_Calls/DemoToLowCall.sol": {
		"Demo": {
			"abi": [
				{
					"stateMutability": "payable",
					"type": "fallback"
				},
				{
					"inputs": [],
					"name": "age",
					"outputs": [
						{
							"internalType": "uint256",
							"name": "",
							"type": "uint256"
						}
					],
					"stateMutability": "view",
					"type": "function"
				},
				{
					"inputs": [],
					"name": "getName",
					"outputs": [
						{
							"internalType": "string",
							"name": "",
							"type": "string"
						}
					],
					"stateMutability": "view",
					"type": "function"
				},
				{
					"inputs": [],
					"name": "name",
					"outputs": [
						{
							"internalType": "string",
							"name": "",
							"type": "string"
						}
					],
					"stateMutability": "view",
					"type": "function"
				},
				{
					"inputs": [
						{
							"internalType": "address",
							"name": "_payer",
							"type": "address"
						}
					],
					"name": "pay",
					"outputs": [],
					"stateMutability": "payable",
					"type": "function"
				},
				{
					"inputs": [
						{
							"internalType": "address",
							"name": "",
							"type": "address"
						}
					],
					"name": "payments",
					"outputs": [
						{
							"internalType": "uint256",
							"name": "",
							"type": "uint256"
						}
					],
					"stateMutability": "view",
					"type": "function"
				},
				{
					"inputs": [
						{
							"internalType": "string",
							"name": "_newName",
							"type": "string"
						},
						{
							"internalType": "uint256",
							"name": "_newAge",
							"type": "uint256"
						}
					],
					"name": "setData",
					"outputs": [],
					"stateMutability": "nonpayable",
					"type": "function"
				}
			],
			"devdoc": {
				"kind": "dev",
				"methods": {},
				"version": 1
			},
			"evm": {
				"assembly": "    /* \"Example_Calls/DemoToLowCall.sol\":57:572  contract Demo{... */\n  mstore(0x40, 0x80)\n    /* \"Example_Calls/DemoToLowCall.sol\":76:103  string public name = \"John\" */\n  mload(0x40)\n  dup1\n  0x40\n  add\n  0x40\n  mstore\n  dup1\n  0x04\n  dup2\n  mstore\n  0x20\n  add\n  0x4a6f686e00000000000000000000000000000000000000000000000000000000\n  dup2\n  mstore\n  pop\n  0x00\n  swap1\n  dup2\n  tag_1\n  swap2\n  swap1\n  tag_2\n  jump\t// in\ntag_1:\n  pop\n    /* \"Example_Calls/DemoToLowCall.sol\":130:132  30 */\n  0x1e\n    /* \"Example_Calls/DemoToLowCall.sol\":109:132  uint256 public age = 30 */\n  0x01\n  sstore\n    /* \"Example_Calls/DemoToLowCall.sol\":57:572  contract Demo{... */\n  callvalue\n  dup1\n  iszero\n  tag_3\n  jumpi\n  0x00\n  dup1\n  revert\ntag_3:\n  pop\n  jump(tag_4)\n    /* \"#utility.yul\":7:106   */\ntag_5:\n    /* \"#utility.yul\":59:65   */\n  0x00\n    /* \"#utility.yul\":93:98   */\n  dup2\n    /* \"#utility.yul\":87:99   */\n  mload\n    /* \"#utility.yul\":77:99   */\n  swap1\n  pop\n    /* \"#utility.yul\":7:106   */\n  swap2\n  swap1\n  pop\n  jump\t// out\n    /* \"#utility.yul\":112:292   */\ntag_6:\n    /* \"#utility.yul\":160:237   */\n  0x4e487b7100000000000000000000000000000000000000000000000000000000\n    /* \"#utility.yul\":157:158   */\n  0x00\n    /* \"#utility.yul\":150:238   */\n  mstore\n    /* \"#utility.yul\":257:261   */\n  0x41\n    /* \"#utility.yul\":254:255   */\n  0x04\n    /* \"#utility.yul\":247:262   */\n  mstore\n    /* \"#utility.yul\":281:285   */\n  0x24\n    /* \"#utility.yul\":278:279   */\n  0x00\n    /* \"#utility.yul\":271:286   */\n  revert\n    /* \"#utility.yul\":298:478   */\ntag_7:\n    /* \"#utility.yul\":346:423   */\n  0x4e487b7100000000000000000000000000000000000000000000000000000000\n    /* \"#utility.yul\":343:344   */\n  0x00\n    /* \"#utility.yul\":336:424   */\n  mstore\n    /* \"#utility.yul\":443:447   */\n  0x22\n    /* \"#utility.yul\":440:441   */\n  0x04\n    /* \"#utility.yul\":433:448   */\n  mstore\n    /* \"#utility.yul\":467:471   */\n  0x24\n    /* \"#utility.yul\":464:465   */\n  0x00\n    /* \"#utility.yul\":457:472   */\n  revert\n    /* \"#utility.yul\":484:804   */\ntag_8:\n    /* \"#utility.yul\":528:534   */\n  0x00\n    /* \"#utility.yul\":565:566   */\n  0x02\n    /* \"#utility.yul\":559:563   */\n  dup3\n    /* \"#utility.yul\":555:567   */\n  div\n    /* \"#utility.yul\":545:567   */\n  swap1\n  pop\n    /* \"#utility.yul\":612:613   */\n  0x01\n    /* \"#utility.yul\":606:610   */\n  dup3\n    /* \"#utility.yul\":602:614   */\n  and\n    /* \"#utility.yul\":633:651   */\n  dup1\n    /* \"#utility.yul\":623:704   */\n  tag_30\n  jumpi\n    /* \"#utility.yul\":689:693   */\n  0x7f\n    /* \"#utility.yul\":681:687   */\n  dup3\n    /* \"#utility.yul\":677:694   */\n  and\n    /* \"#utility.yul\":667:694   */\n  swap2\n  pop\n    /* \"#utility.yul\":623:704   */\ntag_30:\n    /* \"#utility.yul\":751:753   */\n  0x20\n    /* \"#utility.yul\":743:749   */\n  dup3\n    /* \"#utility.yul\":740:754   */\n  lt\n    /* \"#utility.yul\":720:738   */\n  dup2\n    /* \"#utility.yul\":717:755   */\n  sub\n    /* \"#utility.yul\":714:798   */\n  tag_31\n  jumpi\n    /* \"#utility.yul\":770:788   */\n  tag_32\n  tag_7\n  jump\t// in\ntag_32:\n    /* \"#utility.yul\":714:798   */\ntag_31:\n    /* \"#utility.yul\":535:804   */\n  pop\n    /* \"#utility.yul\":484:804   */\n  swap2\n  swap1\n  pop\n  jump\t// out\n    /* \"#utility.yul\":810:951   */\ntag_9:\n    /* \"#utility.yul\":859:863   */\n  0x00\n    /* \"#utility.yul\":882:885   */\n  dup2\n    /* \"#utility.yul\":874:885   */\n  swap1\n  pop\n    /* \"#utility.yul\":905:908   */\n  dup2\n    /* \"#utility.yul\":902:903   */\n  0x00\n    /* \"#utility.yul\":895:909   */\n  mstore\n    /* \"#utility.yul\":939:943   */\n  0x20\n    /* \"#utility.yul\":936:937   */\n  0x00\n    /* \"#utility.yul\":926:944   */\n  keccak256\n    /* \"#utility.yul\":918:944   */\n  swap1\n  pop\n    /* \"#utility.yul\":810:951   */\n  swap2\n  swap1\n  pop\n  jump\t// out\n    /* \"#utility.yul\":957:1050   */\ntag_10:\n    /* \"#utility.yul\":994:1000   */\n  0x00\n    /* \"#utility.yul\":1041:1043   */\n  0x20\n    /* \"#utility.yul\":1036:1038   */\n  0x1f\n    /* \"#utility.yul\":1029:1034   */\n  dup4\n    /* \"#utility.yul\":1025:1039   */\n  add\n    /* \"#utility.yul\":1021:1044   */\n  div\n    /* \"#utility.yul\":1011:1044   */\n  swap1\n  pop\n    /* \"#utility.yul\":957:1050   */\n  swap2\n  swap1\n  pop\n  jump\t// out\n    /* \"#utility.yul\":1056:1163   */\ntag_11:\n    /* \"#utility.yul\":1100:1108   */\n  0x00\n    /* \"#utility.yul\":1150:1155   */\n  dup3\n    /* \"#utility.yul\":1144:1148   */\n  dup3\n    /* \"#utility.yul\":1140:1156   */\n  shl\n    /* \"#utility.yul\":1119:1156   */\n  swap1\n  pop\n    /* \"#utility.yul\":1056:1163   */\n  swap3\n  swap2\n  pop\n  pop\n  jump\t// out\n    /* \"#utility.yul\":1169:1562   */\ntag_12:\n    /* \"#utility.yul\":1238:1244   */\n  0x00\n    /* \"#utility.yul\":1288:1289   */\n  0x08\n    /* \"#utility.yul\":1276:1286   */\n  dup4\n    /* \"#utility.yul\":1272:1290   */\n  mul\n    /* \"#utility.yul\":1311:1408   */\n  tag_37\n    /* \"#utility.yul\":1341:1407   */\n  0xffffffffffffffffffffffffffffffffffffffffffffffffffffffffffffffff\n    /* \"#utility.yul\":1330:1339   */\n  dup3\n    /* \"#utility.yul\":1311:1408   */\n  tag_11\n  jump\t// in\ntag_37:\n    /* \"#utility.yul\":1429:1468   */\n  tag_38\n    /* \"#utility.yul\":1459:1467   */\n  dup7\n    /* \"#utility.yul\":1448:1457   */\n  dup4\n    /* \"#utility.yul\":1429:1468   */\n  tag_11\n  jump\t// in\ntag_38:\n    /* \"#utility.yul\":1417:1468   */\n  swap6\n  pop\n    /* \"#utility.yul\":1501:1505   */\n  dup1\n    /* \"#utility.yul\":1497:1506   */\n  not\n    /* \"#utility.yul\":1490:1495   */\n  dup5\n    /* \"#utility.yul\":1486:1507   */\n  and\n    /* \"#utility.yul\":1477:1507   */\n  swap4\n  pop\n    /* \"#utility.yul\":1550:1554   */\n  dup1\n    /* \"#utility.yul\":1540:1548   */\n  dup7\n    /* \"#utility.yul\":1536:1555   */\n  and\n    /* \"#utility.yul\":1529:1534   */\n  dup5\n    /* \"#utility.yul\":1526:1556   */\n  or\n    /* \"#utility.yul\":1516:1556   */\n  swap3\n  pop\n    /* \"#utility.yul\":1245:1562   */\n  pop\n  pop\n    /* \"#utility.yul\":1169:1562   */\n  swap4\n  swap3\n  pop\n  pop\n  pop\n  jump\t// out\n    /* \"#utility.yul\":1568:1645   */\ntag_13:\n    /* \"#utility.yul\":1605:1612   */\n  0x00\n    /* \"#utility.yul\":1634:1639   */\n  dup2\n    /* \"#utility.yul\":1623:1639   */\n  swap1\n  pop\n    /* \"#utility.yul\":1568:1645   */\n  swap2\n  swap1\n  pop\n  jump\t// out\n    /* \"#utility.yul\":1651:1711   */\ntag_14:\n    /* \"#utility.yul\":1679:1682   */\n  0x00\n    /* \"#utility.yul\":1700:1705   */\n  dup2\n    /* \"#utility.yul\":1693:1705   */\n  swap1\n  pop\n    /* \"#utility.yul\":1651:1711   */\n  swap2\n  swap1\n  pop\n  jump\t// out\n    /* \"#utility.yul\":1717:1859   */\ntag_15:\n    /* \"#utility.yul\":1767:1776   */\n  0x00\n    /* \"#utility.yul\":1800:1853   */\n  tag_42\n    /* \"#utility.yul\":1818:1852   */\n  tag_43\n    /* \"#utility.yul\":1827:1851   */\n  tag_44\n    /* \"#utility.yul\":1845:1850   */\n  dup5\n    /* \"#utility.yul\":1827:1851   */\n  tag_13\n  jump\t// in\ntag_44:\n    /* \"#utility.yul\":1818:1852   */\n  tag_14\n  jump\t// in\ntag_43:\n    /* \"#utility.yul\":1800:1853   */\n  tag_13\n  jump\t// in\ntag_42:\n    /* \"#utility.yul\":1787:1853   */\n  swap1\n  pop\n    /* \"#utility.yul\":1717:1859   */\n  swap2\n  swap1\n  pop\n  jump\t// out\n    /* \"#utility.yul\":1865:1940   */\ntag_16:\n    /* \"#utility.yul\":1908:1911   */\n  0x00\n    /* \"#utility.yul\":1929:1934   */\n  dup2\n    /* \"#utility.yul\":1922:1934   */\n  swap1\n  pop\n    /* \"#utility.yul\":1865:1940   */\n  swap2\n  swap1\n  pop\n  jump\t// out\n    /* \"#utility.yul\":1946:2215   */\ntag_17:\n    /* \"#utility.yul\":2056:2095   */\n  tag_47\n    /* \"#utility.yul\":2087:2094   */\n  dup4\n    /* \"#utility.yul\":2056:2095   */\n  tag_15\n  jump\t// in\ntag_47:\n    /* \"#utility.yul\":2117:2208   */\n  tag_48\n    /* \"#utility.yul\":2166:2207   */\n  tag_49\n    /* \"#utility.yul\":2190:2206   */\n  dup3\n    /* \"#utility.yul\":2166:2207   */\n  tag_16\n  jump\t// in\ntag_49:\n    /* \"#utility.yul\":2158:2164   */\n  dup5\n    /* \"#utility.yul\":2151:2155   */\n  dup5\n    /* \"#utility.yul\":2145:2156   */\n  sload\n    /* \"#utility.yul\":2117:2208   */\n  tag_12\n  jump\t// in\ntag_48:\n    /* \"#utility.yul\":2111:2115   */\n  dup3\n    /* \"#utility.yul\":2104:2209   */\n  sstore\n    /* \"#utility.yul\":2022:2215   */\n  pop\n    /* \"#utility.yul\":1946:2215   */\n  pop\n  pop\n  pop\n  jump\t// out\n    /* \"#utility.yul\":2221:2294   */\ntag_18:\n    /* \"#utility.yul\":2266:2269   */\n  0x00\n    /* \"#utility.yul\":2221:2294   */\n  swap1\n  jump\t// out\n    /* \"#utility.yul\":2300:2489   */\ntag_19:\n    /* \"#utility.yul\":2377:2409   */\n  tag_52\n  tag_18\n  jump\t// in\ntag_52:\n    /* \"#utility.yul\":2418:2483   */\n  tag_53\n    /* \"#utility.yul\":2476:2482   */\n  dup2\n    /* \"#utility.yul\":2468:2474   */\n  dup5\n    /* \"#utility.yul\":2462:2466   */\n  dup5\n    /* \"#utility.yul\":2418:2483   */\n  tag_17\n  jump\t// in\ntag_53:\n    /* \"#utility.yul\":2353:2489   */\n  pop\n    /* \"#utility.yul\":2300:2489   */\n  pop\n  pop\n  jump\t// out\n    /* \"#utility.yul\":2495:2681   */\ntag_20:\n    /* \"#utility.yul\":2555:2675   */\ntag_55:\n    /* \"#utility.yul\":2572:2575   */\n  dup2\n    /* \"#utility.yul\":2565:2570   */\n  dup2\n    /* \"#utility.yul\":2562:2576   */\n  lt\n    /* \"#utility.yul\":2555:2675   */\n  iszero\n  tag_57\n  jumpi\n    /* \"#utility.yul\":2626:2665   */\n  tag_58\n    /* \"#utility.yul\":2663:2664   */\n  0x00\n    /* \"#utility.yul\":2656:2661   */\n  dup3\n    /* \"#utility.yul\":2626:2665   */\n  tag_19\n  jump\t// in\ntag_58:\n    /* \"#utility.yul\":2599:2600   */\n  0x01\n    /* \"#utility.yul\":2592:2597   */\n  dup2\n    /* \"#utility.yul\":2588:2601   */\n  add\n    /* \"#utility.yul\":2579:2601   */\n  swap1\n  pop\n    /* \"#utility.yul\":2555:2675   */\n  jump(tag_55)\ntag_57:\n    /* \"#utility.yul\":2495:2681   */\n  pop\n  pop\n  jump\t// out\n    /* \"#utility.yul\":2687:3230   */\ntag_21:\n    /* \"#utility.yul\":2788:2790   */\n  0x1f\n    /* \"#utility.yul\":2783:2786   */\n  dup3\n    /* \"#utility.yul\":2780:2791   */\n  gt\n    /* \"#utility.yul\":2777:3223   */\n  iszero\n  tag_60\n  jumpi\n    /* \"#utility.yul\":2822:2860   */\n  tag_61\n    /* \"#utility.yul\":2854:2859   */\n  dup2\n    /* \"#utility.yul\":2822:2860   */\n  tag_9\n  jump\t// in\ntag_61:\n    /* \"#utility.yul\":2906:2935   */\n  tag_62\n    /* \"#utility.yul\":2924:2934   */\n  dup5\n    /* \"#utility.yul\":2906:2935   */\n  tag_10\n  jump\t// in\ntag_62:\n    /* \"#utility.yul\":2896:2904   */\n  dup2\n    /* \"#utility.yul\":2892:2936   */\n  add\n    /* \"#utility.yul\":3089:3091   */\n  0x20\n    /* \"#utility.yul\":3077:3087   */\n  dup6\n    /* \"#utility.yul\":3074:3092   */\n  lt\n    /* \"#utility.yul\":3071:3120   */\n  iszero\n  tag_63\n  jumpi\n    /* \"#utility.yul\":3110:3118   */\n  dup2\n    /* \"#utility.yul\":3095:3118   */\n  swap1\n  pop\n    /* \"#utility.yul\":3071:3120   */\ntag_63:\n    /* \"#utility.yul\":3133:3213   */\n  tag_64\n    /* \"#utility.yul\":3189:3211   */\n  tag_65\n    /* \"#utility.yul\":3207:3210   */\n  dup6\n    /* \"#utility.yul\":3189:3211   */\n  tag_10\n  jump\t// in\ntag_65:\n    /* \"#utility.yul\":3179:3187   */\n  dup4\n    /* \"#utility.yul\":3175:3212   */\n  add\n    /* \"#utility.yul\":3162:3173   */\n  dup3\n    /* \"#utility.yul\":3133:3213   */\n  tag_20\n  jump\t// in\ntag_64:\n    /* \"#utility.yul\":2792:3223   */\n  pop\n  pop\n    /* \"#utility.yul\":2777:3223   */\ntag_60:\n    /* \"#utility.yul\":2687:3230   */\n  pop\n  pop\n  pop\n  jump\t// out\n    /* \"#utility.yul\":3236:3353   */\ntag_22:\n    /* \"#utility.yul\":3290:3298   */\n  0x00\n    /* \"#utility.yul\":3340:3345   */\n  dup3\n    /* \"#utility.yul\":3334:3338   */\n  dup3\n    /* \"#utility.yul\":3330:3346   */\n  shr\n    /* \"#utility.yul\":3309:3346   */\n  swap1\n  pop\n    /* \"#utility.yul\":3236:3353   */\n  swap3\n  swap2\n  pop\n  pop\n  jump\t// out\n    /* \"#utility.yul\":3359:3528   */\ntag_23:\n    /* \"#utility.yul\":3403:3409   */\n  0x00\n    /* \"#utility.yul\":3436:3487   */\n  tag_68\n    /* \"#utility.yul\":3484:3485   */\n  0x00\n    /* \"#utility.yul\":3480:3486   */\n  not\n    /* \"#utility.yul\":3472:3477   */\n  dup5\n    /* \"#utility.yul\":3469:3470   */\n  0x08\n    /* \"#utility.yul\":3465:3478   */\n  mul\n    /* \"#utility.yul\":3436:3487   */\n  tag_22\n  jump\t// in\ntag_68:\n    /* \"#utility.yul\":3432:3488   */\n  not\n    /* \"#utility.yul\":3517:3521   */\n  dup1\n    /* \"#utility.yul\":3511:3515   */\n  dup4\n    /* \"#utility.yul\":3507:3522   */\n  and\n    /* \"#utility.yul\":3497:3522   */\n  swap2\n  pop\n    /* \"#utility.yul\":3410:3528   */\n  pop\n    /* \"#utility.yul\":3359:3528   */\n  swap3\n  swap2\n  pop\n  pop\n  jump\t// out\n    /* \"#utility.yul\":3533:3828   */\ntag_24:\n    /* \"#utility.yul\":3609:3613   */\n  0x00\n    /* \"#utility.yul\":3755:3784   */\n  tag_70\n    /* \"#utility.yul\":3780:3783   */\n  dup4\n    /* \"#utility.yul\":3774:3778   */\n  dup4\n    /* \"#utility.yul\":3755:3784   */\n  tag_23\n  jump\t// in\ntag_70:\n    /* \"#utility.yul\":3747:3784   */\n  swap2\n  pop\n    /* \"#utility.yul\":3817:3820   */\n  dup3\n    /* \"#utility.yul\":3814:3815   */\n  0x02\n    /* \"#utility.yul\":3810:3821   */\n  mul\n    /* \"#utility.yul\":3804:3808   */\n  dup3\n    /* \"#utility.yul\":3801:3822   */\n  or\n    /* \"#utility.yul\":3793:3822   */\n  swap1\n  pop\n    /* \"#utility.yul\":3533:3828   */\n  swap3\n  swap2\n  pop\n  pop\n  jump\t// out\n    /* \"#utility.yul\":3833:5228   */\ntag_2:\n    /* \"#utility.yul\":3950:3987   */\n  tag_72\n    /* \"#utility.yul\":3983:3986   */\n  dup3\n    /* \"#utility.yul\":3950:3987   */\n  tag_5\n  jump\t// in\ntag_72:\n    /* \"#utility.yul\":4052:4070   */\n  0xffffffffffffffff\n    /* \"#utility.yul\":4044:4050   */\n  dup2\n    /* \"#utility.yul\":4041:4071   */\n  gt\n    /* \"#utility.yul\":4038:4094   */\n  iszero\n  tag_73\n  jumpi\n    /* \"#utility.yul\":4074:4092   */\n  tag_74\n  tag_6\n  jump\t// in\ntag_74:\n    /* \"#utility.yul\":4038:4094   */\ntag_73:\n    /* \"#utility.yul\":4118:4156   */\n  tag_75\n    /* \"#utility.yul\":4150:4154   */\n  dup3\n    /* \"#utility.yul\":4144:4155   */\n  sload\n    /* \"#utility.yul\":4118:4156   */\n  tag_8\n  jump\t// in\ntag_75:\n    /* \"#utility.yul\":4203:4270   */\n  tag_76\n    /* \"#utility.yul\":4263:4269   */\n  dup3\n    /* \"#utility.yul\":4255:4261   */\n  dup3\n    /* \"#utility.yul\":4249:4253   */\n  dup6\n    /* \"#utility.yul\":4203:4270   */\n  tag_21\n  jump\t// in\ntag_76:\n    /* \"#utility.yul\":4297:4298   */\n  0x00\n    /* \"#utility.yul\":4321:4325   */\n  0x20\n    /* \"#utility.yul\":4308:4325   */\n  swap1\n  pop\n    /* \"#utility.yul\":4353:4355   */\n  0x1f\n    /* \"#utility.yul\":4345:4351   */\n  dup4\n    /* \"#utility.yul\":4342:4356   */\n  gt\n    /* \"#utility.yul\":4370:4371   */\n  0x01\n    /* \"#utility.yul\":4365:4983   */\n  dup2\n  eq\n  tag_78\n  jumpi\n    /* \"#utility.yul\":5027:5028   */\n  0x00\n    /* \"#utility.yul\":5044:5050   */\n  dup5\n    /* \"#utility.yul\":5041:5118   */\n  iszero\n  tag_79\n  jumpi\n    /* \"#utility.yul\":5093:5102   */\n  dup3\n    /* \"#utility.yul\":5088:5091   */\n  dup8\n    /* \"#utility.yul\":5084:5103   */\n  add\n    /* \"#utility.yul\":5078:5104   */\n  mload\n    /* \"#utility.yul\":5069:5104   */\n  swap1\n  pop\n    /* \"#utility.yul\":5041:5118   */\ntag_79:\n    /* \"#utility.yul\":5144:5211   */\n  tag_80\n    /* \"#utility.yul\":5204:5210   */\n  dup6\n    /* \"#utility.yul\":5197:5202   */\n  dup3\n    /* \"#utility.yul\":5144:5211   */\n  tag_24\n  jump\t// in\ntag_80:\n    /* \"#utility.yul\":5138:5142   */\n  dup7\n    /* \"#utility.yul\":5131:5212   */\n  sstore\n    /* \"#utility.yul\":5000:5222   */\n  pop\n    /* \"#utility.yul\":4335:5222   */\n  jump(tag_77)\n    /* \"#utility.yul\":4365:4983   */\ntag_78:\n    /* \"#utility.yul\":4417:4421   */\n  0x1f\n    /* \"#utility.yul\":4413:4422   */\n  not\n    /* \"#utility.yul\":4405:4411   */\n  dup5\n    /* \"#utility.yul\":4401:4423   */\n  and\n    /* \"#utility.yul\":4451:4488   */\n  tag_81\n    /* \"#utility.yul\":4483:4487   */\n  dup7\n    /* \"#utility.yul\":4451:4488   */\n  tag_9\n  jump\t// in\ntag_81:\n    /* \"#utility.yul\":4510:4511   */\n  0x00\n    /* \"#utility.yul\":4524:4732   */\ntag_82:\n    /* \"#utility.yul\":4538:4545   */\n  dup3\n    /* \"#utility.yul\":4535:4536   */\n  dup2\n    /* \"#utility.yul\":4532:4546   */\n  lt\n    /* \"#utility.yul\":4524:4732   */\n  iszero\n  tag_84\n  jumpi\n    /* \"#utility.yul\":4617:4626   */\n  dup5\n    /* \"#utility.yul\":4612:4615   */\n  dup10\n    /* \"#utility.yul\":4608:4627   */\n  add\n    /* \"#utility.yul\":4602:4628   */\n  mload\n    /* \"#utility.yul\":4594:4600   */\n  dup3\n    /* \"#utility.yul\":4587:4629   */\n  sstore\n    /* \"#utility.yul\":4668:4669   */\n  0x01\n    /* \"#utility.yul\":4660:4666   */\n  dup3\n    /* \"#utility.yul\":4656:4670   */\n  add\n    /* \"#utility.yul\":4646:4670   */\n  swap2\n  pop\n    /* \"#utility.yul\":4715:4717   */\n  0x20\n    /* \"#utility.yul\":4704:4713   */\n  dup6\n    /* \"#utility.yul\":4700:4718   */\n  add\n    /* \"#utility.yul\":4687:4718   */\n  swap5\n  pop\n    /* \"#utility.yul\":4561:4565   */\n  0x20\n    /* \"#utility.yul\":4558:4559   */\n  dup2\n    /* \"#utility.yul\":4554:4566   */\n  add\n    /* \"#utility.yul\":4549:4566   */\n  swap1\n  pop\n    /* \"#utility.yul\":4524:4732   */\n  jump(tag_82)\ntag_84:\n    /* \"#utility.yul\":4760:4766   */\n  dup7\n    /* \"#utility.yul\":4751:4758   */\n  dup4\n    /* \"#utility.yul\":4748:4767   */\n  lt\n    /* \"#utility.yul\":4745:4924   */\n  iszero\n  tag_85\n  jumpi\n    /* \"#utility.yul\":4818:4827   */\n  dup5\n    /* \"#utility.yul\":4813:4816   */\n  dup10\n    /* \"#utility.yul\":4809:4828   */\n  add\n    /* \"#utility.yul\":4803:4829   */\n  mload\n    /* \"#utility.yul\":4861:4909   */\n  tag_86\n    /* \"#utility.yul\":4903:4907   */\n  0x1f\n    /* \"#utility.yul\":4895:4901   */\n  dup10\n    /* \"#utility.yul\":4891:4908   */\n  and\n    /* \"#utility.yul\":4880:4889   */\n  dup3\n    /* \"#utility.yul\":4861:4909   */\n  tag_23\n  jump\t// in\ntag_86:\n    /* \"#utility.yul\":4853:4859   */\n  dup4\n    /* \"#utility.yul\":4846:4910   */\n  sstore\n    /* \"#utility.yul\":4768:4924   */\n  pop\n    /* \"#utility.yul\":4745:4924   */\ntag_85:\n    /* \"#utility.yul\":4970:4971   */\n  0x01\n    /* \"#utility.yul\":4966:4967   */\n  0x02\n    /* \"#utility.yul\":4958:4964   */\n  dup9\n    /* \"#utility.yul\":4954:4968   */\n  mul\n    /* \"#utility.yul\":4950:4972   */\n  add\n    /* \"#utility.yul\":4944:4948   */\n  dup9\n    /* \"#utility.yul\":4937:4973   */\n  sstore\n    /* \"#utility.yul\":4372:4983   */\n  pop\n  pop\n  pop\n    /* \"#utility.yul\":4335:5222   */\ntag_77:\n  pop\n    /* \"#utility.yul\":3925:5228   */\n  pop\n  pop\n  pop\n    /* \"#utility.yul\":3833:5228   */\n  pop\n  pop\n  jump\t// out\n    /* \"Example_Calls/DemoToLowCall.sol\":57:572  contract Demo{... */\ntag_4:\n  dataSize(sub_0)\n  dup1\n  dataOffset(sub_0)\n  0x00\n  codecopy\n  0x00\n  return\nstop\n\nsub_0: assembly {\n        /* \"Example_Calls/DemoToLowCall.sol\":57:572  contract Demo{... */\n      mstore(0x40, 0x80)\n      jumpi(tag_1, lt(calldatasize, 0x04))\n      shr(0xe0, calldataload(0x00))\n      dup1\n      0x06fdde03\n      eq\n      tag_3\n      jumpi\n      dup1\n      0x0c11dedd\n      eq\n      tag_4\n      jumpi\n      dup1\n      0x17d7de7c\n      eq\n      tag_5\n      jumpi\n      dup1\n      0x262a9dff\n      eq\n      tag_6\n      jumpi\n      dup1\n      0xaf22068e\n      eq\n      tag_7\n      jumpi\n      dup1\n      0xe2982c21\n      eq\n      tag_8\n      jumpi\n      jump(tag_2)\n    tag_1:\n    tag_2:\n        /* \"Example_Calls/DemoToLowCall.sol\":556:565  msg.value */\n      callvalue\n        /* \"Example_Calls/DemoToLowCall.sol\":533:541  payments */\n      0x02\n        /* \"Example_Calls/DemoToLowCall.sol\":533:553  payments[msg.sender] */\n      0x00\n        /* \"Example_Calls/DemoToLowCall.sol\":542:552  msg.sender */\n      caller\n        /* \"Example_Calls/DemoToLowCall.sol\":533:553  payments[msg.sender] */\n      0xffffffffffffffffffffffffffffffffffffffff\n      and\n      0xffffffffffffffffffffffffffffffffffffffff\n      and\n      dup2\n      mstore\n      0x20\n      add\n      swap1\n      dup2\n      mstore\n      0x20\n      add\n      0x00\n      keccak256\n        /* \"Example_Calls/DemoToLowCall.sol\":533:565  payments[msg.sender] = msg.value */\n      dup2\n      swap1\n      sstore\n      stop\n        /* \"Example_Calls/DemoToLowCall.sol\":76:103  string public name = \"John\" */\n    tag_3:\n      callvalue\n      dup1\n      iszero\n      tag_11\n      jumpi\n      0x00\n      dup1\n      revert\n    tag_11:\n      pop\n      tag_12\n      tag_13\n      jump\t// in\n    tag_12:\n      mload(0x40)\n      tag_14\n      swap2\n      swap1\n      tag_15\n      jump\t// in\n    tag_14:\n      mload(0x40)\n      dup1\n      swap2\n      sub\n      swap1\n      return\n        /* \"Example_Calls/DemoToLowCall.sol\":402:492  function pay(address _payer) external payable{... */\n    tag_4:\n      tag_16\n      0x04\n      dup1\n      calldatasize\n      sub\n      dup2\n      add\n      swap1\n      tag_17\n      swap2\n      swap1\n      tag_18\n      jump\t// in\n    tag_17:\n      tag_19\n      jump\t// in\n    tag_16:\n      stop\n        /* \"Example_Calls/DemoToLowCall.sol\":313:396  function getName() public view returns (string memory) {... */\n    tag_5:\n      callvalue\n      dup1\n      iszero\n      tag_20\n      jumpi\n      0x00\n      dup1\n      revert\n    tag_20:\n      pop\n      tag_21\n      tag_22\n      jump\t// in\n    tag_21:\n      mload(0x40)\n      tag_23\n      swap2\n      swap1\n      tag_15\n      jump\t// in\n    tag_23:\n      mload(0x40)\n      dup1\n      swap2\n      sub\n      swap1\n      return\n        /* \"Example_Calls/DemoToLowCall.sol\":109:132  uint256 public age = 30 */\n    tag_6:\n      callvalue\n      dup1\n      iszero\n      tag_24\n      jumpi\n      0x00\n      dup1\n      revert\n    tag_24:\n      pop\n      tag_25\n      tag_26\n      jump\t// in\n    tag_25:\n      mload(0x40)\n      tag_27\n      swap2\n      swap1\n      tag_28\n      jump\t// in\n    tag_27:\n      mload(0x40)\n      dup1\n      swap2\n      sub\n      swap1\n      return\n        /* \"Example_Calls/DemoToLowCall.sol\":186:307  function setData(string calldata _newName, uint _newAge) external {... */\n    tag_7:\n      callvalue\n      dup1\n      iszero\n      tag_29\n      jumpi\n      0x00\n      dup1\n      revert\n    tag_29:\n      pop\n      tag_30\n      0x04\n      dup1\n      calldatasize\n      sub\n      dup2\n      add\n      swap1\n      tag_31\n      swap2\n      swap1\n      tag_32\n      jump\t// in\n    tag_31:\n      tag_33\n      jump\t// in\n    tag_30:\n      stop\n        /* \"Example_Calls/DemoToLowCall.sol\":138:179  mapping (address => uint) public payments */\n    tag_8:\n      callvalue\n      dup1\n      iszero\n      tag_34\n      jumpi\n      0x00\n      dup1\n      revert\n    tag_34:\n      pop\n      tag_35\n      0x04\n      dup1\n      calldatasize\n      sub\n      dup2\n      add\n      swap1\n      tag_36\n      swap2\n      swap1\n      tag_18\n      jump\t// in\n    tag_36:\n      tag_37\n      jump\t// in\n    tag_35:\n      mload(0x40)\n      tag_38\n      swap2\n      swap1\n      tag_28\n      jump\t// in\n    tag_38:\n      mload(0x40)\n      dup1\n      swap2\n      sub\n      swap1\n      return\n        /* \"Example_Calls/DemoToLowCall.sol\":76:103  string public name = \"John\" */\n    tag_13:\n      0x00\n      dup1\n      sload\n      tag_39\n      swap1\n      tag_40\n      jump\t// in\n    tag_39:\n      dup1\n      0x1f\n      add\n      0x20\n      dup1\n      swap2\n      div\n      mul\n      0x20\n      add\n      mload(0x40)\n      swap1\n      dup2\n      add\n      0x40\n      mstore\n      dup1\n      swap3\n      swap2\n      swap1\n      dup2\n      dup2\n      mstore\n      0x20\n      add\n      dup3\n      dup1\n      sload\n      tag_41\n      swap1\n      tag_40\n      jump\t// in\n    tag_41:\n      dup1\n      iszero\n      tag_42\n      jumpi\n      dup1\n      0x1f\n      lt\n      tag_43\n      jumpi\n      0x0100\n      dup1\n      dup4\n      sload\n      div\n      mul\n      dup4\n      mstore\n      swap2\n      0x20\n      add\n      swap2\n      jump(tag_42)\n    tag_43:\n      dup3\n      add\n      swap2\n      swap1\n      0x00\n      mstore\n      keccak256(0x00, 0x20)\n      swap1\n    tag_44:\n      dup2\n      sload\n      dup2\n      mstore\n      swap1\n      0x01\n      add\n      swap1\n      0x20\n      add\n      dup1\n      dup4\n      gt\n      tag_44\n      jumpi\n      dup3\n      swap1\n      sub\n      0x1f\n      and\n      dup3\n      add\n      swap2\n    tag_42:\n      pop\n      pop\n      pop\n      pop\n      pop\n      dup2\n      jump\t// out\n        /* \"Example_Calls/DemoToLowCall.sol\":402:492  function pay(address _payer) external payable{... */\n    tag_19:\n        /* \"Example_Calls/DemoToLowCall.sol\":476:485  msg.value */\n      callvalue\n        /* \"Example_Calls/DemoToLowCall.sol\":457:465  payments */\n      0x02\n        /* \"Example_Calls/DemoToLowCall.sol\":457:473  payments[_payer] */\n      0x00\n        /* \"Example_Calls/DemoToLowCall.sol\":466:472  _payer */\n      dup4\n        /* \"Example_Calls/DemoToLowCall.sol\":457:473  payments[_payer] */\n      0xffffffffffffffffffffffffffffffffffffffff\n      and\n      0xffffffffffffffffffffffffffffffffffffffff\n      and\n      dup2\n      mstore\n      0x20\n      add\n      swap1\n      dup2\n      mstore\n      0x20\n      add\n      0x00\n      keccak256\n        /* \"Example_Calls/DemoToLowCall.sol\":457:485  payments[_payer] = msg.value */\n      dup2\n      swap1\n      sstore\n      pop\n        /* \"Example_Calls/DemoToLowCall.sol\":402:492  function pay(address _payer) external payable{... */\n      pop\n      jump\t// out\n        /* \"Example_Calls/DemoToLowCall.sol\":313:396  function getName() public view returns (string memory) {... */\n    tag_22:\n        /* \"Example_Calls/DemoToLowCall.sol\":353:366  string memory */\n      0x60\n        /* \"Example_Calls/DemoToLowCall.sol\":385:389  name */\n      0x00\n        /* \"Example_Calls/DemoToLowCall.sol\":378:389  return name */\n      dup1\n      sload\n      tag_47\n      swap1\n      tag_40\n      jump\t// in\n    tag_47:\n      dup1\n      0x1f\n      add\n      0x20\n      dup1\n      swap2\n      div\n      mul\n      0x20\n      add\n      mload(0x40)\n      swap1\n      dup2\n      add\n      0x40\n      mstore\n      dup1\n      swap3\n      swap2\n      swap1\n      dup2\n      dup2\n      mstore\n      0x20\n      add\n      dup3\n      dup1\n      sload\n      tag_48\n      swap1\n      tag_40\n      jump\t// in\n    tag_48:\n      dup1\n      iszero\n      tag_49\n      jumpi\n      dup1\n      0x1f\n      lt\n      tag_50\n      jumpi\n      0x0100\n      dup1\n      dup4\n      sload\n      div\n      mul\n      dup4\n      mstore\n      swap2\n      0x20\n      add\n      swap2\n      jump(tag_49)\n    tag_50:\n      dup3\n      add\n      swap2\n      swap1\n      0x00\n      mstore\n      keccak256(0x00, 0x20)\n      swap1\n    tag_51:\n      dup2\n      sload\n      dup2\n      mstore\n      swap1\n      0x01\n      add\n      swap1\n      0x20\n      add\n      dup1\n      dup4\n      gt\n      tag_51\n      jumpi\n      dup3\n      swap1\n      sub\n      0x1f\n      and\n      dup3\n      add\n      swap2\n    tag_49:\n      pop\n      pop\n      pop\n      pop\n      pop\n      swap1\n      pop\n        /* \"Example_Calls/DemoToLowCall.sol\":313:396  function getName() public view returns (string memory) {... */\n      swap1\n      jump\t// out\n        /* \"Example_Calls/DemoToLowCall.sol\":109:132  uint256 public age = 30 */\n    tag_26:\n      sload(0x01)\n      dup2\n      jump\t// out\n        /* \"Example_Calls/DemoToLowCall.sol\":186:307  function setData(string calldata _newName, uint _newAge) external {... */\n    tag_33:\n        /* \"Example_Calls/DemoToLowCall.sol\":269:277  _newName */\n      dup3\n      dup3\n        /* \"Example_Calls/DemoToLowCall.sol\":262:266  name */\n      0x00\n        /* \"Example_Calls/DemoToLowCall.sol\":262:277  name = _newName */\n      swap2\n      dup3\n      tag_53\n      swap3\n      swap2\n      swap1\n      tag_54\n      jump\t// in\n    tag_53:\n      pop\n        /* \"Example_Calls/DemoToLowCall.sol\":293:300  _newAge */\n      dup1\n        /* \"Example_Calls/DemoToLowCall.sol\":287:290  age */\n      0x01\n        /* \"Example_Calls/DemoToLowCall.sol\":287:300  age = _newAge */\n      dup2\n      swap1\n      sstore\n      pop\n        /* \"Example_Calls/DemoToLowCall.sol\":186:307  function setData(string calldata _newName, uint _newAge) external {... */\n      pop\n      pop\n      pop\n      jump\t// out\n        /* \"Example_Calls/DemoToLowCall.sol\":138:179  mapping (address => uint) public payments */\n    tag_37:\n      mstore(0x20, 0x02)\n      dup1\n      0x00\n      mstore\n      keccak256(0x00, 0x40)\n      0x00\n      swap2\n      pop\n      swap1\n      pop\n      sload\n      dup2\n      jump\t// out\n        /* \"#utility.yul\":7:106   */\n    tag_55:\n        /* \"#utility.yul\":59:65   */\n      0x00\n        /* \"#utility.yul\":93:98   */\n      dup2\n        /* \"#utility.yul\":87:99   */\n      mload\n        /* \"#utility.yul\":77:99   */\n      swap1\n      pop\n        /* \"#utility.yul\":7:106   */\n      swap2\n      swap1\n      pop\n      jump\t// out\n        /* \"#utility.yul\":112:281   */\n    tag_56:\n        /* \"#utility.yul\":196:207   */\n      0x00\n        /* \"#utility.yul\":230:236   */\n      dup3\n        /* \"#utility.yul\":225:228   */\n      dup3\n        /* \"#utility.yul\":218:237   */\n      mstore\n        /* \"#utility.yul\":270:274   */\n      0x20\n        /* \"#utility.yul\":265:268   */\n      dup3\n        /* \"#utility.yul\":261:275   */\n      add\n        /* \"#utility.yul\":246:275   */\n      swap1\n      pop\n        /* \"#utility.yul\":112:281   */\n      swap3\n      swap2\n      pop\n      pop\n      jump\t// out\n        /* \"#utility.yul\":287:426   */\n    tag_57:\n        /* \"#utility.yul\":376:382   */\n      dup3\n        /* \"#utility.yul\":371:374   */\n      dup2\n        /* \"#utility.yul\":366:369   */\n      dup4\n        /* \"#utility.yul\":360:383   */\n      mcopy\n        /* \"#utility.yul\":417:418   */\n      0x00\n        /* \"#utility.yul\":408:414   */\n      dup4\n        /* \"#utility.yul\":403:406   */\n      dup4\n        /* \"#utility.yul\":399:415   */\n      add\n        /* \"#utility.yul\":392:419   */\n      mstore\n        /* \"#utility.yul\":287:426   */\n      pop\n      pop\n      pop\n      jump\t// out\n        /* \"#utility.yul\":432:534   */\n    tag_58:\n        /* \"#utility.yul\":473:479   */\n      0x00\n        /* \"#utility.yul\":524:526   */\n      0x1f\n        /* \"#utility.yul\":520:527   */\n      not\n        /* \"#utility.yul\":515:517   */\n      0x1f\n        /* \"#utility.yul\":508:513   */\n      dup4\n        /* \"#utility.yul\":504:518   */\n      add\n        /* \"#utility.yul\":500:528   */\n      and\n        /* \"#utility.yul\":490:528   */\n      swap1\n      pop\n        /* \"#utility.yul\":432:534   */\n      swap2\n      swap1\n      pop\n      jump\t// out\n        /* \"#utility.yul\":540:917   */\n    tag_59:\n        /* \"#utility.yul\":628:631   */\n      0x00\n        /* \"#utility.yul\":656:695   */\n      tag_99\n        /* \"#utility.yul\":689:694   */\n      dup3\n        /* \"#utility.yul\":656:695   */\n      tag_55\n      jump\t// in\n    tag_99:\n        /* \"#utility.yul\":711:782   */\n      tag_100\n        /* \"#utility.yul\":775:781   */\n      dup2\n        /* \"#utility.yul\":770:773   */\n      dup6\n        /* \"#utility.yul\":711:782   */\n      tag_56\n      jump\t// in\n    tag_100:\n        /* \"#utility.yul\":704:782   */\n      swap4\n      pop\n        /* \"#utility.yul\":791:856   */\n      tag_101\n        /* \"#utility.yul\":849:855   */\n      dup2\n        /* \"#utility.yul\":844:847   */\n      dup6\n        /* \"#utility.yul\":837:841   */\n      0x20\n        /* \"#utility.yul\":830:835   */\n      dup7\n        /* \"#utility.yul\":826:842   */\n      add\n        /* \"#utility.yul\":791:856   */\n      tag_57\n      jump\t// in\n    tag_101:\n        /* \"#utility.yul\":881:910   */\n      tag_102\n        /* \"#utility.yul\":903:909   */\n      dup2\n        /* \"#utility.yul\":881:910   */\n      tag_58\n      jump\t// in\n    tag_102:\n        /* \"#utility.yul\":876:879   */\n      dup5\n        /* \"#utility.yul\":872:911   */\n      add\n        /* \"#utility.yul\":865:911   */\n      swap2\n      pop\n        /* \"#utility.yul\":632:917   */\n      pop\n        /* \"#utility.yul\":540:917   */\n      swap3\n      swap2\n      pop\n      pop\n      jump\t// out\n        /* \"#utility.yul\":923:1236   */\n    tag_15:\n        /* \"#utility.yul\":1036:1040   */\n      0x00\n        /* \"#utility.yul\":1074:1076   */\n      0x20\n        /* \"#utility.yul\":1063:1072   */\n      dup3\n        /* \"#utility.yul\":1059:1077   */\n      add\n        /* \"#utility.yul\":1051:1077   */\n      swap1\n      pop\n        /* \"#utility.yul\":1123:1132   */\n      dup2\n        /* \"#utility.yul\":1117:1121   */\n      dup2\n        /* \"#utility.yul\":1113:1133   */\n      sub\n        /* \"#utility.yul\":1109:1110   */\n      0x00\n        /* \"#utility.yul\":1098:1107   */\n      dup4\n        /* \"#utility.yul\":1094:1111   */\n      add\n        /* \"#utility.yul\":1087:1134   */\n      mstore\n        /* \"#utility.yul\":1151:1229   */\n      tag_104\n        /* \"#utility.yul\":1224:1228   */\n      dup2\n        /* \"#utility.yul\":1215:1221   */\n      dup5\n        /* \"#utility.yul\":1151:1229   */\n      tag_59\n      jump\t// in\n    tag_104:\n        /* \"#utility.yul\":1143:1229   */\n      swap1\n      pop\n        /* \"#utility.yul\":923:1236   */\n      swap3\n      swap2\n      pop\n      pop\n      jump\t// out\n        /* \"#utility.yul\":1323:1440   */\n    tag_61:\n        /* \"#utility.yul\":1432:1433   */\n      0x00\n        /* \"#utility.yul\":1429:1430   */\n      dup1\n        /* \"#utility.yul\":1422:1434   */\n      revert\n        /* \"#utility.yul\":1446:1563   */\n    tag_62:\n        /* \"#utility.yul\":1555:1556   */\n      0x00\n        /* \"#utility.yul\":1552:1553   */\n      dup1\n        /* \"#utility.yul\":1545:1557   */\n      revert\n        /* \"#utility.yul\":1569:1695   */\n    tag_63:\n        /* \"#utility.yul\":1606:1613   */\n      0x00\n        /* \"#utility.yul\":1646:1688   */\n      0xffffffffffffffffffffffffffffffffffffffff\n        /* \"#utility.yul\":1639:1644   */\n      dup3\n        /* \"#utility.yul\":1635:1689   */\n      and\n        /* \"#utility.yul\":1624:1689   */\n      swap1\n      pop\n        /* \"#utility.yul\":1569:1695   */\n      swap2\n      swap1\n      pop\n      jump\t// out\n        /* \"#utility.yul\":1701:1797   */\n    tag_64:\n        /* \"#utility.yul\":1738:1745   */\n      0x00\n        /* \"#utility.yul\":1767:1791   */\n      tag_110\n        /* \"#utility.yul\":1785:1790   */\n      dup3\n        /* \"#utility.yul\":1767:1791   */\n      tag_63\n      jump\t// in\n    tag_110:\n        /* \"#utility.yul\":1756:1791   */\n      swap1\n      pop\n        /* \"#utility.yul\":1701:1797   */\n      swap2\n      swap1\n      pop\n      jump\t// out\n        /* \"#utility.yul\":1803:1925   */\n    tag_65:\n        /* \"#utility.yul\":1876:1900   */\n      tag_112\n        /* \"#utility.yul\":1894:1899   */\n      dup2\n        /* \"#utility.yul\":1876:1900   */\n      tag_64\n      jump\t// in\n    tag_112:\n        /* \"#utility.yul\":1869:1874   */\n      dup2\n        /* \"#utility.yul\":1866:1901   */\n      eq\n        /* \"#utility.yul\":1856:1919   */\n      tag_113\n      jumpi\n        /* \"#utility.yul\":1915:1916   */\n      0x00\n        /* \"#utility.yul\":1912:1913   */\n      dup1\n        /* \"#utility.yul\":1905:1917   */\n      revert\n        /* \"#utility.yul\":1856:1919   */\n    tag_113:\n        /* \"#utility.yul\":1803:1925   */\n      pop\n      jump\t// out\n        /* \"#utility.yul\":1931:2070   */\n    tag_66:\n        /* \"#utility.yul\":1977:1982   */\n      0x00\n        /* \"#utility.yul\":2015:2021   */\n      dup2\n        /* \"#utility.yul\":2002:2022   */\n      calldataload\n        /* \"#utility.yul\":1993:2022   */\n      swap1\n      pop\n        /* \"#utility.yul\":2031:2064   */\n      tag_115\n        /* \"#utility.yul\":2058:2063   */\n      dup2\n        /* \"#utility.yul\":2031:2064   */\n      tag_65\n      jump\t// in\n    tag_115:\n        /* \"#utility.yul\":1931:2070   */\n      swap3\n      swap2\n      pop\n      pop\n      jump\t// out\n        /* \"#utility.yul\":2076:2405   */\n    tag_18:\n        /* \"#utility.yul\":2135:2141   */\n      0x00\n        /* \"#utility.yul\":2184:2186   */\n      0x20\n        /* \"#utility.yul\":2172:2181   */\n      dup3\n        /* \"#utility.yul\":2163:2170   */\n      dup5\n        /* \"#utility.yul\":2159:2182   */\n      sub\n        /* \"#utility.yul\":2155:2187   */\n      slt\n        /* \"#utility.yul\":2152:2271   */\n      iszero\n      tag_117\n      jumpi\n        /* \"#utility.yul\":2190:2269   */\n      tag_118\n      tag_61\n      jump\t// in\n    tag_118:\n        /* \"#utility.yul\":2152:2271   */\n    tag_117:\n        /* \"#utility.yul\":2310:2311   */\n      0x00\n        /* \"#utility.yul\":2335:2388   */\n      tag_119\n        /* \"#utility.yul\":2380:2387   */\n      dup5\n        /* \"#utility.yul\":2371:2377   */\n      dup3\n        /* \"#utility.yul\":2360:2369   */\n      dup6\n        /* \"#utility.yul\":2356:2378   */\n      add\n        /* \"#utility.yul\":2335:2388   */\n      tag_66\n      jump\t// in\n    tag_119:\n        /* \"#utility.yul\":2325:2388   */\n      swap2\n      pop\n        /* \"#utility.yul\":2281:2398   */\n      pop\n        /* \"#utility.yul\":2076:2405   */\n      swap3\n      swap2\n      pop\n      pop\n      jump\t// out\n        /* \"#utility.yul\":2411:2488   */\n    tag_67:\n        /* \"#utility.yul\":2448:2455   */\n      0x00\n        /* \"#utility.yul\":2477:2482   */\n      dup2\n        /* \"#utility.yul\":2466:2482   */\n      swap1\n      pop\n        /* \"#utility.yul\":2411:2488   */\n      swap2\n      swap1\n      pop\n      jump\t// out\n        /* \"#utility.yul\":2494:2612   */\n    tag_68:\n        /* \"#utility.yul\":2581:2605   */\n      tag_122\n        /* \"#utility.yul\":2599:2604   */\n      dup2\n        /* \"#utility.yul\":2581:2605   */\n      tag_67\n      jump\t// in\n    tag_122:\n        /* \"#utility.yul\":2576:2579   */\n      dup3\n        /* \"#utility.yul\":2569:2606   */\n      mstore\n        /* \"#utility.yul\":2494:2612   */\n      pop\n      pop\n      jump\t// out\n        /* \"#utility.yul\":2618:2840   */\n    tag_28:\n        /* \"#utility.yul\":2711:2715   */\n      0x00\n        /* \"#utility.yul\":2749:2751   */\n      0x20\n        /* \"#utility.yul\":2738:2747   */\n      dup3\n        /* \"#utility.yul\":2734:2752   */\n      add\n        /* \"#utility.yul\":2726:2752   */\n      swap1\n      pop\n        /* \"#utility.yul\":2762:2833   */\n      tag_124\n        /* \"#utility.yul\":2830:2831   */\n      0x00\n        /* \"#utility.yul\":2819:2828   */\n      dup4\n        /* \"#utility.yul\":2815:2832   */\n      add\n        /* \"#utility.yul\":2806:2812   */\n      dup5\n        /* \"#utility.yul\":2762:2833   */\n      tag_68\n      jump\t// in\n    tag_124:\n        /* \"#utility.yul\":2618:2840   */\n      swap3\n      swap2\n      pop\n      pop\n      jump\t// out\n        /* \"#utility.yul\":2846:2963   */\n    tag_69:\n        /* \"#utility.yul\":2955:2956   */\n      0x00\n        /* \"#utility.yul\":2952:2953   */\n      dup1\n        /* \"#utility.yul\":2945:2957   */\n      revert\n        /* \"#utility.yul\":2969:3086   */\n    tag_70:\n        /* \"#utility.yul\":3078:3079   */\n      0x00\n        /* \"#utility.yul\":3075:3076   */\n      dup1\n        /* \"#utility.yul\":3068:3080   */\n      revert\n        /* \"#utility.yul\":3092:3209   */\n    tag_71:\n        /* \"#utility.yul\":3201:3202   */\n      0x00\n        /* \"#utility.yul\":3198:3199   */\n      dup1\n        /* \"#utility.yul\":3191:3203   */\n      revert\n        /* \"#utility.yul\":3229:3782   */\n    tag_72:\n        /* \"#utility.yul\":3287:3295   */\n      0x00\n        /* \"#utility.yul\":3297:3303   */\n      dup1\n        /* \"#utility.yul\":3347:3350   */\n      dup4\n        /* \"#utility.yul\":3340:3344   */\n      0x1f\n        /* \"#utility.yul\":3332:3338   */\n      dup5\n        /* \"#utility.yul\":3328:3345   */\n      add\n        /* \"#utility.yul\":3324:3351   */\n      slt\n        /* \"#utility.yul\":3314:3436   */\n      tag_129\n      jumpi\n        /* \"#utility.yul\":3355:3434   */\n      tag_130\n      tag_69\n      jump\t// in\n    tag_130:\n        /* \"#utility.yul\":3314:3436   */\n    tag_129:\n        /* \"#utility.yul\":3468:3474   */\n      dup3\n        /* \"#utility.yul\":3455:3475   */\n      calldataload\n        /* \"#utility.yul\":3445:3475   */\n      swap1\n      pop\n        /* \"#utility.yul\":3498:3516   */\n      0xffffffffffffffff\n        /* \"#utility.yul\":3490:3496   */\n      dup2\n        /* \"#utility.yul\":3487:3517   */\n      gt\n        /* \"#utility.yul\":3484:3601   */\n      iszero\n      tag_131\n      jumpi\n        /* \"#utility.yul\":3520:3599   */\n      tag_132\n      tag_70\n      jump\t// in\n    tag_132:\n        /* \"#utility.yul\":3484:3601   */\n    tag_131:\n        /* \"#utility.yul\":3634:3638   */\n      0x20\n        /* \"#utility.yul\":3626:3632   */\n      dup4\n        /* \"#utility.yul\":3622:3639   */\n      add\n        /* \"#utility.yul\":3610:3639   */\n      swap2\n      pop\n        /* \"#utility.yul\":3688:3691   */\n      dup4\n        /* \"#utility.yul\":3680:3684   */\n      0x01\n        /* \"#utility.yul\":3672:3678   */\n      dup3\n        /* \"#utility.yul\":3668:3685   */\n      mul\n        /* \"#utility.yul\":3658:3666   */\n      dup4\n        /* \"#utility.yul\":3654:3686   */\n      add\n        /* \"#utility.yul\":3651:3692   */\n      gt\n        /* \"#utility.yul\":3648:3776   */\n      iszero\n      tag_133\n      jumpi\n        /* \"#utility.yul\":3695:3774   */\n      tag_134\n      tag_71\n      jump\t// in\n    tag_134:\n        /* \"#utility.yul\":3648:3776   */\n    tag_133:\n        /* \"#utility.yul\":3229:3782   */\n      swap3\n      pop\n      swap3\n      swap1\n      pop\n      jump\t// out\n        /* \"#utility.yul\":3788:3910   */\n    tag_73:\n        /* \"#utility.yul\":3861:3885   */\n      tag_136\n        /* \"#utility.yul\":3879:3884   */\n      dup2\n        /* \"#utility.yul\":3861:3885   */\n      tag_67\n      jump\t// in\n    tag_136:\n        /* \"#utility.yul\":3854:3859   */\n      dup2\n        /* \"#utility.yul\":3851:3886   */\n      eq\n        /* \"#utility.yul\":3841:3904   */\n      tag_137\n      jumpi\n        /* \"#utility.yul\":3900:3901   */\n      0x00\n        /* \"#utility.yul\":3897:3898   */\n      dup1\n        /* \"#utility.yul\":3890:3902   */\n      revert\n        /* \"#utility.yul\":3841:3904   */\n    tag_137:\n        /* \"#utility.yul\":3788:3910   */\n      pop\n      jump\t// out\n        /* \"#utility.yul\":3916:4055   */\n    tag_74:\n        /* \"#utility.yul\":3962:3967   */\n      0x00\n        /* \"#utility.yul\":4000:4006   */\n      dup2\n        /* \"#utility.yul\":3987:4007   */\n      calldataload\n        /* \"#utility.yul\":3978:4007   */\n      swap1\n      pop\n        /* \"#utility.yul\":4016:4049   */\n      tag_139\n        /* \"#utility.yul\":4043:4048   */\n      dup2\n        /* \"#utility.yul\":4016:4049   */\n      tag_73\n      jump\t// in\n    tag_139:\n        /* \"#utility.yul\":3916:4055   */\n      swap3\n      swap2\n      pop\n      pop\n      jump\t// out\n        /* \"#utility.yul\":4061:4735   */\n    tag_32:\n        /* \"#utility.yul\":4141:4147   */\n      0x00\n        /* \"#utility.yul\":4149:4155   */\n      dup1\n        /* \"#utility.yul\":4157:4163   */\n      0x00\n        /* \"#utility.yul\":4206:4208   */\n      0x40\n        /* \"#utility.yul\":4194:4203   */\n      dup5\n        /* \"#utility.yul\":4185:4192   */\n      dup7\n        /* \"#utility.yul\":4181:4204   */\n      sub\n        /* \"#utility.yul\":4177:4209   */\n      slt\n        /* \"#utility.yul\":4174:4293   */\n      iszero\n      tag_141\n      jumpi\n        /* \"#utility.yul\":4212:4291   */\n      tag_142\n      tag_61\n      jump\t// in\n    tag_142:\n        /* \"#utility.yul\":4174:4293   */\n    tag_141:\n        /* \"#utility.yul\":4360:4361   */\n      0x00\n        /* \"#utility.yul\":4349:4358   */\n      dup5\n        /* \"#utility.yul\":4345:4362   */\n      add\n        /* \"#utility.yul\":4332:4363   */\n      calldataload\n        /* \"#utility.yul\":4390:4408   */\n      0xffffffffffffffff\n        /* \"#utility.yul\":4382:4388   */\n      dup2\n        /* \"#utility.yul\":4379:4409   */\n      gt\n        /* \"#utility.yul\":4376:4493   */\n      iszero\n      tag_143\n      jumpi\n        /* \"#utility.yul\":4412:4491   */\n      tag_144\n      tag_62\n      jump\t// in\n    tag_144:\n        /* \"#utility.yul\":4376:4493   */\n    tag_143:\n        /* \"#utility.yul\":4525:4590   */\n      tag_145\n        /* \"#utility.yul\":4582:4589   */\n      dup7\n        /* \"#utility.yul\":4573:4579   */\n      dup3\n        /* \"#utility.yul\":4562:4571   */\n      dup8\n        /* \"#utility.yul\":4558:4580   */\n      add\n        /* \"#utility.yul\":4525:4590   */\n      tag_72\n      jump\t// in\n    tag_145:\n        /* \"#utility.yul\":4507:4590   */\n      swap4\n      pop\n      swap4\n      pop\n        /* \"#utility.yul\":4303:4600   */\n      pop\n        /* \"#utility.yul\":4639:4641   */\n      0x20\n        /* \"#utility.yul\":4665:4718   */\n      tag_146\n        /* \"#utility.yul\":4710:4717   */\n      dup7\n        /* \"#utility.yul\":4701:4707   */\n      dup3\n        /* \"#utility.yul\":4690:4699   */\n      dup8\n        /* \"#utility.yul\":4686:4708   */\n      add\n        /* \"#utility.yul\":4665:4718   */\n      tag_74\n      jump\t// in\n    tag_146:\n        /* \"#utility.yul\":4655:4718   */\n      swap2\n      pop\n        /* \"#utility.yul\":4610:4728   */\n      pop\n        /* \"#utility.yul\":4061:4735   */\n      swap3\n      pop\n      swap3\n      pop\n      swap3\n      jump\t// out\n        /* \"#utility.yul\":4741:4921   */\n    tag_75:\n        /* \"#utility.yul\":4789:4866   */\n      0x4e487b7100000000000000000000000000000000000000000000000000000000\n        /* \"#utility.yul\":4786:4787   */\n      0x00\n        /* \"#utility.yul\":4779:4867   */\n      mstore\n        /* \"#utility.yul\":4886:4890   */\n      0x22\n        /* \"#utility.yul\":4883:4884   */\n      0x04\n        /* \"#utility.yul\":4876:4891   */\n      mstore\n        /* \"#utility.yul\":4910:4914   */\n      0x24\n        /* \"#utility.yul\":4907:4908   */\n      0x00\n        /* \"#utility.yul\":4900:4915   */\n      revert\n        /* \"#utility.yul\":4927:5247   */\n    tag_40:\n        /* \"#utility.yul\":4971:4977   */\n      0x00\n        /* \"#utility.yul\":5008:5009   */\n      0x02\n        /* \"#utility.yul\":5002:5006   */\n      dup3\n        /* \"#utility.yul\":4998:5010   */\n      div\n        /* \"#utility.yul\":4988:5010   */\n      swap1\n      pop\n        /* \"#utility.yul\":5055:5056   */\n      0x01\n        /* \"#utility.yul\":5049:5053   */\n      dup3\n        /* \"#utility.yul\":5045:5057   */\n      and\n        /* \"#utility.yul\":5076:5094   */\n      dup1\n        /* \"#utility.yul\":5066:5147   */\n      tag_149\n      jumpi\n        /* \"#utility.yul\":5132:5136   */\n      0x7f\n        /* \"#utility.yul\":5124:5130   */\n      dup3\n        /* \"#utility.yul\":5120:5137   */\n      and\n        /* \"#utility.yul\":5110:5137   */\n      swap2\n      pop\n        /* \"#utility.yul\":5066:5147   */\n    tag_149:\n        /* \"#utility.yul\":5194:5196   */\n      0x20\n        /* \"#utility.yul\":5186:5192   */\n      dup3\n        /* \"#utility.yul\":5183:5197   */\n      lt\n        /* \"#utility.yul\":5163:5181   */\n      dup2\n        /* \"#utility.yul\":5160:5198   */\n      sub\n        /* \"#utility.yul\":5157:5241   */\n      tag_150\n      jumpi\n        /* \"#utility.yul\":5213:5231   */\n      tag_151\n      tag_75\n      jump\t// in\n    tag_151:\n        /* \"#utility.yul\":5157:5241   */\n    tag_150:\n        /* \"#utility.yul\":4978:5247   */\n      pop\n        /* \"#utility.yul\":4927:5247   */\n      swap2\n      swap1\n      pop\n      jump\t// out\n        /* \"#utility.yul\":5253:5350   */\n    tag_76:\n        /* \"#utility.yul\":5312:5318   */\n      0x00\n        /* \"#utility.yul\":5340:5343   */\n      dup3\n        /* \"#utility.yul\":5330:5343   */\n      swap1\n      pop\n        /* \"#utility.yul\":5253:5350   */\n      swap3\n      swap2\n      pop\n      pop\n      jump\t// out\n        /* \"#utility.yul\":5356:5536   */\n    tag_77:\n        /* \"#utility.yul\":5404:5481   */\n      0x4e487b7100000000000000000000000000000000000000000000000000000000\n        /* \"#utility.yul\":5401:5402   */\n      0x00\n        /* \"#utility.yul\":5394:5482   */\n      mstore\n        /* \"#utility.yul\":5501:5505   */\n      0x41\n        /* \"#utility.yul\":5498:5499   */\n      0x04\n        /* \"#utility.yul\":5491:5506   */\n      mstore\n        /* \"#utility.yul\":5525:5529   */\n      0x24\n        /* \"#utility.yul\":5522:5523   */\n      0x00\n        /* \"#utility.yul\":5515:5530   */\n      revert\n        /* \"#utility.yul\":5542:5683   */\n    tag_78:\n        /* \"#utility.yul\":5591:5595   */\n      0x00\n        /* \"#utility.yul\":5614:5617   */\n      dup2\n        /* \"#utility.yul\":5606:5617   */\n      swap1\n      pop\n        /* \"#utility.yul\":5637:5640   */\n      dup2\n        /* \"#utility.yul\":5634:5635   */\n      0x00\n        /* \"#utility.yul\":5627:5641   */\n      mstore\n        /* \"#utility.yul\":5671:5675   */\n      0x20\n        /* \"#utility.yul\":5668:5669   */\n      0x00\n        /* \"#utility.yul\":5658:5676   */\n      keccak256\n        /* \"#utility.yul\":5650:5676   */\n      swap1\n      pop\n        /* \"#utility.yul\":5542:5683   */\n      swap2\n      swap1\n      pop\n      jump\t// out\n        /* \"#utility.yul\":5689:5782   */\n    tag_79:\n        /* \"#utility.yul\":5726:5732   */\n      0x00\n        /* \"#utility.yul\":5773:5775   */\n      0x20\n        /* \"#utility.yul\":5768:5770   */\n      0x1f\n        /* \"#utility.yul\":5761:5766   */\n      dup4\n        /* \"#utility.yul\":5757:5771   */\n      add\n        /* \"#utility.yul\":5753:5776   */\n      div\n        /* \"#utility.yul\":5743:5776   */\n      swap1\n      pop\n        /* \"#utility.yul\":5689:5782   */\n      swap2\n      swap1\n      pop\n      jump\t// out\n        /* \"#utility.yul\":5788:5895   */\n    tag_80:\n        /* \"#utility.yul\":5832:5840   */\n      0x00\n        /* \"#utility.yul\":5882:5887   */\n      dup3\n        /* \"#utility.yul\":5876:5880   */\n      dup3\n        /* \"#utility.yul\":5872:5888   */\n      shl\n        /* \"#utility.yul\":5851:5888   */\n      swap1\n      pop\n        /* \"#utility.yul\":5788:5895   */\n      swap3\n      swap2\n      pop\n      pop\n      jump\t// out\n        /* \"#utility.yul\":5901:6294   */\n    tag_81:\n        /* \"#utility.yul\":5970:5976   */\n      0x00\n        /* \"#utility.yul\":6020:6021   */\n      0x08\n        /* \"#utility.yul\":6008:6018   */\n      dup4\n        /* \"#utility.yul\":6004:6022   */\n      mul\n        /* \"#utility.yul\":6043:6140   */\n      tag_158\n        /* \"#utility.yul\":6073:6139   */\n      0xffffffffffffffffffffffffffffffffffffffffffffffffffffffffffffffff\n        /* \"#utility.yul\":6062:6071   */\n      dup3\n        /* \"#utility.yul\":6043:6140   */\n      tag_80\n      jump\t// in\n    tag_158:\n        /* \"#utility.yul\":6161:6200   */\n      tag_159\n        /* \"#utility.yul\":6191:6199   */\n      dup7\n        /* \"#utility.yul\":6180:6189   */\n      dup4\n        /* \"#utility.yul\":6161:6200   */\n      tag_80\n      jump\t// in\n    tag_159:\n        /* \"#utility.yul\":6149:6200   */\n      swap6\n      pop\n        /* \"#utility.yul\":6233:6237   */\n      dup1\n        /* \"#utility.yul\":6229:6238   */\n      not\n        /* \"#utility.yul\":6222:6227   */\n      dup5\n        /* \"#utility.yul\":6218:6239   */\n      and\n        /* \"#utility.yul\":6209:6239   */\n      swap4\n      pop\n        /* \"#utility.yul\":6282:6286   */\n      dup1\n        /* \"#utility.yul\":6272:6280   */\n      dup7\n        /* \"#utility.yul\":6268:6287   */\n      and\n        /* \"#utility.yul\":6261:6266   */\n      dup5\n        /* \"#utility.yul\":6258:6288   */\n      or\n        /* \"#utility.yul\":6248:6288   */\n      swap3\n      pop\n        /* \"#utility.yul\":5977:6294   */\n      pop\n      pop\n        /* \"#utility.yul\":5901:6294   */\n      swap4\n      swap3\n      pop\n      pop\n      pop\n      jump\t// out\n        /* \"#utility.yul\":6300:6360   */\n    tag_82:\n        /* \"#utility.yul\":6328:6331   */\n      0x00\n        /* \"#utility.yul\":6349:6354   */\n      dup2\n        /* \"#utility.yul\":6342:6354   */\n      swap1\n      pop\n        /* \"#utility.yul\":6300:6360   */\n      swap2\n      swap1\n      pop\n      jump\t// out\n        /* \"#utility.yul\":6366:6508   */\n    tag_83:\n        /* \"#utility.yul\":6416:6425   */\n      0x00\n        /* \"#utility.yul\":6449:6502   */\n      tag_162\n        /* \"#utility.yul\":6467:6501   */\n      tag_163\n        /* \"#utility.yul\":6476:6500   */\n      tag_164\n        /* \"#utility.yul\":6494:6499   */\n      dup5\n        /* \"#utility.yul\":6476:6500   */\n      tag_67\n      jump\t// in\n    tag_164:\n        /* \"#utility.yul\":6467:6501   */\n      tag_82\n      jump\t// in\n    tag_163:\n        /* \"#utility.yul\":6449:6502   */\n      tag_67\n      jump\t// in\n    tag_162:\n        /* \"#utility.yul\":6436:6502   */\n      swap1\n      pop\n        /* \"#utility.yul\":6366:6508   */\n      swap2\n      swap1\n      pop\n      jump\t// out\n        /* \"#utility.yul\":6514:6589   */\n    tag_84:\n        /* \"#utility.yul\":6557:6560   */\n      0x00\n        /* \"#utility.yul\":6578:6583   */\n      dup2\n        /* \"#utility.yul\":6571:6583   */\n      swap1\n      pop\n        /* \"#utility.yul\":6514:6589   */\n      swap2\n      swap1\n      pop\n      jump\t// out\n        /* \"#utility.yul\":6595:6864   */\n    tag_85:\n        /* \"#utility.yul\":6705:6744   */\n      tag_167\n        /* \"#utility.yul\":6736:6743   */\n      dup4\n        /* \"#utility.yul\":6705:6744   */\n      tag_83\n      jump\t// in\n    tag_167:\n        /* \"#utility.yul\":6766:6857   */\n      tag_168\n        /* \"#utility.yul\":6815:6856   */\n      tag_169\n        /* \"#utility.yul\":6839:6855   */\n      dup3\n        /* \"#utility.yul\":6815:6856   */\n      tag_84\n      jump\t// in\n    tag_169:\n        /* \"#utility.yul\":6807:6813   */\n      dup5\n        /* \"#utility.yul\":6800:6804   */\n      dup5\n        /* \"#utility.yul\":6794:6805   */\n      sload\n        /* \"#utility.yul\":6766:6857   */\n      tag_81\n      jump\t// in\n    tag_168:\n        /* \"#utility.yul\":6760:6764   */\n      dup3\n        /* \"#utility.yul\":6753:6858   */\n      sstore\n        /* \"#utility.yul\":6671:6864   */\n      pop\n        /* \"#utility.yul\":6595:6864   */\n      pop\n      pop\n      pop\n      jump\t// out\n        /* \"#utility.yul\":6870:6943   */\n    tag_86:\n        /* \"#utility.yul\":6915:6918   */\n      0x00\n        /* \"#utility.yul\":6870:6943   */\n      swap1\n      jump\t// out\n        /* \"#utility.yul\":6949:7138   */\n    tag_87:\n        /* \"#utility.yul\":7026:7058   */\n      tag_172\n      tag_86\n      jump\t// in\n    tag_172:\n        /* \"#utility.yul\":7067:7132   */\n      tag_173\n        /* \"#utility.yul\":7125:7131   */\n      dup2\n        /* \"#utility.yul\":7117:7123   */\n      dup5\n        /* \"#utility.yul\":7111:7115   */\n      dup5\n        /* \"#utility.yul\":7067:7132   */\n      tag_85\n      jump\t// in\n    tag_173:\n        /* \"#utility.yul\":7002:7138   */\n      pop\n        /* \"#utility.yul\":6949:7138   */\n      pop\n      pop\n      jump\t// out\n        /* \"#utility.yul\":7144:7330   */\n    tag_88:\n        /* \"#utility.yul\":7204:7324   */\n    tag_175:\n        /* \"#utility.yul\":7221:7224   */\n      dup2\n        /* \"#utility.yul\":7214:7219   */\n      dup2\n        /* \"#utility.yul\":7211:7225   */\n      lt\n        /* \"#utility.yul\":7204:7324   */\n      iszero\n      tag_177\n      jumpi\n        /* \"#utility.yul\":7275:7314   */\n      tag_178\n        /* \"#utility.yul\":7312:7313   */\n      0x00\n        /* \"#utility.yul\":7305:7310   */\n      dup3\n        /* \"#utility.yul\":7275:7314   */\n      tag_87\n      jump\t// in\n    tag_178:\n        /* \"#utility.yul\":7248:7249   */\n      0x01\n        /* \"#utility.yul\":7241:7246   */\n      dup2\n        /* \"#utility.yul\":7237:7250   */\n      add\n        /* \"#utility.yul\":7228:7250   */\n      swap1\n      pop\n        /* \"#utility.yul\":7204:7324   */\n      jump(tag_175)\n    tag_177:\n        /* \"#utility.yul\":7144:7330   */\n      pop\n      pop\n      jump\t// out\n        /* \"#utility.yul\":7336:7879   */\n    tag_89:\n        /* \"#utility.yul\":7437:7439   */\n      0x1f\n        /* \"#utility.yul\":7432:7435   */\n      dup3\n        /* \"#utility.yul\":7429:7440   */\n      gt\n        /* \"#utility.yul\":7426:7872   */\n      iszero\n      tag_180\n      jumpi\n        /* \"#utility.yul\":7471:7509   */\n      tag_181\n        /* \"#utility.yul\":7503:7508   */\n      dup2\n        /* \"#utility.yul\":7471:7509   */\n      tag_78\n      jump\t// in\n    tag_181:\n        /* \"#utility.yul\":7555:7584   */\n      tag_182\n        /* \"#utility.yul\":7573:7583   */\n      dup5\n        /* \"#utility.yul\":7555:7584   */\n      tag_79\n      jump\t// in\n    tag_182:\n        /* \"#utility.yul\":7545:7553   */\n      dup2\n        /* \"#utility.yul\":7541:7585   */\n      add\n        /* \"#utility.yul\":7738:7740   */\n      0x20\n        /* \"#utility.yul\":7726:7736   */\n      dup6\n        /* \"#utility.yul\":7723:7741   */\n      lt\n        /* \"#utility.yul\":7720:7769   */\n      iszero\n      tag_183\n      jumpi\n        /* \"#utility.yul\":7759:7767   */\n      dup2\n        /* \"#utility.yul\":7744:7767   */\n      swap1\n      pop\n        /* \"#utility.yul\":7720:7769   */\n    tag_183:\n        /* \"#utility.yul\":7782:7862   */\n      tag_184\n        /* \"#utility.yul\":7838:7860   */\n      tag_185\n        /* \"#utility.yul\":7856:7859   */\n      dup6\n        /* \"#utility.yul\":7838:7860   */\n      tag_79\n      jump\t// in\n    tag_185:\n        /* \"#utility.yul\":7828:7836   */\n      dup4\n        /* \"#utility.yul\":7824:7861   */\n      add\n        /* \"#utility.yul\":7811:7822   */\n      dup3\n        /* \"#utility.yul\":7782:7862   */\n      tag_88\n      jump\t// in\n    tag_184:\n        /* \"#utility.yul\":7441:7872   */\n      pop\n      pop\n        /* \"#utility.yul\":7426:7872   */\n    tag_180:\n        /* \"#utility.yul\":7336:7879   */\n      pop\n      pop\n      pop\n      jump\t// out\n        /* \"#utility.yul\":7885:8002   */\n    tag_90:\n        /* \"#utility.yul\":7939:7947   */\n      0x00\n        /* \"#utility.yul\":7989:7994   */\n      dup3\n        /* \"#utility.yul\":7983:7987   */\n      dup3\n        /* \"#utility.yul\":7979:7995   */\n      shr\n        /* \"#utility.yul\":7958:7995   */\n      swap1\n      pop\n        /* \"#utility.yul\":7885:8002   */\n      swap3\n      swap2\n      pop\n      pop\n      jump\t// out\n        /* \"#utility.yul\":8008:8177   */\n    tag_91:\n        /* \"#utility.yul\":8052:8058   */\n      0x00\n        /* \"#utility.yul\":8085:8136   */\n      tag_188\n        /* \"#utility.yul\":8133:8134   */\n      0x00\n        /* \"#utility.yul\":8129:8135   */\n      not\n        /* \"#utility.yul\":8121:8126   */\n      dup5\n        /* \"#utility.yul\":8118:8119   */\n      0x08\n        /* \"#utility.yul\":8114:8127   */\n      mul\n        /* \"#utility.yul\":8085:8136   */\n      tag_90\n      jump\t// in\n    tag_188:\n        /* \"#utility.yul\":8081:8137   */\n      not\n        /* \"#utility.yul\":8166:8170   */\n      dup1\n        /* \"#utility.yul\":8160:8164   */\n      dup4\n        /* \"#utility.yul\":8156:8171   */\n      and\n        /* \"#utility.yul\":8146:8171   */\n      swap2\n      pop\n        /* \"#utility.yul\":8059:8177   */\n      pop\n        /* \"#utility.yul\":8008:8177   */\n      swap3\n      swap2\n      pop\n      pop\n      jump\t// out\n        /* \"#utility.yul\":8182:8477   */\n    tag_92:\n        /* \"#utility.yul\":8258:8262   */\n      0x00\n        /* \"#utility.yul\":8404:8433   */\n      tag_190\n        /* \"#utility.yul\":8429:8432   */\n      dup4\n        /* \"#utility.yul\":8423:8427   */\n      dup4\n        /* \"#utility.yul\":8404:8433   */\n      tag_91\n      jump\t// in\n    tag_190:\n        /* \"#utility.yul\":8396:8433   */\n      swap2\n      pop\n        /* \"#utility.yul\":8466:8469   */\n      dup3\n        /* \"#utility.yul\":8463:8464   */\n      0x02\n        /* \"#utility.yul\":8459:8470   */\n      mul\n        /* \"#utility.yul\":8453:8457   */\n      dup3\n        /* \"#utility.yul\":8450:8471   */\n      or\n        /* \"#utility.yul\":8442:8471   */\n      swap1\n      pop\n        /* \"#utility.yul\":8182:8477   */\n      swap3\n      swap2\n      pop\n      pop\n      jump\t// out\n        /* \"#utility.yul\":8482:9885   */\n    tag_54:\n        /* \"#utility.yul\":8606:8650   */\n      tag_192\n        /* \"#utility.yul\":8646:8649   */\n      dup4\n        /* \"#utility.yul\":8641:8644   */\n      dup4\n        /* \"#utility.yul\":8606:8650   */\n      tag_76\n      jump\t// in\n    tag_192:\n        /* \"#utility.yul\":8715:8733   */\n      0xffffffffffffffff\n        /* \"#utility.yul\":8707:8713   */\n      dup2\n        /* \"#utility.yul\":8704:8734   */\n      gt\n        /* \"#utility.yul\":8701:8757   */\n      iszero\n      tag_193\n      jumpi\n        /* \"#utility.yul\":8737:8755   */\n      tag_194\n      tag_77\n      jump\t// in\n    tag_194:\n        /* \"#utility.yul\":8701:8757   */\n    tag_193:\n        /* \"#utility.yul\":8781:8819   */\n      tag_195\n        /* \"#utility.yul\":8813:8817   */\n      dup3\n        /* \"#utility.yul\":8807:8818   */\n      sload\n        /* \"#utility.yul\":8781:8819   */\n      tag_40\n      jump\t// in\n    tag_195:\n        /* \"#utility.yul\":8866:8933   */\n      tag_196\n        /* \"#utility.yul\":8926:8932   */\n      dup3\n        /* \"#utility.yul\":8918:8924   */\n      dup3\n        /* \"#utility.yul\":8912:8916   */\n      dup6\n        /* \"#utility.yul\":8866:8933   */\n      tag_89\n      jump\t// in\n    tag_196:\n        /* \"#utility.yul\":8960:8961   */\n      0x00\n        /* \"#utility.yul\":8989:8991   */\n      0x1f\n        /* \"#utility.yul\":8981:8987   */\n      dup4\n        /* \"#utility.yul\":8978:8992   */\n      gt\n        /* \"#utility.yul\":9006:9007   */\n      0x01\n        /* \"#utility.yul\":9001:9633   */\n      dup2\n      eq\n      tag_198\n      jumpi\n        /* \"#utility.yul\":9677:9678   */\n      0x00\n        /* \"#utility.yul\":9694:9700   */\n      dup5\n        /* \"#utility.yul\":9691:9775   */\n      iszero\n      tag_199\n      jumpi\n        /* \"#utility.yul\":9750:9759   */\n      dup3\n        /* \"#utility.yul\":9745:9748   */\n      dup8\n        /* \"#utility.yul\":9741:9760   */\n      add\n        /* \"#utility.yul\":9728:9761   */\n      calldataload\n        /* \"#utility.yul\":9719:9761   */\n      swap1\n      pop\n        /* \"#utility.yul\":9691:9775   */\n    tag_199:\n        /* \"#utility.yul\":9801:9868   */\n      tag_200\n        /* \"#utility.yul\":9861:9867   */\n      dup6\n        /* \"#utility.yul\":9854:9859   */\n      dup3\n        /* \"#utility.yul\":9801:9868   */\n      tag_92\n      jump\t// in\n    tag_200:\n        /* \"#utility.yul\":9795:9799   */\n      dup7\n        /* \"#utility.yul\":9788:9869   */\n      sstore\n        /* \"#utility.yul\":9650:9879   */\n      pop\n        /* \"#utility.yul\":8971:9879   */\n      jump(tag_197)\n        /* \"#utility.yul\":9001:9633   */\n    tag_198:\n        /* \"#utility.yul\":9053:9057   */\n      0x1f\n        /* \"#utility.yul\":9049:9058   */\n      not\n        /* \"#utility.yul\":9041:9047   */\n      dup5\n        /* \"#utility.yul\":9037:9059   */\n      and\n        /* \"#utility.yul\":9087:9124   */\n      tag_201\n        /* \"#utility.yul\":9119:9123   */\n      dup7\n        /* \"#utility.yul\":9087:9124   */\n      tag_78\n      jump\t// in\n    tag_201:\n        /* \"#utility.yul\":9146:9147   */\n      0x00\n        /* \"#utility.yul\":9160:9375   */\n    tag_202:\n        /* \"#utility.yul\":9174:9181   */\n      dup3\n        /* \"#utility.yul\":9171:9172   */\n      dup2\n        /* \"#utility.yul\":9168:9182   */\n      lt\n        /* \"#utility.yul\":9160:9375   */\n      iszero\n      tag_204\n      jumpi\n        /* \"#utility.yul\":9260:9269   */\n      dup5\n        /* \"#utility.yul\":9255:9258   */\n      dup10\n        /* \"#utility.yul\":9251:9270   */\n      add\n        /* \"#utility.yul\":9238:9271   */\n      calldataload\n        /* \"#utility.yul\":9230:9236   */\n      dup3\n        /* \"#utility.yul\":9223:9272   */\n      sstore\n        /* \"#utility.yul\":9311:9312   */\n      0x01\n        /* \"#utility.yul\":9303:9309   */\n      dup3\n        /* \"#utility.yul\":9299:9313   */\n      add\n        /* \"#utility.yul\":9289:9313   */\n      swap2\n      pop\n        /* \"#utility.yul\":9358:9360   */\n      0x20\n        /* \"#utility.yul\":9347:9356   */\n      dup6\n        /* \"#utility.yul\":9343:9361   */\n      add\n        /* \"#utility.yul\":9330:9361   */\n      swap5\n      pop\n        /* \"#utility.yul\":9197:9201   */\n      0x20\n        /* \"#utility.yul\":9194:9195   */\n      dup2\n        /* \"#utility.yul\":9190:9202   */\n      add\n        /* \"#utility.yul\":9185:9202   */\n      swap1\n      pop\n        /* \"#utility.yul\":9160:9375   */\n      jump(tag_202)\n    tag_204:\n        /* \"#utility.yul\":9403:9409   */\n      dup7\n        /* \"#utility.yul\":9394:9401   */\n      dup4\n        /* \"#utility.yul\":9391:9410   */\n      lt\n        /* \"#utility.yul\":9388:9574   */\n      iszero\n      tag_205\n      jumpi\n        /* \"#utility.yul\":9468:9477   */\n      dup5\n        /* \"#utility.yul\":9463:9466   */\n      dup10\n        /* \"#utility.yul\":9459:9478   */\n      add\n        /* \"#utility.yul\":9446:9479   */\n      calldataload\n        /* \"#utility.yul\":9511:9559   */\n      tag_206\n        /* \"#utility.yul\":9553:9557   */\n      0x1f\n        /* \"#utility.yul\":9545:9551   */\n      dup10\n        /* \"#utility.yul\":9541:9558   */\n      and\n        /* \"#utility.yul\":9530:9539   */\n      dup3\n        /* \"#utility.yul\":9511:9559   */\n      tag_91\n      jump\t// in\n    tag_206:\n        /* \"#utility.yul\":9503:9509   */\n      dup4\n        /* \"#utility.yul\":9496:9560   */\n      sstore\n        /* \"#utility.yul\":9411:9574   */\n      pop\n        /* \"#utility.yul\":9388:9574   */\n    tag_205:\n        /* \"#utility.yul\":9620:9621   */\n      0x01\n        /* \"#utility.yul\":9616:9617   */\n      0x02\n        /* \"#utility.yul\":9608:9614   */\n      dup9\n        /* \"#utility.yul\":9604:9618   */\n      mul\n        /* \"#utility.yul\":9600:9622   */\n      add\n        /* \"#utility.yul\":9594:9598   */\n      dup9\n        /* \"#utility.yul\":9587:9623   */\n      sstore\n        /* \"#utility.yul\":9008:9633   */\n      pop\n      pop\n      pop\n        /* \"#utility.yul\":8971:9879   */\n    tag_197:\n      pop\n        /* \"#utility.yul\":8581:9885   */\n      pop\n      pop\n      pop\n        /* \"#utility.yul\":8482:9885   */\n      pop\n      pop\n      pop\n      jump\t// out\n\n    auxdata: 0xa2646970667358221220c5e0965a1f4f9709273dc854a0a363aab5d39be7a98c1060d098f3d355f5fd3f64736f6c634300081a0033\n}\n",
				"bytecode": {
					"linkReferences": {},
					"object": "60806040526040518060400160405280600481526020017f4a6f686e000000000000000000000000000000000000000000000000000000008152505f90816100479190610298565b50601e600155348015610058575f80fd5b50610367565b5f81519050919050565b7f4e487b71000000000000000000000000000000000000000000000000000000005f52604160045260245ffd5b7f4e487b71000000000000000000000000000000000000000000000000000000005f52602260045260245ffd5b5f60028204905060018216806100d957607f821691505b6020821081036100ec576100eb610095565b5b50919050565b5f819050815f5260205f209050919050565b5f6020601f8301049050919050565b5f82821b905092915050565b5f6008830261014e7fffffffffffffffffffffffffffffffffffffffffffffffffffffffffffffffff82610113565b6101588683610113565b95508019841693508086168417925050509392505050565b5f819050919050565b5f819050919050565b5f61019c61019761019284610170565b610179565b610170565b9050919050565b5f819050919050565b6101b583610182565b6101c96101c1826101a3565b84845461011f565b825550505050565b5f90565b6101dd6101d1565b6101e88184846101ac565b505050565b5b8181101561020b576102005f826101d5565b6001810190506101ee565b5050565b601f82111561025057610221816100f2565b61022a84610104565b81016020851015610239578190505b61024d61024585610104565b8301826101ed565b50505b505050565b5f82821c905092915050565b5f6102705f1984600802610255565b1980831691505092915050565b5f6102888383610261565b9150826002028217905092915050565b6102a18261005e565b67ffffffffffffffff8111156102ba576102b9610068565b5b6102c482546100c2565b6102cf82828561020f565b5f60209050601f831160018114610300575f84156102ee578287015190505b6102f8858261027d565b86555061035f565b601f19841661030e866100f2565b5f5b8281101561033557848901518255600182019150602085019450602081019050610310565b86831015610352578489015161034e601f891682610261565b8355505b6001600288020188555050505b505050505050565b61089b806103745f395ff3fe608060405260043610610058575f3560e01c806306fdde031461009c5780630c11dedd146100c657806317d7de7c146100e2578063262a9dff1461010c578063af22068e14610136578063e2982c211461015e57610059565b5b3460025f3373ffffffffffffffffffffffffffffffffffffffff1673ffffffffffffffffffffffffffffffffffffffff1681526020019081526020015f20819055005b3480156100a7575f80fd5b506100b061019a565b6040516100bd91906103a1565b60405180910390f35b6100e060048036038101906100db9190610423565b610225565b005b3480156100ed575f80fd5b506100f661026a565b60405161010391906103a1565b60405180910390f35b348015610117575f80fd5b506101206102f9565b60405161012d9190610466565b60405180910390f35b348015610141575f80fd5b5061015c6004803603810190610157919061050a565b6102ff565b005b348015610169575f80fd5b50610184600480360381019061017f9190610423565b61031c565b6040516101919190610466565b60405180910390f35b5f80546101a690610594565b80601f01602080910402602001604051908101604052809291908181526020018280546101d290610594565b801561021d5780601f106101f45761010080835404028352916020019161021d565b820191905f5260205f20905b81548152906001019060200180831161020057829003601f168201915b505050505081565b3460025f8373ffffffffffffffffffffffffffffffffffffffff1673ffffffffffffffffffffffffffffffffffffffff1681526020019081526020015f208190555050565b60605f805461027890610594565b80601f01602080910402602001604051908101604052809291908181526020018280546102a490610594565b80156102ef5780601f106102c6576101008083540402835291602001916102ef565b820191905f5260205f20905b8154815290600101906020018083116102d257829003601f168201915b5050505050905090565b60015481565b82825f918261030f929190610798565b5080600181905550505050565b6002602052805f5260405f205f915090505481565b5f81519050919050565b5f82825260208201905092915050565b8281835e5f83830152505050565b5f601f19601f8301169050919050565b5f61037382610331565b61037d818561033b565b935061038d81856020860161034b565b61039681610359565b840191505092915050565b5f6020820190508181035f8301526103b98184610369565b905092915050565b5f80fd5b5f80fd5b5f73ffffffffffffffffffffffffffffffffffffffff82169050919050565b5f6103f2826103c9565b9050919050565b610402816103e8565b811461040c575f80fd5b50565b5f8135905061041d816103f9565b92915050565b5f60208284031215610438576104376103c1565b5b5f6104458482850161040f565b91505092915050565b5f819050919050565b6104608161044e565b82525050565b5f6020820190506104795f830184610457565b92915050565b5f80fd5b5f80fd5b5f80fd5b5f8083601f8401126104a05761049f61047f565b5b8235905067ffffffffffffffff8111156104bd576104bc610483565b5b6020830191508360018202830111156104d9576104d8610487565b5b9250929050565b6104e98161044e565b81146104f3575f80fd5b50565b5f81359050610504816104e0565b92915050565b5f805f60408486031215610521576105206103c1565b5b5f84013567ffffffffffffffff81111561053e5761053d6103c5565b5b61054a8682870161048b565b9350935050602061055d868287016104f6565b9150509250925092565b7f4e487b71000000000000000000000000000000000000000000000000000000005f52602260045260245ffd5b5f60028204905060018216806105ab57607f821691505b6020821081036105be576105bd610567565b5b50919050565b5f82905092915050565b7f4e487b71000000000000000000000000000000000000000000000000000000005f52604160045260245ffd5b5f819050815f5260205f209050919050565b5f6020601f8301049050919050565b5f82821b905092915050565b5f600883026106577fffffffffffffffffffffffffffffffffffffffffffffffffffffffffffffffff8261061c565b610661868361061c565b95508019841693508086168417925050509392505050565b5f819050919050565b5f61069c6106976106928461044e565b610679565b61044e565b9050919050565b5f819050919050565b6106b583610682565b6106c96106c1826106a3565b848454610628565b825550505050565b5f90565b6106dd6106d1565b6106e88184846106ac565b505050565b5b8181101561070b576107005f826106d5565b6001810190506106ee565b5050565b601f82111561075057610721816105fb565b61072a8461060d565b81016020851015610739578190505b61074d6107458561060d565b8301826106ed565b50505b505050565b5f82821c905092915050565b5f6107705f1984600802610755565b1980831691505092915050565b5f6107888383610761565b9150826002028217905092915050565b6107a283836105c4565b67ffffffffffffffff8111156107bb576107ba6105ce565b5b6107c58254610594565b6107d082828561070f565b5f601f8311600181146107fd575f84156107eb578287013590505b6107f5858261077d565b86555061085c565b601f19841661080b866105fb565b5f5b828110156108325784890135825560018201915060208501945060208101905061080d565b8683101561084f578489013561084b601f891682610761565b8355505b6001600288020188555050505b5050505050505056fea2646970667358221220c5e0965a1f4f9709273dc854a0a363aab5d39be7a98c1060d098f3d355f5fd3f64736f6c634300081a0033",
					"opcodes": "PUSH1 0x80 PUSH1 0x40 MSTORE PUSH1 0x40 MLOAD DUP1 PUSH1 0x40 ADD PUSH1 0x40 MSTORE DUP1 PUSH1 0x4 DUP2 MSTORE PUSH1 0x20 ADD PUSH32 0x4A6F686E00000000000000000000000000000000000000000000000000000000 DUP2 MSTORE POP PUSH0 SWAP1 DUP2 PUSH2 0x47 SWAP2 SWAP1 PUSH2 0x298 JUMP JUMPDEST POP PUSH1 0x1E PUSH1 0x1 SSTORE CALLVALUE DUP1 ISZERO PUSH2 0x58 JUMPI PUSH0 DUP1 REVERT JUMPDEST POP PUSH2 0x367 JUMP JUMPDEST PUSH0 DUP2 MLOAD SWAP1 POP SWAP2 SWAP1 POP JUMP JUMPDEST PUSH32 0x4E487B7100000000000000000000000000000000000000000000000000000000 PUSH0 MSTORE PUSH1 0x41 PUSH1 0x4 MSTORE PUSH1 0x24 PUSH0 REVERT JUMPDEST PUSH32 0x4E487B7100000000000000000000000000000000000000000000000000000000 PUSH0 MSTORE PUSH1 0x22 PUSH1 0x4 MSTORE PUSH1 0x24 PUSH0 REVERT JUMPDEST PUSH0 PUSH1 0x2 DUP3 DIV SWAP1 POP PUSH1 0x1 DUP3 AND DUP1 PUSH2 0xD9 JUMPI PUSH1 0x7F DUP3 AND SWAP2 POP JUMPDEST PUSH1 0x20 DUP3 LT DUP2 SUB PUSH2 0xEC JUMPI PUSH2 0xEB PUSH2 0x95 JUMP JUMPDEST JUMPDEST POP SWAP2 SWAP1 POP JUMP JUMPDEST PUSH0 DUP2 SWAP1 POP DUP2 PUSH0 MSTORE PUSH1 0x20 PUSH0 KECCAK256 SWAP1 POP SWAP2 SWAP1 POP JUMP JUMPDEST PUSH0 PUSH1 0x20 PUSH1 0x1F DUP4 ADD DIV SWAP1 POP SWAP2 SWAP1 POP JUMP JUMPDEST PUSH0 DUP3 DUP3 SHL SWAP1 POP SWAP3 SWAP2 POP POP JUMP JUMPDEST PUSH0 PUSH1 0x8 DUP4 MUL PUSH2 0x14E PUSH32 0xFFFFFFFFFFFFFFFFFFFFFFFFFFFFFFFFFFFFFFFFFFFFFFFFFFFFFFFFFFFFFFFF DUP3 PUSH2 0x113 JUMP JUMPDEST PUSH2 0x158 DUP7 DUP4 PUSH2 0x113 JUMP JUMPDEST SWAP6 POP DUP1 NOT DUP5 AND SWAP4 POP DUP1 DUP7 AND DUP5 OR SWAP3 POP POP POP SWAP4 SWAP3 POP POP POP JUMP JUMPDEST PUSH0 DUP2 SWAP1 POP SWAP2 SWAP1 POP JUMP JUMPDEST PUSH0 DUP2 SWAP1 POP SWAP2 SWAP1 POP JUMP JUMPDEST PUSH0 PUSH2 0x19C PUSH2 0x197 PUSH2 0x192 DUP5 PUSH2 0x170 JUMP JUMPDEST PUSH2 0x179 JUMP JUMPDEST PUSH2 0x170 JUMP JUMPDEST SWAP1 POP SWAP2 SWAP1 POP JUMP JUMPDEST PUSH0 DUP2 SWAP1 POP SWAP2 SWAP1 POP JUMP JUMPDEST PUSH2 0x1B5 DUP4 PUSH2 0x182 JUMP JUMPDEST PUSH2 0x1C9 PUSH2 0x1C1 DUP3 PUSH2 0x1A3 JUMP JUMPDEST DUP5 DUP5 SLOAD PUSH2 0x11F JUMP JUMPDEST DUP3 SSTORE POP POP POP POP JUMP JUMPDEST PUSH0 SWAP1 JUMP JUMPDEST PUSH2 0x1DD PUSH2 0x1D1 JUMP JUMPDEST PUSH2 0x1E8 DUP2 DUP5 DUP5 PUSH2 0x1AC JUMP JUMPDEST POP POP POP JUMP JUMPDEST JUMPDEST DUP2 DUP2 LT ISZERO PUSH2 0x20B JUMPI PUSH2 0x200 PUSH0 DUP3 PUSH2 0x1D5 JUMP JUMPDEST PUSH1 0x1 DUP2 ADD SWAP1 POP PUSH2 0x1EE JUMP JUMPDEST POP POP JUMP JUMPDEST PUSH1 0x1F DUP3 GT ISZERO PUSH2 0x250 JUMPI PUSH2 0x221 DUP2 PUSH2 0xF2 JUMP JUMPDEST PUSH2 0x22A DUP5 PUSH2 0x104 JUMP JUMPDEST DUP2 ADD PUSH1 0x20 DUP6 LT ISZERO PUSH2 0x239 JUMPI DUP2 SWAP1 POP JUMPDEST PUSH2 0x24D PUSH2 0x245 DUP6 PUSH2 0x104 JUMP JUMPDEST DUP4 ADD DUP3 PUSH2 0x1ED JUMP JUMPDEST POP POP JUMPDEST POP POP POP JUMP JUMPDEST PUSH0 DUP3 DUP3 SHR SWAP1 POP SWAP3 SWAP2 POP POP JUMP JUMPDEST PUSH0 PUSH2 0x270 PUSH0 NOT DUP5 PUSH1 0x8 MUL PUSH2 0x255 JUMP JUMPDEST NOT DUP1 DUP4 AND SWAP2 POP POP SWAP3 SWAP2 POP POP JUMP JUMPDEST PUSH0 PUSH2 0x288 DUP4 DUP4 PUSH2 0x261 JUMP JUMPDEST SWAP2 POP DUP3 PUSH1 0x2 MUL DUP3 OR SWAP1 POP SWAP3 SWAP2 POP POP JUMP JUMPDEST PUSH2 0x2A1 DUP3 PUSH2 0x5E JUMP JUMPDEST PUSH8 0xFFFFFFFFFFFFFFFF DUP2 GT ISZERO PUSH2 0x2BA JUMPI PUSH2 0x2B9 PUSH2 0x68 JUMP JUMPDEST JUMPDEST PUSH2 0x2C4 DUP3 SLOAD PUSH2 0xC2 JUMP JUMPDEST PUSH2 0x2CF DUP3 DUP3 DUP6 PUSH2 0x20F JUMP JUMPDEST PUSH0 PUSH1 0x20 SWAP1 POP PUSH1 0x1F DUP4 GT PUSH1 0x1 DUP2 EQ PUSH2 0x300 JUMPI PUSH0 DUP5 ISZERO PUSH2 0x2EE JUMPI DUP3 DUP8 ADD MLOAD SWAP1 POP JUMPDEST PUSH2 0x2F8 DUP6 DUP3 PUSH2 0x27D JUMP JUMPDEST DUP7 SSTORE POP PUSH2 0x35F JUMP JUMPDEST PUSH1 0x1F NOT DUP5 AND PUSH2 0x30E DUP7 PUSH2 0xF2 JUMP JUMPDEST PUSH0 JUMPDEST DUP3 DUP2 LT ISZERO PUSH2 0x335 JUMPI DUP5 DUP10 ADD MLOAD DUP3 SSTORE PUSH1 0x1 DUP3 ADD SWAP2 POP PUSH1 0x20 DUP6 ADD SWAP5 POP PUSH1 0x20 DUP2 ADD SWAP1 POP PUSH2 0x310 JUMP JUMPDEST DUP7 DUP4 LT ISZERO PUSH2 0x352 JUMPI DUP5 DUP10 ADD MLOAD PUSH2 0x34E PUSH1 0x1F DUP10 AND DUP3 PUSH2 0x261 JUMP JUMPDEST DUP4 SSTORE POP JUMPDEST PUSH1 0x1 PUSH1 0x2 DUP9 MUL ADD DUP9 SSTORE POP POP POP JUMPDEST POP POP POP POP POP POP JUMP JUMPDEST PUSH2 0x89B DUP1 PUSH2 0x374 PUSH0 CODECOPY PUSH0 RETURN INVALID PUSH1 0x80 PUSH1 0x40 MSTORE PUSH1 0x4 CALLDATASIZE LT PUSH2 0x58 JUMPI PUSH0 CALLDATALOAD PUSH1 0xE0 SHR DUP1 PUSH4 0x6FDDE03 EQ PUSH2 0x9C JUMPI DUP1 PUSH4 0xC11DEDD EQ PUSH2 0xC6 JUMPI DUP1 PUSH4 0x17D7DE7C EQ PUSH2 0xE2 JUMPI DUP1 PUSH4 0x262A9DFF EQ PUSH2 0x10C JUMPI DUP1 PUSH4 0xAF22068E EQ PUSH2 0x136 JUMPI DUP1 PUSH4 0xE2982C21 EQ PUSH2 0x15E JUMPI PUSH2 0x59 JUMP JUMPDEST JUMPDEST CALLVALUE PUSH1 0x2 PUSH0 CALLER PUSH20 0xFFFFFFFFFFFFFFFFFFFFFFFFFFFFFFFFFFFFFFFF AND PUSH20 0xFFFFFFFFFFFFFFFFFFFFFFFFFFFFFFFFFFFFFFFF AND DUP2 MSTORE PUSH1 0x20 ADD SWAP1 DUP2 MSTORE PUSH1 0x20 ADD PUSH0 KECCAK256 DUP2 SWAP1 SSTORE STOP JUMPDEST CALLVALUE DUP1 ISZERO PUSH2 0xA7 JUMPI PUSH0 DUP1 REVERT JUMPDEST POP PUSH2 0xB0 PUSH2 0x19A JUMP JUMPDEST PUSH1 0x40 MLOAD PUSH2 0xBD SWAP2 SWAP1 PUSH2 0x3A1 JUMP JUMPDEST PUSH1 0x40 MLOAD DUP1 SWAP2 SUB SWAP1 RETURN JUMPDEST PUSH2 0xE0 PUSH1 0x4 DUP1 CALLDATASIZE SUB DUP2 ADD SWAP1 PUSH2 0xDB SWAP2 SWAP1 PUSH2 0x423 JUMP JUMPDEST PUSH2 0x225 JUMP JUMPDEST STOP JUMPDEST CALLVALUE DUP1 ISZERO PUSH2 0xED JUMPI PUSH0 DUP1 REVERT JUMPDEST POP PUSH2 0xF6 PUSH2 0x26A JUMP JUMPDEST PUSH1 0x40 MLOAD PUSH2 0x103 SWAP2 SWAP1 PUSH2 0x3A1 JUMP JUMPDEST PUSH1 0x40 MLOAD DUP1 SWAP2 SUB SWAP1 RETURN JUMPDEST CALLVALUE DUP1 ISZERO PUSH2 0x117 JUMPI PUSH0 DUP1 REVERT JUMPDEST POP PUSH2 0x120 PUSH2 0x2F9 JUMP JUMPDEST PUSH1 0x40 MLOAD PUSH2 0x12D SWAP2 SWAP1 PUSH2 0x466 JUMP JUMPDEST PUSH1 0x40 MLOAD DUP1 SWAP2 SUB SWAP1 RETURN JUMPDEST CALLVALUE DUP1 ISZERO PUSH2 0x141 JUMPI PUSH0 DUP1 REVERT JUMPDEST POP PUSH2 0x15C PUSH1 0x4 DUP1 CALLDATASIZE SUB DUP2 ADD SWAP1 PUSH2 0x157 SWAP2 SWAP1 PUSH2 0x50A JUMP JUMPDEST PUSH2 0x2FF JUMP JUMPDEST STOP JUMPDEST CALLVALUE DUP1 ISZERO PUSH2 0x169 JUMPI PUSH0 DUP1 REVERT JUMPDEST POP PUSH2 0x184 PUSH1 0x4 DUP1 CALLDATASIZE SUB DUP2 ADD SWAP1 PUSH2 0x17F SWAP2 SWAP1 PUSH2 0x423 JUMP JUMPDEST PUSH2 0x31C JUMP JUMPDEST PUSH1 0x40 MLOAD PUSH2 0x191 SWAP2 SWAP1 PUSH2 0x466 JUMP JUMPDEST PUSH1 0x40 MLOAD DUP1 SWAP2 SUB SWAP1 RETURN JUMPDEST PUSH0 DUP1 SLOAD PUSH2 0x1A6 SWAP1 PUSH2 0x594 JUMP JUMPDEST DUP1 PUSH1 0x1F ADD PUSH1 0x20 DUP1 SWAP2 DIV MUL PUSH1 0x20 ADD PUSH1 0x40 MLOAD SWAP1 DUP2 ADD PUSH1 0x40 MSTORE DUP1 SWAP3 SWAP2 SWAP1 DUP2 DUP2 MSTORE PUSH1 0x20 ADD DUP3 DUP1 SLOAD PUSH2 0x1D2 SWAP1 PUSH2 0x594 JUMP JUMPDEST DUP1 ISZERO PUSH2 0x21D JUMPI DUP1 PUSH1 0x1F LT PUSH2 0x1F4 JUMPI PUSH2 0x100 DUP1 DUP4 SLOAD DIV MUL DUP4 MSTORE SWAP2 PUSH1 0x20 ADD SWAP2 PUSH2 0x21D JUMP JUMPDEST DUP3 ADD SWAP2 SWAP1 PUSH0 MSTORE PUSH1 0x20 PUSH0 KECCAK256 SWAP1 JUMPDEST DUP2 SLOAD DUP2 MSTORE SWAP1 PUSH1 0x1 ADD SWAP1 PUSH1 0x20 ADD DUP1 DUP4 GT PUSH2 0x200 JUMPI DUP3 SWAP1 SUB PUSH1 0x1F AND DUP3 ADD SWAP2 JUMPDEST POP POP POP POP POP DUP2 JUMP JUMPDEST CALLVALUE PUSH1 0x2 PUSH0 DUP4 PUSH20 0xFFFFFFFFFFFFFFFFFFFFFFFFFFFFFFFFFFFFFFFF AND PUSH20 0xFFFFFFFFFFFFFFFFFFFFFFFFFFFFFFFFFFFFFFFF AND DUP2 MSTORE PUSH1 0x20 ADD SWAP1 DUP2 MSTORE PUSH1 0x20 ADD PUSH0 KECCAK256 DUP2 SWAP1 SSTORE POP POP JUMP JUMPDEST PUSH1 0x60 PUSH0 DUP1 SLOAD PUSH2 0x278 SWAP1 PUSH2 0x594 JUMP JUMPDEST DUP1 PUSH1 0x1F ADD PUSH1 0x20 DUP1 SWAP2 DIV MUL PUSH1 0x20 ADD PUSH1 0x40 MLOAD SWAP1 DUP2 ADD PUSH1 0x40 MSTORE DUP1 SWAP3 SWAP2 SWAP1 DUP2 DUP2 MSTORE PUSH1 0x20 ADD DUP3 DUP1 SLOAD PUSH2 0x2A4 SWAP1 PUSH2 0x594 JUMP JUMPDEST DUP1 ISZERO PUSH2 0x2EF JUMPI DUP1 PUSH1 0x1F LT PUSH2 0x2C6 JUMPI PUSH2 0x100 DUP1 DUP4 SLOAD DIV MUL DUP4 MSTORE SWAP2 PUSH1 0x20 ADD SWAP2 PUSH2 0x2EF JUMP JUMPDEST DUP3 ADD SWAP2 SWAP1 PUSH0 MSTORE PUSH1 0x20 PUSH0 KECCAK256 SWAP1 JUMPDEST DUP2 SLOAD DUP2 MSTORE SWAP1 PUSH1 0x1 ADD SWAP1 PUSH1 0x20 ADD DUP1 DUP4 GT PUSH2 0x2D2 JUMPI DUP3 SWAP1 SUB PUSH1 0x1F AND DUP3 ADD SWAP2 JUMPDEST POP POP POP POP POP SWAP1 POP SWAP1 JUMP JUMPDEST PUSH1 0x1 SLOAD DUP2 JUMP JUMPDEST DUP3 DUP3 PUSH0 SWAP2 DUP3 PUSH2 0x30F SWAP3 SWAP2 SWAP1 PUSH2 0x798 JUMP JUMPDEST POP DUP1 PUSH1 0x1 DUP2 SWAP1 SSTORE POP POP POP POP JUMP JUMPDEST PUSH1 0x2 PUSH1 0x20 MSTORE DUP1 PUSH0 MSTORE PUSH1 0x40 PUSH0 KECCAK256 PUSH0 SWAP2 POP SWAP1 POP SLOAD DUP2 JUMP JUMPDEST PUSH0 DUP2 MLOAD SWAP1 POP SWAP2 SWAP1 POP JUMP JUMPDEST PUSH0 DUP3 DUP3 MSTORE PUSH1 0x20 DUP3 ADD SWAP1 POP SWAP3 SWAP2 POP POP JUMP JUMPDEST DUP3 DUP2 DUP4 MCOPY PUSH0 DUP4 DUP4 ADD MSTORE POP POP POP JUMP JUMPDEST PUSH0 PUSH1 0x1F NOT PUSH1 0x1F DUP4 ADD AND SWAP1 POP SWAP2 SWAP1 POP JUMP JUMPDEST PUSH0 PUSH2 0x373 DUP3 PUSH2 0x331 JUMP JUMPDEST PUSH2 0x37D DUP2 DUP6 PUSH2 0x33B JUMP JUMPDEST SWAP4 POP PUSH2 0x38D DUP2 DUP6 PUSH1 0x20 DUP7 ADD PUSH2 0x34B JUMP JUMPDEST PUSH2 0x396 DUP2 PUSH2 0x359 JUMP JUMPDEST DUP5 ADD SWAP2 POP POP SWAP3 SWAP2 POP POP JUMP JUMPDEST PUSH0 PUSH1 0x20 DUP3 ADD SWAP1 POP DUP2 DUP2 SUB PUSH0 DUP4 ADD MSTORE PUSH2 0x3B9 DUP2 DUP5 PUSH2 0x369 JUMP JUMPDEST SWAP1 POP SWAP3 SWAP2 POP POP JUMP JUMPDEST PUSH0 DUP1 REVERT JUMPDEST PUSH0 DUP1 REVERT JUMPDEST PUSH0 PUSH20 0xFFFFFFFFFFFFFFFFFFFFFFFFFFFFFFFFFFFFFFFF DUP3 AND SWAP1 POP SWAP2 SWAP1 POP JUMP JUMPDEST PUSH0 PUSH2 0x3F2 DUP3 PUSH2 0x3C9 JUMP JUMPDEST SWAP1 POP SWAP2 SWAP1 POP JUMP JUMPDEST PUSH2 0x402 DUP2 PUSH2 0x3E8 JUMP JUMPDEST DUP2 EQ PUSH2 0x40C JUMPI PUSH0 DUP1 REVERT JUMPDEST POP JUMP JUMPDEST PUSH0 DUP2 CALLDATALOAD SWAP1 POP PUSH2 0x41D DUP2 PUSH2 0x3F9 JUMP JUMPDEST SWAP3 SWAP2 POP POP JUMP JUMPDEST PUSH0 PUSH1 0x20 DUP3 DUP5 SUB SLT ISZERO PUSH2 0x438 JUMPI PUSH2 0x437 PUSH2 0x3C1 JUMP JUMPDEST JUMPDEST PUSH0 PUSH2 0x445 DUP5 DUP3 DUP6 ADD PUSH2 0x40F JUMP JUMPDEST SWAP2 POP POP SWAP3 SWAP2 POP POP JUMP JUMPDEST PUSH0 DUP2 SWAP1 POP SWAP2 SWAP1 POP JUMP JUMPDEST PUSH2 0x460 DUP2 PUSH2 0x44E JUMP JUMPDEST DUP3 MSTORE POP POP JUMP JUMPDEST PUSH0 PUSH1 0x20 DUP3 ADD SWAP1 POP PUSH2 0x479 PUSH0 DUP4 ADD DUP5 PUSH2 0x457 JUMP JUMPDEST SWAP3 SWAP2 POP POP JUMP JUMPDEST PUSH0 DUP1 REVERT JUMPDEST PUSH0 DUP1 REVERT JUMPDEST PUSH0 DUP1 REVERT JUMPDEST PUSH0 DUP1 DUP4 PUSH1 0x1F DUP5 ADD SLT PUSH2 0x4A0 JUMPI PUSH2 0x49F PUSH2 0x47F JUMP JUMPDEST JUMPDEST DUP3 CALLDATALOAD SWAP1 POP PUSH8 0xFFFFFFFFFFFFFFFF DUP2 GT ISZERO PUSH2 0x4BD JUMPI PUSH2 0x4BC PUSH2 0x483 JUMP JUMPDEST JUMPDEST PUSH1 0x20 DUP4 ADD SWAP2 POP DUP4 PUSH1 0x1 DUP3 MUL DUP4 ADD GT ISZERO PUSH2 0x4D9 JUMPI PUSH2 0x4D8 PUSH2 0x487 JUMP JUMPDEST JUMPDEST SWAP3 POP SWAP3 SWAP1 POP JUMP JUMPDEST PUSH2 0x4E9 DUP2 PUSH2 0x44E JUMP JUMPDEST DUP2 EQ PUSH2 0x4F3 JUMPI PUSH0 DUP1 REVERT JUMPDEST POP JUMP JUMPDEST PUSH0 DUP2 CALLDATALOAD SWAP1 POP PUSH2 0x504 DUP2 PUSH2 0x4E0 JUMP JUMPDEST SWAP3 SWAP2 POP POP JUMP JUMPDEST PUSH0 DUP1 PUSH0 PUSH1 0x40 DUP5 DUP7 SUB SLT ISZERO PUSH2 0x521 JUMPI PUSH2 0x520 PUSH2 0x3C1 JUMP JUMPDEST JUMPDEST PUSH0 DUP5 ADD CALLDATALOAD PUSH8 0xFFFFFFFFFFFFFFFF DUP2 GT ISZERO PUSH2 0x53E JUMPI PUSH2 0x53D PUSH2 0x3C5 JUMP JUMPDEST JUMPDEST PUSH2 0x54A DUP7 DUP3 DUP8 ADD PUSH2 0x48B JUMP JUMPDEST SWAP4 POP SWAP4 POP POP PUSH1 0x20 PUSH2 0x55D DUP7 DUP3 DUP8 ADD PUSH2 0x4F6 JUMP JUMPDEST SWAP2 POP POP SWAP3 POP SWAP3 POP SWAP3 JUMP JUMPDEST PUSH32 0x4E487B7100000000000000000000000000000000000000000000000000000000 PUSH0 MSTORE PUSH1 0x22 PUSH1 0x4 MSTORE PUSH1 0x24 PUSH0 REVERT JUMPDEST PUSH0 PUSH1 0x2 DUP3 DIV SWAP1 POP PUSH1 0x1 DUP3 AND DUP1 PUSH2 0x5AB JUMPI PUSH1 0x7F DUP3 AND SWAP2 POP JUMPDEST PUSH1 0x20 DUP3 LT DUP2 SUB PUSH2 0x5BE JUMPI PUSH2 0x5BD PUSH2 0x567 JUMP JUMPDEST JUMPDEST POP SWAP2 SWAP1 POP JUMP JUMPDEST PUSH0 DUP3 SWAP1 POP SWAP3 SWAP2 POP POP JUMP JUMPDEST PUSH32 0x4E487B7100000000000000000000000000000000000000000000000000000000 PUSH0 MSTORE PUSH1 0x41 PUSH1 0x4 MSTORE PUSH1 0x24 PUSH0 REVERT JUMPDEST PUSH0 DUP2 SWAP1 POP DUP2 PUSH0 MSTORE PUSH1 0x20 PUSH0 KECCAK256 SWAP1 POP SWAP2 SWAP1 POP JUMP JUMPDEST PUSH0 PUSH1 0x20 PUSH1 0x1F DUP4 ADD DIV SWAP1 POP SWAP2 SWAP1 POP JUMP JUMPDEST PUSH0 DUP3 DUP3 SHL SWAP1 POP SWAP3 SWAP2 POP POP JUMP JUMPDEST PUSH0 PUSH1 0x8 DUP4 MUL PUSH2 0x657 PUSH32 0xFFFFFFFFFFFFFFFFFFFFFFFFFFFFFFFFFFFFFFFFFFFFFFFFFFFFFFFFFFFFFFFF DUP3 PUSH2 0x61C JUMP JUMPDEST PUSH2 0x661 DUP7 DUP4 PUSH2 0x61C JUMP JUMPDEST SWAP6 POP DUP1 NOT DUP5 AND SWAP4 POP DUP1 DUP7 AND DUP5 OR SWAP3 POP POP POP SWAP4 SWAP3 POP POP POP JUMP JUMPDEST PUSH0 DUP2 SWAP1 POP SWAP2 SWAP1 POP JUMP JUMPDEST PUSH0 PUSH2 0x69C PUSH2 0x697 PUSH2 0x692 DUP5 PUSH2 0x44E JUMP JUMPDEST PUSH2 0x679 JUMP JUMPDEST PUSH2 0x44E JUMP JUMPDEST SWAP1 POP SWAP2 SWAP1 POP JUMP JUMPDEST PUSH0 DUP2 SWAP1 POP SWAP2 SWAP1 POP JUMP JUMPDEST PUSH2 0x6B5 DUP4 PUSH2 0x682 JUMP JUMPDEST PUSH2 0x6C9 PUSH2 0x6C1 DUP3 PUSH2 0x6A3 JUMP JUMPDEST DUP5 DUP5 SLOAD PUSH2 0x628 JUMP JUMPDEST DUP3 SSTORE POP POP POP POP JUMP JUMPDEST PUSH0 SWAP1 JUMP JUMPDEST PUSH2 0x6DD PUSH2 0x6D1 JUMP JUMPDEST PUSH2 0x6E8 DUP2 DUP5 DUP5 PUSH2 0x6AC JUMP JUMPDEST POP POP POP JUMP JUMPDEST JUMPDEST DUP2 DUP2 LT ISZERO PUSH2 0x70B JUMPI PUSH2 0x700 PUSH0 DUP3 PUSH2 0x6D5 JUMP JUMPDEST PUSH1 0x1 DUP2 ADD SWAP1 POP PUSH2 0x6EE JUMP JUMPDEST POP POP JUMP JUMPDEST PUSH1 0x1F DUP3 GT ISZERO PUSH2 0x750 JUMPI PUSH2 0x721 DUP2 PUSH2 0x5FB JUMP JUMPDEST PUSH2 0x72A DUP5 PUSH2 0x60D JUMP JUMPDEST DUP2 ADD PUSH1 0x20 DUP6 LT ISZERO PUSH2 0x739 JUMPI DUP2 SWAP1 POP JUMPDEST PUSH2 0x74D PUSH2 0x745 DUP6 PUSH2 0x60D JUMP JUMPDEST DUP4 ADD DUP3 PUSH2 0x6ED JUMP JUMPDEST POP POP JUMPDEST POP POP POP JUMP JUMPDEST PUSH0 DUP3 DUP3 SHR SWAP1 POP SWAP3 SWAP2 POP POP JUMP JUMPDEST PUSH0 PUSH2 0x770 PUSH0 NOT DUP5 PUSH1 0x8 MUL PUSH2 0x755 JUMP JUMPDEST NOT DUP1 DUP4 AND SWAP2 POP POP SWAP3 SWAP2 POP POP JUMP JUMPDEST PUSH0 PUSH2 0x788 DUP4 DUP4 PUSH2 0x761 JUMP JUMPDEST SWAP2 POP DUP3 PUSH1 0x2 MUL DUP3 OR SWAP1 POP SWAP3 SWAP2 POP POP JUMP JUMPDEST PUSH2 0x7A2 DUP4 DUP4 PUSH2 0x5C4 JUMP JUMPDEST PUSH8 0xFFFFFFFFFFFFFFFF DUP2 GT ISZERO PUSH2 0x7BB JUMPI PUSH2 0x7BA PUSH2 0x5CE JUMP JUMPDEST JUMPDEST PUSH2 0x7C5 DUP3 SLOAD PUSH2 0x594 JUMP JUMPDEST PUSH2 0x7D0 DUP3 DUP3 DUP6 PUSH2 0x70F JUMP JUMPDEST PUSH0 PUSH1 0x1F DUP4 GT PUSH1 0x1 DUP2 EQ PUSH2 0x7FD JUMPI PUSH0 DUP5 ISZERO PUSH2 0x7EB JUMPI DUP3 DUP8 ADD CALLDATALOAD SWAP1 POP JUMPDEST PUSH2 0x7F5 DUP6 DUP3 PUSH2 0x77D JUMP JUMPDEST DUP7 SSTORE POP PUSH2 0x85C JUMP JUMPDEST PUSH1 0x1F NOT DUP5 AND PUSH2 0x80B DUP7 PUSH2 0x5FB JUMP JUMPDEST PUSH0 JUMPDEST DUP3 DUP2 LT ISZERO PUSH2 0x832 JUMPI DUP5 DUP10 ADD CALLDATALOAD DUP3 SSTORE PUSH1 0x1 DUP3 ADD SWAP2 POP PUSH1 0x20 DUP6 ADD SWAP5 POP PUSH1 0x20 DUP2 ADD SWAP1 POP PUSH2 0x80D JUMP JUMPDEST DUP7 DUP4 LT ISZERO PUSH2 0x84F JUMPI DUP5 DUP10 ADD CALLDATALOAD PUSH2 0x84B PUSH1 0x1F DUP10 AND DUP3 PUSH2 0x761 JUMP JUMPDEST DUP4 SSTORE POP JUMPDEST PUSH1 0x1 PUSH1 0x2 DUP9 MUL ADD DUP9 SSTORE POP POP POP JUMPDEST POP POP POP POP POP POP POP JUMP INVALID LOG2 PUSH5 0x6970667358 0x22 SLT KECCAK256 0xC5 0xE0 SWAP7 GAS 0x1F 0x4F SWAP8 MULMOD 0x27 RETURNDATASIZE 0xC8 SLOAD LOG0 LOG3 PUSH4 0xAAB5D39B 0xE7 0xA9 DUP13 LT PUSH1 0xD0 SWAP9 RETURN 0xD3 SSTORE CREATE2 REVERT EXTCODEHASH PUSH5 0x736F6C6343 STOP ADDMOD BYTE STOP CALLER "
				},
				"gasEstimates": {
					"creation": {
						"codeDepositCost": "440600",
						"executionCost": "infinite",
						"totalCost": "infinite"
					},
					"external": {
						"": "22392",
						"age()": "2469",
						"getName()": "infinite",
						"name()": "infinite",
						"pay(address)": "22626",
						"payments(address)": "2890",
						"setData(string,uint256)": "infinite"
					}
				},
				"methodIdentifiers": {
					"age()": "262a9dff",
					"getName()": "17d7de7c",
					"name()": "06fdde03",
					"pay(address)": "0c11dedd",
					"payments(address)": "e2982c21",
					"setData(string,uint256)": "af22068e"
				}
			},
			"storageLayout": {
				"storage": [
					{
						"astId": 4,
						"contract": "Example_Calls/DemoToLowCall.sol:Demo",
						"label": "name",
						"offset": 0,
						"slot": "0",
						"type": "t_string_storage"
					},
					{
						"astId": 7,
						"contract": "Example_Calls/DemoToLowCall.sol:Demo",
						"label": "age",
						"offset": 0,
						"slot": "1",
						"type": "t_uint256"
					},
					{
						"astId": 11,
						"contract": "Example_Calls/DemoToLowCall.sol:Demo",
						"label": "payments",
						"offset": 0,
						"slot": "2",
						"type": "t_mapping(t_address,t_uint256)"
					}
				],
				"types": {
					"t_address": {
						"encoding": "inplace",
						"label": "address",
						"numberOfBytes": "20"
					},
					"t_mapping(t_address,t_uint256)": {
						"encoding": "mapping",
						"key": "t_address",
						"label": "mapping(address => uint256)",
						"numberOfBytes": "32",
						"value": "t_uint256"
					},
					"t_string_storage": {
						"encoding": "bytes",
						"label": "string",
						"numberOfBytes": "32"
					},
					"t_uint256": {
						"encoding": "inplace",
						"label": "uint256",
						"numberOfBytes": "32"
					}
				}
			},
			"userdoc": {
				"kind": "user",
				"methods": {},
				"version": 1
			}
		}
	}
}