{
	"Example_Calls/CallFromOther.sol": {
		"CallFromOther": {
			"abi": [
				{
					"inputs": [],
					"name": "getName",
					"outputs": [
						{
							"internalType": "string",
							"name": "",
							"type": "string"
						}
					],
					"stateMutability": "view",
					"type": "function"
				},
				{
					"inputs": [
						{
							"internalType": "address",
							"name": "_payer",
							"type": "address"
						}
					],
					"name": "pay",
					"outputs": [],
					"stateMutability": "payable",
					"type": "function"
				},
				{
					"inputs": [
						{
							"internalType": "address",
							"name": "",
							"type": "address"
						}
					],
					"name": "payments",
					"outputs": [
						{
							"internalType": "uint256",
							"name": "",
							"type": "uint256"
						}
					],
					"stateMutability": "view",
					"type": "function"
				},
				{
					"inputs": [
						{
							"internalType": "string",
							"name": "_newName",
							"type": "string"
						}
					],
					"name": "setName",
					"outputs": [],
					"stateMutability": "nonpayable",
					"type": "function"
				}
			],
			"devdoc": {
				"kind": "dev",
				"methods": {},
				"version": 1
			},
			"evm": {
				"assembly": "    /* \"Example_Calls/CallFromOther.sol\":424:800  contract CallFromOther{... */\n  mstore(0x40, 0x80)\n    /* \"Example_Calls/CallFromOther.sol\":452:472  string name = \"John\" */\n  mload(0x40)\n  dup1\n  0x40\n  add\n  0x40\n  mstore\n  dup1\n  0x04\n  dup2\n  mstore\n  0x20\n  add\n  0x4a6f686e00000000000000000000000000000000000000000000000000000000\n  dup2\n  mstore\n  pop\n  0x00\n  swap1\n  dup2\n  tag_1\n  swap2\n  swap1\n  tag_2\n  jump\t// in\ntag_1:\n  pop\n    /* \"Example_Calls/CallFromOther.sol\":424:800  contract CallFromOther{... */\n  callvalue\n  dup1\n  iszero\n  tag_3\n  jumpi\n  0x00\n  dup1\n  revert\ntag_3:\n  pop\n  jump(tag_4)\n    /* \"#utility.yul\":7:106   */\ntag_5:\n    /* \"#utility.yul\":59:65   */\n  0x00\n    /* \"#utility.yul\":93:98   */\n  dup2\n    /* \"#utility.yul\":87:99   */\n  mload\n    /* \"#utility.yul\":77:99   */\n  swap1\n  pop\n    /* \"#utility.yul\":7:106   */\n  swap2\n  swap1\n  pop\n  jump\t// out\n    /* \"#utility.yul\":112:292   */\ntag_6:\n    /* \"#utility.yul\":160:237   */\n  0x4e487b7100000000000000000000000000000000000000000000000000000000\n    /* \"#utility.yul\":157:158   */\n  0x00\n    /* \"#utility.yul\":150:238   */\n  mstore\n    /* \"#utility.yul\":257:261   */\n  0x41\n    /* \"#utility.yul\":254:255   */\n  0x04\n    /* \"#utility.yul\":247:262   */\n  mstore\n    /* \"#utility.yul\":281:285   */\n  0x24\n    /* \"#utility.yul\":278:279   */\n  0x00\n    /* \"#utility.yul\":271:286   */\n  revert\n    /* \"#utility.yul\":298:478   */\ntag_7:\n    /* \"#utility.yul\":346:423   */\n  0x4e487b7100000000000000000000000000000000000000000000000000000000\n    /* \"#utility.yul\":343:344   */\n  0x00\n    /* \"#utility.yul\":336:424   */\n  mstore\n    /* \"#utility.yul\":443:447   */\n  0x22\n    /* \"#utility.yul\":440:441   */\n  0x04\n    /* \"#utility.yul\":433:448   */\n  mstore\n    /* \"#utility.yul\":467:471   */\n  0x24\n    /* \"#utility.yul\":464:465   */\n  0x00\n    /* \"#utility.yul\":457:472   */\n  revert\n    /* \"#utility.yul\":484:804   */\ntag_8:\n    /* \"#utility.yul\":528:534   */\n  0x00\n    /* \"#utility.yul\":565:566   */\n  0x02\n    /* \"#utility.yul\":559:563   */\n  dup3\n    /* \"#utility.yul\":555:567   */\n  div\n    /* \"#utility.yul\":545:567   */\n  swap1\n  pop\n    /* \"#utility.yul\":612:613   */\n  0x01\n    /* \"#utility.yul\":606:610   */\n  dup3\n    /* \"#utility.yul\":602:614   */\n  and\n    /* \"#utility.yul\":633:651   */\n  dup1\n    /* \"#utility.yul\":623:704   */\n  tag_30\n  jumpi\n    /* \"#utility.yul\":689:693   */\n  0x7f\n    /* \"#utility.yul\":681:687   */\n  dup3\n    /* \"#utility.yul\":677:694   */\n  and\n    /* \"#utility.yul\":667:694   */\n  swap2\n  pop\n    /* \"#utility.yul\":623:704   */\ntag_30:\n    /* \"#utility.yul\":751:753   */\n  0x20\n    /* \"#utility.yul\":743:749   */\n  dup3\n    /* \"#utility.yul\":740:754   */\n  lt\n    /* \"#utility.yul\":720:738   */\n  dup2\n    /* \"#utility.yul\":717:755   */\n  sub\n    /* \"#utility.yul\":714:798   */\n  tag_31\n  jumpi\n    /* \"#utility.yul\":770:788   */\n  tag_32\n  tag_7\n  jump\t// in\ntag_32:\n    /* \"#utility.yul\":714:798   */\ntag_31:\n    /* \"#utility.yul\":535:804   */\n  pop\n    /* \"#utility.yul\":484:804   */\n  swap2\n  swap1\n  pop\n  jump\t// out\n    /* \"#utility.yul\":810:951   */\ntag_9:\n    /* \"#utility.yul\":859:863   */\n  0x00\n    /* \"#utility.yul\":882:885   */\n  dup2\n    /* \"#utility.yul\":874:885   */\n  swap1\n  pop\n    /* \"#utility.yul\":905:908   */\n  dup2\n    /* \"#utility.yul\":902:903   */\n  0x00\n    /* \"#utility.yul\":895:909   */\n  mstore\n    /* \"#utility.yul\":939:943   */\n  0x20\n    /* \"#utility.yul\":936:937   */\n  0x00\n    /* \"#utility.yul\":926:944   */\n  keccak256\n    /* \"#utility.yul\":918:944   */\n  swap1\n  pop\n    /* \"#utility.yul\":810:951   */\n  swap2\n  swap1\n  pop\n  jump\t// out\n    /* \"#utility.yul\":957:1050   */\ntag_10:\n    /* \"#utility.yul\":994:1000   */\n  0x00\n    /* \"#utility.yul\":1041:1043   */\n  0x20\n    /* \"#utility.yul\":1036:1038   */\n  0x1f\n    /* \"#utility.yul\":1029:1034   */\n  dup4\n    /* \"#utility.yul\":1025:1039   */\n  add\n    /* \"#utility.yul\":1021:1044   */\n  div\n    /* \"#utility.yul\":1011:1044   */\n  swap1\n  pop\n    /* \"#utility.yul\":957:1050   */\n  swap2\n  swap1\n  pop\n  jump\t// out\n    /* \"#utility.yul\":1056:1163   */\ntag_11:\n    /* \"#utility.yul\":1100:1108   */\n  0x00\n    /* \"#utility.yul\":1150:1155   */\n  dup3\n    /* \"#utility.yul\":1144:1148   */\n  dup3\n    /* \"#utility.yul\":1140:1156   */\n  shl\n    /* \"#utility.yul\":1119:1156   */\n  swap1\n  pop\n    /* \"#utility.yul\":1056:1163   */\n  swap3\n  swap2\n  pop\n  pop\n  jump\t// out\n    /* \"#utility.yul\":1169:1562   */\ntag_12:\n    /* \"#utility.yul\":1238:1244   */\n  0x00\n    /* \"#utility.yul\":1288:1289   */\n  0x08\n    /* \"#utility.yul\":1276:1286   */\n  dup4\n    /* \"#utility.yul\":1272:1290   */\n  mul\n    /* \"#utility.yul\":1311:1408   */\n  tag_37\n    /* \"#utility.yul\":1341:1407   */\n  0xffffffffffffffffffffffffffffffffffffffffffffffffffffffffffffffff\n    /* \"#utility.yul\":1330:1339   */\n  dup3\n    /* \"#utility.yul\":1311:1408   */\n  tag_11\n  jump\t// in\ntag_37:\n    /* \"#utility.yul\":1429:1468   */\n  tag_38\n    /* \"#utility.yul\":1459:1467   */\n  dup7\n    /* \"#utility.yul\":1448:1457   */\n  dup4\n    /* \"#utility.yul\":1429:1468   */\n  tag_11\n  jump\t// in\ntag_38:\n    /* \"#utility.yul\":1417:1468   */\n  swap6\n  pop\n    /* \"#utility.yul\":1501:1505   */\n  dup1\n    /* \"#utility.yul\":1497:1506   */\n  not\n    /* \"#utility.yul\":1490:1495   */\n  dup5\n    /* \"#utility.yul\":1486:1507   */\n  and\n    /* \"#utility.yul\":1477:1507   */\n  swap4\n  pop\n    /* \"#utility.yul\":1550:1554   */\n  dup1\n    /* \"#utility.yul\":1540:1548   */\n  dup7\n    /* \"#utility.yul\":1536:1555   */\n  and\n    /* \"#utility.yul\":1529:1534   */\n  dup5\n    /* \"#utility.yul\":1526:1556   */\n  or\n    /* \"#utility.yul\":1516:1556   */\n  swap3\n  pop\n    /* \"#utility.yul\":1245:1562   */\n  pop\n  pop\n    /* \"#utility.yul\":1169:1562   */\n  swap4\n  swap3\n  pop\n  pop\n  pop\n  jump\t// out\n    /* \"#utility.yul\":1568:1645   */\ntag_13:\n    /* \"#utility.yul\":1605:1612   */\n  0x00\n    /* \"#utility.yul\":1634:1639   */\n  dup2\n    /* \"#utility.yul\":1623:1639   */\n  swap1\n  pop\n    /* \"#utility.yul\":1568:1645   */\n  swap2\n  swap1\n  pop\n  jump\t// out\n    /* \"#utility.yul\":1651:1711   */\ntag_14:\n    /* \"#utility.yul\":1679:1682   */\n  0x00\n    /* \"#utility.yul\":1700:1705   */\n  dup2\n    /* \"#utility.yul\":1693:1705   */\n  swap1\n  pop\n    /* \"#utility.yul\":1651:1711   */\n  swap2\n  swap1\n  pop\n  jump\t// out\n    /* \"#utility.yul\":1717:1859   */\ntag_15:\n    /* \"#utility.yul\":1767:1776   */\n  0x00\n    /* \"#utility.yul\":1800:1853   */\n  tag_42\n    /* \"#utility.yul\":1818:1852   */\n  tag_43\n    /* \"#utility.yul\":1827:1851   */\n  tag_44\n    /* \"#utility.yul\":1845:1850   */\n  dup5\n    /* \"#utility.yul\":1827:1851   */\n  tag_13\n  jump\t// in\ntag_44:\n    /* \"#utility.yul\":1818:1852   */\n  tag_14\n  jump\t// in\ntag_43:\n    /* \"#utility.yul\":1800:1853   */\n  tag_13\n  jump\t// in\ntag_42:\n    /* \"#utility.yul\":1787:1853   */\n  swap1\n  pop\n    /* \"#utility.yul\":1717:1859   */\n  swap2\n  swap1\n  pop\n  jump\t// out\n    /* \"#utility.yul\":1865:1940   */\ntag_16:\n    /* \"#utility.yul\":1908:1911   */\n  0x00\n    /* \"#utility.yul\":1929:1934   */\n  dup2\n    /* \"#utility.yul\":1922:1934   */\n  swap1\n  pop\n    /* \"#utility.yul\":1865:1940   */\n  swap2\n  swap1\n  pop\n  jump\t// out\n    /* \"#utility.yul\":1946:2215   */\ntag_17:\n    /* \"#utility.yul\":2056:2095   */\n  tag_47\n    /* \"#utility.yul\":2087:2094   */\n  dup4\n    /* \"#utility.yul\":2056:2095   */\n  tag_15\n  jump\t// in\ntag_47:\n    /* \"#utility.yul\":2117:2208   */\n  tag_48\n    /* \"#utility.yul\":2166:2207   */\n  tag_49\n    /* \"#utility.yul\":2190:2206   */\n  dup3\n    /* \"#utility.yul\":2166:2207   */\n  tag_16\n  jump\t// in\ntag_49:\n    /* \"#utility.yul\":2158:2164   */\n  dup5\n    /* \"#utility.yul\":2151:2155   */\n  dup5\n    /* \"#utility.yul\":2145:2156   */\n  sload\n    /* \"#utility.yul\":2117:2208   */\n  tag_12\n  jump\t// in\ntag_48:\n    /* \"#utility.yul\":2111:2115   */\n  dup3\n    /* \"#utility.yul\":2104:2209   */\n  sstore\n    /* \"#utility.yul\":2022:2215   */\n  pop\n    /* \"#utility.yul\":1946:2215   */\n  pop\n  pop\n  pop\n  jump\t// out\n    /* \"#utility.yul\":2221:2294   */\ntag_18:\n    /* \"#utility.yul\":2266:2269   */\n  0x00\n    /* \"#utility.yul\":2221:2294   */\n  swap1\n  jump\t// out\n    /* \"#utility.yul\":2300:2489   */\ntag_19:\n    /* \"#utility.yul\":2377:2409   */\n  tag_52\n  tag_18\n  jump\t// in\ntag_52:\n    /* \"#utility.yul\":2418:2483   */\n  tag_53\n    /* \"#utility.yul\":2476:2482   */\n  dup2\n    /* \"#utility.yul\":2468:2474   */\n  dup5\n    /* \"#utility.yul\":2462:2466   */\n  dup5\n    /* \"#utility.yul\":2418:2483   */\n  tag_17\n  jump\t// in\ntag_53:\n    /* \"#utility.yul\":2353:2489   */\n  pop\n    /* \"#utility.yul\":2300:2489   */\n  pop\n  pop\n  jump\t// out\n    /* \"#utility.yul\":2495:2681   */\ntag_20:\n    /* \"#utility.yul\":2555:2675   */\ntag_55:\n    /* \"#utility.yul\":2572:2575   */\n  dup2\n    /* \"#utility.yul\":2565:2570   */\n  dup2\n    /* \"#utility.yul\":2562:2576   */\n  lt\n    /* \"#utility.yul\":2555:2675   */\n  iszero\n  tag_57\n  jumpi\n    /* \"#utility.yul\":2626:2665   */\n  tag_58\n    /* \"#utility.yul\":2663:2664   */\n  0x00\n    /* \"#utility.yul\":2656:2661   */\n  dup3\n    /* \"#utility.yul\":2626:2665   */\n  tag_19\n  jump\t// in\ntag_58:\n    /* \"#utility.yul\":2599:2600   */\n  0x01\n    /* \"#utility.yul\":2592:2597   */\n  dup2\n    /* \"#utility.yul\":2588:2601   */\n  add\n    /* \"#utility.yul\":2579:2601   */\n  swap1\n  pop\n    /* \"#utility.yul\":2555:2675   */\n  jump(tag_55)\ntag_57:\n    /* \"#utility.yul\":2495:2681   */\n  pop\n  pop\n  jump\t// out\n    /* \"#utility.yul\":2687:3230   */\ntag_21:\n    /* \"#utility.yul\":2788:2790   */\n  0x1f\n    /* \"#utility.yul\":2783:2786   */\n  dup3\n    /* \"#utility.yul\":2780:2791   */\n  gt\n    /* \"#utility.yul\":2777:3223   */\n  iszero\n  tag_60\n  jumpi\n    /* \"#utility.yul\":2822:2860   */\n  tag_61\n    /* \"#utility.yul\":2854:2859   */\n  dup2\n    /* \"#utility.yul\":2822:2860   */\n  tag_9\n  jump\t// in\ntag_61:\n    /* \"#utility.yul\":2906:2935   */\n  tag_62\n    /* \"#utility.yul\":2924:2934   */\n  dup5\n    /* \"#utility.yul\":2906:2935   */\n  tag_10\n  jump\t// in\ntag_62:\n    /* \"#utility.yul\":2896:2904   */\n  dup2\n    /* \"#utility.yul\":2892:2936   */\n  add\n    /* \"#utility.yul\":3089:3091   */\n  0x20\n    /* \"#utility.yul\":3077:3087   */\n  dup6\n    /* \"#utility.yul\":3074:3092   */\n  lt\n    /* \"#utility.yul\":3071:3120   */\n  iszero\n  tag_63\n  jumpi\n    /* \"#utility.yul\":3110:3118   */\n  dup2\n    /* \"#utility.yul\":3095:3118   */\n  swap1\n  pop\n    /* \"#utility.yul\":3071:3120   */\ntag_63:\n    /* \"#utility.yul\":3133:3213   */\n  tag_64\n    /* \"#utility.yul\":3189:3211   */\n  tag_65\n    /* \"#utility.yul\":3207:3210   */\n  dup6\n    /* \"#utility.yul\":3189:3211   */\n  tag_10\n  jump\t// in\ntag_65:\n    /* \"#utility.yul\":3179:3187   */\n  dup4\n    /* \"#utility.yul\":3175:3212   */\n  add\n    /* \"#utility.yul\":3162:3173   */\n  dup3\n    /* \"#utility.yul\":3133:3213   */\n  tag_20\n  jump\t// in\ntag_64:\n    /* \"#utility.yul\":2792:3223   */\n  pop\n  pop\n    /* \"#utility.yul\":2777:3223   */\ntag_60:\n    /* \"#utility.yul\":2687:3230   */\n  pop\n  pop\n  pop\n  jump\t// out\n    /* \"#utility.yul\":3236:3353   */\ntag_22:\n    /* \"#utility.yul\":3290:3298   */\n  0x00\n    /* \"#utility.yul\":3340:3345   */\n  dup3\n    /* \"#utility.yul\":3334:3338   */\n  dup3\n    /* \"#utility.yul\":3330:3346   */\n  shr\n    /* \"#utility.yul\":3309:3346   */\n  swap1\n  pop\n    /* \"#utility.yul\":3236:3353   */\n  swap3\n  swap2\n  pop\n  pop\n  jump\t// out\n    /* \"#utility.yul\":3359:3528   */\ntag_23:\n    /* \"#utility.yul\":3403:3409   */\n  0x00\n    /* \"#utility.yul\":3436:3487   */\n  tag_68\n    /* \"#utility.yul\":3484:3485   */\n  0x00\n    /* \"#utility.yul\":3480:3486   */\n  not\n    /* \"#utility.yul\":3472:3477   */\n  dup5\n    /* \"#utility.yul\":3469:3470   */\n  0x08\n    /* \"#utility.yul\":3465:3478   */\n  mul\n    /* \"#utility.yul\":3436:3487   */\n  tag_22\n  jump\t// in\ntag_68:\n    /* \"#utility.yul\":3432:3488   */\n  not\n    /* \"#utility.yul\":3517:3521   */\n  dup1\n    /* \"#utility.yul\":3511:3515   */\n  dup4\n    /* \"#utility.yul\":3507:3522   */\n  and\n    /* \"#utility.yul\":3497:3522   */\n  swap2\n  pop\n    /* \"#utility.yul\":3410:3528   */\n  pop\n    /* \"#utility.yul\":3359:3528   */\n  swap3\n  swap2\n  pop\n  pop\n  jump\t// out\n    /* \"#utility.yul\":3533:3828   */\ntag_24:\n    /* \"#utility.yul\":3609:3613   */\n  0x00\n    /* \"#utility.yul\":3755:3784   */\n  tag_70\n    /* \"#utility.yul\":3780:3783   */\n  dup4\n    /* \"#utility.yul\":3774:3778   */\n  dup4\n    /* \"#utility.yul\":3755:3784   */\n  tag_23\n  jump\t// in\ntag_70:\n    /* \"#utility.yul\":3747:3784   */\n  swap2\n  pop\n    /* \"#utility.yul\":3817:3820   */\n  dup3\n    /* \"#utility.yul\":3814:3815   */\n  0x02\n    /* \"#utility.yul\":3810:3821   */\n  mul\n    /* \"#utility.yul\":3804:3808   */\n  dup3\n    /* \"#utility.yul\":3801:3822   */\n  or\n    /* \"#utility.yul\":3793:3822   */\n  swap1\n  pop\n    /* \"#utility.yul\":3533:3828   */\n  swap3\n  swap2\n  pop\n  pop\n  jump\t// out\n    /* \"#utility.yul\":3833:5228   */\ntag_2:\n    /* \"#utility.yul\":3950:3987   */\n  tag_72\n    /* \"#utility.yul\":3983:3986   */\n  dup3\n    /* \"#utility.yul\":3950:3987   */\n  tag_5\n  jump\t// in\ntag_72:\n    /* \"#utility.yul\":4052:4070   */\n  0xffffffffffffffff\n    /* \"#utility.yul\":4044:4050   */\n  dup2\n    /* \"#utility.yul\":4041:4071   */\n  gt\n    /* \"#utility.yul\":4038:4094   */\n  iszero\n  tag_73\n  jumpi\n    /* \"#utility.yul\":4074:4092   */\n  tag_74\n  tag_6\n  jump\t// in\ntag_74:\n    /* \"#utility.yul\":4038:4094   */\ntag_73:\n    /* \"#utility.yul\":4118:4156   */\n  tag_75\n    /* \"#utility.yul\":4150:4154   */\n  dup3\n    /* \"#utility.yul\":4144:4155   */\n  sload\n    /* \"#utility.yul\":4118:4156   */\n  tag_8\n  jump\t// in\ntag_75:\n    /* \"#utility.yul\":4203:4270   */\n  tag_76\n    /* \"#utility.yul\":4263:4269   */\n  dup3\n    /* \"#utility.yul\":4255:4261   */\n  dup3\n    /* \"#utility.yul\":4249:4253   */\n  dup6\n    /* \"#utility.yul\":4203:4270   */\n  tag_21\n  jump\t// in\ntag_76:\n    /* \"#utility.yul\":4297:4298   */\n  0x00\n    /* \"#utility.yul\":4321:4325   */\n  0x20\n    /* \"#utility.yul\":4308:4325   */\n  swap1\n  pop\n    /* \"#utility.yul\":4353:4355   */\n  0x1f\n    /* \"#utility.yul\":4345:4351   */\n  dup4\n    /* \"#utility.yul\":4342:4356   */\n  gt\n    /* \"#utility.yul\":4370:4371   */\n  0x01\n    /* \"#utility.yul\":4365:4983   */\n  dup2\n  eq\n  tag_78\n  jumpi\n    /* \"#utility.yul\":5027:5028   */\n  0x00\n    /* \"#utility.yul\":5044:5050   */\n  dup5\n    /* \"#utility.yul\":5041:5118   */\n  iszero\n  tag_79\n  jumpi\n    /* \"#utility.yul\":5093:5102   */\n  dup3\n    /* \"#utility.yul\":5088:5091   */\n  dup8\n    /* \"#utility.yul\":5084:5103   */\n  add\n    /* \"#utility.yul\":5078:5104   */\n  mload\n    /* \"#utility.yul\":5069:5104   */\n  swap1\n  pop\n    /* \"#utility.yul\":5041:5118   */\ntag_79:\n    /* \"#utility.yul\":5144:5211   */\n  tag_80\n    /* \"#utility.yul\":5204:5210   */\n  dup6\n    /* \"#utility.yul\":5197:5202   */\n  dup3\n    /* \"#utility.yul\":5144:5211   */\n  tag_24\n  jump\t// in\ntag_80:\n    /* \"#utility.yul\":5138:5142   */\n  dup7\n    /* \"#utility.yul\":5131:5212   */\n  sstore\n    /* \"#utility.yul\":5000:5222   */\n  pop\n    /* \"#utility.yul\":4335:5222   */\n  jump(tag_77)\n    /* \"#utility.yul\":4365:4983   */\ntag_78:\n    /* \"#utility.yul\":4417:4421   */\n  0x1f\n    /* \"#utility.yul\":4413:4422   */\n  not\n    /* \"#utility.yul\":4405:4411   */\n  dup5\n    /* \"#utility.yul\":4401:4423   */\n  and\n    /* \"#utility.yul\":4451:4488   */\n  tag_81\n    /* \"#utility.yul\":4483:4487   */\n  dup7\n    /* \"#utility.yul\":4451:4488   */\n  tag_9\n  jump\t// in\ntag_81:\n    /* \"#utility.yul\":4510:4511   */\n  0x00\n    /* \"#utility.yul\":4524:4732   */\ntag_82:\n    /* \"#utility.yul\":4538:4545   */\n  dup3\n    /* \"#utility.yul\":4535:4536   */\n  dup2\n    /* \"#utility.yul\":4532:4546   */\n  lt\n    /* \"#utility.yul\":4524:4732   */\n  iszero\n  tag_84\n  jumpi\n    /* \"#utility.yul\":4617:4626   */\n  dup5\n    /* \"#utility.yul\":4612:4615   */\n  dup10\n    /* \"#utility.yul\":4608:4627   */\n  add\n    /* \"#utility.yul\":4602:4628   */\n  mload\n    /* \"#utility.yul\":4594:4600   */\n  dup3\n    /* \"#utility.yul\":4587:4629   */\n  sstore\n    /* \"#utility.yul\":4668:4669   */\n  0x01\n    /* \"#utility.yul\":4660:4666   */\n  dup3\n    /* \"#utility.yul\":4656:4670   */\n  add\n    /* \"#utility.yul\":4646:4670   */\n  swap2\n  pop\n    /* \"#utility.yul\":4715:4717   */\n  0x20\n    /* \"#utility.yul\":4704:4713   */\n  dup6\n    /* \"#utility.yul\":4700:4718   */\n  add\n    /* \"#utility.yul\":4687:4718   */\n  swap5\n  pop\n    /* \"#utility.yul\":4561:4565   */\n  0x20\n    /* \"#utility.yul\":4558:4559   */\n  dup2\n    /* \"#utility.yul\":4554:4566   */\n  add\n    /* \"#utility.yul\":4549:4566   */\n  swap1\n  pop\n    /* \"#utility.yul\":4524:4732   */\n  jump(tag_82)\ntag_84:\n    /* \"#utility.yul\":4760:4766   */\n  dup7\n    /* \"#utility.yul\":4751:4758   */\n  dup4\n    /* \"#utility.yul\":4748:4767   */\n  lt\n    /* \"#utility.yul\":4745:4924   */\n  iszero\n  tag_85\n  jumpi\n    /* \"#utility.yul\":4818:4827   */\n  dup5\n    /* \"#utility.yul\":4813:4816   */\n  dup10\n    /* \"#utility.yul\":4809:4828   */\n  add\n    /* \"#utility.yul\":4803:4829   */\n  mload\n    /* \"#utility.yul\":4861:4909   */\n  tag_86\n    /* \"#utility.yul\":4903:4907   */\n  0x1f\n    /* \"#utility.yul\":4895:4901   */\n  dup10\n    /* \"#utility.yul\":4891:4908   */\n  and\n    /* \"#utility.yul\":4880:4889   */\n  dup3\n    /* \"#utility.yul\":4861:4909   */\n  tag_23\n  jump\t// in\ntag_86:\n    /* \"#utility.yul\":4853:4859   */\n  dup4\n    /* \"#utility.yul\":4846:4910   */\n  sstore\n    /* \"#utility.yul\":4768:4924   */\n  pop\n    /* \"#utility.yul\":4745:4924   */\ntag_85:\n    /* \"#utility.yul\":4970:4971   */\n  0x01\n    /* \"#utility.yul\":4966:4967   */\n  0x02\n    /* \"#utility.yul\":4958:4964   */\n  dup9\n    /* \"#utility.yul\":4954:4968   */\n  mul\n    /* \"#utility.yul\":4950:4972   */\n  add\n    /* \"#utility.yul\":4944:4948   */\n  dup9\n    /* \"#utility.yul\":4937:4973   */\n  sstore\n    /* \"#utility.yul\":4372:4983   */\n  pop\n  pop\n  pop\n    /* \"#utility.yul\":4335:5222   */\ntag_77:\n  pop\n    /* \"#utility.yul\":3925:5228   */\n  pop\n  pop\n  pop\n    /* \"#utility.yul\":3833:5228   */\n  pop\n  pop\n  jump\t// out\n    /* \"Example_Calls/CallFromOther.sol\":424:800  contract CallFromOther{... */\ntag_4:\n  dataSize(sub_0)\n  dup1\n  dataOffset(sub_0)\n  0x00\n  codecopy\n  0x00\n  return\nstop\n\nsub_0: assembly {\n        /* \"Example_Calls/CallFromOther.sol\":424:800  contract CallFromOther{... */\n      mstore(0x40, 0x80)\n      jumpi(tag_1, lt(calldatasize, 0x04))\n      shr(0xe0, calldataload(0x00))\n      dup1\n      0x0c11dedd\n      eq\n      tag_2\n      jumpi\n      dup1\n      0x17d7de7c\n      eq\n      tag_3\n      jumpi\n      dup1\n      0xc47f0027\n      eq\n      tag_4\n      jumpi\n      dup1\n      0xe2982c21\n      eq\n      tag_5\n      jumpi\n    tag_1:\n      0x00\n      dup1\n      revert\n        /* \"Example_Calls/CallFromOther.sol\":707:798  function pay(address _payer) external payable {... */\n    tag_2:\n      tag_6\n      0x04\n      dup1\n      calldatasize\n      sub\n      dup2\n      add\n      swap1\n      tag_7\n      swap2\n      swap1\n      tag_8\n      jump\t// in\n    tag_7:\n      tag_9\n      jump\t// in\n    tag_6:\n      stop\n        /* \"Example_Calls/CallFromOther.sol\":526:611  function getName() external view returns (string memory) {... */\n    tag_3:\n      callvalue\n      dup1\n      iszero\n      tag_10\n      jumpi\n      0x00\n      dup1\n      revert\n    tag_10:\n      pop\n      tag_11\n      tag_12\n      jump\t// in\n    tag_11:\n      mload(0x40)\n      tag_13\n      swap2\n      swap1\n      tag_14\n      jump\t// in\n    tag_13:\n      mload(0x40)\n      dup1\n      swap2\n      sub\n      swap1\n      return\n        /* \"Example_Calls/CallFromOther.sol\":617:701  function setName(string calldata _newName) external {... */\n    tag_4:\n      callvalue\n      dup1\n      iszero\n      tag_15\n      jumpi\n      0x00\n      dup1\n      revert\n    tag_15:\n      pop\n      tag_16\n      0x04\n      dup1\n      calldatasize\n      sub\n      dup2\n      add\n      swap1\n      tag_17\n      swap2\n      swap1\n      tag_18\n      jump\t// in\n    tag_17:\n      tag_19\n      jump\t// in\n    tag_16:\n      stop\n        /* \"Example_Calls/CallFromOther.sol\":478:519  mapping (address => uint) public payments */\n    tag_5:\n      callvalue\n      dup1\n      iszero\n      tag_20\n      jumpi\n      0x00\n      dup1\n      revert\n    tag_20:\n      pop\n      tag_21\n      0x04\n      dup1\n      calldatasize\n      sub\n      dup2\n      add\n      swap1\n      tag_22\n      swap2\n      swap1\n      tag_8\n      jump\t// in\n    tag_22:\n      tag_23\n      jump\t// in\n    tag_21:\n      mload(0x40)\n      tag_24\n      swap2\n      swap1\n      tag_25\n      jump\t// in\n    tag_24:\n      mload(0x40)\n      dup1\n      swap2\n      sub\n      swap1\n      return\n        /* \"Example_Calls/CallFromOther.sol\":707:798  function pay(address _payer) external payable {... */\n    tag_9:\n        /* \"Example_Calls/CallFromOther.sol\":782:791  msg.value */\n      callvalue\n        /* \"Example_Calls/CallFromOther.sol\":763:771  payments */\n      0x01\n        /* \"Example_Calls/CallFromOther.sol\":763:779  payments[_payer] */\n      0x00\n        /* \"Example_Calls/CallFromOther.sol\":772:778  _payer */\n      dup4\n        /* \"Example_Calls/CallFromOther.sol\":763:779  payments[_payer] */\n      0xffffffffffffffffffffffffffffffffffffffff\n      and\n      0xffffffffffffffffffffffffffffffffffffffff\n      and\n      dup2\n      mstore\n      0x20\n      add\n      swap1\n      dup2\n      mstore\n      0x20\n      add\n      0x00\n      keccak256\n        /* \"Example_Calls/CallFromOther.sol\":763:791  payments[_payer] = msg.value */\n      dup2\n      swap1\n      sstore\n      pop\n        /* \"Example_Calls/CallFromOther.sol\":707:798  function pay(address _payer) external payable {... */\n      pop\n      jump\t// out\n        /* \"Example_Calls/CallFromOther.sol\":526:611  function getName() external view returns (string memory) {... */\n    tag_12:\n        /* \"Example_Calls/CallFromOther.sol\":568:581  string memory */\n      0x60\n        /* \"Example_Calls/CallFromOther.sol\":600:604  name */\n      0x00\n        /* \"Example_Calls/CallFromOther.sol\":593:604  return name */\n      dup1\n      sload\n      tag_28\n      swap1\n      tag_29\n      jump\t// in\n    tag_28:\n      dup1\n      0x1f\n      add\n      0x20\n      dup1\n      swap2\n      div\n      mul\n      0x20\n      add\n      mload(0x40)\n      swap1\n      dup2\n      add\n      0x40\n      mstore\n      dup1\n      swap3\n      swap2\n      swap1\n      dup2\n      dup2\n      mstore\n      0x20\n      add\n      dup3\n      dup1\n      sload\n      tag_30\n      swap1\n      tag_29\n      jump\t// in\n    tag_30:\n      dup1\n      iszero\n      tag_31\n      jumpi\n      dup1\n      0x1f\n      lt\n      tag_32\n      jumpi\n      0x0100\n      dup1\n      dup4\n      sload\n      div\n      mul\n      dup4\n      mstore\n      swap2\n      0x20\n      add\n      swap2\n      jump(tag_31)\n    tag_32:\n      dup3\n      add\n      swap2\n      swap1\n      0x00\n      mstore\n      keccak256(0x00, 0x20)\n      swap1\n    tag_33:\n      dup2\n      sload\n      dup2\n      mstore\n      swap1\n      0x01\n      add\n      swap1\n      0x20\n      add\n      dup1\n      dup4\n      gt\n      tag_33\n      jumpi\n      dup3\n      swap1\n      sub\n      0x1f\n      and\n      dup3\n      add\n      swap2\n    tag_31:\n      pop\n      pop\n      pop\n      pop\n      pop\n      swap1\n      pop\n        /* \"Example_Calls/CallFromOther.sol\":526:611  function getName() external view returns (string memory) {... */\n      swap1\n      jump\t// out\n        /* \"Example_Calls/CallFromOther.sol\":617:701  function setName(string calldata _newName) external {... */\n    tag_19:\n        /* \"Example_Calls/CallFromOther.sol\":686:694  _newName */\n      dup2\n      dup2\n        /* \"Example_Calls/CallFromOther.sol\":679:683  name */\n      0x00\n        /* \"Example_Calls/CallFromOther.sol\":679:694  name = _newName */\n      swap2\n      dup3\n      tag_35\n      swap3\n      swap2\n      swap1\n      tag_36\n      jump\t// in\n    tag_35:\n      pop\n        /* \"Example_Calls/CallFromOther.sol\":617:701  function setName(string calldata _newName) external {... */\n      pop\n      pop\n      jump\t// out\n        /* \"Example_Calls/CallFromOther.sol\":478:519  mapping (address => uint) public payments */\n    tag_23:\n      mstore(0x20, 0x01)\n      dup1\n      0x00\n      mstore\n      keccak256(0x00, 0x40)\n      0x00\n      swap2\n      pop\n      swap1\n      pop\n      sload\n      dup2\n      jump\t// out\n        /* \"#utility.yul\":88:205   */\n    tag_38:\n        /* \"#utility.yul\":197:198   */\n      0x00\n        /* \"#utility.yul\":194:195   */\n      dup1\n        /* \"#utility.yul\":187:199   */\n      revert\n        /* \"#utility.yul\":211:328   */\n    tag_39:\n        /* \"#utility.yul\":320:321   */\n      0x00\n        /* \"#utility.yul\":317:318   */\n      dup1\n        /* \"#utility.yul\":310:322   */\n      revert\n        /* \"#utility.yul\":334:460   */\n    tag_40:\n        /* \"#utility.yul\":371:378   */\n      0x00\n        /* \"#utility.yul\":411:453   */\n      0xffffffffffffffffffffffffffffffffffffffff\n        /* \"#utility.yul\":404:409   */\n      dup3\n        /* \"#utility.yul\":400:454   */\n      and\n        /* \"#utility.yul\":389:454   */\n      swap1\n      pop\n        /* \"#utility.yul\":334:460   */\n      swap2\n      swap1\n      pop\n      jump\t// out\n        /* \"#utility.yul\":466:562   */\n    tag_41:\n        /* \"#utility.yul\":503:510   */\n      0x00\n        /* \"#utility.yul\":532:556   */\n      tag_79\n        /* \"#utility.yul\":550:555   */\n      dup3\n        /* \"#utility.yul\":532:556   */\n      tag_40\n      jump\t// in\n    tag_79:\n        /* \"#utility.yul\":521:556   */\n      swap1\n      pop\n        /* \"#utility.yul\":466:562   */\n      swap2\n      swap1\n      pop\n      jump\t// out\n        /* \"#utility.yul\":568:690   */\n    tag_42:\n        /* \"#utility.yul\":641:665   */\n      tag_81\n        /* \"#utility.yul\":659:664   */\n      dup2\n        /* \"#utility.yul\":641:665   */\n      tag_41\n      jump\t// in\n    tag_81:\n        /* \"#utility.yul\":634:639   */\n      dup2\n        /* \"#utility.yul\":631:666   */\n      eq\n        /* \"#utility.yul\":621:684   */\n      tag_82\n      jumpi\n        /* \"#utility.yul\":680:681   */\n      0x00\n        /* \"#utility.yul\":677:678   */\n      dup1\n        /* \"#utility.yul\":670:682   */\n      revert\n        /* \"#utility.yul\":621:684   */\n    tag_82:\n        /* \"#utility.yul\":568:690   */\n      pop\n      jump\t// out\n        /* \"#utility.yul\":696:835   */\n    tag_43:\n        /* \"#utility.yul\":742:747   */\n      0x00\n        /* \"#utility.yul\":780:786   */\n      dup2\n        /* \"#utility.yul\":767:787   */\n      calldataload\n        /* \"#utility.yul\":758:787   */\n      swap1\n      pop\n        /* \"#utility.yul\":796:829   */\n      tag_84\n        /* \"#utility.yul\":823:828   */\n      dup2\n        /* \"#utility.yul\":796:829   */\n      tag_42\n      jump\t// in\n    tag_84:\n        /* \"#utility.yul\":696:835   */\n      swap3\n      swap2\n      pop\n      pop\n      jump\t// out\n        /* \"#utility.yul\":841:1170   */\n    tag_8:\n        /* \"#utility.yul\":900:906   */\n      0x00\n        /* \"#utility.yul\":949:951   */\n      0x20\n        /* \"#utility.yul\":937:946   */\n      dup3\n        /* \"#utility.yul\":928:935   */\n      dup5\n        /* \"#utility.yul\":924:947   */\n      sub\n        /* \"#utility.yul\":920:952   */\n      slt\n        /* \"#utility.yul\":917:1036   */\n      iszero\n      tag_86\n      jumpi\n        /* \"#utility.yul\":955:1034   */\n      tag_87\n      tag_38\n      jump\t// in\n    tag_87:\n        /* \"#utility.yul\":917:1036   */\n    tag_86:\n        /* \"#utility.yul\":1075:1076   */\n      0x00\n        /* \"#utility.yul\":1100:1153   */\n      tag_88\n        /* \"#utility.yul\":1145:1152   */\n      dup5\n        /* \"#utility.yul\":1136:1142   */\n      dup3\n        /* \"#utility.yul\":1125:1134   */\n      dup6\n        /* \"#utility.yul\":1121:1143   */\n      add\n        /* \"#utility.yul\":1100:1153   */\n      tag_43\n      jump\t// in\n    tag_88:\n        /* \"#utility.yul\":1090:1153   */\n      swap2\n      pop\n        /* \"#utility.yul\":1046:1163   */\n      pop\n        /* \"#utility.yul\":841:1170   */\n      swap3\n      swap2\n      pop\n      pop\n      jump\t// out\n        /* \"#utility.yul\":1176:1275   */\n    tag_44:\n        /* \"#utility.yul\":1228:1234   */\n      0x00\n        /* \"#utility.yul\":1262:1267   */\n      dup2\n        /* \"#utility.yul\":1256:1268   */\n      mload\n        /* \"#utility.yul\":1246:1268   */\n      swap1\n      pop\n        /* \"#utility.yul\":1176:1275   */\n      swap2\n      swap1\n      pop\n      jump\t// out\n        /* \"#utility.yul\":1281:1450   */\n    tag_45:\n        /* \"#utility.yul\":1365:1376   */\n      0x00\n        /* \"#utility.yul\":1399:1405   */\n      dup3\n        /* \"#utility.yul\":1394:1397   */\n      dup3\n        /* \"#utility.yul\":1387:1406   */\n      mstore\n        /* \"#utility.yul\":1439:1443   */\n      0x20\n        /* \"#utility.yul\":1434:1437   */\n      dup3\n        /* \"#utility.yul\":1430:1444   */\n      add\n        /* \"#utility.yul\":1415:1444   */\n      swap1\n      pop\n        /* \"#utility.yul\":1281:1450   */\n      swap3\n      swap2\n      pop\n      pop\n      jump\t// out\n        /* \"#utility.yul\":1456:1595   */\n    tag_46:\n        /* \"#utility.yul\":1545:1551   */\n      dup3\n        /* \"#utility.yul\":1540:1543   */\n      dup2\n        /* \"#utility.yul\":1535:1538   */\n      dup4\n        /* \"#utility.yul\":1529:1552   */\n      mcopy\n        /* \"#utility.yul\":1586:1587   */\n      0x00\n        /* \"#utility.yul\":1577:1583   */\n      dup4\n        /* \"#utility.yul\":1572:1575   */\n      dup4\n        /* \"#utility.yul\":1568:1584   */\n      add\n        /* \"#utility.yul\":1561:1588   */\n      mstore\n        /* \"#utility.yul\":1456:1595   */\n      pop\n      pop\n      pop\n      jump\t// out\n        /* \"#utility.yul\":1601:1703   */\n    tag_47:\n        /* \"#utility.yul\":1642:1648   */\n      0x00\n        /* \"#utility.yul\":1693:1695   */\n      0x1f\n        /* \"#utility.yul\":1689:1696   */\n      not\n        /* \"#utility.yul\":1684:1686   */\n      0x1f\n        /* \"#utility.yul\":1677:1682   */\n      dup4\n        /* \"#utility.yul\":1673:1687   */\n      add\n        /* \"#utility.yul\":1669:1697   */\n      and\n        /* \"#utility.yul\":1659:1697   */\n      swap1\n      pop\n        /* \"#utility.yul\":1601:1703   */\n      swap2\n      swap1\n      pop\n      jump\t// out\n        /* \"#utility.yul\":1709:2086   */\n    tag_48:\n        /* \"#utility.yul\":1797:1800   */\n      0x00\n        /* \"#utility.yul\":1825:1864   */\n      tag_94\n        /* \"#utility.yul\":1858:1863   */\n      dup3\n        /* \"#utility.yul\":1825:1864   */\n      tag_44\n      jump\t// in\n    tag_94:\n        /* \"#utility.yul\":1880:1951   */\n      tag_95\n        /* \"#utility.yul\":1944:1950   */\n      dup2\n        /* \"#utility.yul\":1939:1942   */\n      dup6\n        /* \"#utility.yul\":1880:1951   */\n      tag_45\n      jump\t// in\n    tag_95:\n        /* \"#utility.yul\":1873:1951   */\n      swap4\n      pop\n        /* \"#utility.yul\":1960:2025   */\n      tag_96\n        /* \"#utility.yul\":2018:2024   */\n      dup2\n        /* \"#utility.yul\":2013:2016   */\n      dup6\n        /* \"#utility.yul\":2006:2010   */\n      0x20\n        /* \"#utility.yul\":1999:2004   */\n      dup7\n        /* \"#utility.yul\":1995:2011   */\n      add\n        /* \"#utility.yul\":1960:2025   */\n      tag_46\n      jump\t// in\n    tag_96:\n        /* \"#utility.yul\":2050:2079   */\n      tag_97\n        /* \"#utility.yul\":2072:2078   */\n      dup2\n        /* \"#utility.yul\":2050:2079   */\n      tag_47\n      jump\t// in\n    tag_97:\n        /* \"#utility.yul\":2045:2048   */\n      dup5\n        /* \"#utility.yul\":2041:2080   */\n      add\n        /* \"#utility.yul\":2034:2080   */\n      swap2\n      pop\n        /* \"#utility.yul\":1801:2086   */\n      pop\n        /* \"#utility.yul\":1709:2086   */\n      swap3\n      swap2\n      pop\n      pop\n      jump\t// out\n        /* \"#utility.yul\":2092:2405   */\n    tag_14:\n        /* \"#utility.yul\":2205:2209   */\n      0x00\n        /* \"#utility.yul\":2243:2245   */\n      0x20\n        /* \"#utility.yul\":2232:2241   */\n      dup3\n        /* \"#utility.yul\":2228:2246   */\n      add\n        /* \"#utility.yul\":2220:2246   */\n      swap1\n      pop\n        /* \"#utility.yul\":2292:2301   */\n      dup2\n        /* \"#utility.yul\":2286:2290   */\n      dup2\n        /* \"#utility.yul\":2282:2302   */\n      sub\n        /* \"#utility.yul\":2278:2279   */\n      0x00\n        /* \"#utility.yul\":2267:2276   */\n      dup4\n        /* \"#utility.yul\":2263:2280   */\n      add\n        /* \"#utility.yul\":2256:2303   */\n      mstore\n        /* \"#utility.yul\":2320:2398   */\n      tag_99\n        /* \"#utility.yul\":2393:2397   */\n      dup2\n        /* \"#utility.yul\":2384:2390   */\n      dup5\n        /* \"#utility.yul\":2320:2398   */\n      tag_48\n      jump\t// in\n    tag_99:\n        /* \"#utility.yul\":2312:2398   */\n      swap1\n      pop\n        /* \"#utility.yul\":2092:2405   */\n      swap3\n      swap2\n      pop\n      pop\n      jump\t// out\n        /* \"#utility.yul\":2411:2528   */\n    tag_49:\n        /* \"#utility.yul\":2520:2521   */\n      0x00\n        /* \"#utility.yul\":2517:2518   */\n      dup1\n        /* \"#utility.yul\":2510:2522   */\n      revert\n        /* \"#utility.yul\":2534:2651   */\n    tag_50:\n        /* \"#utility.yul\":2643:2644   */\n      0x00\n        /* \"#utility.yul\":2640:2641   */\n      dup1\n        /* \"#utility.yul\":2633:2645   */\n      revert\n        /* \"#utility.yul\":2657:2774   */\n    tag_51:\n        /* \"#utility.yul\":2766:2767   */\n      0x00\n        /* \"#utility.yul\":2763:2764   */\n      dup1\n        /* \"#utility.yul\":2756:2768   */\n      revert\n        /* \"#utility.yul\":2794:3347   */\n    tag_52:\n        /* \"#utility.yul\":2852:2860   */\n      0x00\n        /* \"#utility.yul\":2862:2868   */\n      dup1\n        /* \"#utility.yul\":2912:2915   */\n      dup4\n        /* \"#utility.yul\":2905:2909   */\n      0x1f\n        /* \"#utility.yul\":2897:2903   */\n      dup5\n        /* \"#utility.yul\":2893:2910   */\n      add\n        /* \"#utility.yul\":2889:2916   */\n      slt\n        /* \"#utility.yul\":2879:3001   */\n      tag_104\n      jumpi\n        /* \"#utility.yul\":2920:2999   */\n      tag_105\n      tag_49\n      jump\t// in\n    tag_105:\n        /* \"#utility.yul\":2879:3001   */\n    tag_104:\n        /* \"#utility.yul\":3033:3039   */\n      dup3\n        /* \"#utility.yul\":3020:3040   */\n      calldataload\n        /* \"#utility.yul\":3010:3040   */\n      swap1\n      pop\n        /* \"#utility.yul\":3063:3081   */\n      0xffffffffffffffff\n        /* \"#utility.yul\":3055:3061   */\n      dup2\n        /* \"#utility.yul\":3052:3082   */\n      gt\n        /* \"#utility.yul\":3049:3166   */\n      iszero\n      tag_106\n      jumpi\n        /* \"#utility.yul\":3085:3164   */\n      tag_107\n      tag_50\n      jump\t// in\n    tag_107:\n        /* \"#utility.yul\":3049:3166   */\n    tag_106:\n        /* \"#utility.yul\":3199:3203   */\n      0x20\n        /* \"#utility.yul\":3191:3197   */\n      dup4\n        /* \"#utility.yul\":3187:3204   */\n      add\n        /* \"#utility.yul\":3175:3204   */\n      swap2\n      pop\n        /* \"#utility.yul\":3253:3256   */\n      dup4\n        /* \"#utility.yul\":3245:3249   */\n      0x01\n        /* \"#utility.yul\":3237:3243   */\n      dup3\n        /* \"#utility.yul\":3233:3250   */\n      mul\n        /* \"#utility.yul\":3223:3231   */\n      dup4\n        /* \"#utility.yul\":3219:3251   */\n      add\n        /* \"#utility.yul\":3216:3257   */\n      gt\n        /* \"#utility.yul\":3213:3341   */\n      iszero\n      tag_108\n      jumpi\n        /* \"#utility.yul\":3260:3339   */\n      tag_109\n      tag_51\n      jump\t// in\n    tag_109:\n        /* \"#utility.yul\":3213:3341   */\n    tag_108:\n        /* \"#utility.yul\":2794:3347   */\n      swap3\n      pop\n      swap3\n      swap1\n      pop\n      jump\t// out\n        /* \"#utility.yul\":3353:3882   */\n    tag_18:\n        /* \"#utility.yul\":3424:3430   */\n      0x00\n        /* \"#utility.yul\":3432:3438   */\n      dup1\n        /* \"#utility.yul\":3481:3483   */\n      0x20\n        /* \"#utility.yul\":3469:3478   */\n      dup4\n        /* \"#utility.yul\":3460:3467   */\n      dup6\n        /* \"#utility.yul\":3456:3479   */\n      sub\n        /* \"#utility.yul\":3452:3484   */\n      slt\n        /* \"#utility.yul\":3449:3568   */\n      iszero\n      tag_111\n      jumpi\n        /* \"#utility.yul\":3487:3566   */\n      tag_112\n      tag_38\n      jump\t// in\n    tag_112:\n        /* \"#utility.yul\":3449:3568   */\n    tag_111:\n        /* \"#utility.yul\":3635:3636   */\n      0x00\n        /* \"#utility.yul\":3624:3633   */\n      dup4\n        /* \"#utility.yul\":3620:3637   */\n      add\n        /* \"#utility.yul\":3607:3638   */\n      calldataload\n        /* \"#utility.yul\":3665:3683   */\n      0xffffffffffffffff\n        /* \"#utility.yul\":3657:3663   */\n      dup2\n        /* \"#utility.yul\":3654:3684   */\n      gt\n        /* \"#utility.yul\":3651:3768   */\n      iszero\n      tag_113\n      jumpi\n        /* \"#utility.yul\":3687:3766   */\n      tag_114\n      tag_39\n      jump\t// in\n    tag_114:\n        /* \"#utility.yul\":3651:3768   */\n    tag_113:\n        /* \"#utility.yul\":3800:3865   */\n      tag_115\n        /* \"#utility.yul\":3857:3864   */\n      dup6\n        /* \"#utility.yul\":3848:3854   */\n      dup3\n        /* \"#utility.yul\":3837:3846   */\n      dup7\n        /* \"#utility.yul\":3833:3855   */\n      add\n        /* \"#utility.yul\":3800:3865   */\n      tag_52\n      jump\t// in\n    tag_115:\n        /* \"#utility.yul\":3782:3865   */\n      swap3\n      pop\n      swap3\n      pop\n        /* \"#utility.yul\":3578:3875   */\n      pop\n        /* \"#utility.yul\":3353:3882   */\n      swap3\n      pop\n      swap3\n      swap1\n      pop\n      jump\t// out\n        /* \"#utility.yul\":3888:3965   */\n    tag_53:\n        /* \"#utility.yul\":3925:3932   */\n      0x00\n        /* \"#utility.yul\":3954:3959   */\n      dup2\n        /* \"#utility.yul\":3943:3959   */\n      swap1\n      pop\n        /* \"#utility.yul\":3888:3965   */\n      swap2\n      swap1\n      pop\n      jump\t// out\n        /* \"#utility.yul\":3971:4089   */\n    tag_54:\n        /* \"#utility.yul\":4058:4082   */\n      tag_118\n        /* \"#utility.yul\":4076:4081   */\n      dup2\n        /* \"#utility.yul\":4058:4082   */\n      tag_53\n      jump\t// in\n    tag_118:\n        /* \"#utility.yul\":4053:4056   */\n      dup3\n        /* \"#utility.yul\":4046:4083   */\n      mstore\n        /* \"#utility.yul\":3971:4089   */\n      pop\n      pop\n      jump\t// out\n        /* \"#utility.yul\":4095:4317   */\n    tag_25:\n        /* \"#utility.yul\":4188:4192   */\n      0x00\n        /* \"#utility.yul\":4226:4228   */\n      0x20\n        /* \"#utility.yul\":4215:4224   */\n      dup3\n        /* \"#utility.yul\":4211:4229   */\n      add\n        /* \"#utility.yul\":4203:4229   */\n      swap1\n      pop\n        /* \"#utility.yul\":4239:4310   */\n      tag_120\n        /* \"#utility.yul\":4307:4308   */\n      0x00\n        /* \"#utility.yul\":4296:4305   */\n      dup4\n        /* \"#utility.yul\":4292:4309   */\n      add\n        /* \"#utility.yul\":4283:4289   */\n      dup5\n        /* \"#utility.yul\":4239:4310   */\n      tag_54\n      jump\t// in\n    tag_120:\n        /* \"#utility.yul\":4095:4317   */\n      swap3\n      swap2\n      pop\n      pop\n      jump\t// out\n        /* \"#utility.yul\":4323:4503   */\n    tag_55:\n        /* \"#utility.yul\":4371:4448   */\n      0x4e487b7100000000000000000000000000000000000000000000000000000000\n        /* \"#utility.yul\":4368:4369   */\n      0x00\n        /* \"#utility.yul\":4361:4449   */\n      mstore\n        /* \"#utility.yul\":4468:4472   */\n      0x22\n        /* \"#utility.yul\":4465:4466   */\n      0x04\n        /* \"#utility.yul\":4458:4473   */\n      mstore\n        /* \"#utility.yul\":4492:4496   */\n      0x24\n        /* \"#utility.yul\":4489:4490   */\n      0x00\n        /* \"#utility.yul\":4482:4497   */\n      revert\n        /* \"#utility.yul\":4509:4829   */\n    tag_29:\n        /* \"#utility.yul\":4553:4559   */\n      0x00\n        /* \"#utility.yul\":4590:4591   */\n      0x02\n        /* \"#utility.yul\":4584:4588   */\n      dup3\n        /* \"#utility.yul\":4580:4592   */\n      div\n        /* \"#utility.yul\":4570:4592   */\n      swap1\n      pop\n        /* \"#utility.yul\":4637:4638   */\n      0x01\n        /* \"#utility.yul\":4631:4635   */\n      dup3\n        /* \"#utility.yul\":4627:4639   */\n      and\n        /* \"#utility.yul\":4658:4676   */\n      dup1\n        /* \"#utility.yul\":4648:4729   */\n      tag_123\n      jumpi\n        /* \"#utility.yul\":4714:4718   */\n      0x7f\n        /* \"#utility.yul\":4706:4712   */\n      dup3\n        /* \"#utility.yul\":4702:4719   */\n      and\n        /* \"#utility.yul\":4692:4719   */\n      swap2\n      pop\n        /* \"#utility.yul\":4648:4729   */\n    tag_123:\n        /* \"#utility.yul\":4776:4778   */\n      0x20\n        /* \"#utility.yul\":4768:4774   */\n      dup3\n        /* \"#utility.yul\":4765:4779   */\n      lt\n        /* \"#utility.yul\":4745:4763   */\n      dup2\n        /* \"#utility.yul\":4742:4780   */\n      sub\n        /* \"#utility.yul\":4739:4823   */\n      tag_124\n      jumpi\n        /* \"#utility.yul\":4795:4813   */\n      tag_125\n      tag_55\n      jump\t// in\n    tag_125:\n        /* \"#utility.yul\":4739:4823   */\n    tag_124:\n        /* \"#utility.yul\":4560:4829   */\n      pop\n        /* \"#utility.yul\":4509:4829   */\n      swap2\n      swap1\n      pop\n      jump\t// out\n        /* \"#utility.yul\":4835:4932   */\n    tag_56:\n        /* \"#utility.yul\":4894:4900   */\n      0x00\n        /* \"#utility.yul\":4922:4925   */\n      dup3\n        /* \"#utility.yul\":4912:4925   */\n      swap1\n      pop\n        /* \"#utility.yul\":4835:4932   */\n      swap3\n      swap2\n      pop\n      pop\n      jump\t// out\n        /* \"#utility.yul\":4938:5118   */\n    tag_57:\n        /* \"#utility.yul\":4986:5063   */\n      0x4e487b7100000000000000000000000000000000000000000000000000000000\n        /* \"#utility.yul\":4983:4984   */\n      0x00\n        /* \"#utility.yul\":4976:5064   */\n      mstore\n        /* \"#utility.yul\":5083:5087   */\n      0x41\n        /* \"#utility.yul\":5080:5081   */\n      0x04\n        /* \"#utility.yul\":5073:5088   */\n      mstore\n        /* \"#utility.yul\":5107:5111   */\n      0x24\n        /* \"#utility.yul\":5104:5105   */\n      0x00\n        /* \"#utility.yul\":5097:5112   */\n      revert\n        /* \"#utility.yul\":5124:5265   */\n    tag_58:\n        /* \"#utility.yul\":5173:5177   */\n      0x00\n        /* \"#utility.yul\":5196:5199   */\n      dup2\n        /* \"#utility.yul\":5188:5199   */\n      swap1\n      pop\n        /* \"#utility.yul\":5219:5222   */\n      dup2\n        /* \"#utility.yul\":5216:5217   */\n      0x00\n        /* \"#utility.yul\":5209:5223   */\n      mstore\n        /* \"#utility.yul\":5253:5257   */\n      0x20\n        /* \"#utility.yul\":5250:5251   */\n      0x00\n        /* \"#utility.yul\":5240:5258   */\n      keccak256\n        /* \"#utility.yul\":5232:5258   */\n      swap1\n      pop\n        /* \"#utility.yul\":5124:5265   */\n      swap2\n      swap1\n      pop\n      jump\t// out\n        /* \"#utility.yul\":5271:5364   */\n    tag_59:\n        /* \"#utility.yul\":5308:5314   */\n      0x00\n        /* \"#utility.yul\":5355:5357   */\n      0x20\n        /* \"#utility.yul\":5350:5352   */\n      0x1f\n        /* \"#utility.yul\":5343:5348   */\n      dup4\n        /* \"#utility.yul\":5339:5353   */\n      add\n        /* \"#utility.yul\":5335:5358   */\n      div\n        /* \"#utility.yul\":5325:5358   */\n      swap1\n      pop\n        /* \"#utility.yul\":5271:5364   */\n      swap2\n      swap1\n      pop\n      jump\t// out\n        /* \"#utility.yul\":5370:5477   */\n    tag_60:\n        /* \"#utility.yul\":5414:5422   */\n      0x00\n        /* \"#utility.yul\":5464:5469   */\n      dup3\n        /* \"#utility.yul\":5458:5462   */\n      dup3\n        /* \"#utility.yul\":5454:5470   */\n      shl\n        /* \"#utility.yul\":5433:5470   */\n      swap1\n      pop\n        /* \"#utility.yul\":5370:5477   */\n      swap3\n      swap2\n      pop\n      pop\n      jump\t// out\n        /* \"#utility.yul\":5483:5876   */\n    tag_61:\n        /* \"#utility.yul\":5552:5558   */\n      0x00\n        /* \"#utility.yul\":5602:5603   */\n      0x08\n        /* \"#utility.yul\":5590:5600   */\n      dup4\n        /* \"#utility.yul\":5586:5604   */\n      mul\n        /* \"#utility.yul\":5625:5722   */\n      tag_132\n        /* \"#utility.yul\":5655:5721   */\n      0xffffffffffffffffffffffffffffffffffffffffffffffffffffffffffffffff\n        /* \"#utility.yul\":5644:5653   */\n      dup3\n        /* \"#utility.yul\":5625:5722   */\n      tag_60\n      jump\t// in\n    tag_132:\n        /* \"#utility.yul\":5743:5782   */\n      tag_133\n        /* \"#utility.yul\":5773:5781   */\n      dup7\n        /* \"#utility.yul\":5762:5771   */\n      dup4\n        /* \"#utility.yul\":5743:5782   */\n      tag_60\n      jump\t// in\n    tag_133:\n        /* \"#utility.yul\":5731:5782   */\n      swap6\n      pop\n        /* \"#utility.yul\":5815:5819   */\n      dup1\n        /* \"#utility.yul\":5811:5820   */\n      not\n        /* \"#utility.yul\":5804:5809   */\n      dup5\n        /* \"#utility.yul\":5800:5821   */\n      and\n        /* \"#utility.yul\":5791:5821   */\n      swap4\n      pop\n        /* \"#utility.yul\":5864:5868   */\n      dup1\n        /* \"#utility.yul\":5854:5862   */\n      dup7\n        /* \"#utility.yul\":5850:5869   */\n      and\n        /* \"#utility.yul\":5843:5848   */\n      dup5\n        /* \"#utility.yul\":5840:5870   */\n      or\n        /* \"#utility.yul\":5830:5870   */\n      swap3\n      pop\n        /* \"#utility.yul\":5559:5876   */\n      pop\n      pop\n        /* \"#utility.yul\":5483:5876   */\n      swap4\n      swap3\n      pop\n      pop\n      pop\n      jump\t// out\n        /* \"#utility.yul\":5882:5942   */\n    tag_62:\n        /* \"#utility.yul\":5910:5913   */\n      0x00\n        /* \"#utility.yul\":5931:5936   */\n      dup2\n        /* \"#utility.yul\":5924:5936   */\n      swap1\n      pop\n        /* \"#utility.yul\":5882:5942   */\n      swap2\n      swap1\n      pop\n      jump\t// out\n        /* \"#utility.yul\":5948:6090   */\n    tag_63:\n        /* \"#utility.yul\":5998:6007   */\n      0x00\n        /* \"#utility.yul\":6031:6084   */\n      tag_136\n        /* \"#utility.yul\":6049:6083   */\n      tag_137\n        /* \"#utility.yul\":6058:6082   */\n      tag_138\n        /* \"#utility.yul\":6076:6081   */\n      dup5\n        /* \"#utility.yul\":6058:6082   */\n      tag_53\n      jump\t// in\n    tag_138:\n        /* \"#utility.yul\":6049:6083   */\n      tag_62\n      jump\t// in\n    tag_137:\n        /* \"#utility.yul\":6031:6084   */\n      tag_53\n      jump\t// in\n    tag_136:\n        /* \"#utility.yul\":6018:6084   */\n      swap1\n      pop\n        /* \"#utility.yul\":5948:6090   */\n      swap2\n      swap1\n      pop\n      jump\t// out\n        /* \"#utility.yul\":6096:6171   */\n    tag_64:\n        /* \"#utility.yul\":6139:6142   */\n      0x00\n        /* \"#utility.yul\":6160:6165   */\n      dup2\n        /* \"#utility.yul\":6153:6165   */\n      swap1\n      pop\n        /* \"#utility.yul\":6096:6171   */\n      swap2\n      swap1\n      pop\n      jump\t// out\n        /* \"#utility.yul\":6177:6446   */\n    tag_65:\n        /* \"#utility.yul\":6287:6326   */\n      tag_141\n        /* \"#utility.yul\":6318:6325   */\n      dup4\n        /* \"#utility.yul\":6287:6326   */\n      tag_63\n      jump\t// in\n    tag_141:\n        /* \"#utility.yul\":6348:6439   */\n      tag_142\n        /* \"#utility.yul\":6397:6438   */\n      tag_143\n        /* \"#utility.yul\":6421:6437   */\n      dup3\n        /* \"#utility.yul\":6397:6438   */\n      tag_64\n      jump\t// in\n    tag_143:\n        /* \"#utility.yul\":6389:6395   */\n      dup5\n        /* \"#utility.yul\":6382:6386   */\n      dup5\n        /* \"#utility.yul\":6376:6387   */\n      sload\n        /* \"#utility.yul\":6348:6439   */\n      tag_61\n      jump\t// in\n    tag_142:\n        /* \"#utility.yul\":6342:6346   */\n      dup3\n        /* \"#utility.yul\":6335:6440   */\n      sstore\n        /* \"#utility.yul\":6253:6446   */\n      pop\n        /* \"#utility.yul\":6177:6446   */\n      pop\n      pop\n      pop\n      jump\t// out\n        /* \"#utility.yul\":6452:6525   */\n    tag_66:\n        /* \"#utility.yul\":6497:6500   */\n      0x00\n        /* \"#utility.yul\":6452:6525   */\n      swap1\n      jump\t// out\n        /* \"#utility.yul\":6531:6720   */\n    tag_67:\n        /* \"#utility.yul\":6608:6640   */\n      tag_146\n      tag_66\n      jump\t// in\n    tag_146:\n        /* \"#utility.yul\":6649:6714   */\n      tag_147\n        /* \"#utility.yul\":6707:6713   */\n      dup2\n        /* \"#utility.yul\":6699:6705   */\n      dup5\n        /* \"#utility.yul\":6693:6697   */\n      dup5\n        /* \"#utility.yul\":6649:6714   */\n      tag_65\n      jump\t// in\n    tag_147:\n        /* \"#utility.yul\":6584:6720   */\n      pop\n        /* \"#utility.yul\":6531:6720   */\n      pop\n      pop\n      jump\t// out\n        /* \"#utility.yul\":6726:6912   */\n    tag_68:\n        /* \"#utility.yul\":6786:6906   */\n    tag_149:\n        /* \"#utility.yul\":6803:6806   */\n      dup2\n        /* \"#utility.yul\":6796:6801   */\n      dup2\n        /* \"#utility.yul\":6793:6807   */\n      lt\n        /* \"#utility.yul\":6786:6906   */\n      iszero\n      tag_151\n      jumpi\n        /* \"#utility.yul\":6857:6896   */\n      tag_152\n        /* \"#utility.yul\":6894:6895   */\n      0x00\n        /* \"#utility.yul\":6887:6892   */\n      dup3\n        /* \"#utility.yul\":6857:6896   */\n      tag_67\n      jump\t// in\n    tag_152:\n        /* \"#utility.yul\":6830:6831   */\n      0x01\n        /* \"#utility.yul\":6823:6828   */\n      dup2\n        /* \"#utility.yul\":6819:6832   */\n      add\n        /* \"#utility.yul\":6810:6832   */\n      swap1\n      pop\n        /* \"#utility.yul\":6786:6906   */\n      jump(tag_149)\n    tag_151:\n        /* \"#utility.yul\":6726:6912   */\n      pop\n      pop\n      jump\t// out\n        /* \"#utility.yul\":6918:7461   */\n    tag_69:\n        /* \"#utility.yul\":7019:7021   */\n      0x1f\n        /* \"#utility.yul\":7014:7017   */\n      dup3\n        /* \"#utility.yul\":7011:7022   */\n      gt\n        /* \"#utility.yul\":7008:7454   */\n      iszero\n      tag_154\n      jumpi\n        /* \"#utility.yul\":7053:7091   */\n      tag_155\n        /* \"#utility.yul\":7085:7090   */\n      dup2\n        /* \"#utility.yul\":7053:7091   */\n      tag_58\n      jump\t// in\n    tag_155:\n        /* \"#utility.yul\":7137:7166   */\n      tag_156\n        /* \"#utility.yul\":7155:7165   */\n      dup5\n        /* \"#utility.yul\":7137:7166   */\n      tag_59\n      jump\t// in\n    tag_156:\n        /* \"#utility.yul\":7127:7135   */\n      dup2\n        /* \"#utility.yul\":7123:7167   */\n      add\n        /* \"#utility.yul\":7320:7322   */\n      0x20\n        /* \"#utility.yul\":7308:7318   */\n      dup6\n        /* \"#utility.yul\":7305:7323   */\n      lt\n        /* \"#utility.yul\":7302:7351   */\n      iszero\n      tag_157\n      jumpi\n        /* \"#utility.yul\":7341:7349   */\n      dup2\n        /* \"#utility.yul\":7326:7349   */\n      swap1\n      pop\n        /* \"#utility.yul\":7302:7351   */\n    tag_157:\n        /* \"#utility.yul\":7364:7444   */\n      tag_158\n        /* \"#utility.yul\":7420:7442   */\n      tag_159\n        /* \"#utility.yul\":7438:7441   */\n      dup6\n        /* \"#utility.yul\":7420:7442   */\n      tag_59\n      jump\t// in\n    tag_159:\n        /* \"#utility.yul\":7410:7418   */\n      dup4\n        /* \"#utility.yul\":7406:7443   */\n      add\n        /* \"#utility.yul\":7393:7404   */\n      dup3\n        /* \"#utility.yul\":7364:7444   */\n      tag_68\n      jump\t// in\n    tag_158:\n        /* \"#utility.yul\":7023:7454   */\n      pop\n      pop\n        /* \"#utility.yul\":7008:7454   */\n    tag_154:\n        /* \"#utility.yul\":6918:7461   */\n      pop\n      pop\n      pop\n      jump\t// out\n        /* \"#utility.yul\":7467:7584   */\n    tag_70:\n        /* \"#utility.yul\":7521:7529   */\n      0x00\n        /* \"#utility.yul\":7571:7576   */\n      dup3\n        /* \"#utility.yul\":7565:7569   */\n      dup3\n        /* \"#utility.yul\":7561:7577   */\n      shr\n        /* \"#utility.yul\":7540:7577   */\n      swap1\n      pop\n        /* \"#utility.yul\":7467:7584   */\n      swap3\n      swap2\n      pop\n      pop\n      jump\t// out\n        /* \"#utility.yul\":7590:7759   */\n    tag_71:\n        /* \"#utility.yul\":7634:7640   */\n      0x00\n        /* \"#utility.yul\":7667:7718   */\n      tag_162\n        /* \"#utility.yul\":7715:7716   */\n      0x00\n        /* \"#utility.yul\":7711:7717   */\n      not\n        /* \"#utility.yul\":7703:7708   */\n      dup5\n        /* \"#utility.yul\":7700:7701   */\n      0x08\n        /* \"#utility.yul\":7696:7709   */\n      mul\n        /* \"#utility.yul\":7667:7718   */\n      tag_70\n      jump\t// in\n    tag_162:\n        /* \"#utility.yul\":7663:7719   */\n      not\n        /* \"#utility.yul\":7748:7752   */\n      dup1\n        /* \"#utility.yul\":7742:7746   */\n      dup4\n        /* \"#utility.yul\":7738:7753   */\n      and\n        /* \"#utility.yul\":7728:7753   */\n      swap2\n      pop\n        /* \"#utility.yul\":7641:7759   */\n      pop\n        /* \"#utility.yul\":7590:7759   */\n      swap3\n      swap2\n      pop\n      pop\n      jump\t// out\n        /* \"#utility.yul\":7764:8059   */\n    tag_72:\n        /* \"#utility.yul\":7840:7844   */\n      0x00\n        /* \"#utility.yul\":7986:8015   */\n      tag_164\n        /* \"#utility.yul\":8011:8014   */\n      dup4\n        /* \"#utility.yul\":8005:8009   */\n      dup4\n        /* \"#utility.yul\":7986:8015   */\n      tag_71\n      jump\t// in\n    tag_164:\n        /* \"#utility.yul\":7978:8015   */\n      swap2\n      pop\n        /* \"#utility.yul\":8048:8051   */\n      dup3\n        /* \"#utility.yul\":8045:8046   */\n      0x02\n        /* \"#utility.yul\":8041:8052   */\n      mul\n        /* \"#utility.yul\":8035:8039   */\n      dup3\n        /* \"#utility.yul\":8032:8053   */\n      or\n        /* \"#utility.yul\":8024:8053   */\n      swap1\n      pop\n        /* \"#utility.yul\":7764:8059   */\n      swap3\n      swap2\n      pop\n      pop\n      jump\t// out\n        /* \"#utility.yul\":8064:9467   */\n    tag_36:\n        /* \"#utility.yul\":8188:8232   */\n      tag_166\n        /* \"#utility.yul\":8228:8231   */\n      dup4\n        /* \"#utility.yul\":8223:8226   */\n      dup4\n        /* \"#utility.yul\":8188:8232   */\n      tag_56\n      jump\t// in\n    tag_166:\n        /* \"#utility.yul\":8297:8315   */\n      0xffffffffffffffff\n        /* \"#utility.yul\":8289:8295   */\n      dup2\n        /* \"#utility.yul\":8286:8316   */\n      gt\n        /* \"#utility.yul\":8283:8339   */\n      iszero\n      tag_167\n      jumpi\n        /* \"#utility.yul\":8319:8337   */\n      tag_168\n      tag_57\n      jump\t// in\n    tag_168:\n        /* \"#utility.yul\":8283:8339   */\n    tag_167:\n        /* \"#utility.yul\":8363:8401   */\n      tag_169\n        /* \"#utility.yul\":8395:8399   */\n      dup3\n        /* \"#utility.yul\":8389:8400   */\n      sload\n        /* \"#utility.yul\":8363:8401   */\n      tag_29\n      jump\t// in\n    tag_169:\n        /* \"#utility.yul\":8448:8515   */\n      tag_170\n        /* \"#utility.yul\":8508:8514   */\n      dup3\n        /* \"#utility.yul\":8500:8506   */\n      dup3\n        /* \"#utility.yul\":8494:8498   */\n      dup6\n        /* \"#utility.yul\":8448:8515   */\n      tag_69\n      jump\t// in\n    tag_170:\n        /* \"#utility.yul\":8542:8543   */\n      0x00\n        /* \"#utility.yul\":8571:8573   */\n      0x1f\n        /* \"#utility.yul\":8563:8569   */\n      dup4\n        /* \"#utility.yul\":8560:8574   */\n      gt\n        /* \"#utility.yul\":8588:8589   */\n      0x01\n        /* \"#utility.yul\":8583:9215   */\n      dup2\n      eq\n      tag_172\n      jumpi\n        /* \"#utility.yul\":9259:9260   */\n      0x00\n        /* \"#utility.yul\":9276:9282   */\n      dup5\n        /* \"#utility.yul\":9273:9357   */\n      iszero\n      tag_173\n      jumpi\n        /* \"#utility.yul\":9332:9341   */\n      dup3\n        /* \"#utility.yul\":9327:9330   */\n      dup8\n        /* \"#utility.yul\":9323:9342   */\n      add\n        /* \"#utility.yul\":9310:9343   */\n      calldataload\n        /* \"#utility.yul\":9301:9343   */\n      swap1\n      pop\n        /* \"#utility.yul\":9273:9357   */\n    tag_173:\n        /* \"#utility.yul\":9383:9450   */\n      tag_174\n        /* \"#utility.yul\":9443:9449   */\n      dup6\n        /* \"#utility.yul\":9436:9441   */\n      dup3\n        /* \"#utility.yul\":9383:9450   */\n      tag_72\n      jump\t// in\n    tag_174:\n        /* \"#utility.yul\":9377:9381   */\n      dup7\n        /* \"#utility.yul\":9370:9451   */\n      sstore\n        /* \"#utility.yul\":9232:9461   */\n      pop\n        /* \"#utility.yul\":8553:9461   */\n      jump(tag_171)\n        /* \"#utility.yul\":8583:9215   */\n    tag_172:\n        /* \"#utility.yul\":8635:8639   */\n      0x1f\n        /* \"#utility.yul\":8631:8640   */\n      not\n        /* \"#utility.yul\":8623:8629   */\n      dup5\n        /* \"#utility.yul\":8619:8641   */\n      and\n        /* \"#utility.yul\":8669:8706   */\n      tag_175\n        /* \"#utility.yul\":8701:8705   */\n      dup7\n        /* \"#utility.yul\":8669:8706   */\n      tag_58\n      jump\t// in\n    tag_175:\n        /* \"#utility.yul\":8728:8729   */\n      0x00\n        /* \"#utility.yul\":8742:8957   */\n    tag_176:\n        /* \"#utility.yul\":8756:8763   */\n      dup3\n        /* \"#utility.yul\":8753:8754   */\n      dup2\n        /* \"#utility.yul\":8750:8764   */\n      lt\n        /* \"#utility.yul\":8742:8957   */\n      iszero\n      tag_178\n      jumpi\n        /* \"#utility.yul\":8842:8851   */\n      dup5\n        /* \"#utility.yul\":8837:8840   */\n      dup10\n        /* \"#utility.yul\":8833:8852   */\n      add\n        /* \"#utility.yul\":8820:8853   */\n      calldataload\n        /* \"#utility.yul\":8812:8818   */\n      dup3\n        /* \"#utility.yul\":8805:8854   */\n      sstore\n        /* \"#utility.yul\":8893:8894   */\n      0x01\n        /* \"#utility.yul\":8885:8891   */\n      dup3\n        /* \"#utility.yul\":8881:8895   */\n      add\n        /* \"#utility.yul\":8871:8895   */\n      swap2\n      pop\n        /* \"#utility.yul\":8940:8942   */\n      0x20\n        /* \"#utility.yul\":8929:8938   */\n      dup6\n        /* \"#utility.yul\":8925:8943   */\n      add\n        /* \"#utility.yul\":8912:8943   */\n      swap5\n      pop\n        /* \"#utility.yul\":8779:8783   */\n      0x20\n        /* \"#utility.yul\":8776:8777   */\n      dup2\n        /* \"#utility.yul\":8772:8784   */\n      add\n        /* \"#utility.yul\":8767:8784   */\n      swap1\n      pop\n        /* \"#utility.yul\":8742:8957   */\n      jump(tag_176)\n    tag_178:\n        /* \"#utility.yul\":8985:8991   */\n      dup7\n        /* \"#utility.yul\":8976:8983   */\n      dup4\n        /* \"#utility.yul\":8973:8992   */\n      lt\n        /* \"#utility.yul\":8970:9156   */\n      iszero\n      tag_179\n      jumpi\n        /* \"#utility.yul\":9050:9059   */\n      dup5\n        /* \"#utility.yul\":9045:9048   */\n      dup10\n        /* \"#utility.yul\":9041:9060   */\n      add\n        /* \"#utility.yul\":9028:9061   */\n      calldataload\n        /* \"#utility.yul\":9093:9141   */\n      tag_180\n        /* \"#utility.yul\":9135:9139   */\n      0x1f\n        /* \"#utility.yul\":9127:9133   */\n      dup10\n        /* \"#utility.yul\":9123:9140   */\n      and\n        /* \"#utility.yul\":9112:9121   */\n      dup3\n        /* \"#utility.yul\":9093:9141   */\n      tag_71\n      jump\t// in\n    tag_180:\n        /* \"#utility.yul\":9085:9091   */\n      dup4\n        /* \"#utility.yul\":9078:9142   */\n      sstore\n        /* \"#utility.yul\":8993:9156   */\n      pop\n        /* \"#utility.yul\":8970:9156   */\n    tag_179:\n        /* \"#utility.yul\":9202:9203   */\n      0x01\n        /* \"#utility.yul\":9198:9199   */\n      0x02\n        /* \"#utility.yul\":9190:9196   */\n      dup9\n        /* \"#utility.yul\":9186:9200   */\n      mul\n        /* \"#utility.yul\":9182:9204   */\n      add\n        /* \"#utility.yul\":9176:9180   */\n      dup9\n        /* \"#utility.yul\":9169:9205   */\n      sstore\n        /* \"#utility.yul\":8590:9215   */\n      pop\n      pop\n      pop\n        /* \"#utility.yul\":8553:9461   */\n    tag_171:\n      pop\n        /* \"#utility.yul\":8163:9467   */\n      pop\n      pop\n      pop\n        /* \"#utility.yul\":8064:9467   */\n      pop\n      pop\n      pop\n      jump\t// out\n\n    auxdata: 0xa2646970667358221220b7cebece4effadb24dea6f6ca18ffca48382b0b95eed25867bc09396a78bda1464736f6c634300081a0033\n}\n",
				"bytecode": {
					"linkReferences": {},
					"object": "60806040526040518060400160405280600481526020017f4a6f686e000000000000000000000000000000000000000000000000000000008152505f90816100479190610293565b50348015610053575f80fd5b50610362565b5f81519050919050565b7f4e487b71000000000000000000000000000000000000000000000000000000005f52604160045260245ffd5b7f4e487b71000000000000000000000000000000000000000000000000000000005f52602260045260245ffd5b5f60028204905060018216806100d457607f821691505b6020821081036100e7576100e6610090565b5b50919050565b5f819050815f5260205f209050919050565b5f6020601f8301049050919050565b5f82821b905092915050565b5f600883026101497fffffffffffffffffffffffffffffffffffffffffffffffffffffffffffffffff8261010e565b610153868361010e565b95508019841693508086168417925050509392505050565b5f819050919050565b5f819050919050565b5f61019761019261018d8461016b565b610174565b61016b565b9050919050565b5f819050919050565b6101b08361017d565b6101c46101bc8261019e565b84845461011a565b825550505050565b5f90565b6101d86101cc565b6101e38184846101a7565b505050565b5b81811015610206576101fb5f826101d0565b6001810190506101e9565b5050565b601f82111561024b5761021c816100ed565b610225846100ff565b81016020851015610234578190505b610248610240856100ff565b8301826101e8565b50505b505050565b5f82821c905092915050565b5f61026b5f1984600802610250565b1980831691505092915050565b5f610283838361025c565b9150826002028217905092915050565b61029c82610059565b67ffffffffffffffff8111156102b5576102b4610063565b5b6102bf82546100bd565b6102ca82828561020a565b5f60209050601f8311600181146102fb575f84156102e9578287015190505b6102f38582610278565b86555061035a565b601f198416610309866100ed565b5f5b828110156103305784890151825560018201915060208501945060208101905061030b565b8683101561034d5784890151610349601f89168261025c565b8355505b6001600288020188555050505b505050505050565b6107188061036f5f395ff3fe60806040526004361061003e575f3560e01c80630c11dedd1461004257806317d7de7c1461005e578063c47f002714610088578063e2982c21146100b0575b5f80fd5b61005c6004803603810190610057919061024c565b6100ec565b005b348015610069575f80fd5b50610072610131565b60405161007f91906102e7565b60405180910390f35b348015610093575f80fd5b506100ae60048036038101906100a99190610368565b6101c0565b005b3480156100bb575f80fd5b506100d660048036038101906100d1919061024c565b6101d5565b6040516100e391906103cb565b60405180910390f35b3460015f8373ffffffffffffffffffffffffffffffffffffffff1673ffffffffffffffffffffffffffffffffffffffff1681526020019081526020015f208190555050565b60605f805461013f90610411565b80601f016020809104026020016040519081016040528092919081815260200182805461016b90610411565b80156101b65780601f1061018d576101008083540402835291602001916101b6565b820191905f5260205f20905b81548152906001019060200180831161019957829003601f168201915b5050505050905090565b81815f91826101d0929190610615565b505050565b6001602052805f5260405f205f915090505481565b5f80fd5b5f80fd5b5f73ffffffffffffffffffffffffffffffffffffffff82169050919050565b5f61021b826101f2565b9050919050565b61022b81610211565b8114610235575f80fd5b50565b5f8135905061024681610222565b92915050565b5f60208284031215610261576102606101ea565b5b5f61026e84828501610238565b91505092915050565b5f81519050919050565b5f82825260208201905092915050565b8281835e5f83830152505050565b5f601f19601f8301169050919050565b5f6102b982610277565b6102c38185610281565b93506102d3818560208601610291565b6102dc8161029f565b840191505092915050565b5f6020820190508181035f8301526102ff81846102af565b905092915050565b5f80fd5b5f80fd5b5f80fd5b5f8083601f84011261032857610327610307565b5b8235905067ffffffffffffffff8111156103455761034461030b565b5b6020830191508360018202830111156103615761036061030f565b5b9250929050565b5f806020838503121561037e5761037d6101ea565b5b5f83013567ffffffffffffffff81111561039b5761039a6101ee565b5b6103a785828601610313565b92509250509250929050565b5f819050919050565b6103c5816103b3565b82525050565b5f6020820190506103de5f8301846103bc565b92915050565b7f4e487b71000000000000000000000000000000000000000000000000000000005f52602260045260245ffd5b5f600282049050600182168061042857607f821691505b60208210810361043b5761043a6103e4565b5b50919050565b5f82905092915050565b7f4e487b71000000000000000000000000000000000000000000000000000000005f52604160045260245ffd5b5f819050815f5260205f209050919050565b5f6020601f8301049050919050565b5f82821b905092915050565b5f600883026104d47fffffffffffffffffffffffffffffffffffffffffffffffffffffffffffffffff82610499565b6104de8683610499565b95508019841693508086168417925050509392505050565b5f819050919050565b5f61051961051461050f846103b3565b6104f6565b6103b3565b9050919050565b5f819050919050565b610532836104ff565b61054661053e82610520565b8484546104a5565b825550505050565b5f90565b61055a61054e565b610565818484610529565b505050565b5b818110156105885761057d5f82610552565b60018101905061056b565b5050565b601f8211156105cd5761059e81610478565b6105a78461048a565b810160208510156105b6578190505b6105ca6105c28561048a565b83018261056a565b50505b505050565b5f82821c905092915050565b5f6105ed5f19846008026105d2565b1980831691505092915050565b5f61060583836105de565b9150826002028217905092915050565b61061f8383610441565b67ffffffffffffffff8111156106385761063761044b565b5b6106428254610411565b61064d82828561058c565b5f601f83116001811461067a575f8415610668578287013590505b61067285826105fa565b8655506106d9565b601f19841661068886610478565b5f5b828110156106af5784890135825560018201915060208501945060208101905061068a565b868310156106cc57848901356106c8601f8916826105de565b8355505b6001600288020188555050505b5050505050505056fea2646970667358221220b7cebece4effadb24dea6f6ca18ffca48382b0b95eed25867bc09396a78bda1464736f6c634300081a0033",
					"opcodes": "PUSH1 0x80 PUSH1 0x40 MSTORE PUSH1 0x40 MLOAD DUP1 PUSH1 0x40 ADD PUSH1 0x40 MSTORE DUP1 PUSH1 0x4 DUP2 MSTORE PUSH1 0x20 ADD PUSH32 0x4A6F686E00000000000000000000000000000000000000000000000000000000 DUP2 MSTORE POP PUSH0 SWAP1 DUP2 PUSH2 0x47 SWAP2 SWAP1 PUSH2 0x293 JUMP JUMPDEST POP CALLVALUE DUP1 ISZERO PUSH2 0x53 JUMPI PUSH0 DUP1 REVERT JUMPDEST POP PUSH2 0x362 JUMP JUMPDEST PUSH0 DUP2 MLOAD SWAP1 POP SWAP2 SWAP1 POP JUMP JUMPDEST PUSH32 0x4E487B7100000000000000000000000000000000000000000000000000000000 PUSH0 MSTORE PUSH1 0x41 PUSH1 0x4 MSTORE PUSH1 0x24 PUSH0 REVERT JUMPDEST PUSH32 0x4E487B7100000000000000000000000000000000000000000000000000000000 PUSH0 MSTORE PUSH1 0x22 PUSH1 0x4 MSTORE PUSH1 0x24 PUSH0 REVERT JUMPDEST PUSH0 PUSH1 0x2 DUP3 DIV SWAP1 POP PUSH1 0x1 DUP3 AND DUP1 PUSH2 0xD4 JUMPI PUSH1 0x7F DUP3 AND SWAP2 POP JUMPDEST PUSH1 0x20 DUP3 LT DUP2 SUB PUSH2 0xE7 JUMPI PUSH2 0xE6 PUSH2 0x90 JUMP JUMPDEST JUMPDEST POP SWAP2 SWAP1 POP JUMP JUMPDEST PUSH0 DUP2 SWAP1 POP DUP2 PUSH0 MSTORE PUSH1 0x20 PUSH0 KECCAK256 SWAP1 POP SWAP2 SWAP1 POP JUMP JUMPDEST PUSH0 PUSH1 0x20 PUSH1 0x1F DUP4 ADD DIV SWAP1 POP SWAP2 SWAP1 POP JUMP JUMPDEST PUSH0 DUP3 DUP3 SHL SWAP1 POP SWAP3 SWAP2 POP POP JUMP JUMPDEST PUSH0 PUSH1 0x8 DUP4 MUL PUSH2 0x149 PUSH32 0xFFFFFFFFFFFFFFFFFFFFFFFFFFFFFFFFFFFFFFFFFFFFFFFFFFFFFFFFFFFFFFFF DUP3 PUSH2 0x10E JUMP JUMPDEST PUSH2 0x153 DUP7 DUP4 PUSH2 0x10E JUMP JUMPDEST SWAP6 POP DUP1 NOT DUP5 AND SWAP4 POP DUP1 DUP7 AND DUP5 OR SWAP3 POP POP POP SWAP4 SWAP3 POP POP POP JUMP JUMPDEST PUSH0 DUP2 SWAP1 POP SWAP2 SWAP1 POP JUMP JUMPDEST PUSH0 DUP2 SWAP1 POP SWAP2 SWAP1 POP JUMP JUMPDEST PUSH0 PUSH2 0x197 PUSH2 0x192 PUSH2 0x18D DUP5 PUSH2 0x16B JUMP JUMPDEST PUSH2 0x174 JUMP JUMPDEST PUSH2 0x16B JUMP JUMPDEST SWAP1 POP SWAP2 SWAP1 POP JUMP JUMPDEST PUSH0 DUP2 SWAP1 POP SWAP2 SWAP1 POP JUMP JUMPDEST PUSH2 0x1B0 DUP4 PUSH2 0x17D JUMP JUMPDEST PUSH2 0x1C4 PUSH2 0x1BC DUP3 PUSH2 0x19E JUMP JUMPDEST DUP5 DUP5 SLOAD PUSH2 0x11A JUMP JUMPDEST DUP3 SSTORE POP POP POP POP JUMP JUMPDEST PUSH0 SWAP1 JUMP JUMPDEST PUSH2 0x1D8 PUSH2 0x1CC JUMP JUMPDEST PUSH2 0x1E3 DUP2 DUP5 DUP5 PUSH2 0x1A7 JUMP JUMPDEST POP POP POP JUMP JUMPDEST JUMPDEST DUP2 DUP2 LT ISZERO PUSH2 0x206 JUMPI PUSH2 0x1FB PUSH0 DUP3 PUSH2 0x1D0 JUMP JUMPDEST PUSH1 0x1 DUP2 ADD SWAP1 POP PUSH2 0x1E9 JUMP JUMPDEST POP POP JUMP JUMPDEST PUSH1 0x1F DUP3 GT ISZERO PUSH2 0x24B JUMPI PUSH2 0x21C DUP2 PUSH2 0xED JUMP JUMPDEST PUSH2 0x225 DUP5 PUSH2 0xFF JUMP JUMPDEST DUP2 ADD PUSH1 0x20 DUP6 LT ISZERO PUSH2 0x234 JUMPI DUP2 SWAP1 POP JUMPDEST PUSH2 0x248 PUSH2 0x240 DUP6 PUSH2 0xFF JUMP JUMPDEST DUP4 ADD DUP3 PUSH2 0x1E8 JUMP JUMPDEST POP POP JUMPDEST POP POP POP JUMP JUMPDEST PUSH0 DUP3 DUP3 SHR SWAP1 POP SWAP3 SWAP2 POP POP JUMP JUMPDEST PUSH0 PUSH2 0x26B PUSH0 NOT DUP5 PUSH1 0x8 MUL PUSH2 0x250 JUMP JUMPDEST NOT DUP1 DUP4 AND SWAP2 POP POP SWAP3 SWAP2 POP POP JUMP JUMPDEST PUSH0 PUSH2 0x283 DUP4 DUP4 PUSH2 0x25C JUMP JUMPDEST SWAP2 POP DUP3 PUSH1 0x2 MUL DUP3 OR SWAP1 POP SWAP3 SWAP2 POP POP JUMP JUMPDEST PUSH2 0x29C DUP3 PUSH2 0x59 JUMP JUMPDEST PUSH8 0xFFFFFFFFFFFFFFFF DUP2 GT ISZERO PUSH2 0x2B5 JUMPI PUSH2 0x2B4 PUSH2 0x63 JUMP JUMPDEST JUMPDEST PUSH2 0x2BF DUP3 SLOAD PUSH2 0xBD JUMP JUMPDEST PUSH2 0x2CA DUP3 DUP3 DUP6 PUSH2 0x20A JUMP JUMPDEST PUSH0 PUSH1 0x20 SWAP1 POP PUSH1 0x1F DUP4 GT PUSH1 0x1 DUP2 EQ PUSH2 0x2FB JUMPI PUSH0 DUP5 ISZERO PUSH2 0x2E9 JUMPI DUP3 DUP8 ADD MLOAD SWAP1 POP JUMPDEST PUSH2 0x2F3 DUP6 DUP3 PUSH2 0x278 JUMP JUMPDEST DUP7 SSTORE POP PUSH2 0x35A JUMP JUMPDEST PUSH1 0x1F NOT DUP5 AND PUSH2 0x309 DUP7 PUSH2 0xED JUMP JUMPDEST PUSH0 JUMPDEST DUP3 DUP2 LT ISZERO PUSH2 0x330 JUMPI DUP5 DUP10 ADD MLOAD DUP3 SSTORE PUSH1 0x1 DUP3 ADD SWAP2 POP PUSH1 0x20 DUP6 ADD SWAP5 POP PUSH1 0x20 DUP2 ADD SWAP1 POP PUSH2 0x30B JUMP JUMPDEST DUP7 DUP4 LT ISZERO PUSH2 0x34D JUMPI DUP5 DUP10 ADD MLOAD PUSH2 0x349 PUSH1 0x1F DUP10 AND DUP3 PUSH2 0x25C JUMP JUMPDEST DUP4 SSTORE POP JUMPDEST PUSH1 0x1 PUSH1 0x2 DUP9 MUL ADD DUP9 SSTORE POP POP POP JUMPDEST POP POP POP POP POP POP JUMP JUMPDEST PUSH2 0x718 DUP1 PUSH2 0x36F PUSH0 CODECOPY PUSH0 RETURN INVALID PUSH1 0x80 PUSH1 0x40 MSTORE PUSH1 0x4 CALLDATASIZE LT PUSH2 0x3E JUMPI PUSH0 CALLDATALOAD PUSH1 0xE0 SHR DUP1 PUSH4 0xC11DEDD EQ PUSH2 0x42 JUMPI DUP1 PUSH4 0x17D7DE7C EQ PUSH2 0x5E JUMPI DUP1 PUSH4 0xC47F0027 EQ PUSH2 0x88 JUMPI DUP1 PUSH4 0xE2982C21 EQ PUSH2 0xB0 JUMPI JUMPDEST PUSH0 DUP1 REVERT JUMPDEST PUSH2 0x5C PUSH1 0x4 DUP1 CALLDATASIZE SUB DUP2 ADD SWAP1 PUSH2 0x57 SWAP2 SWAP1 PUSH2 0x24C JUMP JUMPDEST PUSH2 0xEC JUMP JUMPDEST STOP JUMPDEST CALLVALUE DUP1 ISZERO PUSH2 0x69 JUMPI PUSH0 DUP1 REVERT JUMPDEST POP PUSH2 0x72 PUSH2 0x131 JUMP JUMPDEST PUSH1 0x40 MLOAD PUSH2 0x7F SWAP2 SWAP1 PUSH2 0x2E7 JUMP JUMPDEST PUSH1 0x40 MLOAD DUP1 SWAP2 SUB SWAP1 RETURN JUMPDEST CALLVALUE DUP1 ISZERO PUSH2 0x93 JUMPI PUSH0 DUP1 REVERT JUMPDEST POP PUSH2 0xAE PUSH1 0x4 DUP1 CALLDATASIZE SUB DUP2 ADD SWAP1 PUSH2 0xA9 SWAP2 SWAP1 PUSH2 0x368 JUMP JUMPDEST PUSH2 0x1C0 JUMP JUMPDEST STOP JUMPDEST CALLVALUE DUP1 ISZERO PUSH2 0xBB JUMPI PUSH0 DUP1 REVERT JUMPDEST POP PUSH2 0xD6 PUSH1 0x4 DUP1 CALLDATASIZE SUB DUP2 ADD SWAP1 PUSH2 0xD1 SWAP2 SWAP1 PUSH2 0x24C JUMP JUMPDEST PUSH2 0x1D5 JUMP JUMPDEST PUSH1 0x40 MLOAD PUSH2 0xE3 SWAP2 SWAP1 PUSH2 0x3CB JUMP JUMPDEST PUSH1 0x40 MLOAD DUP1 SWAP2 SUB SWAP1 RETURN JUMPDEST CALLVALUE PUSH1 0x1 PUSH0 DUP4 PUSH20 0xFFFFFFFFFFFFFFFFFFFFFFFFFFFFFFFFFFFFFFFF AND PUSH20 0xFFFFFFFFFFFFFFFFFFFFFFFFFFFFFFFFFFFFFFFF AND DUP2 MSTORE PUSH1 0x20 ADD SWAP1 DUP2 MSTORE PUSH1 0x20 ADD PUSH0 KECCAK256 DUP2 SWAP1 SSTORE POP POP JUMP JUMPDEST PUSH1 0x60 PUSH0 DUP1 SLOAD PUSH2 0x13F SWAP1 PUSH2 0x411 JUMP JUMPDEST DUP1 PUSH1 0x1F ADD PUSH1 0x20 DUP1 SWAP2 DIV MUL PUSH1 0x20 ADD PUSH1 0x40 MLOAD SWAP1 DUP2 ADD PUSH1 0x40 MSTORE DUP1 SWAP3 SWAP2 SWAP1 DUP2 DUP2 MSTORE PUSH1 0x20 ADD DUP3 DUP1 SLOAD PUSH2 0x16B SWAP1 PUSH2 0x411 JUMP JUMPDEST DUP1 ISZERO PUSH2 0x1B6 JUMPI DUP1 PUSH1 0x1F LT PUSH2 0x18D JUMPI PUSH2 0x100 DUP1 DUP4 SLOAD DIV MUL DUP4 MSTORE SWAP2 PUSH1 0x20 ADD SWAP2 PUSH2 0x1B6 JUMP JUMPDEST DUP3 ADD SWAP2 SWAP1 PUSH0 MSTORE PUSH1 0x20 PUSH0 KECCAK256 SWAP1 JUMPDEST DUP2 SLOAD DUP2 MSTORE SWAP1 PUSH1 0x1 ADD SWAP1 PUSH1 0x20 ADD DUP1 DUP4 GT PUSH2 0x199 JUMPI DUP3 SWAP1 SUB PUSH1 0x1F AND DUP3 ADD SWAP2 JUMPDEST POP POP POP POP POP SWAP1 POP SWAP1 JUMP JUMPDEST DUP2 DUP2 PUSH0 SWAP2 DUP3 PUSH2 0x1D0 SWAP3 SWAP2 SWAP1 PUSH2 0x615 JUMP JUMPDEST POP POP POP JUMP JUMPDEST PUSH1 0x1 PUSH1 0x20 MSTORE DUP1 PUSH0 MSTORE PUSH1 0x40 PUSH0 KECCAK256 PUSH0 SWAP2 POP SWAP1 POP SLOAD DUP2 JUMP JUMPDEST PUSH0 DUP1 REVERT JUMPDEST PUSH0 DUP1 REVERT JUMPDEST PUSH0 PUSH20 0xFFFFFFFFFFFFFFFFFFFFFFFFFFFFFFFFFFFFFFFF DUP3 AND SWAP1 POP SWAP2 SWAP1 POP JUMP JUMPDEST PUSH0 PUSH2 0x21B DUP3 PUSH2 0x1F2 JUMP JUMPDEST SWAP1 POP SWAP2 SWAP1 POP JUMP JUMPDEST PUSH2 0x22B DUP2 PUSH2 0x211 JUMP JUMPDEST DUP2 EQ PUSH2 0x235 JUMPI PUSH0 DUP1 REVERT JUMPDEST POP JUMP JUMPDEST PUSH0 DUP2 CALLDATALOAD SWAP1 POP PUSH2 0x246 DUP2 PUSH2 0x222 JUMP JUMPDEST SWAP3 SWAP2 POP POP JUMP JUMPDEST PUSH0 PUSH1 0x20 DUP3 DUP5 SUB SLT ISZERO PUSH2 0x261 JUMPI PUSH2 0x260 PUSH2 0x1EA JUMP JUMPDEST JUMPDEST PUSH0 PUSH2 0x26E DUP5 DUP3 DUP6 ADD PUSH2 0x238 JUMP JUMPDEST SWAP2 POP POP SWAP3 SWAP2 POP POP JUMP JUMPDEST PUSH0 DUP2 MLOAD SWAP1 POP SWAP2 SWAP1 POP JUMP JUMPDEST PUSH0 DUP3 DUP3 MSTORE PUSH1 0x20 DUP3 ADD SWAP1 POP SWAP3 SWAP2 POP POP JUMP JUMPDEST DUP3 DUP2 DUP4 MCOPY PUSH0 DUP4 DUP4 ADD MSTORE POP POP POP JUMP JUMPDEST PUSH0 PUSH1 0x1F NOT PUSH1 0x1F DUP4 ADD AND SWAP1 POP SWAP2 SWAP1 POP JUMP JUMPDEST PUSH0 PUSH2 0x2B9 DUP3 PUSH2 0x277 JUMP JUMPDEST PUSH2 0x2C3 DUP2 DUP6 PUSH2 0x281 JUMP JUMPDEST SWAP4 POP PUSH2 0x2D3 DUP2 DUP6 PUSH1 0x20 DUP7 ADD PUSH2 0x291 JUMP JUMPDEST PUSH2 0x2DC DUP2 PUSH2 0x29F JUMP JUMPDEST DUP5 ADD SWAP2 POP POP SWAP3 SWAP2 POP POP JUMP JUMPDEST PUSH0 PUSH1 0x20 DUP3 ADD SWAP1 POP DUP2 DUP2 SUB PUSH0 DUP4 ADD MSTORE PUSH2 0x2FF DUP2 DUP5 PUSH2 0x2AF JUMP JUMPDEST SWAP1 POP SWAP3 SWAP2 POP POP JUMP JUMPDEST PUSH0 DUP1 REVERT JUMPDEST PUSH0 DUP1 REVERT JUMPDEST PUSH0 DUP1 REVERT JUMPDEST PUSH0 DUP1 DUP4 PUSH1 0x1F DUP5 ADD SLT PUSH2 0x328 JUMPI PUSH2 0x327 PUSH2 0x307 JUMP JUMPDEST JUMPDEST DUP3 CALLDATALOAD SWAP1 POP PUSH8 0xFFFFFFFFFFFFFFFF DUP2 GT ISZERO PUSH2 0x345 JUMPI PUSH2 0x344 PUSH2 0x30B JUMP JUMPDEST JUMPDEST PUSH1 0x20 DUP4 ADD SWAP2 POP DUP4 PUSH1 0x1 DUP3 MUL DUP4 ADD GT ISZERO PUSH2 0x361 JUMPI PUSH2 0x360 PUSH2 0x30F JUMP JUMPDEST JUMPDEST SWAP3 POP SWAP3 SWAP1 POP JUMP JUMPDEST PUSH0 DUP1 PUSH1 0x20 DUP4 DUP6 SUB SLT ISZERO PUSH2 0x37E JUMPI PUSH2 0x37D PUSH2 0x1EA JUMP JUMPDEST JUMPDEST PUSH0 DUP4 ADD CALLDATALOAD PUSH8 0xFFFFFFFFFFFFFFFF DUP2 GT ISZERO PUSH2 0x39B JUMPI PUSH2 0x39A PUSH2 0x1EE JUMP JUMPDEST JUMPDEST PUSH2 0x3A7 DUP6 DUP3 DUP7 ADD PUSH2 0x313 JUMP JUMPDEST SWAP3 POP SWAP3 POP POP SWAP3 POP SWAP3 SWAP1 POP JUMP JUMPDEST PUSH0 DUP2 SWAP1 POP SWAP2 SWAP1 POP JUMP JUMPDEST PUSH2 0x3C5 DUP2 PUSH2 0x3B3 JUMP JUMPDEST DUP3 MSTORE POP POP JUMP JUMPDEST PUSH0 PUSH1 0x20 DUP3 ADD SWAP1 POP PUSH2 0x3DE PUSH0 DUP4 ADD DUP5 PUSH2 0x3BC JUMP JUMPDEST SWAP3 SWAP2 POP POP JUMP JUMPDEST PUSH32 0x4E487B7100000000000000000000000000000000000000000000000000000000 PUSH0 MSTORE PUSH1 0x22 PUSH1 0x4 MSTORE PUSH1 0x24 PUSH0 REVERT JUMPDEST PUSH0 PUSH1 0x2 DUP3 DIV SWAP1 POP PUSH1 0x1 DUP3 AND DUP1 PUSH2 0x428 JUMPI PUSH1 0x7F DUP3 AND SWAP2 POP JUMPDEST PUSH1 0x20 DUP3 LT DUP2 SUB PUSH2 0x43B JUMPI PUSH2 0x43A PUSH2 0x3E4 JUMP JUMPDEST JUMPDEST POP SWAP2 SWAP1 POP JUMP JUMPDEST PUSH0 DUP3 SWAP1 POP SWAP3 SWAP2 POP POP JUMP JUMPDEST PUSH32 0x4E487B7100000000000000000000000000000000000000000000000000000000 PUSH0 MSTORE PUSH1 0x41 PUSH1 0x4 MSTORE PUSH1 0x24 PUSH0 REVERT JUMPDEST PUSH0 DUP2 SWAP1 POP DUP2 PUSH0 MSTORE PUSH1 0x20 PUSH0 KECCAK256 SWAP1 POP SWAP2 SWAP1 POP JUMP JUMPDEST PUSH0 PUSH1 0x20 PUSH1 0x1F DUP4 ADD DIV SWAP1 POP SWAP2 SWAP1 POP JUMP JUMPDEST PUSH0 DUP3 DUP3 SHL SWAP1 POP SWAP3 SWAP2 POP POP JUMP JUMPDEST PUSH0 PUSH1 0x8 DUP4 MUL PUSH2 0x4D4 PUSH32 0xFFFFFFFFFFFFFFFFFFFFFFFFFFFFFFFFFFFFFFFFFFFFFFFFFFFFFFFFFFFFFFFF DUP3 PUSH2 0x499 JUMP JUMPDEST PUSH2 0x4DE DUP7 DUP4 PUSH2 0x499 JUMP JUMPDEST SWAP6 POP DUP1 NOT DUP5 AND SWAP4 POP DUP1 DUP7 AND DUP5 OR SWAP3 POP POP POP SWAP4 SWAP3 POP POP POP JUMP JUMPDEST PUSH0 DUP2 SWAP1 POP SWAP2 SWAP1 POP JUMP JUMPDEST PUSH0 PUSH2 0x519 PUSH2 0x514 PUSH2 0x50F DUP5 PUSH2 0x3B3 JUMP JUMPDEST PUSH2 0x4F6 JUMP JUMPDEST PUSH2 0x3B3 JUMP JUMPDEST SWAP1 POP SWAP2 SWAP1 POP JUMP JUMPDEST PUSH0 DUP2 SWAP1 POP SWAP2 SWAP1 POP JUMP JUMPDEST PUSH2 0x532 DUP4 PUSH2 0x4FF JUMP JUMPDEST PUSH2 0x546 PUSH2 0x53E DUP3 PUSH2 0x520 JUMP JUMPDEST DUP5 DUP5 SLOAD PUSH2 0x4A5 JUMP JUMPDEST DUP3 SSTORE POP POP POP POP JUMP JUMPDEST PUSH0 SWAP1 JUMP JUMPDEST PUSH2 0x55A PUSH2 0x54E JUMP JUMPDEST PUSH2 0x565 DUP2 DUP5 DUP5 PUSH2 0x529 JUMP JUMPDEST POP POP POP JUMP JUMPDEST JUMPDEST DUP2 DUP2 LT ISZERO PUSH2 0x588 JUMPI PUSH2 0x57D PUSH0 DUP3 PUSH2 0x552 JUMP JUMPDEST PUSH1 0x1 DUP2 ADD SWAP1 POP PUSH2 0x56B JUMP JUMPDEST POP POP JUMP JUMPDEST PUSH1 0x1F DUP3 GT ISZERO PUSH2 0x5CD JUMPI PUSH2 0x59E DUP2 PUSH2 0x478 JUMP JUMPDEST PUSH2 0x5A7 DUP5 PUSH2 0x48A JUMP JUMPDEST DUP2 ADD PUSH1 0x20 DUP6 LT ISZERO PUSH2 0x5B6 JUMPI DUP2 SWAP1 POP JUMPDEST PUSH2 0x5CA PUSH2 0x5C2 DUP6 PUSH2 0x48A JUMP JUMPDEST DUP4 ADD DUP3 PUSH2 0x56A JUMP JUMPDEST POP POP JUMPDEST POP POP POP JUMP JUMPDEST PUSH0 DUP3 DUP3 SHR SWAP1 POP SWAP3 SWAP2 POP POP JUMP JUMPDEST PUSH0 PUSH2 0x5ED PUSH0 NOT DUP5 PUSH1 0x8 MUL PUSH2 0x5D2 JUMP JUMPDEST NOT DUP1 DUP4 AND SWAP2 POP POP SWAP3 SWAP2 POP POP JUMP JUMPDEST PUSH0 PUSH2 0x605 DUP4 DUP4 PUSH2 0x5DE JUMP JUMPDEST SWAP2 POP DUP3 PUSH1 0x2 MUL DUP3 OR SWAP1 POP SWAP3 SWAP2 POP POP JUMP JUMPDEST PUSH2 0x61F DUP4 DUP4 PUSH2 0x441 JUMP JUMPDEST PUSH8 0xFFFFFFFFFFFFFFFF DUP2 GT ISZERO PUSH2 0x638 JUMPI PUSH2 0x637 PUSH2 0x44B JUMP JUMPDEST JUMPDEST PUSH2 0x642 DUP3 SLOAD PUSH2 0x411 JUMP JUMPDEST PUSH2 0x64D DUP3 DUP3 DUP6 PUSH2 0x58C JUMP JUMPDEST PUSH0 PUSH1 0x1F DUP4 GT PUSH1 0x1 DUP2 EQ PUSH2 0x67A JUMPI PUSH0 DUP5 ISZERO PUSH2 0x668 JUMPI DUP3 DUP8 ADD CALLDATALOAD SWAP1 POP JUMPDEST PUSH2 0x672 DUP6 DUP3 PUSH2 0x5FA JUMP JUMPDEST DUP7 SSTORE POP PUSH2 0x6D9 JUMP JUMPDEST PUSH1 0x1F NOT DUP5 AND PUSH2 0x688 DUP7 PUSH2 0x478 JUMP JUMPDEST PUSH0 JUMPDEST DUP3 DUP2 LT ISZERO PUSH2 0x6AF JUMPI DUP5 DUP10 ADD CALLDATALOAD DUP3 SSTORE PUSH1 0x1 DUP3 ADD SWAP2 POP PUSH1 0x20 DUP6 ADD SWAP5 POP PUSH1 0x20 DUP2 ADD SWAP1 POP PUSH2 0x68A JUMP JUMPDEST DUP7 DUP4 LT ISZERO PUSH2 0x6CC JUMPI DUP5 DUP10 ADD CALLDATALOAD PUSH2 0x6C8 PUSH1 0x1F DUP10 AND DUP3 PUSH2 0x5DE JUMP JUMPDEST DUP4 SSTORE POP JUMPDEST PUSH1 0x1 PUSH1 0x2 DUP9 MUL ADD DUP9 SSTORE POP POP POP JUMPDEST POP POP POP POP POP POP POP JUMP INVALID LOG2 PUSH5 0x6970667358 0x22 SLT KECCAK256 0xB7 0xCE 0xBE 0xCE 0x4E SELFDESTRUCT 0xAD 0xB2 0x4D 0xEA PUSH16 0x6CA18FFCA48382B0B95EED25867BC093 SWAP7 0xA7 DUP12 0xDA EQ PUSH5 0x736F6C6343 STOP ADDMOD BYTE STOP CALLER "
				},
				"gasEstimates": {
					"creation": {
						"codeDepositCost": "363200",
						"executionCost": "infinite",
						"totalCost": "infinite"
					},
					"external": {
						"getName()": "infinite",
						"pay(address)": "22604",
						"payments(address)": "2846",
						"setName(string)": "infinite"
					}
				},
				"methodIdentifiers": {
					"getName()": "17d7de7c",
					"pay(address)": "0c11dedd",
					"payments(address)": "e2982c21",
					"setName(string)": "c47f0027"
				}
			},
			"storageLayout": {
				"storage": [
					{
						"astId": 48,
						"contract": "Example_Calls/CallFromOther.sol:CallFromOther",
						"label": "name",
						"offset": 0,
						"slot": "0",
						"type": "t_string_storage"
					},
					{
						"astId": 52,
						"contract": "Example_Calls/CallFromOther.sol:CallFromOther",
						"label": "payments",
						"offset": 0,
						"slot": "1",
						"type": "t_mapping(t_address,t_uint256)"
					}
				],
				"types": {
					"t_address": {
						"encoding": "inplace",
						"label": "address",
						"numberOfBytes": "20"
					},
					"t_mapping(t_address,t_uint256)": {
						"encoding": "mapping",
						"key": "t_address",
						"label": "mapping(address => uint256)",
						"numberOfBytes": "32",
						"value": "t_uint256"
					},
					"t_string_storage": {
						"encoding": "bytes",
						"label": "string",
						"numberOfBytes": "32"
					},
					"t_uint256": {
						"encoding": "inplace",
						"label": "uint256",
						"numberOfBytes": "32"
					}
				}
			},
			"userdoc": {
				"kind": "user",
				"methods": {},
				"version": 1
			}
		}
	}
}