{
	"Example_Calls/DemoToCalls.sol": {
		"Demo": {
			"abi": [
				{
					"stateMutability": "payable",
					"type": "fallback"
				},
				{
					"inputs": [],
					"name": "age",
					"outputs": [
						{
							"internalType": "uint256",
							"name": "",
							"type": "uint256"
						}
					],
					"stateMutability": "view",
					"type": "function"
				},
				{
					"inputs": [],
					"name": "getBalance",
					"outputs": [
						{
							"internalType": "uint256",
							"name": "",
							"type": "uint256"
						}
					],
					"stateMutability": "view",
					"type": "function"
				},
				{
					"inputs": [],
					"name": "getName",
					"outputs": [
						{
							"internalType": "string",
							"name": "",
							"type": "string"
						}
					],
					"stateMutability": "view",
					"type": "function"
				},
				{
					"inputs": [],
					"name": "name",
					"outputs": [
						{
							"internalType": "string",
							"name": "",
							"type": "string"
						}
					],
					"stateMutability": "view",
					"type": "function"
				},
				{
					"inputs": [
						{
							"internalType": "address",
							"name": "_payer",
							"type": "address"
						}
					],
					"name": "pay",
					"outputs": [],
					"stateMutability": "payable",
					"type": "function"
				},
				{
					"inputs": [
						{
							"internalType": "address",
							"name": "",
							"type": "address"
						}
					],
					"name": "payments",
					"outputs": [
						{
							"internalType": "uint256",
							"name": "",
							"type": "uint256"
						}
					],
					"stateMutability": "view",
					"type": "function"
				},
				{
					"inputs": [],
					"name": "sender",
					"outputs": [
						{
							"internalType": "address",
							"name": "",
							"type": "address"
						}
					],
					"stateMutability": "view",
					"type": "function"
				},
				{
					"inputs": [
						{
							"internalType": "string",
							"name": "_newName",
							"type": "string"
						},
						{
							"internalType": "uint256",
							"name": "_newAge",
							"type": "uint256"
						}
					],
					"name": "setData",
					"outputs": [],
					"stateMutability": "nonpayable",
					"type": "function"
				}
			],
			"devdoc": {
				"kind": "dev",
				"methods": {},
				"version": 1
			},
			"evm": {
				"assembly": "    /* \"Example_Calls/DemoToCalls.sol\":57:725  contract Demo{... */\n  mstore(0x40, 0x80)\n    /* \"Example_Calls/DemoToCalls.sol\":76:103  string public name = \"John\" */\n  mload(0x40)\n  dup1\n  0x40\n  add\n  0x40\n  mstore\n  dup1\n  0x04\n  dup2\n  mstore\n  0x20\n  add\n  0x4a6f686e00000000000000000000000000000000000000000000000000000000\n  dup2\n  mstore\n  pop\n  0x00\n  swap1\n  dup2\n  tag_1\n  swap2\n  swap1\n  tag_2\n  jump\t// in\ntag_1:\n  pop\n    /* \"Example_Calls/DemoToCalls.sol\":130:132  30 */\n  0x1e\n    /* \"Example_Calls/DemoToCalls.sol\":109:132  uint256 public age = 30 */\n  0x01\n  sstore\n    /* \"Example_Calls/DemoToCalls.sol\":57:725  contract Demo{... */\n  callvalue\n  dup1\n  iszero\n  tag_3\n  jumpi\n  0x00\n  dup1\n  revert\ntag_3:\n  pop\n  jump(tag_4)\n    /* \"#utility.yul\":7:106   */\ntag_5:\n    /* \"#utility.yul\":59:65   */\n  0x00\n    /* \"#utility.yul\":93:98   */\n  dup2\n    /* \"#utility.yul\":87:99   */\n  mload\n    /* \"#utility.yul\":77:99   */\n  swap1\n  pop\n    /* \"#utility.yul\":7:106   */\n  swap2\n  swap1\n  pop\n  jump\t// out\n    /* \"#utility.yul\":112:292   */\ntag_6:\n    /* \"#utility.yul\":160:237   */\n  0x4e487b7100000000000000000000000000000000000000000000000000000000\n    /* \"#utility.yul\":157:158   */\n  0x00\n    /* \"#utility.yul\":150:238   */\n  mstore\n    /* \"#utility.yul\":257:261   */\n  0x41\n    /* \"#utility.yul\":254:255   */\n  0x04\n    /* \"#utility.yul\":247:262   */\n  mstore\n    /* \"#utility.yul\":281:285   */\n  0x24\n    /* \"#utility.yul\":278:279   */\n  0x00\n    /* \"#utility.yul\":271:286   */\n  revert\n    /* \"#utility.yul\":298:478   */\ntag_7:\n    /* \"#utility.yul\":346:423   */\n  0x4e487b7100000000000000000000000000000000000000000000000000000000\n    /* \"#utility.yul\":343:344   */\n  0x00\n    /* \"#utility.yul\":336:424   */\n  mstore\n    /* \"#utility.yul\":443:447   */\n  0x22\n    /* \"#utility.yul\":440:441   */\n  0x04\n    /* \"#utility.yul\":433:448   */\n  mstore\n    /* \"#utility.yul\":467:471   */\n  0x24\n    /* \"#utility.yul\":464:465   */\n  0x00\n    /* \"#utility.yul\":457:472   */\n  revert\n    /* \"#utility.yul\":484:804   */\ntag_8:\n    /* \"#utility.yul\":528:534   */\n  0x00\n    /* \"#utility.yul\":565:566   */\n  0x02\n    /* \"#utility.yul\":559:563   */\n  dup3\n    /* \"#utility.yul\":555:567   */\n  div\n    /* \"#utility.yul\":545:567   */\n  swap1\n  pop\n    /* \"#utility.yul\":612:613   */\n  0x01\n    /* \"#utility.yul\":606:610   */\n  dup3\n    /* \"#utility.yul\":602:614   */\n  and\n    /* \"#utility.yul\":633:651   */\n  dup1\n    /* \"#utility.yul\":623:704   */\n  tag_30\n  jumpi\n    /* \"#utility.yul\":689:693   */\n  0x7f\n    /* \"#utility.yul\":681:687   */\n  dup3\n    /* \"#utility.yul\":677:694   */\n  and\n    /* \"#utility.yul\":667:694   */\n  swap2\n  pop\n    /* \"#utility.yul\":623:704   */\ntag_30:\n    /* \"#utility.yul\":751:753   */\n  0x20\n    /* \"#utility.yul\":743:749   */\n  dup3\n    /* \"#utility.yul\":740:754   */\n  lt\n    /* \"#utility.yul\":720:738   */\n  dup2\n    /* \"#utility.yul\":717:755   */\n  sub\n    /* \"#utility.yul\":714:798   */\n  tag_31\n  jumpi\n    /* \"#utility.yul\":770:788   */\n  tag_32\n  tag_7\n  jump\t// in\ntag_32:\n    /* \"#utility.yul\":714:798   */\ntag_31:\n    /* \"#utility.yul\":535:804   */\n  pop\n    /* \"#utility.yul\":484:804   */\n  swap2\n  swap1\n  pop\n  jump\t// out\n    /* \"#utility.yul\":810:951   */\ntag_9:\n    /* \"#utility.yul\":859:863   */\n  0x00\n    /* \"#utility.yul\":882:885   */\n  dup2\n    /* \"#utility.yul\":874:885   */\n  swap1\n  pop\n    /* \"#utility.yul\":905:908   */\n  dup2\n    /* \"#utility.yul\":902:903   */\n  0x00\n    /* \"#utility.yul\":895:909   */\n  mstore\n    /* \"#utility.yul\":939:943   */\n  0x20\n    /* \"#utility.yul\":936:937   */\n  0x00\n    /* \"#utility.yul\":926:944   */\n  keccak256\n    /* \"#utility.yul\":918:944   */\n  swap1\n  pop\n    /* \"#utility.yul\":810:951   */\n  swap2\n  swap1\n  pop\n  jump\t// out\n    /* \"#utility.yul\":957:1050   */\ntag_10:\n    /* \"#utility.yul\":994:1000   */\n  0x00\n    /* \"#utility.yul\":1041:1043   */\n  0x20\n    /* \"#utility.yul\":1036:1038   */\n  0x1f\n    /* \"#utility.yul\":1029:1034   */\n  dup4\n    /* \"#utility.yul\":1025:1039   */\n  add\n    /* \"#utility.yul\":1021:1044   */\n  div\n    /* \"#utility.yul\":1011:1044   */\n  swap1\n  pop\n    /* \"#utility.yul\":957:1050   */\n  swap2\n  swap1\n  pop\n  jump\t// out\n    /* \"#utility.yul\":1056:1163   */\ntag_11:\n    /* \"#utility.yul\":1100:1108   */\n  0x00\n    /* \"#utility.yul\":1150:1155   */\n  dup3\n    /* \"#utility.yul\":1144:1148   */\n  dup3\n    /* \"#utility.yul\":1140:1156   */\n  shl\n    /* \"#utility.yul\":1119:1156   */\n  swap1\n  pop\n    /* \"#utility.yul\":1056:1163   */\n  swap3\n  swap2\n  pop\n  pop\n  jump\t// out\n    /* \"#utility.yul\":1169:1562   */\ntag_12:\n    /* \"#utility.yul\":1238:1244   */\n  0x00\n    /* \"#utility.yul\":1288:1289   */\n  0x08\n    /* \"#utility.yul\":1276:1286   */\n  dup4\n    /* \"#utility.yul\":1272:1290   */\n  mul\n    /* \"#utility.yul\":1311:1408   */\n  tag_37\n    /* \"#utility.yul\":1341:1407   */\n  0xffffffffffffffffffffffffffffffffffffffffffffffffffffffffffffffff\n    /* \"#utility.yul\":1330:1339   */\n  dup3\n    /* \"#utility.yul\":1311:1408   */\n  tag_11\n  jump\t// in\ntag_37:\n    /* \"#utility.yul\":1429:1468   */\n  tag_38\n    /* \"#utility.yul\":1459:1467   */\n  dup7\n    /* \"#utility.yul\":1448:1457   */\n  dup4\n    /* \"#utility.yul\":1429:1468   */\n  tag_11\n  jump\t// in\ntag_38:\n    /* \"#utility.yul\":1417:1468   */\n  swap6\n  pop\n    /* \"#utility.yul\":1501:1505   */\n  dup1\n    /* \"#utility.yul\":1497:1506   */\n  not\n    /* \"#utility.yul\":1490:1495   */\n  dup5\n    /* \"#utility.yul\":1486:1507   */\n  and\n    /* \"#utility.yul\":1477:1507   */\n  swap4\n  pop\n    /* \"#utility.yul\":1550:1554   */\n  dup1\n    /* \"#utility.yul\":1540:1548   */\n  dup7\n    /* \"#utility.yul\":1536:1555   */\n  and\n    /* \"#utility.yul\":1529:1534   */\n  dup5\n    /* \"#utility.yul\":1526:1556   */\n  or\n    /* \"#utility.yul\":1516:1556   */\n  swap3\n  pop\n    /* \"#utility.yul\":1245:1562   */\n  pop\n  pop\n    /* \"#utility.yul\":1169:1562   */\n  swap4\n  swap3\n  pop\n  pop\n  pop\n  jump\t// out\n    /* \"#utility.yul\":1568:1645   */\ntag_13:\n    /* \"#utility.yul\":1605:1612   */\n  0x00\n    /* \"#utility.yul\":1634:1639   */\n  dup2\n    /* \"#utility.yul\":1623:1639   */\n  swap1\n  pop\n    /* \"#utility.yul\":1568:1645   */\n  swap2\n  swap1\n  pop\n  jump\t// out\n    /* \"#utility.yul\":1651:1711   */\ntag_14:\n    /* \"#utility.yul\":1679:1682   */\n  0x00\n    /* \"#utility.yul\":1700:1705   */\n  dup2\n    /* \"#utility.yul\":1693:1705   */\n  swap1\n  pop\n    /* \"#utility.yul\":1651:1711   */\n  swap2\n  swap1\n  pop\n  jump\t// out\n    /* \"#utility.yul\":1717:1859   */\ntag_15:\n    /* \"#utility.yul\":1767:1776   */\n  0x00\n    /* \"#utility.yul\":1800:1853   */\n  tag_42\n    /* \"#utility.yul\":1818:1852   */\n  tag_43\n    /* \"#utility.yul\":1827:1851   */\n  tag_44\n    /* \"#utility.yul\":1845:1850   */\n  dup5\n    /* \"#utility.yul\":1827:1851   */\n  tag_13\n  jump\t// in\ntag_44:\n    /* \"#utility.yul\":1818:1852   */\n  tag_14\n  jump\t// in\ntag_43:\n    /* \"#utility.yul\":1800:1853   */\n  tag_13\n  jump\t// in\ntag_42:\n    /* \"#utility.yul\":1787:1853   */\n  swap1\n  pop\n    /* \"#utility.yul\":1717:1859   */\n  swap2\n  swap1\n  pop\n  jump\t// out\n    /* \"#utility.yul\":1865:1940   */\ntag_16:\n    /* \"#utility.yul\":1908:1911   */\n  0x00\n    /* \"#utility.yul\":1929:1934   */\n  dup2\n    /* \"#utility.yul\":1922:1934   */\n  swap1\n  pop\n    /* \"#utility.yul\":1865:1940   */\n  swap2\n  swap1\n  pop\n  jump\t// out\n    /* \"#utility.yul\":1946:2215   */\ntag_17:\n    /* \"#utility.yul\":2056:2095   */\n  tag_47\n    /* \"#utility.yul\":2087:2094   */\n  dup4\n    /* \"#utility.yul\":2056:2095   */\n  tag_15\n  jump\t// in\ntag_47:\n    /* \"#utility.yul\":2117:2208   */\n  tag_48\n    /* \"#utility.yul\":2166:2207   */\n  tag_49\n    /* \"#utility.yul\":2190:2206   */\n  dup3\n    /* \"#utility.yul\":2166:2207   */\n  tag_16\n  jump\t// in\ntag_49:\n    /* \"#utility.yul\":2158:2164   */\n  dup5\n    /* \"#utility.yul\":2151:2155   */\n  dup5\n    /* \"#utility.yul\":2145:2156   */\n  sload\n    /* \"#utility.yul\":2117:2208   */\n  tag_12\n  jump\t// in\ntag_48:\n    /* \"#utility.yul\":2111:2115   */\n  dup3\n    /* \"#utility.yul\":2104:2209   */\n  sstore\n    /* \"#utility.yul\":2022:2215   */\n  pop\n    /* \"#utility.yul\":1946:2215   */\n  pop\n  pop\n  pop\n  jump\t// out\n    /* \"#utility.yul\":2221:2294   */\ntag_18:\n    /* \"#utility.yul\":2266:2269   */\n  0x00\n    /* \"#utility.yul\":2221:2294   */\n  swap1\n  jump\t// out\n    /* \"#utility.yul\":2300:2489   */\ntag_19:\n    /* \"#utility.yul\":2377:2409   */\n  tag_52\n  tag_18\n  jump\t// in\ntag_52:\n    /* \"#utility.yul\":2418:2483   */\n  tag_53\n    /* \"#utility.yul\":2476:2482   */\n  dup2\n    /* \"#utility.yul\":2468:2474   */\n  dup5\n    /* \"#utility.yul\":2462:2466   */\n  dup5\n    /* \"#utility.yul\":2418:2483   */\n  tag_17\n  jump\t// in\ntag_53:\n    /* \"#utility.yul\":2353:2489   */\n  pop\n    /* \"#utility.yul\":2300:2489   */\n  pop\n  pop\n  jump\t// out\n    /* \"#utility.yul\":2495:2681   */\ntag_20:\n    /* \"#utility.yul\":2555:2675   */\ntag_55:\n    /* \"#utility.yul\":2572:2575   */\n  dup2\n    /* \"#utility.yul\":2565:2570   */\n  dup2\n    /* \"#utility.yul\":2562:2576   */\n  lt\n    /* \"#utility.yul\":2555:2675   */\n  iszero\n  tag_57\n  jumpi\n    /* \"#utility.yul\":2626:2665   */\n  tag_58\n    /* \"#utility.yul\":2663:2664   */\n  0x00\n    /* \"#utility.yul\":2656:2661   */\n  dup3\n    /* \"#utility.yul\":2626:2665   */\n  tag_19\n  jump\t// in\ntag_58:\n    /* \"#utility.yul\":2599:2600   */\n  0x01\n    /* \"#utility.yul\":2592:2597   */\n  dup2\n    /* \"#utility.yul\":2588:2601   */\n  add\n    /* \"#utility.yul\":2579:2601   */\n  swap1\n  pop\n    /* \"#utility.yul\":2555:2675   */\n  jump(tag_55)\ntag_57:\n    /* \"#utility.yul\":2495:2681   */\n  pop\n  pop\n  jump\t// out\n    /* \"#utility.yul\":2687:3230   */\ntag_21:\n    /* \"#utility.yul\":2788:2790   */\n  0x1f\n    /* \"#utility.yul\":2783:2786   */\n  dup3\n    /* \"#utility.yul\":2780:2791   */\n  gt\n    /* \"#utility.yul\":2777:3223   */\n  iszero\n  tag_60\n  jumpi\n    /* \"#utility.yul\":2822:2860   */\n  tag_61\n    /* \"#utility.yul\":2854:2859   */\n  dup2\n    /* \"#utility.yul\":2822:2860   */\n  tag_9\n  jump\t// in\ntag_61:\n    /* \"#utility.yul\":2906:2935   */\n  tag_62\n    /* \"#utility.yul\":2924:2934   */\n  dup5\n    /* \"#utility.yul\":2906:2935   */\n  tag_10\n  jump\t// in\ntag_62:\n    /* \"#utility.yul\":2896:2904   */\n  dup2\n    /* \"#utility.yul\":2892:2936   */\n  add\n    /* \"#utility.yul\":3089:3091   */\n  0x20\n    /* \"#utility.yul\":3077:3087   */\n  dup6\n    /* \"#utility.yul\":3074:3092   */\n  lt\n    /* \"#utility.yul\":3071:3120   */\n  iszero\n  tag_63\n  jumpi\n    /* \"#utility.yul\":3110:3118   */\n  dup2\n    /* \"#utility.yul\":3095:3118   */\n  swap1\n  pop\n    /* \"#utility.yul\":3071:3120   */\ntag_63:\n    /* \"#utility.yul\":3133:3213   */\n  tag_64\n    /* \"#utility.yul\":3189:3211   */\n  tag_65\n    /* \"#utility.yul\":3207:3210   */\n  dup6\n    /* \"#utility.yul\":3189:3211   */\n  tag_10\n  jump\t// in\ntag_65:\n    /* \"#utility.yul\":3179:3187   */\n  dup4\n    /* \"#utility.yul\":3175:3212   */\n  add\n    /* \"#utility.yul\":3162:3173   */\n  dup3\n    /* \"#utility.yul\":3133:3213   */\n  tag_20\n  jump\t// in\ntag_64:\n    /* \"#utility.yul\":2792:3223   */\n  pop\n  pop\n    /* \"#utility.yul\":2777:3223   */\ntag_60:\n    /* \"#utility.yul\":2687:3230   */\n  pop\n  pop\n  pop\n  jump\t// out\n    /* \"#utility.yul\":3236:3353   */\ntag_22:\n    /* \"#utility.yul\":3290:3298   */\n  0x00\n    /* \"#utility.yul\":3340:3345   */\n  dup3\n    /* \"#utility.yul\":3334:3338   */\n  dup3\n    /* \"#utility.yul\":3330:3346   */\n  shr\n    /* \"#utility.yul\":3309:3346   */\n  swap1\n  pop\n    /* \"#utility.yul\":3236:3353   */\n  swap3\n  swap2\n  pop\n  pop\n  jump\t// out\n    /* \"#utility.yul\":3359:3528   */\ntag_23:\n    /* \"#utility.yul\":3403:3409   */\n  0x00\n    /* \"#utility.yul\":3436:3487   */\n  tag_68\n    /* \"#utility.yul\":3484:3485   */\n  0x00\n    /* \"#utility.yul\":3480:3486   */\n  not\n    /* \"#utility.yul\":3472:3477   */\n  dup5\n    /* \"#utility.yul\":3469:3470   */\n  0x08\n    /* \"#utility.yul\":3465:3478   */\n  mul\n    /* \"#utility.yul\":3436:3487   */\n  tag_22\n  jump\t// in\ntag_68:\n    /* \"#utility.yul\":3432:3488   */\n  not\n    /* \"#utility.yul\":3517:3521   */\n  dup1\n    /* \"#utility.yul\":3511:3515   */\n  dup4\n    /* \"#utility.yul\":3507:3522   */\n  and\n    /* \"#utility.yul\":3497:3522   */\n  swap2\n  pop\n    /* \"#utility.yul\":3410:3528   */\n  pop\n    /* \"#utility.yul\":3359:3528   */\n  swap3\n  swap2\n  pop\n  pop\n  jump\t// out\n    /* \"#utility.yul\":3533:3828   */\ntag_24:\n    /* \"#utility.yul\":3609:3613   */\n  0x00\n    /* \"#utility.yul\":3755:3784   */\n  tag_70\n    /* \"#utility.yul\":3780:3783   */\n  dup4\n    /* \"#utility.yul\":3774:3778   */\n  dup4\n    /* \"#utility.yul\":3755:3784   */\n  tag_23\n  jump\t// in\ntag_70:\n    /* \"#utility.yul\":3747:3784   */\n  swap2\n  pop\n    /* \"#utility.yul\":3817:3820   */\n  dup3\n    /* \"#utility.yul\":3814:3815   */\n  0x02\n    /* \"#utility.yul\":3810:3821   */\n  mul\n    /* \"#utility.yul\":3804:3808   */\n  dup3\n    /* \"#utility.yul\":3801:3822   */\n  or\n    /* \"#utility.yul\":3793:3822   */\n  swap1\n  pop\n    /* \"#utility.yul\":3533:3828   */\n  swap3\n  swap2\n  pop\n  pop\n  jump\t// out\n    /* \"#utility.yul\":3833:5228   */\ntag_2:\n    /* \"#utility.yul\":3950:3987   */\n  tag_72\n    /* \"#utility.yul\":3983:3986   */\n  dup3\n    /* \"#utility.yul\":3950:3987   */\n  tag_5\n  jump\t// in\ntag_72:\n    /* \"#utility.yul\":4052:4070   */\n  0xffffffffffffffff\n    /* \"#utility.yul\":4044:4050   */\n  dup2\n    /* \"#utility.yul\":4041:4071   */\n  gt\n    /* \"#utility.yul\":4038:4094   */\n  iszero\n  tag_73\n  jumpi\n    /* \"#utility.yul\":4074:4092   */\n  tag_74\n  tag_6\n  jump\t// in\ntag_74:\n    /* \"#utility.yul\":4038:4094   */\ntag_73:\n    /* \"#utility.yul\":4118:4156   */\n  tag_75\n    /* \"#utility.yul\":4150:4154   */\n  dup3\n    /* \"#utility.yul\":4144:4155   */\n  sload\n    /* \"#utility.yul\":4118:4156   */\n  tag_8\n  jump\t// in\ntag_75:\n    /* \"#utility.yul\":4203:4270   */\n  tag_76\n    /* \"#utility.yul\":4263:4269   */\n  dup3\n    /* \"#utility.yul\":4255:4261   */\n  dup3\n    /* \"#utility.yul\":4249:4253   */\n  dup6\n    /* \"#utility.yul\":4203:4270   */\n  tag_21\n  jump\t// in\ntag_76:\n    /* \"#utility.yul\":4297:4298   */\n  0x00\n    /* \"#utility.yul\":4321:4325   */\n  0x20\n    /* \"#utility.yul\":4308:4325   */\n  swap1\n  pop\n    /* \"#utility.yul\":4353:4355   */\n  0x1f\n    /* \"#utility.yul\":4345:4351   */\n  dup4\n    /* \"#utility.yul\":4342:4356   */\n  gt\n    /* \"#utility.yul\":4370:4371   */\n  0x01\n    /* \"#utility.yul\":4365:4983   */\n  dup2\n  eq\n  tag_78\n  jumpi\n    /* \"#utility.yul\":5027:5028   */\n  0x00\n    /* \"#utility.yul\":5044:5050   */\n  dup5\n    /* \"#utility.yul\":5041:5118   */\n  iszero\n  tag_79\n  jumpi\n    /* \"#utility.yul\":5093:5102   */\n  dup3\n    /* \"#utility.yul\":5088:5091   */\n  dup8\n    /* \"#utility.yul\":5084:5103   */\n  add\n    /* \"#utility.yul\":5078:5104   */\n  mload\n    /* \"#utility.yul\":5069:5104   */\n  swap1\n  pop\n    /* \"#utility.yul\":5041:5118   */\ntag_79:\n    /* \"#utility.yul\":5144:5211   */\n  tag_80\n    /* \"#utility.yul\":5204:5210   */\n  dup6\n    /* \"#utility.yul\":5197:5202   */\n  dup3\n    /* \"#utility.yul\":5144:5211   */\n  tag_24\n  jump\t// in\ntag_80:\n    /* \"#utility.yul\":5138:5142   */\n  dup7\n    /* \"#utility.yul\":5131:5212   */\n  sstore\n    /* \"#utility.yul\":5000:5222   */\n  pop\n    /* \"#utility.yul\":4335:5222   */\n  jump(tag_77)\n    /* \"#utility.yul\":4365:4983   */\ntag_78:\n    /* \"#utility.yul\":4417:4421   */\n  0x1f\n    /* \"#utility.yul\":4413:4422   */\n  not\n    /* \"#utility.yul\":4405:4411   */\n  dup5\n    /* \"#utility.yul\":4401:4423   */\n  and\n    /* \"#utility.yul\":4451:4488   */\n  tag_81\n    /* \"#utility.yul\":4483:4487   */\n  dup7\n    /* \"#utility.yul\":4451:4488   */\n  tag_9\n  jump\t// in\ntag_81:\n    /* \"#utility.yul\":4510:4511   */\n  0x00\n    /* \"#utility.yul\":4524:4732   */\ntag_82:\n    /* \"#utility.yul\":4538:4545   */\n  dup3\n    /* \"#utility.yul\":4535:4536   */\n  dup2\n    /* \"#utility.yul\":4532:4546   */\n  lt\n    /* \"#utility.yul\":4524:4732   */\n  iszero\n  tag_84\n  jumpi\n    /* \"#utility.yul\":4617:4626   */\n  dup5\n    /* \"#utility.yul\":4612:4615   */\n  dup10\n    /* \"#utility.yul\":4608:4627   */\n  add\n    /* \"#utility.yul\":4602:4628   */\n  mload\n    /* \"#utility.yul\":4594:4600   */\n  dup3\n    /* \"#utility.yul\":4587:4629   */\n  sstore\n    /* \"#utility.yul\":4668:4669   */\n  0x01\n    /* \"#utility.yul\":4660:4666   */\n  dup3\n    /* \"#utility.yul\":4656:4670   */\n  add\n    /* \"#utility.yul\":4646:4670   */\n  swap2\n  pop\n    /* \"#utility.yul\":4715:4717   */\n  0x20\n    /* \"#utility.yul\":4704:4713   */\n  dup6\n    /* \"#utility.yul\":4700:4718   */\n  add\n    /* \"#utility.yul\":4687:4718   */\n  swap5\n  pop\n    /* \"#utility.yul\":4561:4565   */\n  0x20\n    /* \"#utility.yul\":4558:4559   */\n  dup2\n    /* \"#utility.yul\":4554:4566   */\n  add\n    /* \"#utility.yul\":4549:4566   */\n  swap1\n  pop\n    /* \"#utility.yul\":4524:4732   */\n  jump(tag_82)\ntag_84:\n    /* \"#utility.yul\":4760:4766   */\n  dup7\n    /* \"#utility.yul\":4751:4758   */\n  dup4\n    /* \"#utility.yul\":4748:4767   */\n  lt\n    /* \"#utility.yul\":4745:4924   */\n  iszero\n  tag_85\n  jumpi\n    /* \"#utility.yul\":4818:4827   */\n  dup5\n    /* \"#utility.yul\":4813:4816   */\n  dup10\n    /* \"#utility.yul\":4809:4828   */\n  add\n    /* \"#utility.yul\":4803:4829   */\n  mload\n    /* \"#utility.yul\":4861:4909   */\n  tag_86\n    /* \"#utility.yul\":4903:4907   */\n  0x1f\n    /* \"#utility.yul\":4895:4901   */\n  dup10\n    /* \"#utility.yul\":4891:4908   */\n  and\n    /* \"#utility.yul\":4880:4889   */\n  dup3\n    /* \"#utility.yul\":4861:4909   */\n  tag_23\n  jump\t// in\ntag_86:\n    /* \"#utility.yul\":4853:4859   */\n  dup4\n    /* \"#utility.yul\":4846:4910   */\n  sstore\n    /* \"#utility.yul\":4768:4924   */\n  pop\n    /* \"#utility.yul\":4745:4924   */\ntag_85:\n    /* \"#utility.yul\":4970:4971   */\n  0x01\n    /* \"#utility.yul\":4966:4967   */\n  0x02\n    /* \"#utility.yul\":4958:4964   */\n  dup9\n    /* \"#utility.yul\":4954:4968   */\n  mul\n    /* \"#utility.yul\":4950:4972   */\n  add\n    /* \"#utility.yul\":4944:4948   */\n  dup9\n    /* \"#utility.yul\":4937:4973   */\n  sstore\n    /* \"#utility.yul\":4372:4983   */\n  pop\n  pop\n  pop\n    /* \"#utility.yul\":4335:5222   */\ntag_77:\n  pop\n    /* \"#utility.yul\":3925:5228   */\n  pop\n  pop\n  pop\n    /* \"#utility.yul\":3833:5228   */\n  pop\n  pop\n  jump\t// out\n    /* \"Example_Calls/DemoToCalls.sol\":57:725  contract Demo{... */\ntag_4:\n  dataSize(sub_0)\n  dup1\n  dataOffset(sub_0)\n  0x00\n  codecopy\n  0x00\n  return\nstop\n\nsub_0: assembly {\n        /* \"Example_Calls/DemoToCalls.sol\":57:725  contract Demo{... */\n      mstore(0x40, 0x80)\n      jumpi(tag_1, lt(calldatasize, 0x04))\n      shr(0xe0, calldataload(0x00))\n      dup1\n      0x262a9dff\n      gt\n      tag_11\n      jumpi\n      dup1\n      0x262a9dff\n      eq\n      tag_7\n      jumpi\n      dup1\n      0x67e404ce\n      eq\n      tag_8\n      jumpi\n      dup1\n      0xaf22068e\n      eq\n      tag_9\n      jumpi\n      dup1\n      0xe2982c21\n      eq\n      tag_10\n      jumpi\n      jump(tag_2)\n    tag_11:\n      dup1\n      0x06fdde03\n      eq\n      tag_3\n      jumpi\n      dup1\n      0x0c11dedd\n      eq\n      tag_4\n      jumpi\n      dup1\n      0x12065fe0\n      eq\n      tag_5\n      jumpi\n      dup1\n      0x17d7de7c\n      eq\n      tag_6\n      jumpi\n      jump(tag_2)\n    tag_1:\n    tag_2:\n        /* \"Example_Calls/DemoToCalls.sol\":670:680  msg.sender */\n      caller\n        /* \"Example_Calls/DemoToCalls.sol\":661:667  sender */\n      0x03\n      0x00\n        /* \"Example_Calls/DemoToCalls.sol\":661:680  sender = msg.sender */\n      0x0100\n      exp\n      dup2\n      sload\n      dup2\n      0xffffffffffffffffffffffffffffffffffffffff\n      mul\n      not\n      and\n      swap1\n      dup4\n      0xffffffffffffffffffffffffffffffffffffffff\n      and\n      mul\n      or\n      swap1\n      sstore\n      pop\n        /* \"Example_Calls/DemoToCalls.sol\":709:718  msg.value */\n      callvalue\n        /* \"Example_Calls/DemoToCalls.sol\":686:694  payments */\n      0x02\n        /* \"Example_Calls/DemoToCalls.sol\":686:706  payments[msg.sender] */\n      0x00\n        /* \"Example_Calls/DemoToCalls.sol\":695:705  msg.sender */\n      caller\n        /* \"Example_Calls/DemoToCalls.sol\":686:706  payments[msg.sender] */\n      0xffffffffffffffffffffffffffffffffffffffff\n      and\n      0xffffffffffffffffffffffffffffffffffffffff\n      and\n      dup2\n      mstore\n      0x20\n      add\n      swap1\n      dup2\n      mstore\n      0x20\n      add\n      0x00\n      keccak256\n        /* \"Example_Calls/DemoToCalls.sol\":686:718  payments[msg.sender] = msg.value */\n      dup2\n      swap1\n      sstore\n      stop\n        /* \"Example_Calls/DemoToCalls.sol\":76:103  string public name = \"John\" */\n    tag_3:\n      callvalue\n      dup1\n      iszero\n      tag_14\n      jumpi\n      0x00\n      dup1\n      revert\n    tag_14:\n      pop\n      tag_15\n      tag_16\n      jump\t// in\n    tag_15:\n      mload(0x40)\n      tag_17\n      swap2\n      swap1\n      tag_18\n      jump\t// in\n    tag_17:\n      mload(0x40)\n      dup1\n      swap2\n      sub\n      swap1\n      return\n        /* \"Example_Calls/DemoToCalls.sol\":531:621  function pay(address _payer) external payable{... */\n    tag_4:\n      tag_19\n      0x04\n      dup1\n      calldatasize\n      sub\n      dup2\n      add\n      swap1\n      tag_20\n      swap2\n      swap1\n      tag_21\n      jump\t// in\n    tag_20:\n      tag_22\n      jump\t// in\n    tag_19:\n      stop\n        /* \"Example_Calls/DemoToCalls.sol\":213:309  function getBalance() public view returns (uint256){... */\n    tag_5:\n      callvalue\n      dup1\n      iszero\n      tag_23\n      jumpi\n      0x00\n      dup1\n      revert\n    tag_23:\n      pop\n      tag_24\n      tag_25\n      jump\t// in\n    tag_24:\n      mload(0x40)\n      tag_26\n      swap2\n      swap1\n      tag_27\n      jump\t// in\n    tag_26:\n      mload(0x40)\n      dup1\n      swap2\n      sub\n      swap1\n      return\n        /* \"Example_Calls/DemoToCalls.sol\":442:525  function getName() public view returns (string memory) {... */\n    tag_6:\n      callvalue\n      dup1\n      iszero\n      tag_28\n      jumpi\n      0x00\n      dup1\n      revert\n    tag_28:\n      pop\n      tag_29\n      tag_30\n      jump\t// in\n    tag_29:\n      mload(0x40)\n      tag_31\n      swap2\n      swap1\n      tag_18\n      jump\t// in\n    tag_31:\n      mload(0x40)\n      dup1\n      swap2\n      sub\n      swap1\n      return\n        /* \"Example_Calls/DemoToCalls.sol\":109:132  uint256 public age = 30 */\n    tag_7:\n      callvalue\n      dup1\n      iszero\n      tag_32\n      jumpi\n      0x00\n      dup1\n      revert\n    tag_32:\n      pop\n      tag_33\n      tag_34\n      jump\t// in\n    tag_33:\n      mload(0x40)\n      tag_35\n      swap2\n      swap1\n      tag_27\n      jump\t// in\n    tag_35:\n      mload(0x40)\n      dup1\n      swap2\n      sub\n      swap1\n      return\n        /* \"Example_Calls/DemoToCalls.sol\":185:206  address public sender */\n    tag_8:\n      callvalue\n      dup1\n      iszero\n      tag_36\n      jumpi\n      0x00\n      dup1\n      revert\n    tag_36:\n      pop\n      tag_37\n      tag_38\n      jump\t// in\n    tag_37:\n      mload(0x40)\n      tag_39\n      swap2\n      swap1\n      tag_40\n      jump\t// in\n    tag_39:\n      mload(0x40)\n      dup1\n      swap2\n      sub\n      swap1\n      return\n        /* \"Example_Calls/DemoToCalls.sol\":315:436  function setData(string calldata _newName, uint _newAge) external {... */\n    tag_9:\n      callvalue\n      dup1\n      iszero\n      tag_41\n      jumpi\n      0x00\n      dup1\n      revert\n    tag_41:\n      pop\n      tag_42\n      0x04\n      dup1\n      calldatasize\n      sub\n      dup2\n      add\n      swap1\n      tag_43\n      swap2\n      swap1\n      tag_44\n      jump\t// in\n    tag_43:\n      tag_45\n      jump\t// in\n    tag_42:\n      stop\n        /* \"Example_Calls/DemoToCalls.sol\":138:179  mapping (address => uint) public payments */\n    tag_10:\n      callvalue\n      dup1\n      iszero\n      tag_46\n      jumpi\n      0x00\n      dup1\n      revert\n    tag_46:\n      pop\n      tag_47\n      0x04\n      dup1\n      calldatasize\n      sub\n      dup2\n      add\n      swap1\n      tag_48\n      swap2\n      swap1\n      tag_21\n      jump\t// in\n    tag_48:\n      tag_49\n      jump\t// in\n    tag_47:\n      mload(0x40)\n      tag_50\n      swap2\n      swap1\n      tag_27\n      jump\t// in\n    tag_50:\n      mload(0x40)\n      dup1\n      swap2\n      sub\n      swap1\n      return\n        /* \"Example_Calls/DemoToCalls.sol\":76:103  string public name = \"John\" */\n    tag_16:\n      0x00\n      dup1\n      sload\n      tag_51\n      swap1\n      tag_52\n      jump\t// in\n    tag_51:\n      dup1\n      0x1f\n      add\n      0x20\n      dup1\n      swap2\n      div\n      mul\n      0x20\n      add\n      mload(0x40)\n      swap1\n      dup2\n      add\n      0x40\n      mstore\n      dup1\n      swap3\n      swap2\n      swap1\n      dup2\n      dup2\n      mstore\n      0x20\n      add\n      dup3\n      dup1\n      sload\n      tag_53\n      swap1\n      tag_52\n      jump\t// in\n    tag_53:\n      dup1\n      iszero\n      tag_54\n      jumpi\n      dup1\n      0x1f\n      lt\n      tag_55\n      jumpi\n      0x0100\n      dup1\n      dup4\n      sload\n      div\n      mul\n      dup4\n      mstore\n      swap2\n      0x20\n      add\n      swap2\n      jump(tag_54)\n    tag_55:\n      dup3\n      add\n      swap2\n      swap1\n      0x00\n      mstore\n      keccak256(0x00, 0x20)\n      swap1\n    tag_56:\n      dup2\n      sload\n      dup2\n      mstore\n      swap1\n      0x01\n      add\n      swap1\n      0x20\n      add\n      dup1\n      dup4\n      gt\n      tag_56\n      jumpi\n      dup3\n      swap1\n      sub\n      0x1f\n      and\n      dup3\n      add\n      swap2\n    tag_54:\n      pop\n      pop\n      pop\n      pop\n      pop\n      dup2\n      jump\t// out\n        /* \"Example_Calls/DemoToCalls.sol\":531:621  function pay(address _payer) external payable{... */\n    tag_22:\n        /* \"Example_Calls/DemoToCalls.sol\":605:614  msg.value */\n      callvalue\n        /* \"Example_Calls/DemoToCalls.sol\":586:594  payments */\n      0x02\n        /* \"Example_Calls/DemoToCalls.sol\":586:602  payments[_payer] */\n      0x00\n        /* \"Example_Calls/DemoToCalls.sol\":595:601  _payer */\n      dup4\n        /* \"Example_Calls/DemoToCalls.sol\":586:602  payments[_payer] */\n      0xffffffffffffffffffffffffffffffffffffffff\n      and\n      0xffffffffffffffffffffffffffffffffffffffff\n      and\n      dup2\n      mstore\n      0x20\n      add\n      swap1\n      dup2\n      mstore\n      0x20\n      add\n      0x00\n      keccak256\n        /* \"Example_Calls/DemoToCalls.sol\":586:614  payments[_payer] = msg.value */\n      dup2\n      swap1\n      sstore\n      pop\n        /* \"Example_Calls/DemoToCalls.sol\":531:621  function pay(address _payer) external payable{... */\n      pop\n      jump\t// out\n        /* \"Example_Calls/DemoToCalls.sol\":213:309  function getBalance() public view returns (uint256){... */\n    tag_25:\n        /* \"Example_Calls/DemoToCalls.sol\":256:263  uint256 */\n      0x00\n        /* \"Example_Calls/DemoToCalls.sol\":281:302  address(this).balance */\n      selfbalance\n        /* \"Example_Calls/DemoToCalls.sol\":274:302  return address(this).balance */\n      swap1\n      pop\n        /* \"Example_Calls/DemoToCalls.sol\":213:309  function getBalance() public view returns (uint256){... */\n      swap1\n      jump\t// out\n        /* \"Example_Calls/DemoToCalls.sol\":442:525  function getName() public view returns (string memory) {... */\n    tag_30:\n        /* \"Example_Calls/DemoToCalls.sol\":482:495  string memory */\n      0x60\n        /* \"Example_Calls/DemoToCalls.sol\":514:518  name */\n      0x00\n        /* \"Example_Calls/DemoToCalls.sol\":507:518  return name */\n      dup1\n      sload\n      tag_60\n      swap1\n      tag_52\n      jump\t// in\n    tag_60:\n      dup1\n      0x1f\n      add\n      0x20\n      dup1\n      swap2\n      div\n      mul\n      0x20\n      add\n      mload(0x40)\n      swap1\n      dup2\n      add\n      0x40\n      mstore\n      dup1\n      swap3\n      swap2\n      swap1\n      dup2\n      dup2\n      mstore\n      0x20\n      add\n      dup3\n      dup1\n      sload\n      tag_61\n      swap1\n      tag_52\n      jump\t// in\n    tag_61:\n      dup1\n      iszero\n      tag_62\n      jumpi\n      dup1\n      0x1f\n      lt\n      tag_63\n      jumpi\n      0x0100\n      dup1\n      dup4\n      sload\n      div\n      mul\n      dup4\n      mstore\n      swap2\n      0x20\n      add\n      swap2\n      jump(tag_62)\n    tag_63:\n      dup3\n      add\n      swap2\n      swap1\n      0x00\n      mstore\n      keccak256(0x00, 0x20)\n      swap1\n    tag_64:\n      dup2\n      sload\n      dup2\n      mstore\n      swap1\n      0x01\n      add\n      swap1\n      0x20\n      add\n      dup1\n      dup4\n      gt\n      tag_64\n      jumpi\n      dup3\n      swap1\n      sub\n      0x1f\n      and\n      dup3\n      add\n      swap2\n    tag_62:\n      pop\n      pop\n      pop\n      pop\n      pop\n      swap1\n      pop\n        /* \"Example_Calls/DemoToCalls.sol\":442:525  function getName() public view returns (string memory) {... */\n      swap1\n      jump\t// out\n        /* \"Example_Calls/DemoToCalls.sol\":109:132  uint256 public age = 30 */\n    tag_34:\n      sload(0x01)\n      dup2\n      jump\t// out\n        /* \"Example_Calls/DemoToCalls.sol\":185:206  address public sender */\n    tag_38:\n      0x03\n      0x00\n      swap1\n      sload\n      swap1\n      0x0100\n      exp\n      swap1\n      div\n      0xffffffffffffffffffffffffffffffffffffffff\n      and\n      dup2\n      jump\t// out\n        /* \"Example_Calls/DemoToCalls.sol\":315:436  function setData(string calldata _newName, uint _newAge) external {... */\n    tag_45:\n        /* \"Example_Calls/DemoToCalls.sol\":398:406  _newName */\n      dup3\n      dup3\n        /* \"Example_Calls/DemoToCalls.sol\":391:395  name */\n      0x00\n        /* \"Example_Calls/DemoToCalls.sol\":391:406  name = _newName */\n      swap2\n      dup3\n      tag_66\n      swap3\n      swap2\n      swap1\n      tag_67\n      jump\t// in\n    tag_66:\n      pop\n        /* \"Example_Calls/DemoToCalls.sol\":422:429  _newAge */\n      dup1\n        /* \"Example_Calls/DemoToCalls.sol\":416:419  age */\n      0x01\n        /* \"Example_Calls/DemoToCalls.sol\":416:429  age = _newAge */\n      dup2\n      swap1\n      sstore\n      pop\n        /* \"Example_Calls/DemoToCalls.sol\":315:436  function setData(string calldata _newName, uint _newAge) external {... */\n      pop\n      pop\n      pop\n      jump\t// out\n        /* \"Example_Calls/DemoToCalls.sol\":138:179  mapping (address => uint) public payments */\n    tag_49:\n      mstore(0x20, 0x02)\n      dup1\n      0x00\n      mstore\n      keccak256(0x00, 0x40)\n      0x00\n      swap2\n      pop\n      swap1\n      pop\n      sload\n      dup2\n      jump\t// out\n        /* \"#utility.yul\":7:106   */\n    tag_68:\n        /* \"#utility.yul\":59:65   */\n      0x00\n        /* \"#utility.yul\":93:98   */\n      dup2\n        /* \"#utility.yul\":87:99   */\n      mload\n        /* \"#utility.yul\":77:99   */\n      swap1\n      pop\n        /* \"#utility.yul\":7:106   */\n      swap2\n      swap1\n      pop\n      jump\t// out\n        /* \"#utility.yul\":112:281   */\n    tag_69:\n        /* \"#utility.yul\":196:207   */\n      0x00\n        /* \"#utility.yul\":230:236   */\n      dup3\n        /* \"#utility.yul\":225:228   */\n      dup3\n        /* \"#utility.yul\":218:237   */\n      mstore\n        /* \"#utility.yul\":270:274   */\n      0x20\n        /* \"#utility.yul\":265:268   */\n      dup3\n        /* \"#utility.yul\":261:275   */\n      add\n        /* \"#utility.yul\":246:275   */\n      swap1\n      pop\n        /* \"#utility.yul\":112:281   */\n      swap3\n      swap2\n      pop\n      pop\n      jump\t// out\n        /* \"#utility.yul\":287:426   */\n    tag_70:\n        /* \"#utility.yul\":376:382   */\n      dup3\n        /* \"#utility.yul\":371:374   */\n      dup2\n        /* \"#utility.yul\":366:369   */\n      dup4\n        /* \"#utility.yul\":360:383   */\n      mcopy\n        /* \"#utility.yul\":417:418   */\n      0x00\n        /* \"#utility.yul\":408:414   */\n      dup4\n        /* \"#utility.yul\":403:406   */\n      dup4\n        /* \"#utility.yul\":399:415   */\n      add\n        /* \"#utility.yul\":392:419   */\n      mstore\n        /* \"#utility.yul\":287:426   */\n      pop\n      pop\n      pop\n      jump\t// out\n        /* \"#utility.yul\":432:534   */\n    tag_71:\n        /* \"#utility.yul\":473:479   */\n      0x00\n        /* \"#utility.yul\":524:526   */\n      0x1f\n        /* \"#utility.yul\":520:527   */\n      not\n        /* \"#utility.yul\":515:517   */\n      0x1f\n        /* \"#utility.yul\":508:513   */\n      dup4\n        /* \"#utility.yul\":504:518   */\n      add\n        /* \"#utility.yul\":500:528   */\n      and\n        /* \"#utility.yul\":490:528   */\n      swap1\n      pop\n        /* \"#utility.yul\":432:534   */\n      swap2\n      swap1\n      pop\n      jump\t// out\n        /* \"#utility.yul\":540:917   */\n    tag_72:\n        /* \"#utility.yul\":628:631   */\n      0x00\n        /* \"#utility.yul\":656:695   */\n      tag_113\n        /* \"#utility.yul\":689:694   */\n      dup3\n        /* \"#utility.yul\":656:695   */\n      tag_68\n      jump\t// in\n    tag_113:\n        /* \"#utility.yul\":711:782   */\n      tag_114\n        /* \"#utility.yul\":775:781   */\n      dup2\n        /* \"#utility.yul\":770:773   */\n      dup6\n        /* \"#utility.yul\":711:782   */\n      tag_69\n      jump\t// in\n    tag_114:\n        /* \"#utility.yul\":704:782   */\n      swap4\n      pop\n        /* \"#utility.yul\":791:856   */\n      tag_115\n        /* \"#utility.yul\":849:855   */\n      dup2\n        /* \"#utility.yul\":844:847   */\n      dup6\n        /* \"#utility.yul\":837:841   */\n      0x20\n        /* \"#utility.yul\":830:835   */\n      dup7\n        /* \"#utility.yul\":826:842   */\n      add\n        /* \"#utility.yul\":791:856   */\n      tag_70\n      jump\t// in\n    tag_115:\n        /* \"#utility.yul\":881:910   */\n      tag_116\n        /* \"#utility.yul\":903:909   */\n      dup2\n        /* \"#utility.yul\":881:910   */\n      tag_71\n      jump\t// in\n    tag_116:\n        /* \"#utility.yul\":876:879   */\n      dup5\n        /* \"#utility.yul\":872:911   */\n      add\n        /* \"#utility.yul\":865:911   */\n      swap2\n      pop\n        /* \"#utility.yul\":632:917   */\n      pop\n        /* \"#utility.yul\":540:917   */\n      swap3\n      swap2\n      pop\n      pop\n      jump\t// out\n        /* \"#utility.yul\":923:1236   */\n    tag_18:\n        /* \"#utility.yul\":1036:1040   */\n      0x00\n        /* \"#utility.yul\":1074:1076   */\n      0x20\n        /* \"#utility.yul\":1063:1072   */\n      dup3\n        /* \"#utility.yul\":1059:1077   */\n      add\n        /* \"#utility.yul\":1051:1077   */\n      swap1\n      pop\n        /* \"#utility.yul\":1123:1132   */\n      dup2\n        /* \"#utility.yul\":1117:1121   */\n      dup2\n        /* \"#utility.yul\":1113:1133   */\n      sub\n        /* \"#utility.yul\":1109:1110   */\n      0x00\n        /* \"#utility.yul\":1098:1107   */\n      dup4\n        /* \"#utility.yul\":1094:1111   */\n      add\n        /* \"#utility.yul\":1087:1134   */\n      mstore\n        /* \"#utility.yul\":1151:1229   */\n      tag_118\n        /* \"#utility.yul\":1224:1228   */\n      dup2\n        /* \"#utility.yul\":1215:1221   */\n      dup5\n        /* \"#utility.yul\":1151:1229   */\n      tag_72\n      jump\t// in\n    tag_118:\n        /* \"#utility.yul\":1143:1229   */\n      swap1\n      pop\n        /* \"#utility.yul\":923:1236   */\n      swap3\n      swap2\n      pop\n      pop\n      jump\t// out\n        /* \"#utility.yul\":1323:1440   */\n    tag_74:\n        /* \"#utility.yul\":1432:1433   */\n      0x00\n        /* \"#utility.yul\":1429:1430   */\n      dup1\n        /* \"#utility.yul\":1422:1434   */\n      revert\n        /* \"#utility.yul\":1446:1563   */\n    tag_75:\n        /* \"#utility.yul\":1555:1556   */\n      0x00\n        /* \"#utility.yul\":1552:1553   */\n      dup1\n        /* \"#utility.yul\":1545:1557   */\n      revert\n        /* \"#utility.yul\":1569:1695   */\n    tag_76:\n        /* \"#utility.yul\":1606:1613   */\n      0x00\n        /* \"#utility.yul\":1646:1688   */\n      0xffffffffffffffffffffffffffffffffffffffff\n        /* \"#utility.yul\":1639:1644   */\n      dup3\n        /* \"#utility.yul\":1635:1689   */\n      and\n        /* \"#utility.yul\":1624:1689   */\n      swap1\n      pop\n        /* \"#utility.yul\":1569:1695   */\n      swap2\n      swap1\n      pop\n      jump\t// out\n        /* \"#utility.yul\":1701:1797   */\n    tag_77:\n        /* \"#utility.yul\":1738:1745   */\n      0x00\n        /* \"#utility.yul\":1767:1791   */\n      tag_124\n        /* \"#utility.yul\":1785:1790   */\n      dup3\n        /* \"#utility.yul\":1767:1791   */\n      tag_76\n      jump\t// in\n    tag_124:\n        /* \"#utility.yul\":1756:1791   */\n      swap1\n      pop\n        /* \"#utility.yul\":1701:1797   */\n      swap2\n      swap1\n      pop\n      jump\t// out\n        /* \"#utility.yul\":1803:1925   */\n    tag_78:\n        /* \"#utility.yul\":1876:1900   */\n      tag_126\n        /* \"#utility.yul\":1894:1899   */\n      dup2\n        /* \"#utility.yul\":1876:1900   */\n      tag_77\n      jump\t// in\n    tag_126:\n        /* \"#utility.yul\":1869:1874   */\n      dup2\n        /* \"#utility.yul\":1866:1901   */\n      eq\n        /* \"#utility.yul\":1856:1919   */\n      tag_127\n      jumpi\n        /* \"#utility.yul\":1915:1916   */\n      0x00\n        /* \"#utility.yul\":1912:1913   */\n      dup1\n        /* \"#utility.yul\":1905:1917   */\n      revert\n        /* \"#utility.yul\":1856:1919   */\n    tag_127:\n        /* \"#utility.yul\":1803:1925   */\n      pop\n      jump\t// out\n        /* \"#utility.yul\":1931:2070   */\n    tag_79:\n        /* \"#utility.yul\":1977:1982   */\n      0x00\n        /* \"#utility.yul\":2015:2021   */\n      dup2\n        /* \"#utility.yul\":2002:2022   */\n      calldataload\n        /* \"#utility.yul\":1993:2022   */\n      swap1\n      pop\n        /* \"#utility.yul\":2031:2064   */\n      tag_129\n        /* \"#utility.yul\":2058:2063   */\n      dup2\n        /* \"#utility.yul\":2031:2064   */\n      tag_78\n      jump\t// in\n    tag_129:\n        /* \"#utility.yul\":1931:2070   */\n      swap3\n      swap2\n      pop\n      pop\n      jump\t// out\n        /* \"#utility.yul\":2076:2405   */\n    tag_21:\n        /* \"#utility.yul\":2135:2141   */\n      0x00\n        /* \"#utility.yul\":2184:2186   */\n      0x20\n        /* \"#utility.yul\":2172:2181   */\n      dup3\n        /* \"#utility.yul\":2163:2170   */\n      dup5\n        /* \"#utility.yul\":2159:2182   */\n      sub\n        /* \"#utility.yul\":2155:2187   */\n      slt\n        /* \"#utility.yul\":2152:2271   */\n      iszero\n      tag_131\n      jumpi\n        /* \"#utility.yul\":2190:2269   */\n      tag_132\n      tag_74\n      jump\t// in\n    tag_132:\n        /* \"#utility.yul\":2152:2271   */\n    tag_131:\n        /* \"#utility.yul\":2310:2311   */\n      0x00\n        /* \"#utility.yul\":2335:2388   */\n      tag_133\n        /* \"#utility.yul\":2380:2387   */\n      dup5\n        /* \"#utility.yul\":2371:2377   */\n      dup3\n        /* \"#utility.yul\":2360:2369   */\n      dup6\n        /* \"#utility.yul\":2356:2378   */\n      add\n        /* \"#utility.yul\":2335:2388   */\n      tag_79\n      jump\t// in\n    tag_133:\n        /* \"#utility.yul\":2325:2388   */\n      swap2\n      pop\n        /* \"#utility.yul\":2281:2398   */\n      pop\n        /* \"#utility.yul\":2076:2405   */\n      swap3\n      swap2\n      pop\n      pop\n      jump\t// out\n        /* \"#utility.yul\":2411:2488   */\n    tag_80:\n        /* \"#utility.yul\":2448:2455   */\n      0x00\n        /* \"#utility.yul\":2477:2482   */\n      dup2\n        /* \"#utility.yul\":2466:2482   */\n      swap1\n      pop\n        /* \"#utility.yul\":2411:2488   */\n      swap2\n      swap1\n      pop\n      jump\t// out\n        /* \"#utility.yul\":2494:2612   */\n    tag_81:\n        /* \"#utility.yul\":2581:2605   */\n      tag_136\n        /* \"#utility.yul\":2599:2604   */\n      dup2\n        /* \"#utility.yul\":2581:2605   */\n      tag_80\n      jump\t// in\n    tag_136:\n        /* \"#utility.yul\":2576:2579   */\n      dup3\n        /* \"#utility.yul\":2569:2606   */\n      mstore\n        /* \"#utility.yul\":2494:2612   */\n      pop\n      pop\n      jump\t// out\n        /* \"#utility.yul\":2618:2840   */\n    tag_27:\n        /* \"#utility.yul\":2711:2715   */\n      0x00\n        /* \"#utility.yul\":2749:2751   */\n      0x20\n        /* \"#utility.yul\":2738:2747   */\n      dup3\n        /* \"#utility.yul\":2734:2752   */\n      add\n        /* \"#utility.yul\":2726:2752   */\n      swap1\n      pop\n        /* \"#utility.yul\":2762:2833   */\n      tag_138\n        /* \"#utility.yul\":2830:2831   */\n      0x00\n        /* \"#utility.yul\":2819:2828   */\n      dup4\n        /* \"#utility.yul\":2815:2832   */\n      add\n        /* \"#utility.yul\":2806:2812   */\n      dup5\n        /* \"#utility.yul\":2762:2833   */\n      tag_81\n      jump\t// in\n    tag_138:\n        /* \"#utility.yul\":2618:2840   */\n      swap3\n      swap2\n      pop\n      pop\n      jump\t// out\n        /* \"#utility.yul\":2846:2964   */\n    tag_82:\n        /* \"#utility.yul\":2933:2957   */\n      tag_140\n        /* \"#utility.yul\":2951:2956   */\n      dup2\n        /* \"#utility.yul\":2933:2957   */\n      tag_77\n      jump\t// in\n    tag_140:\n        /* \"#utility.yul\":2928:2931   */\n      dup3\n        /* \"#utility.yul\":2921:2958   */\n      mstore\n        /* \"#utility.yul\":2846:2964   */\n      pop\n      pop\n      jump\t// out\n        /* \"#utility.yul\":2970:3192   */\n    tag_40:\n        /* \"#utility.yul\":3063:3067   */\n      0x00\n        /* \"#utility.yul\":3101:3103   */\n      0x20\n        /* \"#utility.yul\":3090:3099   */\n      dup3\n        /* \"#utility.yul\":3086:3104   */\n      add\n        /* \"#utility.yul\":3078:3104   */\n      swap1\n      pop\n        /* \"#utility.yul\":3114:3185   */\n      tag_142\n        /* \"#utility.yul\":3182:3183   */\n      0x00\n        /* \"#utility.yul\":3171:3180   */\n      dup4\n        /* \"#utility.yul\":3167:3184   */\n      add\n        /* \"#utility.yul\":3158:3164   */\n      dup5\n        /* \"#utility.yul\":3114:3185   */\n      tag_82\n      jump\t// in\n    tag_142:\n        /* \"#utility.yul\":2970:3192   */\n      swap3\n      swap2\n      pop\n      pop\n      jump\t// out\n        /* \"#utility.yul\":3198:3315   */\n    tag_83:\n        /* \"#utility.yul\":3307:3308   */\n      0x00\n        /* \"#utility.yul\":3304:3305   */\n      dup1\n        /* \"#utility.yul\":3297:3309   */\n      revert\n        /* \"#utility.yul\":3321:3438   */\n    tag_84:\n        /* \"#utility.yul\":3430:3431   */\n      0x00\n        /* \"#utility.yul\":3427:3428   */\n      dup1\n        /* \"#utility.yul\":3420:3432   */\n      revert\n        /* \"#utility.yul\":3444:3561   */\n    tag_85:\n        /* \"#utility.yul\":3553:3554   */\n      0x00\n        /* \"#utility.yul\":3550:3551   */\n      dup1\n        /* \"#utility.yul\":3543:3555   */\n      revert\n        /* \"#utility.yul\":3581:4134   */\n    tag_86:\n        /* \"#utility.yul\":3639:3647   */\n      0x00\n        /* \"#utility.yul\":3649:3655   */\n      dup1\n        /* \"#utility.yul\":3699:3702   */\n      dup4\n        /* \"#utility.yul\":3692:3696   */\n      0x1f\n        /* \"#utility.yul\":3684:3690   */\n      dup5\n        /* \"#utility.yul\":3680:3697   */\n      add\n        /* \"#utility.yul\":3676:3703   */\n      slt\n        /* \"#utility.yul\":3666:3788   */\n      tag_147\n      jumpi\n        /* \"#utility.yul\":3707:3786   */\n      tag_148\n      tag_83\n      jump\t// in\n    tag_148:\n        /* \"#utility.yul\":3666:3788   */\n    tag_147:\n        /* \"#utility.yul\":3820:3826   */\n      dup3\n        /* \"#utility.yul\":3807:3827   */\n      calldataload\n        /* \"#utility.yul\":3797:3827   */\n      swap1\n      pop\n        /* \"#utility.yul\":3850:3868   */\n      0xffffffffffffffff\n        /* \"#utility.yul\":3842:3848   */\n      dup2\n        /* \"#utility.yul\":3839:3869   */\n      gt\n        /* \"#utility.yul\":3836:3953   */\n      iszero\n      tag_149\n      jumpi\n        /* \"#utility.yul\":3872:3951   */\n      tag_150\n      tag_84\n      jump\t// in\n    tag_150:\n        /* \"#utility.yul\":3836:3953   */\n    tag_149:\n        /* \"#utility.yul\":3986:3990   */\n      0x20\n        /* \"#utility.yul\":3978:3984   */\n      dup4\n        /* \"#utility.yul\":3974:3991   */\n      add\n        /* \"#utility.yul\":3962:3991   */\n      swap2\n      pop\n        /* \"#utility.yul\":4040:4043   */\n      dup4\n        /* \"#utility.yul\":4032:4036   */\n      0x01\n        /* \"#utility.yul\":4024:4030   */\n      dup3\n        /* \"#utility.yul\":4020:4037   */\n      mul\n        /* \"#utility.yul\":4010:4018   */\n      dup4\n        /* \"#utility.yul\":4006:4038   */\n      add\n        /* \"#utility.yul\":4003:4044   */\n      gt\n        /* \"#utility.yul\":4000:4128   */\n      iszero\n      tag_151\n      jumpi\n        /* \"#utility.yul\":4047:4126   */\n      tag_152\n      tag_85\n      jump\t// in\n    tag_152:\n        /* \"#utility.yul\":4000:4128   */\n    tag_151:\n        /* \"#utility.yul\":3581:4134   */\n      swap3\n      pop\n      swap3\n      swap1\n      pop\n      jump\t// out\n        /* \"#utility.yul\":4140:4262   */\n    tag_87:\n        /* \"#utility.yul\":4213:4237   */\n      tag_154\n        /* \"#utility.yul\":4231:4236   */\n      dup2\n        /* \"#utility.yul\":4213:4237   */\n      tag_80\n      jump\t// in\n    tag_154:\n        /* \"#utility.yul\":4206:4211   */\n      dup2\n        /* \"#utility.yul\":4203:4238   */\n      eq\n        /* \"#utility.yul\":4193:4256   */\n      tag_155\n      jumpi\n        /* \"#utility.yul\":4252:4253   */\n      0x00\n        /* \"#utility.yul\":4249:4250   */\n      dup1\n        /* \"#utility.yul\":4242:4254   */\n      revert\n        /* \"#utility.yul\":4193:4256   */\n    tag_155:\n        /* \"#utility.yul\":4140:4262   */\n      pop\n      jump\t// out\n        /* \"#utility.yul\":4268:4407   */\n    tag_88:\n        /* \"#utility.yul\":4314:4319   */\n      0x00\n        /* \"#utility.yul\":4352:4358   */\n      dup2\n        /* \"#utility.yul\":4339:4359   */\n      calldataload\n        /* \"#utility.yul\":4330:4359   */\n      swap1\n      pop\n        /* \"#utility.yul\":4368:4401   */\n      tag_157\n        /* \"#utility.yul\":4395:4400   */\n      dup2\n        /* \"#utility.yul\":4368:4401   */\n      tag_87\n      jump\t// in\n    tag_157:\n        /* \"#utility.yul\":4268:4407   */\n      swap3\n      swap2\n      pop\n      pop\n      jump\t// out\n        /* \"#utility.yul\":4413:5087   */\n    tag_44:\n        /* \"#utility.yul\":4493:4499   */\n      0x00\n        /* \"#utility.yul\":4501:4507   */\n      dup1\n        /* \"#utility.yul\":4509:4515   */\n      0x00\n        /* \"#utility.yul\":4558:4560   */\n      0x40\n        /* \"#utility.yul\":4546:4555   */\n      dup5\n        /* \"#utility.yul\":4537:4544   */\n      dup7\n        /* \"#utility.yul\":4533:4556   */\n      sub\n        /* \"#utility.yul\":4529:4561   */\n      slt\n        /* \"#utility.yul\":4526:4645   */\n      iszero\n      tag_159\n      jumpi\n        /* \"#utility.yul\":4564:4643   */\n      tag_160\n      tag_74\n      jump\t// in\n    tag_160:\n        /* \"#utility.yul\":4526:4645   */\n    tag_159:\n        /* \"#utility.yul\":4712:4713   */\n      0x00\n        /* \"#utility.yul\":4701:4710   */\n      dup5\n        /* \"#utility.yul\":4697:4714   */\n      add\n        /* \"#utility.yul\":4684:4715   */\n      calldataload\n        /* \"#utility.yul\":4742:4760   */\n      0xffffffffffffffff\n        /* \"#utility.yul\":4734:4740   */\n      dup2\n        /* \"#utility.yul\":4731:4761   */\n      gt\n        /* \"#utility.yul\":4728:4845   */\n      iszero\n      tag_161\n      jumpi\n        /* \"#utility.yul\":4764:4843   */\n      tag_162\n      tag_75\n      jump\t// in\n    tag_162:\n        /* \"#utility.yul\":4728:4845   */\n    tag_161:\n        /* \"#utility.yul\":4877:4942   */\n      tag_163\n        /* \"#utility.yul\":4934:4941   */\n      dup7\n        /* \"#utility.yul\":4925:4931   */\n      dup3\n        /* \"#utility.yul\":4914:4923   */\n      dup8\n        /* \"#utility.yul\":4910:4932   */\n      add\n        /* \"#utility.yul\":4877:4942   */\n      tag_86\n      jump\t// in\n    tag_163:\n        /* \"#utility.yul\":4859:4942   */\n      swap4\n      pop\n      swap4\n      pop\n        /* \"#utility.yul\":4655:4952   */\n      pop\n        /* \"#utility.yul\":4991:4993   */\n      0x20\n        /* \"#utility.yul\":5017:5070   */\n      tag_164\n        /* \"#utility.yul\":5062:5069   */\n      dup7\n        /* \"#utility.yul\":5053:5059   */\n      dup3\n        /* \"#utility.yul\":5042:5051   */\n      dup8\n        /* \"#utility.yul\":5038:5060   */\n      add\n        /* \"#utility.yul\":5017:5070   */\n      tag_88\n      jump\t// in\n    tag_164:\n        /* \"#utility.yul\":5007:5070   */\n      swap2\n      pop\n        /* \"#utility.yul\":4962:5080   */\n      pop\n        /* \"#utility.yul\":4413:5087   */\n      swap3\n      pop\n      swap3\n      pop\n      swap3\n      jump\t// out\n        /* \"#utility.yul\":5093:5273   */\n    tag_89:\n        /* \"#utility.yul\":5141:5218   */\n      0x4e487b7100000000000000000000000000000000000000000000000000000000\n        /* \"#utility.yul\":5138:5139   */\n      0x00\n        /* \"#utility.yul\":5131:5219   */\n      mstore\n        /* \"#utility.yul\":5238:5242   */\n      0x22\n        /* \"#utility.yul\":5235:5236   */\n      0x04\n        /* \"#utility.yul\":5228:5243   */\n      mstore\n        /* \"#utility.yul\":5262:5266   */\n      0x24\n        /* \"#utility.yul\":5259:5260   */\n      0x00\n        /* \"#utility.yul\":5252:5267   */\n      revert\n        /* \"#utility.yul\":5279:5599   */\n    tag_52:\n        /* \"#utility.yul\":5323:5329   */\n      0x00\n        /* \"#utility.yul\":5360:5361   */\n      0x02\n        /* \"#utility.yul\":5354:5358   */\n      dup3\n        /* \"#utility.yul\":5350:5362   */\n      div\n        /* \"#utility.yul\":5340:5362   */\n      swap1\n      pop\n        /* \"#utility.yul\":5407:5408   */\n      0x01\n        /* \"#utility.yul\":5401:5405   */\n      dup3\n        /* \"#utility.yul\":5397:5409   */\n      and\n        /* \"#utility.yul\":5428:5446   */\n      dup1\n        /* \"#utility.yul\":5418:5499   */\n      tag_167\n      jumpi\n        /* \"#utility.yul\":5484:5488   */\n      0x7f\n        /* \"#utility.yul\":5476:5482   */\n      dup3\n        /* \"#utility.yul\":5472:5489   */\n      and\n        /* \"#utility.yul\":5462:5489   */\n      swap2\n      pop\n        /* \"#utility.yul\":5418:5499   */\n    tag_167:\n        /* \"#utility.yul\":5546:5548   */\n      0x20\n        /* \"#utility.yul\":5538:5544   */\n      dup3\n        /* \"#utility.yul\":5535:5549   */\n      lt\n        /* \"#utility.yul\":5515:5533   */\n      dup2\n        /* \"#utility.yul\":5512:5550   */\n      sub\n        /* \"#utility.yul\":5509:5593   */\n      tag_168\n      jumpi\n        /* \"#utility.yul\":5565:5583   */\n      tag_169\n      tag_89\n      jump\t// in\n    tag_169:\n        /* \"#utility.yul\":5509:5593   */\n    tag_168:\n        /* \"#utility.yul\":5330:5599   */\n      pop\n        /* \"#utility.yul\":5279:5599   */\n      swap2\n      swap1\n      pop\n      jump\t// out\n        /* \"#utility.yul\":5605:5702   */\n    tag_90:\n        /* \"#utility.yul\":5664:5670   */\n      0x00\n        /* \"#utility.yul\":5692:5695   */\n      dup3\n        /* \"#utility.yul\":5682:5695   */\n      swap1\n      pop\n        /* \"#utility.yul\":5605:5702   */\n      swap3\n      swap2\n      pop\n      pop\n      jump\t// out\n        /* \"#utility.yul\":5708:5888   */\n    tag_91:\n        /* \"#utility.yul\":5756:5833   */\n      0x4e487b7100000000000000000000000000000000000000000000000000000000\n        /* \"#utility.yul\":5753:5754   */\n      0x00\n        /* \"#utility.yul\":5746:5834   */\n      mstore\n        /* \"#utility.yul\":5853:5857   */\n      0x41\n        /* \"#utility.yul\":5850:5851   */\n      0x04\n        /* \"#utility.yul\":5843:5858   */\n      mstore\n        /* \"#utility.yul\":5877:5881   */\n      0x24\n        /* \"#utility.yul\":5874:5875   */\n      0x00\n        /* \"#utility.yul\":5867:5882   */\n      revert\n        /* \"#utility.yul\":5894:6035   */\n    tag_92:\n        /* \"#utility.yul\":5943:5947   */\n      0x00\n        /* \"#utility.yul\":5966:5969   */\n      dup2\n        /* \"#utility.yul\":5958:5969   */\n      swap1\n      pop\n        /* \"#utility.yul\":5989:5992   */\n      dup2\n        /* \"#utility.yul\":5986:5987   */\n      0x00\n        /* \"#utility.yul\":5979:5993   */\n      mstore\n        /* \"#utility.yul\":6023:6027   */\n      0x20\n        /* \"#utility.yul\":6020:6021   */\n      0x00\n        /* \"#utility.yul\":6010:6028   */\n      keccak256\n        /* \"#utility.yul\":6002:6028   */\n      swap1\n      pop\n        /* \"#utility.yul\":5894:6035   */\n      swap2\n      swap1\n      pop\n      jump\t// out\n        /* \"#utility.yul\":6041:6134   */\n    tag_93:\n        /* \"#utility.yul\":6078:6084   */\n      0x00\n        /* \"#utility.yul\":6125:6127   */\n      0x20\n        /* \"#utility.yul\":6120:6122   */\n      0x1f\n        /* \"#utility.yul\":6113:6118   */\n      dup4\n        /* \"#utility.yul\":6109:6123   */\n      add\n        /* \"#utility.yul\":6105:6128   */\n      div\n        /* \"#utility.yul\":6095:6128   */\n      swap1\n      pop\n        /* \"#utility.yul\":6041:6134   */\n      swap2\n      swap1\n      pop\n      jump\t// out\n        /* \"#utility.yul\":6140:6247   */\n    tag_94:\n        /* \"#utility.yul\":6184:6192   */\n      0x00\n        /* \"#utility.yul\":6234:6239   */\n      dup3\n        /* \"#utility.yul\":6228:6232   */\n      dup3\n        /* \"#utility.yul\":6224:6240   */\n      shl\n        /* \"#utility.yul\":6203:6240   */\n      swap1\n      pop\n        /* \"#utility.yul\":6140:6247   */\n      swap3\n      swap2\n      pop\n      pop\n      jump\t// out\n        /* \"#utility.yul\":6253:6646   */\n    tag_95:\n        /* \"#utility.yul\":6322:6328   */\n      0x00\n        /* \"#utility.yul\":6372:6373   */\n      0x08\n        /* \"#utility.yul\":6360:6370   */\n      dup4\n        /* \"#utility.yul\":6356:6374   */\n      mul\n        /* \"#utility.yul\":6395:6492   */\n      tag_176\n        /* \"#utility.yul\":6425:6491   */\n      0xffffffffffffffffffffffffffffffffffffffffffffffffffffffffffffffff\n        /* \"#utility.yul\":6414:6423   */\n      dup3\n        /* \"#utility.yul\":6395:6492   */\n      tag_94\n      jump\t// in\n    tag_176:\n        /* \"#utility.yul\":6513:6552   */\n      tag_177\n        /* \"#utility.yul\":6543:6551   */\n      dup7\n        /* \"#utility.yul\":6532:6541   */\n      dup4\n        /* \"#utility.yul\":6513:6552   */\n      tag_94\n      jump\t// in\n    tag_177:\n        /* \"#utility.yul\":6501:6552   */\n      swap6\n      pop\n        /* \"#utility.yul\":6585:6589   */\n      dup1\n        /* \"#utility.yul\":6581:6590   */\n      not\n        /* \"#utility.yul\":6574:6579   */\n      dup5\n        /* \"#utility.yul\":6570:6591   */\n      and\n        /* \"#utility.yul\":6561:6591   */\n      swap4\n      pop\n        /* \"#utility.yul\":6634:6638   */\n      dup1\n        /* \"#utility.yul\":6624:6632   */\n      dup7\n        /* \"#utility.yul\":6620:6639   */\n      and\n        /* \"#utility.yul\":6613:6618   */\n      dup5\n        /* \"#utility.yul\":6610:6640   */\n      or\n        /* \"#utility.yul\":6600:6640   */\n      swap3\n      pop\n        /* \"#utility.yul\":6329:6646   */\n      pop\n      pop\n        /* \"#utility.yul\":6253:6646   */\n      swap4\n      swap3\n      pop\n      pop\n      pop\n      jump\t// out\n        /* \"#utility.yul\":6652:6712   */\n    tag_96:\n        /* \"#utility.yul\":6680:6683   */\n      0x00\n        /* \"#utility.yul\":6701:6706   */\n      dup2\n        /* \"#utility.yul\":6694:6706   */\n      swap1\n      pop\n        /* \"#utility.yul\":6652:6712   */\n      swap2\n      swap1\n      pop\n      jump\t// out\n        /* \"#utility.yul\":6718:6860   */\n    tag_97:\n        /* \"#utility.yul\":6768:6777   */\n      0x00\n        /* \"#utility.yul\":6801:6854   */\n      tag_180\n        /* \"#utility.yul\":6819:6853   */\n      tag_181\n        /* \"#utility.yul\":6828:6852   */\n      tag_182\n        /* \"#utility.yul\":6846:6851   */\n      dup5\n        /* \"#utility.yul\":6828:6852   */\n      tag_80\n      jump\t// in\n    tag_182:\n        /* \"#utility.yul\":6819:6853   */\n      tag_96\n      jump\t// in\n    tag_181:\n        /* \"#utility.yul\":6801:6854   */\n      tag_80\n      jump\t// in\n    tag_180:\n        /* \"#utility.yul\":6788:6854   */\n      swap1\n      pop\n        /* \"#utility.yul\":6718:6860   */\n      swap2\n      swap1\n      pop\n      jump\t// out\n        /* \"#utility.yul\":6866:6941   */\n    tag_98:\n        /* \"#utility.yul\":6909:6912   */\n      0x00\n        /* \"#utility.yul\":6930:6935   */\n      dup2\n        /* \"#utility.yul\":6923:6935   */\n      swap1\n      pop\n        /* \"#utility.yul\":6866:6941   */\n      swap2\n      swap1\n      pop\n      jump\t// out\n        /* \"#utility.yul\":6947:7216   */\n    tag_99:\n        /* \"#utility.yul\":7057:7096   */\n      tag_185\n        /* \"#utility.yul\":7088:7095   */\n      dup4\n        /* \"#utility.yul\":7057:7096   */\n      tag_97\n      jump\t// in\n    tag_185:\n        /* \"#utility.yul\":7118:7209   */\n      tag_186\n        /* \"#utility.yul\":7167:7208   */\n      tag_187\n        /* \"#utility.yul\":7191:7207   */\n      dup3\n        /* \"#utility.yul\":7167:7208   */\n      tag_98\n      jump\t// in\n    tag_187:\n        /* \"#utility.yul\":7159:7165   */\n      dup5\n        /* \"#utility.yul\":7152:7156   */\n      dup5\n        /* \"#utility.yul\":7146:7157   */\n      sload\n        /* \"#utility.yul\":7118:7209   */\n      tag_95\n      jump\t// in\n    tag_186:\n        /* \"#utility.yul\":7112:7116   */\n      dup3\n        /* \"#utility.yul\":7105:7210   */\n      sstore\n        /* \"#utility.yul\":7023:7216   */\n      pop\n        /* \"#utility.yul\":6947:7216   */\n      pop\n      pop\n      pop\n      jump\t// out\n        /* \"#utility.yul\":7222:7295   */\n    tag_100:\n        /* \"#utility.yul\":7267:7270   */\n      0x00\n        /* \"#utility.yul\":7222:7295   */\n      swap1\n      jump\t// out\n        /* \"#utility.yul\":7301:7490   */\n    tag_101:\n        /* \"#utility.yul\":7378:7410   */\n      tag_190\n      tag_100\n      jump\t// in\n    tag_190:\n        /* \"#utility.yul\":7419:7484   */\n      tag_191\n        /* \"#utility.yul\":7477:7483   */\n      dup2\n        /* \"#utility.yul\":7469:7475   */\n      dup5\n        /* \"#utility.yul\":7463:7467   */\n      dup5\n        /* \"#utility.yul\":7419:7484   */\n      tag_99\n      jump\t// in\n    tag_191:\n        /* \"#utility.yul\":7354:7490   */\n      pop\n        /* \"#utility.yul\":7301:7490   */\n      pop\n      pop\n      jump\t// out\n        /* \"#utility.yul\":7496:7682   */\n    tag_102:\n        /* \"#utility.yul\":7556:7676   */\n    tag_193:\n        /* \"#utility.yul\":7573:7576   */\n      dup2\n        /* \"#utility.yul\":7566:7571   */\n      dup2\n        /* \"#utility.yul\":7563:7577   */\n      lt\n        /* \"#utility.yul\":7556:7676   */\n      iszero\n      tag_195\n      jumpi\n        /* \"#utility.yul\":7627:7666   */\n      tag_196\n        /* \"#utility.yul\":7664:7665   */\n      0x00\n        /* \"#utility.yul\":7657:7662   */\n      dup3\n        /* \"#utility.yul\":7627:7666   */\n      tag_101\n      jump\t// in\n    tag_196:\n        /* \"#utility.yul\":7600:7601   */\n      0x01\n        /* \"#utility.yul\":7593:7598   */\n      dup2\n        /* \"#utility.yul\":7589:7602   */\n      add\n        /* \"#utility.yul\":7580:7602   */\n      swap1\n      pop\n        /* \"#utility.yul\":7556:7676   */\n      jump(tag_193)\n    tag_195:\n        /* \"#utility.yul\":7496:7682   */\n      pop\n      pop\n      jump\t// out\n        /* \"#utility.yul\":7688:8231   */\n    tag_103:\n        /* \"#utility.yul\":7789:7791   */\n      0x1f\n        /* \"#utility.yul\":7784:7787   */\n      dup3\n        /* \"#utility.yul\":7781:7792   */\n      gt\n        /* \"#utility.yul\":7778:8224   */\n      iszero\n      tag_198\n      jumpi\n        /* \"#utility.yul\":7823:7861   */\n      tag_199\n        /* \"#utility.yul\":7855:7860   */\n      dup2\n        /* \"#utility.yul\":7823:7861   */\n      tag_92\n      jump\t// in\n    tag_199:\n        /* \"#utility.yul\":7907:7936   */\n      tag_200\n        /* \"#utility.yul\":7925:7935   */\n      dup5\n        /* \"#utility.yul\":7907:7936   */\n      tag_93\n      jump\t// in\n    tag_200:\n        /* \"#utility.yul\":7897:7905   */\n      dup2\n        /* \"#utility.yul\":7893:7937   */\n      add\n        /* \"#utility.yul\":8090:8092   */\n      0x20\n        /* \"#utility.yul\":8078:8088   */\n      dup6\n        /* \"#utility.yul\":8075:8093   */\n      lt\n        /* \"#utility.yul\":8072:8121   */\n      iszero\n      tag_201\n      jumpi\n        /* \"#utility.yul\":8111:8119   */\n      dup2\n        /* \"#utility.yul\":8096:8119   */\n      swap1\n      pop\n        /* \"#utility.yul\":8072:8121   */\n    tag_201:\n        /* \"#utility.yul\":8134:8214   */\n      tag_202\n        /* \"#utility.yul\":8190:8212   */\n      tag_203\n        /* \"#utility.yul\":8208:8211   */\n      dup6\n        /* \"#utility.yul\":8190:8212   */\n      tag_93\n      jump\t// in\n    tag_203:\n        /* \"#utility.yul\":8180:8188   */\n      dup4\n        /* \"#utility.yul\":8176:8213   */\n      add\n        /* \"#utility.yul\":8163:8174   */\n      dup3\n        /* \"#utility.yul\":8134:8214   */\n      tag_102\n      jump\t// in\n    tag_202:\n        /* \"#utility.yul\":7793:8224   */\n      pop\n      pop\n        /* \"#utility.yul\":7778:8224   */\n    tag_198:\n        /* \"#utility.yul\":7688:8231   */\n      pop\n      pop\n      pop\n      jump\t// out\n        /* \"#utility.yul\":8237:8354   */\n    tag_104:\n        /* \"#utility.yul\":8291:8299   */\n      0x00\n        /* \"#utility.yul\":8341:8346   */\n      dup3\n        /* \"#utility.yul\":8335:8339   */\n      dup3\n        /* \"#utility.yul\":8331:8347   */\n      shr\n        /* \"#utility.yul\":8310:8347   */\n      swap1\n      pop\n        /* \"#utility.yul\":8237:8354   */\n      swap3\n      swap2\n      pop\n      pop\n      jump\t// out\n        /* \"#utility.yul\":8360:8529   */\n    tag_105:\n        /* \"#utility.yul\":8404:8410   */\n      0x00\n        /* \"#utility.yul\":8437:8488   */\n      tag_206\n        /* \"#utility.yul\":8485:8486   */\n      0x00\n        /* \"#utility.yul\":8481:8487   */\n      not\n        /* \"#utility.yul\":8473:8478   */\n      dup5\n        /* \"#utility.yul\":8470:8471   */\n      0x08\n        /* \"#utility.yul\":8466:8479   */\n      mul\n        /* \"#utility.yul\":8437:8488   */\n      tag_104\n      jump\t// in\n    tag_206:\n        /* \"#utility.yul\":8433:8489   */\n      not\n        /* \"#utility.yul\":8518:8522   */\n      dup1\n        /* \"#utility.yul\":8512:8516   */\n      dup4\n        /* \"#utility.yul\":8508:8523   */\n      and\n        /* \"#utility.yul\":8498:8523   */\n      swap2\n      pop\n        /* \"#utility.yul\":8411:8529   */\n      pop\n        /* \"#utility.yul\":8360:8529   */\n      swap3\n      swap2\n      pop\n      pop\n      jump\t// out\n        /* \"#utility.yul\":8534:8829   */\n    tag_106:\n        /* \"#utility.yul\":8610:8614   */\n      0x00\n        /* \"#utility.yul\":8756:8785   */\n      tag_208\n        /* \"#utility.yul\":8781:8784   */\n      dup4\n        /* \"#utility.yul\":8775:8779   */\n      dup4\n        /* \"#utility.yul\":8756:8785   */\n      tag_105\n      jump\t// in\n    tag_208:\n        /* \"#utility.yul\":8748:8785   */\n      swap2\n      pop\n        /* \"#utility.yul\":8818:8821   */\n      dup3\n        /* \"#utility.yul\":8815:8816   */\n      0x02\n        /* \"#utility.yul\":8811:8822   */\n      mul\n        /* \"#utility.yul\":8805:8809   */\n      dup3\n        /* \"#utility.yul\":8802:8823   */\n      or\n        /* \"#utility.yul\":8794:8823   */\n      swap1\n      pop\n        /* \"#utility.yul\":8534:8829   */\n      swap3\n      swap2\n      pop\n      pop\n      jump\t// out\n        /* \"#utility.yul\":8834:10237   */\n    tag_67:\n        /* \"#utility.yul\":8958:9002   */\n      tag_210\n        /* \"#utility.yul\":8998:9001   */\n      dup4\n        /* \"#utility.yul\":8993:8996   */\n      dup4\n        /* \"#utility.yul\":8958:9002   */\n      tag_90\n      jump\t// in\n    tag_210:\n        /* \"#utility.yul\":9067:9085   */\n      0xffffffffffffffff\n        /* \"#utility.yul\":9059:9065   */\n      dup2\n        /* \"#utility.yul\":9056:9086   */\n      gt\n        /* \"#utility.yul\":9053:9109   */\n      iszero\n      tag_211\n      jumpi\n        /* \"#utility.yul\":9089:9107   */\n      tag_212\n      tag_91\n      jump\t// in\n    tag_212:\n        /* \"#utility.yul\":9053:9109   */\n    tag_211:\n        /* \"#utility.yul\":9133:9171   */\n      tag_213\n        /* \"#utility.yul\":9165:9169   */\n      dup3\n        /* \"#utility.yul\":9159:9170   */\n      sload\n        /* \"#utility.yul\":9133:9171   */\n      tag_52\n      jump\t// in\n    tag_213:\n        /* \"#utility.yul\":9218:9285   */\n      tag_214\n        /* \"#utility.yul\":9278:9284   */\n      dup3\n        /* \"#utility.yul\":9270:9276   */\n      dup3\n        /* \"#utility.yul\":9264:9268   */\n      dup6\n        /* \"#utility.yul\":9218:9285   */\n      tag_103\n      jump\t// in\n    tag_214:\n        /* \"#utility.yul\":9312:9313   */\n      0x00\n        /* \"#utility.yul\":9341:9343   */\n      0x1f\n        /* \"#utility.yul\":9333:9339   */\n      dup4\n        /* \"#utility.yul\":9330:9344   */\n      gt\n        /* \"#utility.yul\":9358:9359   */\n      0x01\n        /* \"#utility.yul\":9353:9985   */\n      dup2\n      eq\n      tag_216\n      jumpi\n        /* \"#utility.yul\":10029:10030   */\n      0x00\n        /* \"#utility.yul\":10046:10052   */\n      dup5\n        /* \"#utility.yul\":10043:10127   */\n      iszero\n      tag_217\n      jumpi\n        /* \"#utility.yul\":10102:10111   */\n      dup3\n        /* \"#utility.yul\":10097:10100   */\n      dup8\n        /* \"#utility.yul\":10093:10112   */\n      add\n        /* \"#utility.yul\":10080:10113   */\n      calldataload\n        /* \"#utility.yul\":10071:10113   */\n      swap1\n      pop\n        /* \"#utility.yul\":10043:10127   */\n    tag_217:\n        /* \"#utility.yul\":10153:10220   */\n      tag_218\n        /* \"#utility.yul\":10213:10219   */\n      dup6\n        /* \"#utility.yul\":10206:10211   */\n      dup3\n        /* \"#utility.yul\":10153:10220   */\n      tag_106\n      jump\t// in\n    tag_218:\n        /* \"#utility.yul\":10147:10151   */\n      dup7\n        /* \"#utility.yul\":10140:10221   */\n      sstore\n        /* \"#utility.yul\":10002:10231   */\n      pop\n        /* \"#utility.yul\":9323:10231   */\n      jump(tag_215)\n        /* \"#utility.yul\":9353:9985   */\n    tag_216:\n        /* \"#utility.yul\":9405:9409   */\n      0x1f\n        /* \"#utility.yul\":9401:9410   */\n      not\n        /* \"#utility.yul\":9393:9399   */\n      dup5\n        /* \"#utility.yul\":9389:9411   */\n      and\n        /* \"#utility.yul\":9439:9476   */\n      tag_219\n        /* \"#utility.yul\":9471:9475   */\n      dup7\n        /* \"#utility.yul\":9439:9476   */\n      tag_92\n      jump\t// in\n    tag_219:\n        /* \"#utility.yul\":9498:9499   */\n      0x00\n        /* \"#utility.yul\":9512:9727   */\n    tag_220:\n        /* \"#utility.yul\":9526:9533   */\n      dup3\n        /* \"#utility.yul\":9523:9524   */\n      dup2\n        /* \"#utility.yul\":9520:9534   */\n      lt\n        /* \"#utility.yul\":9512:9727   */\n      iszero\n      tag_222\n      jumpi\n        /* \"#utility.yul\":9612:9621   */\n      dup5\n        /* \"#utility.yul\":9607:9610   */\n      dup10\n        /* \"#utility.yul\":9603:9622   */\n      add\n        /* \"#utility.yul\":9590:9623   */\n      calldataload\n        /* \"#utility.yul\":9582:9588   */\n      dup3\n        /* \"#utility.yul\":9575:9624   */\n      sstore\n        /* \"#utility.yul\":9663:9664   */\n      0x01\n        /* \"#utility.yul\":9655:9661   */\n      dup3\n        /* \"#utility.yul\":9651:9665   */\n      add\n        /* \"#utility.yul\":9641:9665   */\n      swap2\n      pop\n        /* \"#utility.yul\":9710:9712   */\n      0x20\n        /* \"#utility.yul\":9699:9708   */\n      dup6\n        /* \"#utility.yul\":9695:9713   */\n      add\n        /* \"#utility.yul\":9682:9713   */\n      swap5\n      pop\n        /* \"#utility.yul\":9549:9553   */\n      0x20\n        /* \"#utility.yul\":9546:9547   */\n      dup2\n        /* \"#utility.yul\":9542:9554   */\n      add\n        /* \"#utility.yul\":9537:9554   */\n      swap1\n      pop\n        /* \"#utility.yul\":9512:9727   */\n      jump(tag_220)\n    tag_222:\n        /* \"#utility.yul\":9755:9761   */\n      dup7\n        /* \"#utility.yul\":9746:9753   */\n      dup4\n        /* \"#utility.yul\":9743:9762   */\n      lt\n        /* \"#utility.yul\":9740:9926   */\n      iszero\n      tag_223\n      jumpi\n        /* \"#utility.yul\":9820:9829   */\n      dup5\n        /* \"#utility.yul\":9815:9818   */\n      dup10\n        /* \"#utility.yul\":9811:9830   */\n      add\n        /* \"#utility.yul\":9798:9831   */\n      calldataload\n        /* \"#utility.yul\":9863:9911   */\n      tag_224\n        /* \"#utility.yul\":9905:9909   */\n      0x1f\n        /* \"#utility.yul\":9897:9903   */\n      dup10\n        /* \"#utility.yul\":9893:9910   */\n      and\n        /* \"#utility.yul\":9882:9891   */\n      dup3\n        /* \"#utility.yul\":9863:9911   */\n      tag_105\n      jump\t// in\n    tag_224:\n        /* \"#utility.yul\":9855:9861   */\n      dup4\n        /* \"#utility.yul\":9848:9912   */\n      sstore\n        /* \"#utility.yul\":9763:9926   */\n      pop\n        /* \"#utility.yul\":9740:9926   */\n    tag_223:\n        /* \"#utility.yul\":9972:9973   */\n      0x01\n        /* \"#utility.yul\":9968:9969   */\n      0x02\n        /* \"#utility.yul\":9960:9966   */\n      dup9\n        /* \"#utility.yul\":9956:9970   */\n      mul\n        /* \"#utility.yul\":9952:9974   */\n      add\n        /* \"#utility.yul\":9946:9950   */\n      dup9\n        /* \"#utility.yul\":9939:9975   */\n      sstore\n        /* \"#utility.yul\":9360:9985   */\n      pop\n      pop\n      pop\n        /* \"#utility.yul\":9323:10231   */\n    tag_215:\n      pop\n        /* \"#utility.yul\":8933:10237   */\n      pop\n      pop\n      pop\n        /* \"#utility.yul\":8834:10237   */\n      pop\n      pop\n      pop\n      jump\t// out\n\n    auxdata: 0xa2646970667358221220639ff6bc3a52c5a0dbd343a2d95b8b0fd902ede69990a0b8a6ac73ac3cb62e7064736f6c634300081a0033\n}\n",
				"bytecode": {
					"linkReferences": {},
					"object": "60806040526040518060400160405280600481526020017f4a6f686e000000000000000000000000000000000000000000000000000000008152505f90816100479190610298565b50601e600155348015610058575f80fd5b50610367565b5f81519050919050565b7f4e487b71000000000000000000000000000000000000000000000000000000005f52604160045260245ffd5b7f4e487b71000000000000000000000000000000000000000000000000000000005f52602260045260245ffd5b5f60028204905060018216806100d957607f821691505b6020821081036100ec576100eb610095565b5b50919050565b5f819050815f5260205f209050919050565b5f6020601f8301049050919050565b5f82821b905092915050565b5f6008830261014e7fffffffffffffffffffffffffffffffffffffffffffffffffffffffffffffffff82610113565b6101588683610113565b95508019841693508086168417925050509392505050565b5f819050919050565b5f819050919050565b5f61019c61019761019284610170565b610179565b610170565b9050919050565b5f819050919050565b6101b583610182565b6101c96101c1826101a3565b84845461011f565b825550505050565b5f90565b6101dd6101d1565b6101e88184846101ac565b505050565b5b8181101561020b576102005f826101d5565b6001810190506101ee565b5050565b601f82111561025057610221816100f2565b61022a84610104565b81016020851015610239578190505b61024d61024585610104565b8301826101ed565b50505b505050565b5f82821c905092915050565b5f6102705f1984600802610255565b1980831691505092915050565b5f6102888383610261565b9150826002028217905092915050565b6102a18261005e565b67ffffffffffffffff8111156102ba576102b9610068565b5b6102c482546100c2565b6102cf82828561020f565b5f60209050601f831160018114610300575f84156102ee578287015190505b6102f8858261027d565b86555061035f565b601f19841661030e866100f2565b5f5b8281101561033557848901518255600182019150602085019450602081019050610310565b86831015610352578489015161034e601f891682610261565b8355505b6001600288020188555050505b505050505050565b6109a9806103745f395ff3fe60806040526004361061007e575f3560e01c8063262a9dff1161004d578063262a9dff1461019c57806367e404ce146101c6578063af22068e146101f0578063e2982c21146102185761007f565b806306fdde03146101025780630c11dedd1461012c57806312065fe01461014857806317d7de7c146101725761007f565b5b3360035f6101000a81548173ffffffffffffffffffffffffffffffffffffffff021916908373ffffffffffffffffffffffffffffffffffffffff1602179055503460025f3373ffffffffffffffffffffffffffffffffffffffff1673ffffffffffffffffffffffffffffffffffffffff1681526020019081526020015f20819055005b34801561010d575f80fd5b50610116610254565b6040516101239190610487565b60405180910390f35b61014660048036038101906101419190610509565b6102df565b005b348015610153575f80fd5b5061015c610324565b604051610169919061054c565b60405180910390f35b34801561017d575f80fd5b5061018661032b565b6040516101939190610487565b60405180910390f35b3480156101a7575f80fd5b506101b06103ba565b6040516101bd919061054c565b60405180910390f35b3480156101d1575f80fd5b506101da6103c0565b6040516101e79190610574565b60405180910390f35b3480156101fb575f80fd5b5061021660048036038101906102119190610618565b6103e5565b005b348015610223575f80fd5b5061023e60048036038101906102399190610509565b610402565b60405161024b919061054c565b60405180910390f35b5f8054610260906106a2565b80601f016020809104026020016040519081016040528092919081815260200182805461028c906106a2565b80156102d75780601f106102ae576101008083540402835291602001916102d7565b820191905f5260205f20905b8154815290600101906020018083116102ba57829003601f168201915b505050505081565b3460025f8373ffffffffffffffffffffffffffffffffffffffff1673ffffffffffffffffffffffffffffffffffffffff1681526020019081526020015f208190555050565b5f47905090565b60605f8054610339906106a2565b80601f0160208091040260200160405190810160405280929190818152602001828054610365906106a2565b80156103b05780601f10610387576101008083540402835291602001916103b0565b820191905f5260205f20905b81548152906001019060200180831161039357829003601f168201915b5050505050905090565b60015481565b60035f9054906101000a900473ffffffffffffffffffffffffffffffffffffffff1681565b82825f91826103f59291906108a6565b5080600181905550505050565b6002602052805f5260405f205f915090505481565b5f81519050919050565b5f82825260208201905092915050565b8281835e5f83830152505050565b5f601f19601f8301169050919050565b5f61045982610417565b6104638185610421565b9350610473818560208601610431565b61047c8161043f565b840191505092915050565b5f6020820190508181035f83015261049f818461044f565b905092915050565b5f80fd5b5f80fd5b5f73ffffffffffffffffffffffffffffffffffffffff82169050919050565b5f6104d8826104af565b9050919050565b6104e8816104ce565b81146104f2575f80fd5b50565b5f81359050610503816104df565b92915050565b5f6020828403121561051e5761051d6104a7565b5b5f61052b848285016104f5565b91505092915050565b5f819050919050565b61054681610534565b82525050565b5f60208201905061055f5f83018461053d565b92915050565b61056e816104ce565b82525050565b5f6020820190506105875f830184610565565b92915050565b5f80fd5b5f80fd5b5f80fd5b5f8083601f8401126105ae576105ad61058d565b5b8235905067ffffffffffffffff8111156105cb576105ca610591565b5b6020830191508360018202830111156105e7576105e6610595565b5b9250929050565b6105f781610534565b8114610601575f80fd5b50565b5f81359050610612816105ee565b92915050565b5f805f6040848603121561062f5761062e6104a7565b5b5f84013567ffffffffffffffff81111561064c5761064b6104ab565b5b61065886828701610599565b9350935050602061066b86828701610604565b9150509250925092565b7f4e487b71000000000000000000000000000000000000000000000000000000005f52602260045260245ffd5b5f60028204905060018216806106b957607f821691505b6020821081036106cc576106cb610675565b5b50919050565b5f82905092915050565b7f4e487b71000000000000000000000000000000000000000000000000000000005f52604160045260245ffd5b5f819050815f5260205f209050919050565b5f6020601f8301049050919050565b5f82821b905092915050565b5f600883026107657fffffffffffffffffffffffffffffffffffffffffffffffffffffffffffffffff8261072a565b61076f868361072a565b95508019841693508086168417925050509392505050565b5f819050919050565b5f6107aa6107a56107a084610534565b610787565b610534565b9050919050565b5f819050919050565b6107c383610790565b6107d76107cf826107b1565b848454610736565b825550505050565b5f90565b6107eb6107df565b6107f68184846107ba565b505050565b5b818110156108195761080e5f826107e3565b6001810190506107fc565b5050565b601f82111561085e5761082f81610709565b6108388461071b565b81016020851015610847578190505b61085b6108538561071b565b8301826107fb565b50505b505050565b5f82821c905092915050565b5f61087e5f1984600802610863565b1980831691505092915050565b5f610896838361086f565b9150826002028217905092915050565b6108b083836106d2565b67ffffffffffffffff8111156108c9576108c86106dc565b5b6108d382546106a2565b6108de82828561081d565b5f601f83116001811461090b575f84156108f9578287013590505b610903858261088b565b86555061096a565b601f19841661091986610709565b5f5b828110156109405784890135825560018201915060208501945060208101905061091b565b8683101561095d5784890135610959601f89168261086f565b8355505b6001600288020188555050505b5050505050505056fea2646970667358221220639ff6bc3a52c5a0dbd343a2d95b8b0fd902ede69990a0b8a6ac73ac3cb62e7064736f6c634300081a0033",
					"opcodes": "PUSH1 0x80 PUSH1 0x40 MSTORE PUSH1 0x40 MLOAD DUP1 PUSH1 0x40 ADD PUSH1 0x40 MSTORE DUP1 PUSH1 0x4 DUP2 MSTORE PUSH1 0x20 ADD PUSH32 0x4A6F686E00000000000000000000000000000000000000000000000000000000 DUP2 MSTORE POP PUSH0 SWAP1 DUP2 PUSH2 0x47 SWAP2 SWAP1 PUSH2 0x298 JUMP JUMPDEST POP PUSH1 0x1E PUSH1 0x1 SSTORE CALLVALUE DUP1 ISZERO PUSH2 0x58 JUMPI PUSH0 DUP1 REVERT JUMPDEST POP PUSH2 0x367 JUMP JUMPDEST PUSH0 DUP2 MLOAD SWAP1 POP SWAP2 SWAP1 POP JUMP JUMPDEST PUSH32 0x4E487B7100000000000000000000000000000000000000000000000000000000 PUSH0 MSTORE PUSH1 0x41 PUSH1 0x4 MSTORE PUSH1 0x24 PUSH0 REVERT JUMPDEST PUSH32 0x4E487B7100000000000000000000000000000000000000000000000000000000 PUSH0 MSTORE PUSH1 0x22 PUSH1 0x4 MSTORE PUSH1 0x24 PUSH0 REVERT JUMPDEST PUSH0 PUSH1 0x2 DUP3 DIV SWAP1 POP PUSH1 0x1 DUP3 AND DUP1 PUSH2 0xD9 JUMPI PUSH1 0x7F DUP3 AND SWAP2 POP JUMPDEST PUSH1 0x20 DUP3 LT DUP2 SUB PUSH2 0xEC JUMPI PUSH2 0xEB PUSH2 0x95 JUMP JUMPDEST JUMPDEST POP SWAP2 SWAP1 POP JUMP JUMPDEST PUSH0 DUP2 SWAP1 POP DUP2 PUSH0 MSTORE PUSH1 0x20 PUSH0 KECCAK256 SWAP1 POP SWAP2 SWAP1 POP JUMP JUMPDEST PUSH0 PUSH1 0x20 PUSH1 0x1F DUP4 ADD DIV SWAP1 POP SWAP2 SWAP1 POP JUMP JUMPDEST PUSH0 DUP3 DUP3 SHL SWAP1 POP SWAP3 SWAP2 POP POP JUMP JUMPDEST PUSH0 PUSH1 0x8 DUP4 MUL PUSH2 0x14E PUSH32 0xFFFFFFFFFFFFFFFFFFFFFFFFFFFFFFFFFFFFFFFFFFFFFFFFFFFFFFFFFFFFFFFF DUP3 PUSH2 0x113 JUMP JUMPDEST PUSH2 0x158 DUP7 DUP4 PUSH2 0x113 JUMP JUMPDEST SWAP6 POP DUP1 NOT DUP5 AND SWAP4 POP DUP1 DUP7 AND DUP5 OR SWAP3 POP POP POP SWAP4 SWAP3 POP POP POP JUMP JUMPDEST PUSH0 DUP2 SWAP1 POP SWAP2 SWAP1 POP JUMP JUMPDEST PUSH0 DUP2 SWAP1 POP SWAP2 SWAP1 POP JUMP JUMPDEST PUSH0 PUSH2 0x19C PUSH2 0x197 PUSH2 0x192 DUP5 PUSH2 0x170 JUMP JUMPDEST PUSH2 0x179 JUMP JUMPDEST PUSH2 0x170 JUMP JUMPDEST SWAP1 POP SWAP2 SWAP1 POP JUMP JUMPDEST PUSH0 DUP2 SWAP1 POP SWAP2 SWAP1 POP JUMP JUMPDEST PUSH2 0x1B5 DUP4 PUSH2 0x182 JUMP JUMPDEST PUSH2 0x1C9 PUSH2 0x1C1 DUP3 PUSH2 0x1A3 JUMP JUMPDEST DUP5 DUP5 SLOAD PUSH2 0x11F JUMP JUMPDEST DUP3 SSTORE POP POP POP POP JUMP JUMPDEST PUSH0 SWAP1 JUMP JUMPDEST PUSH2 0x1DD PUSH2 0x1D1 JUMP JUMPDEST PUSH2 0x1E8 DUP2 DUP5 DUP5 PUSH2 0x1AC JUMP JUMPDEST POP POP POP JUMP JUMPDEST JUMPDEST DUP2 DUP2 LT ISZERO PUSH2 0x20B JUMPI PUSH2 0x200 PUSH0 DUP3 PUSH2 0x1D5 JUMP JUMPDEST PUSH1 0x1 DUP2 ADD SWAP1 POP PUSH2 0x1EE JUMP JUMPDEST POP POP JUMP JUMPDEST PUSH1 0x1F DUP3 GT ISZERO PUSH2 0x250 JUMPI PUSH2 0x221 DUP2 PUSH2 0xF2 JUMP JUMPDEST PUSH2 0x22A DUP5 PUSH2 0x104 JUMP JUMPDEST DUP2 ADD PUSH1 0x20 DUP6 LT ISZERO PUSH2 0x239 JUMPI DUP2 SWAP1 POP JUMPDEST PUSH2 0x24D PUSH2 0x245 DUP6 PUSH2 0x104 JUMP JUMPDEST DUP4 ADD DUP3 PUSH2 0x1ED JUMP JUMPDEST POP POP JUMPDEST POP POP POP JUMP JUMPDEST PUSH0 DUP3 DUP3 SHR SWAP1 POP SWAP3 SWAP2 POP POP JUMP JUMPDEST PUSH0 PUSH2 0x270 PUSH0 NOT DUP5 PUSH1 0x8 MUL PUSH2 0x255 JUMP JUMPDEST NOT DUP1 DUP4 AND SWAP2 POP POP SWAP3 SWAP2 POP POP JUMP JUMPDEST PUSH0 PUSH2 0x288 DUP4 DUP4 PUSH2 0x261 JUMP JUMPDEST SWAP2 POP DUP3 PUSH1 0x2 MUL DUP3 OR SWAP1 POP SWAP3 SWAP2 POP POP JUMP JUMPDEST PUSH2 0x2A1 DUP3 PUSH2 0x5E JUMP JUMPDEST PUSH8 0xFFFFFFFFFFFFFFFF DUP2 GT ISZERO PUSH2 0x2BA JUMPI PUSH2 0x2B9 PUSH2 0x68 JUMP JUMPDEST JUMPDEST PUSH2 0x2C4 DUP3 SLOAD PUSH2 0xC2 JUMP JUMPDEST PUSH2 0x2CF DUP3 DUP3 DUP6 PUSH2 0x20F JUMP JUMPDEST PUSH0 PUSH1 0x20 SWAP1 POP PUSH1 0x1F DUP4 GT PUSH1 0x1 DUP2 EQ PUSH2 0x300 JUMPI PUSH0 DUP5 ISZERO PUSH2 0x2EE JUMPI DUP3 DUP8 ADD MLOAD SWAP1 POP JUMPDEST PUSH2 0x2F8 DUP6 DUP3 PUSH2 0x27D JUMP JUMPDEST DUP7 SSTORE POP PUSH2 0x35F JUMP JUMPDEST PUSH1 0x1F NOT DUP5 AND PUSH2 0x30E DUP7 PUSH2 0xF2 JUMP JUMPDEST PUSH0 JUMPDEST DUP3 DUP2 LT ISZERO PUSH2 0x335 JUMPI DUP5 DUP10 ADD MLOAD DUP3 SSTORE PUSH1 0x1 DUP3 ADD SWAP2 POP PUSH1 0x20 DUP6 ADD SWAP5 POP PUSH1 0x20 DUP2 ADD SWAP1 POP PUSH2 0x310 JUMP JUMPDEST DUP7 DUP4 LT ISZERO PUSH2 0x352 JUMPI DUP5 DUP10 ADD MLOAD PUSH2 0x34E PUSH1 0x1F DUP10 AND DUP3 PUSH2 0x261 JUMP JUMPDEST DUP4 SSTORE POP JUMPDEST PUSH1 0x1 PUSH1 0x2 DUP9 MUL ADD DUP9 SSTORE POP POP POP JUMPDEST POP POP POP POP POP POP JUMP JUMPDEST PUSH2 0x9A9 DUP1 PUSH2 0x374 PUSH0 CODECOPY PUSH0 RETURN INVALID PUSH1 0x80 PUSH1 0x40 MSTORE PUSH1 0x4 CALLDATASIZE LT PUSH2 0x7E JUMPI PUSH0 CALLDATALOAD PUSH1 0xE0 SHR DUP1 PUSH4 0x262A9DFF GT PUSH2 0x4D JUMPI DUP1 PUSH4 0x262A9DFF EQ PUSH2 0x19C JUMPI DUP1 PUSH4 0x67E404CE EQ PUSH2 0x1C6 JUMPI DUP1 PUSH4 0xAF22068E EQ PUSH2 0x1F0 JUMPI DUP1 PUSH4 0xE2982C21 EQ PUSH2 0x218 JUMPI PUSH2 0x7F JUMP JUMPDEST DUP1 PUSH4 0x6FDDE03 EQ PUSH2 0x102 JUMPI DUP1 PUSH4 0xC11DEDD EQ PUSH2 0x12C JUMPI DUP1 PUSH4 0x12065FE0 EQ PUSH2 0x148 JUMPI DUP1 PUSH4 0x17D7DE7C EQ PUSH2 0x172 JUMPI PUSH2 0x7F JUMP JUMPDEST JUMPDEST CALLER PUSH1 0x3 PUSH0 PUSH2 0x100 EXP DUP2 SLOAD DUP2 PUSH20 0xFFFFFFFFFFFFFFFFFFFFFFFFFFFFFFFFFFFFFFFF MUL NOT AND SWAP1 DUP4 PUSH20 0xFFFFFFFFFFFFFFFFFFFFFFFFFFFFFFFFFFFFFFFF AND MUL OR SWAP1 SSTORE POP CALLVALUE PUSH1 0x2 PUSH0 CALLER PUSH20 0xFFFFFFFFFFFFFFFFFFFFFFFFFFFFFFFFFFFFFFFF AND PUSH20 0xFFFFFFFFFFFFFFFFFFFFFFFFFFFFFFFFFFFFFFFF AND DUP2 MSTORE PUSH1 0x20 ADD SWAP1 DUP2 MSTORE PUSH1 0x20 ADD PUSH0 KECCAK256 DUP2 SWAP1 SSTORE STOP JUMPDEST CALLVALUE DUP1 ISZERO PUSH2 0x10D JUMPI PUSH0 DUP1 REVERT JUMPDEST POP PUSH2 0x116 PUSH2 0x254 JUMP JUMPDEST PUSH1 0x40 MLOAD PUSH2 0x123 SWAP2 SWAP1 PUSH2 0x487 JUMP JUMPDEST PUSH1 0x40 MLOAD DUP1 SWAP2 SUB SWAP1 RETURN JUMPDEST PUSH2 0x146 PUSH1 0x4 DUP1 CALLDATASIZE SUB DUP2 ADD SWAP1 PUSH2 0x141 SWAP2 SWAP1 PUSH2 0x509 JUMP JUMPDEST PUSH2 0x2DF JUMP JUMPDEST STOP JUMPDEST CALLVALUE DUP1 ISZERO PUSH2 0x153 JUMPI PUSH0 DUP1 REVERT JUMPDEST POP PUSH2 0x15C PUSH2 0x324 JUMP JUMPDEST PUSH1 0x40 MLOAD PUSH2 0x169 SWAP2 SWAP1 PUSH2 0x54C JUMP JUMPDEST PUSH1 0x40 MLOAD DUP1 SWAP2 SUB SWAP1 RETURN JUMPDEST CALLVALUE DUP1 ISZERO PUSH2 0x17D JUMPI PUSH0 DUP1 REVERT JUMPDEST POP PUSH2 0x186 PUSH2 0x32B JUMP JUMPDEST PUSH1 0x40 MLOAD PUSH2 0x193 SWAP2 SWAP1 PUSH2 0x487 JUMP JUMPDEST PUSH1 0x40 MLOAD DUP1 SWAP2 SUB SWAP1 RETURN JUMPDEST CALLVALUE DUP1 ISZERO PUSH2 0x1A7 JUMPI PUSH0 DUP1 REVERT JUMPDEST POP PUSH2 0x1B0 PUSH2 0x3BA JUMP JUMPDEST PUSH1 0x40 MLOAD PUSH2 0x1BD SWAP2 SWAP1 PUSH2 0x54C JUMP JUMPDEST PUSH1 0x40 MLOAD DUP1 SWAP2 SUB SWAP1 RETURN JUMPDEST CALLVALUE DUP1 ISZERO PUSH2 0x1D1 JUMPI PUSH0 DUP1 REVERT JUMPDEST POP PUSH2 0x1DA PUSH2 0x3C0 JUMP JUMPDEST PUSH1 0x40 MLOAD PUSH2 0x1E7 SWAP2 SWAP1 PUSH2 0x574 JUMP JUMPDEST PUSH1 0x40 MLOAD DUP1 SWAP2 SUB SWAP1 RETURN JUMPDEST CALLVALUE DUP1 ISZERO PUSH2 0x1FB JUMPI PUSH0 DUP1 REVERT JUMPDEST POP PUSH2 0x216 PUSH1 0x4 DUP1 CALLDATASIZE SUB DUP2 ADD SWAP1 PUSH2 0x211 SWAP2 SWAP1 PUSH2 0x618 JUMP JUMPDEST PUSH2 0x3E5 JUMP JUMPDEST STOP JUMPDEST CALLVALUE DUP1 ISZERO PUSH2 0x223 JUMPI PUSH0 DUP1 REVERT JUMPDEST POP PUSH2 0x23E PUSH1 0x4 DUP1 CALLDATASIZE SUB DUP2 ADD SWAP1 PUSH2 0x239 SWAP2 SWAP1 PUSH2 0x509 JUMP JUMPDEST PUSH2 0x402 JUMP JUMPDEST PUSH1 0x40 MLOAD PUSH2 0x24B SWAP2 SWAP1 PUSH2 0x54C JUMP JUMPDEST PUSH1 0x40 MLOAD DUP1 SWAP2 SUB SWAP1 RETURN JUMPDEST PUSH0 DUP1 SLOAD PUSH2 0x260 SWAP1 PUSH2 0x6A2 JUMP JUMPDEST DUP1 PUSH1 0x1F ADD PUSH1 0x20 DUP1 SWAP2 DIV MUL PUSH1 0x20 ADD PUSH1 0x40 MLOAD SWAP1 DUP2 ADD PUSH1 0x40 MSTORE DUP1 SWAP3 SWAP2 SWAP1 DUP2 DUP2 MSTORE PUSH1 0x20 ADD DUP3 DUP1 SLOAD PUSH2 0x28C SWAP1 PUSH2 0x6A2 JUMP JUMPDEST DUP1 ISZERO PUSH2 0x2D7 JUMPI DUP1 PUSH1 0x1F LT PUSH2 0x2AE JUMPI PUSH2 0x100 DUP1 DUP4 SLOAD DIV MUL DUP4 MSTORE SWAP2 PUSH1 0x20 ADD SWAP2 PUSH2 0x2D7 JUMP JUMPDEST DUP3 ADD SWAP2 SWAP1 PUSH0 MSTORE PUSH1 0x20 PUSH0 KECCAK256 SWAP1 JUMPDEST DUP2 SLOAD DUP2 MSTORE SWAP1 PUSH1 0x1 ADD SWAP1 PUSH1 0x20 ADD DUP1 DUP4 GT PUSH2 0x2BA JUMPI DUP3 SWAP1 SUB PUSH1 0x1F AND DUP3 ADD SWAP2 JUMPDEST POP POP POP POP POP DUP2 JUMP JUMPDEST CALLVALUE PUSH1 0x2 PUSH0 DUP4 PUSH20 0xFFFFFFFFFFFFFFFFFFFFFFFFFFFFFFFFFFFFFFFF AND PUSH20 0xFFFFFFFFFFFFFFFFFFFFFFFFFFFFFFFFFFFFFFFF AND DUP2 MSTORE PUSH1 0x20 ADD SWAP1 DUP2 MSTORE PUSH1 0x20 ADD PUSH0 KECCAK256 DUP2 SWAP1 SSTORE POP POP JUMP JUMPDEST PUSH0 SELFBALANCE SWAP1 POP SWAP1 JUMP JUMPDEST PUSH1 0x60 PUSH0 DUP1 SLOAD PUSH2 0x339 SWAP1 PUSH2 0x6A2 JUMP JUMPDEST DUP1 PUSH1 0x1F ADD PUSH1 0x20 DUP1 SWAP2 DIV MUL PUSH1 0x20 ADD PUSH1 0x40 MLOAD SWAP1 DUP2 ADD PUSH1 0x40 MSTORE DUP1 SWAP3 SWAP2 SWAP1 DUP2 DUP2 MSTORE PUSH1 0x20 ADD DUP3 DUP1 SLOAD PUSH2 0x365 SWAP1 PUSH2 0x6A2 JUMP JUMPDEST DUP1 ISZERO PUSH2 0x3B0 JUMPI DUP1 PUSH1 0x1F LT PUSH2 0x387 JUMPI PUSH2 0x100 DUP1 DUP4 SLOAD DIV MUL DUP4 MSTORE SWAP2 PUSH1 0x20 ADD SWAP2 PUSH2 0x3B0 JUMP JUMPDEST DUP3 ADD SWAP2 SWAP1 PUSH0 MSTORE PUSH1 0x20 PUSH0 KECCAK256 SWAP1 JUMPDEST DUP2 SLOAD DUP2 MSTORE SWAP1 PUSH1 0x1 ADD SWAP1 PUSH1 0x20 ADD DUP1 DUP4 GT PUSH2 0x393 JUMPI DUP3 SWAP1 SUB PUSH1 0x1F AND DUP3 ADD SWAP2 JUMPDEST POP POP POP POP POP SWAP1 POP SWAP1 JUMP JUMPDEST PUSH1 0x1 SLOAD DUP2 JUMP JUMPDEST PUSH1 0x3 PUSH0 SWAP1 SLOAD SWAP1 PUSH2 0x100 EXP SWAP1 DIV PUSH20 0xFFFFFFFFFFFFFFFFFFFFFFFFFFFFFFFFFFFFFFFF AND DUP2 JUMP JUMPDEST DUP3 DUP3 PUSH0 SWAP2 DUP3 PUSH2 0x3F5 SWAP3 SWAP2 SWAP1 PUSH2 0x8A6 JUMP JUMPDEST POP DUP1 PUSH1 0x1 DUP2 SWAP1 SSTORE POP POP POP POP JUMP JUMPDEST PUSH1 0x2 PUSH1 0x20 MSTORE DUP1 PUSH0 MSTORE PUSH1 0x40 PUSH0 KECCAK256 PUSH0 SWAP2 POP SWAP1 POP SLOAD DUP2 JUMP JUMPDEST PUSH0 DUP2 MLOAD SWAP1 POP SWAP2 SWAP1 POP JUMP JUMPDEST PUSH0 DUP3 DUP3 MSTORE PUSH1 0x20 DUP3 ADD SWAP1 POP SWAP3 SWAP2 POP POP JUMP JUMPDEST DUP3 DUP2 DUP4 MCOPY PUSH0 DUP4 DUP4 ADD MSTORE POP POP POP JUMP JUMPDEST PUSH0 PUSH1 0x1F NOT PUSH1 0x1F DUP4 ADD AND SWAP1 POP SWAP2 SWAP1 POP JUMP JUMPDEST PUSH0 PUSH2 0x459 DUP3 PUSH2 0x417 JUMP JUMPDEST PUSH2 0x463 DUP2 DUP6 PUSH2 0x421 JUMP JUMPDEST SWAP4 POP PUSH2 0x473 DUP2 DUP6 PUSH1 0x20 DUP7 ADD PUSH2 0x431 JUMP JUMPDEST PUSH2 0x47C DUP2 PUSH2 0x43F JUMP JUMPDEST DUP5 ADD SWAP2 POP POP SWAP3 SWAP2 POP POP JUMP JUMPDEST PUSH0 PUSH1 0x20 DUP3 ADD SWAP1 POP DUP2 DUP2 SUB PUSH0 DUP4 ADD MSTORE PUSH2 0x49F DUP2 DUP5 PUSH2 0x44F JUMP JUMPDEST SWAP1 POP SWAP3 SWAP2 POP POP JUMP JUMPDEST PUSH0 DUP1 REVERT JUMPDEST PUSH0 DUP1 REVERT JUMPDEST PUSH0 PUSH20 0xFFFFFFFFFFFFFFFFFFFFFFFFFFFFFFFFFFFFFFFF DUP3 AND SWAP1 POP SWAP2 SWAP1 POP JUMP JUMPDEST PUSH0 PUSH2 0x4D8 DUP3 PUSH2 0x4AF JUMP JUMPDEST SWAP1 POP SWAP2 SWAP1 POP JUMP JUMPDEST PUSH2 0x4E8 DUP2 PUSH2 0x4CE JUMP JUMPDEST DUP2 EQ PUSH2 0x4F2 JUMPI PUSH0 DUP1 REVERT JUMPDEST POP JUMP JUMPDEST PUSH0 DUP2 CALLDATALOAD SWAP1 POP PUSH2 0x503 DUP2 PUSH2 0x4DF JUMP JUMPDEST SWAP3 SWAP2 POP POP JUMP JUMPDEST PUSH0 PUSH1 0x20 DUP3 DUP5 SUB SLT ISZERO PUSH2 0x51E JUMPI PUSH2 0x51D PUSH2 0x4A7 JUMP JUMPDEST JUMPDEST PUSH0 PUSH2 0x52B DUP5 DUP3 DUP6 ADD PUSH2 0x4F5 JUMP JUMPDEST SWAP2 POP POP SWAP3 SWAP2 POP POP JUMP JUMPDEST PUSH0 DUP2 SWAP1 POP SWAP2 SWAP1 POP JUMP JUMPDEST PUSH2 0x546 DUP2 PUSH2 0x534 JUMP JUMPDEST DUP3 MSTORE POP POP JUMP JUMPDEST PUSH0 PUSH1 0x20 DUP3 ADD SWAP1 POP PUSH2 0x55F PUSH0 DUP4 ADD DUP5 PUSH2 0x53D JUMP JUMPDEST SWAP3 SWAP2 POP POP JUMP JUMPDEST PUSH2 0x56E DUP2 PUSH2 0x4CE JUMP JUMPDEST DUP3 MSTORE POP POP JUMP JUMPDEST PUSH0 PUSH1 0x20 DUP3 ADD SWAP1 POP PUSH2 0x587 PUSH0 DUP4 ADD DUP5 PUSH2 0x565 JUMP JUMPDEST SWAP3 SWAP2 POP POP JUMP JUMPDEST PUSH0 DUP1 REVERT JUMPDEST PUSH0 DUP1 REVERT JUMPDEST PUSH0 DUP1 REVERT JUMPDEST PUSH0 DUP1 DUP4 PUSH1 0x1F DUP5 ADD SLT PUSH2 0x5AE JUMPI PUSH2 0x5AD PUSH2 0x58D JUMP JUMPDEST JUMPDEST DUP3 CALLDATALOAD SWAP1 POP PUSH8 0xFFFFFFFFFFFFFFFF DUP2 GT ISZERO PUSH2 0x5CB JUMPI PUSH2 0x5CA PUSH2 0x591 JUMP JUMPDEST JUMPDEST PUSH1 0x20 DUP4 ADD SWAP2 POP DUP4 PUSH1 0x1 DUP3 MUL DUP4 ADD GT ISZERO PUSH2 0x5E7 JUMPI PUSH2 0x5E6 PUSH2 0x595 JUMP JUMPDEST JUMPDEST SWAP3 POP SWAP3 SWAP1 POP JUMP JUMPDEST PUSH2 0x5F7 DUP2 PUSH2 0x534 JUMP JUMPDEST DUP2 EQ PUSH2 0x601 JUMPI PUSH0 DUP1 REVERT JUMPDEST POP JUMP JUMPDEST PUSH0 DUP2 CALLDATALOAD SWAP1 POP PUSH2 0x612 DUP2 PUSH2 0x5EE JUMP JUMPDEST SWAP3 SWAP2 POP POP JUMP JUMPDEST PUSH0 DUP1 PUSH0 PUSH1 0x40 DUP5 DUP7 SUB SLT ISZERO PUSH2 0x62F JUMPI PUSH2 0x62E PUSH2 0x4A7 JUMP JUMPDEST JUMPDEST PUSH0 DUP5 ADD CALLDATALOAD PUSH8 0xFFFFFFFFFFFFFFFF DUP2 GT ISZERO PUSH2 0x64C JUMPI PUSH2 0x64B PUSH2 0x4AB JUMP JUMPDEST JUMPDEST PUSH2 0x658 DUP7 DUP3 DUP8 ADD PUSH2 0x599 JUMP JUMPDEST SWAP4 POP SWAP4 POP POP PUSH1 0x20 PUSH2 0x66B DUP7 DUP3 DUP8 ADD PUSH2 0x604 JUMP JUMPDEST SWAP2 POP POP SWAP3 POP SWAP3 POP SWAP3 JUMP JUMPDEST PUSH32 0x4E487B7100000000000000000000000000000000000000000000000000000000 PUSH0 MSTORE PUSH1 0x22 PUSH1 0x4 MSTORE PUSH1 0x24 PUSH0 REVERT JUMPDEST PUSH0 PUSH1 0x2 DUP3 DIV SWAP1 POP PUSH1 0x1 DUP3 AND DUP1 PUSH2 0x6B9 JUMPI PUSH1 0x7F DUP3 AND SWAP2 POP JUMPDEST PUSH1 0x20 DUP3 LT DUP2 SUB PUSH2 0x6CC JUMPI PUSH2 0x6CB PUSH2 0x675 JUMP JUMPDEST JUMPDEST POP SWAP2 SWAP1 POP JUMP JUMPDEST PUSH0 DUP3 SWAP1 POP SWAP3 SWAP2 POP POP JUMP JUMPDEST PUSH32 0x4E487B7100000000000000000000000000000000000000000000000000000000 PUSH0 MSTORE PUSH1 0x41 PUSH1 0x4 MSTORE PUSH1 0x24 PUSH0 REVERT JUMPDEST PUSH0 DUP2 SWAP1 POP DUP2 PUSH0 MSTORE PUSH1 0x20 PUSH0 KECCAK256 SWAP1 POP SWAP2 SWAP1 POP JUMP JUMPDEST PUSH0 PUSH1 0x20 PUSH1 0x1F DUP4 ADD DIV SWAP1 POP SWAP2 SWAP1 POP JUMP JUMPDEST PUSH0 DUP3 DUP3 SHL SWAP1 POP SWAP3 SWAP2 POP POP JUMP JUMPDEST PUSH0 PUSH1 0x8 DUP4 MUL PUSH2 0x765 PUSH32 0xFFFFFFFFFFFFFFFFFFFFFFFFFFFFFFFFFFFFFFFFFFFFFFFFFFFFFFFFFFFFFFFF DUP3 PUSH2 0x72A JUMP JUMPDEST PUSH2 0x76F DUP7 DUP4 PUSH2 0x72A JUMP JUMPDEST SWAP6 POP DUP1 NOT DUP5 AND SWAP4 POP DUP1 DUP7 AND DUP5 OR SWAP3 POP POP POP SWAP4 SWAP3 POP POP POP JUMP JUMPDEST PUSH0 DUP2 SWAP1 POP SWAP2 SWAP1 POP JUMP JUMPDEST PUSH0 PUSH2 0x7AA PUSH2 0x7A5 PUSH2 0x7A0 DUP5 PUSH2 0x534 JUMP JUMPDEST PUSH2 0x787 JUMP JUMPDEST PUSH2 0x534 JUMP JUMPDEST SWAP1 POP SWAP2 SWAP1 POP JUMP JUMPDEST PUSH0 DUP2 SWAP1 POP SWAP2 SWAP1 POP JUMP JUMPDEST PUSH2 0x7C3 DUP4 PUSH2 0x790 JUMP JUMPDEST PUSH2 0x7D7 PUSH2 0x7CF DUP3 PUSH2 0x7B1 JUMP JUMPDEST DUP5 DUP5 SLOAD PUSH2 0x736 JUMP JUMPDEST DUP3 SSTORE POP POP POP POP JUMP JUMPDEST PUSH0 SWAP1 JUMP JUMPDEST PUSH2 0x7EB PUSH2 0x7DF JUMP JUMPDEST PUSH2 0x7F6 DUP2 DUP5 DUP5 PUSH2 0x7BA JUMP JUMPDEST POP POP POP JUMP JUMPDEST JUMPDEST DUP2 DUP2 LT ISZERO PUSH2 0x819 JUMPI PUSH2 0x80E PUSH0 DUP3 PUSH2 0x7E3 JUMP JUMPDEST PUSH1 0x1 DUP2 ADD SWAP1 POP PUSH2 0x7FC JUMP JUMPDEST POP POP JUMP JUMPDEST PUSH1 0x1F DUP3 GT ISZERO PUSH2 0x85E JUMPI PUSH2 0x82F DUP2 PUSH2 0x709 JUMP JUMPDEST PUSH2 0x838 DUP5 PUSH2 0x71B JUMP JUMPDEST DUP2 ADD PUSH1 0x20 DUP6 LT ISZERO PUSH2 0x847 JUMPI DUP2 SWAP1 POP JUMPDEST PUSH2 0x85B PUSH2 0x853 DUP6 PUSH2 0x71B JUMP JUMPDEST DUP4 ADD DUP3 PUSH2 0x7FB JUMP JUMPDEST POP POP JUMPDEST POP POP POP JUMP JUMPDEST PUSH0 DUP3 DUP3 SHR SWAP1 POP SWAP3 SWAP2 POP POP JUMP JUMPDEST PUSH0 PUSH2 0x87E PUSH0 NOT DUP5 PUSH1 0x8 MUL PUSH2 0x863 JUMP JUMPDEST NOT DUP1 DUP4 AND SWAP2 POP POP SWAP3 SWAP2 POP POP JUMP JUMPDEST PUSH0 PUSH2 0x896 DUP4 DUP4 PUSH2 0x86F JUMP JUMPDEST SWAP2 POP DUP3 PUSH1 0x2 MUL DUP3 OR SWAP1 POP SWAP3 SWAP2 POP POP JUMP JUMPDEST PUSH2 0x8B0 DUP4 DUP4 PUSH2 0x6D2 JUMP JUMPDEST PUSH8 0xFFFFFFFFFFFFFFFF DUP2 GT ISZERO PUSH2 0x8C9 JUMPI PUSH2 0x8C8 PUSH2 0x6DC JUMP JUMPDEST JUMPDEST PUSH2 0x8D3 DUP3 SLOAD PUSH2 0x6A2 JUMP JUMPDEST PUSH2 0x8DE DUP3 DUP3 DUP6 PUSH2 0x81D JUMP JUMPDEST PUSH0 PUSH1 0x1F DUP4 GT PUSH1 0x1 DUP2 EQ PUSH2 0x90B JUMPI PUSH0 DUP5 ISZERO PUSH2 0x8F9 JUMPI DUP3 DUP8 ADD CALLDATALOAD SWAP1 POP JUMPDEST PUSH2 0x903 DUP6 DUP3 PUSH2 0x88B JUMP JUMPDEST DUP7 SSTORE POP PUSH2 0x96A JUMP JUMPDEST PUSH1 0x1F NOT DUP5 AND PUSH2 0x919 DUP7 PUSH2 0x709 JUMP JUMPDEST PUSH0 JUMPDEST DUP3 DUP2 LT ISZERO PUSH2 0x940 JUMPI DUP5 DUP10 ADD CALLDATALOAD DUP3 SSTORE PUSH1 0x1 DUP3 ADD SWAP2 POP PUSH1 0x20 DUP6 ADD SWAP5 POP PUSH1 0x20 DUP2 ADD SWAP1 POP PUSH2 0x91B JUMP JUMPDEST DUP7 DUP4 LT ISZERO PUSH2 0x95D JUMPI DUP5 DUP10 ADD CALLDATALOAD PUSH2 0x959 PUSH1 0x1F DUP10 AND DUP3 PUSH2 0x86F JUMP JUMPDEST DUP4 SSTORE POP JUMPDEST PUSH1 0x1 PUSH1 0x2 DUP9 MUL ADD DUP9 SSTORE POP POP POP JUMPDEST POP POP POP POP POP POP POP JUMP INVALID LOG2 PUSH5 0x6970667358 0x22 SLT KECCAK256 PUSH4 0x9FF6BC3A MSTORE 0xC5 LOG0 0xDB 0xD3 NUMBER LOG2 0xD9 JUMPDEST DUP12 0xF 0xD9 MUL 0xED 0xE6 SWAP10 SWAP1 LOG0 0xB8 0xA6 0xAC PUSH20 0xAC3CB62E7064736F6C634300081A003300000000 "
				},
				"gasEstimates": {
					"creation": {
						"codeDepositCost": "494600",
						"executionCost": "infinite",
						"totalCost": "infinite"
					},
					"external": {
						"": "46636",
						"age()": "2425",
						"getBalance()": "379",
						"getName()": "infinite",
						"name()": "infinite",
						"pay(address)": "22649",
						"payments(address)": "2868",
						"sender()": "2530",
						"setData(string,uint256)": "infinite"
					}
				},
				"methodIdentifiers": {
					"age()": "262a9dff",
					"getBalance()": "12065fe0",
					"getName()": "17d7de7c",
					"name()": "06fdde03",
					"pay(address)": "0c11dedd",
					"payments(address)": "e2982c21",
					"sender()": "67e404ce",
					"setData(string,uint256)": "af22068e"
				}
			},
			"storageLayout": {
				"storage": [
					{
						"astId": 4,
						"contract": "Example_Calls/DemoToCalls.sol:Demo",
						"label": "name",
						"offset": 0,
						"slot": "0",
						"type": "t_string_storage"
					},
					{
						"astId": 7,
						"contract": "Example_Calls/DemoToCalls.sol:Demo",
						"label": "age",
						"offset": 0,
						"slot": "1",
						"type": "t_uint256"
					},
					{
						"astId": 11,
						"contract": "Example_Calls/DemoToCalls.sol:Demo",
						"label": "payments",
						"offset": 0,
						"slot": "2",
						"type": "t_mapping(t_address,t_uint256)"
					},
					{
						"astId": 13,
						"contract": "Example_Calls/DemoToCalls.sol:Demo",
						"label": "sender",
						"offset": 0,
						"slot": "3",
						"type": "t_address"
					}
				],
				"types": {
					"t_address": {
						"encoding": "inplace",
						"label": "address",
						"numberOfBytes": "20"
					},
					"t_mapping(t_address,t_uint256)": {
						"encoding": "mapping",
						"key": "t_address",
						"label": "mapping(address => uint256)",
						"numberOfBytes": "32",
						"value": "t_uint256"
					},
					"t_string_storage": {
						"encoding": "bytes",
						"label": "string",
						"numberOfBytes": "32"
					},
					"t_uint256": {
						"encoding": "inplace",
						"label": "uint256",
						"numberOfBytes": "32"
					}
				}
			},
			"userdoc": {
				"kind": "user",
				"methods": {},
				"version": 1
			}
		}
	}
}