{
	"Example_Encode/Encode.sol": {
		"Encode": {
			"abi": [
				{
					"inputs": [
						{
							"internalType": "string",
							"name": "str1",
							"type": "string"
						},
						{
							"internalType": "uint256",
							"name": "int1",
							"type": "uint256"
						}
					],
					"name": "doEncode",
					"outputs": [
						{
							"internalType": "bytes",
							"name": "",
							"type": "bytes"
						}
					],
					"stateMutability": "pure",
					"type": "function"
				},
				{
					"inputs": [
						{
							"internalType": "string",
							"name": "str1",
							"type": "string"
						},
						{
							"internalType": "uint256",
							"name": "int1",
							"type": "uint256"
						}
					],
					"name": "doHash",
					"outputs": [
						{
							"internalType": "bytes32",
							"name": "",
							"type": "bytes32"
						}
					],
					"stateMutability": "pure",
					"type": "function"
				}
			],
			"devdoc": {
				"kind": "dev",
				"methods": {},
				"version": 1
			},
			"evm": {
				"assembly": "    /* \"Example_Encode/Encode.sol\":57:444  contract Encode {... */\n  mstore(0x40, 0x80)\n  callvalue\n  dup1\n  iszero\n  tag_1\n  jumpi\n  0x00\n  dup1\n  revert\ntag_1:\n  pop\n  dataSize(sub_0)\n  dup1\n  dataOffset(sub_0)\n  0x00\n  codecopy\n  0x00\n  return\nstop\n\nsub_0: assembly {\n        /* \"Example_Encode/Encode.sol\":57:444  contract Encode {... */\n      mstore(0x40, 0x80)\n      callvalue\n      dup1\n      iszero\n      tag_1\n      jumpi\n      0x00\n      dup1\n      revert\n    tag_1:\n      pop\n      jumpi(tag_2, lt(calldatasize, 0x04))\n      shr(0xe0, calldataload(0x00))\n      dup1\n      0x0ed8085b\n      eq\n      tag_3\n      jumpi\n      dup1\n      0xa0402a9e\n      eq\n      tag_4\n      jumpi\n    tag_2:\n      0x00\n      dup1\n      revert\n        /* \"Example_Encode/Encode.sol\":79:210  function doHash(string memory str1, uint int1) public pure returns(bytes32) {... */\n    tag_3:\n      tag_5\n      0x04\n      dup1\n      calldatasize\n      sub\n      dup2\n      add\n      swap1\n      tag_6\n      swap2\n      swap1\n      tag_7\n      jump\t// in\n    tag_6:\n      tag_8\n      jump\t// in\n    tag_5:\n      mload(0x40)\n      tag_9\n      swap2\n      swap1\n      tag_10\n      jump\t// in\n    tag_9:\n      mload(0x40)\n      dup1\n      swap2\n      sub\n      swap1\n      return\n        /* \"Example_Encode/Encode.sol\":216:441  function doEncode(string memory str1, uint int1) public pure returns(bytes memory){... */\n    tag_4:\n      tag_11\n      0x04\n      dup1\n      calldatasize\n      sub\n      dup2\n      add\n      swap1\n      tag_12\n      swap2\n      swap1\n      tag_7\n      jump\t// in\n    tag_12:\n      tag_13\n      jump\t// in\n    tag_11:\n      mload(0x40)\n      tag_14\n      swap2\n      swap1\n      tag_15\n      jump\t// in\n    tag_14:\n      mload(0x40)\n      dup1\n      swap2\n      sub\n      swap1\n      return\n        /* \"Example_Encode/Encode.sol\":79:210  function doHash(string memory str1, uint int1) public pure returns(bytes32) {... */\n    tag_8:\n        /* \"Example_Encode/Encode.sol\":146:153  bytes32 */\n      0x00\n        /* \"Example_Encode/Encode.sol\":182:202  doEncode(str1, int1) */\n      tag_17\n        /* \"Example_Encode/Encode.sol\":191:195  str1 */\n      dup4\n        /* \"Example_Encode/Encode.sol\":197:201  int1 */\n      dup4\n        /* \"Example_Encode/Encode.sol\":182:190  doEncode */\n      tag_13\n        /* \"Example_Encode/Encode.sol\":182:202  doEncode(str1, int1) */\n      jump\t// in\n    tag_17:\n        /* \"Example_Encode/Encode.sol\":172:203  keccak256(doEncode(str1, int1)) */\n      dup1\n      mload\n      swap1\n      0x20\n      add\n      keccak256\n        /* \"Example_Encode/Encode.sol\":165:203  return keccak256(doEncode(str1, int1)) */\n      swap1\n      pop\n        /* \"Example_Encode/Encode.sol\":79:210  function doHash(string memory str1, uint int1) public pure returns(bytes32) {... */\n      swap3\n      swap2\n      pop\n      pop\n      jump\t// out\n        /* \"Example_Encode/Encode.sol\":216:441  function doEncode(string memory str1, uint int1) public pure returns(bytes memory){... */\n    tag_13:\n        /* \"Example_Encode/Encode.sol\":285:297  bytes memory */\n      0x60\n        /* \"Example_Encode/Encode.sol\":308:325  bytes memory res1 */\n      0x00\n        /* \"Example_Encode/Encode.sol\":339:343  str1 */\n      dup4\n        /* \"Example_Encode/Encode.sol\":345:349  int1 */\n      dup4\n        /* \"Example_Encode/Encode.sol\":328:350  abi.encode(str1, int1) */\n      add(0x20, mload(0x40))\n      tag_19\n      swap3\n      swap2\n      swap1\n      tag_20\n      jump\t// in\n    tag_19:\n      mload(0x40)\n      0x20\n      dup2\n      dup4\n      sub\n      sub\n      dup2\n      mstore\n      swap1\n      0x40\n      mstore\n        /* \"Example_Encode/Encode.sol\":308:350  bytes memory res1 = abi.encode(str1, int1) */\n      swap1\n      pop\n        /* \"Example_Encode/Encode.sol\":430:434  res1 */\n      dup1\n        /* \"Example_Encode/Encode.sol\":423:434  return res1 */\n      swap2\n      pop\n      pop\n        /* \"Example_Encode/Encode.sol\":216:441  function doEncode(string memory str1, uint int1) public pure returns(bytes memory){... */\n      swap3\n      swap2\n      pop\n      pop\n      jump\t// out\n        /* \"#utility.yul\":7:82   */\n    tag_21:\n        /* \"#utility.yul\":40:46   */\n      0x00\n        /* \"#utility.yul\":73:75   */\n      0x40\n        /* \"#utility.yul\":67:76   */\n      mload\n        /* \"#utility.yul\":57:76   */\n      swap1\n      pop\n        /* \"#utility.yul\":7:82   */\n      swap1\n      jump\t// out\n        /* \"#utility.yul\":88:205   */\n    tag_22:\n        /* \"#utility.yul\":197:198   */\n      0x00\n        /* \"#utility.yul\":194:195   */\n      dup1\n        /* \"#utility.yul\":187:199   */\n      revert\n        /* \"#utility.yul\":211:328   */\n    tag_23:\n        /* \"#utility.yul\":320:321   */\n      0x00\n        /* \"#utility.yul\":317:318   */\n      dup1\n        /* \"#utility.yul\":310:322   */\n      revert\n        /* \"#utility.yul\":334:451   */\n    tag_24:\n        /* \"#utility.yul\":443:444   */\n      0x00\n        /* \"#utility.yul\":440:441   */\n      dup1\n        /* \"#utility.yul\":433:445   */\n      revert\n        /* \"#utility.yul\":457:574   */\n    tag_25:\n        /* \"#utility.yul\":566:567   */\n      0x00\n        /* \"#utility.yul\":563:564   */\n      dup1\n        /* \"#utility.yul\":556:568   */\n      revert\n        /* \"#utility.yul\":580:682   */\n    tag_26:\n        /* \"#utility.yul\":621:627   */\n      0x00\n        /* \"#utility.yul\":672:674   */\n      0x1f\n        /* \"#utility.yul\":668:675   */\n      not\n        /* \"#utility.yul\":663:665   */\n      0x1f\n        /* \"#utility.yul\":656:661   */\n      dup4\n        /* \"#utility.yul\":652:666   */\n      add\n        /* \"#utility.yul\":648:676   */\n      and\n        /* \"#utility.yul\":638:676   */\n      swap1\n      pop\n        /* \"#utility.yul\":580:682   */\n      swap2\n      swap1\n      pop\n      jump\t// out\n        /* \"#utility.yul\":688:868   */\n    tag_27:\n        /* \"#utility.yul\":736:813   */\n      0x4e487b7100000000000000000000000000000000000000000000000000000000\n        /* \"#utility.yul\":733:734   */\n      0x00\n        /* \"#utility.yul\":726:814   */\n      mstore\n        /* \"#utility.yul\":833:837   */\n      0x41\n        /* \"#utility.yul\":830:831   */\n      0x04\n        /* \"#utility.yul\":823:838   */\n      mstore\n        /* \"#utility.yul\":857:861   */\n      0x24\n        /* \"#utility.yul\":854:855   */\n      0x00\n        /* \"#utility.yul\":847:862   */\n      revert\n        /* \"#utility.yul\":874:1155   */\n    tag_28:\n        /* \"#utility.yul\":957:984   */\n      tag_56\n        /* \"#utility.yul\":979:983   */\n      dup3\n        /* \"#utility.yul\":957:984   */\n      tag_26\n      jump\t// in\n    tag_56:\n        /* \"#utility.yul\":949:955   */\n      dup2\n        /* \"#utility.yul\":945:985   */\n      add\n        /* \"#utility.yul\":1087:1093   */\n      dup2\n        /* \"#utility.yul\":1075:1085   */\n      dup2\n        /* \"#utility.yul\":1072:1094   */\n      lt\n        /* \"#utility.yul\":1051:1069   */\n      0xffffffffffffffff\n        /* \"#utility.yul\":1039:1049   */\n      dup3\n        /* \"#utility.yul\":1036:1070   */\n      gt\n        /* \"#utility.yul\":1033:1095   */\n      or\n        /* \"#utility.yul\":1030:1118   */\n      iszero\n      tag_57\n      jumpi\n        /* \"#utility.yul\":1098:1116   */\n      tag_58\n      tag_27\n      jump\t// in\n    tag_58:\n        /* \"#utility.yul\":1030:1118   */\n    tag_57:\n        /* \"#utility.yul\":1138:1148   */\n      dup1\n        /* \"#utility.yul\":1134:1136   */\n      0x40\n        /* \"#utility.yul\":1127:1149   */\n      mstore\n        /* \"#utility.yul\":917:1155   */\n      pop\n        /* \"#utility.yul\":874:1155   */\n      pop\n      pop\n      jump\t// out\n        /* \"#utility.yul\":1161:1290   */\n    tag_29:\n        /* \"#utility.yul\":1195:1201   */\n      0x00\n        /* \"#utility.yul\":1222:1242   */\n      tag_60\n      tag_21\n      jump\t// in\n    tag_60:\n        /* \"#utility.yul\":1212:1242   */\n      swap1\n      pop\n        /* \"#utility.yul\":1251:1284   */\n      tag_61\n        /* \"#utility.yul\":1279:1283   */\n      dup3\n        /* \"#utility.yul\":1271:1277   */\n      dup3\n        /* \"#utility.yul\":1251:1284   */\n      tag_28\n      jump\t// in\n    tag_61:\n        /* \"#utility.yul\":1161:1290   */\n      swap2\n      swap1\n      pop\n      jump\t// out\n        /* \"#utility.yul\":1296:1604   */\n    tag_30:\n        /* \"#utility.yul\":1358:1362   */\n      0x00\n        /* \"#utility.yul\":1448:1466   */\n      0xffffffffffffffff\n        /* \"#utility.yul\":1440:1446   */\n      dup3\n        /* \"#utility.yul\":1437:1467   */\n      gt\n        /* \"#utility.yul\":1434:1490   */\n      iszero\n      tag_63\n      jumpi\n        /* \"#utility.yul\":1470:1488   */\n      tag_64\n      tag_27\n      jump\t// in\n    tag_64:\n        /* \"#utility.yul\":1434:1490   */\n    tag_63:\n        /* \"#utility.yul\":1508:1537   */\n      tag_65\n        /* \"#utility.yul\":1530:1536   */\n      dup3\n        /* \"#utility.yul\":1508:1537   */\n      tag_26\n      jump\t// in\n    tag_65:\n        /* \"#utility.yul\":1500:1537   */\n      swap1\n      pop\n        /* \"#utility.yul\":1592:1596   */\n      0x20\n        /* \"#utility.yul\":1586:1590   */\n      dup2\n        /* \"#utility.yul\":1582:1597   */\n      add\n        /* \"#utility.yul\":1574:1597   */\n      swap1\n      pop\n        /* \"#utility.yul\":1296:1604   */\n      swap2\n      swap1\n      pop\n      jump\t// out\n        /* \"#utility.yul\":1610:1758   */\n    tag_31:\n        /* \"#utility.yul\":1708:1714   */\n      dup3\n        /* \"#utility.yul\":1703:1706   */\n      dup2\n        /* \"#utility.yul\":1698:1701   */\n      dup4\n        /* \"#utility.yul\":1685:1715   */\n      calldatacopy\n        /* \"#utility.yul\":1749:1750   */\n      0x00\n        /* \"#utility.yul\":1740:1746   */\n      dup4\n        /* \"#utility.yul\":1735:1738   */\n      dup4\n        /* \"#utility.yul\":1731:1747   */\n      add\n        /* \"#utility.yul\":1724:1751   */\n      mstore\n        /* \"#utility.yul\":1610:1758   */\n      pop\n      pop\n      pop\n      jump\t// out\n        /* \"#utility.yul\":1764:2189   */\n    tag_32:\n        /* \"#utility.yul\":1842:1847   */\n      0x00\n        /* \"#utility.yul\":1867:1933   */\n      tag_68\n        /* \"#utility.yul\":1883:1932   */\n      tag_69\n        /* \"#utility.yul\":1925:1931   */\n      dup5\n        /* \"#utility.yul\":1883:1932   */\n      tag_30\n      jump\t// in\n    tag_69:\n        /* \"#utility.yul\":1867:1933   */\n      tag_29\n      jump\t// in\n    tag_68:\n        /* \"#utility.yul\":1858:1933   */\n      swap1\n      pop\n        /* \"#utility.yul\":1956:1962   */\n      dup3\n        /* \"#utility.yul\":1949:1954   */\n      dup2\n        /* \"#utility.yul\":1942:1963   */\n      mstore\n        /* \"#utility.yul\":1994:1998   */\n      0x20\n        /* \"#utility.yul\":1987:1992   */\n      dup2\n        /* \"#utility.yul\":1983:1999   */\n      add\n        /* \"#utility.yul\":2032:2035   */\n      dup5\n        /* \"#utility.yul\":2023:2029   */\n      dup5\n        /* \"#utility.yul\":2018:2021   */\n      dup5\n        /* \"#utility.yul\":2014:2030   */\n      add\n        /* \"#utility.yul\":2011:2036   */\n      gt\n        /* \"#utility.yul\":2008:2120   */\n      iszero\n      tag_70\n      jumpi\n        /* \"#utility.yul\":2039:2118   */\n      tag_71\n      tag_25\n      jump\t// in\n    tag_71:\n        /* \"#utility.yul\":2008:2120   */\n    tag_70:\n        /* \"#utility.yul\":2129:2183   */\n      tag_72\n        /* \"#utility.yul\":2176:2182   */\n      dup5\n        /* \"#utility.yul\":2171:2174   */\n      dup3\n        /* \"#utility.yul\":2166:2169   */\n      dup6\n        /* \"#utility.yul\":2129:2183   */\n      tag_31\n      jump\t// in\n    tag_72:\n        /* \"#utility.yul\":1848:2189   */\n      pop\n        /* \"#utility.yul\":1764:2189   */\n      swap4\n      swap3\n      pop\n      pop\n      pop\n      jump\t// out\n        /* \"#utility.yul\":2209:2549   */\n    tag_33:\n        /* \"#utility.yul\":2265:2270   */\n      0x00\n        /* \"#utility.yul\":2314:2317   */\n      dup3\n        /* \"#utility.yul\":2307:2311   */\n      0x1f\n        /* \"#utility.yul\":2299:2305   */\n      dup4\n        /* \"#utility.yul\":2295:2312   */\n      add\n        /* \"#utility.yul\":2291:2318   */\n      slt\n        /* \"#utility.yul\":2281:2403   */\n      tag_74\n      jumpi\n        /* \"#utility.yul\":2322:2401   */\n      tag_75\n      tag_24\n      jump\t// in\n    tag_75:\n        /* \"#utility.yul\":2281:2403   */\n    tag_74:\n        /* \"#utility.yul\":2439:2445   */\n      dup2\n        /* \"#utility.yul\":2426:2446   */\n      calldataload\n        /* \"#utility.yul\":2464:2543   */\n      tag_76\n        /* \"#utility.yul\":2539:2542   */\n      dup5\n        /* \"#utility.yul\":2531:2537   */\n      dup3\n        /* \"#utility.yul\":2524:2528   */\n      0x20\n        /* \"#utility.yul\":2516:2522   */\n      dup7\n        /* \"#utility.yul\":2512:2529   */\n      add\n        /* \"#utility.yul\":2464:2543   */\n      tag_32\n      jump\t// in\n    tag_76:\n        /* \"#utility.yul\":2455:2543   */\n      swap2\n      pop\n        /* \"#utility.yul\":2271:2549   */\n      pop\n        /* \"#utility.yul\":2209:2549   */\n      swap3\n      swap2\n      pop\n      pop\n      jump\t// out\n        /* \"#utility.yul\":2555:2632   */\n    tag_34:\n        /* \"#utility.yul\":2592:2599   */\n      0x00\n        /* \"#utility.yul\":2621:2626   */\n      dup2\n        /* \"#utility.yul\":2610:2626   */\n      swap1\n      pop\n        /* \"#utility.yul\":2555:2632   */\n      swap2\n      swap1\n      pop\n      jump\t// out\n        /* \"#utility.yul\":2638:2760   */\n    tag_35:\n        /* \"#utility.yul\":2711:2735   */\n      tag_79\n        /* \"#utility.yul\":2729:2734   */\n      dup2\n        /* \"#utility.yul\":2711:2735   */\n      tag_34\n      jump\t// in\n    tag_79:\n        /* \"#utility.yul\":2704:2709   */\n      dup2\n        /* \"#utility.yul\":2701:2736   */\n      eq\n        /* \"#utility.yul\":2691:2754   */\n      tag_80\n      jumpi\n        /* \"#utility.yul\":2750:2751   */\n      0x00\n        /* \"#utility.yul\":2747:2748   */\n      dup1\n        /* \"#utility.yul\":2740:2752   */\n      revert\n        /* \"#utility.yul\":2691:2754   */\n    tag_80:\n        /* \"#utility.yul\":2638:2760   */\n      pop\n      jump\t// out\n        /* \"#utility.yul\":2766:2905   */\n    tag_36:\n        /* \"#utility.yul\":2812:2817   */\n      0x00\n        /* \"#utility.yul\":2850:2856   */\n      dup2\n        /* \"#utility.yul\":2837:2857   */\n      calldataload\n        /* \"#utility.yul\":2828:2857   */\n      swap1\n      pop\n        /* \"#utility.yul\":2866:2899   */\n      tag_82\n        /* \"#utility.yul\":2893:2898   */\n      dup2\n        /* \"#utility.yul\":2866:2899   */\n      tag_35\n      jump\t// in\n    tag_82:\n        /* \"#utility.yul\":2766:2905   */\n      swap3\n      swap2\n      pop\n      pop\n      jump\t// out\n        /* \"#utility.yul\":2911:3565   */\n    tag_7:\n        /* \"#utility.yul\":2989:2995   */\n      0x00\n        /* \"#utility.yul\":2997:3003   */\n      dup1\n        /* \"#utility.yul\":3046:3048   */\n      0x40\n        /* \"#utility.yul\":3034:3043   */\n      dup4\n        /* \"#utility.yul\":3025:3032   */\n      dup6\n        /* \"#utility.yul\":3021:3044   */\n      sub\n        /* \"#utility.yul\":3017:3049   */\n      slt\n        /* \"#utility.yul\":3014:3133   */\n      iszero\n      tag_84\n      jumpi\n        /* \"#utility.yul\":3052:3131   */\n      tag_85\n      tag_22\n      jump\t// in\n    tag_85:\n        /* \"#utility.yul\":3014:3133   */\n    tag_84:\n        /* \"#utility.yul\":3200:3201   */\n      0x00\n        /* \"#utility.yul\":3189:3198   */\n      dup4\n        /* \"#utility.yul\":3185:3202   */\n      add\n        /* \"#utility.yul\":3172:3203   */\n      calldataload\n        /* \"#utility.yul\":3230:3248   */\n      0xffffffffffffffff\n        /* \"#utility.yul\":3222:3228   */\n      dup2\n        /* \"#utility.yul\":3219:3249   */\n      gt\n        /* \"#utility.yul\":3216:3333   */\n      iszero\n      tag_86\n      jumpi\n        /* \"#utility.yul\":3252:3331   */\n      tag_87\n      tag_23\n      jump\t// in\n    tag_87:\n        /* \"#utility.yul\":3216:3333   */\n    tag_86:\n        /* \"#utility.yul\":3357:3420   */\n      tag_88\n        /* \"#utility.yul\":3412:3419   */\n      dup6\n        /* \"#utility.yul\":3403:3409   */\n      dup3\n        /* \"#utility.yul\":3392:3401   */\n      dup7\n        /* \"#utility.yul\":3388:3410   */\n      add\n        /* \"#utility.yul\":3357:3420   */\n      tag_33\n      jump\t// in\n    tag_88:\n        /* \"#utility.yul\":3347:3420   */\n      swap3\n      pop\n        /* \"#utility.yul\":3143:3430   */\n      pop\n        /* \"#utility.yul\":3469:3471   */\n      0x20\n        /* \"#utility.yul\":3495:3548   */\n      tag_89\n        /* \"#utility.yul\":3540:3547   */\n      dup6\n        /* \"#utility.yul\":3531:3537   */\n      dup3\n        /* \"#utility.yul\":3520:3529   */\n      dup7\n        /* \"#utility.yul\":3516:3538   */\n      add\n        /* \"#utility.yul\":3495:3548   */\n      tag_36\n      jump\t// in\n    tag_89:\n        /* \"#utility.yul\":3485:3548   */\n      swap2\n      pop\n        /* \"#utility.yul\":3440:3558   */\n      pop\n        /* \"#utility.yul\":2911:3565   */\n      swap3\n      pop\n      swap3\n      swap1\n      pop\n      jump\t// out\n        /* \"#utility.yul\":3571:3648   */\n    tag_37:\n        /* \"#utility.yul\":3608:3615   */\n      0x00\n        /* \"#utility.yul\":3637:3642   */\n      dup2\n        /* \"#utility.yul\":3626:3642   */\n      swap1\n      pop\n        /* \"#utility.yul\":3571:3648   */\n      swap2\n      swap1\n      pop\n      jump\t// out\n        /* \"#utility.yul\":3654:3772   */\n    tag_38:\n        /* \"#utility.yul\":3741:3765   */\n      tag_92\n        /* \"#utility.yul\":3759:3764   */\n      dup2\n        /* \"#utility.yul\":3741:3765   */\n      tag_37\n      jump\t// in\n    tag_92:\n        /* \"#utility.yul\":3736:3739   */\n      dup3\n        /* \"#utility.yul\":3729:3766   */\n      mstore\n        /* \"#utility.yul\":3654:3772   */\n      pop\n      pop\n      jump\t// out\n        /* \"#utility.yul\":3778:4000   */\n    tag_10:\n        /* \"#utility.yul\":3871:3875   */\n      0x00\n        /* \"#utility.yul\":3909:3911   */\n      0x20\n        /* \"#utility.yul\":3898:3907   */\n      dup3\n        /* \"#utility.yul\":3894:3912   */\n      add\n        /* \"#utility.yul\":3886:3912   */\n      swap1\n      pop\n        /* \"#utility.yul\":3922:3993   */\n      tag_94\n        /* \"#utility.yul\":3990:3991   */\n      0x00\n        /* \"#utility.yul\":3979:3988   */\n      dup4\n        /* \"#utility.yul\":3975:3992   */\n      add\n        /* \"#utility.yul\":3966:3972   */\n      dup5\n        /* \"#utility.yul\":3922:3993   */\n      tag_38\n      jump\t// in\n    tag_94:\n        /* \"#utility.yul\":3778:4000   */\n      swap3\n      swap2\n      pop\n      pop\n      jump\t// out\n        /* \"#utility.yul\":4006:4104   */\n    tag_39:\n        /* \"#utility.yul\":4057:4063   */\n      0x00\n        /* \"#utility.yul\":4091:4096   */\n      dup2\n        /* \"#utility.yul\":4085:4097   */\n      mload\n        /* \"#utility.yul\":4075:4097   */\n      swap1\n      pop\n        /* \"#utility.yul\":4006:4104   */\n      swap2\n      swap1\n      pop\n      jump\t// out\n        /* \"#utility.yul\":4110:4278   */\n    tag_40:\n        /* \"#utility.yul\":4193:4204   */\n      0x00\n        /* \"#utility.yul\":4227:4233   */\n      dup3\n        /* \"#utility.yul\":4222:4225   */\n      dup3\n        /* \"#utility.yul\":4215:4234   */\n      mstore\n        /* \"#utility.yul\":4267:4271   */\n      0x20\n        /* \"#utility.yul\":4262:4265   */\n      dup3\n        /* \"#utility.yul\":4258:4272   */\n      add\n        /* \"#utility.yul\":4243:4272   */\n      swap1\n      pop\n        /* \"#utility.yul\":4110:4278   */\n      swap3\n      swap2\n      pop\n      pop\n      jump\t// out\n        /* \"#utility.yul\":4284:4423   */\n    tag_41:\n        /* \"#utility.yul\":4373:4379   */\n      dup3\n        /* \"#utility.yul\":4368:4371   */\n      dup2\n        /* \"#utility.yul\":4363:4366   */\n      dup4\n        /* \"#utility.yul\":4357:4380   */\n      mcopy\n        /* \"#utility.yul\":4414:4415   */\n      0x00\n        /* \"#utility.yul\":4405:4411   */\n      dup4\n        /* \"#utility.yul\":4400:4403   */\n      dup4\n        /* \"#utility.yul\":4396:4412   */\n      add\n        /* \"#utility.yul\":4389:4416   */\n      mstore\n        /* \"#utility.yul\":4284:4423   */\n      pop\n      pop\n      pop\n      jump\t// out\n        /* \"#utility.yul\":4429:4802   */\n    tag_42:\n        /* \"#utility.yul\":4515:4518   */\n      0x00\n        /* \"#utility.yul\":4543:4581   */\n      tag_99\n        /* \"#utility.yul\":4575:4580   */\n      dup3\n        /* \"#utility.yul\":4543:4581   */\n      tag_39\n      jump\t// in\n    tag_99:\n        /* \"#utility.yul\":4597:4667   */\n      tag_100\n        /* \"#utility.yul\":4660:4666   */\n      dup2\n        /* \"#utility.yul\":4655:4658   */\n      dup6\n        /* \"#utility.yul\":4597:4667   */\n      tag_40\n      jump\t// in\n    tag_100:\n        /* \"#utility.yul\":4590:4667   */\n      swap4\n      pop\n        /* \"#utility.yul\":4676:4741   */\n      tag_101\n        /* \"#utility.yul\":4734:4740   */\n      dup2\n        /* \"#utility.yul\":4729:4732   */\n      dup6\n        /* \"#utility.yul\":4722:4726   */\n      0x20\n        /* \"#utility.yul\":4715:4720   */\n      dup7\n        /* \"#utility.yul\":4711:4727   */\n      add\n        /* \"#utility.yul\":4676:4741   */\n      tag_41\n      jump\t// in\n    tag_101:\n        /* \"#utility.yul\":4766:4795   */\n      tag_102\n        /* \"#utility.yul\":4788:4794   */\n      dup2\n        /* \"#utility.yul\":4766:4795   */\n      tag_26\n      jump\t// in\n    tag_102:\n        /* \"#utility.yul\":4761:4764   */\n      dup5\n        /* \"#utility.yul\":4757:4796   */\n      add\n        /* \"#utility.yul\":4750:4796   */\n      swap2\n      pop\n        /* \"#utility.yul\":4519:4802   */\n      pop\n        /* \"#utility.yul\":4429:4802   */\n      swap3\n      swap2\n      pop\n      pop\n      jump\t// out\n        /* \"#utility.yul\":4808:5117   */\n    tag_15:\n        /* \"#utility.yul\":4919:4923   */\n      0x00\n        /* \"#utility.yul\":4957:4959   */\n      0x20\n        /* \"#utility.yul\":4946:4955   */\n      dup3\n        /* \"#utility.yul\":4942:4960   */\n      add\n        /* \"#utility.yul\":4934:4960   */\n      swap1\n      pop\n        /* \"#utility.yul\":5006:5015   */\n      dup2\n        /* \"#utility.yul\":5000:5004   */\n      dup2\n        /* \"#utility.yul\":4996:5016   */\n      sub\n        /* \"#utility.yul\":4992:4993   */\n      0x00\n        /* \"#utility.yul\":4981:4990   */\n      dup4\n        /* \"#utility.yul\":4977:4994   */\n      add\n        /* \"#utility.yul\":4970:5017   */\n      mstore\n        /* \"#utility.yul\":5034:5110   */\n      tag_104\n        /* \"#utility.yul\":5105:5109   */\n      dup2\n        /* \"#utility.yul\":5096:5102   */\n      dup5\n        /* \"#utility.yul\":5034:5110   */\n      tag_42\n      jump\t// in\n    tag_104:\n        /* \"#utility.yul\":5026:5110   */\n      swap1\n      pop\n        /* \"#utility.yul\":4808:5117   */\n      swap3\n      swap2\n      pop\n      pop\n      jump\t// out\n        /* \"#utility.yul\":5123:5222   */\n    tag_43:\n        /* \"#utility.yul\":5175:5181   */\n      0x00\n        /* \"#utility.yul\":5209:5214   */\n      dup2\n        /* \"#utility.yul\":5203:5215   */\n      mload\n        /* \"#utility.yul\":5193:5215   */\n      swap1\n      pop\n        /* \"#utility.yul\":5123:5222   */\n      swap2\n      swap1\n      pop\n      jump\t// out\n        /* \"#utility.yul\":5228:5397   */\n    tag_44:\n        /* \"#utility.yul\":5312:5323   */\n      0x00\n        /* \"#utility.yul\":5346:5352   */\n      dup3\n        /* \"#utility.yul\":5341:5344   */\n      dup3\n        /* \"#utility.yul\":5334:5353   */\n      mstore\n        /* \"#utility.yul\":5386:5390   */\n      0x20\n        /* \"#utility.yul\":5381:5384   */\n      dup3\n        /* \"#utility.yul\":5377:5391   */\n      add\n        /* \"#utility.yul\":5362:5391   */\n      swap1\n      pop\n        /* \"#utility.yul\":5228:5397   */\n      swap3\n      swap2\n      pop\n      pop\n      jump\t// out\n        /* \"#utility.yul\":5403:5780   */\n    tag_45:\n        /* \"#utility.yul\":5491:5494   */\n      0x00\n        /* \"#utility.yul\":5519:5558   */\n      tag_108\n        /* \"#utility.yul\":5552:5557   */\n      dup3\n        /* \"#utility.yul\":5519:5558   */\n      tag_43\n      jump\t// in\n    tag_108:\n        /* \"#utility.yul\":5574:5645   */\n      tag_109\n        /* \"#utility.yul\":5638:5644   */\n      dup2\n        /* \"#utility.yul\":5633:5636   */\n      dup6\n        /* \"#utility.yul\":5574:5645   */\n      tag_44\n      jump\t// in\n    tag_109:\n        /* \"#utility.yul\":5567:5645   */\n      swap4\n      pop\n        /* \"#utility.yul\":5654:5719   */\n      tag_110\n        /* \"#utility.yul\":5712:5718   */\n      dup2\n        /* \"#utility.yul\":5707:5710   */\n      dup6\n        /* \"#utility.yul\":5700:5704   */\n      0x20\n        /* \"#utility.yul\":5693:5698   */\n      dup7\n        /* \"#utility.yul\":5689:5705   */\n      add\n        /* \"#utility.yul\":5654:5719   */\n      tag_41\n      jump\t// in\n    tag_110:\n        /* \"#utility.yul\":5744:5773   */\n      tag_111\n        /* \"#utility.yul\":5766:5772   */\n      dup2\n        /* \"#utility.yul\":5744:5773   */\n      tag_26\n      jump\t// in\n    tag_111:\n        /* \"#utility.yul\":5739:5742   */\n      dup5\n        /* \"#utility.yul\":5735:5774   */\n      add\n        /* \"#utility.yul\":5728:5774   */\n      swap2\n      pop\n        /* \"#utility.yul\":5495:5780   */\n      pop\n        /* \"#utility.yul\":5403:5780   */\n      swap3\n      swap2\n      pop\n      pop\n      jump\t// out\n        /* \"#utility.yul\":5786:5904   */\n    tag_46:\n        /* \"#utility.yul\":5873:5897   */\n      tag_113\n        /* \"#utility.yul\":5891:5896   */\n      dup2\n        /* \"#utility.yul\":5873:5897   */\n      tag_34\n      jump\t// in\n    tag_113:\n        /* \"#utility.yul\":5868:5871   */\n      dup3\n        /* \"#utility.yul\":5861:5898   */\n      mstore\n        /* \"#utility.yul\":5786:5904   */\n      pop\n      pop\n      jump\t// out\n        /* \"#utility.yul\":5910:6333   */\n    tag_20:\n        /* \"#utility.yul\":6051:6055   */\n      0x00\n        /* \"#utility.yul\":6089:6091   */\n      0x40\n        /* \"#utility.yul\":6078:6087   */\n      dup3\n        /* \"#utility.yul\":6074:6092   */\n      add\n        /* \"#utility.yul\":6066:6092   */\n      swap1\n      pop\n        /* \"#utility.yul\":6138:6147   */\n      dup2\n        /* \"#utility.yul\":6132:6136   */\n      dup2\n        /* \"#utility.yul\":6128:6148   */\n      sub\n        /* \"#utility.yul\":6124:6125   */\n      0x00\n        /* \"#utility.yul\":6113:6122   */\n      dup4\n        /* \"#utility.yul\":6109:6126   */\n      add\n        /* \"#utility.yul\":6102:6149   */\n      mstore\n        /* \"#utility.yul\":6166:6244   */\n      tag_115\n        /* \"#utility.yul\":6239:6243   */\n      dup2\n        /* \"#utility.yul\":6230:6236   */\n      dup6\n        /* \"#utility.yul\":6166:6244   */\n      tag_45\n      jump\t// in\n    tag_115:\n        /* \"#utility.yul\":6158:6244   */\n      swap1\n      pop\n        /* \"#utility.yul\":6254:6326   */\n      tag_116\n        /* \"#utility.yul\":6322:6324   */\n      0x20\n        /* \"#utility.yul\":6311:6320   */\n      dup4\n        /* \"#utility.yul\":6307:6325   */\n      add\n        /* \"#utility.yul\":6298:6304   */\n      dup5\n        /* \"#utility.yul\":6254:6326   */\n      tag_46\n      jump\t// in\n    tag_116:\n        /* \"#utility.yul\":5910:6333   */\n      swap4\n      swap3\n      pop\n      pop\n      pop\n      jump\t// out\n\n    auxdata: 0xa2646970667358221220ad12c802da30e8ff79ebedfa17bd1a2a2f7f32a050cbb18c83c55aa8fd4918e664736f6c634300081a0033\n}\n",
				"bytecode": {
					"linkReferences": {},
					"object": "6080604052348015600e575f80fd5b506104338061001c5f395ff3fe608060405234801561000f575f80fd5b5060043610610034575f3560e01c80630ed8085b14610038578063a0402a9e14610068575b5f80fd5b610052600480360381019061004d9190610263565b610098565b60405161005f91906102d5565b60405180910390f35b610082600480360381019061007d9190610263565b6100b2565b60405161008f919061034e565b60405180910390f35b5f6100a383836100b2565b80519060200120905092915050565b60605f83836040516020016100c89291906103cf565b60405160208183030381529060405290508091505092915050565b5f604051905090565b5f80fd5b5f80fd5b5f80fd5b5f80fd5b5f601f19601f8301169050919050565b7f4e487b71000000000000000000000000000000000000000000000000000000005f52604160045260245ffd5b610142826100fc565b810181811067ffffffffffffffff821117156101615761016061010c565b5b80604052505050565b5f6101736100e3565b905061017f8282610139565b919050565b5f67ffffffffffffffff82111561019e5761019d61010c565b5b6101a7826100fc565b9050602081019050919050565b828183375f83830152505050565b5f6101d46101cf84610184565b61016a565b9050828152602081018484840111156101f0576101ef6100f8565b5b6101fb8482856101b4565b509392505050565b5f82601f830112610217576102166100f4565b5b81356102278482602086016101c2565b91505092915050565b5f819050919050565b61024281610230565b811461024c575f80fd5b50565b5f8135905061025d81610239565b92915050565b5f8060408385031215610279576102786100ec565b5b5f83013567ffffffffffffffff811115610296576102956100f0565b5b6102a285828601610203565b92505060206102b38582860161024f565b9150509250929050565b5f819050919050565b6102cf816102bd565b82525050565b5f6020820190506102e85f8301846102c6565b92915050565b5f81519050919050565b5f82825260208201905092915050565b8281835e5f83830152505050565b5f610320826102ee565b61032a81856102f8565b935061033a818560208601610308565b610343816100fc565b840191505092915050565b5f6020820190508181035f8301526103668184610316565b905092915050565b5f81519050919050565b5f82825260208201905092915050565b5f6103928261036e565b61039c8185610378565b93506103ac818560208601610308565b6103b5816100fc565b840191505092915050565b6103c981610230565b82525050565b5f6040820190508181035f8301526103e78185610388565b90506103f660208301846103c0565b939250505056fea2646970667358221220ad12c802da30e8ff79ebedfa17bd1a2a2f7f32a050cbb18c83c55aa8fd4918e664736f6c634300081a0033",
					"opcodes": "PUSH1 0x80 PUSH1 0x40 MSTORE CALLVALUE DUP1 ISZERO PUSH1 0xE JUMPI PUSH0 DUP1 REVERT JUMPDEST POP PUSH2 0x433 DUP1 PUSH2 0x1C PUSH0 CODECOPY PUSH0 RETURN INVALID PUSH1 0x80 PUSH1 0x40 MSTORE CALLVALUE DUP1 ISZERO PUSH2 0xF JUMPI PUSH0 DUP1 REVERT JUMPDEST POP PUSH1 0x4 CALLDATASIZE LT PUSH2 0x34 JUMPI PUSH0 CALLDATALOAD PUSH1 0xE0 SHR DUP1 PUSH4 0xED8085B EQ PUSH2 0x38 JUMPI DUP1 PUSH4 0xA0402A9E EQ PUSH2 0x68 JUMPI JUMPDEST PUSH0 DUP1 REVERT JUMPDEST PUSH2 0x52 PUSH1 0x4 DUP1 CALLDATASIZE SUB DUP2 ADD SWAP1 PUSH2 0x4D SWAP2 SWAP1 PUSH2 0x263 JUMP JUMPDEST PUSH2 0x98 JUMP JUMPDEST PUSH1 0x40 MLOAD PUSH2 0x5F SWAP2 SWAP1 PUSH2 0x2D5 JUMP JUMPDEST PUSH1 0x40 MLOAD DUP1 SWAP2 SUB SWAP1 RETURN JUMPDEST PUSH2 0x82 PUSH1 0x4 DUP1 CALLDATASIZE SUB DUP2 ADD SWAP1 PUSH2 0x7D SWAP2 SWAP1 PUSH2 0x263 JUMP JUMPDEST PUSH2 0xB2 JUMP JUMPDEST PUSH1 0x40 MLOAD PUSH2 0x8F SWAP2 SWAP1 PUSH2 0x34E JUMP JUMPDEST PUSH1 0x40 MLOAD DUP1 SWAP2 SUB SWAP1 RETURN JUMPDEST PUSH0 PUSH2 0xA3 DUP4 DUP4 PUSH2 0xB2 JUMP JUMPDEST DUP1 MLOAD SWAP1 PUSH1 0x20 ADD KECCAK256 SWAP1 POP SWAP3 SWAP2 POP POP JUMP JUMPDEST PUSH1 0x60 PUSH0 DUP4 DUP4 PUSH1 0x40 MLOAD PUSH1 0x20 ADD PUSH2 0xC8 SWAP3 SWAP2 SWAP1 PUSH2 0x3CF JUMP JUMPDEST PUSH1 0x40 MLOAD PUSH1 0x20 DUP2 DUP4 SUB SUB DUP2 MSTORE SWAP1 PUSH1 0x40 MSTORE SWAP1 POP DUP1 SWAP2 POP POP SWAP3 SWAP2 POP POP JUMP JUMPDEST PUSH0 PUSH1 0x40 MLOAD SWAP1 POP SWAP1 JUMP JUMPDEST PUSH0 DUP1 REVERT JUMPDEST PUSH0 DUP1 REVERT JUMPDEST PUSH0 DUP1 REVERT JUMPDEST PUSH0 DUP1 REVERT JUMPDEST PUSH0 PUSH1 0x1F NOT PUSH1 0x1F DUP4 ADD AND SWAP1 POP SWAP2 SWAP1 POP JUMP JUMPDEST PUSH32 0x4E487B7100000000000000000000000000000000000000000000000000000000 PUSH0 MSTORE PUSH1 0x41 PUSH1 0x4 MSTORE PUSH1 0x24 PUSH0 REVERT JUMPDEST PUSH2 0x142 DUP3 PUSH2 0xFC JUMP JUMPDEST DUP2 ADD DUP2 DUP2 LT PUSH8 0xFFFFFFFFFFFFFFFF DUP3 GT OR ISZERO PUSH2 0x161 JUMPI PUSH2 0x160 PUSH2 0x10C JUMP JUMPDEST JUMPDEST DUP1 PUSH1 0x40 MSTORE POP POP POP JUMP JUMPDEST PUSH0 PUSH2 0x173 PUSH2 0xE3 JUMP JUMPDEST SWAP1 POP PUSH2 0x17F DUP3 DUP3 PUSH2 0x139 JUMP JUMPDEST SWAP2 SWAP1 POP JUMP JUMPDEST PUSH0 PUSH8 0xFFFFFFFFFFFFFFFF DUP3 GT ISZERO PUSH2 0x19E JUMPI PUSH2 0x19D PUSH2 0x10C JUMP JUMPDEST JUMPDEST PUSH2 0x1A7 DUP3 PUSH2 0xFC JUMP JUMPDEST SWAP1 POP PUSH1 0x20 DUP2 ADD SWAP1 POP SWAP2 SWAP1 POP JUMP JUMPDEST DUP3 DUP2 DUP4 CALLDATACOPY PUSH0 DUP4 DUP4 ADD MSTORE POP POP POP JUMP JUMPDEST PUSH0 PUSH2 0x1D4 PUSH2 0x1CF DUP5 PUSH2 0x184 JUMP JUMPDEST PUSH2 0x16A JUMP JUMPDEST SWAP1 POP DUP3 DUP2 MSTORE PUSH1 0x20 DUP2 ADD DUP5 DUP5 DUP5 ADD GT ISZERO PUSH2 0x1F0 JUMPI PUSH2 0x1EF PUSH2 0xF8 JUMP JUMPDEST JUMPDEST PUSH2 0x1FB DUP5 DUP3 DUP6 PUSH2 0x1B4 JUMP JUMPDEST POP SWAP4 SWAP3 POP POP POP JUMP JUMPDEST PUSH0 DUP3 PUSH1 0x1F DUP4 ADD SLT PUSH2 0x217 JUMPI PUSH2 0x216 PUSH2 0xF4 JUMP JUMPDEST JUMPDEST DUP2 CALLDATALOAD PUSH2 0x227 DUP5 DUP3 PUSH1 0x20 DUP7 ADD PUSH2 0x1C2 JUMP JUMPDEST SWAP2 POP POP SWAP3 SWAP2 POP POP JUMP JUMPDEST PUSH0 DUP2 SWAP1 POP SWAP2 SWAP1 POP JUMP JUMPDEST PUSH2 0x242 DUP2 PUSH2 0x230 JUMP JUMPDEST DUP2 EQ PUSH2 0x24C JUMPI PUSH0 DUP1 REVERT JUMPDEST POP JUMP JUMPDEST PUSH0 DUP2 CALLDATALOAD SWAP1 POP PUSH2 0x25D DUP2 PUSH2 0x239 JUMP JUMPDEST SWAP3 SWAP2 POP POP JUMP JUMPDEST PUSH0 DUP1 PUSH1 0x40 DUP4 DUP6 SUB SLT ISZERO PUSH2 0x279 JUMPI PUSH2 0x278 PUSH2 0xEC JUMP JUMPDEST JUMPDEST PUSH0 DUP4 ADD CALLDATALOAD PUSH8 0xFFFFFFFFFFFFFFFF DUP2 GT ISZERO PUSH2 0x296 JUMPI PUSH2 0x295 PUSH2 0xF0 JUMP JUMPDEST JUMPDEST PUSH2 0x2A2 DUP6 DUP3 DUP7 ADD PUSH2 0x203 JUMP JUMPDEST SWAP3 POP POP PUSH1 0x20 PUSH2 0x2B3 DUP6 DUP3 DUP7 ADD PUSH2 0x24F JUMP JUMPDEST SWAP2 POP POP SWAP3 POP SWAP3 SWAP1 POP JUMP JUMPDEST PUSH0 DUP2 SWAP1 POP SWAP2 SWAP1 POP JUMP JUMPDEST PUSH2 0x2CF DUP2 PUSH2 0x2BD JUMP JUMPDEST DUP3 MSTORE POP POP JUMP JUMPDEST PUSH0 PUSH1 0x20 DUP3 ADD SWAP1 POP PUSH2 0x2E8 PUSH0 DUP4 ADD DUP5 PUSH2 0x2C6 JUMP JUMPDEST SWAP3 SWAP2 POP POP JUMP JUMPDEST PUSH0 DUP2 MLOAD SWAP1 POP SWAP2 SWAP1 POP JUMP JUMPDEST PUSH0 DUP3 DUP3 MSTORE PUSH1 0x20 DUP3 ADD SWAP1 POP SWAP3 SWAP2 POP POP JUMP JUMPDEST DUP3 DUP2 DUP4 MCOPY PUSH0 DUP4 DUP4 ADD MSTORE POP POP POP JUMP JUMPDEST PUSH0 PUSH2 0x320 DUP3 PUSH2 0x2EE JUMP JUMPDEST PUSH2 0x32A DUP2 DUP6 PUSH2 0x2F8 JUMP JUMPDEST SWAP4 POP PUSH2 0x33A DUP2 DUP6 PUSH1 0x20 DUP7 ADD PUSH2 0x308 JUMP JUMPDEST PUSH2 0x343 DUP2 PUSH2 0xFC JUMP JUMPDEST DUP5 ADD SWAP2 POP POP SWAP3 SWAP2 POP POP JUMP JUMPDEST PUSH0 PUSH1 0x20 DUP3 ADD SWAP1 POP DUP2 DUP2 SUB PUSH0 DUP4 ADD MSTORE PUSH2 0x366 DUP2 DUP5 PUSH2 0x316 JUMP JUMPDEST SWAP1 POP SWAP3 SWAP2 POP POP JUMP JUMPDEST PUSH0 DUP2 MLOAD SWAP1 POP SWAP2 SWAP1 POP JUMP JUMPDEST PUSH0 DUP3 DUP3 MSTORE PUSH1 0x20 DUP3 ADD SWAP1 POP SWAP3 SWAP2 POP POP JUMP JUMPDEST PUSH0 PUSH2 0x392 DUP3 PUSH2 0x36E JUMP JUMPDEST PUSH2 0x39C DUP2 DUP6 PUSH2 0x378 JUMP JUMPDEST SWAP4 POP PUSH2 0x3AC DUP2 DUP6 PUSH1 0x20 DUP7 ADD PUSH2 0x308 JUMP JUMPDEST PUSH2 0x3B5 DUP2 PUSH2 0xFC JUMP JUMPDEST DUP5 ADD SWAP2 POP POP SWAP3 SWAP2 POP POP JUMP JUMPDEST PUSH2 0x3C9 DUP2 PUSH2 0x230 JUMP JUMPDEST DUP3 MSTORE POP POP JUMP JUMPDEST PUSH0 PUSH1 0x40 DUP3 ADD SWAP1 POP DUP2 DUP2 SUB PUSH0 DUP4 ADD MSTORE PUSH2 0x3E7 DUP2 DUP6 PUSH2 0x388 JUMP JUMPDEST SWAP1 POP PUSH2 0x3F6 PUSH1 0x20 DUP4 ADD DUP5 PUSH2 0x3C0 JUMP JUMPDEST SWAP4 SWAP3 POP POP POP JUMP INVALID LOG2 PUSH5 0x6970667358 0x22 SLT KECCAK256 0xAD SLT 0xC8 MUL 0xDA ADDRESS 0xE8 SELFDESTRUCT PUSH26 0xEBEDFA17BD1A2A2F7F32A050CBB18C83C55AA8FD4918E664736F PUSH13 0x634300081A0033000000000000 "
				},
				"gasEstimates": {
					"creation": {
						"codeDepositCost": "215000",
						"executionCost": "255",
						"totalCost": "215255"
					},
					"external": {
						"doEncode(string,uint256)": "infinite",
						"doHash(string,uint256)": "infinite"
					}
				},
				"methodIdentifiers": {
					"doEncode(string,uint256)": "a0402a9e",
					"doHash(string,uint256)": "0ed8085b"
				}
			},
			"storageLayout": {
				"storage": [],
				"types": null
			},
			"userdoc": {
				"kind": "user",
				"methods": {},
				"version": 1
			}
		}
	}
}