{
	"Example_Encode/Sign.sol": {
		"Sign": {
			"abi": [
				{
					"inputs": [
						{
							"internalType": "bytes32",
							"name": "_msgHash",
							"type": "bytes32"
						}
					],
					"name": "ethSignedMessageHash",
					"outputs": [
						{
							"internalType": "bytes32",
							"name": "",
							"type": "bytes32"
						}
					],
					"stateMutability": "pure",
					"type": "function"
				},
				{
					"inputs": [
						{
							"internalType": "string",
							"name": "_msg",
							"type": "string"
						}
					],
					"name": "messageHash",
					"outputs": [
						{
							"internalType": "bytes32",
							"name": "",
							"type": "bytes32"
						}
					],
					"stateMutability": "pure",
					"type": "function"
				},
				{
					"inputs": [
						{
							"internalType": "bytes32",
							"name": "_ethSignedMessageHash",
							"type": "bytes32"
						},
						{
							"internalType": "bytes",
							"name": "_sig",
							"type": "bytes"
						}
					],
					"name": "recover",
					"outputs": [
						{
							"internalType": "address",
							"name": "",
							"type": "address"
						}
					],
					"stateMutability": "pure",
					"type": "function"
				},
				{
					"inputs": [
						{
							"internalType": "address",
							"name": "_signer",
							"type": "address"
						},
						{
							"internalType": "string",
							"name": "_message",
							"type": "string"
						},
						{
							"internalType": "bytes",
							"name": "_sig",
							"type": "bytes"
						}
					],
					"name": "vetify",
					"outputs": [
						{
							"internalType": "bool",
							"name": "",
							"type": "bool"
						}
					],
					"stateMutability": "pure",
					"type": "function"
				}
			],
			"devdoc": {
				"kind": "dev",
				"methods": {},
				"version": 1
			},
			"evm": {
				"assembly": "    /* \"Example_Encode/Sign.sol\":57:1328  contract Sign {... */\n  mstore(0x40, 0x80)\n  callvalue\n  dup1\n  iszero\n  tag_1\n  jumpi\n  0x00\n  dup1\n  revert\ntag_1:\n  pop\n  dataSize(sub_0)\n  dup1\n  dataOffset(sub_0)\n  0x00\n  codecopy\n  0x00\n  return\nstop\n\nsub_0: assembly {\n        /* \"Example_Encode/Sign.sol\":57:1328  contract Sign {... */\n      mstore(0x40, 0x80)\n      callvalue\n      dup1\n      iszero\n      tag_1\n      jumpi\n      0x00\n      dup1\n      revert\n    tag_1:\n      pop\n      jumpi(tag_2, lt(calldatasize, 0x04))\n      shr(0xe0, calldataload(0x00))\n      dup1\n      0x19045a25\n      eq\n      tag_3\n      jumpi\n      dup1\n      0x1ba9096f\n      eq\n      tag_4\n      jumpi\n      dup1\n      0xaed12cbe\n      eq\n      tag_5\n      jumpi\n      dup1\n      0xc7045a07\n      eq\n      tag_6\n      jumpi\n    tag_2:\n      0x00\n      dup1\n      revert\n        /* \"Example_Encode/Sign.sol\":803:1019  function recover(bytes32 _ethSignedMessageHash, bytes memory _sig) public pure returns(address){... */\n    tag_3:\n      tag_7\n      0x04\n      dup1\n      calldatasize\n      sub\n      dup2\n      add\n      swap1\n      tag_8\n      swap2\n      swap1\n      tag_9\n      jump\t// in\n    tag_8:\n      tag_10\n      jump\t// in\n    tag_7:\n      mload(0x40)\n      tag_11\n      swap2\n      swap1\n      tag_12\n      jump\t// in\n    tag_11:\n      mload(0x40)\n      dup1\n      swap2\n      sub\n      swap1\n      return\n        /* \"Example_Encode/Sign.sol\":598:797  function ethSignedMessageHash(bytes32 _msgHash) public pure returns (bytes32){... */\n    tag_4:\n      tag_13\n      0x04\n      dup1\n      calldatasize\n      sub\n      dup2\n      add\n      swap1\n      tag_14\n      swap2\n      swap1\n      tag_15\n      jump\t// in\n    tag_14:\n      tag_16\n      jump\t// in\n    tag_13:\n      mload(0x40)\n      tag_17\n      swap2\n      swap1\n      tag_18\n      jump\t// in\n    tag_17:\n      mload(0x40)\n      dup1\n      swap2\n      sub\n      swap1\n      return\n        /* \"Example_Encode/Sign.sol\":77:459  function vetify(address _signer, string memory _message, bytes memory _sig) external pure returns (bool){... */\n    tag_5:\n      tag_19\n      0x04\n      dup1\n      calldatasize\n      sub\n      dup2\n      add\n      swap1\n      tag_20\n      swap2\n      swap1\n      tag_21\n      jump\t// in\n    tag_20:\n      tag_22\n      jump\t// in\n    tag_19:\n      mload(0x40)\n      tag_23\n      swap2\n      swap1\n      tag_24\n      jump\t// in\n    tag_23:\n      mload(0x40)\n      dup1\n      swap2\n      sub\n      swap1\n      return\n        /* \"Example_Encode/Sign.sol\":465:592  function messageHash(string memory _msg) public pure returns (bytes32){... */\n    tag_6:\n      tag_25\n      0x04\n      dup1\n      calldatasize\n      sub\n      dup2\n      add\n      swap1\n      tag_26\n      swap2\n      swap1\n      tag_27\n      jump\t// in\n    tag_26:\n      tag_28\n      jump\t// in\n    tag_25:\n      mload(0x40)\n      tag_29\n      swap2\n      swap1\n      tag_18\n      jump\t// in\n    tag_29:\n      mload(0x40)\n      dup1\n      swap2\n      sub\n      swap1\n      return\n        /* \"Example_Encode/Sign.sol\":803:1019  function recover(bytes32 _ethSignedMessageHash, bytes memory _sig) public pure returns(address){... */\n    tag_10:\n        /* \"Example_Encode/Sign.sol\":890:897  address */\n      0x00\n        /* \"Example_Encode/Sign.sol\":909:918  bytes32 r */\n      dup1\n        /* \"Example_Encode/Sign.sol\":919:928  bytes32 s */\n      0x00\n        /* \"Example_Encode/Sign.sol\":929:936  uint8 v */\n      dup1\n        /* \"Example_Encode/Sign.sol\":940:954  splitSig(_sig) */\n      tag_31\n        /* \"Example_Encode/Sign.sol\":949:953  _sig */\n      dup6\n        /* \"Example_Encode/Sign.sol\":940:948  splitSig */\n      tag_32\n        /* \"Example_Encode/Sign.sol\":940:954  splitSig(_sig) */\n      jump\t// in\n    tag_31:\n        /* \"Example_Encode/Sign.sol\":908:954  (bytes32 r,bytes32 s,uint8 v) = splitSig(_sig) */\n      swap3\n      pop\n      swap3\n      pop\n      swap3\n      pop\n        /* \"Example_Encode/Sign.sol\":971:1012  ecrecover(_ethSignedMessageHash, v, r, s) */\n      0x01\n        /* \"Example_Encode/Sign.sol\":981:1002  _ethSignedMessageHash */\n      dup7\n        /* \"Example_Encode/Sign.sol\":1004:1005  v */\n      dup3\n        /* \"Example_Encode/Sign.sol\":1007:1008  r */\n      dup6\n        /* \"Example_Encode/Sign.sol\":1010:1011  s */\n      dup6\n        /* \"Example_Encode/Sign.sol\":971:1012  ecrecover(_ethSignedMessageHash, v, r, s) */\n      mload(0x40)\n      0x00\n      dup2\n      mstore\n      0x20\n      add\n      0x40\n      mstore\n      mload(0x40)\n      tag_33\n      swap5\n      swap4\n      swap3\n      swap2\n      swap1\n      tag_34\n      jump\t// in\n    tag_33:\n      0x20\n      mload(0x40)\n      0x20\n      dup2\n      sub\n      swap1\n      dup1\n      dup5\n      sub\n      swap1\n      dup6\n      gas\n      staticcall\n      iszero\n      dup1\n      iszero\n      tag_36\n      jumpi\n      returndatasize\n      0x00\n      dup1\n      returndatacopy\n      revert(0x00, returndatasize)\n    tag_36:\n      pop\n      pop\n      pop\n      mload(sub(mload(0x40), 0x20))\n        /* \"Example_Encode/Sign.sol\":964:1012  return ecrecover(_ethSignedMessageHash, v, r, s) */\n      swap4\n      pop\n      pop\n      pop\n      pop\n        /* \"Example_Encode/Sign.sol\":803:1019  function recover(bytes32 _ethSignedMessageHash, bytes memory _sig) public pure returns(address){... */\n      swap3\n      swap2\n      pop\n      pop\n      jump\t// out\n        /* \"Example_Encode/Sign.sol\":598:797  function ethSignedMessageHash(bytes32 _msgHash) public pure returns (bytes32){... */\n    tag_16:\n        /* \"Example_Encode/Sign.sol\":667:674  bytes32 */\n      0x00\n        /* \"Example_Encode/Sign.sol\":767:775  _msgHash */\n      dup2\n        /* \"Example_Encode/Sign.sol\":702:789  abi.encodePacked(... */\n      add(0x20, mload(0x40))\n      tag_38\n      swap2\n      swap1\n      tag_39\n      jump\t// in\n    tag_38:\n      mload(0x40)\n      0x20\n      dup2\n      dup4\n      sub\n      sub\n      dup2\n      mstore\n      swap1\n      0x40\n      mstore\n        /* \"Example_Encode/Sign.sol\":692:790  keccak256(abi.encodePacked(... */\n      dup1\n      mload\n      swap1\n      0x20\n      add\n      keccak256\n        /* \"Example_Encode/Sign.sol\":685:790  return keccak256(abi.encodePacked(... */\n      swap1\n      pop\n        /* \"Example_Encode/Sign.sol\":598:797  function ethSignedMessageHash(bytes32 _msgHash) public pure returns (bytes32){... */\n      swap2\n      swap1\n      pop\n      jump\t// out\n        /* \"Example_Encode/Sign.sol\":77:459  function vetify(address _signer, string memory _message, bytes memory _sig) external pure returns (bool){... */\n    tag_22:\n        /* \"Example_Encode/Sign.sol\":176:180  bool */\n      0x00\n        /* \"Example_Encode/Sign.sol\":191:206  bytes32 msgHash */\n      dup1\n        /* \"Example_Encode/Sign.sol\":209:230  messageHash(_message) */\n      tag_41\n        /* \"Example_Encode/Sign.sol\":221:229  _message */\n      dup5\n        /* \"Example_Encode/Sign.sol\":209:220  messageHash */\n      tag_28\n        /* \"Example_Encode/Sign.sol\":209:230  messageHash(_message) */\n      jump\t// in\n    tag_41:\n        /* \"Example_Encode/Sign.sol\":191:230  bytes32 msgHash = messageHash(_message) */\n      swap1\n      pop\n        /* \"Example_Encode/Sign.sol\":240:261  bytes32 signedMsgHash */\n      0x00\n        /* \"Example_Encode/Sign.sol\":264:293  ethSignedMessageHash(msgHash) */\n      tag_42\n        /* \"Example_Encode/Sign.sol\":285:292  msgHash */\n      dup3\n        /* \"Example_Encode/Sign.sol\":264:284  ethSignedMessageHash */\n      tag_16\n        /* \"Example_Encode/Sign.sol\":264:293  ethSignedMessageHash(msgHash) */\n      jump\t// in\n    tag_42:\n        /* \"Example_Encode/Sign.sol\":240:293  bytes32 signedMsgHash = ethSignedMessageHash(msgHash) */\n      swap1\n      pop\n        /* \"Example_Encode/Sign.sol\":445:452  _signer */\n      dup6\n        /* \"Example_Encode/Sign.sol\":413:452  recover(signedMsgHash, _sig) == _signer */\n      0xffffffffffffffffffffffffffffffffffffffff\n      and\n        /* \"Example_Encode/Sign.sol\":413:441  recover(signedMsgHash, _sig) */\n      tag_43\n        /* \"Example_Encode/Sign.sol\":421:434  signedMsgHash */\n      dup3\n        /* \"Example_Encode/Sign.sol\":436:440  _sig */\n      dup7\n        /* \"Example_Encode/Sign.sol\":413:420  recover */\n      tag_10\n        /* \"Example_Encode/Sign.sol\":413:441  recover(signedMsgHash, _sig) */\n      jump\t// in\n    tag_43:\n        /* \"Example_Encode/Sign.sol\":413:452  recover(signedMsgHash, _sig) == _signer */\n      0xffffffffffffffffffffffffffffffffffffffff\n      and\n      eq\n        /* \"Example_Encode/Sign.sol\":406:452  return recover(signedMsgHash, _sig) == _signer */\n      swap3\n      pop\n      pop\n      pop\n        /* \"Example_Encode/Sign.sol\":77:459  function vetify(address _signer, string memory _message, bytes memory _sig) external pure returns (bool){... */\n      swap4\n      swap3\n      pop\n      pop\n      pop\n      jump\t// out\n        /* \"Example_Encode/Sign.sol\":465:592  function messageHash(string memory _msg) public pure returns (bytes32){... */\n    tag_28:\n        /* \"Example_Encode/Sign.sol\":527:534  bytes32 */\n      0x00\n        /* \"Example_Encode/Sign.sol\":579:583  _msg */\n      dup2\n        /* \"Example_Encode/Sign.sol\":562:584  abi.encodePacked(_msg) */\n      add(0x20, mload(0x40))\n      tag_45\n      swap2\n      swap1\n      tag_46\n      jump\t// in\n    tag_45:\n      mload(0x40)\n      0x20\n      dup2\n      dup4\n      sub\n      sub\n      dup2\n      mstore\n      swap1\n      0x40\n      mstore\n        /* \"Example_Encode/Sign.sol\":552:585  keccak256(abi.encodePacked(_msg)) */\n      dup1\n      mload\n      swap1\n      0x20\n      add\n      keccak256\n        /* \"Example_Encode/Sign.sol\":545:585  return keccak256(abi.encodePacked(_msg)) */\n      swap1\n      pop\n        /* \"Example_Encode/Sign.sol\":465:592  function messageHash(string memory _msg) public pure returns (bytes32){... */\n      swap2\n      swap1\n      pop\n      jump\t// out\n        /* \"Example_Encode/Sign.sol\":1025:1326  function splitSig(bytes memory _sig) internal pure returns(bytes32 r,bytes32 s,uint8 v){... */\n    tag_32:\n        /* \"Example_Encode/Sign.sol\":1084:1093  bytes32 r */\n      0x00\n        /* \"Example_Encode/Sign.sol\":1094:1103  bytes32 s */\n      dup1\n        /* \"Example_Encode/Sign.sol\":1104:1111  uint8 v */\n      0x00\n        /* \"Example_Encode/Sign.sol\":1145:1147  65 */\n      0x41\n        /* \"Example_Encode/Sign.sol\":1130:1134  _sig */\n      dup5\n        /* \"Example_Encode/Sign.sol\":1130:1141  _sig.length */\n      mload\n        /* \"Example_Encode/Sign.sol\":1130:1147  _sig.length == 65 */\n      eq\n        /* \"Example_Encode/Sign.sol\":1122:1169  require(_sig.length == 65, \"invalid signature\") */\n      tag_48\n      jumpi\n      mload(0x40)\n      0x08c379a000000000000000000000000000000000000000000000000000000000\n      dup2\n      mstore\n      0x04\n      add\n      tag_49\n      swap1\n      tag_50\n      jump\t// in\n    tag_49:\n      mload(0x40)\n      dup1\n      swap2\n      sub\n      swap1\n      revert\n    tag_48:\n        /* \"Example_Encode/Sign.sol\":1222:1224  32 */\n      0x20\n        /* \"Example_Encode/Sign.sol\":1217:1221  _sig */\n      dup5\n        /* \"Example_Encode/Sign.sol\":1213:1225  add(_sig,32) */\n      add\n        /* \"Example_Encode/Sign.sol\":1207:1226  mload(add(_sig,32)) */\n      mload\n        /* \"Example_Encode/Sign.sol\":1202:1226  r := mload(add(_sig,32)) */\n      swap3\n      pop\n        /* \"Example_Encode/Sign.sol\":1259:1261  64 */\n      0x40\n        /* \"Example_Encode/Sign.sol\":1254:1258  _sig */\n      dup5\n        /* \"Example_Encode/Sign.sol\":1250:1262  add(_sig,64) */\n      add\n        /* \"Example_Encode/Sign.sol\":1244:1263  mload(add(_sig,64)) */\n      mload\n        /* \"Example_Encode/Sign.sol\":1239:1263  s := mload(add(_sig,64)) */\n      swap2\n      pop\n        /* \"Example_Encode/Sign.sol\":1304:1306  96 */\n      0x60\n        /* \"Example_Encode/Sign.sol\":1299:1303  _sig */\n      dup5\n        /* \"Example_Encode/Sign.sol\":1295:1307  add(_sig,96) */\n      add\n        /* \"Example_Encode/Sign.sol\":1289:1308  mload(add(_sig,96)) */\n      mload\n        /* \"Example_Encode/Sign.sol\":1286:1287  0 */\n      0x00\n        /* \"Example_Encode/Sign.sol\":1281:1309  byte(0, mload(add(_sig,96))) */\n      byte\n        /* \"Example_Encode/Sign.sol\":1276:1309  v := byte(0, mload(add(_sig,96))) */\n      swap1\n      pop\n        /* \"Example_Encode/Sign.sol\":1025:1326  function splitSig(bytes memory _sig) internal pure returns(bytes32 r,bytes32 s,uint8 v){... */\n      swap2\n      swap4\n      swap1\n      swap3\n      pop\n      jump\t// out\n        /* \"#utility.yul\":7:82   */\n    tag_51:\n        /* \"#utility.yul\":40:46   */\n      0x00\n        /* \"#utility.yul\":73:75   */\n      0x40\n        /* \"#utility.yul\":67:76   */\n      mload\n        /* \"#utility.yul\":57:76   */\n      swap1\n      pop\n        /* \"#utility.yul\":7:82   */\n      swap1\n      jump\t// out\n        /* \"#utility.yul\":88:205   */\n    tag_52:\n        /* \"#utility.yul\":197:198   */\n      0x00\n        /* \"#utility.yul\":194:195   */\n      dup1\n        /* \"#utility.yul\":187:199   */\n      revert\n        /* \"#utility.yul\":211:328   */\n    tag_53:\n        /* \"#utility.yul\":320:321   */\n      0x00\n        /* \"#utility.yul\":317:318   */\n      dup1\n        /* \"#utility.yul\":310:322   */\n      revert\n        /* \"#utility.yul\":334:411   */\n    tag_54:\n        /* \"#utility.yul\":371:378   */\n      0x00\n        /* \"#utility.yul\":400:405   */\n      dup2\n        /* \"#utility.yul\":389:405   */\n      swap1\n      pop\n        /* \"#utility.yul\":334:411   */\n      swap2\n      swap1\n      pop\n      jump\t// out\n        /* \"#utility.yul\":417:539   */\n    tag_55:\n        /* \"#utility.yul\":490:514   */\n      tag_97\n        /* \"#utility.yul\":508:513   */\n      dup2\n        /* \"#utility.yul\":490:514   */\n      tag_54\n      jump\t// in\n    tag_97:\n        /* \"#utility.yul\":483:488   */\n      dup2\n        /* \"#utility.yul\":480:515   */\n      eq\n        /* \"#utility.yul\":470:533   */\n      tag_98\n      jumpi\n        /* \"#utility.yul\":529:530   */\n      0x00\n        /* \"#utility.yul\":526:527   */\n      dup1\n        /* \"#utility.yul\":519:531   */\n      revert\n        /* \"#utility.yul\":470:533   */\n    tag_98:\n        /* \"#utility.yul\":417:539   */\n      pop\n      jump\t// out\n        /* \"#utility.yul\":545:684   */\n    tag_56:\n        /* \"#utility.yul\":591:596   */\n      0x00\n        /* \"#utility.yul\":629:635   */\n      dup2\n        /* \"#utility.yul\":616:636   */\n      calldataload\n        /* \"#utility.yul\":607:636   */\n      swap1\n      pop\n        /* \"#utility.yul\":645:678   */\n      tag_100\n        /* \"#utility.yul\":672:677   */\n      dup2\n        /* \"#utility.yul\":645:678   */\n      tag_55\n      jump\t// in\n    tag_100:\n        /* \"#utility.yul\":545:684   */\n      swap3\n      swap2\n      pop\n      pop\n      jump\t// out\n        /* \"#utility.yul\":690:807   */\n    tag_57:\n        /* \"#utility.yul\":799:800   */\n      0x00\n        /* \"#utility.yul\":796:797   */\n      dup1\n        /* \"#utility.yul\":789:801   */\n      revert\n        /* \"#utility.yul\":813:930   */\n    tag_58:\n        /* \"#utility.yul\":922:923   */\n      0x00\n        /* \"#utility.yul\":919:920   */\n      dup1\n        /* \"#utility.yul\":912:924   */\n      revert\n        /* \"#utility.yul\":936:1038   */\n    tag_59:\n        /* \"#utility.yul\":977:983   */\n      0x00\n        /* \"#utility.yul\":1028:1030   */\n      0x1f\n        /* \"#utility.yul\":1024:1031   */\n      not\n        /* \"#utility.yul\":1019:1021   */\n      0x1f\n        /* \"#utility.yul\":1012:1017   */\n      dup4\n        /* \"#utility.yul\":1008:1022   */\n      add\n        /* \"#utility.yul\":1004:1032   */\n      and\n        /* \"#utility.yul\":994:1032   */\n      swap1\n      pop\n        /* \"#utility.yul\":936:1038   */\n      swap2\n      swap1\n      pop\n      jump\t// out\n        /* \"#utility.yul\":1044:1224   */\n    tag_60:\n        /* \"#utility.yul\":1092:1169   */\n      0x4e487b7100000000000000000000000000000000000000000000000000000000\n        /* \"#utility.yul\":1089:1090   */\n      0x00\n        /* \"#utility.yul\":1082:1170   */\n      mstore\n        /* \"#utility.yul\":1189:1193   */\n      0x41\n        /* \"#utility.yul\":1186:1187   */\n      0x04\n        /* \"#utility.yul\":1179:1194   */\n      mstore\n        /* \"#utility.yul\":1213:1217   */\n      0x24\n        /* \"#utility.yul\":1210:1211   */\n      0x00\n        /* \"#utility.yul\":1203:1218   */\n      revert\n        /* \"#utility.yul\":1230:1511   */\n    tag_61:\n        /* \"#utility.yul\":1313:1340   */\n      tag_106\n        /* \"#utility.yul\":1335:1339   */\n      dup3\n        /* \"#utility.yul\":1313:1340   */\n      tag_59\n      jump\t// in\n    tag_106:\n        /* \"#utility.yul\":1305:1311   */\n      dup2\n        /* \"#utility.yul\":1301:1341   */\n      add\n        /* \"#utility.yul\":1443:1449   */\n      dup2\n        /* \"#utility.yul\":1431:1441   */\n      dup2\n        /* \"#utility.yul\":1428:1450   */\n      lt\n        /* \"#utility.yul\":1407:1425   */\n      0xffffffffffffffff\n        /* \"#utility.yul\":1395:1405   */\n      dup3\n        /* \"#utility.yul\":1392:1426   */\n      gt\n        /* \"#utility.yul\":1389:1451   */\n      or\n        /* \"#utility.yul\":1386:1474   */\n      iszero\n      tag_107\n      jumpi\n        /* \"#utility.yul\":1454:1472   */\n      tag_108\n      tag_60\n      jump\t// in\n    tag_108:\n        /* \"#utility.yul\":1386:1474   */\n    tag_107:\n        /* \"#utility.yul\":1494:1504   */\n      dup1\n        /* \"#utility.yul\":1490:1492   */\n      0x40\n        /* \"#utility.yul\":1483:1505   */\n      mstore\n        /* \"#utility.yul\":1273:1511   */\n      pop\n        /* \"#utility.yul\":1230:1511   */\n      pop\n      pop\n      jump\t// out\n        /* \"#utility.yul\":1517:1646   */\n    tag_62:\n        /* \"#utility.yul\":1551:1557   */\n      0x00\n        /* \"#utility.yul\":1578:1598   */\n      tag_110\n      tag_51\n      jump\t// in\n    tag_110:\n        /* \"#utility.yul\":1568:1598   */\n      swap1\n      pop\n        /* \"#utility.yul\":1607:1640   */\n      tag_111\n        /* \"#utility.yul\":1635:1639   */\n      dup3\n        /* \"#utility.yul\":1627:1633   */\n      dup3\n        /* \"#utility.yul\":1607:1640   */\n      tag_61\n      jump\t// in\n    tag_111:\n        /* \"#utility.yul\":1517:1646   */\n      swap2\n      swap1\n      pop\n      jump\t// out\n        /* \"#utility.yul\":1652:1959   */\n    tag_63:\n        /* \"#utility.yul\":1713:1717   */\n      0x00\n        /* \"#utility.yul\":1803:1821   */\n      0xffffffffffffffff\n        /* \"#utility.yul\":1795:1801   */\n      dup3\n        /* \"#utility.yul\":1792:1822   */\n      gt\n        /* \"#utility.yul\":1789:1845   */\n      iszero\n      tag_113\n      jumpi\n        /* \"#utility.yul\":1825:1843   */\n      tag_114\n      tag_60\n      jump\t// in\n    tag_114:\n        /* \"#utility.yul\":1789:1845   */\n    tag_113:\n        /* \"#utility.yul\":1863:1892   */\n      tag_115\n        /* \"#utility.yul\":1885:1891   */\n      dup3\n        /* \"#utility.yul\":1863:1892   */\n      tag_59\n      jump\t// in\n    tag_115:\n        /* \"#utility.yul\":1855:1892   */\n      swap1\n      pop\n        /* \"#utility.yul\":1947:1951   */\n      0x20\n        /* \"#utility.yul\":1941:1945   */\n      dup2\n        /* \"#utility.yul\":1937:1952   */\n      add\n        /* \"#utility.yul\":1929:1952   */\n      swap1\n      pop\n        /* \"#utility.yul\":1652:1959   */\n      swap2\n      swap1\n      pop\n      jump\t// out\n        /* \"#utility.yul\":1965:2113   */\n    tag_64:\n        /* \"#utility.yul\":2063:2069   */\n      dup3\n        /* \"#utility.yul\":2058:2061   */\n      dup2\n        /* \"#utility.yul\":2053:2056   */\n      dup4\n        /* \"#utility.yul\":2040:2070   */\n      calldatacopy\n        /* \"#utility.yul\":2104:2105   */\n      0x00\n        /* \"#utility.yul\":2095:2101   */\n      dup4\n        /* \"#utility.yul\":2090:2093   */\n      dup4\n        /* \"#utility.yul\":2086:2102   */\n      add\n        /* \"#utility.yul\":2079:2106   */\n      mstore\n        /* \"#utility.yul\":1965:2113   */\n      pop\n      pop\n      pop\n      jump\t// out\n        /* \"#utility.yul\":2119:2542   */\n    tag_65:\n        /* \"#utility.yul\":2196:2201   */\n      0x00\n        /* \"#utility.yul\":2221:2286   */\n      tag_118\n        /* \"#utility.yul\":2237:2285   */\n      tag_119\n        /* \"#utility.yul\":2278:2284   */\n      dup5\n        /* \"#utility.yul\":2237:2285   */\n      tag_63\n      jump\t// in\n    tag_119:\n        /* \"#utility.yul\":2221:2286   */\n      tag_62\n      jump\t// in\n    tag_118:\n        /* \"#utility.yul\":2212:2286   */\n      swap1\n      pop\n        /* \"#utility.yul\":2309:2315   */\n      dup3\n        /* \"#utility.yul\":2302:2307   */\n      dup2\n        /* \"#utility.yul\":2295:2316   */\n      mstore\n        /* \"#utility.yul\":2347:2351   */\n      0x20\n        /* \"#utility.yul\":2340:2345   */\n      dup2\n        /* \"#utility.yul\":2336:2352   */\n      add\n        /* \"#utility.yul\":2385:2388   */\n      dup5\n        /* \"#utility.yul\":2376:2382   */\n      dup5\n        /* \"#utility.yul\":2371:2374   */\n      dup5\n        /* \"#utility.yul\":2367:2383   */\n      add\n        /* \"#utility.yul\":2364:2389   */\n      gt\n        /* \"#utility.yul\":2361:2473   */\n      iszero\n      tag_120\n      jumpi\n        /* \"#utility.yul\":2392:2471   */\n      tag_121\n      tag_58\n      jump\t// in\n    tag_121:\n        /* \"#utility.yul\":2361:2473   */\n    tag_120:\n        /* \"#utility.yul\":2482:2536   */\n      tag_122\n        /* \"#utility.yul\":2529:2535   */\n      dup5\n        /* \"#utility.yul\":2524:2527   */\n      dup3\n        /* \"#utility.yul\":2519:2522   */\n      dup6\n        /* \"#utility.yul\":2482:2536   */\n      tag_64\n      jump\t// in\n    tag_122:\n        /* \"#utility.yul\":2202:2542   */\n      pop\n        /* \"#utility.yul\":2119:2542   */\n      swap4\n      swap3\n      pop\n      pop\n      pop\n      jump\t// out\n        /* \"#utility.yul\":2561:2899   */\n    tag_66:\n        /* \"#utility.yul\":2616:2621   */\n      0x00\n        /* \"#utility.yul\":2665:2668   */\n      dup3\n        /* \"#utility.yul\":2658:2662   */\n      0x1f\n        /* \"#utility.yul\":2650:2656   */\n      dup4\n        /* \"#utility.yul\":2646:2663   */\n      add\n        /* \"#utility.yul\":2642:2669   */\n      slt\n        /* \"#utility.yul\":2632:2754   */\n      tag_124\n      jumpi\n        /* \"#utility.yul\":2673:2752   */\n      tag_125\n      tag_57\n      jump\t// in\n    tag_125:\n        /* \"#utility.yul\":2632:2754   */\n    tag_124:\n        /* \"#utility.yul\":2790:2796   */\n      dup2\n        /* \"#utility.yul\":2777:2797   */\n      calldataload\n        /* \"#utility.yul\":2815:2893   */\n      tag_126\n        /* \"#utility.yul\":2889:2892   */\n      dup5\n        /* \"#utility.yul\":2881:2887   */\n      dup3\n        /* \"#utility.yul\":2874:2878   */\n      0x20\n        /* \"#utility.yul\":2866:2872   */\n      dup7\n        /* \"#utility.yul\":2862:2879   */\n      add\n        /* \"#utility.yul\":2815:2893   */\n      tag_65\n      jump\t// in\n    tag_126:\n        /* \"#utility.yul\":2806:2893   */\n      swap2\n      pop\n        /* \"#utility.yul\":2622:2899   */\n      pop\n        /* \"#utility.yul\":2561:2899   */\n      swap3\n      swap2\n      pop\n      pop\n      jump\t// out\n        /* \"#utility.yul\":2905:3557   */\n    tag_9:\n        /* \"#utility.yul\":2982:2988   */\n      0x00\n        /* \"#utility.yul\":2990:2996   */\n      dup1\n        /* \"#utility.yul\":3039:3041   */\n      0x40\n        /* \"#utility.yul\":3027:3036   */\n      dup4\n        /* \"#utility.yul\":3018:3025   */\n      dup6\n        /* \"#utility.yul\":3014:3037   */\n      sub\n        /* \"#utility.yul\":3010:3042   */\n      slt\n        /* \"#utility.yul\":3007:3126   */\n      iszero\n      tag_128\n      jumpi\n        /* \"#utility.yul\":3045:3124   */\n      tag_129\n      tag_52\n      jump\t// in\n    tag_129:\n        /* \"#utility.yul\":3007:3126   */\n    tag_128:\n        /* \"#utility.yul\":3165:3166   */\n      0x00\n        /* \"#utility.yul\":3190:3243   */\n      tag_130\n        /* \"#utility.yul\":3235:3242   */\n      dup6\n        /* \"#utility.yul\":3226:3232   */\n      dup3\n        /* \"#utility.yul\":3215:3224   */\n      dup7\n        /* \"#utility.yul\":3211:3233   */\n      add\n        /* \"#utility.yul\":3190:3243   */\n      tag_56\n      jump\t// in\n    tag_130:\n        /* \"#utility.yul\":3180:3243   */\n      swap3\n      pop\n        /* \"#utility.yul\":3136:3253   */\n      pop\n        /* \"#utility.yul\":3320:3322   */\n      0x20\n        /* \"#utility.yul\":3309:3318   */\n      dup4\n        /* \"#utility.yul\":3305:3323   */\n      add\n        /* \"#utility.yul\":3292:3324   */\n      calldataload\n        /* \"#utility.yul\":3351:3369   */\n      0xffffffffffffffff\n        /* \"#utility.yul\":3343:3349   */\n      dup2\n        /* \"#utility.yul\":3340:3370   */\n      gt\n        /* \"#utility.yul\":3337:3454   */\n      iszero\n      tag_131\n      jumpi\n        /* \"#utility.yul\":3373:3452   */\n      tag_132\n      tag_53\n      jump\t// in\n    tag_132:\n        /* \"#utility.yul\":3337:3454   */\n    tag_131:\n        /* \"#utility.yul\":3478:3540   */\n      tag_133\n        /* \"#utility.yul\":3532:3539   */\n      dup6\n        /* \"#utility.yul\":3523:3529   */\n      dup3\n        /* \"#utility.yul\":3512:3521   */\n      dup7\n        /* \"#utility.yul\":3508:3530   */\n      add\n        /* \"#utility.yul\":3478:3540   */\n      tag_66\n      jump\t// in\n    tag_133:\n        /* \"#utility.yul\":3468:3540   */\n      swap2\n      pop\n        /* \"#utility.yul\":3263:3550   */\n      pop\n        /* \"#utility.yul\":2905:3557   */\n      swap3\n      pop\n      swap3\n      swap1\n      pop\n      jump\t// out\n        /* \"#utility.yul\":3563:3689   */\n    tag_67:\n        /* \"#utility.yul\":3600:3607   */\n      0x00\n        /* \"#utility.yul\":3640:3682   */\n      0xffffffffffffffffffffffffffffffffffffffff\n        /* \"#utility.yul\":3633:3638   */\n      dup3\n        /* \"#utility.yul\":3629:3683   */\n      and\n        /* \"#utility.yul\":3618:3683   */\n      swap1\n      pop\n        /* \"#utility.yul\":3563:3689   */\n      swap2\n      swap1\n      pop\n      jump\t// out\n        /* \"#utility.yul\":3695:3791   */\n    tag_68:\n        /* \"#utility.yul\":3732:3739   */\n      0x00\n        /* \"#utility.yul\":3761:3785   */\n      tag_136\n        /* \"#utility.yul\":3779:3784   */\n      dup3\n        /* \"#utility.yul\":3761:3785   */\n      tag_67\n      jump\t// in\n    tag_136:\n        /* \"#utility.yul\":3750:3785   */\n      swap1\n      pop\n        /* \"#utility.yul\":3695:3791   */\n      swap2\n      swap1\n      pop\n      jump\t// out\n        /* \"#utility.yul\":3797:3915   */\n    tag_69:\n        /* \"#utility.yul\":3884:3908   */\n      tag_138\n        /* \"#utility.yul\":3902:3907   */\n      dup2\n        /* \"#utility.yul\":3884:3908   */\n      tag_68\n      jump\t// in\n    tag_138:\n        /* \"#utility.yul\":3879:3882   */\n      dup3\n        /* \"#utility.yul\":3872:3909   */\n      mstore\n        /* \"#utility.yul\":3797:3915   */\n      pop\n      pop\n      jump\t// out\n        /* \"#utility.yul\":3921:4143   */\n    tag_12:\n        /* \"#utility.yul\":4014:4018   */\n      0x00\n        /* \"#utility.yul\":4052:4054   */\n      0x20\n        /* \"#utility.yul\":4041:4050   */\n      dup3\n        /* \"#utility.yul\":4037:4055   */\n      add\n        /* \"#utility.yul\":4029:4055   */\n      swap1\n      pop\n        /* \"#utility.yul\":4065:4136   */\n      tag_140\n        /* \"#utility.yul\":4133:4134   */\n      0x00\n        /* \"#utility.yul\":4122:4131   */\n      dup4\n        /* \"#utility.yul\":4118:4135   */\n      add\n        /* \"#utility.yul\":4109:4115   */\n      dup5\n        /* \"#utility.yul\":4065:4136   */\n      tag_69\n      jump\t// in\n    tag_140:\n        /* \"#utility.yul\":3921:4143   */\n      swap3\n      swap2\n      pop\n      pop\n      jump\t// out\n        /* \"#utility.yul\":4149:4478   */\n    tag_15:\n        /* \"#utility.yul\":4208:4214   */\n      0x00\n        /* \"#utility.yul\":4257:4259   */\n      0x20\n        /* \"#utility.yul\":4245:4254   */\n      dup3\n        /* \"#utility.yul\":4236:4243   */\n      dup5\n        /* \"#utility.yul\":4232:4255   */\n      sub\n        /* \"#utility.yul\":4228:4260   */\n      slt\n        /* \"#utility.yul\":4225:4344   */\n      iszero\n      tag_142\n      jumpi\n        /* \"#utility.yul\":4263:4342   */\n      tag_143\n      tag_52\n      jump\t// in\n    tag_143:\n        /* \"#utility.yul\":4225:4344   */\n    tag_142:\n        /* \"#utility.yul\":4383:4384   */\n      0x00\n        /* \"#utility.yul\":4408:4461   */\n      tag_144\n        /* \"#utility.yul\":4453:4460   */\n      dup5\n        /* \"#utility.yul\":4444:4450   */\n      dup3\n        /* \"#utility.yul\":4433:4442   */\n      dup6\n        /* \"#utility.yul\":4429:4451   */\n      add\n        /* \"#utility.yul\":4408:4461   */\n      tag_56\n      jump\t// in\n    tag_144:\n        /* \"#utility.yul\":4398:4461   */\n      swap2\n      pop\n        /* \"#utility.yul\":4354:4471   */\n      pop\n        /* \"#utility.yul\":4149:4478   */\n      swap3\n      swap2\n      pop\n      pop\n      jump\t// out\n        /* \"#utility.yul\":4484:4602   */\n    tag_70:\n        /* \"#utility.yul\":4571:4595   */\n      tag_146\n        /* \"#utility.yul\":4589:4594   */\n      dup2\n        /* \"#utility.yul\":4571:4595   */\n      tag_54\n      jump\t// in\n    tag_146:\n        /* \"#utility.yul\":4566:4569   */\n      dup3\n        /* \"#utility.yul\":4559:4596   */\n      mstore\n        /* \"#utility.yul\":4484:4602   */\n      pop\n      pop\n      jump\t// out\n        /* \"#utility.yul\":4608:4830   */\n    tag_18:\n        /* \"#utility.yul\":4701:4705   */\n      0x00\n        /* \"#utility.yul\":4739:4741   */\n      0x20\n        /* \"#utility.yul\":4728:4737   */\n      dup3\n        /* \"#utility.yul\":4724:4742   */\n      add\n        /* \"#utility.yul\":4716:4742   */\n      swap1\n      pop\n        /* \"#utility.yul\":4752:4823   */\n      tag_148\n        /* \"#utility.yul\":4820:4821   */\n      0x00\n        /* \"#utility.yul\":4809:4818   */\n      dup4\n        /* \"#utility.yul\":4805:4822   */\n      add\n        /* \"#utility.yul\":4796:4802   */\n      dup5\n        /* \"#utility.yul\":4752:4823   */\n      tag_70\n      jump\t// in\n    tag_148:\n        /* \"#utility.yul\":4608:4830   */\n      swap3\n      swap2\n      pop\n      pop\n      jump\t// out\n        /* \"#utility.yul\":4836:4958   */\n    tag_71:\n        /* \"#utility.yul\":4909:4933   */\n      tag_150\n        /* \"#utility.yul\":4927:4932   */\n      dup2\n        /* \"#utility.yul\":4909:4933   */\n      tag_68\n      jump\t// in\n    tag_150:\n        /* \"#utility.yul\":4902:4907   */\n      dup2\n        /* \"#utility.yul\":4899:4934   */\n      eq\n        /* \"#utility.yul\":4889:4952   */\n      tag_151\n      jumpi\n        /* \"#utility.yul\":4948:4949   */\n      0x00\n        /* \"#utility.yul\":4945:4946   */\n      dup1\n        /* \"#utility.yul\":4938:4950   */\n      revert\n        /* \"#utility.yul\":4889:4952   */\n    tag_151:\n        /* \"#utility.yul\":4836:4958   */\n      pop\n      jump\t// out\n        /* \"#utility.yul\":4964:5103   */\n    tag_72:\n        /* \"#utility.yul\":5010:5015   */\n      0x00\n        /* \"#utility.yul\":5048:5054   */\n      dup2\n        /* \"#utility.yul\":5035:5055   */\n      calldataload\n        /* \"#utility.yul\":5026:5055   */\n      swap1\n      pop\n        /* \"#utility.yul\":5064:5097   */\n      tag_153\n        /* \"#utility.yul\":5091:5096   */\n      dup2\n        /* \"#utility.yul\":5064:5097   */\n      tag_71\n      jump\t// in\n    tag_153:\n        /* \"#utility.yul\":4964:5103   */\n      swap3\n      swap2\n      pop\n      pop\n      jump\t// out\n        /* \"#utility.yul\":5109:5417   */\n    tag_73:\n        /* \"#utility.yul\":5171:5175   */\n      0x00\n        /* \"#utility.yul\":5261:5279   */\n      0xffffffffffffffff\n        /* \"#utility.yul\":5253:5259   */\n      dup3\n        /* \"#utility.yul\":5250:5280   */\n      gt\n        /* \"#utility.yul\":5247:5303   */\n      iszero\n      tag_155\n      jumpi\n        /* \"#utility.yul\":5283:5301   */\n      tag_156\n      tag_60\n      jump\t// in\n    tag_156:\n        /* \"#utility.yul\":5247:5303   */\n    tag_155:\n        /* \"#utility.yul\":5321:5350   */\n      tag_157\n        /* \"#utility.yul\":5343:5349   */\n      dup3\n        /* \"#utility.yul\":5321:5350   */\n      tag_59\n      jump\t// in\n    tag_157:\n        /* \"#utility.yul\":5313:5350   */\n      swap1\n      pop\n        /* \"#utility.yul\":5405:5409   */\n      0x20\n        /* \"#utility.yul\":5399:5403   */\n      dup2\n        /* \"#utility.yul\":5395:5410   */\n      add\n        /* \"#utility.yul\":5387:5410   */\n      swap1\n      pop\n        /* \"#utility.yul\":5109:5417   */\n      swap2\n      swap1\n      pop\n      jump\t// out\n        /* \"#utility.yul\":5423:5848   */\n    tag_74:\n        /* \"#utility.yul\":5501:5506   */\n      0x00\n        /* \"#utility.yul\":5526:5592   */\n      tag_159\n        /* \"#utility.yul\":5542:5591   */\n      tag_160\n        /* \"#utility.yul\":5584:5590   */\n      dup5\n        /* \"#utility.yul\":5542:5591   */\n      tag_73\n      jump\t// in\n    tag_160:\n        /* \"#utility.yul\":5526:5592   */\n      tag_62\n      jump\t// in\n    tag_159:\n        /* \"#utility.yul\":5517:5592   */\n      swap1\n      pop\n        /* \"#utility.yul\":5615:5621   */\n      dup3\n        /* \"#utility.yul\":5608:5613   */\n      dup2\n        /* \"#utility.yul\":5601:5622   */\n      mstore\n        /* \"#utility.yul\":5653:5657   */\n      0x20\n        /* \"#utility.yul\":5646:5651   */\n      dup2\n        /* \"#utility.yul\":5642:5658   */\n      add\n        /* \"#utility.yul\":5691:5694   */\n      dup5\n        /* \"#utility.yul\":5682:5688   */\n      dup5\n        /* \"#utility.yul\":5677:5680   */\n      dup5\n        /* \"#utility.yul\":5673:5689   */\n      add\n        /* \"#utility.yul\":5670:5695   */\n      gt\n        /* \"#utility.yul\":5667:5779   */\n      iszero\n      tag_161\n      jumpi\n        /* \"#utility.yul\":5698:5777   */\n      tag_162\n      tag_58\n      jump\t// in\n    tag_162:\n        /* \"#utility.yul\":5667:5779   */\n    tag_161:\n        /* \"#utility.yul\":5788:5842   */\n      tag_163\n        /* \"#utility.yul\":5835:5841   */\n      dup5\n        /* \"#utility.yul\":5830:5833   */\n      dup3\n        /* \"#utility.yul\":5825:5828   */\n      dup6\n        /* \"#utility.yul\":5788:5842   */\n      tag_64\n      jump\t// in\n    tag_163:\n        /* \"#utility.yul\":5507:5848   */\n      pop\n        /* \"#utility.yul\":5423:5848   */\n      swap4\n      swap3\n      pop\n      pop\n      pop\n      jump\t// out\n        /* \"#utility.yul\":5868:6208   */\n    tag_75:\n        /* \"#utility.yul\":5924:5929   */\n      0x00\n        /* \"#utility.yul\":5973:5976   */\n      dup3\n        /* \"#utility.yul\":5966:5970   */\n      0x1f\n        /* \"#utility.yul\":5958:5964   */\n      dup4\n        /* \"#utility.yul\":5954:5971   */\n      add\n        /* \"#utility.yul\":5950:5977   */\n      slt\n        /* \"#utility.yul\":5940:6062   */\n      tag_165\n      jumpi\n        /* \"#utility.yul\":5981:6060   */\n      tag_166\n      tag_57\n      jump\t// in\n    tag_166:\n        /* \"#utility.yul\":5940:6062   */\n    tag_165:\n        /* \"#utility.yul\":6098:6104   */\n      dup2\n        /* \"#utility.yul\":6085:6105   */\n      calldataload\n        /* \"#utility.yul\":6123:6202   */\n      tag_167\n        /* \"#utility.yul\":6198:6201   */\n      dup5\n        /* \"#utility.yul\":6190:6196   */\n      dup3\n        /* \"#utility.yul\":6183:6187   */\n      0x20\n        /* \"#utility.yul\":6175:6181   */\n      dup7\n        /* \"#utility.yul\":6171:6188   */\n      add\n        /* \"#utility.yul\":6123:6202   */\n      tag_74\n      jump\t// in\n    tag_167:\n        /* \"#utility.yul\":6114:6202   */\n      swap2\n      pop\n        /* \"#utility.yul\":5930:6208   */\n      pop\n        /* \"#utility.yul\":5868:6208   */\n      swap3\n      swap2\n      pop\n      pop\n      jump\t// out\n        /* \"#utility.yul\":6214:7191   */\n    tag_21:\n        /* \"#utility.yul\":6310:6316   */\n      0x00\n        /* \"#utility.yul\":6318:6324   */\n      dup1\n        /* \"#utility.yul\":6326:6332   */\n      0x00\n        /* \"#utility.yul\":6375:6377   */\n      0x60\n        /* \"#utility.yul\":6363:6372   */\n      dup5\n        /* \"#utility.yul\":6354:6361   */\n      dup7\n        /* \"#utility.yul\":6350:6373   */\n      sub\n        /* \"#utility.yul\":6346:6378   */\n      slt\n        /* \"#utility.yul\":6343:6462   */\n      iszero\n      tag_169\n      jumpi\n        /* \"#utility.yul\":6381:6460   */\n      tag_170\n      tag_52\n      jump\t// in\n    tag_170:\n        /* \"#utility.yul\":6343:6462   */\n    tag_169:\n        /* \"#utility.yul\":6501:6502   */\n      0x00\n        /* \"#utility.yul\":6526:6579   */\n      tag_171\n        /* \"#utility.yul\":6571:6578   */\n      dup7\n        /* \"#utility.yul\":6562:6568   */\n      dup3\n        /* \"#utility.yul\":6551:6560   */\n      dup8\n        /* \"#utility.yul\":6547:6569   */\n      add\n        /* \"#utility.yul\":6526:6579   */\n      tag_72\n      jump\t// in\n    tag_171:\n        /* \"#utility.yul\":6516:6579   */\n      swap4\n      pop\n        /* \"#utility.yul\":6472:6589   */\n      pop\n        /* \"#utility.yul\":6656:6658   */\n      0x20\n        /* \"#utility.yul\":6645:6654   */\n      dup5\n        /* \"#utility.yul\":6641:6659   */\n      add\n        /* \"#utility.yul\":6628:6660   */\n      calldataload\n        /* \"#utility.yul\":6687:6705   */\n      0xffffffffffffffff\n        /* \"#utility.yul\":6679:6685   */\n      dup2\n        /* \"#utility.yul\":6676:6706   */\n      gt\n        /* \"#utility.yul\":6673:6790   */\n      iszero\n      tag_172\n      jumpi\n        /* \"#utility.yul\":6709:6788   */\n      tag_173\n      tag_53\n      jump\t// in\n    tag_173:\n        /* \"#utility.yul\":6673:6790   */\n    tag_172:\n        /* \"#utility.yul\":6814:6877   */\n      tag_174\n        /* \"#utility.yul\":6869:6876   */\n      dup7\n        /* \"#utility.yul\":6860:6866   */\n      dup3\n        /* \"#utility.yul\":6849:6858   */\n      dup8\n        /* \"#utility.yul\":6845:6867   */\n      add\n        /* \"#utility.yul\":6814:6877   */\n      tag_75\n      jump\t// in\n    tag_174:\n        /* \"#utility.yul\":6804:6877   */\n      swap3\n      pop\n        /* \"#utility.yul\":6599:6887   */\n      pop\n        /* \"#utility.yul\":6954:6956   */\n      0x40\n        /* \"#utility.yul\":6943:6952   */\n      dup5\n        /* \"#utility.yul\":6939:6957   */\n      add\n        /* \"#utility.yul\":6926:6958   */\n      calldataload\n        /* \"#utility.yul\":6985:7003   */\n      0xffffffffffffffff\n        /* \"#utility.yul\":6977:6983   */\n      dup2\n        /* \"#utility.yul\":6974:7004   */\n      gt\n        /* \"#utility.yul\":6971:7088   */\n      iszero\n      tag_175\n      jumpi\n        /* \"#utility.yul\":7007:7086   */\n      tag_176\n      tag_53\n      jump\t// in\n    tag_176:\n        /* \"#utility.yul\":6971:7088   */\n    tag_175:\n        /* \"#utility.yul\":7112:7174   */\n      tag_177\n        /* \"#utility.yul\":7166:7173   */\n      dup7\n        /* \"#utility.yul\":7157:7163   */\n      dup3\n        /* \"#utility.yul\":7146:7155   */\n      dup8\n        /* \"#utility.yul\":7142:7164   */\n      add\n        /* \"#utility.yul\":7112:7174   */\n      tag_66\n      jump\t// in\n    tag_177:\n        /* \"#utility.yul\":7102:7174   */\n      swap2\n      pop\n        /* \"#utility.yul\":6897:7184   */\n      pop\n        /* \"#utility.yul\":6214:7191   */\n      swap3\n      pop\n      swap3\n      pop\n      swap3\n      jump\t// out\n        /* \"#utility.yul\":7197:7287   */\n    tag_76:\n        /* \"#utility.yul\":7231:7238   */\n      0x00\n        /* \"#utility.yul\":7274:7279   */\n      dup2\n        /* \"#utility.yul\":7267:7280   */\n      iszero\n        /* \"#utility.yul\":7260:7281   */\n      iszero\n        /* \"#utility.yul\":7249:7281   */\n      swap1\n      pop\n        /* \"#utility.yul\":7197:7287   */\n      swap2\n      swap1\n      pop\n      jump\t// out\n        /* \"#utility.yul\":7293:7402   */\n    tag_77:\n        /* \"#utility.yul\":7374:7395   */\n      tag_180\n        /* \"#utility.yul\":7389:7394   */\n      dup2\n        /* \"#utility.yul\":7374:7395   */\n      tag_76\n      jump\t// in\n    tag_180:\n        /* \"#utility.yul\":7369:7372   */\n      dup3\n        /* \"#utility.yul\":7362:7396   */\n      mstore\n        /* \"#utility.yul\":7293:7402   */\n      pop\n      pop\n      jump\t// out\n        /* \"#utility.yul\":7408:7618   */\n    tag_24:\n        /* \"#utility.yul\":7495:7499   */\n      0x00\n        /* \"#utility.yul\":7533:7535   */\n      0x20\n        /* \"#utility.yul\":7522:7531   */\n      dup3\n        /* \"#utility.yul\":7518:7536   */\n      add\n        /* \"#utility.yul\":7510:7536   */\n      swap1\n      pop\n        /* \"#utility.yul\":7546:7611   */\n      tag_182\n        /* \"#utility.yul\":7608:7609   */\n      0x00\n        /* \"#utility.yul\":7597:7606   */\n      dup4\n        /* \"#utility.yul\":7593:7610   */\n      add\n        /* \"#utility.yul\":7584:7590   */\n      dup5\n        /* \"#utility.yul\":7546:7611   */\n      tag_77\n      jump\t// in\n    tag_182:\n        /* \"#utility.yul\":7408:7618   */\n      swap3\n      swap2\n      pop\n      pop\n      jump\t// out\n        /* \"#utility.yul\":7624:8133   */\n    tag_27:\n        /* \"#utility.yul\":7693:7699   */\n      0x00\n        /* \"#utility.yul\":7742:7744   */\n      0x20\n        /* \"#utility.yul\":7730:7739   */\n      dup3\n        /* \"#utility.yul\":7721:7728   */\n      dup5\n        /* \"#utility.yul\":7717:7740   */\n      sub\n        /* \"#utility.yul\":7713:7745   */\n      slt\n        /* \"#utility.yul\":7710:7829   */\n      iszero\n      tag_184\n      jumpi\n        /* \"#utility.yul\":7748:7827   */\n      tag_185\n      tag_52\n      jump\t// in\n    tag_185:\n        /* \"#utility.yul\":7710:7829   */\n    tag_184:\n        /* \"#utility.yul\":7896:7897   */\n      0x00\n        /* \"#utility.yul\":7885:7894   */\n      dup3\n        /* \"#utility.yul\":7881:7898   */\n      add\n        /* \"#utility.yul\":7868:7899   */\n      calldataload\n        /* \"#utility.yul\":7926:7944   */\n      0xffffffffffffffff\n        /* \"#utility.yul\":7918:7924   */\n      dup2\n        /* \"#utility.yul\":7915:7945   */\n      gt\n        /* \"#utility.yul\":7912:8029   */\n      iszero\n      tag_186\n      jumpi\n        /* \"#utility.yul\":7948:8027   */\n      tag_187\n      tag_53\n      jump\t// in\n    tag_187:\n        /* \"#utility.yul\":7912:8029   */\n    tag_186:\n        /* \"#utility.yul\":8053:8116   */\n      tag_188\n        /* \"#utility.yul\":8108:8115   */\n      dup5\n        /* \"#utility.yul\":8099:8105   */\n      dup3\n        /* \"#utility.yul\":8088:8097   */\n      dup6\n        /* \"#utility.yul\":8084:8106   */\n      add\n        /* \"#utility.yul\":8053:8116   */\n      tag_75\n      jump\t// in\n    tag_188:\n        /* \"#utility.yul\":8043:8116   */\n      swap2\n      pop\n        /* \"#utility.yul\":7839:8126   */\n      pop\n        /* \"#utility.yul\":7624:8133   */\n      swap3\n      swap2\n      pop\n      pop\n      jump\t// out\n        /* \"#utility.yul\":8139:8225   */\n    tag_78:\n        /* \"#utility.yul\":8174:8181   */\n      0x00\n        /* \"#utility.yul\":8214:8218   */\n      0xff\n        /* \"#utility.yul\":8207:8212   */\n      dup3\n        /* \"#utility.yul\":8203:8219   */\n      and\n        /* \"#utility.yul\":8192:8219   */\n      swap1\n      pop\n        /* \"#utility.yul\":8139:8225   */\n      swap2\n      swap1\n      pop\n      jump\t// out\n        /* \"#utility.yul\":8231:8343   */\n    tag_79:\n        /* \"#utility.yul\":8314:8336   */\n      tag_191\n        /* \"#utility.yul\":8330:8335   */\n      dup2\n        /* \"#utility.yul\":8314:8336   */\n      tag_78\n      jump\t// in\n    tag_191:\n        /* \"#utility.yul\":8309:8312   */\n      dup3\n        /* \"#utility.yul\":8302:8337   */\n      mstore\n        /* \"#utility.yul\":8231:8343   */\n      pop\n      pop\n      jump\t// out\n        /* \"#utility.yul\":8349:8894   */\n    tag_34:\n        /* \"#utility.yul\":8522:8526   */\n      0x00\n        /* \"#utility.yul\":8560:8563   */\n      0x80\n        /* \"#utility.yul\":8549:8558   */\n      dup3\n        /* \"#utility.yul\":8545:8564   */\n      add\n        /* \"#utility.yul\":8537:8564   */\n      swap1\n      pop\n        /* \"#utility.yul\":8574:8645   */\n      tag_193\n        /* \"#utility.yul\":8642:8643   */\n      0x00\n        /* \"#utility.yul\":8631:8640   */\n      dup4\n        /* \"#utility.yul\":8627:8644   */\n      add\n        /* \"#utility.yul\":8618:8624   */\n      dup8\n        /* \"#utility.yul\":8574:8645   */\n      tag_70\n      jump\t// in\n    tag_193:\n        /* \"#utility.yul\":8655:8723   */\n      tag_194\n        /* \"#utility.yul\":8719:8721   */\n      0x20\n        /* \"#utility.yul\":8708:8717   */\n      dup4\n        /* \"#utility.yul\":8704:8722   */\n      add\n        /* \"#utility.yul\":8695:8701   */\n      dup7\n        /* \"#utility.yul\":8655:8723   */\n      tag_79\n      jump\t// in\n    tag_194:\n        /* \"#utility.yul\":8733:8805   */\n      tag_195\n        /* \"#utility.yul\":8801:8803   */\n      0x40\n        /* \"#utility.yul\":8790:8799   */\n      dup4\n        /* \"#utility.yul\":8786:8804   */\n      add\n        /* \"#utility.yul\":8777:8783   */\n      dup6\n        /* \"#utility.yul\":8733:8805   */\n      tag_70\n      jump\t// in\n    tag_195:\n        /* \"#utility.yul\":8815:8887   */\n      tag_196\n        /* \"#utility.yul\":8883:8885   */\n      0x60\n        /* \"#utility.yul\":8872:8881   */\n      dup4\n        /* \"#utility.yul\":8868:8886   */\n      add\n        /* \"#utility.yul\":8859:8865   */\n      dup5\n        /* \"#utility.yul\":8815:8887   */\n      tag_70\n      jump\t// in\n    tag_196:\n        /* \"#utility.yul\":8349:8894   */\n      swap6\n      swap5\n      pop\n      pop\n      pop\n      pop\n      pop\n      jump\t// out\n        /* \"#utility.yul\":8900:9048   */\n    tag_80:\n        /* \"#utility.yul\":9002:9013   */\n      0x00\n        /* \"#utility.yul\":9039:9042   */\n      dup2\n        /* \"#utility.yul\":9024:9042   */\n      swap1\n      pop\n        /* \"#utility.yul\":8900:9048   */\n      swap3\n      swap2\n      pop\n      pop\n      jump\t// out\n        /* \"#utility.yul\":9054:9268   */\n    tag_81:\n        /* \"#utility.yul\":9194:9260   */\n      0x19457468657265756d205369676e6564204d6573736167653a0a333200000000\n        /* \"#utility.yul\":9190:9191   */\n      0x00\n        /* \"#utility.yul\":9182:9188   */\n      dup3\n        /* \"#utility.yul\":9178:9192   */\n      add\n        /* \"#utility.yul\":9171:9261   */\n      mstore\n        /* \"#utility.yul\":9054:9268   */\n      pop\n      jump\t// out\n        /* \"#utility.yul\":9274:9676   */\n    tag_82:\n        /* \"#utility.yul\":9434:9437   */\n      0x00\n        /* \"#utility.yul\":9455:9540   */\n      tag_200\n        /* \"#utility.yul\":9537:9539   */\n      0x1c\n        /* \"#utility.yul\":9532:9535   */\n      dup4\n        /* \"#utility.yul\":9455:9540   */\n      tag_80\n      jump\t// in\n    tag_200:\n        /* \"#utility.yul\":9448:9540   */\n      swap2\n      pop\n        /* \"#utility.yul\":9549:9642   */\n      tag_201\n        /* \"#utility.yul\":9638:9641   */\n      dup3\n        /* \"#utility.yul\":9549:9642   */\n      tag_81\n      jump\t// in\n    tag_201:\n        /* \"#utility.yul\":9667:9669   */\n      0x1c\n        /* \"#utility.yul\":9662:9665   */\n      dup3\n        /* \"#utility.yul\":9658:9670   */\n      add\n        /* \"#utility.yul\":9651:9670   */\n      swap1\n      pop\n        /* \"#utility.yul\":9274:9676   */\n      swap2\n      swap1\n      pop\n      jump\t// out\n        /* \"#utility.yul\":9682:9761   */\n    tag_83:\n        /* \"#utility.yul\":9721:9728   */\n      0x00\n        /* \"#utility.yul\":9750:9755   */\n      dup2\n        /* \"#utility.yul\":9739:9755   */\n      swap1\n      pop\n        /* \"#utility.yul\":9682:9761   */\n      swap2\n      swap1\n      pop\n      jump\t// out\n        /* \"#utility.yul\":9767:9924   */\n    tag_84:\n        /* \"#utility.yul\":9872:9917   */\n      tag_204\n        /* \"#utility.yul\":9892:9916   */\n      tag_205\n        /* \"#utility.yul\":9910:9915   */\n      dup3\n        /* \"#utility.yul\":9892:9916   */\n      tag_54\n      jump\t// in\n    tag_205:\n        /* \"#utility.yul\":9872:9917   */\n      tag_83\n      jump\t// in\n    tag_204:\n        /* \"#utility.yul\":9867:9870   */\n      dup3\n        /* \"#utility.yul\":9860:9918   */\n      mstore\n        /* \"#utility.yul\":9767:9924   */\n      pop\n      pop\n      jump\t// out\n        /* \"#utility.yul\":9930:10452   */\n    tag_39:\n        /* \"#utility.yul\":10143:10146   */\n      0x00\n        /* \"#utility.yul\":10165:10313   */\n      tag_207\n        /* \"#utility.yul\":10309:10312   */\n      dup3\n        /* \"#utility.yul\":10165:10313   */\n      tag_82\n      jump\t// in\n    tag_207:\n        /* \"#utility.yul\":10158:10313   */\n      swap2\n      pop\n        /* \"#utility.yul\":10323:10398   */\n      tag_208\n        /* \"#utility.yul\":10394:10397   */\n      dup3\n        /* \"#utility.yul\":10385:10391   */\n      dup5\n        /* \"#utility.yul\":10323:10398   */\n      tag_84\n      jump\t// in\n    tag_208:\n        /* \"#utility.yul\":10423:10425   */\n      0x20\n        /* \"#utility.yul\":10418:10421   */\n      dup3\n        /* \"#utility.yul\":10414:10426   */\n      add\n        /* \"#utility.yul\":10407:10426   */\n      swap2\n      pop\n        /* \"#utility.yul\":10443:10446   */\n      dup2\n        /* \"#utility.yul\":10436:10446   */\n      swap1\n      pop\n        /* \"#utility.yul\":9930:10452   */\n      swap3\n      swap2\n      pop\n      pop\n      jump\t// out\n        /* \"#utility.yul\":10458:10557   */\n    tag_85:\n        /* \"#utility.yul\":10510:10516   */\n      0x00\n        /* \"#utility.yul\":10544:10549   */\n      dup2\n        /* \"#utility.yul\":10538:10550   */\n      mload\n        /* \"#utility.yul\":10528:10550   */\n      swap1\n      pop\n        /* \"#utility.yul\":10458:10557   */\n      swap2\n      swap1\n      pop\n      jump\t// out\n        /* \"#utility.yul\":10563:10702   */\n    tag_86:\n        /* \"#utility.yul\":10652:10658   */\n      dup3\n        /* \"#utility.yul\":10647:10650   */\n      dup2\n        /* \"#utility.yul\":10642:10645   */\n      dup4\n        /* \"#utility.yul\":10636:10659   */\n      mcopy\n        /* \"#utility.yul\":10693:10694   */\n      0x00\n        /* \"#utility.yul\":10684:10690   */\n      dup4\n        /* \"#utility.yul\":10679:10682   */\n      dup4\n        /* \"#utility.yul\":10675:10691   */\n      add\n        /* \"#utility.yul\":10668:10695   */\n      mstore\n        /* \"#utility.yul\":10563:10702   */\n      pop\n      pop\n      pop\n      jump\t// out\n        /* \"#utility.yul\":10708:11098   */\n    tag_87:\n        /* \"#utility.yul\":10814:10817   */\n      0x00\n        /* \"#utility.yul\":10842:10881   */\n      tag_212\n        /* \"#utility.yul\":10875:10880   */\n      dup3\n        /* \"#utility.yul\":10842:10881   */\n      tag_85\n      jump\t// in\n    tag_212:\n        /* \"#utility.yul\":10897:10986   */\n      tag_213\n        /* \"#utility.yul\":10979:10985   */\n      dup2\n        /* \"#utility.yul\":10974:10977   */\n      dup6\n        /* \"#utility.yul\":10897:10986   */\n      tag_80\n      jump\t// in\n    tag_213:\n        /* \"#utility.yul\":10890:10986   */\n      swap4\n      pop\n        /* \"#utility.yul\":10995:11060   */\n      tag_214\n        /* \"#utility.yul\":11053:11059   */\n      dup2\n        /* \"#utility.yul\":11048:11051   */\n      dup6\n        /* \"#utility.yul\":11041:11045   */\n      0x20\n        /* \"#utility.yul\":11034:11039   */\n      dup7\n        /* \"#utility.yul\":11030:11046   */\n      add\n        /* \"#utility.yul\":10995:11060   */\n      tag_86\n      jump\t// in\n    tag_214:\n        /* \"#utility.yul\":11085:11091   */\n      dup1\n        /* \"#utility.yul\":11080:11083   */\n      dup5\n        /* \"#utility.yul\":11076:11092   */\n      add\n        /* \"#utility.yul\":11069:11092   */\n      swap2\n      pop\n        /* \"#utility.yul\":10818:11098   */\n      pop\n        /* \"#utility.yul\":10708:11098   */\n      swap3\n      swap2\n      pop\n      pop\n      jump\t// out\n        /* \"#utility.yul\":11104:11379   */\n    tag_46:\n        /* \"#utility.yul\":11236:11239   */\n      0x00\n        /* \"#utility.yul\":11258:11353   */\n      tag_216\n        /* \"#utility.yul\":11349:11352   */\n      dup3\n        /* \"#utility.yul\":11340:11346   */\n      dup5\n        /* \"#utility.yul\":11258:11353   */\n      tag_87\n      jump\t// in\n    tag_216:\n        /* \"#utility.yul\":11251:11353   */\n      swap2\n      pop\n        /* \"#utility.yul\":11370:11373   */\n      dup2\n        /* \"#utility.yul\":11363:11373   */\n      swap1\n      pop\n        /* \"#utility.yul\":11104:11379   */\n      swap3\n      swap2\n      pop\n      pop\n      jump\t// out\n        /* \"#utility.yul\":11385:11554   */\n    tag_88:\n        /* \"#utility.yul\":11469:11480   */\n      0x00\n        /* \"#utility.yul\":11503:11509   */\n      dup3\n        /* \"#utility.yul\":11498:11501   */\n      dup3\n        /* \"#utility.yul\":11491:11510   */\n      mstore\n        /* \"#utility.yul\":11543:11547   */\n      0x20\n        /* \"#utility.yul\":11538:11541   */\n      dup3\n        /* \"#utility.yul\":11534:11548   */\n      add\n        /* \"#utility.yul\":11519:11548   */\n      swap1\n      pop\n        /* \"#utility.yul\":11385:11554   */\n      swap3\n      swap2\n      pop\n      pop\n      jump\t// out\n        /* \"#utility.yul\":11560:11727   */\n    tag_89:\n        /* \"#utility.yul\":11700:11719   */\n      0x696e76616c6964207369676e6174757265000000000000000000000000000000\n        /* \"#utility.yul\":11696:11697   */\n      0x00\n        /* \"#utility.yul\":11688:11694   */\n      dup3\n        /* \"#utility.yul\":11684:11698   */\n      add\n        /* \"#utility.yul\":11677:11720   */\n      mstore\n        /* \"#utility.yul\":11560:11727   */\n      pop\n      jump\t// out\n        /* \"#utility.yul\":11733:12099   */\n    tag_90:\n        /* \"#utility.yul\":11875:11878   */\n      0x00\n        /* \"#utility.yul\":11896:11963   */\n      tag_220\n        /* \"#utility.yul\":11960:11962   */\n      0x11\n        /* \"#utility.yul\":11955:11958   */\n      dup4\n        /* \"#utility.yul\":11896:11963   */\n      tag_88\n      jump\t// in\n    tag_220:\n        /* \"#utility.yul\":11889:11963   */\n      swap2\n      pop\n        /* \"#utility.yul\":11972:12065   */\n      tag_221\n        /* \"#utility.yul\":12061:12064   */\n      dup3\n        /* \"#utility.yul\":11972:12065   */\n      tag_89\n      jump\t// in\n    tag_221:\n        /* \"#utility.yul\":12090:12092   */\n      0x20\n        /* \"#utility.yul\":12085:12088   */\n      dup3\n        /* \"#utility.yul\":12081:12093   */\n      add\n        /* \"#utility.yul\":12074:12093   */\n      swap1\n      pop\n        /* \"#utility.yul\":11733:12099   */\n      swap2\n      swap1\n      pop\n      jump\t// out\n        /* \"#utility.yul\":12105:12524   */\n    tag_50:\n        /* \"#utility.yul\":12271:12275   */\n      0x00\n        /* \"#utility.yul\":12309:12311   */\n      0x20\n        /* \"#utility.yul\":12298:12307   */\n      dup3\n        /* \"#utility.yul\":12294:12312   */\n      add\n        /* \"#utility.yul\":12286:12312   */\n      swap1\n      pop\n        /* \"#utility.yul\":12358:12367   */\n      dup2\n        /* \"#utility.yul\":12352:12356   */\n      dup2\n        /* \"#utility.yul\":12348:12368   */\n      sub\n        /* \"#utility.yul\":12344:12345   */\n      0x00\n        /* \"#utility.yul\":12333:12342   */\n      dup4\n        /* \"#utility.yul\":12329:12346   */\n      add\n        /* \"#utility.yul\":12322:12369   */\n      mstore\n        /* \"#utility.yul\":12386:12517   */\n      tag_223\n        /* \"#utility.yul\":12512:12516   */\n      dup2\n        /* \"#utility.yul\":12386:12517   */\n      tag_90\n      jump\t// in\n    tag_223:\n        /* \"#utility.yul\":12378:12517   */\n      swap1\n      pop\n        /* \"#utility.yul\":12105:12524   */\n      swap2\n      swap1\n      pop\n      jump\t// out\n\n    auxdata: 0xa264697066735822122086d4cd917f4b78650c554647379e3f606f9e34c53d42b5f9baa5a5f491ac9dd864736f6c634300081a0033\n}\n",
				"bytecode": {
					"linkReferences": {},
					"object": "6080604052348015600e575f80fd5b506108e98061001c5f395ff3fe608060405234801561000f575f80fd5b506004361061004a575f3560e01c806319045a251461004e5780631ba9096f1461007e578063aed12cbe146100ae578063c7045a07146100de575b5f80fd5b61006860048036038101906100639190610417565b61010e565b60405161007591906104b0565b60405180910390f35b610098600480360381019061009391906104c9565b610178565b6040516100a59190610503565b60405180910390f35b6100c860048036038101906100c391906105e4565b6101a7565b6040516100d59190610686565b60405180910390f35b6100f860048036038101906100f3919061069f565b610203565b6040516101059190610503565b60405180910390f35b5f805f8061011b85610232565b9250925092506001868285856040515f81526020016040526040516101439493929190610701565b6020604051602081039080840390855afa158015610163573d5f803e3d5ffd5b50505060206040510351935050505092915050565b5f8160405160200161018a91906107b8565b604051602081830303815290604052805190602001209050919050565b5f806101b284610203565b90505f6101be82610178565b90508573ffffffffffffffffffffffffffffffffffffffff166101e1828661010e565b73ffffffffffffffffffffffffffffffffffffffff1614925050509392505050565b5f816040516020016102159190610825565b604051602081830303815290604052805190602001209050919050565b5f805f6041845114610279576040517f08c379a000000000000000000000000000000000000000000000000000000000815260040161027090610895565b60405180910390fd5b602084015192506040840151915060608401515f1a90509193909250565b5f604051905090565b5f80fd5b5f80fd5b5f819050919050565b6102ba816102a8565b81146102c4575f80fd5b50565b5f813590506102d5816102b1565b92915050565b5f80fd5b5f80fd5b5f601f19601f8301169050919050565b7f4e487b71000000000000000000000000000000000000000000000000000000005f52604160045260245ffd5b610329826102e3565b810181811067ffffffffffffffff82111715610348576103476102f3565b5b80604052505050565b5f61035a610297565b90506103668282610320565b919050565b5f67ffffffffffffffff821115610385576103846102f3565b5b61038e826102e3565b9050602081019050919050565b828183375f83830152505050565b5f6103bb6103b68461036b565b610351565b9050828152602081018484840111156103d7576103d66102df565b5b6103e284828561039b565b509392505050565b5f82601f8301126103fe576103fd6102db565b5b813561040e8482602086016103a9565b91505092915050565b5f806040838503121561042d5761042c6102a0565b5b5f61043a858286016102c7565b925050602083013567ffffffffffffffff81111561045b5761045a6102a4565b5b610467858286016103ea565b9150509250929050565b5f73ffffffffffffffffffffffffffffffffffffffff82169050919050565b5f61049a82610471565b9050919050565b6104aa81610490565b82525050565b5f6020820190506104c35f8301846104a1565b92915050565b5f602082840312156104de576104dd6102a0565b5b5f6104eb848285016102c7565b91505092915050565b6104fd816102a8565b82525050565b5f6020820190506105165f8301846104f4565b92915050565b61052581610490565b811461052f575f80fd5b50565b5f813590506105408161051c565b92915050565b5f67ffffffffffffffff8211156105605761055f6102f3565b5b610569826102e3565b9050602081019050919050565b5f61058861058384610546565b610351565b9050828152602081018484840111156105a4576105a36102df565b5b6105af84828561039b565b509392505050565b5f82601f8301126105cb576105ca6102db565b5b81356105db848260208601610576565b91505092915050565b5f805f606084860312156105fb576105fa6102a0565b5b5f61060886828701610532565b935050602084013567ffffffffffffffff811115610629576106286102a4565b5b610635868287016105b7565b925050604084013567ffffffffffffffff811115610656576106556102a4565b5b610662868287016103ea565b9150509250925092565b5f8115159050919050565b6106808161066c565b82525050565b5f6020820190506106995f830184610677565b92915050565b5f602082840312156106b4576106b36102a0565b5b5f82013567ffffffffffffffff8111156106d1576106d06102a4565b5b6106dd848285016105b7565b91505092915050565b5f60ff82169050919050565b6106fb816106e6565b82525050565b5f6080820190506107145f8301876104f4565b61072160208301866106f2565b61072e60408301856104f4565b61073b60608301846104f4565b95945050505050565b5f81905092915050565b7f19457468657265756d205369676e6564204d6573736167653a0a3332000000005f82015250565b5f610782601c83610744565b915061078d8261074e565b601c82019050919050565b5f819050919050565b6107b26107ad826102a8565b610798565b82525050565b5f6107c282610776565b91506107ce82846107a1565b60208201915081905092915050565b5f81519050919050565b8281835e5f83830152505050565b5f6107ff826107dd565b6108098185610744565b93506108198185602086016107e7565b80840191505092915050565b5f61083082846107f5565b915081905092915050565b5f82825260208201905092915050565b7f696e76616c6964207369676e61747572650000000000000000000000000000005f82015250565b5f61087f60118361083b565b915061088a8261084b565b602082019050919050565b5f6020820190508181035f8301526108ac81610873565b905091905056fea264697066735822122086d4cd917f4b78650c554647379e3f606f9e34c53d42b5f9baa5a5f491ac9dd864736f6c634300081a0033",
					"opcodes": "PUSH1 0x80 PUSH1 0x40 MSTORE CALLVALUE DUP1 ISZERO PUSH1 0xE JUMPI PUSH0 DUP1 REVERT JUMPDEST POP PUSH2 0x8E9 DUP1 PUSH2 0x1C PUSH0 CODECOPY PUSH0 RETURN INVALID PUSH1 0x80 PUSH1 0x40 MSTORE CALLVALUE DUP1 ISZERO PUSH2 0xF JUMPI PUSH0 DUP1 REVERT JUMPDEST POP PUSH1 0x4 CALLDATASIZE LT PUSH2 0x4A JUMPI PUSH0 CALLDATALOAD PUSH1 0xE0 SHR DUP1 PUSH4 0x19045A25 EQ PUSH2 0x4E JUMPI DUP1 PUSH4 0x1BA9096F EQ PUSH2 0x7E JUMPI DUP1 PUSH4 0xAED12CBE EQ PUSH2 0xAE JUMPI DUP1 PUSH4 0xC7045A07 EQ PUSH2 0xDE JUMPI JUMPDEST PUSH0 DUP1 REVERT JUMPDEST PUSH2 0x68 PUSH1 0x4 DUP1 CALLDATASIZE SUB DUP2 ADD SWAP1 PUSH2 0x63 SWAP2 SWAP1 PUSH2 0x417 JUMP JUMPDEST PUSH2 0x10E JUMP JUMPDEST PUSH1 0x40 MLOAD PUSH2 0x75 SWAP2 SWAP1 PUSH2 0x4B0 JUMP JUMPDEST PUSH1 0x40 MLOAD DUP1 SWAP2 SUB SWAP1 RETURN JUMPDEST PUSH2 0x98 PUSH1 0x4 DUP1 CALLDATASIZE SUB DUP2 ADD SWAP1 PUSH2 0x93 SWAP2 SWAP1 PUSH2 0x4C9 JUMP JUMPDEST PUSH2 0x178 JUMP JUMPDEST PUSH1 0x40 MLOAD PUSH2 0xA5 SWAP2 SWAP1 PUSH2 0x503 JUMP JUMPDEST PUSH1 0x40 MLOAD DUP1 SWAP2 SUB SWAP1 RETURN JUMPDEST PUSH2 0xC8 PUSH1 0x4 DUP1 CALLDATASIZE SUB DUP2 ADD SWAP1 PUSH2 0xC3 SWAP2 SWAP1 PUSH2 0x5E4 JUMP JUMPDEST PUSH2 0x1A7 JUMP JUMPDEST PUSH1 0x40 MLOAD PUSH2 0xD5 SWAP2 SWAP1 PUSH2 0x686 JUMP JUMPDEST PUSH1 0x40 MLOAD DUP1 SWAP2 SUB SWAP1 RETURN JUMPDEST PUSH2 0xF8 PUSH1 0x4 DUP1 CALLDATASIZE SUB DUP2 ADD SWAP1 PUSH2 0xF3 SWAP2 SWAP1 PUSH2 0x69F JUMP JUMPDEST PUSH2 0x203 JUMP JUMPDEST PUSH1 0x40 MLOAD PUSH2 0x105 SWAP2 SWAP1 PUSH2 0x503 JUMP JUMPDEST PUSH1 0x40 MLOAD DUP1 SWAP2 SUB SWAP1 RETURN JUMPDEST PUSH0 DUP1 PUSH0 DUP1 PUSH2 0x11B DUP6 PUSH2 0x232 JUMP JUMPDEST SWAP3 POP SWAP3 POP SWAP3 POP PUSH1 0x1 DUP7 DUP3 DUP6 DUP6 PUSH1 0x40 MLOAD PUSH0 DUP2 MSTORE PUSH1 0x20 ADD PUSH1 0x40 MSTORE PUSH1 0x40 MLOAD PUSH2 0x143 SWAP5 SWAP4 SWAP3 SWAP2 SWAP1 PUSH2 0x701 JUMP JUMPDEST PUSH1 0x20 PUSH1 0x40 MLOAD PUSH1 0x20 DUP2 SUB SWAP1 DUP1 DUP5 SUB SWAP1 DUP6 GAS STATICCALL ISZERO DUP1 ISZERO PUSH2 0x163 JUMPI RETURNDATASIZE PUSH0 DUP1 RETURNDATACOPY RETURNDATASIZE PUSH0 REVERT JUMPDEST POP POP POP PUSH1 0x20 PUSH1 0x40 MLOAD SUB MLOAD SWAP4 POP POP POP POP SWAP3 SWAP2 POP POP JUMP JUMPDEST PUSH0 DUP2 PUSH1 0x40 MLOAD PUSH1 0x20 ADD PUSH2 0x18A SWAP2 SWAP1 PUSH2 0x7B8 JUMP JUMPDEST PUSH1 0x40 MLOAD PUSH1 0x20 DUP2 DUP4 SUB SUB DUP2 MSTORE SWAP1 PUSH1 0x40 MSTORE DUP1 MLOAD SWAP1 PUSH1 0x20 ADD KECCAK256 SWAP1 POP SWAP2 SWAP1 POP JUMP JUMPDEST PUSH0 DUP1 PUSH2 0x1B2 DUP5 PUSH2 0x203 JUMP JUMPDEST SWAP1 POP PUSH0 PUSH2 0x1BE DUP3 PUSH2 0x178 JUMP JUMPDEST SWAP1 POP DUP6 PUSH20 0xFFFFFFFFFFFFFFFFFFFFFFFFFFFFFFFFFFFFFFFF AND PUSH2 0x1E1 DUP3 DUP7 PUSH2 0x10E JUMP JUMPDEST PUSH20 0xFFFFFFFFFFFFFFFFFFFFFFFFFFFFFFFFFFFFFFFF AND EQ SWAP3 POP POP POP SWAP4 SWAP3 POP POP POP JUMP JUMPDEST PUSH0 DUP2 PUSH1 0x40 MLOAD PUSH1 0x20 ADD PUSH2 0x215 SWAP2 SWAP1 PUSH2 0x825 JUMP JUMPDEST PUSH1 0x40 MLOAD PUSH1 0x20 DUP2 DUP4 SUB SUB DUP2 MSTORE SWAP1 PUSH1 0x40 MSTORE DUP1 MLOAD SWAP1 PUSH1 0x20 ADD KECCAK256 SWAP1 POP SWAP2 SWAP1 POP JUMP JUMPDEST PUSH0 DUP1 PUSH0 PUSH1 0x41 DUP5 MLOAD EQ PUSH2 0x279 JUMPI PUSH1 0x40 MLOAD PUSH32 0x8C379A000000000000000000000000000000000000000000000000000000000 DUP2 MSTORE PUSH1 0x4 ADD PUSH2 0x270 SWAP1 PUSH2 0x895 JUMP JUMPDEST PUSH1 0x40 MLOAD DUP1 SWAP2 SUB SWAP1 REVERT JUMPDEST PUSH1 0x20 DUP5 ADD MLOAD SWAP3 POP PUSH1 0x40 DUP5 ADD MLOAD SWAP2 POP PUSH1 0x60 DUP5 ADD MLOAD PUSH0 BYTE SWAP1 POP SWAP2 SWAP4 SWAP1 SWAP3 POP JUMP JUMPDEST PUSH0 PUSH1 0x40 MLOAD SWAP1 POP SWAP1 JUMP JUMPDEST PUSH0 DUP1 REVERT JUMPDEST PUSH0 DUP1 REVERT JUMPDEST PUSH0 DUP2 SWAP1 POP SWAP2 SWAP1 POP JUMP JUMPDEST PUSH2 0x2BA DUP2 PUSH2 0x2A8 JUMP JUMPDEST DUP2 EQ PUSH2 0x2C4 JUMPI PUSH0 DUP1 REVERT JUMPDEST POP JUMP JUMPDEST PUSH0 DUP2 CALLDATALOAD SWAP1 POP PUSH2 0x2D5 DUP2 PUSH2 0x2B1 JUMP JUMPDEST SWAP3 SWAP2 POP POP JUMP JUMPDEST PUSH0 DUP1 REVERT JUMPDEST PUSH0 DUP1 REVERT JUMPDEST PUSH0 PUSH1 0x1F NOT PUSH1 0x1F DUP4 ADD AND SWAP1 POP SWAP2 SWAP1 POP JUMP JUMPDEST PUSH32 0x4E487B7100000000000000000000000000000000000000000000000000000000 PUSH0 MSTORE PUSH1 0x41 PUSH1 0x4 MSTORE PUSH1 0x24 PUSH0 REVERT JUMPDEST PUSH2 0x329 DUP3 PUSH2 0x2E3 JUMP JUMPDEST DUP2 ADD DUP2 DUP2 LT PUSH8 0xFFFFFFFFFFFFFFFF DUP3 GT OR ISZERO PUSH2 0x348 JUMPI PUSH2 0x347 PUSH2 0x2F3 JUMP JUMPDEST JUMPDEST DUP1 PUSH1 0x40 MSTORE POP POP POP JUMP JUMPDEST PUSH0 PUSH2 0x35A PUSH2 0x297 JUMP JUMPDEST SWAP1 POP PUSH2 0x366 DUP3 DUP3 PUSH2 0x320 JUMP JUMPDEST SWAP2 SWAP1 POP JUMP JUMPDEST PUSH0 PUSH8 0xFFFFFFFFFFFFFFFF DUP3 GT ISZERO PUSH2 0x385 JUMPI PUSH2 0x384 PUSH2 0x2F3 JUMP JUMPDEST JUMPDEST PUSH2 0x38E DUP3 PUSH2 0x2E3 JUMP JUMPDEST SWAP1 POP PUSH1 0x20 DUP2 ADD SWAP1 POP SWAP2 SWAP1 POP JUMP JUMPDEST DUP3 DUP2 DUP4 CALLDATACOPY PUSH0 DUP4 DUP4 ADD MSTORE POP POP POP JUMP JUMPDEST PUSH0 PUSH2 0x3BB PUSH2 0x3B6 DUP5 PUSH2 0x36B JUMP JUMPDEST PUSH2 0x351 JUMP JUMPDEST SWAP1 POP DUP3 DUP2 MSTORE PUSH1 0x20 DUP2 ADD DUP5 DUP5 DUP5 ADD GT ISZERO PUSH2 0x3D7 JUMPI PUSH2 0x3D6 PUSH2 0x2DF JUMP JUMPDEST JUMPDEST PUSH2 0x3E2 DUP5 DUP3 DUP6 PUSH2 0x39B JUMP JUMPDEST POP SWAP4 SWAP3 POP POP POP JUMP JUMPDEST PUSH0 DUP3 PUSH1 0x1F DUP4 ADD SLT PUSH2 0x3FE JUMPI PUSH2 0x3FD PUSH2 0x2DB JUMP JUMPDEST JUMPDEST DUP2 CALLDATALOAD PUSH2 0x40E DUP5 DUP3 PUSH1 0x20 DUP7 ADD PUSH2 0x3A9 JUMP JUMPDEST SWAP2 POP POP SWAP3 SWAP2 POP POP JUMP JUMPDEST PUSH0 DUP1 PUSH1 0x40 DUP4 DUP6 SUB SLT ISZERO PUSH2 0x42D JUMPI PUSH2 0x42C PUSH2 0x2A0 JUMP JUMPDEST JUMPDEST PUSH0 PUSH2 0x43A DUP6 DUP3 DUP7 ADD PUSH2 0x2C7 JUMP JUMPDEST SWAP3 POP POP PUSH1 0x20 DUP4 ADD CALLDATALOAD PUSH8 0xFFFFFFFFFFFFFFFF DUP2 GT ISZERO PUSH2 0x45B JUMPI PUSH2 0x45A PUSH2 0x2A4 JUMP JUMPDEST JUMPDEST PUSH2 0x467 DUP6 DUP3 DUP7 ADD PUSH2 0x3EA JUMP JUMPDEST SWAP2 POP POP SWAP3 POP SWAP3 SWAP1 POP JUMP JUMPDEST PUSH0 PUSH20 0xFFFFFFFFFFFFFFFFFFFFFFFFFFFFFFFFFFFFFFFF DUP3 AND SWAP1 POP SWAP2 SWAP1 POP JUMP JUMPDEST PUSH0 PUSH2 0x49A DUP3 PUSH2 0x471 JUMP JUMPDEST SWAP1 POP SWAP2 SWAP1 POP JUMP JUMPDEST PUSH2 0x4AA DUP2 PUSH2 0x490 JUMP JUMPDEST DUP3 MSTORE POP POP JUMP JUMPDEST PUSH0 PUSH1 0x20 DUP3 ADD SWAP1 POP PUSH2 0x4C3 PUSH0 DUP4 ADD DUP5 PUSH2 0x4A1 JUMP JUMPDEST SWAP3 SWAP2 POP POP JUMP JUMPDEST PUSH0 PUSH1 0x20 DUP3 DUP5 SUB SLT ISZERO PUSH2 0x4DE JUMPI PUSH2 0x4DD PUSH2 0x2A0 JUMP JUMPDEST JUMPDEST PUSH0 PUSH2 0x4EB DUP5 DUP3 DUP6 ADD PUSH2 0x2C7 JUMP JUMPDEST SWAP2 POP POP SWAP3 SWAP2 POP POP JUMP JUMPDEST PUSH2 0x4FD DUP2 PUSH2 0x2A8 JUMP JUMPDEST DUP3 MSTORE POP POP JUMP JUMPDEST PUSH0 PUSH1 0x20 DUP3 ADD SWAP1 POP PUSH2 0x516 PUSH0 DUP4 ADD DUP5 PUSH2 0x4F4 JUMP JUMPDEST SWAP3 SWAP2 POP POP JUMP JUMPDEST PUSH2 0x525 DUP2 PUSH2 0x490 JUMP JUMPDEST DUP2 EQ PUSH2 0x52F JUMPI PUSH0 DUP1 REVERT JUMPDEST POP JUMP JUMPDEST PUSH0 DUP2 CALLDATALOAD SWAP1 POP PUSH2 0x540 DUP2 PUSH2 0x51C JUMP JUMPDEST SWAP3 SWAP2 POP POP JUMP JUMPDEST PUSH0 PUSH8 0xFFFFFFFFFFFFFFFF DUP3 GT ISZERO PUSH2 0x560 JUMPI PUSH2 0x55F PUSH2 0x2F3 JUMP JUMPDEST JUMPDEST PUSH2 0x569 DUP3 PUSH2 0x2E3 JUMP JUMPDEST SWAP1 POP PUSH1 0x20 DUP2 ADD SWAP1 POP SWAP2 SWAP1 POP JUMP JUMPDEST PUSH0 PUSH2 0x588 PUSH2 0x583 DUP5 PUSH2 0x546 JUMP JUMPDEST PUSH2 0x351 JUMP JUMPDEST SWAP1 POP DUP3 DUP2 MSTORE PUSH1 0x20 DUP2 ADD DUP5 DUP5 DUP5 ADD GT ISZERO PUSH2 0x5A4 JUMPI PUSH2 0x5A3 PUSH2 0x2DF JUMP JUMPDEST JUMPDEST PUSH2 0x5AF DUP5 DUP3 DUP6 PUSH2 0x39B JUMP JUMPDEST POP SWAP4 SWAP3 POP POP POP JUMP JUMPDEST PUSH0 DUP3 PUSH1 0x1F DUP4 ADD SLT PUSH2 0x5CB JUMPI PUSH2 0x5CA PUSH2 0x2DB JUMP JUMPDEST JUMPDEST DUP2 CALLDATALOAD PUSH2 0x5DB DUP5 DUP3 PUSH1 0x20 DUP7 ADD PUSH2 0x576 JUMP JUMPDEST SWAP2 POP POP SWAP3 SWAP2 POP POP JUMP JUMPDEST PUSH0 DUP1 PUSH0 PUSH1 0x60 DUP5 DUP7 SUB SLT ISZERO PUSH2 0x5FB JUMPI PUSH2 0x5FA PUSH2 0x2A0 JUMP JUMPDEST JUMPDEST PUSH0 PUSH2 0x608 DUP7 DUP3 DUP8 ADD PUSH2 0x532 JUMP JUMPDEST SWAP4 POP POP PUSH1 0x20 DUP5 ADD CALLDATALOAD PUSH8 0xFFFFFFFFFFFFFFFF DUP2 GT ISZERO PUSH2 0x629 JUMPI PUSH2 0x628 PUSH2 0x2A4 JUMP JUMPDEST JUMPDEST PUSH2 0x635 DUP7 DUP3 DUP8 ADD PUSH2 0x5B7 JUMP JUMPDEST SWAP3 POP POP PUSH1 0x40 DUP5 ADD CALLDATALOAD PUSH8 0xFFFFFFFFFFFFFFFF DUP2 GT ISZERO PUSH2 0x656 JUMPI PUSH2 0x655 PUSH2 0x2A4 JUMP JUMPDEST JUMPDEST PUSH2 0x662 DUP7 DUP3 DUP8 ADD PUSH2 0x3EA JUMP JUMPDEST SWAP2 POP POP SWAP3 POP SWAP3 POP SWAP3 JUMP JUMPDEST PUSH0 DUP2 ISZERO ISZERO SWAP1 POP SWAP2 SWAP1 POP JUMP JUMPDEST PUSH2 0x680 DUP2 PUSH2 0x66C JUMP JUMPDEST DUP3 MSTORE POP POP JUMP JUMPDEST PUSH0 PUSH1 0x20 DUP3 ADD SWAP1 POP PUSH2 0x699 PUSH0 DUP4 ADD DUP5 PUSH2 0x677 JUMP JUMPDEST SWAP3 SWAP2 POP POP JUMP JUMPDEST PUSH0 PUSH1 0x20 DUP3 DUP5 SUB SLT ISZERO PUSH2 0x6B4 JUMPI PUSH2 0x6B3 PUSH2 0x2A0 JUMP JUMPDEST JUMPDEST PUSH0 DUP3 ADD CALLDATALOAD PUSH8 0xFFFFFFFFFFFFFFFF DUP2 GT ISZERO PUSH2 0x6D1 JUMPI PUSH2 0x6D0 PUSH2 0x2A4 JUMP JUMPDEST JUMPDEST PUSH2 0x6DD DUP5 DUP3 DUP6 ADD PUSH2 0x5B7 JUMP JUMPDEST SWAP2 POP POP SWAP3 SWAP2 POP POP JUMP JUMPDEST PUSH0 PUSH1 0xFF DUP3 AND SWAP1 POP SWAP2 SWAP1 POP JUMP JUMPDEST PUSH2 0x6FB DUP2 PUSH2 0x6E6 JUMP JUMPDEST DUP3 MSTORE POP POP JUMP JUMPDEST PUSH0 PUSH1 0x80 DUP3 ADD SWAP1 POP PUSH2 0x714 PUSH0 DUP4 ADD DUP8 PUSH2 0x4F4 JUMP JUMPDEST PUSH2 0x721 PUSH1 0x20 DUP4 ADD DUP7 PUSH2 0x6F2 JUMP JUMPDEST PUSH2 0x72E PUSH1 0x40 DUP4 ADD DUP6 PUSH2 0x4F4 JUMP JUMPDEST PUSH2 0x73B PUSH1 0x60 DUP4 ADD DUP5 PUSH2 0x4F4 JUMP JUMPDEST SWAP6 SWAP5 POP POP POP POP POP JUMP JUMPDEST PUSH0 DUP2 SWAP1 POP SWAP3 SWAP2 POP POP JUMP JUMPDEST PUSH32 0x19457468657265756D205369676E6564204D6573736167653A0A333200000000 PUSH0 DUP3 ADD MSTORE POP JUMP JUMPDEST PUSH0 PUSH2 0x782 PUSH1 0x1C DUP4 PUSH2 0x744 JUMP JUMPDEST SWAP2 POP PUSH2 0x78D DUP3 PUSH2 0x74E JUMP JUMPDEST PUSH1 0x1C DUP3 ADD SWAP1 POP SWAP2 SWAP1 POP JUMP JUMPDEST PUSH0 DUP2 SWAP1 POP SWAP2 SWAP1 POP JUMP JUMPDEST PUSH2 0x7B2 PUSH2 0x7AD DUP3 PUSH2 0x2A8 JUMP JUMPDEST PUSH2 0x798 JUMP JUMPDEST DUP3 MSTORE POP POP JUMP JUMPDEST PUSH0 PUSH2 0x7C2 DUP3 PUSH2 0x776 JUMP JUMPDEST SWAP2 POP PUSH2 0x7CE DUP3 DUP5 PUSH2 0x7A1 JUMP JUMPDEST PUSH1 0x20 DUP3 ADD SWAP2 POP DUP2 SWAP1 POP SWAP3 SWAP2 POP POP JUMP JUMPDEST PUSH0 DUP2 MLOAD SWAP1 POP SWAP2 SWAP1 POP JUMP JUMPDEST DUP3 DUP2 DUP4 MCOPY PUSH0 DUP4 DUP4 ADD MSTORE POP POP POP JUMP JUMPDEST PUSH0 PUSH2 0x7FF DUP3 PUSH2 0x7DD JUMP JUMPDEST PUSH2 0x809 DUP2 DUP6 PUSH2 0x744 JUMP JUMPDEST SWAP4 POP PUSH2 0x819 DUP2 DUP6 PUSH1 0x20 DUP7 ADD PUSH2 0x7E7 JUMP JUMPDEST DUP1 DUP5 ADD SWAP2 POP POP SWAP3 SWAP2 POP POP JUMP JUMPDEST PUSH0 PUSH2 0x830 DUP3 DUP5 PUSH2 0x7F5 JUMP JUMPDEST SWAP2 POP DUP2 SWAP1 POP SWAP3 SWAP2 POP POP JUMP JUMPDEST PUSH0 DUP3 DUP3 MSTORE PUSH1 0x20 DUP3 ADD SWAP1 POP SWAP3 SWAP2 POP POP JUMP JUMPDEST PUSH32 0x696E76616C6964207369676E6174757265000000000000000000000000000000 PUSH0 DUP3 ADD MSTORE POP JUMP JUMPDEST PUSH0 PUSH2 0x87F PUSH1 0x11 DUP4 PUSH2 0x83B JUMP JUMPDEST SWAP2 POP PUSH2 0x88A DUP3 PUSH2 0x84B JUMP JUMPDEST PUSH1 0x20 DUP3 ADD SWAP1 POP SWAP2 SWAP1 POP JUMP JUMPDEST PUSH0 PUSH1 0x20 DUP3 ADD SWAP1 POP DUP2 DUP2 SUB PUSH0 DUP4 ADD MSTORE PUSH2 0x8AC DUP2 PUSH2 0x873 JUMP JUMPDEST SWAP1 POP SWAP2 SWAP1 POP JUMP INVALID LOG2 PUSH5 0x6970667358 0x22 SLT KECCAK256 DUP7 0xD4 0xCD SWAP2 PUSH32 0x4B78650C554647379E3F606F9E34C53D42B5F9BAA5A5F491AC9DD864736F6C63 NUMBER STOP ADDMOD BYTE STOP CALLER "
				},
				"gasEstimates": {
					"creation": {
						"codeDepositCost": "456200",
						"executionCost": "491",
						"totalCost": "456691"
					},
					"external": {
						"ethSignedMessageHash(bytes32)": "infinite",
						"messageHash(string)": "infinite",
						"recover(bytes32,bytes)": "infinite",
						"vetify(address,string,bytes)": "infinite"
					},
					"internal": {
						"splitSig(bytes memory)": "infinite"
					}
				},
				"methodIdentifiers": {
					"ethSignedMessageHash(bytes32)": "1ba9096f",
					"messageHash(string)": "c7045a07",
					"recover(bytes32,bytes)": "19045a25",
					"vetify(address,string,bytes)": "aed12cbe"
				}
			},
			"storageLayout": {
				"storage": [],
				"types": null
			},
			"userdoc": {
				"kind": "user",
				"methods": {},
				"version": 1
			}
		}
	}
}