{
	"Example_Factory/test.sol": {
		"RecordStorage": {
			"abi": [
				{
					"inputs": [
						{
							"internalType": "address",
							"name": "owner",
							"type": "address"
						}
					],
					"name": "OwnableInvalidOwner",
					"type": "error"
				},
				{
					"inputs": [
						{
							"internalType": "address",
							"name": "account",
							"type": "address"
						}
					],
					"name": "OwnableUnauthorizedAccount",
					"type": "error"
				},
				{
					"anonymous": false,
					"inputs": [
						{
							"indexed": true,
							"internalType": "address",
							"name": "previousOwner",
							"type": "address"
						},
						{
							"indexed": true,
							"internalType": "address",
							"name": "newOwner",
							"type": "address"
						}
					],
					"name": "OwnershipTransferred",
					"type": "event"
				},
				{
					"inputs": [
						{
							"internalType": "bytes",
							"name": "_packedrecord",
							"type": "bytes"
						}
					],
					"name": "addRecord",
					"outputs": [],
					"stateMutability": "nonpayable",
					"type": "function"
				},
				{
					"inputs": [
						{
							"internalType": "bytes",
							"name": "data",
							"type": "bytes"
						}
					],
					"name": "decodeRecord",
					"outputs": [
						{
							"internalType": "address",
							"name": "_record",
							"type": "address"
						}
					],
					"stateMutability": "nonpayable",
					"type": "function"
				},
				{
					"inputs": [],
					"name": "owner",
					"outputs": [
						{
							"internalType": "address",
							"name": "",
							"type": "address"
						}
					],
					"stateMutability": "view",
					"type": "function"
				},
				{
					"inputs": [
						{
							"internalType": "uint256",
							"name": "",
							"type": "uint256"
						}
					],
					"name": "records",
					"outputs": [
						{
							"internalType": "bytes",
							"name": "",
							"type": "bytes"
						}
					],
					"stateMutability": "view",
					"type": "function"
				},
				{
					"inputs": [],
					"name": "renounceOwnership",
					"outputs": [],
					"stateMutability": "nonpayable",
					"type": "function"
				},
				{
					"inputs": [
						{
							"internalType": "address",
							"name": "_record",
							"type": "address"
						}
					],
					"name": "testAdd",
					"outputs": [],
					"stateMutability": "nonpayable",
					"type": "function"
				},
				{
					"inputs": [
						{
							"internalType": "address",
							"name": "newOwner",
							"type": "address"
						}
					],
					"name": "transferOwnership",
					"outputs": [],
					"stateMutability": "nonpayable",
					"type": "function"
				}
			],
			"devdoc": {
				"errors": {
					"OwnableInvalidOwner(address)": [
						{
							"details": "The owner is not a valid owner account. (eg. `address(0)`)"
						}
					],
					"OwnableUnauthorizedAccount(address)": [
						{
							"details": "The caller account is not authorized to perform an operation."
						}
					]
				},
				"kind": "dev",
				"methods": {
					"owner()": {
						"details": "Returns the address of the current owner."
					},
					"renounceOwnership()": {
						"details": "Leaves the contract without owner. It will not be possible to call `onlyOwner` functions. Can only be called by the current owner. NOTE: Renouncing ownership will leave the contract without an owner, thereby disabling any functionality that is only available to the owner."
					},
					"transferOwnership(address)": {
						"details": "Transfers ownership of the contract to a new account (`newOwner`). Can only be called by the current owner."
					}
				},
				"version": 1
			},
			"evm": {
				"assembly": "    /* \"Example_Factory/test.sol\":133:927  contract RecordStorage is Ownable(msg.sender){... */\n  mstore(0x40, 0x80)\n  callvalue\n  dup1\n  iszero\n  tag_1\n  jumpi\n  0x00\n  dup1\n  revert\ntag_1:\n  pop\n    /* \"Example_Factory/test.sol\":167:177  msg.sender */\n  caller\n    /* \"@openzeppelin/contracts/access/Ownable.sol\":1297:1298  0 */\n  0x00\n    /* \"@openzeppelin/contracts/access/Ownable.sol\":1273:1299  initialOwner == address(0) */\n  0xffffffffffffffffffffffffffffffffffffffff\n  and\n    /* \"@openzeppelin/contracts/access/Ownable.sol\":1273:1285  initialOwner */\n  dup2\n    /* \"@openzeppelin/contracts/access/Ownable.sol\":1273:1299  initialOwner == address(0) */\n  0xffffffffffffffffffffffffffffffffffffffff\n  and\n  sub\n    /* \"@openzeppelin/contracts/access/Ownable.sol\":1269:1364  if (initialOwner == address(0)) {... */\n  tag_4\n  jumpi\n    /* \"@openzeppelin/contracts/access/Ownable.sol\":1350:1351  0 */\n  0x00\n    /* \"@openzeppelin/contracts/access/Ownable.sol\":1322:1353  OwnableInvalidOwner(address(0)) */\n  mload(0x40)\n  0x1e4fbdf700000000000000000000000000000000000000000000000000000000\n  dup2\n  mstore\n  0x04\n  add\n  tag_5\n  swap2\n  swap1\n  tag_6\n  jump\t// in\ntag_5:\n  mload(0x40)\n  dup1\n  swap2\n  sub\n  swap1\n  revert\n    /* \"@openzeppelin/contracts/access/Ownable.sol\":1269:1364  if (initialOwner == address(0)) {... */\ntag_4:\n    /* \"@openzeppelin/contracts/access/Ownable.sol\":1373:1405  _transferOwnership(initialOwner) */\n  tag_7\n    /* \"@openzeppelin/contracts/access/Ownable.sol\":1392:1404  initialOwner */\n  dup2\n    /* \"@openzeppelin/contracts/access/Ownable.sol\":1373:1391  _transferOwnership */\n  shl(0x20, tag_8)\n    /* \"@openzeppelin/contracts/access/Ownable.sol\":1373:1405  _transferOwnership(initialOwner) */\n  0x20\n  shr\n  jump\t// in\ntag_7:\n    /* \"@openzeppelin/contracts/access/Ownable.sol\":1225:1412  constructor(address initialOwner) {... */\n  pop\n    /* \"Example_Factory/test.sol\":133:927  contract RecordStorage is Ownable(msg.sender){... */\n  jump(tag_9)\n    /* \"@openzeppelin/contracts/access/Ownable.sol\":2912:3099  function _transferOwnership(address newOwner) internal virtual {... */\ntag_8:\n    /* \"@openzeppelin/contracts/access/Ownable.sol\":2985:3001  address oldOwner */\n  0x00\n    /* \"@openzeppelin/contracts/access/Ownable.sol\":3004:3010  _owner */\n  dup1\n  0x00\n  swap1\n  sload\n  swap1\n  0x0100\n  exp\n  swap1\n  div\n  0xffffffffffffffffffffffffffffffffffffffff\n  and\n    /* \"@openzeppelin/contracts/access/Ownable.sol\":2985:3010  address oldOwner = _owner */\n  swap1\n  pop\n    /* \"@openzeppelin/contracts/access/Ownable.sol\":3029:3037  newOwner */\n  dup2\n    /* \"@openzeppelin/contracts/access/Ownable.sol\":3020:3026  _owner */\n  0x00\n  dup1\n    /* \"@openzeppelin/contracts/access/Ownable.sol\":3020:3037  _owner = newOwner */\n  0x0100\n  exp\n  dup2\n  sload\n  dup2\n  0xffffffffffffffffffffffffffffffffffffffff\n  mul\n  not\n  and\n  swap1\n  dup4\n  0xffffffffffffffffffffffffffffffffffffffff\n  and\n  mul\n  or\n  swap1\n  sstore\n  pop\n    /* \"@openzeppelin/contracts/access/Ownable.sol\":3083:3091  newOwner */\n  dup2\n    /* \"@openzeppelin/contracts/access/Ownable.sol\":3052:3092  OwnershipTransferred(oldOwner, newOwner) */\n  0xffffffffffffffffffffffffffffffffffffffff\n  and\n    /* \"@openzeppelin/contracts/access/Ownable.sol\":3073:3081  oldOwner */\n  dup2\n    /* \"@openzeppelin/contracts/access/Ownable.sol\":3052:3092  OwnershipTransferred(oldOwner, newOwner) */\n  0xffffffffffffffffffffffffffffffffffffffff\n  and\n  0x8be0079c531659141344cd1fd0a4f28419497f9722a3daafe3b4186f6b6457e0\n  mload(0x40)\n  mload(0x40)\n  dup1\n  swap2\n  sub\n  swap1\n  log3\n    /* \"@openzeppelin/contracts/access/Ownable.sol\":2975:3099  {... */\n  pop\n    /* \"@openzeppelin/contracts/access/Ownable.sol\":2912:3099  function _transferOwnership(address newOwner) internal virtual {... */\n  pop\n  jump\t// out\n    /* \"#utility.yul\":7:133   */\ntag_11:\n    /* \"#utility.yul\":44:51   */\n  0x00\n    /* \"#utility.yul\":84:126   */\n  0xffffffffffffffffffffffffffffffffffffffff\n    /* \"#utility.yul\":77:82   */\n  dup3\n    /* \"#utility.yul\":73:127   */\n  and\n    /* \"#utility.yul\":62:127   */\n  swap1\n  pop\n    /* \"#utility.yul\":7:133   */\n  swap2\n  swap1\n  pop\n  jump\t// out\n    /* \"#utility.yul\":139:235   */\ntag_12:\n    /* \"#utility.yul\":176:183   */\n  0x00\n    /* \"#utility.yul\":205:229   */\n  tag_17\n    /* \"#utility.yul\":223:228   */\n  dup3\n    /* \"#utility.yul\":205:229   */\n  tag_11\n  jump\t// in\ntag_17:\n    /* \"#utility.yul\":194:229   */\n  swap1\n  pop\n    /* \"#utility.yul\":139:235   */\n  swap2\n  swap1\n  pop\n  jump\t// out\n    /* \"#utility.yul\":241:359   */\ntag_13:\n    /* \"#utility.yul\":328:352   */\n  tag_19\n    /* \"#utility.yul\":346:351   */\n  dup2\n    /* \"#utility.yul\":328:352   */\n  tag_12\n  jump\t// in\ntag_19:\n    /* \"#utility.yul\":323:326   */\n  dup3\n    /* \"#utility.yul\":316:353   */\n  mstore\n    /* \"#utility.yul\":241:359   */\n  pop\n  pop\n  jump\t// out\n    /* \"#utility.yul\":365:587   */\ntag_6:\n    /* \"#utility.yul\":458:462   */\n  0x00\n    /* \"#utility.yul\":496:498   */\n  0x20\n    /* \"#utility.yul\":485:494   */\n  dup3\n    /* \"#utility.yul\":481:499   */\n  add\n    /* \"#utility.yul\":473:499   */\n  swap1\n  pop\n    /* \"#utility.yul\":509:580   */\n  tag_21\n    /* \"#utility.yul\":577:578   */\n  0x00\n    /* \"#utility.yul\":566:575   */\n  dup4\n    /* \"#utility.yul\":562:579   */\n  add\n    /* \"#utility.yul\":553:559   */\n  dup5\n    /* \"#utility.yul\":509:580   */\n  tag_13\n  jump\t// in\ntag_21:\n    /* \"#utility.yul\":365:587   */\n  swap3\n  swap2\n  pop\n  pop\n  jump\t// out\n    /* \"Example_Factory/test.sol\":133:927  contract RecordStorage is Ownable(msg.sender){... */\ntag_9:\n  dataSize(sub_0)\n  dup1\n  dataOffset(sub_0)\n  0x00\n  codecopy\n  0x00\n  return\nstop\n\nsub_0: assembly {\n        /* \"Example_Factory/test.sol\":133:927  contract RecordStorage is Ownable(msg.sender){... */\n      mstore(0x40, 0x80)\n      callvalue\n      dup1\n      iszero\n      tag_1\n      jumpi\n      0x00\n      dup1\n      revert\n    tag_1:\n      pop\n      jumpi(tag_2, lt(calldatasize, 0x04))\n      shr(0xe0, calldataload(0x00))\n      dup1\n      0x8da5cb5b\n      gt\n      tag_10\n      jumpi\n      dup1\n      0x8da5cb5b\n      eq\n      tag_6\n      jumpi\n      dup1\n      0x8f90c68d\n      eq\n      tag_7\n      jumpi\n      dup1\n      0xb323bbd7\n      eq\n      tag_8\n      jumpi\n      dup1\n      0xf2fde38b\n      eq\n      tag_9\n      jumpi\n      jump(tag_2)\n    tag_10:\n      dup1\n      0x34461067\n      eq\n      tag_3\n      jumpi\n      dup1\n      0x3e1e506e\n      eq\n      tag_4\n      jumpi\n      dup1\n      0x715018a6\n      eq\n      tag_5\n      jumpi\n    tag_2:\n      0x00\n      dup1\n      revert\n        /* \"Example_Factory/test.sol\":184:206  bytes[] public records */\n    tag_3:\n      tag_11\n      0x04\n      dup1\n      calldatasize\n      sub\n      dup2\n      add\n      swap1\n      tag_12\n      swap2\n      swap1\n      tag_13\n      jump\t// in\n    tag_12:\n      tag_14\n      jump\t// in\n    tag_11:\n      mload(0x40)\n      tag_15\n      swap2\n      swap1\n      tag_16\n      jump\t// in\n    tag_15:\n      mload(0x40)\n      dup1\n      swap2\n      sub\n      swap1\n      return\n        /* \"Example_Factory/test.sol\":563:651  function testAdd(address _record) public {... */\n    tag_4:\n      tag_17\n      0x04\n      dup1\n      calldatasize\n      sub\n      dup2\n      add\n      swap1\n      tag_18\n      swap2\n      swap1\n      tag_19\n      jump\t// in\n    tag_18:\n      tag_20\n      jump\t// in\n    tag_17:\n      stop\n        /* \"@openzeppelin/contracts/access/Ownable.sol\":2293:2394  function renounceOwnership() public virtual onlyOwner {... */\n    tag_5:\n      tag_21\n      tag_22\n      jump\t// in\n    tag_21:\n      stop\n        /* \"@openzeppelin/contracts/access/Ownable.sol\":1638:1723  function owner() public view virtual returns (address) {... */\n    tag_6:\n      tag_23\n      tag_24\n      jump\t// in\n    tag_23:\n      mload(0x40)\n      tag_25\n      swap2\n      swap1\n      tag_26\n      jump\t// in\n    tag_25:\n      mload(0x40)\n      dup1\n      swap2\n      sub\n      swap1\n      return\n        /* \"Example_Factory/test.sol\":657:785  function decodeRecord(bytes memory data) public returns (address _record){... */\n    tag_7:\n      tag_27\n      0x04\n      dup1\n      calldatasize\n      sub\n      dup2\n      add\n      swap1\n      tag_28\n      swap2\n      swap1\n      tag_29\n      jump\t// in\n    tag_28:\n      tag_30\n      jump\t// in\n    tag_27:\n      mload(0x40)\n      tag_31\n      swap2\n      swap1\n      tag_26\n      jump\t// in\n    tag_31:\n      mload(0x40)\n      dup1\n      swap2\n      sub\n      swap1\n      return\n        /* \"Example_Factory/test.sol\":264:434  function addRecord(bytes memory _packedrecord) public {... */\n    tag_8:\n      tag_32\n      0x04\n      dup1\n      calldatasize\n      sub\n      dup2\n      add\n      swap1\n      tag_33\n      swap2\n      swap1\n      tag_29\n      jump\t// in\n    tag_33:\n      tag_34\n      jump\t// in\n    tag_32:\n      stop\n        /* \"@openzeppelin/contracts/access/Ownable.sol\":2543:2758  function transferOwnership(address newOwner) public virtual onlyOwner {... */\n    tag_9:\n      tag_35\n      0x04\n      dup1\n      calldatasize\n      sub\n      dup2\n      add\n      swap1\n      tag_36\n      swap2\n      swap1\n      tag_19\n      jump\t// in\n    tag_36:\n      tag_37\n      jump\t// in\n    tag_35:\n      stop\n        /* \"Example_Factory/test.sol\":184:206  bytes[] public records */\n    tag_14:\n      0x01\n      dup2\n      dup2\n      sload\n      dup2\n      lt\n      tag_38\n      jumpi\n      0x00\n      dup1\n      revert\n    tag_38:\n      swap1\n      0x00\n      mstore\n      keccak256(0x00, 0x20)\n      add\n      0x00\n      swap2\n      pop\n      swap1\n      pop\n      dup1\n      sload\n      tag_40\n      swap1\n      tag_41\n      jump\t// in\n    tag_40:\n      dup1\n      0x1f\n      add\n      0x20\n      dup1\n      swap2\n      div\n      mul\n      0x20\n      add\n      mload(0x40)\n      swap1\n      dup2\n      add\n      0x40\n      mstore\n      dup1\n      swap3\n      swap2\n      swap1\n      dup2\n      dup2\n      mstore\n      0x20\n      add\n      dup3\n      dup1\n      sload\n      tag_42\n      swap1\n      tag_41\n      jump\t// in\n    tag_42:\n      dup1\n      iszero\n      tag_43\n      jumpi\n      dup1\n      0x1f\n      lt\n      tag_44\n      jumpi\n      0x0100\n      dup1\n      dup4\n      sload\n      div\n      mul\n      dup4\n      mstore\n      swap2\n      0x20\n      add\n      swap2\n      jump(tag_43)\n    tag_44:\n      dup3\n      add\n      swap2\n      swap1\n      0x00\n      mstore\n      keccak256(0x00, 0x20)\n      swap1\n    tag_45:\n      dup2\n      sload\n      dup2\n      mstore\n      swap1\n      0x01\n      add\n      swap1\n      0x20\n      add\n      dup1\n      dup4\n      gt\n      tag_45\n      jumpi\n      dup3\n      swap1\n      sub\n      0x1f\n      and\n      dup3\n      add\n      swap2\n    tag_43:\n      pop\n      pop\n      pop\n      pop\n      pop\n      dup2\n      jump\t// out\n        /* \"Example_Factory/test.sol\":563:651  function testAdd(address _record) public {... */\n    tag_20:\n        /* \"Example_Factory/test.sol\":614:644  addRecord(abi.encode(_record)) */\n      tag_47\n        /* \"Example_Factory/test.sol\":635:642  _record */\n      dup2\n        /* \"Example_Factory/test.sol\":624:643  abi.encode(_record) */\n      add(0x20, mload(0x40))\n      tag_48\n      swap2\n      swap1\n      tag_26\n      jump\t// in\n    tag_48:\n      mload(0x40)\n      0x20\n      dup2\n      dup4\n      sub\n      sub\n      dup2\n      mstore\n      swap1\n      0x40\n      mstore\n        /* \"Example_Factory/test.sol\":614:623  addRecord */\n      tag_34\n        /* \"Example_Factory/test.sol\":614:644  addRecord(abi.encode(_record)) */\n      jump\t// in\n    tag_47:\n        /* \"Example_Factory/test.sol\":563:651  function testAdd(address _record) public {... */\n      pop\n      jump\t// out\n        /* \"@openzeppelin/contracts/access/Ownable.sol\":2293:2394  function renounceOwnership() public virtual onlyOwner {... */\n    tag_22:\n        /* \"@openzeppelin/contracts/access/Ownable.sol\":1531:1544  _checkOwner() */\n      tag_50\n        /* \"@openzeppelin/contracts/access/Ownable.sol\":1531:1542  _checkOwner */\n      tag_51\n        /* \"@openzeppelin/contracts/access/Ownable.sol\":1531:1544  _checkOwner() */\n      jump\t// in\n    tag_50:\n        /* \"@openzeppelin/contracts/access/Ownable.sol\":2357:2387  _transferOwnership(address(0)) */\n      tag_53\n        /* \"@openzeppelin/contracts/access/Ownable.sol\":2384:2385  0 */\n      0x00\n        /* \"@openzeppelin/contracts/access/Ownable.sol\":2357:2375  _transferOwnership */\n      tag_54\n        /* \"@openzeppelin/contracts/access/Ownable.sol\":2357:2387  _transferOwnership(address(0)) */\n      jump\t// in\n    tag_53:\n        /* \"@openzeppelin/contracts/access/Ownable.sol\":2293:2394  function renounceOwnership() public virtual onlyOwner {... */\n      jump\t// out\n        /* \"@openzeppelin/contracts/access/Ownable.sol\":1638:1723  function owner() public view virtual returns (address) {... */\n    tag_24:\n        /* \"@openzeppelin/contracts/access/Ownable.sol\":1684:1691  address */\n      0x00\n        /* \"@openzeppelin/contracts/access/Ownable.sol\":1710:1716  _owner */\n      dup1\n      0x00\n      swap1\n      sload\n      swap1\n      0x0100\n      exp\n      swap1\n      div\n      0xffffffffffffffffffffffffffffffffffffffff\n      and\n        /* \"@openzeppelin/contracts/access/Ownable.sol\":1703:1716  return _owner */\n      swap1\n      pop\n        /* \"@openzeppelin/contracts/access/Ownable.sol\":1638:1723  function owner() public view virtual returns (address) {... */\n      swap1\n      jump\t// out\n        /* \"Example_Factory/test.sol\":657:785  function decodeRecord(bytes memory data) public returns (address _record){... */\n    tag_30:\n        /* \"Example_Factory/test.sol\":714:729  address _record */\n      0x00\n        /* \"Example_Factory/test.sol\":763:767  data */\n      dup2\n        /* \"Example_Factory/test.sol\":752:778  abi.decode(data,(address)) */\n      dup1\n      0x20\n      add\n      swap1\n      mload\n      dup2\n      add\n      swap1\n      tag_57\n      swap2\n      swap1\n      tag_58\n      jump\t// in\n    tag_57:\n        /* \"Example_Factory/test.sol\":740:778  (_record) = abi.decode(data,(address)) */\n      swap1\n      pop\n        /* \"Example_Factory/test.sol\":657:785  function decodeRecord(bytes memory data) public returns (address _record){... */\n      swap2\n      swap1\n      pop\n      jump\t// out\n        /* \"Example_Factory/test.sol\":264:434  function addRecord(bytes memory _packedrecord) public {... */\n    tag_34:\n        /* \"Example_Factory/test.sol\":400:407  records */\n      0x01\n        /* \"Example_Factory/test.sol\":413:426  _packedrecord */\n      dup2\n        /* \"Example_Factory/test.sol\":400:427  records.push(_packedrecord) */\n      swap1\n      dup1\n      0x01\n      dup2\n      sload\n      add\n      dup1\n      dup3\n      sstore\n      dup1\n      swap2\n      pop\n      pop\n      0x01\n      swap1\n      sub\n      swap1\n      0x00\n      mstore\n      keccak256(0x00, 0x20)\n      add\n      0x00\n      swap1\n      swap2\n      swap1\n      swap2\n      swap1\n      swap2\n      pop\n      swap1\n      dup2\n      tag_61\n      swap2\n      swap1\n      tag_62\n      jump\t// in\n    tag_61:\n      pop\n        /* \"Example_Factory/test.sol\":264:434  function addRecord(bytes memory _packedrecord) public {... */\n      pop\n      jump\t// out\n        /* \"@openzeppelin/contracts/access/Ownable.sol\":2543:2758  function transferOwnership(address newOwner) public virtual onlyOwner {... */\n    tag_37:\n        /* \"@openzeppelin/contracts/access/Ownable.sol\":1531:1544  _checkOwner() */\n      tag_64\n        /* \"@openzeppelin/contracts/access/Ownable.sol\":1531:1542  _checkOwner */\n      tag_51\n        /* \"@openzeppelin/contracts/access/Ownable.sol\":1531:1544  _checkOwner() */\n      jump\t// in\n    tag_64:\n        /* \"@openzeppelin/contracts/access/Ownable.sol\":2647:2648  0 */\n      0x00\n        /* \"@openzeppelin/contracts/access/Ownable.sol\":2627:2649  newOwner == address(0) */\n      0xffffffffffffffffffffffffffffffffffffffff\n      and\n        /* \"@openzeppelin/contracts/access/Ownable.sol\":2627:2635  newOwner */\n      dup2\n        /* \"@openzeppelin/contracts/access/Ownable.sol\":2627:2649  newOwner == address(0) */\n      0xffffffffffffffffffffffffffffffffffffffff\n      and\n      sub\n        /* \"@openzeppelin/contracts/access/Ownable.sol\":2623:2714  if (newOwner == address(0)) {... */\n      tag_66\n      jumpi\n        /* \"@openzeppelin/contracts/access/Ownable.sol\":2700:2701  0 */\n      0x00\n        /* \"@openzeppelin/contracts/access/Ownable.sol\":2672:2703  OwnableInvalidOwner(address(0)) */\n      mload(0x40)\n      0x1e4fbdf700000000000000000000000000000000000000000000000000000000\n      dup2\n      mstore\n      0x04\n      add\n      tag_67\n      swap2\n      swap1\n      tag_26\n      jump\t// in\n    tag_67:\n      mload(0x40)\n      dup1\n      swap2\n      sub\n      swap1\n      revert\n        /* \"@openzeppelin/contracts/access/Ownable.sol\":2623:2714  if (newOwner == address(0)) {... */\n    tag_66:\n        /* \"@openzeppelin/contracts/access/Ownable.sol\":2723:2751  _transferOwnership(newOwner) */\n      tag_68\n        /* \"@openzeppelin/contracts/access/Ownable.sol\":2742:2750  newOwner */\n      dup2\n        /* \"@openzeppelin/contracts/access/Ownable.sol\":2723:2741  _transferOwnership */\n      tag_54\n        /* \"@openzeppelin/contracts/access/Ownable.sol\":2723:2751  _transferOwnership(newOwner) */\n      jump\t// in\n    tag_68:\n        /* \"@openzeppelin/contracts/access/Ownable.sol\":2543:2758  function transferOwnership(address newOwner) public virtual onlyOwner {... */\n      pop\n      jump\t// out\n        /* \"@openzeppelin/contracts/access/Ownable.sol\":1796:1958  function _checkOwner() internal view virtual {... */\n    tag_51:\n        /* \"@openzeppelin/contracts/access/Ownable.sol\":1866:1878  _msgSender() */\n      tag_70\n        /* \"@openzeppelin/contracts/access/Ownable.sol\":1866:1876  _msgSender */\n      tag_71\n        /* \"@openzeppelin/contracts/access/Ownable.sol\":1866:1878  _msgSender() */\n      jump\t// in\n    tag_70:\n        /* \"@openzeppelin/contracts/access/Ownable.sol\":1855:1878  owner() != _msgSender() */\n      0xffffffffffffffffffffffffffffffffffffffff\n      and\n        /* \"@openzeppelin/contracts/access/Ownable.sol\":1855:1862  owner() */\n      tag_72\n        /* \"@openzeppelin/contracts/access/Ownable.sol\":1855:1860  owner */\n      tag_24\n        /* \"@openzeppelin/contracts/access/Ownable.sol\":1855:1862  owner() */\n      jump\t// in\n    tag_72:\n        /* \"@openzeppelin/contracts/access/Ownable.sol\":1855:1878  owner() != _msgSender() */\n      0xffffffffffffffffffffffffffffffffffffffff\n      and\n      eq\n        /* \"@openzeppelin/contracts/access/Ownable.sol\":1851:1952  if (owner() != _msgSender()) {... */\n      tag_73\n      jumpi\n        /* \"@openzeppelin/contracts/access/Ownable.sol\":1928:1940  _msgSender() */\n      tag_74\n        /* \"@openzeppelin/contracts/access/Ownable.sol\":1928:1938  _msgSender */\n      tag_71\n        /* \"@openzeppelin/contracts/access/Ownable.sol\":1928:1940  _msgSender() */\n      jump\t// in\n    tag_74:\n        /* \"@openzeppelin/contracts/access/Ownable.sol\":1901:1941  OwnableUnauthorizedAccount(_msgSender()) */\n      mload(0x40)\n      0x118cdaa700000000000000000000000000000000000000000000000000000000\n      dup2\n      mstore\n      0x04\n      add\n      tag_75\n      swap2\n      swap1\n      tag_26\n      jump\t// in\n    tag_75:\n      mload(0x40)\n      dup1\n      swap2\n      sub\n      swap1\n      revert\n        /* \"@openzeppelin/contracts/access/Ownable.sol\":1851:1952  if (owner() != _msgSender()) {... */\n    tag_73:\n        /* \"@openzeppelin/contracts/access/Ownable.sol\":1796:1958  function _checkOwner() internal view virtual {... */\n      jump\t// out\n        /* \"@openzeppelin/contracts/access/Ownable.sol\":2912:3099  function _transferOwnership(address newOwner) internal virtual {... */\n    tag_54:\n        /* \"@openzeppelin/contracts/access/Ownable.sol\":2985:3001  address oldOwner */\n      0x00\n        /* \"@openzeppelin/contracts/access/Ownable.sol\":3004:3010  _owner */\n      dup1\n      0x00\n      swap1\n      sload\n      swap1\n      0x0100\n      exp\n      swap1\n      div\n      0xffffffffffffffffffffffffffffffffffffffff\n      and\n        /* \"@openzeppelin/contracts/access/Ownable.sol\":2985:3010  address oldOwner = _owner */\n      swap1\n      pop\n        /* \"@openzeppelin/contracts/access/Ownable.sol\":3029:3037  newOwner */\n      dup2\n        /* \"@openzeppelin/contracts/access/Ownable.sol\":3020:3026  _owner */\n      0x00\n      dup1\n        /* \"@openzeppelin/contracts/access/Ownable.sol\":3020:3037  _owner = newOwner */\n      0x0100\n      exp\n      dup2\n      sload\n      dup2\n      0xffffffffffffffffffffffffffffffffffffffff\n      mul\n      not\n      and\n      swap1\n      dup4\n      0xffffffffffffffffffffffffffffffffffffffff\n      and\n      mul\n      or\n      swap1\n      sstore\n      pop\n        /* \"@openzeppelin/contracts/access/Ownable.sol\":3083:3091  newOwner */\n      dup2\n        /* \"@openzeppelin/contracts/access/Ownable.sol\":3052:3092  OwnershipTransferred(oldOwner, newOwner) */\n      0xffffffffffffffffffffffffffffffffffffffff\n      and\n        /* \"@openzeppelin/contracts/access/Ownable.sol\":3073:3081  oldOwner */\n      dup2\n        /* \"@openzeppelin/contracts/access/Ownable.sol\":3052:3092  OwnershipTransferred(oldOwner, newOwner) */\n      0xffffffffffffffffffffffffffffffffffffffff\n      and\n      0x8be0079c531659141344cd1fd0a4f28419497f9722a3daafe3b4186f6b6457e0\n      mload(0x40)\n      mload(0x40)\n      dup1\n      swap2\n      sub\n      swap1\n      log3\n        /* \"@openzeppelin/contracts/access/Ownable.sol\":2975:3099  {... */\n      pop\n        /* \"@openzeppelin/contracts/access/Ownable.sol\":2912:3099  function _transferOwnership(address newOwner) internal virtual {... */\n      pop\n      jump\t// out\n        /* \"@openzeppelin/contracts/utils/Context.sol\":656:752  function _msgSender() internal view virtual returns (address) {... */\n    tag_71:\n        /* \"@openzeppelin/contracts/utils/Context.sol\":709:716  address */\n      0x00\n        /* \"@openzeppelin/contracts/utils/Context.sol\":735:745  msg.sender */\n      caller\n        /* \"@openzeppelin/contracts/utils/Context.sol\":728:745  return msg.sender */\n      swap1\n      pop\n        /* \"@openzeppelin/contracts/utils/Context.sol\":656:752  function _msgSender() internal view virtual returns (address) {... */\n      swap1\n      jump\t// out\n        /* \"#utility.yul\":7:82   */\n    tag_78:\n        /* \"#utility.yul\":40:46   */\n      0x00\n        /* \"#utility.yul\":73:75   */\n      0x40\n        /* \"#utility.yul\":67:76   */\n      mload\n        /* \"#utility.yul\":57:76   */\n      swap1\n      pop\n        /* \"#utility.yul\":7:82   */\n      swap1\n      jump\t// out\n        /* \"#utility.yul\":88:205   */\n    tag_79:\n        /* \"#utility.yul\":197:198   */\n      0x00\n        /* \"#utility.yul\":194:195   */\n      dup1\n        /* \"#utility.yul\":187:199   */\n      revert\n        /* \"#utility.yul\":211:328   */\n    tag_80:\n        /* \"#utility.yul\":320:321   */\n      0x00\n        /* \"#utility.yul\":317:318   */\n      dup1\n        /* \"#utility.yul\":310:322   */\n      revert\n        /* \"#utility.yul\":334:411   */\n    tag_81:\n        /* \"#utility.yul\":371:378   */\n      0x00\n        /* \"#utility.yul\":400:405   */\n      dup2\n        /* \"#utility.yul\":389:405   */\n      swap1\n      pop\n        /* \"#utility.yul\":334:411   */\n      swap2\n      swap1\n      pop\n      jump\t// out\n        /* \"#utility.yul\":417:539   */\n    tag_82:\n        /* \"#utility.yul\":490:514   */\n      tag_128\n        /* \"#utility.yul\":508:513   */\n      dup2\n        /* \"#utility.yul\":490:514   */\n      tag_81\n      jump\t// in\n    tag_128:\n        /* \"#utility.yul\":483:488   */\n      dup2\n        /* \"#utility.yul\":480:515   */\n      eq\n        /* \"#utility.yul\":470:533   */\n      tag_129\n      jumpi\n        /* \"#utility.yul\":529:530   */\n      0x00\n        /* \"#utility.yul\":526:527   */\n      dup1\n        /* \"#utility.yul\":519:531   */\n      revert\n        /* \"#utility.yul\":470:533   */\n    tag_129:\n        /* \"#utility.yul\":417:539   */\n      pop\n      jump\t// out\n        /* \"#utility.yul\":545:684   */\n    tag_83:\n        /* \"#utility.yul\":591:596   */\n      0x00\n        /* \"#utility.yul\":629:635   */\n      dup2\n        /* \"#utility.yul\":616:636   */\n      calldataload\n        /* \"#utility.yul\":607:636   */\n      swap1\n      pop\n        /* \"#utility.yul\":645:678   */\n      tag_131\n        /* \"#utility.yul\":672:677   */\n      dup2\n        /* \"#utility.yul\":645:678   */\n      tag_82\n      jump\t// in\n    tag_131:\n        /* \"#utility.yul\":545:684   */\n      swap3\n      swap2\n      pop\n      pop\n      jump\t// out\n        /* \"#utility.yul\":690:1019   */\n    tag_13:\n        /* \"#utility.yul\":749:755   */\n      0x00\n        /* \"#utility.yul\":798:800   */\n      0x20\n        /* \"#utility.yul\":786:795   */\n      dup3\n        /* \"#utility.yul\":777:784   */\n      dup5\n        /* \"#utility.yul\":773:796   */\n      sub\n        /* \"#utility.yul\":769:801   */\n      slt\n        /* \"#utility.yul\":766:885   */\n      iszero\n      tag_133\n      jumpi\n        /* \"#utility.yul\":804:883   */\n      tag_134\n      tag_79\n      jump\t// in\n    tag_134:\n        /* \"#utility.yul\":766:885   */\n    tag_133:\n        /* \"#utility.yul\":924:925   */\n      0x00\n        /* \"#utility.yul\":949:1002   */\n      tag_135\n        /* \"#utility.yul\":994:1001   */\n      dup5\n        /* \"#utility.yul\":985:991   */\n      dup3\n        /* \"#utility.yul\":974:983   */\n      dup6\n        /* \"#utility.yul\":970:992   */\n      add\n        /* \"#utility.yul\":949:1002   */\n      tag_83\n      jump\t// in\n    tag_135:\n        /* \"#utility.yul\":939:1002   */\n      swap2\n      pop\n        /* \"#utility.yul\":895:1012   */\n      pop\n        /* \"#utility.yul\":690:1019   */\n      swap3\n      swap2\n      pop\n      pop\n      jump\t// out\n        /* \"#utility.yul\":1025:1123   */\n    tag_84:\n        /* \"#utility.yul\":1076:1082   */\n      0x00\n        /* \"#utility.yul\":1110:1115   */\n      dup2\n        /* \"#utility.yul\":1104:1116   */\n      mload\n        /* \"#utility.yul\":1094:1116   */\n      swap1\n      pop\n        /* \"#utility.yul\":1025:1123   */\n      swap2\n      swap1\n      pop\n      jump\t// out\n        /* \"#utility.yul\":1129:1297   */\n    tag_85:\n        /* \"#utility.yul\":1212:1223   */\n      0x00\n        /* \"#utility.yul\":1246:1252   */\n      dup3\n        /* \"#utility.yul\":1241:1244   */\n      dup3\n        /* \"#utility.yul\":1234:1253   */\n      mstore\n        /* \"#utility.yul\":1286:1290   */\n      0x20\n        /* \"#utility.yul\":1281:1284   */\n      dup3\n        /* \"#utility.yul\":1277:1291   */\n      add\n        /* \"#utility.yul\":1262:1291   */\n      swap1\n      pop\n        /* \"#utility.yul\":1129:1297   */\n      swap3\n      swap2\n      pop\n      pop\n      jump\t// out\n        /* \"#utility.yul\":1303:1442   */\n    tag_86:\n        /* \"#utility.yul\":1392:1398   */\n      dup3\n        /* \"#utility.yul\":1387:1390   */\n      dup2\n        /* \"#utility.yul\":1382:1385   */\n      dup4\n        /* \"#utility.yul\":1376:1399   */\n      mcopy\n        /* \"#utility.yul\":1433:1434   */\n      0x00\n        /* \"#utility.yul\":1424:1430   */\n      dup4\n        /* \"#utility.yul\":1419:1422   */\n      dup4\n        /* \"#utility.yul\":1415:1431   */\n      add\n        /* \"#utility.yul\":1408:1435   */\n      mstore\n        /* \"#utility.yul\":1303:1442   */\n      pop\n      pop\n      pop\n      jump\t// out\n        /* \"#utility.yul\":1448:1550   */\n    tag_87:\n        /* \"#utility.yul\":1489:1495   */\n      0x00\n        /* \"#utility.yul\":1540:1542   */\n      0x1f\n        /* \"#utility.yul\":1536:1543   */\n      not\n        /* \"#utility.yul\":1531:1533   */\n      0x1f\n        /* \"#utility.yul\":1524:1529   */\n      dup4\n        /* \"#utility.yul\":1520:1534   */\n      add\n        /* \"#utility.yul\":1516:1544   */\n      and\n        /* \"#utility.yul\":1506:1544   */\n      swap1\n      pop\n        /* \"#utility.yul\":1448:1550   */\n      swap2\n      swap1\n      pop\n      jump\t// out\n        /* \"#utility.yul\":1556:1929   */\n    tag_88:\n        /* \"#utility.yul\":1642:1645   */\n      0x00\n        /* \"#utility.yul\":1670:1708   */\n      tag_141\n        /* \"#utility.yul\":1702:1707   */\n      dup3\n        /* \"#utility.yul\":1670:1708   */\n      tag_84\n      jump\t// in\n    tag_141:\n        /* \"#utility.yul\":1724:1794   */\n      tag_142\n        /* \"#utility.yul\":1787:1793   */\n      dup2\n        /* \"#utility.yul\":1782:1785   */\n      dup6\n        /* \"#utility.yul\":1724:1794   */\n      tag_85\n      jump\t// in\n    tag_142:\n        /* \"#utility.yul\":1717:1794   */\n      swap4\n      pop\n        /* \"#utility.yul\":1803:1868   */\n      tag_143\n        /* \"#utility.yul\":1861:1867   */\n      dup2\n        /* \"#utility.yul\":1856:1859   */\n      dup6\n        /* \"#utility.yul\":1849:1853   */\n      0x20\n        /* \"#utility.yul\":1842:1847   */\n      dup7\n        /* \"#utility.yul\":1838:1854   */\n      add\n        /* \"#utility.yul\":1803:1868   */\n      tag_86\n      jump\t// in\n    tag_143:\n        /* \"#utility.yul\":1893:1922   */\n      tag_144\n        /* \"#utility.yul\":1915:1921   */\n      dup2\n        /* \"#utility.yul\":1893:1922   */\n      tag_87\n      jump\t// in\n    tag_144:\n        /* \"#utility.yul\":1888:1891   */\n      dup5\n        /* \"#utility.yul\":1884:1923   */\n      add\n        /* \"#utility.yul\":1877:1923   */\n      swap2\n      pop\n        /* \"#utility.yul\":1646:1929   */\n      pop\n        /* \"#utility.yul\":1556:1929   */\n      swap3\n      swap2\n      pop\n      pop\n      jump\t// out\n        /* \"#utility.yul\":1935:2244   */\n    tag_16:\n        /* \"#utility.yul\":2046:2050   */\n      0x00\n        /* \"#utility.yul\":2084:2086   */\n      0x20\n        /* \"#utility.yul\":2073:2082   */\n      dup3\n        /* \"#utility.yul\":2069:2087   */\n      add\n        /* \"#utility.yul\":2061:2087   */\n      swap1\n      pop\n        /* \"#utility.yul\":2133:2142   */\n      dup2\n        /* \"#utility.yul\":2127:2131   */\n      dup2\n        /* \"#utility.yul\":2123:2143   */\n      sub\n        /* \"#utility.yul\":2119:2120   */\n      0x00\n        /* \"#utility.yul\":2108:2117   */\n      dup4\n        /* \"#utility.yul\":2104:2121   */\n      add\n        /* \"#utility.yul\":2097:2144   */\n      mstore\n        /* \"#utility.yul\":2161:2237   */\n      tag_146\n        /* \"#utility.yul\":2232:2236   */\n      dup2\n        /* \"#utility.yul\":2223:2229   */\n      dup5\n        /* \"#utility.yul\":2161:2237   */\n      tag_88\n      jump\t// in\n    tag_146:\n        /* \"#utility.yul\":2153:2237   */\n      swap1\n      pop\n        /* \"#utility.yul\":1935:2244   */\n      swap3\n      swap2\n      pop\n      pop\n      jump\t// out\n        /* \"#utility.yul\":2250:2376   */\n    tag_89:\n        /* \"#utility.yul\":2287:2294   */\n      0x00\n        /* \"#utility.yul\":2327:2369   */\n      0xffffffffffffffffffffffffffffffffffffffff\n        /* \"#utility.yul\":2320:2325   */\n      dup3\n        /* \"#utility.yul\":2316:2370   */\n      and\n        /* \"#utility.yul\":2305:2370   */\n      swap1\n      pop\n        /* \"#utility.yul\":2250:2376   */\n      swap2\n      swap1\n      pop\n      jump\t// out\n        /* \"#utility.yul\":2382:2478   */\n    tag_90:\n        /* \"#utility.yul\":2419:2426   */\n      0x00\n        /* \"#utility.yul\":2448:2472   */\n      tag_149\n        /* \"#utility.yul\":2466:2471   */\n      dup3\n        /* \"#utility.yul\":2448:2472   */\n      tag_89\n      jump\t// in\n    tag_149:\n        /* \"#utility.yul\":2437:2472   */\n      swap1\n      pop\n        /* \"#utility.yul\":2382:2478   */\n      swap2\n      swap1\n      pop\n      jump\t// out\n        /* \"#utility.yul\":2484:2606   */\n    tag_91:\n        /* \"#utility.yul\":2557:2581   */\n      tag_151\n        /* \"#utility.yul\":2575:2580   */\n      dup2\n        /* \"#utility.yul\":2557:2581   */\n      tag_90\n      jump\t// in\n    tag_151:\n        /* \"#utility.yul\":2550:2555   */\n      dup2\n        /* \"#utility.yul\":2547:2582   */\n      eq\n        /* \"#utility.yul\":2537:2600   */\n      tag_152\n      jumpi\n        /* \"#utility.yul\":2596:2597   */\n      0x00\n        /* \"#utility.yul\":2593:2594   */\n      dup1\n        /* \"#utility.yul\":2586:2598   */\n      revert\n        /* \"#utility.yul\":2537:2600   */\n    tag_152:\n        /* \"#utility.yul\":2484:2606   */\n      pop\n      jump\t// out\n        /* \"#utility.yul\":2612:2751   */\n    tag_92:\n        /* \"#utility.yul\":2658:2663   */\n      0x00\n        /* \"#utility.yul\":2696:2702   */\n      dup2\n        /* \"#utility.yul\":2683:2703   */\n      calldataload\n        /* \"#utility.yul\":2674:2703   */\n      swap1\n      pop\n        /* \"#utility.yul\":2712:2745   */\n      tag_154\n        /* \"#utility.yul\":2739:2744   */\n      dup2\n        /* \"#utility.yul\":2712:2745   */\n      tag_91\n      jump\t// in\n    tag_154:\n        /* \"#utility.yul\":2612:2751   */\n      swap3\n      swap2\n      pop\n      pop\n      jump\t// out\n        /* \"#utility.yul\":2757:3086   */\n    tag_19:\n        /* \"#utility.yul\":2816:2822   */\n      0x00\n        /* \"#utility.yul\":2865:2867   */\n      0x20\n        /* \"#utility.yul\":2853:2862   */\n      dup3\n        /* \"#utility.yul\":2844:2851   */\n      dup5\n        /* \"#utility.yul\":2840:2863   */\n      sub\n        /* \"#utility.yul\":2836:2868   */\n      slt\n        /* \"#utility.yul\":2833:2952   */\n      iszero\n      tag_156\n      jumpi\n        /* \"#utility.yul\":2871:2950   */\n      tag_157\n      tag_79\n      jump\t// in\n    tag_157:\n        /* \"#utility.yul\":2833:2952   */\n    tag_156:\n        /* \"#utility.yul\":2991:2992   */\n      0x00\n        /* \"#utility.yul\":3016:3069   */\n      tag_158\n        /* \"#utility.yul\":3061:3068   */\n      dup5\n        /* \"#utility.yul\":3052:3058   */\n      dup3\n        /* \"#utility.yul\":3041:3050   */\n      dup6\n        /* \"#utility.yul\":3037:3059   */\n      add\n        /* \"#utility.yul\":3016:3069   */\n      tag_92\n      jump\t// in\n    tag_158:\n        /* \"#utility.yul\":3006:3069   */\n      swap2\n      pop\n        /* \"#utility.yul\":2962:3079   */\n      pop\n        /* \"#utility.yul\":2757:3086   */\n      swap3\n      swap2\n      pop\n      pop\n      jump\t// out\n        /* \"#utility.yul\":3092:3210   */\n    tag_93:\n        /* \"#utility.yul\":3179:3203   */\n      tag_160\n        /* \"#utility.yul\":3197:3202   */\n      dup2\n        /* \"#utility.yul\":3179:3203   */\n      tag_90\n      jump\t// in\n    tag_160:\n        /* \"#utility.yul\":3174:3177   */\n      dup3\n        /* \"#utility.yul\":3167:3204   */\n      mstore\n        /* \"#utility.yul\":3092:3210   */\n      pop\n      pop\n      jump\t// out\n        /* \"#utility.yul\":3216:3438   */\n    tag_26:\n        /* \"#utility.yul\":3309:3313   */\n      0x00\n        /* \"#utility.yul\":3347:3349   */\n      0x20\n        /* \"#utility.yul\":3336:3345   */\n      dup3\n        /* \"#utility.yul\":3332:3350   */\n      add\n        /* \"#utility.yul\":3324:3350   */\n      swap1\n      pop\n        /* \"#utility.yul\":3360:3431   */\n      tag_162\n        /* \"#utility.yul\":3428:3429   */\n      0x00\n        /* \"#utility.yul\":3417:3426   */\n      dup4\n        /* \"#utility.yul\":3413:3430   */\n      add\n        /* \"#utility.yul\":3404:3410   */\n      dup5\n        /* \"#utility.yul\":3360:3431   */\n      tag_93\n      jump\t// in\n    tag_162:\n        /* \"#utility.yul\":3216:3438   */\n      swap3\n      swap2\n      pop\n      pop\n      jump\t// out\n        /* \"#utility.yul\":3444:3561   */\n    tag_94:\n        /* \"#utility.yul\":3553:3554   */\n      0x00\n        /* \"#utility.yul\":3550:3551   */\n      dup1\n        /* \"#utility.yul\":3543:3555   */\n      revert\n        /* \"#utility.yul\":3567:3684   */\n    tag_95:\n        /* \"#utility.yul\":3676:3677   */\n      0x00\n        /* \"#utility.yul\":3673:3674   */\n      dup1\n        /* \"#utility.yul\":3666:3678   */\n      revert\n        /* \"#utility.yul\":3690:3870   */\n    tag_96:\n        /* \"#utility.yul\":3738:3815   */\n      0x4e487b7100000000000000000000000000000000000000000000000000000000\n        /* \"#utility.yul\":3735:3736   */\n      0x00\n        /* \"#utility.yul\":3728:3816   */\n      mstore\n        /* \"#utility.yul\":3835:3839   */\n      0x41\n        /* \"#utility.yul\":3832:3833   */\n      0x04\n        /* \"#utility.yul\":3825:3840   */\n      mstore\n        /* \"#utility.yul\":3859:3863   */\n      0x24\n        /* \"#utility.yul\":3856:3857   */\n      0x00\n        /* \"#utility.yul\":3849:3864   */\n      revert\n        /* \"#utility.yul\":3876:4157   */\n    tag_97:\n        /* \"#utility.yul\":3959:3986   */\n      tag_167\n        /* \"#utility.yul\":3981:3985   */\n      dup3\n        /* \"#utility.yul\":3959:3986   */\n      tag_87\n      jump\t// in\n    tag_167:\n        /* \"#utility.yul\":3951:3957   */\n      dup2\n        /* \"#utility.yul\":3947:3987   */\n      add\n        /* \"#utility.yul\":4089:4095   */\n      dup2\n        /* \"#utility.yul\":4077:4087   */\n      dup2\n        /* \"#utility.yul\":4074:4096   */\n      lt\n        /* \"#utility.yul\":4053:4071   */\n      0xffffffffffffffff\n        /* \"#utility.yul\":4041:4051   */\n      dup3\n        /* \"#utility.yul\":4038:4072   */\n      gt\n        /* \"#utility.yul\":4035:4097   */\n      or\n        /* \"#utility.yul\":4032:4120   */\n      iszero\n      tag_168\n      jumpi\n        /* \"#utility.yul\":4100:4118   */\n      tag_169\n      tag_96\n      jump\t// in\n    tag_169:\n        /* \"#utility.yul\":4032:4120   */\n    tag_168:\n        /* \"#utility.yul\":4140:4150   */\n      dup1\n        /* \"#utility.yul\":4136:4138   */\n      0x40\n        /* \"#utility.yul\":4129:4151   */\n      mstore\n        /* \"#utility.yul\":3919:4157   */\n      pop\n        /* \"#utility.yul\":3876:4157   */\n      pop\n      pop\n      jump\t// out\n        /* \"#utility.yul\":4163:4292   */\n    tag_98:\n        /* \"#utility.yul\":4197:4203   */\n      0x00\n        /* \"#utility.yul\":4224:4244   */\n      tag_171\n      tag_78\n      jump\t// in\n    tag_171:\n        /* \"#utility.yul\":4214:4244   */\n      swap1\n      pop\n        /* \"#utility.yul\":4253:4286   */\n      tag_172\n        /* \"#utility.yul\":4281:4285   */\n      dup3\n        /* \"#utility.yul\":4273:4279   */\n      dup3\n        /* \"#utility.yul\":4253:4286   */\n      tag_97\n      jump\t// in\n    tag_172:\n        /* \"#utility.yul\":4163:4292   */\n      swap2\n      swap1\n      pop\n      jump\t// out\n        /* \"#utility.yul\":4298:4605   */\n    tag_99:\n        /* \"#utility.yul\":4359:4363   */\n      0x00\n        /* \"#utility.yul\":4449:4467   */\n      0xffffffffffffffff\n        /* \"#utility.yul\":4441:4447   */\n      dup3\n        /* \"#utility.yul\":4438:4468   */\n      gt\n        /* \"#utility.yul\":4435:4491   */\n      iszero\n      tag_174\n      jumpi\n        /* \"#utility.yul\":4471:4489   */\n      tag_175\n      tag_96\n      jump\t// in\n    tag_175:\n        /* \"#utility.yul\":4435:4491   */\n    tag_174:\n        /* \"#utility.yul\":4509:4538   */\n      tag_176\n        /* \"#utility.yul\":4531:4537   */\n      dup3\n        /* \"#utility.yul\":4509:4538   */\n      tag_87\n      jump\t// in\n    tag_176:\n        /* \"#utility.yul\":4501:4538   */\n      swap1\n      pop\n        /* \"#utility.yul\":4593:4597   */\n      0x20\n        /* \"#utility.yul\":4587:4591   */\n      dup2\n        /* \"#utility.yul\":4583:4598   */\n      add\n        /* \"#utility.yul\":4575:4598   */\n      swap1\n      pop\n        /* \"#utility.yul\":4298:4605   */\n      swap2\n      swap1\n      pop\n      jump\t// out\n        /* \"#utility.yul\":4611:4759   */\n    tag_100:\n        /* \"#utility.yul\":4709:4715   */\n      dup3\n        /* \"#utility.yul\":4704:4707   */\n      dup2\n        /* \"#utility.yul\":4699:4702   */\n      dup4\n        /* \"#utility.yul\":4686:4716   */\n      calldatacopy\n        /* \"#utility.yul\":4750:4751   */\n      0x00\n        /* \"#utility.yul\":4741:4747   */\n      dup4\n        /* \"#utility.yul\":4736:4739   */\n      dup4\n        /* \"#utility.yul\":4732:4748   */\n      add\n        /* \"#utility.yul\":4725:4752   */\n      mstore\n        /* \"#utility.yul\":4611:4759   */\n      pop\n      pop\n      pop\n      jump\t// out\n        /* \"#utility.yul\":4765:5188   */\n    tag_101:\n        /* \"#utility.yul\":4842:4847   */\n      0x00\n        /* \"#utility.yul\":4867:4932   */\n      tag_179\n        /* \"#utility.yul\":4883:4931   */\n      tag_180\n        /* \"#utility.yul\":4924:4930   */\n      dup5\n        /* \"#utility.yul\":4883:4931   */\n      tag_99\n      jump\t// in\n    tag_180:\n        /* \"#utility.yul\":4867:4932   */\n      tag_98\n      jump\t// in\n    tag_179:\n        /* \"#utility.yul\":4858:4932   */\n      swap1\n      pop\n        /* \"#utility.yul\":4955:4961   */\n      dup3\n        /* \"#utility.yul\":4948:4953   */\n      dup2\n        /* \"#utility.yul\":4941:4962   */\n      mstore\n        /* \"#utility.yul\":4993:4997   */\n      0x20\n        /* \"#utility.yul\":4986:4991   */\n      dup2\n        /* \"#utility.yul\":4982:4998   */\n      add\n        /* \"#utility.yul\":5031:5034   */\n      dup5\n        /* \"#utility.yul\":5022:5028   */\n      dup5\n        /* \"#utility.yul\":5017:5020   */\n      dup5\n        /* \"#utility.yul\":5013:5029   */\n      add\n        /* \"#utility.yul\":5010:5035   */\n      gt\n        /* \"#utility.yul\":5007:5119   */\n      iszero\n      tag_181\n      jumpi\n        /* \"#utility.yul\":5038:5117   */\n      tag_182\n      tag_95\n      jump\t// in\n    tag_182:\n        /* \"#utility.yul\":5007:5119   */\n    tag_181:\n        /* \"#utility.yul\":5128:5182   */\n      tag_183\n        /* \"#utility.yul\":5175:5181   */\n      dup5\n        /* \"#utility.yul\":5170:5173   */\n      dup3\n        /* \"#utility.yul\":5165:5168   */\n      dup6\n        /* \"#utility.yul\":5128:5182   */\n      tag_100\n      jump\t// in\n    tag_183:\n        /* \"#utility.yul\":4848:5188   */\n      pop\n        /* \"#utility.yul\":4765:5188   */\n      swap4\n      swap3\n      pop\n      pop\n      pop\n      jump\t// out\n        /* \"#utility.yul\":5207:5545   */\n    tag_102:\n        /* \"#utility.yul\":5262:5267   */\n      0x00\n        /* \"#utility.yul\":5311:5314   */\n      dup3\n        /* \"#utility.yul\":5304:5308   */\n      0x1f\n        /* \"#utility.yul\":5296:5302   */\n      dup4\n        /* \"#utility.yul\":5292:5309   */\n      add\n        /* \"#utility.yul\":5288:5315   */\n      slt\n        /* \"#utility.yul\":5278:5400   */\n      tag_185\n      jumpi\n        /* \"#utility.yul\":5319:5398   */\n      tag_186\n      tag_94\n      jump\t// in\n    tag_186:\n        /* \"#utility.yul\":5278:5400   */\n    tag_185:\n        /* \"#utility.yul\":5436:5442   */\n      dup2\n        /* \"#utility.yul\":5423:5443   */\n      calldataload\n        /* \"#utility.yul\":5461:5539   */\n      tag_187\n        /* \"#utility.yul\":5535:5538   */\n      dup5\n        /* \"#utility.yul\":5527:5533   */\n      dup3\n        /* \"#utility.yul\":5520:5524   */\n      0x20\n        /* \"#utility.yul\":5512:5518   */\n      dup7\n        /* \"#utility.yul\":5508:5525   */\n      add\n        /* \"#utility.yul\":5461:5539   */\n      tag_101\n      jump\t// in\n    tag_187:\n        /* \"#utility.yul\":5452:5539   */\n      swap2\n      pop\n        /* \"#utility.yul\":5268:5545   */\n      pop\n        /* \"#utility.yul\":5207:5545   */\n      swap3\n      swap2\n      pop\n      pop\n      jump\t// out\n        /* \"#utility.yul\":5551:6058   */\n    tag_29:\n        /* \"#utility.yul\":5619:5625   */\n      0x00\n        /* \"#utility.yul\":5668:5670   */\n      0x20\n        /* \"#utility.yul\":5656:5665   */\n      dup3\n        /* \"#utility.yul\":5647:5654   */\n      dup5\n        /* \"#utility.yul\":5643:5666   */\n      sub\n        /* \"#utility.yul\":5639:5671   */\n      slt\n        /* \"#utility.yul\":5636:5755   */\n      iszero\n      tag_189\n      jumpi\n        /* \"#utility.yul\":5674:5753   */\n      tag_190\n      tag_79\n      jump\t// in\n    tag_190:\n        /* \"#utility.yul\":5636:5755   */\n    tag_189:\n        /* \"#utility.yul\":5822:5823   */\n      0x00\n        /* \"#utility.yul\":5811:5820   */\n      dup3\n        /* \"#utility.yul\":5807:5824   */\n      add\n        /* \"#utility.yul\":5794:5825   */\n      calldataload\n        /* \"#utility.yul\":5852:5870   */\n      0xffffffffffffffff\n        /* \"#utility.yul\":5844:5850   */\n      dup2\n        /* \"#utility.yul\":5841:5871   */\n      gt\n        /* \"#utility.yul\":5838:5955   */\n      iszero\n      tag_191\n      jumpi\n        /* \"#utility.yul\":5874:5953   */\n      tag_192\n      tag_80\n      jump\t// in\n    tag_192:\n        /* \"#utility.yul\":5838:5955   */\n    tag_191:\n        /* \"#utility.yul\":5979:6041   */\n      tag_193\n        /* \"#utility.yul\":6033:6040   */\n      dup5\n        /* \"#utility.yul\":6024:6030   */\n      dup3\n        /* \"#utility.yul\":6013:6022   */\n      dup6\n        /* \"#utility.yul\":6009:6031   */\n      add\n        /* \"#utility.yul\":5979:6041   */\n      tag_102\n      jump\t// in\n    tag_193:\n        /* \"#utility.yul\":5969:6041   */\n      swap2\n      pop\n        /* \"#utility.yul\":5765:6051   */\n      pop\n        /* \"#utility.yul\":5551:6058   */\n      swap3\n      swap2\n      pop\n      pop\n      jump\t// out\n        /* \"#utility.yul\":6064:6244   */\n    tag_103:\n        /* \"#utility.yul\":6112:6189   */\n      0x4e487b7100000000000000000000000000000000000000000000000000000000\n        /* \"#utility.yul\":6109:6110   */\n      0x00\n        /* \"#utility.yul\":6102:6190   */\n      mstore\n        /* \"#utility.yul\":6209:6213   */\n      0x22\n        /* \"#utility.yul\":6206:6207   */\n      0x04\n        /* \"#utility.yul\":6199:6214   */\n      mstore\n        /* \"#utility.yul\":6233:6237   */\n      0x24\n        /* \"#utility.yul\":6230:6231   */\n      0x00\n        /* \"#utility.yul\":6223:6238   */\n      revert\n        /* \"#utility.yul\":6250:6570   */\n    tag_41:\n        /* \"#utility.yul\":6294:6300   */\n      0x00\n        /* \"#utility.yul\":6331:6332   */\n      0x02\n        /* \"#utility.yul\":6325:6329   */\n      dup3\n        /* \"#utility.yul\":6321:6333   */\n      div\n        /* \"#utility.yul\":6311:6333   */\n      swap1\n      pop\n        /* \"#utility.yul\":6378:6379   */\n      0x01\n        /* \"#utility.yul\":6372:6376   */\n      dup3\n        /* \"#utility.yul\":6368:6380   */\n      and\n        /* \"#utility.yul\":6399:6417   */\n      dup1\n        /* \"#utility.yul\":6389:6470   */\n      tag_196\n      jumpi\n        /* \"#utility.yul\":6455:6459   */\n      0x7f\n        /* \"#utility.yul\":6447:6453   */\n      dup3\n        /* \"#utility.yul\":6443:6460   */\n      and\n        /* \"#utility.yul\":6433:6460   */\n      swap2\n      pop\n        /* \"#utility.yul\":6389:6470   */\n    tag_196:\n        /* \"#utility.yul\":6517:6519   */\n      0x20\n        /* \"#utility.yul\":6509:6515   */\n      dup3\n        /* \"#utility.yul\":6506:6520   */\n      lt\n        /* \"#utility.yul\":6486:6504   */\n      dup2\n        /* \"#utility.yul\":6483:6521   */\n      sub\n        /* \"#utility.yul\":6480:6564   */\n      tag_197\n      jumpi\n        /* \"#utility.yul\":6536:6554   */\n      tag_198\n      tag_103\n      jump\t// in\n    tag_198:\n        /* \"#utility.yul\":6480:6564   */\n    tag_197:\n        /* \"#utility.yul\":6301:6570   */\n      pop\n        /* \"#utility.yul\":6250:6570   */\n      swap2\n      swap1\n      pop\n      jump\t// out\n        /* \"#utility.yul\":6576:6680   */\n    tag_104:\n        /* \"#utility.yul\":6621:6628   */\n      0x00\n        /* \"#utility.yul\":6650:6674   */\n      tag_200\n        /* \"#utility.yul\":6668:6673   */\n      dup3\n        /* \"#utility.yul\":6650:6674   */\n      tag_89\n      jump\t// in\n    tag_200:\n        /* \"#utility.yul\":6639:6674   */\n      swap1\n      pop\n        /* \"#utility.yul\":6576:6680   */\n      swap2\n      swap1\n      pop\n      jump\t// out\n        /* \"#utility.yul\":6686:6824   */\n    tag_105:\n        /* \"#utility.yul\":6767:6799   */\n      tag_202\n        /* \"#utility.yul\":6793:6798   */\n      dup2\n        /* \"#utility.yul\":6767:6799   */\n      tag_104\n      jump\t// in\n    tag_202:\n        /* \"#utility.yul\":6760:6765   */\n      dup2\n        /* \"#utility.yul\":6757:6800   */\n      eq\n        /* \"#utility.yul\":6747:6818   */\n      tag_203\n      jumpi\n        /* \"#utility.yul\":6814:6815   */\n      0x00\n        /* \"#utility.yul\":6811:6812   */\n      dup1\n        /* \"#utility.yul\":6804:6816   */\n      revert\n        /* \"#utility.yul\":6747:6818   */\n    tag_203:\n        /* \"#utility.yul\":6686:6824   */\n      pop\n      jump\t// out\n        /* \"#utility.yul\":6830:6989   */\n    tag_106:\n        /* \"#utility.yul\":6895:6900   */\n      0x00\n        /* \"#utility.yul\":6926:6932   */\n      dup2\n        /* \"#utility.yul\":6920:6933   */\n      mload\n        /* \"#utility.yul\":6911:6933   */\n      swap1\n      pop\n        /* \"#utility.yul\":6942:6983   */\n      tag_205\n        /* \"#utility.yul\":6977:6982   */\n      dup2\n        /* \"#utility.yul\":6942:6983   */\n      tag_105\n      jump\t// in\n    tag_205:\n        /* \"#utility.yul\":6830:6989   */\n      swap3\n      swap2\n      pop\n      pop\n      jump\t// out\n        /* \"#utility.yul\":6995:7362   */\n    tag_58:\n        /* \"#utility.yul\":7073:7079   */\n      0x00\n        /* \"#utility.yul\":7122:7124   */\n      0x20\n        /* \"#utility.yul\":7110:7119   */\n      dup3\n        /* \"#utility.yul\":7101:7108   */\n      dup5\n        /* \"#utility.yul\":7097:7120   */\n      sub\n        /* \"#utility.yul\":7093:7125   */\n      slt\n        /* \"#utility.yul\":7090:7209   */\n      iszero\n      tag_207\n      jumpi\n        /* \"#utility.yul\":7128:7207   */\n      tag_208\n      tag_79\n      jump\t// in\n    tag_208:\n        /* \"#utility.yul\":7090:7209   */\n    tag_207:\n        /* \"#utility.yul\":7248:7249   */\n      0x00\n        /* \"#utility.yul\":7273:7345   */\n      tag_209\n        /* \"#utility.yul\":7337:7344   */\n      dup5\n        /* \"#utility.yul\":7328:7334   */\n      dup3\n        /* \"#utility.yul\":7317:7326   */\n      dup6\n        /* \"#utility.yul\":7313:7335   */\n      add\n        /* \"#utility.yul\":7273:7345   */\n      tag_106\n      jump\t// in\n    tag_209:\n        /* \"#utility.yul\":7263:7345   */\n      swap2\n      pop\n        /* \"#utility.yul\":7219:7355   */\n      pop\n        /* \"#utility.yul\":6995:7362   */\n      swap3\n      swap2\n      pop\n      pop\n      jump\t// out\n        /* \"#utility.yul\":7368:7508   */\n    tag_107:\n        /* \"#utility.yul\":7416:7420   */\n      0x00\n        /* \"#utility.yul\":7439:7442   */\n      dup2\n        /* \"#utility.yul\":7431:7442   */\n      swap1\n      pop\n        /* \"#utility.yul\":7462:7465   */\n      dup2\n        /* \"#utility.yul\":7459:7460   */\n      0x00\n        /* \"#utility.yul\":7452:7466   */\n      mstore\n        /* \"#utility.yul\":7496:7500   */\n      0x20\n        /* \"#utility.yul\":7493:7494   */\n      0x00\n        /* \"#utility.yul\":7483:7501   */\n      keccak256\n        /* \"#utility.yul\":7475:7501   */\n      swap1\n      pop\n        /* \"#utility.yul\":7368:7508   */\n      swap2\n      swap1\n      pop\n      jump\t// out\n        /* \"#utility.yul\":7514:7607   */\n    tag_108:\n        /* \"#utility.yul\":7551:7557   */\n      0x00\n        /* \"#utility.yul\":7598:7600   */\n      0x20\n        /* \"#utility.yul\":7593:7595   */\n      0x1f\n        /* \"#utility.yul\":7586:7591   */\n      dup4\n        /* \"#utility.yul\":7582:7596   */\n      add\n        /* \"#utility.yul\":7578:7601   */\n      div\n        /* \"#utility.yul\":7568:7601   */\n      swap1\n      pop\n        /* \"#utility.yul\":7514:7607   */\n      swap2\n      swap1\n      pop\n      jump\t// out\n        /* \"#utility.yul\":7613:7720   */\n    tag_109:\n        /* \"#utility.yul\":7657:7665   */\n      0x00\n        /* \"#utility.yul\":7707:7712   */\n      dup3\n        /* \"#utility.yul\":7701:7705   */\n      dup3\n        /* \"#utility.yul\":7697:7713   */\n      shl\n        /* \"#utility.yul\":7676:7713   */\n      swap1\n      pop\n        /* \"#utility.yul\":7613:7720   */\n      swap3\n      swap2\n      pop\n      pop\n      jump\t// out\n        /* \"#utility.yul\":7726:8119   */\n    tag_110:\n        /* \"#utility.yul\":7795:7801   */\n      0x00\n        /* \"#utility.yul\":7845:7846   */\n      0x08\n        /* \"#utility.yul\":7833:7843   */\n      dup4\n        /* \"#utility.yul\":7829:7847   */\n      mul\n        /* \"#utility.yul\":7868:7965   */\n      tag_214\n        /* \"#utility.yul\":7898:7964   */\n      0xffffffffffffffffffffffffffffffffffffffffffffffffffffffffffffffff\n        /* \"#utility.yul\":7887:7896   */\n      dup3\n        /* \"#utility.yul\":7868:7965   */\n      tag_109\n      jump\t// in\n    tag_214:\n        /* \"#utility.yul\":7986:8025   */\n      tag_215\n        /* \"#utility.yul\":8016:8024   */\n      dup7\n        /* \"#utility.yul\":8005:8014   */\n      dup4\n        /* \"#utility.yul\":7986:8025   */\n      tag_109\n      jump\t// in\n    tag_215:\n        /* \"#utility.yul\":7974:8025   */\n      swap6\n      pop\n        /* \"#utility.yul\":8058:8062   */\n      dup1\n        /* \"#utility.yul\":8054:8063   */\n      not\n        /* \"#utility.yul\":8047:8052   */\n      dup5\n        /* \"#utility.yul\":8043:8064   */\n      and\n        /* \"#utility.yul\":8034:8064   */\n      swap4\n      pop\n        /* \"#utility.yul\":8107:8111   */\n      dup1\n        /* \"#utility.yul\":8097:8105   */\n      dup7\n        /* \"#utility.yul\":8093:8112   */\n      and\n        /* \"#utility.yul\":8086:8091   */\n      dup5\n        /* \"#utility.yul\":8083:8113   */\n      or\n        /* \"#utility.yul\":8073:8113   */\n      swap3\n      pop\n        /* \"#utility.yul\":7802:8119   */\n      pop\n      pop\n        /* \"#utility.yul\":7726:8119   */\n      swap4\n      swap3\n      pop\n      pop\n      pop\n      jump\t// out\n        /* \"#utility.yul\":8125:8185   */\n    tag_111:\n        /* \"#utility.yul\":8153:8156   */\n      0x00\n        /* \"#utility.yul\":8174:8179   */\n      dup2\n        /* \"#utility.yul\":8167:8179   */\n      swap1\n      pop\n        /* \"#utility.yul\":8125:8185   */\n      swap2\n      swap1\n      pop\n      jump\t// out\n        /* \"#utility.yul\":8191:8333   */\n    tag_112:\n        /* \"#utility.yul\":8241:8250   */\n      0x00\n        /* \"#utility.yul\":8274:8327   */\n      tag_218\n        /* \"#utility.yul\":8292:8326   */\n      tag_219\n        /* \"#utility.yul\":8301:8325   */\n      tag_220\n        /* \"#utility.yul\":8319:8324   */\n      dup5\n        /* \"#utility.yul\":8301:8325   */\n      tag_81\n      jump\t// in\n    tag_220:\n        /* \"#utility.yul\":8292:8326   */\n      tag_111\n      jump\t// in\n    tag_219:\n        /* \"#utility.yul\":8274:8327   */\n      tag_81\n      jump\t// in\n    tag_218:\n        /* \"#utility.yul\":8261:8327   */\n      swap1\n      pop\n        /* \"#utility.yul\":8191:8333   */\n      swap2\n      swap1\n      pop\n      jump\t// out\n        /* \"#utility.yul\":8339:8414   */\n    tag_113:\n        /* \"#utility.yul\":8382:8385   */\n      0x00\n        /* \"#utility.yul\":8403:8408   */\n      dup2\n        /* \"#utility.yul\":8396:8408   */\n      swap1\n      pop\n        /* \"#utility.yul\":8339:8414   */\n      swap2\n      swap1\n      pop\n      jump\t// out\n        /* \"#utility.yul\":8420:8689   */\n    tag_114:\n        /* \"#utility.yul\":8530:8569   */\n      tag_223\n        /* \"#utility.yul\":8561:8568   */\n      dup4\n        /* \"#utility.yul\":8530:8569   */\n      tag_112\n      jump\t// in\n    tag_223:\n        /* \"#utility.yul\":8591:8682   */\n      tag_224\n        /* \"#utility.yul\":8640:8681   */\n      tag_225\n        /* \"#utility.yul\":8664:8680   */\n      dup3\n        /* \"#utility.yul\":8640:8681   */\n      tag_113\n      jump\t// in\n    tag_225:\n        /* \"#utility.yul\":8632:8638   */\n      dup5\n        /* \"#utility.yul\":8625:8629   */\n      dup5\n        /* \"#utility.yul\":8619:8630   */\n      sload\n        /* \"#utility.yul\":8591:8682   */\n      tag_110\n      jump\t// in\n    tag_224:\n        /* \"#utility.yul\":8585:8589   */\n      dup3\n        /* \"#utility.yul\":8578:8683   */\n      sstore\n        /* \"#utility.yul\":8496:8689   */\n      pop\n        /* \"#utility.yul\":8420:8689   */\n      pop\n      pop\n      pop\n      jump\t// out\n        /* \"#utility.yul\":8695:8768   */\n    tag_115:\n        /* \"#utility.yul\":8740:8743   */\n      0x00\n        /* \"#utility.yul\":8695:8768   */\n      swap1\n      jump\t// out\n        /* \"#utility.yul\":8774:8963   */\n    tag_116:\n        /* \"#utility.yul\":8851:8883   */\n      tag_228\n      tag_115\n      jump\t// in\n    tag_228:\n        /* \"#utility.yul\":8892:8957   */\n      tag_229\n        /* \"#utility.yul\":8950:8956   */\n      dup2\n        /* \"#utility.yul\":8942:8948   */\n      dup5\n        /* \"#utility.yul\":8936:8940   */\n      dup5\n        /* \"#utility.yul\":8892:8957   */\n      tag_114\n      jump\t// in\n    tag_229:\n        /* \"#utility.yul\":8827:8963   */\n      pop\n        /* \"#utility.yul\":8774:8963   */\n      pop\n      pop\n      jump\t// out\n        /* \"#utility.yul\":8969:9155   */\n    tag_117:\n        /* \"#utility.yul\":9029:9149   */\n    tag_231:\n        /* \"#utility.yul\":9046:9049   */\n      dup2\n        /* \"#utility.yul\":9039:9044   */\n      dup2\n        /* \"#utility.yul\":9036:9050   */\n      lt\n        /* \"#utility.yul\":9029:9149   */\n      iszero\n      tag_233\n      jumpi\n        /* \"#utility.yul\":9100:9139   */\n      tag_234\n        /* \"#utility.yul\":9137:9138   */\n      0x00\n        /* \"#utility.yul\":9130:9135   */\n      dup3\n        /* \"#utility.yul\":9100:9139   */\n      tag_116\n      jump\t// in\n    tag_234:\n        /* \"#utility.yul\":9073:9074   */\n      0x01\n        /* \"#utility.yul\":9066:9071   */\n      dup2\n        /* \"#utility.yul\":9062:9075   */\n      add\n        /* \"#utility.yul\":9053:9075   */\n      swap1\n      pop\n        /* \"#utility.yul\":9029:9149   */\n      jump(tag_231)\n    tag_233:\n        /* \"#utility.yul\":8969:9155   */\n      pop\n      pop\n      jump\t// out\n        /* \"#utility.yul\":9161:9702   */\n    tag_118:\n        /* \"#utility.yul\":9261:9263   */\n      0x1f\n        /* \"#utility.yul\":9256:9259   */\n      dup3\n        /* \"#utility.yul\":9253:9264   */\n      gt\n        /* \"#utility.yul\":9250:9695   */\n      iszero\n      tag_236\n      jumpi\n        /* \"#utility.yul\":9295:9332   */\n      tag_237\n        /* \"#utility.yul\":9326:9331   */\n      dup2\n        /* \"#utility.yul\":9295:9332   */\n      tag_107\n      jump\t// in\n    tag_237:\n        /* \"#utility.yul\":9378:9407   */\n      tag_238\n        /* \"#utility.yul\":9396:9406   */\n      dup5\n        /* \"#utility.yul\":9378:9407   */\n      tag_108\n      jump\t// in\n    tag_238:\n        /* \"#utility.yul\":9368:9376   */\n      dup2\n        /* \"#utility.yul\":9364:9408   */\n      add\n        /* \"#utility.yul\":9561:9563   */\n      0x20\n        /* \"#utility.yul\":9549:9559   */\n      dup6\n        /* \"#utility.yul\":9546:9564   */\n      lt\n        /* \"#utility.yul\":9543:9592   */\n      iszero\n      tag_239\n      jumpi\n        /* \"#utility.yul\":9582:9590   */\n      dup2\n        /* \"#utility.yul\":9567:9590   */\n      swap1\n      pop\n        /* \"#utility.yul\":9543:9592   */\n    tag_239:\n        /* \"#utility.yul\":9605:9685   */\n      tag_240\n        /* \"#utility.yul\":9661:9683   */\n      tag_241\n        /* \"#utility.yul\":9679:9682   */\n      dup6\n        /* \"#utility.yul\":9661:9683   */\n      tag_108\n      jump\t// in\n    tag_241:\n        /* \"#utility.yul\":9651:9659   */\n      dup4\n        /* \"#utility.yul\":9647:9684   */\n      add\n        /* \"#utility.yul\":9634:9645   */\n      dup3\n        /* \"#utility.yul\":9605:9685   */\n      tag_117\n      jump\t// in\n    tag_240:\n        /* \"#utility.yul\":9265:9695   */\n      pop\n      pop\n        /* \"#utility.yul\":9250:9695   */\n    tag_236:\n        /* \"#utility.yul\":9161:9702   */\n      pop\n      pop\n      pop\n      jump\t// out\n        /* \"#utility.yul\":9708:9825   */\n    tag_119:\n        /* \"#utility.yul\":9762:9770   */\n      0x00\n        /* \"#utility.yul\":9812:9817   */\n      dup3\n        /* \"#utility.yul\":9806:9810   */\n      dup3\n        /* \"#utility.yul\":9802:9818   */\n      shr\n        /* \"#utility.yul\":9781:9818   */\n      swap1\n      pop\n        /* \"#utility.yul\":9708:9825   */\n      swap3\n      swap2\n      pop\n      pop\n      jump\t// out\n        /* \"#utility.yul\":9831:10000   */\n    tag_120:\n        /* \"#utility.yul\":9875:9881   */\n      0x00\n        /* \"#utility.yul\":9908:9959   */\n      tag_244\n        /* \"#utility.yul\":9956:9957   */\n      0x00\n        /* \"#utility.yul\":9952:9958   */\n      not\n        /* \"#utility.yul\":9944:9949   */\n      dup5\n        /* \"#utility.yul\":9941:9942   */\n      0x08\n        /* \"#utility.yul\":9937:9950   */\n      mul\n        /* \"#utility.yul\":9908:9959   */\n      tag_119\n      jump\t// in\n    tag_244:\n        /* \"#utility.yul\":9904:9960   */\n      not\n        /* \"#utility.yul\":9989:9993   */\n      dup1\n        /* \"#utility.yul\":9983:9987   */\n      dup4\n        /* \"#utility.yul\":9979:9994   */\n      and\n        /* \"#utility.yul\":9969:9994   */\n      swap2\n      pop\n        /* \"#utility.yul\":9882:10000   */\n      pop\n        /* \"#utility.yul\":9831:10000   */\n      swap3\n      swap2\n      pop\n      pop\n      jump\t// out\n        /* \"#utility.yul\":10005:10300   */\n    tag_121:\n        /* \"#utility.yul\":10081:10085   */\n      0x00\n        /* \"#utility.yul\":10227:10256   */\n      tag_246\n        /* \"#utility.yul\":10252:10255   */\n      dup4\n        /* \"#utility.yul\":10246:10250   */\n      dup4\n        /* \"#utility.yul\":10227:10256   */\n      tag_120\n      jump\t// in\n    tag_246:\n        /* \"#utility.yul\":10219:10256   */\n      swap2\n      pop\n        /* \"#utility.yul\":10289:10292   */\n      dup3\n        /* \"#utility.yul\":10286:10287   */\n      0x02\n        /* \"#utility.yul\":10282:10293   */\n      mul\n        /* \"#utility.yul\":10276:10280   */\n      dup3\n        /* \"#utility.yul\":10273:10294   */\n      or\n        /* \"#utility.yul\":10265:10294   */\n      swap1\n      pop\n        /* \"#utility.yul\":10005:10300   */\n      swap3\n      swap2\n      pop\n      pop\n      jump\t// out\n        /* \"#utility.yul\":10305:11695   */\n    tag_62:\n        /* \"#utility.yul\":10420:10456   */\n      tag_248\n        /* \"#utility.yul\":10452:10455   */\n      dup3\n        /* \"#utility.yul\":10420:10456   */\n      tag_84\n      jump\t// in\n    tag_248:\n        /* \"#utility.yul\":10521:10539   */\n      0xffffffffffffffff\n        /* \"#utility.yul\":10513:10519   */\n      dup2\n        /* \"#utility.yul\":10510:10540   */\n      gt\n        /* \"#utility.yul\":10507:10563   */\n      iszero\n      tag_249\n      jumpi\n        /* \"#utility.yul\":10543:10561   */\n      tag_250\n      tag_96\n      jump\t// in\n    tag_250:\n        /* \"#utility.yul\":10507:10563   */\n    tag_249:\n        /* \"#utility.yul\":10587:10625   */\n      tag_251\n        /* \"#utility.yul\":10619:10623   */\n      dup3\n        /* \"#utility.yul\":10613:10624   */\n      sload\n        /* \"#utility.yul\":10587:10625   */\n      tag_41\n      jump\t// in\n    tag_251:\n        /* \"#utility.yul\":10672:10738   */\n      tag_252\n        /* \"#utility.yul\":10731:10737   */\n      dup3\n        /* \"#utility.yul\":10723:10729   */\n      dup3\n        /* \"#utility.yul\":10717:10721   */\n      dup6\n        /* \"#utility.yul\":10672:10738   */\n      tag_118\n      jump\t// in\n    tag_252:\n        /* \"#utility.yul\":10765:10766   */\n      0x00\n        /* \"#utility.yul\":10789:10793   */\n      0x20\n        /* \"#utility.yul\":10776:10793   */\n      swap1\n      pop\n        /* \"#utility.yul\":10821:10823   */\n      0x1f\n        /* \"#utility.yul\":10813:10819   */\n      dup4\n        /* \"#utility.yul\":10810:10824   */\n      gt\n        /* \"#utility.yul\":10838:10839   */\n      0x01\n        /* \"#utility.yul\":10833:11450   */\n      dup2\n      eq\n      tag_254\n      jumpi\n        /* \"#utility.yul\":11494:11495   */\n      0x00\n        /* \"#utility.yul\":11511:11517   */\n      dup5\n        /* \"#utility.yul\":11508:11585   */\n      iszero\n      tag_255\n      jumpi\n        /* \"#utility.yul\":11560:11569   */\n      dup3\n        /* \"#utility.yul\":11555:11558   */\n      dup8\n        /* \"#utility.yul\":11551:11570   */\n      add\n        /* \"#utility.yul\":11545:11571   */\n      mload\n        /* \"#utility.yul\":11536:11571   */\n      swap1\n      pop\n        /* \"#utility.yul\":11508:11585   */\n    tag_255:\n        /* \"#utility.yul\":11611:11678   */\n      tag_256\n        /* \"#utility.yul\":11671:11677   */\n      dup6\n        /* \"#utility.yul\":11664:11669   */\n      dup3\n        /* \"#utility.yul\":11611:11678   */\n      tag_121\n      jump\t// in\n    tag_256:\n        /* \"#utility.yul\":11605:11609   */\n      dup7\n        /* \"#utility.yul\":11598:11679   */\n      sstore\n        /* \"#utility.yul\":11467:11689   */\n      pop\n        /* \"#utility.yul\":10803:11689   */\n      jump(tag_253)\n        /* \"#utility.yul\":10833:11450   */\n    tag_254:\n        /* \"#utility.yul\":10885:10889   */\n      0x1f\n        /* \"#utility.yul\":10881:10890   */\n      not\n        /* \"#utility.yul\":10873:10879   */\n      dup5\n        /* \"#utility.yul\":10869:10891   */\n      and\n        /* \"#utility.yul\":10919:10955   */\n      tag_257\n        /* \"#utility.yul\":10950:10954   */\n      dup7\n        /* \"#utility.yul\":10919:10955   */\n      tag_107\n      jump\t// in\n    tag_257:\n        /* \"#utility.yul\":10977:10978   */\n      0x00\n        /* \"#utility.yul\":10991:11199   */\n    tag_258:\n        /* \"#utility.yul\":11005:11012   */\n      dup3\n        /* \"#utility.yul\":11002:11003   */\n      dup2\n        /* \"#utility.yul\":10999:11013   */\n      lt\n        /* \"#utility.yul\":10991:11199   */\n      iszero\n      tag_260\n      jumpi\n        /* \"#utility.yul\":11084:11093   */\n      dup5\n        /* \"#utility.yul\":11079:11082   */\n      dup10\n        /* \"#utility.yul\":11075:11094   */\n      add\n        /* \"#utility.yul\":11069:11095   */\n      mload\n        /* \"#utility.yul\":11061:11067   */\n      dup3\n        /* \"#utility.yul\":11054:11096   */\n      sstore\n        /* \"#utility.yul\":11135:11136   */\n      0x01\n        /* \"#utility.yul\":11127:11133   */\n      dup3\n        /* \"#utility.yul\":11123:11137   */\n      add\n        /* \"#utility.yul\":11113:11137   */\n      swap2\n      pop\n        /* \"#utility.yul\":11182:11184   */\n      0x20\n        /* \"#utility.yul\":11171:11180   */\n      dup6\n        /* \"#utility.yul\":11167:11185   */\n      add\n        /* \"#utility.yul\":11154:11185   */\n      swap5\n      pop\n        /* \"#utility.yul\":11028:11032   */\n      0x20\n        /* \"#utility.yul\":11025:11026   */\n      dup2\n        /* \"#utility.yul\":11021:11033   */\n      add\n        /* \"#utility.yul\":11016:11033   */\n      swap1\n      pop\n        /* \"#utility.yul\":10991:11199   */\n      jump(tag_258)\n    tag_260:\n        /* \"#utility.yul\":11227:11233   */\n      dup7\n        /* \"#utility.yul\":11218:11225   */\n      dup4\n        /* \"#utility.yul\":11215:11234   */\n      lt\n        /* \"#utility.yul\":11212:11391   */\n      iszero\n      tag_261\n      jumpi\n        /* \"#utility.yul\":11285:11294   */\n      dup5\n        /* \"#utility.yul\":11280:11283   */\n      dup10\n        /* \"#utility.yul\":11276:11295   */\n      add\n        /* \"#utility.yul\":11270:11296   */\n      mload\n        /* \"#utility.yul\":11328:11376   */\n      tag_262\n        /* \"#utility.yul\":11370:11374   */\n      0x1f\n        /* \"#utility.yul\":11362:11368   */\n      dup10\n        /* \"#utility.yul\":11358:11375   */\n      and\n        /* \"#utility.yul\":11347:11356   */\n      dup3\n        /* \"#utility.yul\":11328:11376   */\n      tag_120\n      jump\t// in\n    tag_262:\n        /* \"#utility.yul\":11320:11326   */\n      dup4\n        /* \"#utility.yul\":11313:11377   */\n      sstore\n        /* \"#utility.yul\":11235:11391   */\n      pop\n        /* \"#utility.yul\":11212:11391   */\n    tag_261:\n        /* \"#utility.yul\":11437:11438   */\n      0x01\n        /* \"#utility.yul\":11433:11434   */\n      0x02\n        /* \"#utility.yul\":11425:11431   */\n      dup9\n        /* \"#utility.yul\":11421:11435   */\n      mul\n        /* \"#utility.yul\":11417:11439   */\n      add\n        /* \"#utility.yul\":11411:11415   */\n      dup9\n        /* \"#utility.yul\":11404:11440   */\n      sstore\n        /* \"#utility.yul\":10840:11450   */\n      pop\n      pop\n      pop\n        /* \"#utility.yul\":10803:11689   */\n    tag_253:\n      pop\n        /* \"#utility.yul\":10395:11695   */\n      pop\n      pop\n      pop\n        /* \"#utility.yul\":10305:11695   */\n      pop\n      pop\n      jump\t// out\n\n    auxdata: 0xa26469706673582212203cf5918031f8759b320855b14e7bfe8b78d6950b39a882eb802906a373abbe4d64736f6c634300081a0033\n}\n",
				"bytecode": {
					"linkReferences": {},
					"object": "608060405234801561000f575f80fd5b50335f73ffffffffffffffffffffffffffffffffffffffff168173ffffffffffffffffffffffffffffffffffffffff1603610081575f6040517f1e4fbdf70000000000000000000000000000000000000000000000000000000081526004016100789190610196565b60405180910390fd5b6100908161009660201b60201c565b506101af565b5f805f9054906101000a900473ffffffffffffffffffffffffffffffffffffffff169050815f806101000a81548173ffffffffffffffffffffffffffffffffffffffff021916908373ffffffffffffffffffffffffffffffffffffffff1602179055508173ffffffffffffffffffffffffffffffffffffffff168173ffffffffffffffffffffffffffffffffffffffff167f8be0079c531659141344cd1fd0a4f28419497f9722a3daafe3b4186f6b6457e060405160405180910390a35050565b5f73ffffffffffffffffffffffffffffffffffffffff82169050919050565b5f61018082610157565b9050919050565b61019081610176565b82525050565b5f6020820190506101a95f830184610187565b92915050565b610b0e806101bc5f395ff3fe608060405234801561000f575f80fd5b506004361061007b575f3560e01c80638da5cb5b116100595780638da5cb5b146100d55780638f90c68d146100f3578063b323bbd714610123578063f2fde38b1461013f5761007b565b8063344610671461007f5780633e1e506e146100af578063715018a6146100cb575b5f80fd5b610099600480360381019061009491906104ce565b61015b565b6040516100a69190610569565b60405180910390f35b6100c960048036038101906100c491906105e3565b610201565b005b6100d361022c565b005b6100dd61023f565b6040516100ea919061061d565b60405180910390f35b61010d60048036038101906101089190610762565b610266565b60405161011a919061061d565b60405180910390f35b61013d60048036038101906101389190610762565b610282565b005b610159600480360381019061015491906105e3565b6102b7565b005b6001818154811061016a575f80fd5b905f5260205f20015f915090508054610182906107d6565b80601f01602080910402602001604051908101604052809291908181526020018280546101ae906107d6565b80156101f95780601f106101d0576101008083540402835291602001916101f9565b820191905f5260205f20905b8154815290600101906020018083116101dc57829003601f168201915b505050505081565b61022981604051602001610215919061061d565b604051602081830303815290604052610282565b50565b61023461033b565b61023d5f6103c2565b565b5f805f9054906101000a900473ffffffffffffffffffffffffffffffffffffffff16905090565b5f8180602001905181019061027b9190610841565b9050919050565b600181908060018154018082558091505060019003905f5260205f20015f9091909190915090816102b39190610a09565b5050565b6102bf61033b565b5f73ffffffffffffffffffffffffffffffffffffffff168173ffffffffffffffffffffffffffffffffffffffff160361032f575f6040517f1e4fbdf7000000000000000000000000000000000000000000000000000000008152600401610326919061061d565b60405180910390fd5b610338816103c2565b50565b610343610483565b73ffffffffffffffffffffffffffffffffffffffff1661036161023f565b73ffffffffffffffffffffffffffffffffffffffff16146103c057610384610483565b6040517f118cdaa70000000000000000000000000000000000000000000000000000000081526004016103b7919061061d565b60405180910390fd5b565b5f805f9054906101000a900473ffffffffffffffffffffffffffffffffffffffff169050815f806101000a81548173ffffffffffffffffffffffffffffffffffffffff021916908373ffffffffffffffffffffffffffffffffffffffff1602179055508173ffffffffffffffffffffffffffffffffffffffff168173ffffffffffffffffffffffffffffffffffffffff167f8be0079c531659141344cd1fd0a4f28419497f9722a3daafe3b4186f6b6457e060405160405180910390a35050565b5f33905090565b5f604051905090565b5f80fd5b5f80fd5b5f819050919050565b6104ad8161049b565b81146104b7575f80fd5b50565b5f813590506104c8816104a4565b92915050565b5f602082840312156104e3576104e2610493565b5b5f6104f0848285016104ba565b91505092915050565b5f81519050919050565b5f82825260208201905092915050565b8281835e5f83830152505050565b5f601f19601f8301169050919050565b5f61053b826104f9565b6105458185610503565b9350610555818560208601610513565b61055e81610521565b840191505092915050565b5f6020820190508181035f8301526105818184610531565b905092915050565b5f73ffffffffffffffffffffffffffffffffffffffff82169050919050565b5f6105b282610589565b9050919050565b6105c2816105a8565b81146105cc575f80fd5b50565b5f813590506105dd816105b9565b92915050565b5f602082840312156105f8576105f7610493565b5b5f610605848285016105cf565b91505092915050565b610617816105a8565b82525050565b5f6020820190506106305f83018461060e565b92915050565b5f80fd5b5f80fd5b7f4e487b71000000000000000000000000000000000000000000000000000000005f52604160045260245ffd5b61067482610521565b810181811067ffffffffffffffff821117156106935761069261063e565b5b80604052505050565b5f6106a561048a565b90506106b1828261066b565b919050565b5f67ffffffffffffffff8211156106d0576106cf61063e565b5b6106d982610521565b9050602081019050919050565b828183375f83830152505050565b5f610706610701846106b6565b61069c565b9050828152602081018484840111156107225761072161063a565b5b61072d8482856106e6565b509392505050565b5f82601f83011261074957610748610636565b5b81356107598482602086016106f4565b91505092915050565b5f6020828403121561077757610776610493565b5b5f82013567ffffffffffffffff81111561079457610793610497565b5b6107a084828501610735565b91505092915050565b7f4e487b71000000000000000000000000000000000000000000000000000000005f52602260045260245ffd5b5f60028204905060018216806107ed57607f821691505b602082108103610800576107ff6107a9565b5b50919050565b5f61081082610589565b9050919050565b61082081610806565b811461082a575f80fd5b50565b5f8151905061083b81610817565b92915050565b5f6020828403121561085657610855610493565b5b5f6108638482850161082d565b91505092915050565b5f819050815f5260205f209050919050565b5f6020601f8301049050919050565b5f82821b905092915050565b5f600883026108c87fffffffffffffffffffffffffffffffffffffffffffffffffffffffffffffffff8261088d565b6108d2868361088d565b95508019841693508086168417925050509392505050565b5f819050919050565b5f61090d6109086109038461049b565b6108ea565b61049b565b9050919050565b5f819050919050565b610926836108f3565b61093a61093282610914565b848454610899565b825550505050565b5f90565b61094e610942565b61095981848461091d565b505050565b5b8181101561097c576109715f82610946565b60018101905061095f565b5050565b601f8211156109c1576109928161086c565b61099b8461087e565b810160208510156109aa578190505b6109be6109b68561087e565b83018261095e565b50505b505050565b5f82821c905092915050565b5f6109e15f19846008026109c6565b1980831691505092915050565b5f6109f983836109d2565b9150826002028217905092915050565b610a12826104f9565b67ffffffffffffffff811115610a2b57610a2a61063e565b5b610a3582546107d6565b610a40828285610980565b5f60209050601f831160018114610a71575f8415610a5f578287015190505b610a6985826109ee565b865550610ad0565b601f198416610a7f8661086c565b5f5b82811015610aa657848901518255600182019150602085019450602081019050610a81565b86831015610ac35784890151610abf601f8916826109d2565b8355505b6001600288020188555050505b50505050505056fea26469706673582212203cf5918031f8759b320855b14e7bfe8b78d6950b39a882eb802906a373abbe4d64736f6c634300081a0033",
					"opcodes": "PUSH1 0x80 PUSH1 0x40 MSTORE CALLVALUE DUP1 ISZERO PUSH2 0xF JUMPI PUSH0 DUP1 REVERT JUMPDEST POP CALLER PUSH0 PUSH20 0xFFFFFFFFFFFFFFFFFFFFFFFFFFFFFFFFFFFFFFFF AND DUP2 PUSH20 0xFFFFFFFFFFFFFFFFFFFFFFFFFFFFFFFFFFFFFFFF AND SUB PUSH2 0x81 JUMPI PUSH0 PUSH1 0x40 MLOAD PUSH32 0x1E4FBDF700000000000000000000000000000000000000000000000000000000 DUP2 MSTORE PUSH1 0x4 ADD PUSH2 0x78 SWAP2 SWAP1 PUSH2 0x196 JUMP JUMPDEST PUSH1 0x40 MLOAD DUP1 SWAP2 SUB SWAP1 REVERT JUMPDEST PUSH2 0x90 DUP2 PUSH2 0x96 PUSH1 0x20 SHL PUSH1 0x20 SHR JUMP JUMPDEST POP PUSH2 0x1AF JUMP JUMPDEST PUSH0 DUP1 PUSH0 SWAP1 SLOAD SWAP1 PUSH2 0x100 EXP SWAP1 DIV PUSH20 0xFFFFFFFFFFFFFFFFFFFFFFFFFFFFFFFFFFFFFFFF AND SWAP1 POP DUP2 PUSH0 DUP1 PUSH2 0x100 EXP DUP2 SLOAD DUP2 PUSH20 0xFFFFFFFFFFFFFFFFFFFFFFFFFFFFFFFFFFFFFFFF MUL NOT AND SWAP1 DUP4 PUSH20 0xFFFFFFFFFFFFFFFFFFFFFFFFFFFFFFFFFFFFFFFF AND MUL OR SWAP1 SSTORE POP DUP2 PUSH20 0xFFFFFFFFFFFFFFFFFFFFFFFFFFFFFFFFFFFFFFFF AND DUP2 PUSH20 0xFFFFFFFFFFFFFFFFFFFFFFFFFFFFFFFFFFFFFFFF AND PUSH32 0x8BE0079C531659141344CD1FD0A4F28419497F9722A3DAAFE3B4186F6B6457E0 PUSH1 0x40 MLOAD PUSH1 0x40 MLOAD DUP1 SWAP2 SUB SWAP1 LOG3 POP POP JUMP JUMPDEST PUSH0 PUSH20 0xFFFFFFFFFFFFFFFFFFFFFFFFFFFFFFFFFFFFFFFF DUP3 AND SWAP1 POP SWAP2 SWAP1 POP JUMP JUMPDEST PUSH0 PUSH2 0x180 DUP3 PUSH2 0x157 JUMP JUMPDEST SWAP1 POP SWAP2 SWAP1 POP JUMP JUMPDEST PUSH2 0x190 DUP2 PUSH2 0x176 JUMP JUMPDEST DUP3 MSTORE POP POP JUMP JUMPDEST PUSH0 PUSH1 0x20 DUP3 ADD SWAP1 POP PUSH2 0x1A9 PUSH0 DUP4 ADD DUP5 PUSH2 0x187 JUMP JUMPDEST SWAP3 SWAP2 POP POP JUMP JUMPDEST PUSH2 0xB0E DUP1 PUSH2 0x1BC PUSH0 CODECOPY PUSH0 RETURN INVALID PUSH1 0x80 PUSH1 0x40 MSTORE CALLVALUE DUP1 ISZERO PUSH2 0xF JUMPI PUSH0 DUP1 REVERT JUMPDEST POP PUSH1 0x4 CALLDATASIZE LT PUSH2 0x7B JUMPI PUSH0 CALLDATALOAD PUSH1 0xE0 SHR DUP1 PUSH4 0x8DA5CB5B GT PUSH2 0x59 JUMPI DUP1 PUSH4 0x8DA5CB5B EQ PUSH2 0xD5 JUMPI DUP1 PUSH4 0x8F90C68D EQ PUSH2 0xF3 JUMPI DUP1 PUSH4 0xB323BBD7 EQ PUSH2 0x123 JUMPI DUP1 PUSH4 0xF2FDE38B EQ PUSH2 0x13F JUMPI PUSH2 0x7B JUMP JUMPDEST DUP1 PUSH4 0x34461067 EQ PUSH2 0x7F JUMPI DUP1 PUSH4 0x3E1E506E EQ PUSH2 0xAF JUMPI DUP1 PUSH4 0x715018A6 EQ PUSH2 0xCB JUMPI JUMPDEST PUSH0 DUP1 REVERT JUMPDEST PUSH2 0x99 PUSH1 0x4 DUP1 CALLDATASIZE SUB DUP2 ADD SWAP1 PUSH2 0x94 SWAP2 SWAP1 PUSH2 0x4CE JUMP JUMPDEST PUSH2 0x15B JUMP JUMPDEST PUSH1 0x40 MLOAD PUSH2 0xA6 SWAP2 SWAP1 PUSH2 0x569 JUMP JUMPDEST PUSH1 0x40 MLOAD DUP1 SWAP2 SUB SWAP1 RETURN JUMPDEST PUSH2 0xC9 PUSH1 0x4 DUP1 CALLDATASIZE SUB DUP2 ADD SWAP1 PUSH2 0xC4 SWAP2 SWAP1 PUSH2 0x5E3 JUMP JUMPDEST PUSH2 0x201 JUMP JUMPDEST STOP JUMPDEST PUSH2 0xD3 PUSH2 0x22C JUMP JUMPDEST STOP JUMPDEST PUSH2 0xDD PUSH2 0x23F JUMP JUMPDEST PUSH1 0x40 MLOAD PUSH2 0xEA SWAP2 SWAP1 PUSH2 0x61D JUMP JUMPDEST PUSH1 0x40 MLOAD DUP1 SWAP2 SUB SWAP1 RETURN JUMPDEST PUSH2 0x10D PUSH1 0x4 DUP1 CALLDATASIZE SUB DUP2 ADD SWAP1 PUSH2 0x108 SWAP2 SWAP1 PUSH2 0x762 JUMP JUMPDEST PUSH2 0x266 JUMP JUMPDEST PUSH1 0x40 MLOAD PUSH2 0x11A SWAP2 SWAP1 PUSH2 0x61D JUMP JUMPDEST PUSH1 0x40 MLOAD DUP1 SWAP2 SUB SWAP1 RETURN JUMPDEST PUSH2 0x13D PUSH1 0x4 DUP1 CALLDATASIZE SUB DUP2 ADD SWAP1 PUSH2 0x138 SWAP2 SWAP1 PUSH2 0x762 JUMP JUMPDEST PUSH2 0x282 JUMP JUMPDEST STOP JUMPDEST PUSH2 0x159 PUSH1 0x4 DUP1 CALLDATASIZE SUB DUP2 ADD SWAP1 PUSH2 0x154 SWAP2 SWAP1 PUSH2 0x5E3 JUMP JUMPDEST PUSH2 0x2B7 JUMP JUMPDEST STOP JUMPDEST PUSH1 0x1 DUP2 DUP2 SLOAD DUP2 LT PUSH2 0x16A JUMPI PUSH0 DUP1 REVERT JUMPDEST SWAP1 PUSH0 MSTORE PUSH1 0x20 PUSH0 KECCAK256 ADD PUSH0 SWAP2 POP SWAP1 POP DUP1 SLOAD PUSH2 0x182 SWAP1 PUSH2 0x7D6 JUMP JUMPDEST DUP1 PUSH1 0x1F ADD PUSH1 0x20 DUP1 SWAP2 DIV MUL PUSH1 0x20 ADD PUSH1 0x40 MLOAD SWAP1 DUP2 ADD PUSH1 0x40 MSTORE DUP1 SWAP3 SWAP2 SWAP1 DUP2 DUP2 MSTORE PUSH1 0x20 ADD DUP3 DUP1 SLOAD PUSH2 0x1AE SWAP1 PUSH2 0x7D6 JUMP JUMPDEST DUP1 ISZERO PUSH2 0x1F9 JUMPI DUP1 PUSH1 0x1F LT PUSH2 0x1D0 JUMPI PUSH2 0x100 DUP1 DUP4 SLOAD DIV MUL DUP4 MSTORE SWAP2 PUSH1 0x20 ADD SWAP2 PUSH2 0x1F9 JUMP JUMPDEST DUP3 ADD SWAP2 SWAP1 PUSH0 MSTORE PUSH1 0x20 PUSH0 KECCAK256 SWAP1 JUMPDEST DUP2 SLOAD DUP2 MSTORE SWAP1 PUSH1 0x1 ADD SWAP1 PUSH1 0x20 ADD DUP1 DUP4 GT PUSH2 0x1DC JUMPI DUP3 SWAP1 SUB PUSH1 0x1F AND DUP3 ADD SWAP2 JUMPDEST POP POP POP POP POP DUP2 JUMP JUMPDEST PUSH2 0x229 DUP2 PUSH1 0x40 MLOAD PUSH1 0x20 ADD PUSH2 0x215 SWAP2 SWAP1 PUSH2 0x61D JUMP JUMPDEST PUSH1 0x40 MLOAD PUSH1 0x20 DUP2 DUP4 SUB SUB DUP2 MSTORE SWAP1 PUSH1 0x40 MSTORE PUSH2 0x282 JUMP JUMPDEST POP JUMP JUMPDEST PUSH2 0x234 PUSH2 0x33B JUMP JUMPDEST PUSH2 0x23D PUSH0 PUSH2 0x3C2 JUMP JUMPDEST JUMP JUMPDEST PUSH0 DUP1 PUSH0 SWAP1 SLOAD SWAP1 PUSH2 0x100 EXP SWAP1 DIV PUSH20 0xFFFFFFFFFFFFFFFFFFFFFFFFFFFFFFFFFFFFFFFF AND SWAP1 POP SWAP1 JUMP JUMPDEST PUSH0 DUP2 DUP1 PUSH1 0x20 ADD SWAP1 MLOAD DUP2 ADD SWAP1 PUSH2 0x27B SWAP2 SWAP1 PUSH2 0x841 JUMP JUMPDEST SWAP1 POP SWAP2 SWAP1 POP JUMP JUMPDEST PUSH1 0x1 DUP2 SWAP1 DUP1 PUSH1 0x1 DUP2 SLOAD ADD DUP1 DUP3 SSTORE DUP1 SWAP2 POP POP PUSH1 0x1 SWAP1 SUB SWAP1 PUSH0 MSTORE PUSH1 0x20 PUSH0 KECCAK256 ADD PUSH0 SWAP1 SWAP2 SWAP1 SWAP2 SWAP1 SWAP2 POP SWAP1 DUP2 PUSH2 0x2B3 SWAP2 SWAP1 PUSH2 0xA09 JUMP JUMPDEST POP POP JUMP JUMPDEST PUSH2 0x2BF PUSH2 0x33B JUMP JUMPDEST PUSH0 PUSH20 0xFFFFFFFFFFFFFFFFFFFFFFFFFFFFFFFFFFFFFFFF AND DUP2 PUSH20 0xFFFFFFFFFFFFFFFFFFFFFFFFFFFFFFFFFFFFFFFF AND SUB PUSH2 0x32F JUMPI PUSH0 PUSH1 0x40 MLOAD PUSH32 0x1E4FBDF700000000000000000000000000000000000000000000000000000000 DUP2 MSTORE PUSH1 0x4 ADD PUSH2 0x326 SWAP2 SWAP1 PUSH2 0x61D JUMP JUMPDEST PUSH1 0x40 MLOAD DUP1 SWAP2 SUB SWAP1 REVERT JUMPDEST PUSH2 0x338 DUP2 PUSH2 0x3C2 JUMP JUMPDEST POP JUMP JUMPDEST PUSH2 0x343 PUSH2 0x483 JUMP JUMPDEST PUSH20 0xFFFFFFFFFFFFFFFFFFFFFFFFFFFFFFFFFFFFFFFF AND PUSH2 0x361 PUSH2 0x23F JUMP JUMPDEST PUSH20 0xFFFFFFFFFFFFFFFFFFFFFFFFFFFFFFFFFFFFFFFF AND EQ PUSH2 0x3C0 JUMPI PUSH2 0x384 PUSH2 0x483 JUMP JUMPDEST PUSH1 0x40 MLOAD PUSH32 0x118CDAA700000000000000000000000000000000000000000000000000000000 DUP2 MSTORE PUSH1 0x4 ADD PUSH2 0x3B7 SWAP2 SWAP1 PUSH2 0x61D JUMP JUMPDEST PUSH1 0x40 MLOAD DUP1 SWAP2 SUB SWAP1 REVERT JUMPDEST JUMP JUMPDEST PUSH0 DUP1 PUSH0 SWAP1 SLOAD SWAP1 PUSH2 0x100 EXP SWAP1 DIV PUSH20 0xFFFFFFFFFFFFFFFFFFFFFFFFFFFFFFFFFFFFFFFF AND SWAP1 POP DUP2 PUSH0 DUP1 PUSH2 0x100 EXP DUP2 SLOAD DUP2 PUSH20 0xFFFFFFFFFFFFFFFFFFFFFFFFFFFFFFFFFFFFFFFF MUL NOT AND SWAP1 DUP4 PUSH20 0xFFFFFFFFFFFFFFFFFFFFFFFFFFFFFFFFFFFFFFFF AND MUL OR SWAP1 SSTORE POP DUP2 PUSH20 0xFFFFFFFFFFFFFFFFFFFFFFFFFFFFFFFFFFFFFFFF AND DUP2 PUSH20 0xFFFFFFFFFFFFFFFFFFFFFFFFFFFFFFFFFFFFFFFF AND PUSH32 0x8BE0079C531659141344CD1FD0A4F28419497F9722A3DAAFE3B4186F6B6457E0 PUSH1 0x40 MLOAD PUSH1 0x40 MLOAD DUP1 SWAP2 SUB SWAP1 LOG3 POP POP JUMP JUMPDEST PUSH0 CALLER SWAP1 POP SWAP1 JUMP JUMPDEST PUSH0 PUSH1 0x40 MLOAD SWAP1 POP SWAP1 JUMP JUMPDEST PUSH0 DUP1 REVERT JUMPDEST PUSH0 DUP1 REVERT JUMPDEST PUSH0 DUP2 SWAP1 POP SWAP2 SWAP1 POP JUMP JUMPDEST PUSH2 0x4AD DUP2 PUSH2 0x49B JUMP JUMPDEST DUP2 EQ PUSH2 0x4B7 JUMPI PUSH0 DUP1 REVERT JUMPDEST POP JUMP JUMPDEST PUSH0 DUP2 CALLDATALOAD SWAP1 POP PUSH2 0x4C8 DUP2 PUSH2 0x4A4 JUMP JUMPDEST SWAP3 SWAP2 POP POP JUMP JUMPDEST PUSH0 PUSH1 0x20 DUP3 DUP5 SUB SLT ISZERO PUSH2 0x4E3 JUMPI PUSH2 0x4E2 PUSH2 0x493 JUMP JUMPDEST JUMPDEST PUSH0 PUSH2 0x4F0 DUP5 DUP3 DUP6 ADD PUSH2 0x4BA JUMP JUMPDEST SWAP2 POP POP SWAP3 SWAP2 POP POP JUMP JUMPDEST PUSH0 DUP2 MLOAD SWAP1 POP SWAP2 SWAP1 POP JUMP JUMPDEST PUSH0 DUP3 DUP3 MSTORE PUSH1 0x20 DUP3 ADD SWAP1 POP SWAP3 SWAP2 POP POP JUMP JUMPDEST DUP3 DUP2 DUP4 MCOPY PUSH0 DUP4 DUP4 ADD MSTORE POP POP POP JUMP JUMPDEST PUSH0 PUSH1 0x1F NOT PUSH1 0x1F DUP4 ADD AND SWAP1 POP SWAP2 SWAP1 POP JUMP JUMPDEST PUSH0 PUSH2 0x53B DUP3 PUSH2 0x4F9 JUMP JUMPDEST PUSH2 0x545 DUP2 DUP6 PUSH2 0x503 JUMP JUMPDEST SWAP4 POP PUSH2 0x555 DUP2 DUP6 PUSH1 0x20 DUP7 ADD PUSH2 0x513 JUMP JUMPDEST PUSH2 0x55E DUP2 PUSH2 0x521 JUMP JUMPDEST DUP5 ADD SWAP2 POP POP SWAP3 SWAP2 POP POP JUMP JUMPDEST PUSH0 PUSH1 0x20 DUP3 ADD SWAP1 POP DUP2 DUP2 SUB PUSH0 DUP4 ADD MSTORE PUSH2 0x581 DUP2 DUP5 PUSH2 0x531 JUMP JUMPDEST SWAP1 POP SWAP3 SWAP2 POP POP JUMP JUMPDEST PUSH0 PUSH20 0xFFFFFFFFFFFFFFFFFFFFFFFFFFFFFFFFFFFFFFFF DUP3 AND SWAP1 POP SWAP2 SWAP1 POP JUMP JUMPDEST PUSH0 PUSH2 0x5B2 DUP3 PUSH2 0x589 JUMP JUMPDEST SWAP1 POP SWAP2 SWAP1 POP JUMP JUMPDEST PUSH2 0x5C2 DUP2 PUSH2 0x5A8 JUMP JUMPDEST DUP2 EQ PUSH2 0x5CC JUMPI PUSH0 DUP1 REVERT JUMPDEST POP JUMP JUMPDEST PUSH0 DUP2 CALLDATALOAD SWAP1 POP PUSH2 0x5DD DUP2 PUSH2 0x5B9 JUMP JUMPDEST SWAP3 SWAP2 POP POP JUMP JUMPDEST PUSH0 PUSH1 0x20 DUP3 DUP5 SUB SLT ISZERO PUSH2 0x5F8 JUMPI PUSH2 0x5F7 PUSH2 0x493 JUMP JUMPDEST JUMPDEST PUSH0 PUSH2 0x605 DUP5 DUP3 DUP6 ADD PUSH2 0x5CF JUMP JUMPDEST SWAP2 POP POP SWAP3 SWAP2 POP POP JUMP JUMPDEST PUSH2 0x617 DUP2 PUSH2 0x5A8 JUMP JUMPDEST DUP3 MSTORE POP POP JUMP JUMPDEST PUSH0 PUSH1 0x20 DUP3 ADD SWAP1 POP PUSH2 0x630 PUSH0 DUP4 ADD DUP5 PUSH2 0x60E JUMP JUMPDEST SWAP3 SWAP2 POP POP JUMP JUMPDEST PUSH0 DUP1 REVERT JUMPDEST PUSH0 DUP1 REVERT JUMPDEST PUSH32 0x4E487B7100000000000000000000000000000000000000000000000000000000 PUSH0 MSTORE PUSH1 0x41 PUSH1 0x4 MSTORE PUSH1 0x24 PUSH0 REVERT JUMPDEST PUSH2 0x674 DUP3 PUSH2 0x521 JUMP JUMPDEST DUP2 ADD DUP2 DUP2 LT PUSH8 0xFFFFFFFFFFFFFFFF DUP3 GT OR ISZERO PUSH2 0x693 JUMPI PUSH2 0x692 PUSH2 0x63E JUMP JUMPDEST JUMPDEST DUP1 PUSH1 0x40 MSTORE POP POP POP JUMP JUMPDEST PUSH0 PUSH2 0x6A5 PUSH2 0x48A JUMP JUMPDEST SWAP1 POP PUSH2 0x6B1 DUP3 DUP3 PUSH2 0x66B JUMP JUMPDEST SWAP2 SWAP1 POP JUMP JUMPDEST PUSH0 PUSH8 0xFFFFFFFFFFFFFFFF DUP3 GT ISZERO PUSH2 0x6D0 JUMPI PUSH2 0x6CF PUSH2 0x63E JUMP JUMPDEST JUMPDEST PUSH2 0x6D9 DUP3 PUSH2 0x521 JUMP JUMPDEST SWAP1 POP PUSH1 0x20 DUP2 ADD SWAP1 POP SWAP2 SWAP1 POP JUMP JUMPDEST DUP3 DUP2 DUP4 CALLDATACOPY PUSH0 DUP4 DUP4 ADD MSTORE POP POP POP JUMP JUMPDEST PUSH0 PUSH2 0x706 PUSH2 0x701 DUP5 PUSH2 0x6B6 JUMP JUMPDEST PUSH2 0x69C JUMP JUMPDEST SWAP1 POP DUP3 DUP2 MSTORE PUSH1 0x20 DUP2 ADD DUP5 DUP5 DUP5 ADD GT ISZERO PUSH2 0x722 JUMPI PUSH2 0x721 PUSH2 0x63A JUMP JUMPDEST JUMPDEST PUSH2 0x72D DUP5 DUP3 DUP6 PUSH2 0x6E6 JUMP JUMPDEST POP SWAP4 SWAP3 POP POP POP JUMP JUMPDEST PUSH0 DUP3 PUSH1 0x1F DUP4 ADD SLT PUSH2 0x749 JUMPI PUSH2 0x748 PUSH2 0x636 JUMP JUMPDEST JUMPDEST DUP2 CALLDATALOAD PUSH2 0x759 DUP5 DUP3 PUSH1 0x20 DUP7 ADD PUSH2 0x6F4 JUMP JUMPDEST SWAP2 POP POP SWAP3 SWAP2 POP POP JUMP JUMPDEST PUSH0 PUSH1 0x20 DUP3 DUP5 SUB SLT ISZERO PUSH2 0x777 JUMPI PUSH2 0x776 PUSH2 0x493 JUMP JUMPDEST JUMPDEST PUSH0 DUP3 ADD CALLDATALOAD PUSH8 0xFFFFFFFFFFFFFFFF DUP2 GT ISZERO PUSH2 0x794 JUMPI PUSH2 0x793 PUSH2 0x497 JUMP JUMPDEST JUMPDEST PUSH2 0x7A0 DUP5 DUP3 DUP6 ADD PUSH2 0x735 JUMP JUMPDEST SWAP2 POP POP SWAP3 SWAP2 POP POP JUMP JUMPDEST PUSH32 0x4E487B7100000000000000000000000000000000000000000000000000000000 PUSH0 MSTORE PUSH1 0x22 PUSH1 0x4 MSTORE PUSH1 0x24 PUSH0 REVERT JUMPDEST PUSH0 PUSH1 0x2 DUP3 DIV SWAP1 POP PUSH1 0x1 DUP3 AND DUP1 PUSH2 0x7ED JUMPI PUSH1 0x7F DUP3 AND SWAP2 POP JUMPDEST PUSH1 0x20 DUP3 LT DUP2 SUB PUSH2 0x800 JUMPI PUSH2 0x7FF PUSH2 0x7A9 JUMP JUMPDEST JUMPDEST POP SWAP2 SWAP1 POP JUMP JUMPDEST PUSH0 PUSH2 0x810 DUP3 PUSH2 0x589 JUMP JUMPDEST SWAP1 POP SWAP2 SWAP1 POP JUMP JUMPDEST PUSH2 0x820 DUP2 PUSH2 0x806 JUMP JUMPDEST DUP2 EQ PUSH2 0x82A JUMPI PUSH0 DUP1 REVERT JUMPDEST POP JUMP JUMPDEST PUSH0 DUP2 MLOAD SWAP1 POP PUSH2 0x83B DUP2 PUSH2 0x817 JUMP JUMPDEST SWAP3 SWAP2 POP POP JUMP JUMPDEST PUSH0 PUSH1 0x20 DUP3 DUP5 SUB SLT ISZERO PUSH2 0x856 JUMPI PUSH2 0x855 PUSH2 0x493 JUMP JUMPDEST JUMPDEST PUSH0 PUSH2 0x863 DUP5 DUP3 DUP6 ADD PUSH2 0x82D JUMP JUMPDEST SWAP2 POP POP SWAP3 SWAP2 POP POP JUMP JUMPDEST PUSH0 DUP2 SWAP1 POP DUP2 PUSH0 MSTORE PUSH1 0x20 PUSH0 KECCAK256 SWAP1 POP SWAP2 SWAP1 POP JUMP JUMPDEST PUSH0 PUSH1 0x20 PUSH1 0x1F DUP4 ADD DIV SWAP1 POP SWAP2 SWAP1 POP JUMP JUMPDEST PUSH0 DUP3 DUP3 SHL SWAP1 POP SWAP3 SWAP2 POP POP JUMP JUMPDEST PUSH0 PUSH1 0x8 DUP4 MUL PUSH2 0x8C8 PUSH32 0xFFFFFFFFFFFFFFFFFFFFFFFFFFFFFFFFFFFFFFFFFFFFFFFFFFFFFFFFFFFFFFFF DUP3 PUSH2 0x88D JUMP JUMPDEST PUSH2 0x8D2 DUP7 DUP4 PUSH2 0x88D JUMP JUMPDEST SWAP6 POP DUP1 NOT DUP5 AND SWAP4 POP DUP1 DUP7 AND DUP5 OR SWAP3 POP POP POP SWAP4 SWAP3 POP POP POP JUMP JUMPDEST PUSH0 DUP2 SWAP1 POP SWAP2 SWAP1 POP JUMP JUMPDEST PUSH0 PUSH2 0x90D PUSH2 0x908 PUSH2 0x903 DUP5 PUSH2 0x49B JUMP JUMPDEST PUSH2 0x8EA JUMP JUMPDEST PUSH2 0x49B JUMP JUMPDEST SWAP1 POP SWAP2 SWAP1 POP JUMP JUMPDEST PUSH0 DUP2 SWAP1 POP SWAP2 SWAP1 POP JUMP JUMPDEST PUSH2 0x926 DUP4 PUSH2 0x8F3 JUMP JUMPDEST PUSH2 0x93A PUSH2 0x932 DUP3 PUSH2 0x914 JUMP JUMPDEST DUP5 DUP5 SLOAD PUSH2 0x899 JUMP JUMPDEST DUP3 SSTORE POP POP POP POP JUMP JUMPDEST PUSH0 SWAP1 JUMP JUMPDEST PUSH2 0x94E PUSH2 0x942 JUMP JUMPDEST PUSH2 0x959 DUP2 DUP5 DUP5 PUSH2 0x91D JUMP JUMPDEST POP POP POP JUMP JUMPDEST JUMPDEST DUP2 DUP2 LT ISZERO PUSH2 0x97C JUMPI PUSH2 0x971 PUSH0 DUP3 PUSH2 0x946 JUMP JUMPDEST PUSH1 0x1 DUP2 ADD SWAP1 POP PUSH2 0x95F JUMP JUMPDEST POP POP JUMP JUMPDEST PUSH1 0x1F DUP3 GT ISZERO PUSH2 0x9C1 JUMPI PUSH2 0x992 DUP2 PUSH2 0x86C JUMP JUMPDEST PUSH2 0x99B DUP5 PUSH2 0x87E JUMP JUMPDEST DUP2 ADD PUSH1 0x20 DUP6 LT ISZERO PUSH2 0x9AA JUMPI DUP2 SWAP1 POP JUMPDEST PUSH2 0x9BE PUSH2 0x9B6 DUP6 PUSH2 0x87E JUMP JUMPDEST DUP4 ADD DUP3 PUSH2 0x95E JUMP JUMPDEST POP POP JUMPDEST POP POP POP JUMP JUMPDEST PUSH0 DUP3 DUP3 SHR SWAP1 POP SWAP3 SWAP2 POP POP JUMP JUMPDEST PUSH0 PUSH2 0x9E1 PUSH0 NOT DUP5 PUSH1 0x8 MUL PUSH2 0x9C6 JUMP JUMPDEST NOT DUP1 DUP4 AND SWAP2 POP POP SWAP3 SWAP2 POP POP JUMP JUMPDEST PUSH0 PUSH2 0x9F9 DUP4 DUP4 PUSH2 0x9D2 JUMP JUMPDEST SWAP2 POP DUP3 PUSH1 0x2 MUL DUP3 OR SWAP1 POP SWAP3 SWAP2 POP POP JUMP JUMPDEST PUSH2 0xA12 DUP3 PUSH2 0x4F9 JUMP JUMPDEST PUSH8 0xFFFFFFFFFFFFFFFF DUP2 GT ISZERO PUSH2 0xA2B JUMPI PUSH2 0xA2A PUSH2 0x63E JUMP JUMPDEST JUMPDEST PUSH2 0xA35 DUP3 SLOAD PUSH2 0x7D6 JUMP JUMPDEST PUSH2 0xA40 DUP3 DUP3 DUP6 PUSH2 0x980 JUMP JUMPDEST PUSH0 PUSH1 0x20 SWAP1 POP PUSH1 0x1F DUP4 GT PUSH1 0x1 DUP2 EQ PUSH2 0xA71 JUMPI PUSH0 DUP5 ISZERO PUSH2 0xA5F JUMPI DUP3 DUP8 ADD MLOAD SWAP1 POP JUMPDEST PUSH2 0xA69 DUP6 DUP3 PUSH2 0x9EE JUMP JUMPDEST DUP7 SSTORE POP PUSH2 0xAD0 JUMP JUMPDEST PUSH1 0x1F NOT DUP5 AND PUSH2 0xA7F DUP7 PUSH2 0x86C JUMP JUMPDEST PUSH0 JUMPDEST DUP3 DUP2 LT ISZERO PUSH2 0xAA6 JUMPI DUP5 DUP10 ADD MLOAD DUP3 SSTORE PUSH1 0x1 DUP3 ADD SWAP2 POP PUSH1 0x20 DUP6 ADD SWAP5 POP PUSH1 0x20 DUP2 ADD SWAP1 POP PUSH2 0xA81 JUMP JUMPDEST DUP7 DUP4 LT ISZERO PUSH2 0xAC3 JUMPI DUP5 DUP10 ADD MLOAD PUSH2 0xABF PUSH1 0x1F DUP10 AND DUP3 PUSH2 0x9D2 JUMP JUMPDEST DUP4 SSTORE POP JUMPDEST PUSH1 0x1 PUSH1 0x2 DUP9 MUL ADD DUP9 SSTORE POP POP POP JUMPDEST POP POP POP POP POP POP JUMP INVALID LOG2 PUSH5 0x6970667358 0x22 SLT KECCAK256 EXTCODECOPY CREATE2 SWAP2 DUP1 BALANCE 0xF8 PUSH22 0x9B320855B14E7BFE8B78D6950B39A882EB802906A373 0xAB 0xBE 0x4D PUSH5 0x736F6C6343 STOP ADDMOD BYTE STOP CALLER "
				},
				"gasEstimates": {
					"creation": {
						"codeDepositCost": "566000",
						"executionCost": "infinite",
						"totalCost": "infinite"
					},
					"external": {
						"addRecord(bytes)": "infinite",
						"decodeRecord(bytes)": "infinite",
						"owner()": "2515",
						"records(uint256)": "infinite",
						"renounceOwnership()": "infinite",
						"testAdd(address)": "infinite",
						"transferOwnership(address)": "infinite"
					}
				},
				"methodIdentifiers": {
					"addRecord(bytes)": "b323bbd7",
					"decodeRecord(bytes)": "8f90c68d",
					"owner()": "8da5cb5b",
					"records(uint256)": "34461067",
					"renounceOwnership()": "715018a6",
					"testAdd(address)": "3e1e506e",
					"transferOwnership(address)": "f2fde38b"
				}
			},
			"storageLayout": {
				"storage": [
					{
						"astId": 8,
						"contract": "Example_Factory/test.sol:RecordStorage",
						"label": "_owner",
						"offset": 0,
						"slot": "0",
						"type": "t_address"
					},
					{
						"astId": 188,
						"contract": "Example_Factory/test.sol:RecordStorage",
						"label": "records",
						"offset": 0,
						"slot": "1",
						"type": "t_array(t_bytes_storage)dyn_storage"
					}
				],
				"types": {
					"t_address": {
						"encoding": "inplace",
						"label": "address",
						"numberOfBytes": "20"
					},
					"t_array(t_bytes_storage)dyn_storage": {
						"base": "t_bytes_storage",
						"encoding": "dynamic_array",
						"label": "bytes[]",
						"numberOfBytes": "32"
					},
					"t_bytes_storage": {
						"encoding": "bytes",
						"label": "bytes",
						"numberOfBytes": "32"
					}
				}
			},
			"userdoc": {
				"kind": "user",
				"methods": {},
				"version": 1
			}
		}
	}
}