{
	"Example_Factory/Factory1.sol": {
		"RecordFactory": {
			"abi": [
				{
					"inputs": [
						{
							"internalType": "address",
							"name": "_record",
							"type": "address"
						}
					],
					"name": "addRecord",
					"outputs": [],
					"stateMutability": "nonpayable",
					"type": "function"
				},
				{
					"inputs": [
						{
							"internalType": "string",
							"name": "_record",
							"type": "string"
						}
					],
					"name": "addRecord",
					"outputs": [],
					"stateMutability": "nonpayable",
					"type": "function"
				},
				{
					"inputs": [
						{
							"internalType": "uint256",
							"name": "",
							"type": "uint256"
						}
					],
					"name": "records",
					"outputs": [
						{
							"internalType": "bytes32",
							"name": "",
							"type": "bytes32"
						}
					],
					"stateMutability": "view",
					"type": "function"
				}
			],
			"devdoc": {
				"kind": "dev",
				"methods": {},
				"version": 1
			},
			"evm": {
				"assembly": "    /* \"Example_Factory/Factory1.sol\":62:499  contract RecordFactory{... */\n  mstore(0x40, 0x80)\n  callvalue\n  dup1\n  iszero\n  tag_1\n  jumpi\n  0x00\n  dup1\n  revert\ntag_1:\n  pop\n  dataSize(sub_0)\n  dup1\n  dataOffset(sub_0)\n  0x00\n  codecopy\n  0x00\n  return\nstop\n\nsub_0: assembly {\n        /* \"Example_Factory/Factory1.sol\":62:499  contract RecordFactory{... */\n      mstore(0x40, 0x80)\n      callvalue\n      dup1\n      iszero\n      tag_1\n      jumpi\n      0x00\n      dup1\n      revert\n    tag_1:\n      pop\n      jumpi(tag_2, lt(calldatasize, 0x04))\n      shr(0xe0, calldataload(0x00))\n      dup1\n      0x34461067\n      eq\n      tag_3\n      jumpi\n      dup1\n      0x99b53463\n      eq\n      tag_4\n      jumpi\n      dup1\n      0xd81aa8c4\n      eq\n      tag_5\n      jumpi\n    tag_2:\n      0x00\n      dup1\n      revert\n        /* \"Example_Factory/Factory1.sol\":109:133  bytes32[] public records */\n    tag_3:\n      tag_6\n      0x04\n      dup1\n      calldatasize\n      sub\n      dup2\n      add\n      swap1\n      tag_7\n      swap2\n      swap1\n      tag_8\n      jump\t// in\n    tag_7:\n      tag_9\n      jump\t// in\n    tag_6:\n      mload(0x40)\n      tag_10\n      swap2\n      swap1\n      tag_11\n      jump\t// in\n    tag_10:\n      mload(0x40)\n      dup1\n      swap2\n      sub\n      swap1\n      return\n        /* \"Example_Factory/Factory1.sol\":140:313  function addRecord(address _record) external {... */\n    tag_4:\n      tag_12\n      0x04\n      dup1\n      calldatasize\n      sub\n      dup2\n      add\n      swap1\n      tag_13\n      swap2\n      swap1\n      tag_14\n      jump\t// in\n    tag_13:\n      tag_15\n      jump\t// in\n    tag_12:\n      stop\n        /* \"Example_Factory/Factory1.sol\":319:497  function addRecord(string calldata _record) external {... */\n    tag_5:\n      tag_16\n      0x04\n      dup1\n      calldatasize\n      sub\n      dup2\n      add\n      swap1\n      tag_17\n      swap2\n      swap1\n      tag_18\n      jump\t// in\n    tag_17:\n      tag_19\n      jump\t// in\n    tag_16:\n      stop\n        /* \"Example_Factory/Factory1.sol\":109:133  bytes32[] public records */\n    tag_9:\n      0x01\n      dup2\n      dup2\n      sload\n      dup2\n      lt\n      tag_20\n      jumpi\n      0x00\n      dup1\n      revert\n    tag_20:\n      swap1\n      0x00\n      mstore\n      keccak256(0x00, 0x20)\n      add\n      0x00\n      swap2\n      pop\n      swap1\n      pop\n      sload\n      dup2\n      jump\t// out\n        /* \"Example_Factory/Factory1.sol\":140:313  function addRecord(address _record) external {... */\n    tag_15:\n        /* \"Example_Factory/Factory1.sol\":195:223  AddressRecord _AddressRecord */\n      0x00\n        /* \"Example_Factory/Factory1.sol\":244:251  _record */\n      dup2\n        /* \"Example_Factory/Factory1.sol\":226:252  new AddressRecord(_record) */\n      mload(0x40)\n      tag_23\n      swap1\n      tag_24\n      jump\t// in\n    tag_23:\n      tag_25\n      swap2\n      swap1\n      tag_26\n      jump\t// in\n    tag_25:\n      mload(0x40)\n      dup1\n      swap2\n      sub\n      swap1\n      0x00\n      create\n      dup1\n      iszero\n      dup1\n      iszero\n      tag_27\n      jumpi\n      returndatasize\n      0x00\n      dup1\n      returndatacopy\n      revert(0x00, returndatasize)\n    tag_27:\n      pop\n        /* \"Example_Factory/Factory1.sol\":195:252  AddressRecord _AddressRecord = new AddressRecord(_record) */\n      swap1\n      pop\n        /* \"Example_Factory/Factory1.sol\":262:269  records */\n      0x01\n        /* \"Example_Factory/Factory1.sol\":296:303  _record */\n      dup3\n        /* \"Example_Factory/Factory1.sol\":285:304  abi.encode(_record) */\n      add(0x20, mload(0x40))\n      tag_28\n      swap2\n      swap1\n      tag_26\n      jump\t// in\n    tag_28:\n      mload(0x40)\n      0x20\n      dup2\n      dup4\n      sub\n      sub\n      dup2\n      mstore\n      swap1\n      0x40\n      mstore\n        /* \"Example_Factory/Factory1.sol\":275:305  keccak256(abi.encode(_record)) */\n      dup1\n      mload\n      swap1\n      0x20\n      add\n      keccak256\n        /* \"Example_Factory/Factory1.sol\":262:306  records.push(keccak256(abi.encode(_record))) */\n      swap1\n      dup1\n      0x01\n      dup2\n      sload\n      add\n      dup1\n      dup3\n      sstore\n      dup1\n      swap2\n      pop\n      pop\n      0x01\n      swap1\n      sub\n      swap1\n      0x00\n      mstore\n      keccak256(0x00, 0x20)\n      add\n      0x00\n      swap1\n      swap2\n      swap1\n      swap2\n      swap1\n      swap2\n      pop\n      sstore\n        /* \"Example_Factory/Factory1.sol\":185:313  {... */\n      pop\n        /* \"Example_Factory/Factory1.sol\":140:313  function addRecord(address _record) external {... */\n      pop\n      jump\t// out\n        /* \"Example_Factory/Factory1.sol\":319:497  function addRecord(string calldata _record) external {... */\n    tag_19:\n        /* \"Example_Factory/Factory1.sol\":382:408  StringRecord _StringRecord */\n      0x00\n        /* \"Example_Factory/Factory1.sol\":428:435  _record */\n      dup3\n      dup3\n        /* \"Example_Factory/Factory1.sol\":411:436  new StringRecord(_record) */\n      mload(0x40)\n      tag_31\n      swap1\n      tag_32\n      jump\t// in\n    tag_31:\n      tag_33\n      swap3\n      swap2\n      swap1\n      tag_34\n      jump\t// in\n    tag_33:\n      mload(0x40)\n      dup1\n      swap2\n      sub\n      swap1\n      0x00\n      create\n      dup1\n      iszero\n      dup1\n      iszero\n      tag_35\n      jumpi\n      returndatasize\n      0x00\n      dup1\n      returndatacopy\n      revert(0x00, returndatasize)\n    tag_35:\n      pop\n        /* \"Example_Factory/Factory1.sol\":382:436  StringRecord _StringRecord = new StringRecord(_record) */\n      swap1\n      pop\n        /* \"Example_Factory/Factory1.sol\":446:453  records */\n      0x01\n        /* \"Example_Factory/Factory1.sol\":480:487  _record */\n      dup4\n      dup4\n        /* \"Example_Factory/Factory1.sol\":469:488  abi.encode(_record) */\n      add(0x20, mload(0x40))\n      tag_36\n      swap3\n      swap2\n      swap1\n      tag_34\n      jump\t// in\n    tag_36:\n      mload(0x40)\n      0x20\n      dup2\n      dup4\n      sub\n      sub\n      dup2\n      mstore\n      swap1\n      0x40\n      mstore\n        /* \"Example_Factory/Factory1.sol\":459:489  keccak256(abi.encode(_record)) */\n      dup1\n      mload\n      swap1\n      0x20\n      add\n      keccak256\n        /* \"Example_Factory/Factory1.sol\":446:490  records.push(keccak256(abi.encode(_record))) */\n      swap1\n      dup1\n      0x01\n      dup2\n      sload\n      add\n      dup1\n      dup3\n      sstore\n      dup1\n      swap2\n      pop\n      pop\n      0x01\n      swap1\n      sub\n      swap1\n      0x00\n      mstore\n      keccak256(0x00, 0x20)\n      add\n      0x00\n      swap1\n      swap2\n      swap1\n      swap2\n      swap1\n      swap2\n      pop\n      sstore\n        /* \"Example_Factory/Factory1.sol\":372:497  {... */\n      pop\n        /* \"Example_Factory/Factory1.sol\":319:497  function addRecord(string calldata _record) external {... */\n      pop\n      pop\n      jump\t// out\n    tag_24:\n      dataSize(sub_0)\n      dup1\n      dataOffset(sub_0)\n      dup4\n      codecopy\n      add\n      swap1\n      jump\t// out\n    tag_32:\n      dataSize(sub_1)\n      dup1\n      dataOffset(sub_1)\n      dup4\n      codecopy\n      add\n      swap1\n      jump\t// out\n        /* \"#utility.yul\":88:205   */\n    tag_39:\n        /* \"#utility.yul\":197:198   */\n      0x00\n        /* \"#utility.yul\":194:195   */\n      dup1\n        /* \"#utility.yul\":187:199   */\n      revert\n        /* \"#utility.yul\":211:328   */\n    tag_40:\n        /* \"#utility.yul\":320:321   */\n      0x00\n        /* \"#utility.yul\":317:318   */\n      dup1\n        /* \"#utility.yul\":310:322   */\n      revert\n        /* \"#utility.yul\":334:411   */\n    tag_41:\n        /* \"#utility.yul\":371:378   */\n      0x00\n        /* \"#utility.yul\":400:405   */\n      dup2\n        /* \"#utility.yul\":389:405   */\n      swap1\n      pop\n        /* \"#utility.yul\":334:411   */\n      swap2\n      swap1\n      pop\n      jump\t// out\n        /* \"#utility.yul\":417:539   */\n    tag_42:\n        /* \"#utility.yul\":490:514   */\n      tag_65\n        /* \"#utility.yul\":508:513   */\n      dup2\n        /* \"#utility.yul\":490:514   */\n      tag_41\n      jump\t// in\n    tag_65:\n        /* \"#utility.yul\":483:488   */\n      dup2\n        /* \"#utility.yul\":480:515   */\n      eq\n        /* \"#utility.yul\":470:533   */\n      tag_66\n      jumpi\n        /* \"#utility.yul\":529:530   */\n      0x00\n        /* \"#utility.yul\":526:527   */\n      dup1\n        /* \"#utility.yul\":519:531   */\n      revert\n        /* \"#utility.yul\":470:533   */\n    tag_66:\n        /* \"#utility.yul\":417:539   */\n      pop\n      jump\t// out\n        /* \"#utility.yul\":545:684   */\n    tag_43:\n        /* \"#utility.yul\":591:596   */\n      0x00\n        /* \"#utility.yul\":629:635   */\n      dup2\n        /* \"#utility.yul\":616:636   */\n      calldataload\n        /* \"#utility.yul\":607:636   */\n      swap1\n      pop\n        /* \"#utility.yul\":645:678   */\n      tag_68\n        /* \"#utility.yul\":672:677   */\n      dup2\n        /* \"#utility.yul\":645:678   */\n      tag_42\n      jump\t// in\n    tag_68:\n        /* \"#utility.yul\":545:684   */\n      swap3\n      swap2\n      pop\n      pop\n      jump\t// out\n        /* \"#utility.yul\":690:1019   */\n    tag_8:\n        /* \"#utility.yul\":749:755   */\n      0x00\n        /* \"#utility.yul\":798:800   */\n      0x20\n        /* \"#utility.yul\":786:795   */\n      dup3\n        /* \"#utility.yul\":777:784   */\n      dup5\n        /* \"#utility.yul\":773:796   */\n      sub\n        /* \"#utility.yul\":769:801   */\n      slt\n        /* \"#utility.yul\":766:885   */\n      iszero\n      tag_70\n      jumpi\n        /* \"#utility.yul\":804:883   */\n      tag_71\n      tag_39\n      jump\t// in\n    tag_71:\n        /* \"#utility.yul\":766:885   */\n    tag_70:\n        /* \"#utility.yul\":924:925   */\n      0x00\n        /* \"#utility.yul\":949:1002   */\n      tag_72\n        /* \"#utility.yul\":994:1001   */\n      dup5\n        /* \"#utility.yul\":985:991   */\n      dup3\n        /* \"#utility.yul\":974:983   */\n      dup6\n        /* \"#utility.yul\":970:992   */\n      add\n        /* \"#utility.yul\":949:1002   */\n      tag_43\n      jump\t// in\n    tag_72:\n        /* \"#utility.yul\":939:1002   */\n      swap2\n      pop\n        /* \"#utility.yul\":895:1012   */\n      pop\n        /* \"#utility.yul\":690:1019   */\n      swap3\n      swap2\n      pop\n      pop\n      jump\t// out\n        /* \"#utility.yul\":1025:1102   */\n    tag_44:\n        /* \"#utility.yul\":1062:1069   */\n      0x00\n        /* \"#utility.yul\":1091:1096   */\n      dup2\n        /* \"#utility.yul\":1080:1096   */\n      swap1\n      pop\n        /* \"#utility.yul\":1025:1102   */\n      swap2\n      swap1\n      pop\n      jump\t// out\n        /* \"#utility.yul\":1108:1226   */\n    tag_45:\n        /* \"#utility.yul\":1195:1219   */\n      tag_75\n        /* \"#utility.yul\":1213:1218   */\n      dup2\n        /* \"#utility.yul\":1195:1219   */\n      tag_44\n      jump\t// in\n    tag_75:\n        /* \"#utility.yul\":1190:1193   */\n      dup3\n        /* \"#utility.yul\":1183:1220   */\n      mstore\n        /* \"#utility.yul\":1108:1226   */\n      pop\n      pop\n      jump\t// out\n        /* \"#utility.yul\":1232:1454   */\n    tag_11:\n        /* \"#utility.yul\":1325:1329   */\n      0x00\n        /* \"#utility.yul\":1363:1365   */\n      0x20\n        /* \"#utility.yul\":1352:1361   */\n      dup3\n        /* \"#utility.yul\":1348:1366   */\n      add\n        /* \"#utility.yul\":1340:1366   */\n      swap1\n      pop\n        /* \"#utility.yul\":1376:1447   */\n      tag_77\n        /* \"#utility.yul\":1444:1445   */\n      0x00\n        /* \"#utility.yul\":1433:1442   */\n      dup4\n        /* \"#utility.yul\":1429:1446   */\n      add\n        /* \"#utility.yul\":1420:1426   */\n      dup5\n        /* \"#utility.yul\":1376:1447   */\n      tag_45\n      jump\t// in\n    tag_77:\n        /* \"#utility.yul\":1232:1454   */\n      swap3\n      swap2\n      pop\n      pop\n      jump\t// out\n        /* \"#utility.yul\":1460:1586   */\n    tag_46:\n        /* \"#utility.yul\":1497:1504   */\n      0x00\n        /* \"#utility.yul\":1537:1579   */\n      0xffffffffffffffffffffffffffffffffffffffff\n        /* \"#utility.yul\":1530:1535   */\n      dup3\n        /* \"#utility.yul\":1526:1580   */\n      and\n        /* \"#utility.yul\":1515:1580   */\n      swap1\n      pop\n        /* \"#utility.yul\":1460:1586   */\n      swap2\n      swap1\n      pop\n      jump\t// out\n        /* \"#utility.yul\":1592:1688   */\n    tag_47:\n        /* \"#utility.yul\":1629:1636   */\n      0x00\n        /* \"#utility.yul\":1658:1682   */\n      tag_80\n        /* \"#utility.yul\":1676:1681   */\n      dup3\n        /* \"#utility.yul\":1658:1682   */\n      tag_46\n      jump\t// in\n    tag_80:\n        /* \"#utility.yul\":1647:1682   */\n      swap1\n      pop\n        /* \"#utility.yul\":1592:1688   */\n      swap2\n      swap1\n      pop\n      jump\t// out\n        /* \"#utility.yul\":1694:1816   */\n    tag_48:\n        /* \"#utility.yul\":1767:1791   */\n      tag_82\n        /* \"#utility.yul\":1785:1790   */\n      dup2\n        /* \"#utility.yul\":1767:1791   */\n      tag_47\n      jump\t// in\n    tag_82:\n        /* \"#utility.yul\":1760:1765   */\n      dup2\n        /* \"#utility.yul\":1757:1792   */\n      eq\n        /* \"#utility.yul\":1747:1810   */\n      tag_83\n      jumpi\n        /* \"#utility.yul\":1806:1807   */\n      0x00\n        /* \"#utility.yul\":1803:1804   */\n      dup1\n        /* \"#utility.yul\":1796:1808   */\n      revert\n        /* \"#utility.yul\":1747:1810   */\n    tag_83:\n        /* \"#utility.yul\":1694:1816   */\n      pop\n      jump\t// out\n        /* \"#utility.yul\":1822:1961   */\n    tag_49:\n        /* \"#utility.yul\":1868:1873   */\n      0x00\n        /* \"#utility.yul\":1906:1912   */\n      dup2\n        /* \"#utility.yul\":1893:1913   */\n      calldataload\n        /* \"#utility.yul\":1884:1913   */\n      swap1\n      pop\n        /* \"#utility.yul\":1922:1955   */\n      tag_85\n        /* \"#utility.yul\":1949:1954   */\n      dup2\n        /* \"#utility.yul\":1922:1955   */\n      tag_48\n      jump\t// in\n    tag_85:\n        /* \"#utility.yul\":1822:1961   */\n      swap3\n      swap2\n      pop\n      pop\n      jump\t// out\n        /* \"#utility.yul\":1967:2296   */\n    tag_14:\n        /* \"#utility.yul\":2026:2032   */\n      0x00\n        /* \"#utility.yul\":2075:2077   */\n      0x20\n        /* \"#utility.yul\":2063:2072   */\n      dup3\n        /* \"#utility.yul\":2054:2061   */\n      dup5\n        /* \"#utility.yul\":2050:2073   */\n      sub\n        /* \"#utility.yul\":2046:2078   */\n      slt\n        /* \"#utility.yul\":2043:2162   */\n      iszero\n      tag_87\n      jumpi\n        /* \"#utility.yul\":2081:2160   */\n      tag_88\n      tag_39\n      jump\t// in\n    tag_88:\n        /* \"#utility.yul\":2043:2162   */\n    tag_87:\n        /* \"#utility.yul\":2201:2202   */\n      0x00\n        /* \"#utility.yul\":2226:2279   */\n      tag_89\n        /* \"#utility.yul\":2271:2278   */\n      dup5\n        /* \"#utility.yul\":2262:2268   */\n      dup3\n        /* \"#utility.yul\":2251:2260   */\n      dup6\n        /* \"#utility.yul\":2247:2269   */\n      add\n        /* \"#utility.yul\":2226:2279   */\n      tag_49\n      jump\t// in\n    tag_89:\n        /* \"#utility.yul\":2216:2279   */\n      swap2\n      pop\n        /* \"#utility.yul\":2172:2289   */\n      pop\n        /* \"#utility.yul\":1967:2296   */\n      swap3\n      swap2\n      pop\n      pop\n      jump\t// out\n        /* \"#utility.yul\":2302:2419   */\n    tag_50:\n        /* \"#utility.yul\":2411:2412   */\n      0x00\n        /* \"#utility.yul\":2408:2409   */\n      dup1\n        /* \"#utility.yul\":2401:2413   */\n      revert\n        /* \"#utility.yul\":2425:2542   */\n    tag_51:\n        /* \"#utility.yul\":2534:2535   */\n      0x00\n        /* \"#utility.yul\":2531:2532   */\n      dup1\n        /* \"#utility.yul\":2524:2536   */\n      revert\n        /* \"#utility.yul\":2548:2665   */\n    tag_52:\n        /* \"#utility.yul\":2657:2658   */\n      0x00\n        /* \"#utility.yul\":2654:2655   */\n      dup1\n        /* \"#utility.yul\":2647:2659   */\n      revert\n        /* \"#utility.yul\":2685:3238   */\n    tag_53:\n        /* \"#utility.yul\":2743:2751   */\n      0x00\n        /* \"#utility.yul\":2753:2759   */\n      dup1\n        /* \"#utility.yul\":2803:2806   */\n      dup4\n        /* \"#utility.yul\":2796:2800   */\n      0x1f\n        /* \"#utility.yul\":2788:2794   */\n      dup5\n        /* \"#utility.yul\":2784:2801   */\n      add\n        /* \"#utility.yul\":2780:2807   */\n      slt\n        /* \"#utility.yul\":2770:2892   */\n      tag_94\n      jumpi\n        /* \"#utility.yul\":2811:2890   */\n      tag_95\n      tag_50\n      jump\t// in\n    tag_95:\n        /* \"#utility.yul\":2770:2892   */\n    tag_94:\n        /* \"#utility.yul\":2924:2930   */\n      dup3\n        /* \"#utility.yul\":2911:2931   */\n      calldataload\n        /* \"#utility.yul\":2901:2931   */\n      swap1\n      pop\n        /* \"#utility.yul\":2954:2972   */\n      0xffffffffffffffff\n        /* \"#utility.yul\":2946:2952   */\n      dup2\n        /* \"#utility.yul\":2943:2973   */\n      gt\n        /* \"#utility.yul\":2940:3057   */\n      iszero\n      tag_96\n      jumpi\n        /* \"#utility.yul\":2976:3055   */\n      tag_97\n      tag_51\n      jump\t// in\n    tag_97:\n        /* \"#utility.yul\":2940:3057   */\n    tag_96:\n        /* \"#utility.yul\":3090:3094   */\n      0x20\n        /* \"#utility.yul\":3082:3088   */\n      dup4\n        /* \"#utility.yul\":3078:3095   */\n      add\n        /* \"#utility.yul\":3066:3095   */\n      swap2\n      pop\n        /* \"#utility.yul\":3144:3147   */\n      dup4\n        /* \"#utility.yul\":3136:3140   */\n      0x01\n        /* \"#utility.yul\":3128:3134   */\n      dup3\n        /* \"#utility.yul\":3124:3141   */\n      mul\n        /* \"#utility.yul\":3114:3122   */\n      dup4\n        /* \"#utility.yul\":3110:3142   */\n      add\n        /* \"#utility.yul\":3107:3148   */\n      gt\n        /* \"#utility.yul\":3104:3232   */\n      iszero\n      tag_98\n      jumpi\n        /* \"#utility.yul\":3151:3230   */\n      tag_99\n      tag_52\n      jump\t// in\n    tag_99:\n        /* \"#utility.yul\":3104:3232   */\n    tag_98:\n        /* \"#utility.yul\":2685:3238   */\n      swap3\n      pop\n      swap3\n      swap1\n      pop\n      jump\t// out\n        /* \"#utility.yul\":3244:3773   */\n    tag_18:\n        /* \"#utility.yul\":3315:3321   */\n      0x00\n        /* \"#utility.yul\":3323:3329   */\n      dup1\n        /* \"#utility.yul\":3372:3374   */\n      0x20\n        /* \"#utility.yul\":3360:3369   */\n      dup4\n        /* \"#utility.yul\":3351:3358   */\n      dup6\n        /* \"#utility.yul\":3347:3370   */\n      sub\n        /* \"#utility.yul\":3343:3375   */\n      slt\n        /* \"#utility.yul\":3340:3459   */\n      iszero\n      tag_101\n      jumpi\n        /* \"#utility.yul\":3378:3457   */\n      tag_102\n      tag_39\n      jump\t// in\n    tag_102:\n        /* \"#utility.yul\":3340:3459   */\n    tag_101:\n        /* \"#utility.yul\":3526:3527   */\n      0x00\n        /* \"#utility.yul\":3515:3524   */\n      dup4\n        /* \"#utility.yul\":3511:3528   */\n      add\n        /* \"#utility.yul\":3498:3529   */\n      calldataload\n        /* \"#utility.yul\":3556:3574   */\n      0xffffffffffffffff\n        /* \"#utility.yul\":3548:3554   */\n      dup2\n        /* \"#utility.yul\":3545:3575   */\n      gt\n        /* \"#utility.yul\":3542:3659   */\n      iszero\n      tag_103\n      jumpi\n        /* \"#utility.yul\":3578:3657   */\n      tag_104\n      tag_40\n      jump\t// in\n    tag_104:\n        /* \"#utility.yul\":3542:3659   */\n    tag_103:\n        /* \"#utility.yul\":3691:3756   */\n      tag_105\n        /* \"#utility.yul\":3748:3755   */\n      dup6\n        /* \"#utility.yul\":3739:3745   */\n      dup3\n        /* \"#utility.yul\":3728:3737   */\n      dup7\n        /* \"#utility.yul\":3724:3746   */\n      add\n        /* \"#utility.yul\":3691:3756   */\n      tag_53\n      jump\t// in\n    tag_105:\n        /* \"#utility.yul\":3673:3756   */\n      swap3\n      pop\n      swap3\n      pop\n        /* \"#utility.yul\":3469:3766   */\n      pop\n        /* \"#utility.yul\":3244:3773   */\n      swap3\n      pop\n      swap3\n      swap1\n      pop\n      jump\t// out\n        /* \"#utility.yul\":3779:3897   */\n    tag_54:\n        /* \"#utility.yul\":3866:3890   */\n      tag_107\n        /* \"#utility.yul\":3884:3889   */\n      dup2\n        /* \"#utility.yul\":3866:3890   */\n      tag_47\n      jump\t// in\n    tag_107:\n        /* \"#utility.yul\":3861:3864   */\n      dup3\n        /* \"#utility.yul\":3854:3891   */\n      mstore\n        /* \"#utility.yul\":3779:3897   */\n      pop\n      pop\n      jump\t// out\n        /* \"#utility.yul\":3903:4125   */\n    tag_26:\n        /* \"#utility.yul\":3996:4000   */\n      0x00\n        /* \"#utility.yul\":4034:4036   */\n      0x20\n        /* \"#utility.yul\":4023:4032   */\n      dup3\n        /* \"#utility.yul\":4019:4037   */\n      add\n        /* \"#utility.yul\":4011:4037   */\n      swap1\n      pop\n        /* \"#utility.yul\":4047:4118   */\n      tag_109\n        /* \"#utility.yul\":4115:4116   */\n      0x00\n        /* \"#utility.yul\":4104:4113   */\n      dup4\n        /* \"#utility.yul\":4100:4117   */\n      add\n        /* \"#utility.yul\":4091:4097   */\n      dup5\n        /* \"#utility.yul\":4047:4118   */\n      tag_54\n      jump\t// in\n    tag_109:\n        /* \"#utility.yul\":3903:4125   */\n      swap3\n      swap2\n      pop\n      pop\n      jump\t// out\n        /* \"#utility.yul\":4131:4300   */\n    tag_55:\n        /* \"#utility.yul\":4215:4226   */\n      0x00\n        /* \"#utility.yul\":4249:4255   */\n      dup3\n        /* \"#utility.yul\":4244:4247   */\n      dup3\n        /* \"#utility.yul\":4237:4256   */\n      mstore\n        /* \"#utility.yul\":4289:4293   */\n      0x20\n        /* \"#utility.yul\":4284:4287   */\n      dup3\n        /* \"#utility.yul\":4280:4294   */\n      add\n        /* \"#utility.yul\":4265:4294   */\n      swap1\n      pop\n        /* \"#utility.yul\":4131:4300   */\n      swap3\n      swap2\n      pop\n      pop\n      jump\t// out\n        /* \"#utility.yul\":4306:4454   */\n    tag_56:\n        /* \"#utility.yul\":4404:4410   */\n      dup3\n        /* \"#utility.yul\":4399:4402   */\n      dup2\n        /* \"#utility.yul\":4394:4397   */\n      dup4\n        /* \"#utility.yul\":4381:4411   */\n      calldatacopy\n        /* \"#utility.yul\":4445:4446   */\n      0x00\n        /* \"#utility.yul\":4436:4442   */\n      dup4\n        /* \"#utility.yul\":4431:4434   */\n      dup4\n        /* \"#utility.yul\":4427:4443   */\n      add\n        /* \"#utility.yul\":4420:4447   */\n      mstore\n        /* \"#utility.yul\":4306:4454   */\n      pop\n      pop\n      pop\n      jump\t// out\n        /* \"#utility.yul\":4460:4562   */\n    tag_57:\n        /* \"#utility.yul\":4501:4507   */\n      0x00\n        /* \"#utility.yul\":4552:4554   */\n      0x1f\n        /* \"#utility.yul\":4548:4555   */\n      not\n        /* \"#utility.yul\":4543:4545   */\n      0x1f\n        /* \"#utility.yul\":4536:4541   */\n      dup4\n        /* \"#utility.yul\":4532:4546   */\n      add\n        /* \"#utility.yul\":4528:4556   */\n      and\n        /* \"#utility.yul\":4518:4556   */\n      swap1\n      pop\n        /* \"#utility.yul\":4460:4562   */\n      swap2\n      swap1\n      pop\n      jump\t// out\n        /* \"#utility.yul\":4592:4909   */\n    tag_58:\n        /* \"#utility.yul\":4690:4693   */\n      0x00\n        /* \"#utility.yul\":4711:4782   */\n      tag_114\n        /* \"#utility.yul\":4775:4781   */\n      dup4\n        /* \"#utility.yul\":4770:4773   */\n      dup6\n        /* \"#utility.yul\":4711:4782   */\n      tag_55\n      jump\t// in\n    tag_114:\n        /* \"#utility.yul\":4704:4782   */\n      swap4\n      pop\n        /* \"#utility.yul\":4792:4848   */\n      tag_115\n        /* \"#utility.yul\":4841:4847   */\n      dup4\n        /* \"#utility.yul\":4836:4839   */\n      dup6\n        /* \"#utility.yul\":4829:4834   */\n      dup5\n        /* \"#utility.yul\":4792:4848   */\n      tag_56\n      jump\t// in\n    tag_115:\n        /* \"#utility.yul\":4873:4902   */\n      tag_116\n        /* \"#utility.yul\":4895:4901   */\n      dup4\n        /* \"#utility.yul\":4873:4902   */\n      tag_57\n      jump\t// in\n    tag_116:\n        /* \"#utility.yul\":4868:4871   */\n      dup5\n        /* \"#utility.yul\":4864:4903   */\n      add\n        /* \"#utility.yul\":4857:4903   */\n      swap1\n      pop\n        /* \"#utility.yul\":4592:4909   */\n      swap4\n      swap3\n      pop\n      pop\n      pop\n      jump\t// out\n        /* \"#utility.yul\":4915:5248   */\n    tag_34:\n        /* \"#utility.yul\":5038:5042   */\n      0x00\n        /* \"#utility.yul\":5076:5078   */\n      0x20\n        /* \"#utility.yul\":5065:5074   */\n      dup3\n        /* \"#utility.yul\":5061:5079   */\n      add\n        /* \"#utility.yul\":5053:5079   */\n      swap1\n      pop\n        /* \"#utility.yul\":5125:5134   */\n      dup2\n        /* \"#utility.yul\":5119:5123   */\n      dup2\n        /* \"#utility.yul\":5115:5135   */\n      sub\n        /* \"#utility.yul\":5111:5112   */\n      0x00\n        /* \"#utility.yul\":5100:5109   */\n      dup4\n        /* \"#utility.yul\":5096:5113   */\n      add\n        /* \"#utility.yul\":5089:5136   */\n      mstore\n        /* \"#utility.yul\":5153:5241   */\n      tag_118\n        /* \"#utility.yul\":5236:5240   */\n      dup2\n        /* \"#utility.yul\":5227:5233   */\n      dup5\n        /* \"#utility.yul\":5219:5225   */\n      dup7\n        /* \"#utility.yul\":5153:5241   */\n      tag_58\n      jump\t// in\n    tag_118:\n        /* \"#utility.yul\":5145:5241   */\n      swap1\n      pop\n        /* \"#utility.yul\":4915:5248   */\n      swap4\n      swap3\n      pop\n      pop\n      pop\n      jump\t// out\n    stop\n\n    sub_0: assembly {\n            /* \"Example_Factory/Factory1.sol\":750:1109  contract AddressRecord is RecordParent{... */\n          mstore(0x40, 0xa0)\n            /* \"Example_Factory/Factory1.sol\":822:914  constructor(address _record) RecordParent(block.timestamp) {... */\n          callvalue\n          dup1\n          iszero\n          tag_1\n          jumpi\n          0x00\n          dup1\n          revert\n        tag_1:\n          pop\n          mload(0x40)\n          sub(codesize, bytecodeSize)\n          dup1\n          bytecodeSize\n          dup4\n          codecopy\n          dup2\n          dup2\n          add\n          0x40\n          mstore\n          dup2\n          add\n          swap1\n          tag_2\n          swap2\n          swap1\n          tag_3\n          jump\t// in\n        tag_2:\n            /* \"Example_Factory/Factory1.sol\":864:879  block.timestamp */\n          timestamp\n            /* \"Example_Factory/Factory1.sol\":647:662  _timeOfCreation */\n          dup1\n            /* \"Example_Factory/Factory1.sol\":630:662  timeOfCreation = _timeOfCreation */\n          0x80\n          dup2\n          dup2\n          mstore\n          pop\n          pop\n            /* \"Example_Factory/Factory1.sol\":583:669  constructor (uint256 _timeOfCreation){... */\n          pop\n            /* \"Example_Factory/Factory1.sol\":900:907  _record */\n          dup1\n            /* \"Example_Factory/Factory1.sol\":891:897  record */\n          0x00\n          dup1\n            /* \"Example_Factory/Factory1.sol\":891:907  record = _record */\n          0x0100\n          exp\n          dup2\n          sload\n          dup2\n          0xffffffffffffffffffffffffffffffffffffffff\n          mul\n          not\n          and\n          swap1\n          dup4\n          0xffffffffffffffffffffffffffffffffffffffff\n          and\n          mul\n          or\n          swap1\n          sstore\n          pop\n            /* \"Example_Factory/Factory1.sol\":822:914  constructor(address _record) RecordParent(block.timestamp) {... */\n          pop\n            /* \"Example_Factory/Factory1.sol\":750:1109  contract AddressRecord is RecordParent{... */\n          jump(tag_8)\n            /* \"#utility.yul\":88:205   */\n        tag_10:\n            /* \"#utility.yul\":197:198   */\n          0x00\n            /* \"#utility.yul\":194:195   */\n          dup1\n            /* \"#utility.yul\":187:199   */\n          revert\n            /* \"#utility.yul\":334:460   */\n        tag_12:\n            /* \"#utility.yul\":371:378   */\n          0x00\n            /* \"#utility.yul\":411:453   */\n          0xffffffffffffffffffffffffffffffffffffffff\n            /* \"#utility.yul\":404:409   */\n          dup3\n            /* \"#utility.yul\":400:454   */\n          and\n            /* \"#utility.yul\":389:454   */\n          swap1\n          pop\n            /* \"#utility.yul\":334:460   */\n          swap2\n          swap1\n          pop\n          jump\t// out\n            /* \"#utility.yul\":466:562   */\n        tag_13:\n            /* \"#utility.yul\":503:510   */\n          0x00\n            /* \"#utility.yul\":532:556   */\n          tag_22\n            /* \"#utility.yul\":550:555   */\n          dup3\n            /* \"#utility.yul\":532:556   */\n          tag_12\n          jump\t// in\n        tag_22:\n            /* \"#utility.yul\":521:556   */\n          swap1\n          pop\n            /* \"#utility.yul\":466:562   */\n          swap2\n          swap1\n          pop\n          jump\t// out\n            /* \"#utility.yul\":568:690   */\n        tag_14:\n            /* \"#utility.yul\":641:665   */\n          tag_24\n            /* \"#utility.yul\":659:664   */\n          dup2\n            /* \"#utility.yul\":641:665   */\n          tag_13\n          jump\t// in\n        tag_24:\n            /* \"#utility.yul\":634:639   */\n          dup2\n            /* \"#utility.yul\":631:666   */\n          eq\n            /* \"#utility.yul\":621:684   */\n          tag_25\n          jumpi\n            /* \"#utility.yul\":680:681   */\n          0x00\n            /* \"#utility.yul\":677:678   */\n          dup1\n            /* \"#utility.yul\":670:682   */\n          revert\n            /* \"#utility.yul\":621:684   */\n        tag_25:\n            /* \"#utility.yul\":568:690   */\n          pop\n          jump\t// out\n            /* \"#utility.yul\":696:839   */\n        tag_15:\n            /* \"#utility.yul\":753:758   */\n          0x00\n            /* \"#utility.yul\":784:790   */\n          dup2\n            /* \"#utility.yul\":778:791   */\n          mload\n            /* \"#utility.yul\":769:791   */\n          swap1\n          pop\n            /* \"#utility.yul\":800:833   */\n          tag_27\n            /* \"#utility.yul\":827:832   */\n          dup2\n            /* \"#utility.yul\":800:833   */\n          tag_14\n          jump\t// in\n        tag_27:\n            /* \"#utility.yul\":696:839   */\n          swap3\n          swap2\n          pop\n          pop\n          jump\t// out\n            /* \"#utility.yul\":845:1196   */\n        tag_3:\n            /* \"#utility.yul\":915:921   */\n          0x00\n            /* \"#utility.yul\":964:966   */\n          0x20\n            /* \"#utility.yul\":952:961   */\n          dup3\n            /* \"#utility.yul\":943:950   */\n          dup5\n            /* \"#utility.yul\":939:962   */\n          sub\n            /* \"#utility.yul\":935:967   */\n          slt\n            /* \"#utility.yul\":932:1051   */\n          iszero\n          tag_29\n          jumpi\n            /* \"#utility.yul\":970:1049   */\n          tag_30\n          tag_10\n          jump\t// in\n        tag_30:\n            /* \"#utility.yul\":932:1051   */\n        tag_29:\n            /* \"#utility.yul\":1090:1091   */\n          0x00\n            /* \"#utility.yul\":1115:1179   */\n          tag_31\n            /* \"#utility.yul\":1171:1178   */\n          dup5\n            /* \"#utility.yul\":1162:1168   */\n          dup3\n            /* \"#utility.yul\":1151:1160   */\n          dup6\n            /* \"#utility.yul\":1147:1169   */\n          add\n            /* \"#utility.yul\":1115:1179   */\n          tag_15\n          jump\t// in\n        tag_31:\n            /* \"#utility.yul\":1105:1179   */\n          swap2\n          pop\n            /* \"#utility.yul\":1061:1189   */\n          pop\n            /* \"#utility.yul\":845:1196   */\n          swap3\n          swap2\n          pop\n          pop\n          jump\t// out\n            /* \"Example_Factory/Factory1.sol\":750:1109  contract AddressRecord is RecordParent{... */\n        tag_8:\n          mload(0x80)\n          codecopy(0x00, dataOffset(sub_0), dataSize(sub_0))\n          0x00\n          assignImmutable(\"0x5ae62207e7adee0b793bf869601474e77943fa4d9e3e0420f34d788e59bc19bd\")\n          return(0x00, dataSize(sub_0))\n        stop\n\n        sub_0: assembly {\n                /* \"Example_Factory/Factory1.sol\":750:1109  contract AddressRecord is RecordParent{... */\n              mstore(0x40, 0x80)\n              callvalue\n              dup1\n              iszero\n              tag_1\n              jumpi\n              0x00\n              dup1\n              revert\n            tag_1:\n              pop\n              jumpi(tag_2, lt(calldatasize, 0x04))\n              shr(0xe0, calldataload(0x00))\n              dup1\n              0x0781f5c9\n              eq\n              tag_3\n              jumpi\n              dup1\n              0x1dcd69ec\n              eq\n              tag_4\n              jumpi\n              dup1\n              0x266cf109\n              eq\n              tag_5\n              jumpi\n              dup1\n              0xc37787d9\n              eq\n              tag_6\n              jumpi\n            tag_2:\n              0x00\n              dup1\n              revert\n                /* \"Example_Factory/Factory1.sol\":924:1028  function getRecordType() external pure override returns (string memory){... */\n            tag_3:\n              tag_7\n              tag_8\n              jump\t// in\n            tag_7:\n              mload(0x40)\n              tag_9\n              swap2\n              swap1\n              tag_10\n              jump\t// in\n            tag_9:\n              mload(0x40)\n              dup1\n              swap2\n              sub\n              swap1\n              return\n                /* \"Example_Factory/Factory1.sol\":538:577  uint256 public immutable timeOfCreation */\n            tag_4:\n              tag_11\n              tag_12\n              jump\t// in\n            tag_11:\n              mload(0x40)\n              tag_13\n              swap2\n              swap1\n              tag_14\n              jump\t// in\n            tag_13:\n              mload(0x40)\n              dup1\n              swap2\n              sub\n              swap1\n              return\n                /* \"Example_Factory/Factory1.sol\":794:815  address public record */\n            tag_5:\n              tag_15\n              tag_16\n              jump\t// in\n            tag_15:\n              mload(0x40)\n              tag_17\n              swap2\n              swap1\n              tag_18\n              jump\t// in\n            tag_17:\n              mload(0x40)\n              dup1\n              swap2\n              sub\n              swap1\n              return\n                /* \"Example_Factory/Factory1.sol\":1034:1106  function setRecord(address _addr) public {... */\n            tag_6:\n              tag_19\n              0x04\n              dup1\n              calldatasize\n              sub\n              dup2\n              add\n              swap1\n              tag_20\n              swap2\n              swap1\n              tag_21\n              jump\t// in\n            tag_20:\n              tag_22\n              jump\t// in\n            tag_19:\n              stop\n                /* \"Example_Factory/Factory1.sol\":924:1028  function getRecordType() external pure override returns (string memory){... */\n            tag_8:\n                /* \"Example_Factory/Factory1.sol\":981:994  string memory */\n              0x60\n                /* \"Example_Factory/Factory1.sol\":1005:1021  return \"address\" */\n              mload(0x40)\n              dup1\n              0x40\n              add\n              0x40\n              mstore\n              dup1\n              0x07\n              dup2\n              mstore\n              0x20\n              add\n              0x6164647265737300000000000000000000000000000000000000000000000000\n              dup2\n              mstore\n              pop\n              swap1\n              pop\n                /* \"Example_Factory/Factory1.sol\":924:1028  function getRecordType() external pure override returns (string memory){... */\n              swap1\n              jump\t// out\n                /* \"Example_Factory/Factory1.sol\":538:577  uint256 public immutable timeOfCreation */\n            tag_12:\n              immutable(\"0x5ae62207e7adee0b793bf869601474e77943fa4d9e3e0420f34d788e59bc19bd\")\n              dup2\n              jump\t// out\n                /* \"Example_Factory/Factory1.sol\":794:815  address public record */\n            tag_16:\n              0x00\n              dup1\n              sload\n              swap1\n              0x0100\n              exp\n              swap1\n              div\n              0xffffffffffffffffffffffffffffffffffffffff\n              and\n              dup2\n              jump\t// out\n                /* \"Example_Factory/Factory1.sol\":1034:1106  function setRecord(address _addr) public {... */\n            tag_22:\n                /* \"Example_Factory/Factory1.sol\":1094:1099  _addr */\n              dup1\n                /* \"Example_Factory/Factory1.sol\":1085:1091  record */\n              0x00\n              dup1\n                /* \"Example_Factory/Factory1.sol\":1085:1099  record = _addr */\n              0x0100\n              exp\n              dup2\n              sload\n              dup2\n              0xffffffffffffffffffffffffffffffffffffffff\n              mul\n              not\n              and\n              swap1\n              dup4\n              0xffffffffffffffffffffffffffffffffffffffff\n              and\n              mul\n              or\n              swap1\n              sstore\n              pop\n                /* \"Example_Factory/Factory1.sol\":1034:1106  function setRecord(address _addr) public {... */\n              pop\n              jump\t// out\n                /* \"#utility.yul\":7:106   */\n            tag_25:\n                /* \"#utility.yul\":59:65   */\n              0x00\n                /* \"#utility.yul\":93:98   */\n              dup2\n                /* \"#utility.yul\":87:99   */\n              mload\n                /* \"#utility.yul\":77:99   */\n              swap1\n              pop\n                /* \"#utility.yul\":7:106   */\n              swap2\n              swap1\n              pop\n              jump\t// out\n                /* \"#utility.yul\":112:281   */\n            tag_26:\n                /* \"#utility.yul\":196:207   */\n              0x00\n                /* \"#utility.yul\":230:236   */\n              dup3\n                /* \"#utility.yul\":225:228   */\n              dup3\n                /* \"#utility.yul\":218:237   */\n              mstore\n                /* \"#utility.yul\":270:274   */\n              0x20\n                /* \"#utility.yul\":265:268   */\n              dup3\n                /* \"#utility.yul\":261:275   */\n              add\n                /* \"#utility.yul\":246:275   */\n              swap1\n              pop\n                /* \"#utility.yul\":112:281   */\n              swap3\n              swap2\n              pop\n              pop\n              jump\t// out\n                /* \"#utility.yul\":287:426   */\n            tag_27:\n                /* \"#utility.yul\":376:382   */\n              dup3\n                /* \"#utility.yul\":371:374   */\n              dup2\n                /* \"#utility.yul\":366:369   */\n              dup4\n                /* \"#utility.yul\":360:383   */\n              mcopy\n                /* \"#utility.yul\":417:418   */\n              0x00\n                /* \"#utility.yul\":408:414   */\n              dup4\n                /* \"#utility.yul\":403:406   */\n              dup4\n                /* \"#utility.yul\":399:415   */\n              add\n                /* \"#utility.yul\":392:419   */\n              mstore\n                /* \"#utility.yul\":287:426   */\n              pop\n              pop\n              pop\n              jump\t// out\n                /* \"#utility.yul\":432:534   */\n            tag_28:\n                /* \"#utility.yul\":473:479   */\n              0x00\n                /* \"#utility.yul\":524:526   */\n              0x1f\n                /* \"#utility.yul\":520:527   */\n              not\n                /* \"#utility.yul\":515:517   */\n              0x1f\n                /* \"#utility.yul\":508:513   */\n              dup4\n                /* \"#utility.yul\":504:518   */\n              add\n                /* \"#utility.yul\":500:528   */\n              and\n                /* \"#utility.yul\":490:528   */\n              swap1\n              pop\n                /* \"#utility.yul\":432:534   */\n              swap2\n              swap1\n              pop\n              jump\t// out\n                /* \"#utility.yul\":540:917   */\n            tag_29:\n                /* \"#utility.yul\":628:631   */\n              0x00\n                /* \"#utility.yul\":656:695   */\n              tag_46\n                /* \"#utility.yul\":689:694   */\n              dup3\n                /* \"#utility.yul\":656:695   */\n              tag_25\n              jump\t// in\n            tag_46:\n                /* \"#utility.yul\":711:782   */\n              tag_47\n                /* \"#utility.yul\":775:781   */\n              dup2\n                /* \"#utility.yul\":770:773   */\n              dup6\n                /* \"#utility.yul\":711:782   */\n              tag_26\n              jump\t// in\n            tag_47:\n                /* \"#utility.yul\":704:782   */\n              swap4\n              pop\n                /* \"#utility.yul\":791:856   */\n              tag_48\n                /* \"#utility.yul\":849:855   */\n              dup2\n                /* \"#utility.yul\":844:847   */\n              dup6\n                /* \"#utility.yul\":837:841   */\n              0x20\n                /* \"#utility.yul\":830:835   */\n              dup7\n                /* \"#utility.yul\":826:842   */\n              add\n                /* \"#utility.yul\":791:856   */\n              tag_27\n              jump\t// in\n            tag_48:\n                /* \"#utility.yul\":881:910   */\n              tag_49\n                /* \"#utility.yul\":903:909   */\n              dup2\n                /* \"#utility.yul\":881:910   */\n              tag_28\n              jump\t// in\n            tag_49:\n                /* \"#utility.yul\":876:879   */\n              dup5\n                /* \"#utility.yul\":872:911   */\n              add\n                /* \"#utility.yul\":865:911   */\n              swap2\n              pop\n                /* \"#utility.yul\":632:917   */\n              pop\n                /* \"#utility.yul\":540:917   */\n              swap3\n              swap2\n              pop\n              pop\n              jump\t// out\n                /* \"#utility.yul\":923:1236   */\n            tag_10:\n                /* \"#utility.yul\":1036:1040   */\n              0x00\n                /* \"#utility.yul\":1074:1076   */\n              0x20\n                /* \"#utility.yul\":1063:1072   */\n              dup3\n                /* \"#utility.yul\":1059:1077   */\n              add\n                /* \"#utility.yul\":1051:1077   */\n              swap1\n              pop\n                /* \"#utility.yul\":1123:1132   */\n              dup2\n                /* \"#utility.yul\":1117:1121   */\n              dup2\n                /* \"#utility.yul\":1113:1133   */\n              sub\n                /* \"#utility.yul\":1109:1110   */\n              0x00\n                /* \"#utility.yul\":1098:1107   */\n              dup4\n                /* \"#utility.yul\":1094:1111   */\n              add\n                /* \"#utility.yul\":1087:1134   */\n              mstore\n                /* \"#utility.yul\":1151:1229   */\n              tag_51\n                /* \"#utility.yul\":1224:1228   */\n              dup2\n                /* \"#utility.yul\":1215:1221   */\n              dup5\n                /* \"#utility.yul\":1151:1229   */\n              tag_29\n              jump\t// in\n            tag_51:\n                /* \"#utility.yul\":1143:1229   */\n              swap1\n              pop\n                /* \"#utility.yul\":923:1236   */\n              swap3\n              swap2\n              pop\n              pop\n              jump\t// out\n                /* \"#utility.yul\":1242:1319   */\n            tag_30:\n                /* \"#utility.yul\":1279:1286   */\n              0x00\n                /* \"#utility.yul\":1308:1313   */\n              dup2\n                /* \"#utility.yul\":1297:1313   */\n              swap1\n              pop\n                /* \"#utility.yul\":1242:1319   */\n              swap2\n              swap1\n              pop\n              jump\t// out\n                /* \"#utility.yul\":1325:1443   */\n            tag_31:\n                /* \"#utility.yul\":1412:1436   */\n              tag_54\n                /* \"#utility.yul\":1430:1435   */\n              dup2\n                /* \"#utility.yul\":1412:1436   */\n              tag_30\n              jump\t// in\n            tag_54:\n                /* \"#utility.yul\":1407:1410   */\n              dup3\n                /* \"#utility.yul\":1400:1437   */\n              mstore\n                /* \"#utility.yul\":1325:1443   */\n              pop\n              pop\n              jump\t// out\n                /* \"#utility.yul\":1449:1671   */\n            tag_14:\n                /* \"#utility.yul\":1542:1546   */\n              0x00\n                /* \"#utility.yul\":1580:1582   */\n              0x20\n                /* \"#utility.yul\":1569:1578   */\n              dup3\n                /* \"#utility.yul\":1565:1583   */\n              add\n                /* \"#utility.yul\":1557:1583   */\n              swap1\n              pop\n                /* \"#utility.yul\":1593:1664   */\n              tag_56\n                /* \"#utility.yul\":1661:1662   */\n              0x00\n                /* \"#utility.yul\":1650:1659   */\n              dup4\n                /* \"#utility.yul\":1646:1663   */\n              add\n                /* \"#utility.yul\":1637:1643   */\n              dup5\n                /* \"#utility.yul\":1593:1664   */\n              tag_31\n              jump\t// in\n            tag_56:\n                /* \"#utility.yul\":1449:1671   */\n              swap3\n              swap2\n              pop\n              pop\n              jump\t// out\n                /* \"#utility.yul\":1677:1803   */\n            tag_32:\n                /* \"#utility.yul\":1714:1721   */\n              0x00\n                /* \"#utility.yul\":1754:1796   */\n              0xffffffffffffffffffffffffffffffffffffffff\n                /* \"#utility.yul\":1747:1752   */\n              dup3\n                /* \"#utility.yul\":1743:1797   */\n              and\n                /* \"#utility.yul\":1732:1797   */\n              swap1\n              pop\n                /* \"#utility.yul\":1677:1803   */\n              swap2\n              swap1\n              pop\n              jump\t// out\n                /* \"#utility.yul\":1809:1905   */\n            tag_33:\n                /* \"#utility.yul\":1846:1853   */\n              0x00\n                /* \"#utility.yul\":1875:1899   */\n              tag_59\n                /* \"#utility.yul\":1893:1898   */\n              dup3\n                /* \"#utility.yul\":1875:1899   */\n              tag_32\n              jump\t// in\n            tag_59:\n                /* \"#utility.yul\":1864:1899   */\n              swap1\n              pop\n                /* \"#utility.yul\":1809:1905   */\n              swap2\n              swap1\n              pop\n              jump\t// out\n                /* \"#utility.yul\":1911:2029   */\n            tag_34:\n                /* \"#utility.yul\":1998:2022   */\n              tag_61\n                /* \"#utility.yul\":2016:2021   */\n              dup2\n                /* \"#utility.yul\":1998:2022   */\n              tag_33\n              jump\t// in\n            tag_61:\n                /* \"#utility.yul\":1993:1996   */\n              dup3\n                /* \"#utility.yul\":1986:2023   */\n              mstore\n                /* \"#utility.yul\":1911:2029   */\n              pop\n              pop\n              jump\t// out\n                /* \"#utility.yul\":2035:2257   */\n            tag_18:\n                /* \"#utility.yul\":2128:2132   */\n              0x00\n                /* \"#utility.yul\":2166:2168   */\n              0x20\n                /* \"#utility.yul\":2155:2164   */\n              dup3\n                /* \"#utility.yul\":2151:2169   */\n              add\n                /* \"#utility.yul\":2143:2169   */\n              swap1\n              pop\n                /* \"#utility.yul\":2179:2250   */\n              tag_63\n                /* \"#utility.yul\":2247:2248   */\n              0x00\n                /* \"#utility.yul\":2236:2245   */\n              dup4\n                /* \"#utility.yul\":2232:2249   */\n              add\n                /* \"#utility.yul\":2223:2229   */\n              dup5\n                /* \"#utility.yul\":2179:2250   */\n              tag_34\n              jump\t// in\n            tag_63:\n                /* \"#utility.yul\":2035:2257   */\n              swap3\n              swap2\n              pop\n              pop\n              jump\t// out\n                /* \"#utility.yul\":2344:2461   */\n            tag_36:\n                /* \"#utility.yul\":2453:2454   */\n              0x00\n                /* \"#utility.yul\":2450:2451   */\n              dup1\n                /* \"#utility.yul\":2443:2455   */\n              revert\n                /* \"#utility.yul\":2590:2712   */\n            tag_38:\n                /* \"#utility.yul\":2663:2687   */\n              tag_68\n                /* \"#utility.yul\":2681:2686   */\n              dup2\n                /* \"#utility.yul\":2663:2687   */\n              tag_33\n              jump\t// in\n            tag_68:\n                /* \"#utility.yul\":2656:2661   */\n              dup2\n                /* \"#utility.yul\":2653:2688   */\n              eq\n                /* \"#utility.yul\":2643:2706   */\n              tag_69\n              jumpi\n                /* \"#utility.yul\":2702:2703   */\n              0x00\n                /* \"#utility.yul\":2699:2700   */\n              dup1\n                /* \"#utility.yul\":2692:2704   */\n              revert\n                /* \"#utility.yul\":2643:2706   */\n            tag_69:\n                /* \"#utility.yul\":2590:2712   */\n              pop\n              jump\t// out\n                /* \"#utility.yul\":2718:2857   */\n            tag_39:\n                /* \"#utility.yul\":2764:2769   */\n              0x00\n                /* \"#utility.yul\":2802:2808   */\n              dup2\n                /* \"#utility.yul\":2789:2809   */\n              calldataload\n                /* \"#utility.yul\":2780:2809   */\n              swap1\n              pop\n                /* \"#utility.yul\":2818:2851   */\n              tag_71\n                /* \"#utility.yul\":2845:2850   */\n              dup2\n                /* \"#utility.yul\":2818:2851   */\n              tag_38\n              jump\t// in\n            tag_71:\n                /* \"#utility.yul\":2718:2857   */\n              swap3\n              swap2\n              pop\n              pop\n              jump\t// out\n                /* \"#utility.yul\":2863:3192   */\n            tag_21:\n                /* \"#utility.yul\":2922:2928   */\n              0x00\n                /* \"#utility.yul\":2971:2973   */\n              0x20\n                /* \"#utility.yul\":2959:2968   */\n              dup3\n                /* \"#utility.yul\":2950:2957   */\n              dup5\n                /* \"#utility.yul\":2946:2969   */\n              sub\n                /* \"#utility.yul\":2942:2974   */\n              slt\n                /* \"#utility.yul\":2939:3058   */\n              iszero\n              tag_73\n              jumpi\n                /* \"#utility.yul\":2977:3056   */\n              tag_74\n              tag_36\n              jump\t// in\n            tag_74:\n                /* \"#utility.yul\":2939:3058   */\n            tag_73:\n                /* \"#utility.yul\":3097:3098   */\n              0x00\n                /* \"#utility.yul\":3122:3175   */\n              tag_75\n                /* \"#utility.yul\":3167:3174   */\n              dup5\n                /* \"#utility.yul\":3158:3164   */\n              dup3\n                /* \"#utility.yul\":3147:3156   */\n              dup6\n                /* \"#utility.yul\":3143:3165   */\n              add\n                /* \"#utility.yul\":3122:3175   */\n              tag_39\n              jump\t// in\n            tag_75:\n                /* \"#utility.yul\":3112:3175   */\n              swap2\n              pop\n                /* \"#utility.yul\":3068:3185   */\n              pop\n                /* \"#utility.yul\":2863:3192   */\n              swap3\n              swap2\n              pop\n              pop\n              jump\t// out\n\n            auxdata: 0xa2646970667358221220915e34184188c05531213b9c0eee87075a0a716909679ccfb56d6302747edf2964736f6c634300081a0033\n        }\n    }\n\n    sub_1: assembly {\n            /* \"Example_Factory/Factory1.sol\":1111:1478  contract StringRecord is RecordParent{... */\n          mstore(0x40, 0xa0)\n            /* \"Example_Factory/Factory1.sol\":1181:1279  constructor(string memory _record) RecordParent(block.timestamp) {... */\n          callvalue\n          dup1\n          iszero\n          tag_1\n          jumpi\n          0x00\n          dup1\n          revert\n        tag_1:\n          pop\n          mload(0x40)\n          sub(codesize, bytecodeSize)\n          dup1\n          bytecodeSize\n          dup4\n          codecopy\n          dup2\n          dup2\n          add\n          0x40\n          mstore\n          dup2\n          add\n          swap1\n          tag_2\n          swap2\n          swap1\n          tag_3\n          jump\t// in\n        tag_2:\n            /* \"Example_Factory/Factory1.sol\":1229:1244  block.timestamp */\n          timestamp\n            /* \"Example_Factory/Factory1.sol\":647:662  _timeOfCreation */\n          dup1\n            /* \"Example_Factory/Factory1.sol\":630:662  timeOfCreation = _timeOfCreation */\n          0x80\n          dup2\n          dup2\n          mstore\n          pop\n          pop\n            /* \"Example_Factory/Factory1.sol\":583:669  constructor (uint256 _timeOfCreation){... */\n          pop\n            /* \"Example_Factory/Factory1.sol\":1265:1272  _record */\n          dup1\n            /* \"Example_Factory/Factory1.sol\":1256:1262  record */\n          0x00\n            /* \"Example_Factory/Factory1.sol\":1256:1272  record = _record */\n          swap1\n          dup2\n          tag_8\n          swap2\n          swap1\n          tag_9\n          jump\t// in\n        tag_8:\n          pop\n            /* \"Example_Factory/Factory1.sol\":1181:1279  constructor(string memory _record) RecordParent(block.timestamp) {... */\n          pop\n            /* \"Example_Factory/Factory1.sol\":1111:1478  contract StringRecord is RecordParent{... */\n          jump(tag_10)\n            /* \"#utility.yul\":7:82   */\n        tag_11:\n            /* \"#utility.yul\":40:46   */\n          0x00\n            /* \"#utility.yul\":73:75   */\n          0x40\n            /* \"#utility.yul\":67:76   */\n          mload\n            /* \"#utility.yul\":57:76   */\n          swap1\n          pop\n            /* \"#utility.yul\":7:82   */\n          swap1\n          jump\t// out\n            /* \"#utility.yul\":88:205   */\n        tag_12:\n            /* \"#utility.yul\":197:198   */\n          0x00\n            /* \"#utility.yul\":194:195   */\n          dup1\n            /* \"#utility.yul\":187:199   */\n          revert\n            /* \"#utility.yul\":211:328   */\n        tag_13:\n            /* \"#utility.yul\":320:321   */\n          0x00\n            /* \"#utility.yul\":317:318   */\n          dup1\n            /* \"#utility.yul\":310:322   */\n          revert\n            /* \"#utility.yul\":334:451   */\n        tag_14:\n            /* \"#utility.yul\":443:444   */\n          0x00\n            /* \"#utility.yul\":440:441   */\n          dup1\n            /* \"#utility.yul\":433:445   */\n          revert\n            /* \"#utility.yul\":457:574   */\n        tag_15:\n            /* \"#utility.yul\":566:567   */\n          0x00\n            /* \"#utility.yul\":563:564   */\n          dup1\n            /* \"#utility.yul\":556:568   */\n          revert\n            /* \"#utility.yul\":580:682   */\n        tag_16:\n            /* \"#utility.yul\":621:627   */\n          0x00\n            /* \"#utility.yul\":672:674   */\n          0x1f\n            /* \"#utility.yul\":668:675   */\n          not\n            /* \"#utility.yul\":663:665   */\n          0x1f\n            /* \"#utility.yul\":656:661   */\n          dup4\n            /* \"#utility.yul\":652:666   */\n          add\n            /* \"#utility.yul\":648:676   */\n          and\n            /* \"#utility.yul\":638:676   */\n          swap1\n          pop\n            /* \"#utility.yul\":580:682   */\n          swap2\n          swap1\n          pop\n          jump\t// out\n            /* \"#utility.yul\":688:868   */\n        tag_17:\n            /* \"#utility.yul\":736:813   */\n          0x4e487b7100000000000000000000000000000000000000000000000000000000\n            /* \"#utility.yul\":733:734   */\n          0x00\n            /* \"#utility.yul\":726:814   */\n          mstore\n            /* \"#utility.yul\":833:837   */\n          0x41\n            /* \"#utility.yul\":830:831   */\n          0x04\n            /* \"#utility.yul\":823:838   */\n          mstore\n            /* \"#utility.yul\":857:861   */\n          0x24\n            /* \"#utility.yul\":854:855   */\n          0x00\n            /* \"#utility.yul\":847:862   */\n          revert\n            /* \"#utility.yul\":874:1155   */\n        tag_18:\n            /* \"#utility.yul\":957:984   */\n          tag_52\n            /* \"#utility.yul\":979:983   */\n          dup3\n            /* \"#utility.yul\":957:984   */\n          tag_16\n          jump\t// in\n        tag_52:\n            /* \"#utility.yul\":949:955   */\n          dup2\n            /* \"#utility.yul\":945:985   */\n          add\n            /* \"#utility.yul\":1087:1093   */\n          dup2\n            /* \"#utility.yul\":1075:1085   */\n          dup2\n            /* \"#utility.yul\":1072:1094   */\n          lt\n            /* \"#utility.yul\":1051:1069   */\n          0xffffffffffffffff\n            /* \"#utility.yul\":1039:1049   */\n          dup3\n            /* \"#utility.yul\":1036:1070   */\n          gt\n            /* \"#utility.yul\":1033:1095   */\n          or\n            /* \"#utility.yul\":1030:1118   */\n          iszero\n          tag_53\n          jumpi\n            /* \"#utility.yul\":1098:1116   */\n          tag_54\n          tag_17\n          jump\t// in\n        tag_54:\n            /* \"#utility.yul\":1030:1118   */\n        tag_53:\n            /* \"#utility.yul\":1138:1148   */\n          dup1\n            /* \"#utility.yul\":1134:1136   */\n          0x40\n            /* \"#utility.yul\":1127:1149   */\n          mstore\n            /* \"#utility.yul\":917:1155   */\n          pop\n            /* \"#utility.yul\":874:1155   */\n          pop\n          pop\n          jump\t// out\n            /* \"#utility.yul\":1161:1290   */\n        tag_19:\n            /* \"#utility.yul\":1195:1201   */\n          0x00\n            /* \"#utility.yul\":1222:1242   */\n          tag_56\n          tag_11\n          jump\t// in\n        tag_56:\n            /* \"#utility.yul\":1212:1242   */\n          swap1\n          pop\n            /* \"#utility.yul\":1251:1284   */\n          tag_57\n            /* \"#utility.yul\":1279:1283   */\n          dup3\n            /* \"#utility.yul\":1271:1277   */\n          dup3\n            /* \"#utility.yul\":1251:1284   */\n          tag_18\n          jump\t// in\n        tag_57:\n            /* \"#utility.yul\":1161:1290   */\n          swap2\n          swap1\n          pop\n          jump\t// out\n            /* \"#utility.yul\":1296:1604   */\n        tag_20:\n            /* \"#utility.yul\":1358:1362   */\n          0x00\n            /* \"#utility.yul\":1448:1466   */\n          0xffffffffffffffff\n            /* \"#utility.yul\":1440:1446   */\n          dup3\n            /* \"#utility.yul\":1437:1467   */\n          gt\n            /* \"#utility.yul\":1434:1490   */\n          iszero\n          tag_59\n          jumpi\n            /* \"#utility.yul\":1470:1488   */\n          tag_60\n          tag_17\n          jump\t// in\n        tag_60:\n            /* \"#utility.yul\":1434:1490   */\n        tag_59:\n            /* \"#utility.yul\":1508:1537   */\n          tag_61\n            /* \"#utility.yul\":1530:1536   */\n          dup3\n            /* \"#utility.yul\":1508:1537   */\n          tag_16\n          jump\t// in\n        tag_61:\n            /* \"#utility.yul\":1500:1537   */\n          swap1\n          pop\n            /* \"#utility.yul\":1592:1596   */\n          0x20\n            /* \"#utility.yul\":1586:1590   */\n          dup2\n            /* \"#utility.yul\":1582:1597   */\n          add\n            /* \"#utility.yul\":1574:1597   */\n          swap1\n          pop\n            /* \"#utility.yul\":1296:1604   */\n          swap2\n          swap1\n          pop\n          jump\t// out\n            /* \"#utility.yul\":1610:1749   */\n        tag_21:\n            /* \"#utility.yul\":1699:1705   */\n          dup3\n            /* \"#utility.yul\":1694:1697   */\n          dup2\n            /* \"#utility.yul\":1689:1692   */\n          dup4\n            /* \"#utility.yul\":1683:1706   */\n          mcopy\n            /* \"#utility.yul\":1740:1741   */\n          0x00\n            /* \"#utility.yul\":1731:1737   */\n          dup4\n            /* \"#utility.yul\":1726:1729   */\n          dup4\n            /* \"#utility.yul\":1722:1738   */\n          add\n            /* \"#utility.yul\":1715:1742   */\n          mstore\n            /* \"#utility.yul\":1610:1749   */\n          pop\n          pop\n          pop\n          jump\t// out\n            /* \"#utility.yul\":1755:2189   */\n        tag_22:\n            /* \"#utility.yul\":1844:1849   */\n          0x00\n            /* \"#utility.yul\":1869:1935   */\n          tag_64\n            /* \"#utility.yul\":1885:1934   */\n          tag_65\n            /* \"#utility.yul\":1927:1933   */\n          dup5\n            /* \"#utility.yul\":1885:1934   */\n          tag_20\n          jump\t// in\n        tag_65:\n            /* \"#utility.yul\":1869:1935   */\n          tag_19\n          jump\t// in\n        tag_64:\n            /* \"#utility.yul\":1860:1935   */\n          swap1\n          pop\n            /* \"#utility.yul\":1958:1964   */\n          dup3\n            /* \"#utility.yul\":1951:1956   */\n          dup2\n            /* \"#utility.yul\":1944:1965   */\n          mstore\n            /* \"#utility.yul\":1996:2000   */\n          0x20\n            /* \"#utility.yul\":1989:1994   */\n          dup2\n            /* \"#utility.yul\":1985:2001   */\n          add\n            /* \"#utility.yul\":2034:2037   */\n          dup5\n            /* \"#utility.yul\":2025:2031   */\n          dup5\n            /* \"#utility.yul\":2020:2023   */\n          dup5\n            /* \"#utility.yul\":2016:2032   */\n          add\n            /* \"#utility.yul\":2013:2038   */\n          gt\n            /* \"#utility.yul\":2010:2122   */\n          iszero\n          tag_66\n          jumpi\n            /* \"#utility.yul\":2041:2120   */\n          tag_67\n          tag_15\n          jump\t// in\n        tag_67:\n            /* \"#utility.yul\":2010:2122   */\n        tag_66:\n            /* \"#utility.yul\":2131:2183   */\n          tag_68\n            /* \"#utility.yul\":2176:2182   */\n          dup5\n            /* \"#utility.yul\":2171:2174   */\n          dup3\n            /* \"#utility.yul\":2166:2169   */\n          dup6\n            /* \"#utility.yul\":2131:2183   */\n          tag_21\n          jump\t// in\n        tag_68:\n            /* \"#utility.yul\":1850:2189   */\n          pop\n            /* \"#utility.yul\":1755:2189   */\n          swap4\n          swap3\n          pop\n          pop\n          pop\n          jump\t// out\n            /* \"#utility.yul\":2209:2564   */\n        tag_23:\n            /* \"#utility.yul\":2276:2281   */\n          0x00\n            /* \"#utility.yul\":2325:2328   */\n          dup3\n            /* \"#utility.yul\":2318:2322   */\n          0x1f\n            /* \"#utility.yul\":2310:2316   */\n          dup4\n            /* \"#utility.yul\":2306:2323   */\n          add\n            /* \"#utility.yul\":2302:2329   */\n          slt\n            /* \"#utility.yul\":2292:2414   */\n          tag_70\n          jumpi\n            /* \"#utility.yul\":2333:2412   */\n          tag_71\n          tag_14\n          jump\t// in\n        tag_71:\n            /* \"#utility.yul\":2292:2414   */\n        tag_70:\n            /* \"#utility.yul\":2443:2449   */\n          dup2\n            /* \"#utility.yul\":2437:2450   */\n          mload\n            /* \"#utility.yul\":2468:2558   */\n          tag_72\n            /* \"#utility.yul\":2554:2557   */\n          dup5\n            /* \"#utility.yul\":2546:2552   */\n          dup3\n            /* \"#utility.yul\":2539:2543   */\n          0x20\n            /* \"#utility.yul\":2531:2537   */\n          dup7\n            /* \"#utility.yul\":2527:2544   */\n          add\n            /* \"#utility.yul\":2468:2558   */\n          tag_22\n          jump\t// in\n        tag_72:\n            /* \"#utility.yul\":2459:2558   */\n          swap2\n          pop\n            /* \"#utility.yul\":2282:2564   */\n          pop\n            /* \"#utility.yul\":2209:2564   */\n          swap3\n          swap2\n          pop\n          pop\n          jump\t// out\n            /* \"#utility.yul\":2570:3094   */\n        tag_3:\n            /* \"#utility.yul\":2650:2656   */\n          0x00\n            /* \"#utility.yul\":2699:2701   */\n          0x20\n            /* \"#utility.yul\":2687:2696   */\n          dup3\n            /* \"#utility.yul\":2678:2685   */\n          dup5\n            /* \"#utility.yul\":2674:2697   */\n          sub\n            /* \"#utility.yul\":2670:2702   */\n          slt\n            /* \"#utility.yul\":2667:2786   */\n          iszero\n          tag_74\n          jumpi\n            /* \"#utility.yul\":2705:2784   */\n          tag_75\n          tag_12\n          jump\t// in\n        tag_75:\n            /* \"#utility.yul\":2667:2786   */\n        tag_74:\n            /* \"#utility.yul\":2846:2847   */\n          0x00\n            /* \"#utility.yul\":2835:2844   */\n          dup3\n            /* \"#utility.yul\":2831:2848   */\n          add\n            /* \"#utility.yul\":2825:2849   */\n          mload\n            /* \"#utility.yul\":2876:2894   */\n          0xffffffffffffffff\n            /* \"#utility.yul\":2868:2874   */\n          dup2\n            /* \"#utility.yul\":2865:2895   */\n          gt\n            /* \"#utility.yul\":2862:2979   */\n          iszero\n          tag_76\n          jumpi\n            /* \"#utility.yul\":2898:2977   */\n          tag_77\n          tag_13\n          jump\t// in\n        tag_77:\n            /* \"#utility.yul\":2862:2979   */\n        tag_76:\n            /* \"#utility.yul\":3003:3077   */\n          tag_78\n            /* \"#utility.yul\":3069:3076   */\n          dup5\n            /* \"#utility.yul\":3060:3066   */\n          dup3\n            /* \"#utility.yul\":3049:3058   */\n          dup6\n            /* \"#utility.yul\":3045:3067   */\n          add\n            /* \"#utility.yul\":3003:3077   */\n          tag_23\n          jump\t// in\n        tag_78:\n            /* \"#utility.yul\":2993:3077   */\n          swap2\n          pop\n            /* \"#utility.yul\":2796:3087   */\n          pop\n            /* \"#utility.yul\":2570:3094   */\n          swap3\n          swap2\n          pop\n          pop\n          jump\t// out\n            /* \"#utility.yul\":3100:3199   */\n        tag_24:\n            /* \"#utility.yul\":3152:3158   */\n          0x00\n            /* \"#utility.yul\":3186:3191   */\n          dup2\n            /* \"#utility.yul\":3180:3192   */\n          mload\n            /* \"#utility.yul\":3170:3192   */\n          swap1\n          pop\n            /* \"#utility.yul\":3100:3199   */\n          swap2\n          swap1\n          pop\n          jump\t// out\n            /* \"#utility.yul\":3205:3385   */\n        tag_25:\n            /* \"#utility.yul\":3253:3330   */\n          0x4e487b7100000000000000000000000000000000000000000000000000000000\n            /* \"#utility.yul\":3250:3251   */\n          0x00\n            /* \"#utility.yul\":3243:3331   */\n          mstore\n            /* \"#utility.yul\":3350:3354   */\n          0x22\n            /* \"#utility.yul\":3347:3348   */\n          0x04\n            /* \"#utility.yul\":3340:3355   */\n          mstore\n            /* \"#utility.yul\":3374:3378   */\n          0x24\n            /* \"#utility.yul\":3371:3372   */\n          0x00\n            /* \"#utility.yul\":3364:3379   */\n          revert\n            /* \"#utility.yul\":3391:3711   */\n        tag_26:\n            /* \"#utility.yul\":3435:3441   */\n          0x00\n            /* \"#utility.yul\":3472:3473   */\n          0x02\n            /* \"#utility.yul\":3466:3470   */\n          dup3\n            /* \"#utility.yul\":3462:3474   */\n          div\n            /* \"#utility.yul\":3452:3474   */\n          swap1\n          pop\n            /* \"#utility.yul\":3519:3520   */\n          0x01\n            /* \"#utility.yul\":3513:3517   */\n          dup3\n            /* \"#utility.yul\":3509:3521   */\n          and\n            /* \"#utility.yul\":3540:3558   */\n          dup1\n            /* \"#utility.yul\":3530:3611   */\n          tag_82\n          jumpi\n            /* \"#utility.yul\":3596:3600   */\n          0x7f\n            /* \"#utility.yul\":3588:3594   */\n          dup3\n            /* \"#utility.yul\":3584:3601   */\n          and\n            /* \"#utility.yul\":3574:3601   */\n          swap2\n          pop\n            /* \"#utility.yul\":3530:3611   */\n        tag_82:\n            /* \"#utility.yul\":3658:3660   */\n          0x20\n            /* \"#utility.yul\":3650:3656   */\n          dup3\n            /* \"#utility.yul\":3647:3661   */\n          lt\n            /* \"#utility.yul\":3627:3645   */\n          dup2\n            /* \"#utility.yul\":3624:3662   */\n          sub\n            /* \"#utility.yul\":3621:3705   */\n          tag_83\n          jumpi\n            /* \"#utility.yul\":3677:3695   */\n          tag_84\n          tag_25\n          jump\t// in\n        tag_84:\n            /* \"#utility.yul\":3621:3705   */\n        tag_83:\n            /* \"#utility.yul\":3442:3711   */\n          pop\n            /* \"#utility.yul\":3391:3711   */\n          swap2\n          swap1\n          pop\n          jump\t// out\n            /* \"#utility.yul\":3717:3858   */\n        tag_27:\n            /* \"#utility.yul\":3766:3770   */\n          0x00\n            /* \"#utility.yul\":3789:3792   */\n          dup2\n            /* \"#utility.yul\":3781:3792   */\n          swap1\n          pop\n            /* \"#utility.yul\":3812:3815   */\n          dup2\n            /* \"#utility.yul\":3809:3810   */\n          0x00\n            /* \"#utility.yul\":3802:3816   */\n          mstore\n            /* \"#utility.yul\":3846:3850   */\n          0x20\n            /* \"#utility.yul\":3843:3844   */\n          0x00\n            /* \"#utility.yul\":3833:3851   */\n          keccak256\n            /* \"#utility.yul\":3825:3851   */\n          swap1\n          pop\n            /* \"#utility.yul\":3717:3858   */\n          swap2\n          swap1\n          pop\n          jump\t// out\n            /* \"#utility.yul\":3864:3957   */\n        tag_28:\n            /* \"#utility.yul\":3901:3907   */\n          0x00\n            /* \"#utility.yul\":3948:3950   */\n          0x20\n            /* \"#utility.yul\":3943:3945   */\n          0x1f\n            /* \"#utility.yul\":3936:3941   */\n          dup4\n            /* \"#utility.yul\":3932:3946   */\n          add\n            /* \"#utility.yul\":3928:3951   */\n          div\n            /* \"#utility.yul\":3918:3951   */\n          swap1\n          pop\n            /* \"#utility.yul\":3864:3957   */\n          swap2\n          swap1\n          pop\n          jump\t// out\n            /* \"#utility.yul\":3963:4070   */\n        tag_29:\n            /* \"#utility.yul\":4007:4015   */\n          0x00\n            /* \"#utility.yul\":4057:4062   */\n          dup3\n            /* \"#utility.yul\":4051:4055   */\n          dup3\n            /* \"#utility.yul\":4047:4063   */\n          shl\n            /* \"#utility.yul\":4026:4063   */\n          swap1\n          pop\n            /* \"#utility.yul\":3963:4070   */\n          swap3\n          swap2\n          pop\n          pop\n          jump\t// out\n            /* \"#utility.yul\":4076:4469   */\n        tag_30:\n            /* \"#utility.yul\":4145:4151   */\n          0x00\n            /* \"#utility.yul\":4195:4196   */\n          0x08\n            /* \"#utility.yul\":4183:4193   */\n          dup4\n            /* \"#utility.yul\":4179:4197   */\n          mul\n            /* \"#utility.yul\":4218:4315   */\n          tag_89\n            /* \"#utility.yul\":4248:4314   */\n          0xffffffffffffffffffffffffffffffffffffffffffffffffffffffffffffffff\n            /* \"#utility.yul\":4237:4246   */\n          dup3\n            /* \"#utility.yul\":4218:4315   */\n          tag_29\n          jump\t// in\n        tag_89:\n            /* \"#utility.yul\":4336:4375   */\n          tag_90\n            /* \"#utility.yul\":4366:4374   */\n          dup7\n            /* \"#utility.yul\":4355:4364   */\n          dup4\n            /* \"#utility.yul\":4336:4375   */\n          tag_29\n          jump\t// in\n        tag_90:\n            /* \"#utility.yul\":4324:4375   */\n          swap6\n          pop\n            /* \"#utility.yul\":4408:4412   */\n          dup1\n            /* \"#utility.yul\":4404:4413   */\n          not\n            /* \"#utility.yul\":4397:4402   */\n          dup5\n            /* \"#utility.yul\":4393:4414   */\n          and\n            /* \"#utility.yul\":4384:4414   */\n          swap4\n          pop\n            /* \"#utility.yul\":4457:4461   */\n          dup1\n            /* \"#utility.yul\":4447:4455   */\n          dup7\n            /* \"#utility.yul\":4443:4462   */\n          and\n            /* \"#utility.yul\":4436:4441   */\n          dup5\n            /* \"#utility.yul\":4433:4463   */\n          or\n            /* \"#utility.yul\":4423:4463   */\n          swap3\n          pop\n            /* \"#utility.yul\":4152:4469   */\n          pop\n          pop\n            /* \"#utility.yul\":4076:4469   */\n          swap4\n          swap3\n          pop\n          pop\n          pop\n          jump\t// out\n            /* \"#utility.yul\":4475:4552   */\n        tag_31:\n            /* \"#utility.yul\":4512:4519   */\n          0x00\n            /* \"#utility.yul\":4541:4546   */\n          dup2\n            /* \"#utility.yul\":4530:4546   */\n          swap1\n          pop\n            /* \"#utility.yul\":4475:4552   */\n          swap2\n          swap1\n          pop\n          jump\t// out\n            /* \"#utility.yul\":4558:4618   */\n        tag_32:\n            /* \"#utility.yul\":4586:4589   */\n          0x00\n            /* \"#utility.yul\":4607:4612   */\n          dup2\n            /* \"#utility.yul\":4600:4612   */\n          swap1\n          pop\n            /* \"#utility.yul\":4558:4618   */\n          swap2\n          swap1\n          pop\n          jump\t// out\n            /* \"#utility.yul\":4624:4766   */\n        tag_33:\n            /* \"#utility.yul\":4674:4683   */\n          0x00\n            /* \"#utility.yul\":4707:4760   */\n          tag_94\n            /* \"#utility.yul\":4725:4759   */\n          tag_95\n            /* \"#utility.yul\":4734:4758   */\n          tag_96\n            /* \"#utility.yul\":4752:4757   */\n          dup5\n            /* \"#utility.yul\":4734:4758   */\n          tag_31\n          jump\t// in\n        tag_96:\n            /* \"#utility.yul\":4725:4759   */\n          tag_32\n          jump\t// in\n        tag_95:\n            /* \"#utility.yul\":4707:4760   */\n          tag_31\n          jump\t// in\n        tag_94:\n            /* \"#utility.yul\":4694:4760   */\n          swap1\n          pop\n            /* \"#utility.yul\":4624:4766   */\n          swap2\n          swap1\n          pop\n          jump\t// out\n            /* \"#utility.yul\":4772:4847   */\n        tag_34:\n            /* \"#utility.yul\":4815:4818   */\n          0x00\n            /* \"#utility.yul\":4836:4841   */\n          dup2\n            /* \"#utility.yul\":4829:4841   */\n          swap1\n          pop\n            /* \"#utility.yul\":4772:4847   */\n          swap2\n          swap1\n          pop\n          jump\t// out\n            /* \"#utility.yul\":4853:5122   */\n        tag_35:\n            /* \"#utility.yul\":4963:5002   */\n          tag_99\n            /* \"#utility.yul\":4994:5001   */\n          dup4\n            /* \"#utility.yul\":4963:5002   */\n          tag_33\n          jump\t// in\n        tag_99:\n            /* \"#utility.yul\":5024:5115   */\n          tag_100\n            /* \"#utility.yul\":5073:5114   */\n          tag_101\n            /* \"#utility.yul\":5097:5113   */\n          dup3\n            /* \"#utility.yul\":5073:5114   */\n          tag_34\n          jump\t// in\n        tag_101:\n            /* \"#utility.yul\":5065:5071   */\n          dup5\n            /* \"#utility.yul\":5058:5062   */\n          dup5\n            /* \"#utility.yul\":5052:5063   */\n          sload\n            /* \"#utility.yul\":5024:5115   */\n          tag_30\n          jump\t// in\n        tag_100:\n            /* \"#utility.yul\":5018:5022   */\n          dup3\n            /* \"#utility.yul\":5011:5116   */\n          sstore\n            /* \"#utility.yul\":4929:5122   */\n          pop\n            /* \"#utility.yul\":4853:5122   */\n          pop\n          pop\n          pop\n          jump\t// out\n            /* \"#utility.yul\":5128:5201   */\n        tag_36:\n            /* \"#utility.yul\":5173:5176   */\n          0x00\n            /* \"#utility.yul\":5128:5201   */\n          swap1\n          jump\t// out\n            /* \"#utility.yul\":5207:5396   */\n        tag_37:\n            /* \"#utility.yul\":5284:5316   */\n          tag_104\n          tag_36\n          jump\t// in\n        tag_104:\n            /* \"#utility.yul\":5325:5390   */\n          tag_105\n            /* \"#utility.yul\":5383:5389   */\n          dup2\n            /* \"#utility.yul\":5375:5381   */\n          dup5\n            /* \"#utility.yul\":5369:5373   */\n          dup5\n            /* \"#utility.yul\":5325:5390   */\n          tag_35\n          jump\t// in\n        tag_105:\n            /* \"#utility.yul\":5260:5396   */\n          pop\n            /* \"#utility.yul\":5207:5396   */\n          pop\n          pop\n          jump\t// out\n            /* \"#utility.yul\":5402:5588   */\n        tag_38:\n            /* \"#utility.yul\":5462:5582   */\n        tag_107:\n            /* \"#utility.yul\":5479:5482   */\n          dup2\n            /* \"#utility.yul\":5472:5477   */\n          dup2\n            /* \"#utility.yul\":5469:5483   */\n          lt\n            /* \"#utility.yul\":5462:5582   */\n          iszero\n          tag_109\n          jumpi\n            /* \"#utility.yul\":5533:5572   */\n          tag_110\n            /* \"#utility.yul\":5570:5571   */\n          0x00\n            /* \"#utility.yul\":5563:5568   */\n          dup3\n            /* \"#utility.yul\":5533:5572   */\n          tag_37\n          jump\t// in\n        tag_110:\n            /* \"#utility.yul\":5506:5507   */\n          0x01\n            /* \"#utility.yul\":5499:5504   */\n          dup2\n            /* \"#utility.yul\":5495:5508   */\n          add\n            /* \"#utility.yul\":5486:5508   */\n          swap1\n          pop\n            /* \"#utility.yul\":5462:5582   */\n          jump(tag_107)\n        tag_109:\n            /* \"#utility.yul\":5402:5588   */\n          pop\n          pop\n          jump\t// out\n            /* \"#utility.yul\":5594:6137   */\n        tag_39:\n            /* \"#utility.yul\":5695:5697   */\n          0x1f\n            /* \"#utility.yul\":5690:5693   */\n          dup3\n            /* \"#utility.yul\":5687:5698   */\n          gt\n            /* \"#utility.yul\":5684:6130   */\n          iszero\n          tag_112\n          jumpi\n            /* \"#utility.yul\":5729:5767   */\n          tag_113\n            /* \"#utility.yul\":5761:5766   */\n          dup2\n            /* \"#utility.yul\":5729:5767   */\n          tag_27\n          jump\t// in\n        tag_113:\n            /* \"#utility.yul\":5813:5842   */\n          tag_114\n            /* \"#utility.yul\":5831:5841   */\n          dup5\n            /* \"#utility.yul\":5813:5842   */\n          tag_28\n          jump\t// in\n        tag_114:\n            /* \"#utility.yul\":5803:5811   */\n          dup2\n            /* \"#utility.yul\":5799:5843   */\n          add\n            /* \"#utility.yul\":5996:5998   */\n          0x20\n            /* \"#utility.yul\":5984:5994   */\n          dup6\n            /* \"#utility.yul\":5981:5999   */\n          lt\n            /* \"#utility.yul\":5978:6027   */\n          iszero\n          tag_115\n          jumpi\n            /* \"#utility.yul\":6017:6025   */\n          dup2\n            /* \"#utility.yul\":6002:6025   */\n          swap1\n          pop\n            /* \"#utility.yul\":5978:6027   */\n        tag_115:\n            /* \"#utility.yul\":6040:6120   */\n          tag_116\n            /* \"#utility.yul\":6096:6118   */\n          tag_117\n            /* \"#utility.yul\":6114:6117   */\n          dup6\n            /* \"#utility.yul\":6096:6118   */\n          tag_28\n          jump\t// in\n        tag_117:\n            /* \"#utility.yul\":6086:6094   */\n          dup4\n            /* \"#utility.yul\":6082:6119   */\n          add\n            /* \"#utility.yul\":6069:6080   */\n          dup3\n            /* \"#utility.yul\":6040:6120   */\n          tag_38\n          jump\t// in\n        tag_116:\n            /* \"#utility.yul\":5699:6130   */\n          pop\n          pop\n            /* \"#utility.yul\":5684:6130   */\n        tag_112:\n            /* \"#utility.yul\":5594:6137   */\n          pop\n          pop\n          pop\n          jump\t// out\n            /* \"#utility.yul\":6143:6260   */\n        tag_40:\n            /* \"#utility.yul\":6197:6205   */\n          0x00\n            /* \"#utility.yul\":6247:6252   */\n          dup3\n            /* \"#utility.yul\":6241:6245   */\n          dup3\n            /* \"#utility.yul\":6237:6253   */\n          shr\n            /* \"#utility.yul\":6216:6253   */\n          swap1\n          pop\n            /* \"#utility.yul\":6143:6260   */\n          swap3\n          swap2\n          pop\n          pop\n          jump\t// out\n            /* \"#utility.yul\":6266:6435   */\n        tag_41:\n            /* \"#utility.yul\":6310:6316   */\n          0x00\n            /* \"#utility.yul\":6343:6394   */\n          tag_120\n            /* \"#utility.yul\":6391:6392   */\n          0x00\n            /* \"#utility.yul\":6387:6393   */\n          not\n            /* \"#utility.yul\":6379:6384   */\n          dup5\n            /* \"#utility.yul\":6376:6377   */\n          0x08\n            /* \"#utility.yul\":6372:6385   */\n          mul\n            /* \"#utility.yul\":6343:6394   */\n          tag_40\n          jump\t// in\n        tag_120:\n            /* \"#utility.yul\":6339:6395   */\n          not\n            /* \"#utility.yul\":6424:6428   */\n          dup1\n            /* \"#utility.yul\":6418:6422   */\n          dup4\n            /* \"#utility.yul\":6414:6429   */\n          and\n            /* \"#utility.yul\":6404:6429   */\n          swap2\n          pop\n            /* \"#utility.yul\":6317:6435   */\n          pop\n            /* \"#utility.yul\":6266:6435   */\n          swap3\n          swap2\n          pop\n          pop\n          jump\t// out\n            /* \"#utility.yul\":6440:6735   */\n        tag_42:\n            /* \"#utility.yul\":6516:6520   */\n          0x00\n            /* \"#utility.yul\":6662:6691   */\n          tag_122\n            /* \"#utility.yul\":6687:6690   */\n          dup4\n            /* \"#utility.yul\":6681:6685   */\n          dup4\n            /* \"#utility.yul\":6662:6691   */\n          tag_41\n          jump\t// in\n        tag_122:\n            /* \"#utility.yul\":6654:6691   */\n          swap2\n          pop\n            /* \"#utility.yul\":6724:6727   */\n          dup3\n            /* \"#utility.yul\":6721:6722   */\n          0x02\n            /* \"#utility.yul\":6717:6728   */\n          mul\n            /* \"#utility.yul\":6711:6715   */\n          dup3\n            /* \"#utility.yul\":6708:6729   */\n          or\n            /* \"#utility.yul\":6700:6729   */\n          swap1\n          pop\n            /* \"#utility.yul\":6440:6735   */\n          swap3\n          swap2\n          pop\n          pop\n          jump\t// out\n            /* \"#utility.yul\":6740:8135   */\n        tag_9:\n            /* \"#utility.yul\":6857:6894   */\n          tag_124\n            /* \"#utility.yul\":6890:6893   */\n          dup3\n            /* \"#utility.yul\":6857:6894   */\n          tag_24\n          jump\t// in\n        tag_124:\n            /* \"#utility.yul\":6959:6977   */\n          0xffffffffffffffff\n            /* \"#utility.yul\":6951:6957   */\n          dup2\n            /* \"#utility.yul\":6948:6978   */\n          gt\n            /* \"#utility.yul\":6945:7001   */\n          iszero\n          tag_125\n          jumpi\n            /* \"#utility.yul\":6981:6999   */\n          tag_126\n          tag_17\n          jump\t// in\n        tag_126:\n            /* \"#utility.yul\":6945:7001   */\n        tag_125:\n            /* \"#utility.yul\":7025:7063   */\n          tag_127\n            /* \"#utility.yul\":7057:7061   */\n          dup3\n            /* \"#utility.yul\":7051:7062   */\n          sload\n            /* \"#utility.yul\":7025:7063   */\n          tag_26\n          jump\t// in\n        tag_127:\n            /* \"#utility.yul\":7110:7177   */\n          tag_128\n            /* \"#utility.yul\":7170:7176   */\n          dup3\n            /* \"#utility.yul\":7162:7168   */\n          dup3\n            /* \"#utility.yul\":7156:7160   */\n          dup6\n            /* \"#utility.yul\":7110:7177   */\n          tag_39\n          jump\t// in\n        tag_128:\n            /* \"#utility.yul\":7204:7205   */\n          0x00\n            /* \"#utility.yul\":7228:7232   */\n          0x20\n            /* \"#utility.yul\":7215:7232   */\n          swap1\n          pop\n            /* \"#utility.yul\":7260:7262   */\n          0x1f\n            /* \"#utility.yul\":7252:7258   */\n          dup4\n            /* \"#utility.yul\":7249:7263   */\n          gt\n            /* \"#utility.yul\":7277:7278   */\n          0x01\n            /* \"#utility.yul\":7272:7890   */\n          dup2\n          eq\n          tag_130\n          jumpi\n            /* \"#utility.yul\":7934:7935   */\n          0x00\n            /* \"#utility.yul\":7951:7957   */\n          dup5\n            /* \"#utility.yul\":7948:8025   */\n          iszero\n          tag_131\n          jumpi\n            /* \"#utility.yul\":8000:8009   */\n          dup3\n            /* \"#utility.yul\":7995:7998   */\n          dup8\n            /* \"#utility.yul\":7991:8010   */\n          add\n            /* \"#utility.yul\":7985:8011   */\n          mload\n            /* \"#utility.yul\":7976:8011   */\n          swap1\n          pop\n            /* \"#utility.yul\":7948:8025   */\n        tag_131:\n            /* \"#utility.yul\":8051:8118   */\n          tag_132\n            /* \"#utility.yul\":8111:8117   */\n          dup6\n            /* \"#utility.yul\":8104:8109   */\n          dup3\n            /* \"#utility.yul\":8051:8118   */\n          tag_42\n          jump\t// in\n        tag_132:\n            /* \"#utility.yul\":8045:8049   */\n          dup7\n            /* \"#utility.yul\":8038:8119   */\n          sstore\n            /* \"#utility.yul\":7907:8129   */\n          pop\n            /* \"#utility.yul\":7242:8129   */\n          jump(tag_129)\n            /* \"#utility.yul\":7272:7890   */\n        tag_130:\n            /* \"#utility.yul\":7324:7328   */\n          0x1f\n            /* \"#utility.yul\":7320:7329   */\n          not\n            /* \"#utility.yul\":7312:7318   */\n          dup5\n            /* \"#utility.yul\":7308:7330   */\n          and\n            /* \"#utility.yul\":7358:7395   */\n          tag_133\n            /* \"#utility.yul\":7390:7394   */\n          dup7\n            /* \"#utility.yul\":7358:7395   */\n          tag_27\n          jump\t// in\n        tag_133:\n            /* \"#utility.yul\":7417:7418   */\n          0x00\n            /* \"#utility.yul\":7431:7639   */\n        tag_134:\n            /* \"#utility.yul\":7445:7452   */\n          dup3\n            /* \"#utility.yul\":7442:7443   */\n          dup2\n            /* \"#utility.yul\":7439:7453   */\n          lt\n            /* \"#utility.yul\":7431:7639   */\n          iszero\n          tag_136\n          jumpi\n            /* \"#utility.yul\":7524:7533   */\n          dup5\n            /* \"#utility.yul\":7519:7522   */\n          dup10\n            /* \"#utility.yul\":7515:7534   */\n          add\n            /* \"#utility.yul\":7509:7535   */\n          mload\n            /* \"#utility.yul\":7501:7507   */\n          dup3\n            /* \"#utility.yul\":7494:7536   */\n          sstore\n            /* \"#utility.yul\":7575:7576   */\n          0x01\n            /* \"#utility.yul\":7567:7573   */\n          dup3\n            /* \"#utility.yul\":7563:7577   */\n          add\n            /* \"#utility.yul\":7553:7577   */\n          swap2\n          pop\n            /* \"#utility.yul\":7622:7624   */\n          0x20\n            /* \"#utility.yul\":7611:7620   */\n          dup6\n            /* \"#utility.yul\":7607:7625   */\n          add\n            /* \"#utility.yul\":7594:7625   */\n          swap5\n          pop\n            /* \"#utility.yul\":7468:7472   */\n          0x20\n            /* \"#utility.yul\":7465:7466   */\n          dup2\n            /* \"#utility.yul\":7461:7473   */\n          add\n            /* \"#utility.yul\":7456:7473   */\n          swap1\n          pop\n            /* \"#utility.yul\":7431:7639   */\n          jump(tag_134)\n        tag_136:\n            /* \"#utility.yul\":7667:7673   */\n          dup7\n            /* \"#utility.yul\":7658:7665   */\n          dup4\n            /* \"#utility.yul\":7655:7674   */\n          lt\n            /* \"#utility.yul\":7652:7831   */\n          iszero\n          tag_137\n          jumpi\n            /* \"#utility.yul\":7725:7734   */\n          dup5\n            /* \"#utility.yul\":7720:7723   */\n          dup10\n            /* \"#utility.yul\":7716:7735   */\n          add\n            /* \"#utility.yul\":7710:7736   */\n          mload\n            /* \"#utility.yul\":7768:7816   */\n          tag_138\n            /* \"#utility.yul\":7810:7814   */\n          0x1f\n            /* \"#utility.yul\":7802:7808   */\n          dup10\n            /* \"#utility.yul\":7798:7815   */\n          and\n            /* \"#utility.yul\":7787:7796   */\n          dup3\n            /* \"#utility.yul\":7768:7816   */\n          tag_41\n          jump\t// in\n        tag_138:\n            /* \"#utility.yul\":7760:7766   */\n          dup4\n            /* \"#utility.yul\":7753:7817   */\n          sstore\n            /* \"#utility.yul\":7675:7831   */\n          pop\n            /* \"#utility.yul\":7652:7831   */\n        tag_137:\n            /* \"#utility.yul\":7877:7878   */\n          0x01\n            /* \"#utility.yul\":7873:7874   */\n          0x02\n            /* \"#utility.yul\":7865:7871   */\n          dup9\n            /* \"#utility.yul\":7861:7875   */\n          mul\n            /* \"#utility.yul\":7857:7879   */\n          add\n            /* \"#utility.yul\":7851:7855   */\n          dup9\n            /* \"#utility.yul\":7844:7880   */\n          sstore\n            /* \"#utility.yul\":7279:7890   */\n          pop\n          pop\n          pop\n            /* \"#utility.yul\":7242:8129   */\n        tag_129:\n          pop\n            /* \"#utility.yul\":6832:8135   */\n          pop\n          pop\n          pop\n            /* \"#utility.yul\":6740:8135   */\n          pop\n          pop\n          jump\t// out\n            /* \"Example_Factory/Factory1.sol\":1111:1478  contract StringRecord is RecordParent{... */\n        tag_10:\n          mload(0x80)\n          codecopy(0x00, dataOffset(sub_0), dataSize(sub_0))\n          0x00\n          assignImmutable(\"0x5ae62207e7adee0b793bf869601474e77943fa4d9e3e0420f34d788e59bc19bd\")\n          return(0x00, dataSize(sub_0))\n        stop\n\n        sub_0: assembly {\n                /* \"Example_Factory/Factory1.sol\":1111:1478  contract StringRecord is RecordParent{... */\n              mstore(0x40, 0x80)\n              callvalue\n              dup1\n              iszero\n              tag_1\n              jumpi\n              0x00\n              dup1\n              revert\n            tag_1:\n              pop\n              jumpi(tag_2, lt(calldatasize, 0x04))\n              shr(0xe0, calldataload(0x00))\n              dup1\n              0x0781f5c9\n              eq\n              tag_3\n              jumpi\n              dup1\n              0x1dcd69ec\n              eq\n              tag_4\n              jumpi\n              dup1\n              0x266cf109\n              eq\n              tag_5\n              jumpi\n              dup1\n              0x3e0a0099\n              eq\n              tag_6\n              jumpi\n            tag_2:\n              0x00\n              dup1\n              revert\n                /* \"Example_Factory/Factory1.sol\":1289:1392  function getRecordType() external pure override returns (string memory){... */\n            tag_3:\n              tag_7\n              tag_8\n              jump\t// in\n            tag_7:\n              mload(0x40)\n              tag_9\n              swap2\n              swap1\n              tag_10\n              jump\t// in\n            tag_9:\n              mload(0x40)\n              dup1\n              swap2\n              sub\n              swap1\n              return\n                /* \"Example_Factory/Factory1.sol\":538:577  uint256 public immutable timeOfCreation */\n            tag_4:\n              tag_11\n              tag_12\n              jump\t// in\n            tag_11:\n              mload(0x40)\n              tag_13\n              swap2\n              swap1\n              tag_14\n              jump\t// in\n            tag_13:\n              mload(0x40)\n              dup1\n              swap2\n              sub\n              swap1\n              return\n                /* \"Example_Factory/Factory1.sol\":1154:1174  string public record */\n            tag_5:\n              tag_15\n              tag_16\n              jump\t// in\n            tag_15:\n              mload(0x40)\n              tag_17\n              swap2\n              swap1\n              tag_10\n              jump\t// in\n            tag_17:\n              mload(0x40)\n              dup1\n              swap2\n              sub\n              swap1\n              return\n                /* \"Example_Factory/Factory1.sol\":1398:1476  function setRecord(string calldata _str) public {... */\n            tag_6:\n              tag_18\n              0x04\n              dup1\n              calldatasize\n              sub\n              dup2\n              add\n              swap1\n              tag_19\n              swap2\n              swap1\n              tag_20\n              jump\t// in\n            tag_19:\n              tag_21\n              jump\t// in\n            tag_18:\n              stop\n                /* \"Example_Factory/Factory1.sol\":1289:1392  function getRecordType() external pure override returns (string memory){... */\n            tag_8:\n                /* \"Example_Factory/Factory1.sol\":1346:1359  string memory */\n              0x60\n                /* \"Example_Factory/Factory1.sol\":1370:1385  return \"string\" */\n              mload(0x40)\n              dup1\n              0x40\n              add\n              0x40\n              mstore\n              dup1\n              0x06\n              dup2\n              mstore\n              0x20\n              add\n              0x737472696e670000000000000000000000000000000000000000000000000000\n              dup2\n              mstore\n              pop\n              swap1\n              pop\n                /* \"Example_Factory/Factory1.sol\":1289:1392  function getRecordType() external pure override returns (string memory){... */\n              swap1\n              jump\t// out\n                /* \"Example_Factory/Factory1.sol\":538:577  uint256 public immutable timeOfCreation */\n            tag_12:\n              immutable(\"0x5ae62207e7adee0b793bf869601474e77943fa4d9e3e0420f34d788e59bc19bd\")\n              dup2\n              jump\t// out\n                /* \"Example_Factory/Factory1.sol\":1154:1174  string public record */\n            tag_16:\n              0x00\n              dup1\n              sload\n              tag_23\n              swap1\n              tag_24\n              jump\t// in\n            tag_23:\n              dup1\n              0x1f\n              add\n              0x20\n              dup1\n              swap2\n              div\n              mul\n              0x20\n              add\n              mload(0x40)\n              swap1\n              dup2\n              add\n              0x40\n              mstore\n              dup1\n              swap3\n              swap2\n              swap1\n              dup2\n              dup2\n              mstore\n              0x20\n              add\n              dup3\n              dup1\n              sload\n              tag_25\n              swap1\n              tag_24\n              jump\t// in\n            tag_25:\n              dup1\n              iszero\n              tag_26\n              jumpi\n              dup1\n              0x1f\n              lt\n              tag_27\n              jumpi\n              0x0100\n              dup1\n              dup4\n              sload\n              div\n              mul\n              dup4\n              mstore\n              swap2\n              0x20\n              add\n              swap2\n              jump(tag_26)\n            tag_27:\n              dup3\n              add\n              swap2\n              swap1\n              0x00\n              mstore\n              keccak256(0x00, 0x20)\n              swap1\n            tag_28:\n              dup2\n              sload\n              dup2\n              mstore\n              swap1\n              0x01\n              add\n              swap1\n              0x20\n              add\n              dup1\n              dup4\n              gt\n              tag_28\n              jumpi\n              dup3\n              swap1\n              sub\n              0x1f\n              and\n              dup3\n              add\n              swap2\n            tag_26:\n              pop\n              pop\n              pop\n              pop\n              pop\n              dup2\n              jump\t// out\n                /* \"Example_Factory/Factory1.sol\":1398:1476  function setRecord(string calldata _str) public {... */\n            tag_21:\n                /* \"Example_Factory/Factory1.sol\":1465:1469  _str */\n              dup2\n              dup2\n                /* \"Example_Factory/Factory1.sol\":1456:1462  record */\n              0x00\n                /* \"Example_Factory/Factory1.sol\":1456:1469  record = _str */\n              swap2\n              dup3\n              tag_30\n              swap3\n              swap2\n              swap1\n              tag_31\n              jump\t// in\n            tag_30:\n              pop\n                /* \"Example_Factory/Factory1.sol\":1398:1476  function setRecord(string calldata _str) public {... */\n              pop\n              pop\n              jump\t// out\n                /* \"#utility.yul\":7:106   */\n            tag_32:\n                /* \"#utility.yul\":59:65   */\n              0x00\n                /* \"#utility.yul\":93:98   */\n              dup2\n                /* \"#utility.yul\":87:99   */\n              mload\n                /* \"#utility.yul\":77:99   */\n              swap1\n              pop\n                /* \"#utility.yul\":7:106   */\n              swap2\n              swap1\n              pop\n              jump\t// out\n                /* \"#utility.yul\":112:281   */\n            tag_33:\n                /* \"#utility.yul\":196:207   */\n              0x00\n                /* \"#utility.yul\":230:236   */\n              dup3\n                /* \"#utility.yul\":225:228   */\n              dup3\n                /* \"#utility.yul\":218:237   */\n              mstore\n                /* \"#utility.yul\":270:274   */\n              0x20\n                /* \"#utility.yul\":265:268   */\n              dup3\n                /* \"#utility.yul\":261:275   */\n              add\n                /* \"#utility.yul\":246:275   */\n              swap1\n              pop\n                /* \"#utility.yul\":112:281   */\n              swap3\n              swap2\n              pop\n              pop\n              jump\t// out\n                /* \"#utility.yul\":287:426   */\n            tag_34:\n                /* \"#utility.yul\":376:382   */\n              dup3\n                /* \"#utility.yul\":371:374   */\n              dup2\n                /* \"#utility.yul\":366:369   */\n              dup4\n                /* \"#utility.yul\":360:383   */\n              mcopy\n                /* \"#utility.yul\":417:418   */\n              0x00\n                /* \"#utility.yul\":408:414   */\n              dup4\n                /* \"#utility.yul\":403:406   */\n              dup4\n                /* \"#utility.yul\":399:415   */\n              add\n                /* \"#utility.yul\":392:419   */\n              mstore\n                /* \"#utility.yul\":287:426   */\n              pop\n              pop\n              pop\n              jump\t// out\n                /* \"#utility.yul\":432:534   */\n            tag_35:\n                /* \"#utility.yul\":473:479   */\n              0x00\n                /* \"#utility.yul\":524:526   */\n              0x1f\n                /* \"#utility.yul\":520:527   */\n              not\n                /* \"#utility.yul\":515:517   */\n              0x1f\n                /* \"#utility.yul\":508:513   */\n              dup4\n                /* \"#utility.yul\":504:518   */\n              add\n                /* \"#utility.yul\":500:528   */\n              and\n                /* \"#utility.yul\":490:528   */\n              swap1\n              pop\n                /* \"#utility.yul\":432:534   */\n              swap2\n              swap1\n              pop\n              jump\t// out\n                /* \"#utility.yul\":540:917   */\n            tag_36:\n                /* \"#utility.yul\":628:631   */\n              0x00\n                /* \"#utility.yul\":656:695   */\n              tag_70\n                /* \"#utility.yul\":689:694   */\n              dup3\n                /* \"#utility.yul\":656:695   */\n              tag_32\n              jump\t// in\n            tag_70:\n                /* \"#utility.yul\":711:782   */\n              tag_71\n                /* \"#utility.yul\":775:781   */\n              dup2\n                /* \"#utility.yul\":770:773   */\n              dup6\n                /* \"#utility.yul\":711:782   */\n              tag_33\n              jump\t// in\n            tag_71:\n                /* \"#utility.yul\":704:782   */\n              swap4\n              pop\n                /* \"#utility.yul\":791:856   */\n              tag_72\n                /* \"#utility.yul\":849:855   */\n              dup2\n                /* \"#utility.yul\":844:847   */\n              dup6\n                /* \"#utility.yul\":837:841   */\n              0x20\n                /* \"#utility.yul\":830:835   */\n              dup7\n                /* \"#utility.yul\":826:842   */\n              add\n                /* \"#utility.yul\":791:856   */\n              tag_34\n              jump\t// in\n            tag_72:\n                /* \"#utility.yul\":881:910   */\n              tag_73\n                /* \"#utility.yul\":903:909   */\n              dup2\n                /* \"#utility.yul\":881:910   */\n              tag_35\n              jump\t// in\n            tag_73:\n                /* \"#utility.yul\":876:879   */\n              dup5\n                /* \"#utility.yul\":872:911   */\n              add\n                /* \"#utility.yul\":865:911   */\n              swap2\n              pop\n                /* \"#utility.yul\":632:917   */\n              pop\n                /* \"#utility.yul\":540:917   */\n              swap3\n              swap2\n              pop\n              pop\n              jump\t// out\n                /* \"#utility.yul\":923:1236   */\n            tag_10:\n                /* \"#utility.yul\":1036:1040   */\n              0x00\n                /* \"#utility.yul\":1074:1076   */\n              0x20\n                /* \"#utility.yul\":1063:1072   */\n              dup3\n                /* \"#utility.yul\":1059:1077   */\n              add\n                /* \"#utility.yul\":1051:1077   */\n              swap1\n              pop\n                /* \"#utility.yul\":1123:1132   */\n              dup2\n                /* \"#utility.yul\":1117:1121   */\n              dup2\n                /* \"#utility.yul\":1113:1133   */\n              sub\n                /* \"#utility.yul\":1109:1110   */\n              0x00\n                /* \"#utility.yul\":1098:1107   */\n              dup4\n                /* \"#utility.yul\":1094:1111   */\n              add\n                /* \"#utility.yul\":1087:1134   */\n              mstore\n                /* \"#utility.yul\":1151:1229   */\n              tag_75\n                /* \"#utility.yul\":1224:1228   */\n              dup2\n                /* \"#utility.yul\":1215:1221   */\n              dup5\n                /* \"#utility.yul\":1151:1229   */\n              tag_36\n              jump\t// in\n            tag_75:\n                /* \"#utility.yul\":1143:1229   */\n              swap1\n              pop\n                /* \"#utility.yul\":923:1236   */\n              swap3\n              swap2\n              pop\n              pop\n              jump\t// out\n                /* \"#utility.yul\":1242:1319   */\n            tag_37:\n                /* \"#utility.yul\":1279:1286   */\n              0x00\n                /* \"#utility.yul\":1308:1313   */\n              dup2\n                /* \"#utility.yul\":1297:1313   */\n              swap1\n              pop\n                /* \"#utility.yul\":1242:1319   */\n              swap2\n              swap1\n              pop\n              jump\t// out\n                /* \"#utility.yul\":1325:1443   */\n            tag_38:\n                /* \"#utility.yul\":1412:1436   */\n              tag_78\n                /* \"#utility.yul\":1430:1435   */\n              dup2\n                /* \"#utility.yul\":1412:1436   */\n              tag_37\n              jump\t// in\n            tag_78:\n                /* \"#utility.yul\":1407:1410   */\n              dup3\n                /* \"#utility.yul\":1400:1437   */\n              mstore\n                /* \"#utility.yul\":1325:1443   */\n              pop\n              pop\n              jump\t// out\n                /* \"#utility.yul\":1449:1671   */\n            tag_14:\n                /* \"#utility.yul\":1542:1546   */\n              0x00\n                /* \"#utility.yul\":1580:1582   */\n              0x20\n                /* \"#utility.yul\":1569:1578   */\n              dup3\n                /* \"#utility.yul\":1565:1583   */\n              add\n                /* \"#utility.yul\":1557:1583   */\n              swap1\n              pop\n                /* \"#utility.yul\":1593:1664   */\n              tag_80\n                /* \"#utility.yul\":1661:1662   */\n              0x00\n                /* \"#utility.yul\":1650:1659   */\n              dup4\n                /* \"#utility.yul\":1646:1663   */\n              add\n                /* \"#utility.yul\":1637:1643   */\n              dup5\n                /* \"#utility.yul\":1593:1664   */\n              tag_38\n              jump\t// in\n            tag_80:\n                /* \"#utility.yul\":1449:1671   */\n              swap3\n              swap2\n              pop\n              pop\n              jump\t// out\n                /* \"#utility.yul\":1758:1875   */\n            tag_40:\n                /* \"#utility.yul\":1867:1868   */\n              0x00\n                /* \"#utility.yul\":1864:1865   */\n              dup1\n                /* \"#utility.yul\":1857:1869   */\n              revert\n                /* \"#utility.yul\":1881:1998   */\n            tag_41:\n                /* \"#utility.yul\":1990:1991   */\n              0x00\n                /* \"#utility.yul\":1987:1988   */\n              dup1\n                /* \"#utility.yul\":1980:1992   */\n              revert\n                /* \"#utility.yul\":2004:2121   */\n            tag_42:\n                /* \"#utility.yul\":2113:2114   */\n              0x00\n                /* \"#utility.yul\":2110:2111   */\n              dup1\n                /* \"#utility.yul\":2103:2115   */\n              revert\n                /* \"#utility.yul\":2127:2244   */\n            tag_43:\n                /* \"#utility.yul\":2236:2237   */\n              0x00\n                /* \"#utility.yul\":2233:2234   */\n              dup1\n                /* \"#utility.yul\":2226:2238   */\n              revert\n                /* \"#utility.yul\":2250:2367   */\n            tag_44:\n                /* \"#utility.yul\":2359:2360   */\n              0x00\n                /* \"#utility.yul\":2356:2357   */\n              dup1\n                /* \"#utility.yul\":2349:2361   */\n              revert\n                /* \"#utility.yul\":2387:2940   */\n            tag_45:\n                /* \"#utility.yul\":2445:2453   */\n              0x00\n                /* \"#utility.yul\":2455:2461   */\n              dup1\n                /* \"#utility.yul\":2505:2508   */\n              dup4\n                /* \"#utility.yul\":2498:2502   */\n              0x1f\n                /* \"#utility.yul\":2490:2496   */\n              dup5\n                /* \"#utility.yul\":2486:2503   */\n              add\n                /* \"#utility.yul\":2482:2509   */\n              slt\n                /* \"#utility.yul\":2472:2594   */\n              tag_88\n              jumpi\n                /* \"#utility.yul\":2513:2592   */\n              tag_89\n              tag_42\n              jump\t// in\n            tag_89:\n                /* \"#utility.yul\":2472:2594   */\n            tag_88:\n                /* \"#utility.yul\":2626:2632   */\n              dup3\n                /* \"#utility.yul\":2613:2633   */\n              calldataload\n                /* \"#utility.yul\":2603:2633   */\n              swap1\n              pop\n                /* \"#utility.yul\":2656:2674   */\n              0xffffffffffffffff\n                /* \"#utility.yul\":2648:2654   */\n              dup2\n                /* \"#utility.yul\":2645:2675   */\n              gt\n                /* \"#utility.yul\":2642:2759   */\n              iszero\n              tag_90\n              jumpi\n                /* \"#utility.yul\":2678:2757   */\n              tag_91\n              tag_43\n              jump\t// in\n            tag_91:\n                /* \"#utility.yul\":2642:2759   */\n            tag_90:\n                /* \"#utility.yul\":2792:2796   */\n              0x20\n                /* \"#utility.yul\":2784:2790   */\n              dup4\n                /* \"#utility.yul\":2780:2797   */\n              add\n                /* \"#utility.yul\":2768:2797   */\n              swap2\n              pop\n                /* \"#utility.yul\":2846:2849   */\n              dup4\n                /* \"#utility.yul\":2838:2842   */\n              0x01\n                /* \"#utility.yul\":2830:2836   */\n              dup3\n                /* \"#utility.yul\":2826:2843   */\n              mul\n                /* \"#utility.yul\":2816:2824   */\n              dup4\n                /* \"#utility.yul\":2812:2844   */\n              add\n                /* \"#utility.yul\":2809:2850   */\n              gt\n                /* \"#utility.yul\":2806:2934   */\n              iszero\n              tag_92\n              jumpi\n                /* \"#utility.yul\":2853:2932   */\n              tag_93\n              tag_44\n              jump\t// in\n            tag_93:\n                /* \"#utility.yul\":2806:2934   */\n            tag_92:\n                /* \"#utility.yul\":2387:2940   */\n              swap3\n              pop\n              swap3\n              swap1\n              pop\n              jump\t// out\n                /* \"#utility.yul\":2946:3475   */\n            tag_20:\n                /* \"#utility.yul\":3017:3023   */\n              0x00\n                /* \"#utility.yul\":3025:3031   */\n              dup1\n                /* \"#utility.yul\":3074:3076   */\n              0x20\n                /* \"#utility.yul\":3062:3071   */\n              dup4\n                /* \"#utility.yul\":3053:3060   */\n              dup6\n                /* \"#utility.yul\":3049:3072   */\n              sub\n                /* \"#utility.yul\":3045:3077   */\n              slt\n                /* \"#utility.yul\":3042:3161   */\n              iszero\n              tag_95\n              jumpi\n                /* \"#utility.yul\":3080:3159   */\n              tag_96\n              tag_40\n              jump\t// in\n            tag_96:\n                /* \"#utility.yul\":3042:3161   */\n            tag_95:\n                /* \"#utility.yul\":3228:3229   */\n              0x00\n                /* \"#utility.yul\":3217:3226   */\n              dup4\n                /* \"#utility.yul\":3213:3230   */\n              add\n                /* \"#utility.yul\":3200:3231   */\n              calldataload\n                /* \"#utility.yul\":3258:3276   */\n              0xffffffffffffffff\n                /* \"#utility.yul\":3250:3256   */\n              dup2\n                /* \"#utility.yul\":3247:3277   */\n              gt\n                /* \"#utility.yul\":3244:3361   */\n              iszero\n              tag_97\n              jumpi\n                /* \"#utility.yul\":3280:3359   */\n              tag_98\n              tag_41\n              jump\t// in\n            tag_98:\n                /* \"#utility.yul\":3244:3361   */\n            tag_97:\n                /* \"#utility.yul\":3393:3458   */\n              tag_99\n                /* \"#utility.yul\":3450:3457   */\n              dup6\n                /* \"#utility.yul\":3441:3447   */\n              dup3\n                /* \"#utility.yul\":3430:3439   */\n              dup7\n                /* \"#utility.yul\":3426:3448   */\n              add\n                /* \"#utility.yul\":3393:3458   */\n              tag_45\n              jump\t// in\n            tag_99:\n                /* \"#utility.yul\":3375:3458   */\n              swap3\n              pop\n              swap3\n              pop\n                /* \"#utility.yul\":3171:3468   */\n              pop\n                /* \"#utility.yul\":2946:3475   */\n              swap3\n              pop\n              swap3\n              swap1\n              pop\n              jump\t// out\n                /* \"#utility.yul\":3481:3661   */\n            tag_46:\n                /* \"#utility.yul\":3529:3606   */\n              0x4e487b7100000000000000000000000000000000000000000000000000000000\n                /* \"#utility.yul\":3526:3527   */\n              0x00\n                /* \"#utility.yul\":3519:3607   */\n              mstore\n                /* \"#utility.yul\":3626:3630   */\n              0x22\n                /* \"#utility.yul\":3623:3624   */\n              0x04\n                /* \"#utility.yul\":3616:3631   */\n              mstore\n                /* \"#utility.yul\":3650:3654   */\n              0x24\n                /* \"#utility.yul\":3647:3648   */\n              0x00\n                /* \"#utility.yul\":3640:3655   */\n              revert\n                /* \"#utility.yul\":3667:3987   */\n            tag_24:\n                /* \"#utility.yul\":3711:3717   */\n              0x00\n                /* \"#utility.yul\":3748:3749   */\n              0x02\n                /* \"#utility.yul\":3742:3746   */\n              dup3\n                /* \"#utility.yul\":3738:3750   */\n              div\n                /* \"#utility.yul\":3728:3750   */\n              swap1\n              pop\n                /* \"#utility.yul\":3795:3796   */\n              0x01\n                /* \"#utility.yul\":3789:3793   */\n              dup3\n                /* \"#utility.yul\":3785:3797   */\n              and\n                /* \"#utility.yul\":3816:3834   */\n              dup1\n                /* \"#utility.yul\":3806:3887   */\n              tag_102\n              jumpi\n                /* \"#utility.yul\":3872:3876   */\n              0x7f\n                /* \"#utility.yul\":3864:3870   */\n              dup3\n                /* \"#utility.yul\":3860:3877   */\n              and\n                /* \"#utility.yul\":3850:3877   */\n              swap2\n              pop\n                /* \"#utility.yul\":3806:3887   */\n            tag_102:\n                /* \"#utility.yul\":3934:3936   */\n              0x20\n                /* \"#utility.yul\":3926:3932   */\n              dup3\n                /* \"#utility.yul\":3923:3937   */\n              lt\n                /* \"#utility.yul\":3903:3921   */\n              dup2\n                /* \"#utility.yul\":3900:3938   */\n              sub\n                /* \"#utility.yul\":3897:3981   */\n              tag_103\n              jumpi\n                /* \"#utility.yul\":3953:3971   */\n              tag_104\n              tag_46\n              jump\t// in\n            tag_104:\n                /* \"#utility.yul\":3897:3981   */\n            tag_103:\n                /* \"#utility.yul\":3718:3987   */\n              pop\n                /* \"#utility.yul\":3667:3987   */\n              swap2\n              swap1\n              pop\n              jump\t// out\n                /* \"#utility.yul\":3993:4090   */\n            tag_47:\n                /* \"#utility.yul\":4052:4058   */\n              0x00\n                /* \"#utility.yul\":4080:4083   */\n              dup3\n                /* \"#utility.yul\":4070:4083   */\n              swap1\n              pop\n                /* \"#utility.yul\":3993:4090   */\n              swap3\n              swap2\n              pop\n              pop\n              jump\t// out\n                /* \"#utility.yul\":4096:4276   */\n            tag_48:\n                /* \"#utility.yul\":4144:4221   */\n              0x4e487b7100000000000000000000000000000000000000000000000000000000\n                /* \"#utility.yul\":4141:4142   */\n              0x00\n                /* \"#utility.yul\":4134:4222   */\n              mstore\n                /* \"#utility.yul\":4241:4245   */\n              0x41\n                /* \"#utility.yul\":4238:4239   */\n              0x04\n                /* \"#utility.yul\":4231:4246   */\n              mstore\n                /* \"#utility.yul\":4265:4269   */\n              0x24\n                /* \"#utility.yul\":4262:4263   */\n              0x00\n                /* \"#utility.yul\":4255:4270   */\n              revert\n                /* \"#utility.yul\":4282:4423   */\n            tag_49:\n                /* \"#utility.yul\":4331:4335   */\n              0x00\n                /* \"#utility.yul\":4354:4357   */\n              dup2\n                /* \"#utility.yul\":4346:4357   */\n              swap1\n              pop\n                /* \"#utility.yul\":4377:4380   */\n              dup2\n                /* \"#utility.yul\":4374:4375   */\n              0x00\n                /* \"#utility.yul\":4367:4381   */\n              mstore\n                /* \"#utility.yul\":4411:4415   */\n              0x20\n                /* \"#utility.yul\":4408:4409   */\n              0x00\n                /* \"#utility.yul\":4398:4416   */\n              keccak256\n                /* \"#utility.yul\":4390:4416   */\n              swap1\n              pop\n                /* \"#utility.yul\":4282:4423   */\n              swap2\n              swap1\n              pop\n              jump\t// out\n                /* \"#utility.yul\":4429:4522   */\n            tag_50:\n                /* \"#utility.yul\":4466:4472   */\n              0x00\n                /* \"#utility.yul\":4513:4515   */\n              0x20\n                /* \"#utility.yul\":4508:4510   */\n              0x1f\n                /* \"#utility.yul\":4501:4506   */\n              dup4\n                /* \"#utility.yul\":4497:4511   */\n              add\n                /* \"#utility.yul\":4493:4516   */\n              div\n                /* \"#utility.yul\":4483:4516   */\n              swap1\n              pop\n                /* \"#utility.yul\":4429:4522   */\n              swap2\n              swap1\n              pop\n              jump\t// out\n                /* \"#utility.yul\":4528:4635   */\n            tag_51:\n                /* \"#utility.yul\":4572:4580   */\n              0x00\n                /* \"#utility.yul\":4622:4627   */\n              dup3\n                /* \"#utility.yul\":4616:4620   */\n              dup3\n                /* \"#utility.yul\":4612:4628   */\n              shl\n                /* \"#utility.yul\":4591:4628   */\n              swap1\n              pop\n                /* \"#utility.yul\":4528:4635   */\n              swap3\n              swap2\n              pop\n              pop\n              jump\t// out\n                /* \"#utility.yul\":4641:5034   */\n            tag_52:\n                /* \"#utility.yul\":4710:4716   */\n              0x00\n                /* \"#utility.yul\":4760:4761   */\n              0x08\n                /* \"#utility.yul\":4748:4758   */\n              dup4\n                /* \"#utility.yul\":4744:4762   */\n              mul\n                /* \"#utility.yul\":4783:4880   */\n              tag_111\n                /* \"#utility.yul\":4813:4879   */\n              0xffffffffffffffffffffffffffffffffffffffffffffffffffffffffffffffff\n                /* \"#utility.yul\":4802:4811   */\n              dup3\n                /* \"#utility.yul\":4783:4880   */\n              tag_51\n              jump\t// in\n            tag_111:\n                /* \"#utility.yul\":4901:4940   */\n              tag_112\n                /* \"#utility.yul\":4931:4939   */\n              dup7\n                /* \"#utility.yul\":4920:4929   */\n              dup4\n                /* \"#utility.yul\":4901:4940   */\n              tag_51\n              jump\t// in\n            tag_112:\n                /* \"#utility.yul\":4889:4940   */\n              swap6\n              pop\n                /* \"#utility.yul\":4973:4977   */\n              dup1\n                /* \"#utility.yul\":4969:4978   */\n              not\n                /* \"#utility.yul\":4962:4967   */\n              dup5\n                /* \"#utility.yul\":4958:4979   */\n              and\n                /* \"#utility.yul\":4949:4979   */\n              swap4\n              pop\n                /* \"#utility.yul\":5022:5026   */\n              dup1\n                /* \"#utility.yul\":5012:5020   */\n              dup7\n                /* \"#utility.yul\":5008:5027   */\n              and\n                /* \"#utility.yul\":5001:5006   */\n              dup5\n                /* \"#utility.yul\":4998:5028   */\n              or\n                /* \"#utility.yul\":4988:5028   */\n              swap3\n              pop\n                /* \"#utility.yul\":4717:5034   */\n              pop\n              pop\n                /* \"#utility.yul\":4641:5034   */\n              swap4\n              swap3\n              pop\n              pop\n              pop\n              jump\t// out\n                /* \"#utility.yul\":5040:5100   */\n            tag_53:\n                /* \"#utility.yul\":5068:5071   */\n              0x00\n                /* \"#utility.yul\":5089:5094   */\n              dup2\n                /* \"#utility.yul\":5082:5094   */\n              swap1\n              pop\n                /* \"#utility.yul\":5040:5100   */\n              swap2\n              swap1\n              pop\n              jump\t// out\n                /* \"#utility.yul\":5106:5248   */\n            tag_54:\n                /* \"#utility.yul\":5156:5165   */\n              0x00\n                /* \"#utility.yul\":5189:5242   */\n              tag_115\n                /* \"#utility.yul\":5207:5241   */\n              tag_116\n                /* \"#utility.yul\":5216:5240   */\n              tag_117\n                /* \"#utility.yul\":5234:5239   */\n              dup5\n                /* \"#utility.yul\":5216:5240   */\n              tag_37\n              jump\t// in\n            tag_117:\n                /* \"#utility.yul\":5207:5241   */\n              tag_53\n              jump\t// in\n            tag_116:\n                /* \"#utility.yul\":5189:5242   */\n              tag_37\n              jump\t// in\n            tag_115:\n                /* \"#utility.yul\":5176:5242   */\n              swap1\n              pop\n                /* \"#utility.yul\":5106:5248   */\n              swap2\n              swap1\n              pop\n              jump\t// out\n                /* \"#utility.yul\":5254:5329   */\n            tag_55:\n                /* \"#utility.yul\":5297:5300   */\n              0x00\n                /* \"#utility.yul\":5318:5323   */\n              dup2\n                /* \"#utility.yul\":5311:5323   */\n              swap1\n              pop\n                /* \"#utility.yul\":5254:5329   */\n              swap2\n              swap1\n              pop\n              jump\t// out\n                /* \"#utility.yul\":5335:5604   */\n            tag_56:\n                /* \"#utility.yul\":5445:5484   */\n              tag_120\n                /* \"#utility.yul\":5476:5483   */\n              dup4\n                /* \"#utility.yul\":5445:5484   */\n              tag_54\n              jump\t// in\n            tag_120:\n                /* \"#utility.yul\":5506:5597   */\n              tag_121\n                /* \"#utility.yul\":5555:5596   */\n              tag_122\n                /* \"#utility.yul\":5579:5595   */\n              dup3\n                /* \"#utility.yul\":5555:5596   */\n              tag_55\n              jump\t// in\n            tag_122:\n                /* \"#utility.yul\":5547:5553   */\n              dup5\n                /* \"#utility.yul\":5540:5544   */\n              dup5\n                /* \"#utility.yul\":5534:5545   */\n              sload\n                /* \"#utility.yul\":5506:5597   */\n              tag_52\n              jump\t// in\n            tag_121:\n                /* \"#utility.yul\":5500:5504   */\n              dup3\n                /* \"#utility.yul\":5493:5598   */\n              sstore\n                /* \"#utility.yul\":5411:5604   */\n              pop\n                /* \"#utility.yul\":5335:5604   */\n              pop\n              pop\n              pop\n              jump\t// out\n                /* \"#utility.yul\":5610:5683   */\n            tag_57:\n                /* \"#utility.yul\":5655:5658   */\n              0x00\n                /* \"#utility.yul\":5610:5683   */\n              swap1\n              jump\t// out\n                /* \"#utility.yul\":5689:5878   */\n            tag_58:\n                /* \"#utility.yul\":5766:5798   */\n              tag_125\n              tag_57\n              jump\t// in\n            tag_125:\n                /* \"#utility.yul\":5807:5872   */\n              tag_126\n                /* \"#utility.yul\":5865:5871   */\n              dup2\n                /* \"#utility.yul\":5857:5863   */\n              dup5\n                /* \"#utility.yul\":5851:5855   */\n              dup5\n                /* \"#utility.yul\":5807:5872   */\n              tag_56\n              jump\t// in\n            tag_126:\n                /* \"#utility.yul\":5742:5878   */\n              pop\n                /* \"#utility.yul\":5689:5878   */\n              pop\n              pop\n              jump\t// out\n                /* \"#utility.yul\":5884:6070   */\n            tag_59:\n                /* \"#utility.yul\":5944:6064   */\n            tag_128:\n                /* \"#utility.yul\":5961:5964   */\n              dup2\n                /* \"#utility.yul\":5954:5959   */\n              dup2\n                /* \"#utility.yul\":5951:5965   */\n              lt\n                /* \"#utility.yul\":5944:6064   */\n              iszero\n              tag_130\n              jumpi\n                /* \"#utility.yul\":6015:6054   */\n              tag_131\n                /* \"#utility.yul\":6052:6053   */\n              0x00\n                /* \"#utility.yul\":6045:6050   */\n              dup3\n                /* \"#utility.yul\":6015:6054   */\n              tag_58\n              jump\t// in\n            tag_131:\n                /* \"#utility.yul\":5988:5989   */\n              0x01\n                /* \"#utility.yul\":5981:5986   */\n              dup2\n                /* \"#utility.yul\":5977:5990   */\n              add\n                /* \"#utility.yul\":5968:5990   */\n              swap1\n              pop\n                /* \"#utility.yul\":5944:6064   */\n              jump(tag_128)\n            tag_130:\n                /* \"#utility.yul\":5884:6070   */\n              pop\n              pop\n              jump\t// out\n                /* \"#utility.yul\":6076:6619   */\n            tag_60:\n                /* \"#utility.yul\":6177:6179   */\n              0x1f\n                /* \"#utility.yul\":6172:6175   */\n              dup3\n                /* \"#utility.yul\":6169:6180   */\n              gt\n                /* \"#utility.yul\":6166:6612   */\n              iszero\n              tag_133\n              jumpi\n                /* \"#utility.yul\":6211:6249   */\n              tag_134\n                /* \"#utility.yul\":6243:6248   */\n              dup2\n                /* \"#utility.yul\":6211:6249   */\n              tag_49\n              jump\t// in\n            tag_134:\n                /* \"#utility.yul\":6295:6324   */\n              tag_135\n                /* \"#utility.yul\":6313:6323   */\n              dup5\n                /* \"#utility.yul\":6295:6324   */\n              tag_50\n              jump\t// in\n            tag_135:\n                /* \"#utility.yul\":6285:6293   */\n              dup2\n                /* \"#utility.yul\":6281:6325   */\n              add\n                /* \"#utility.yul\":6478:6480   */\n              0x20\n                /* \"#utility.yul\":6466:6476   */\n              dup6\n                /* \"#utility.yul\":6463:6481   */\n              lt\n                /* \"#utility.yul\":6460:6509   */\n              iszero\n              tag_136\n              jumpi\n                /* \"#utility.yul\":6499:6507   */\n              dup2\n                /* \"#utility.yul\":6484:6507   */\n              swap1\n              pop\n                /* \"#utility.yul\":6460:6509   */\n            tag_136:\n                /* \"#utility.yul\":6522:6602   */\n              tag_137\n                /* \"#utility.yul\":6578:6600   */\n              tag_138\n                /* \"#utility.yul\":6596:6599   */\n              dup6\n                /* \"#utility.yul\":6578:6600   */\n              tag_50\n              jump\t// in\n            tag_138:\n                /* \"#utility.yul\":6568:6576   */\n              dup4\n                /* \"#utility.yul\":6564:6601   */\n              add\n                /* \"#utility.yul\":6551:6562   */\n              dup3\n                /* \"#utility.yul\":6522:6602   */\n              tag_59\n              jump\t// in\n            tag_137:\n                /* \"#utility.yul\":6181:6612   */\n              pop\n              pop\n                /* \"#utility.yul\":6166:6612   */\n            tag_133:\n                /* \"#utility.yul\":6076:6619   */\n              pop\n              pop\n              pop\n              jump\t// out\n                /* \"#utility.yul\":6625:6742   */\n            tag_61:\n                /* \"#utility.yul\":6679:6687   */\n              0x00\n                /* \"#utility.yul\":6729:6734   */\n              dup3\n                /* \"#utility.yul\":6723:6727   */\n              dup3\n                /* \"#utility.yul\":6719:6735   */\n              shr\n                /* \"#utility.yul\":6698:6735   */\n              swap1\n              pop\n                /* \"#utility.yul\":6625:6742   */\n              swap3\n              swap2\n              pop\n              pop\n              jump\t// out\n                /* \"#utility.yul\":6748:6917   */\n            tag_62:\n                /* \"#utility.yul\":6792:6798   */\n              0x00\n                /* \"#utility.yul\":6825:6876   */\n              tag_141\n                /* \"#utility.yul\":6873:6874   */\n              0x00\n                /* \"#utility.yul\":6869:6875   */\n              not\n                /* \"#utility.yul\":6861:6866   */\n              dup5\n                /* \"#utility.yul\":6858:6859   */\n              0x08\n                /* \"#utility.yul\":6854:6867   */\n              mul\n                /* \"#utility.yul\":6825:6876   */\n              tag_61\n              jump\t// in\n            tag_141:\n                /* \"#utility.yul\":6821:6877   */\n              not\n                /* \"#utility.yul\":6906:6910   */\n              dup1\n                /* \"#utility.yul\":6900:6904   */\n              dup4\n                /* \"#utility.yul\":6896:6911   */\n              and\n                /* \"#utility.yul\":6886:6911   */\n              swap2\n              pop\n                /* \"#utility.yul\":6799:6917   */\n              pop\n                /* \"#utility.yul\":6748:6917   */\n              swap3\n              swap2\n              pop\n              pop\n              jump\t// out\n                /* \"#utility.yul\":6922:7217   */\n            tag_63:\n                /* \"#utility.yul\":6998:7002   */\n              0x00\n                /* \"#utility.yul\":7144:7173   */\n              tag_143\n                /* \"#utility.yul\":7169:7172   */\n              dup4\n                /* \"#utility.yul\":7163:7167   */\n              dup4\n                /* \"#utility.yul\":7144:7173   */\n              tag_62\n              jump\t// in\n            tag_143:\n                /* \"#utility.yul\":7136:7173   */\n              swap2\n              pop\n                /* \"#utility.yul\":7206:7209   */\n              dup3\n                /* \"#utility.yul\":7203:7204   */\n              0x02\n                /* \"#utility.yul\":7199:7210   */\n              mul\n                /* \"#utility.yul\":7193:7197   */\n              dup3\n                /* \"#utility.yul\":7190:7211   */\n              or\n                /* \"#utility.yul\":7182:7211   */\n              swap1\n              pop\n                /* \"#utility.yul\":6922:7217   */\n              swap3\n              swap2\n              pop\n              pop\n              jump\t// out\n                /* \"#utility.yul\":7222:8625   */\n            tag_31:\n                /* \"#utility.yul\":7346:7390   */\n              tag_145\n                /* \"#utility.yul\":7386:7389   */\n              dup4\n                /* \"#utility.yul\":7381:7384   */\n              dup4\n                /* \"#utility.yul\":7346:7390   */\n              tag_47\n              jump\t// in\n            tag_145:\n                /* \"#utility.yul\":7455:7473   */\n              0xffffffffffffffff\n                /* \"#utility.yul\":7447:7453   */\n              dup2\n                /* \"#utility.yul\":7444:7474   */\n              gt\n                /* \"#utility.yul\":7441:7497   */\n              iszero\n              tag_146\n              jumpi\n                /* \"#utility.yul\":7477:7495   */\n              tag_147\n              tag_48\n              jump\t// in\n            tag_147:\n                /* \"#utility.yul\":7441:7497   */\n            tag_146:\n                /* \"#utility.yul\":7521:7559   */\n              tag_148\n                /* \"#utility.yul\":7553:7557   */\n              dup3\n                /* \"#utility.yul\":7547:7558   */\n              sload\n                /* \"#utility.yul\":7521:7559   */\n              tag_24\n              jump\t// in\n            tag_148:\n                /* \"#utility.yul\":7606:7673   */\n              tag_149\n                /* \"#utility.yul\":7666:7672   */\n              dup3\n                /* \"#utility.yul\":7658:7664   */\n              dup3\n                /* \"#utility.yul\":7652:7656   */\n              dup6\n                /* \"#utility.yul\":7606:7673   */\n              tag_60\n              jump\t// in\n            tag_149:\n                /* \"#utility.yul\":7700:7701   */\n              0x00\n                /* \"#utility.yul\":7729:7731   */\n              0x1f\n                /* \"#utility.yul\":7721:7727   */\n              dup4\n                /* \"#utility.yul\":7718:7732   */\n              gt\n                /* \"#utility.yul\":7746:7747   */\n              0x01\n                /* \"#utility.yul\":7741:8373   */\n              dup2\n              eq\n              tag_151\n              jumpi\n                /* \"#utility.yul\":8417:8418   */\n              0x00\n                /* \"#utility.yul\":8434:8440   */\n              dup5\n                /* \"#utility.yul\":8431:8515   */\n              iszero\n              tag_152\n              jumpi\n                /* \"#utility.yul\":8490:8499   */\n              dup3\n                /* \"#utility.yul\":8485:8488   */\n              dup8\n                /* \"#utility.yul\":8481:8500   */\n              add\n                /* \"#utility.yul\":8468:8501   */\n              calldataload\n                /* \"#utility.yul\":8459:8501   */\n              swap1\n              pop\n                /* \"#utility.yul\":8431:8515   */\n            tag_152:\n                /* \"#utility.yul\":8541:8608   */\n              tag_153\n                /* \"#utility.yul\":8601:8607   */\n              dup6\n                /* \"#utility.yul\":8594:8599   */\n              dup3\n                /* \"#utility.yul\":8541:8608   */\n              tag_63\n              jump\t// in\n            tag_153:\n                /* \"#utility.yul\":8535:8539   */\n              dup7\n                /* \"#utility.yul\":8528:8609   */\n              sstore\n                /* \"#utility.yul\":8390:8619   */\n              pop\n                /* \"#utility.yul\":7711:8619   */\n              jump(tag_150)\n                /* \"#utility.yul\":7741:8373   */\n            tag_151:\n                /* \"#utility.yul\":7793:7797   */\n              0x1f\n                /* \"#utility.yul\":7789:7798   */\n              not\n                /* \"#utility.yul\":7781:7787   */\n              dup5\n                /* \"#utility.yul\":7777:7799   */\n              and\n                /* \"#utility.yul\":7827:7864   */\n              tag_154\n                /* \"#utility.yul\":7859:7863   */\n              dup7\n                /* \"#utility.yul\":7827:7864   */\n              tag_49\n              jump\t// in\n            tag_154:\n                /* \"#utility.yul\":7886:7887   */\n              0x00\n                /* \"#utility.yul\":7900:8115   */\n            tag_155:\n                /* \"#utility.yul\":7914:7921   */\n              dup3\n                /* \"#utility.yul\":7911:7912   */\n              dup2\n                /* \"#utility.yul\":7908:7922   */\n              lt\n                /* \"#utility.yul\":7900:8115   */\n              iszero\n              tag_157\n              jumpi\n                /* \"#utility.yul\":8000:8009   */\n              dup5\n                /* \"#utility.yul\":7995:7998   */\n              dup10\n                /* \"#utility.yul\":7991:8010   */\n              add\n                /* \"#utility.yul\":7978:8011   */\n              calldataload\n                /* \"#utility.yul\":7970:7976   */\n              dup3\n                /* \"#utility.yul\":7963:8012   */\n              sstore\n                /* \"#utility.yul\":8051:8052   */\n              0x01\n                /* \"#utility.yul\":8043:8049   */\n              dup3\n                /* \"#utility.yul\":8039:8053   */\n              add\n                /* \"#utility.yul\":8029:8053   */\n              swap2\n              pop\n                /* \"#utility.yul\":8098:8100   */\n              0x20\n                /* \"#utility.yul\":8087:8096   */\n              dup6\n                /* \"#utility.yul\":8083:8101   */\n              add\n                /* \"#utility.yul\":8070:8101   */\n              swap5\n              pop\n                /* \"#utility.yul\":7937:7941   */\n              0x20\n                /* \"#utility.yul\":7934:7935   */\n              dup2\n                /* \"#utility.yul\":7930:7942   */\n              add\n                /* \"#utility.yul\":7925:7942   */\n              swap1\n              pop\n                /* \"#utility.yul\":7900:8115   */\n              jump(tag_155)\n            tag_157:\n                /* \"#utility.yul\":8143:8149   */\n              dup7\n                /* \"#utility.yul\":8134:8141   */\n              dup4\n                /* \"#utility.yul\":8131:8150   */\n              lt\n                /* \"#utility.yul\":8128:8314   */\n              iszero\n              tag_158\n              jumpi\n                /* \"#utility.yul\":8208:8217   */\n              dup5\n                /* \"#utility.yul\":8203:8206   */\n              dup10\n                /* \"#utility.yul\":8199:8218   */\n              add\n                /* \"#utility.yul\":8186:8219   */\n              calldataload\n                /* \"#utility.yul\":8251:8299   */\n              tag_159\n                /* \"#utility.yul\":8293:8297   */\n              0x1f\n                /* \"#utility.yul\":8285:8291   */\n              dup10\n                /* \"#utility.yul\":8281:8298   */\n              and\n                /* \"#utility.yul\":8270:8279   */\n              dup3\n                /* \"#utility.yul\":8251:8299   */\n              tag_62\n              jump\t// in\n            tag_159:\n                /* \"#utility.yul\":8243:8249   */\n              dup4\n                /* \"#utility.yul\":8236:8300   */\n              sstore\n                /* \"#utility.yul\":8151:8314   */\n              pop\n                /* \"#utility.yul\":8128:8314   */\n            tag_158:\n                /* \"#utility.yul\":8360:8361   */\n              0x01\n                /* \"#utility.yul\":8356:8357   */\n              0x02\n                /* \"#utility.yul\":8348:8354   */\n              dup9\n                /* \"#utility.yul\":8344:8358   */\n              mul\n                /* \"#utility.yul\":8340:8362   */\n              add\n                /* \"#utility.yul\":8334:8338   */\n              dup9\n                /* \"#utility.yul\":8327:8363   */\n              sstore\n                /* \"#utility.yul\":7748:8373   */\n              pop\n              pop\n              pop\n                /* \"#utility.yul\":7711:8619   */\n            tag_150:\n              pop\n                /* \"#utility.yul\":7321:8625   */\n              pop\n              pop\n              pop\n                /* \"#utility.yul\":7222:8625   */\n              pop\n              pop\n              pop\n              jump\t// out\n\n            auxdata: 0xa2646970667358221220e3aed7ad73fb0dd4961c89fe646b0ab03176c8407f8c7aed9b153df781faee3c64736f6c634300081a0033\n        }\n    }\n\n    auxdata: 0xa2646970667358221220c8afc1f818d97ab613c1e273aa9ba5e2b1300b08f6303bcec69e0b036a31003464736f6c634300081a0033\n}\n",
				"bytecode": {
					"linkReferences": {},
					"object": "6080604052348015600e575f80fd5b5061142d8061001c5f395ff3fe608060405234801561000f575f80fd5b506004361061003f575f3560e01c8063344610671461004357806399b5346314610073578063d81aa8c41461008f575b5f80fd5b61005d6004803603810190610058919061022d565b6100ab565b60405161006a9190610270565b60405180910390f35b61008d600480360381019061008891906102e3565b6100cb565b005b6100a960048036038101906100a4919061036f565b61014f565b005b600181815481106100ba575f80fd5b905f5260205f20015f915090505481565b5f816040516100d9906101d8565b6100e391906103c9565b604051809103905ff0801580156100fc573d5f803e3d5ffd5b50905060018260405160200161011291906103c9565b60405160208183030381529060405280519060200120908060018154018082558091505060019003905f5260205f20015f90919091909150555050565b5f828260405161015e906101e5565b61016992919061043c565b604051809103905ff080158015610182573d5f803e3d5ffd5b5090506001838360405160200161019a92919061043c565b60405160208183030381529060405280519060200120908060018154018082558091505060019003905f5260205f20015f9091909190915055505050565b6104538061045f83390190565b610b46806108b283390190565b5f80fd5b5f80fd5b5f819050919050565b61020c816101fa565b8114610216575f80fd5b50565b5f8135905061022781610203565b92915050565b5f60208284031215610242576102416101f2565b5b5f61024f84828501610219565b91505092915050565b5f819050919050565b61026a81610258565b82525050565b5f6020820190506102835f830184610261565b92915050565b5f73ffffffffffffffffffffffffffffffffffffffff82169050919050565b5f6102b282610289565b9050919050565b6102c2816102a8565b81146102cc575f80fd5b50565b5f813590506102dd816102b9565b92915050565b5f602082840312156102f8576102f76101f2565b5b5f610305848285016102cf565b91505092915050565b5f80fd5b5f80fd5b5f80fd5b5f8083601f84011261032f5761032e61030e565b5b8235905067ffffffffffffffff81111561034c5761034b610312565b5b60208301915083600182028301111561036857610367610316565b5b9250929050565b5f8060208385031215610385576103846101f2565b5b5f83013567ffffffffffffffff8111156103a2576103a16101f6565b5b6103ae8582860161031a565b92509250509250929050565b6103c3816102a8565b82525050565b5f6020820190506103dc5f8301846103ba565b92915050565b5f82825260208201905092915050565b828183375f83830152505050565b5f601f19601f8301169050919050565b5f61041b83856103e2565b93506104288385846103f2565b61043183610400565b840190509392505050565b5f6020820190508181035f830152610455818486610410565b9050939250505056fe60a060405234801561000f575f80fd5b50604051610453380380610453833981810160405281019061003191906100de565b42806080818152505050805f806101000a81548173ffffffffffffffffffffffffffffffffffffffff021916908373ffffffffffffffffffffffffffffffffffffffff16021790555050610109565b5f80fd5b5f73ffffffffffffffffffffffffffffffffffffffff82169050919050565b5f6100ad82610084565b9050919050565b6100bd816100a3565b81146100c7575f80fd5b50565b5f815190506100d8816100b4565b92915050565b5f602082840312156100f3576100f2610080565b5b5f610100848285016100ca565b91505092915050565b6080516103326101215f395f61010301526103325ff3fe608060405234801561000f575f80fd5b506004361061004a575f3560e01c80630781f5c91461004e5780631dcd69ec1461006c578063266cf1091461008a578063c37787d9146100a8575b5f80fd5b6100566100c4565b60405161006391906101fa565b60405180910390f35b610074610101565b6040516100819190610232565b60405180910390f35b610092610125565b60405161009f919061028a565b60405180910390f35b6100c260048036038101906100bd91906102d1565b610148565b005b60606040518060400160405280600781526020017f6164647265737300000000000000000000000000000000000000000000000000815250905090565b7f000000000000000000000000000000000000000000000000000000000000000081565b5f8054906101000a900473ffffffffffffffffffffffffffffffffffffffff1681565b805f806101000a81548173ffffffffffffffffffffffffffffffffffffffff021916908373ffffffffffffffffffffffffffffffffffffffff16021790555050565b5f81519050919050565b5f82825260208201905092915050565b8281835e5f83830152505050565b5f601f19601f8301169050919050565b5f6101cc8261018a565b6101d68185610194565b93506101e68185602086016101a4565b6101ef816101b2565b840191505092915050565b5f6020820190508181035f83015261021281846101c2565b905092915050565b5f819050919050565b61022c8161021a565b82525050565b5f6020820190506102455f830184610223565b92915050565b5f73ffffffffffffffffffffffffffffffffffffffff82169050919050565b5f6102748261024b565b9050919050565b6102848161026a565b82525050565b5f60208201905061029d5f83018461027b565b92915050565b5f80fd5b6102b08161026a565b81146102ba575f80fd5b50565b5f813590506102cb816102a7565b92915050565b5f602082840312156102e6576102e56102a3565b5b5f6102f3848285016102bd565b9150509291505056fea2646970667358221220915e34184188c05531213b9c0eee87075a0a716909679ccfb56d6302747edf2964736f6c634300081a003360a060405234801561000f575f80fd5b50604051610b46380380610b468339818101604052810190610031919061019d565b42806080818152505050805f908161004991906103f1565b50506104c0565b5f604051905090565b5f80fd5b5f80fd5b5f80fd5b5f80fd5b5f601f19601f8301169050919050565b7f4e487b71000000000000000000000000000000000000000000000000000000005f52604160045260245ffd5b6100af82610069565b810181811067ffffffffffffffff821117156100ce576100cd610079565b5b80604052505050565b5f6100e0610050565b90506100ec82826100a6565b919050565b5f67ffffffffffffffff82111561010b5761010a610079565b5b61011482610069565b9050602081019050919050565b8281835e5f83830152505050565b5f61014161013c846100f1565b6100d7565b90508281526020810184848401111561015d5761015c610065565b5b610168848285610121565b509392505050565b5f82601f83011261018457610183610061565b5b815161019484826020860161012f565b91505092915050565b5f602082840312156101b2576101b1610059565b5b5f82015167ffffffffffffffff8111156101cf576101ce61005d565b5b6101db84828501610170565b91505092915050565b5f81519050919050565b7f4e487b71000000000000000000000000000000000000000000000000000000005f52602260045260245ffd5b5f600282049050600182168061023257607f821691505b602082108103610245576102446101ee565b5b50919050565b5f819050815f5260205f209050919050565b5f6020601f8301049050919050565b5f82821b905092915050565b5f600883026102a77fffffffffffffffffffffffffffffffffffffffffffffffffffffffffffffffff8261026c565b6102b1868361026c565b95508019841693508086168417925050509392505050565b5f819050919050565b5f819050919050565b5f6102f56102f06102eb846102c9565b6102d2565b6102c9565b9050919050565b5f819050919050565b61030e836102db565b61032261031a826102fc565b848454610278565b825550505050565b5f90565b61033661032a565b610341818484610305565b505050565b5b81811015610364576103595f8261032e565b600181019050610347565b5050565b601f8211156103a95761037a8161024b565b6103838461025d565b81016020851015610392578190505b6103a661039e8561025d565b830182610346565b50505b505050565b5f82821c905092915050565b5f6103c95f19846008026103ae565b1980831691505092915050565b5f6103e183836103ba565b9150826002028217905092915050565b6103fa826101e4565b67ffffffffffffffff81111561041357610412610079565b5b61041d825461021b565b610428828285610368565b5f60209050601f831160018114610459575f8415610447578287015190505b61045185826103d6565b8655506104b8565b601f1984166104678661024b565b5f5b8281101561048e57848901518255600182019150602085019450602081019050610469565b868310156104ab57848901516104a7601f8916826103ba565b8355505b6001600288020188555050505b505050505050565b60805161066e6104d85f395f610103015261066e5ff3fe608060405234801561000f575f80fd5b506004361061004a575f3560e01c80630781f5c91461004e5780631dcd69ec1461006c578063266cf1091461008a5780633e0a0099146100a8575b5f80fd5b6100566100c4565b6040516100639190610235565b60405180910390f35b610074610101565b604051610081919061026d565b60405180910390f35b610092610125565b60405161009f9190610235565b60405180910390f35b6100c260048036038101906100bd91906102ef565b6101b0565b005b60606040518060400160405280600681526020017f737472696e670000000000000000000000000000000000000000000000000000815250905090565b7f000000000000000000000000000000000000000000000000000000000000000081565b5f805461013190610367565b80601f016020809104026020016040519081016040528092919081815260200182805461015d90610367565b80156101a85780601f1061017f576101008083540402835291602001916101a8565b820191905f5260205f20905b81548152906001019060200180831161018b57829003601f168201915b505050505081565b81815f91826101c092919061056b565b505050565b5f81519050919050565b5f82825260208201905092915050565b8281835e5f83830152505050565b5f601f19601f8301169050919050565b5f610207826101c5565b61021181856101cf565b93506102218185602086016101df565b61022a816101ed565b840191505092915050565b5f6020820190508181035f83015261024d81846101fd565b905092915050565b5f819050919050565b61026781610255565b82525050565b5f6020820190506102805f83018461025e565b92915050565b5f80fd5b5f80fd5b5f80fd5b5f80fd5b5f80fd5b5f8083601f8401126102af576102ae61028e565b5b8235905067ffffffffffffffff8111156102cc576102cb610292565b5b6020830191508360018202830111156102e8576102e7610296565b5b9250929050565b5f806020838503121561030557610304610286565b5b5f83013567ffffffffffffffff8111156103225761032161028a565b5b61032e8582860161029a565b92509250509250929050565b7f4e487b71000000000000000000000000000000000000000000000000000000005f52602260045260245ffd5b5f600282049050600182168061037e57607f821691505b6020821081036103915761039061033a565b5b50919050565b5f82905092915050565b7f4e487b71000000000000000000000000000000000000000000000000000000005f52604160045260245ffd5b5f819050815f5260205f209050919050565b5f6020601f8301049050919050565b5f82821b905092915050565b5f6008830261042a7fffffffffffffffffffffffffffffffffffffffffffffffffffffffffffffffff826103ef565b61043486836103ef565b95508019841693508086168417925050509392505050565b5f819050919050565b5f61046f61046a61046584610255565b61044c565b610255565b9050919050565b5f819050919050565b61048883610455565b61049c61049482610476565b8484546103fb565b825550505050565b5f90565b6104b06104a4565b6104bb81848461047f565b505050565b5b818110156104de576104d35f826104a8565b6001810190506104c1565b5050565b601f821115610523576104f4816103ce565b6104fd846103e0565b8101602085101561050c578190505b610520610518856103e0565b8301826104c0565b50505b505050565b5f82821c905092915050565b5f6105435f1984600802610528565b1980831691505092915050565b5f61055b8383610534565b9150826002028217905092915050565b6105758383610397565b67ffffffffffffffff81111561058e5761058d6103a1565b5b6105988254610367565b6105a38282856104e2565b5f601f8311600181146105d0575f84156105be578287013590505b6105c88582610550565b86555061062f565b601f1984166105de866103ce565b5f5b82811015610605578489013582556001820191506020850194506020810190506105e0565b86831015610622578489013561061e601f891682610534565b8355505b6001600288020188555050505b5050505050505056fea2646970667358221220e3aed7ad73fb0dd4961c89fe646b0ab03176c8407f8c7aed9b153df781faee3c64736f6c634300081a0033a2646970667358221220c8afc1f818d97ab613c1e273aa9ba5e2b1300b08f6303bcec69e0b036a31003464736f6c634300081a0033",
					"opcodes": "PUSH1 0x80 PUSH1 0x40 MSTORE CALLVALUE DUP1 ISZERO PUSH1 0xE JUMPI PUSH0 DUP1 REVERT JUMPDEST POP PUSH2 0x142D DUP1 PUSH2 0x1C PUSH0 CODECOPY PUSH0 RETURN INVALID PUSH1 0x80 PUSH1 0x40 MSTORE CALLVALUE DUP1 ISZERO PUSH2 0xF JUMPI PUSH0 DUP1 REVERT JUMPDEST POP PUSH1 0x4 CALLDATASIZE LT PUSH2 0x3F JUMPI PUSH0 CALLDATALOAD PUSH1 0xE0 SHR DUP1 PUSH4 0x34461067 EQ PUSH2 0x43 JUMPI DUP1 PUSH4 0x99B53463 EQ PUSH2 0x73 JUMPI DUP1 PUSH4 0xD81AA8C4 EQ PUSH2 0x8F JUMPI JUMPDEST PUSH0 DUP1 REVERT JUMPDEST PUSH2 0x5D PUSH1 0x4 DUP1 CALLDATASIZE SUB DUP2 ADD SWAP1 PUSH2 0x58 SWAP2 SWAP1 PUSH2 0x22D JUMP JUMPDEST PUSH2 0xAB JUMP JUMPDEST PUSH1 0x40 MLOAD PUSH2 0x6A SWAP2 SWAP1 PUSH2 0x270 JUMP JUMPDEST PUSH1 0x40 MLOAD DUP1 SWAP2 SUB SWAP1 RETURN JUMPDEST PUSH2 0x8D PUSH1 0x4 DUP1 CALLDATASIZE SUB DUP2 ADD SWAP1 PUSH2 0x88 SWAP2 SWAP1 PUSH2 0x2E3 JUMP JUMPDEST PUSH2 0xCB JUMP JUMPDEST STOP JUMPDEST PUSH2 0xA9 PUSH1 0x4 DUP1 CALLDATASIZE SUB DUP2 ADD SWAP1 PUSH2 0xA4 SWAP2 SWAP1 PUSH2 0x36F JUMP JUMPDEST PUSH2 0x14F JUMP JUMPDEST STOP JUMPDEST PUSH1 0x1 DUP2 DUP2 SLOAD DUP2 LT PUSH2 0xBA JUMPI PUSH0 DUP1 REVERT JUMPDEST SWAP1 PUSH0 MSTORE PUSH1 0x20 PUSH0 KECCAK256 ADD PUSH0 SWAP2 POP SWAP1 POP SLOAD DUP2 JUMP JUMPDEST PUSH0 DUP2 PUSH1 0x40 MLOAD PUSH2 0xD9 SWAP1 PUSH2 0x1D8 JUMP JUMPDEST PUSH2 0xE3 SWAP2 SWAP1 PUSH2 0x3C9 JUMP JUMPDEST PUSH1 0x40 MLOAD DUP1 SWAP2 SUB SWAP1 PUSH0 CREATE DUP1 ISZERO DUP1 ISZERO PUSH2 0xFC JUMPI RETURNDATASIZE PUSH0 DUP1 RETURNDATACOPY RETURNDATASIZE PUSH0 REVERT JUMPDEST POP SWAP1 POP PUSH1 0x1 DUP3 PUSH1 0x40 MLOAD PUSH1 0x20 ADD PUSH2 0x112 SWAP2 SWAP1 PUSH2 0x3C9 JUMP JUMPDEST PUSH1 0x40 MLOAD PUSH1 0x20 DUP2 DUP4 SUB SUB DUP2 MSTORE SWAP1 PUSH1 0x40 MSTORE DUP1 MLOAD SWAP1 PUSH1 0x20 ADD KECCAK256 SWAP1 DUP1 PUSH1 0x1 DUP2 SLOAD ADD DUP1 DUP3 SSTORE DUP1 SWAP2 POP POP PUSH1 0x1 SWAP1 SUB SWAP1 PUSH0 MSTORE PUSH1 0x20 PUSH0 KECCAK256 ADD PUSH0 SWAP1 SWAP2 SWAP1 SWAP2 SWAP1 SWAP2 POP SSTORE POP POP JUMP JUMPDEST PUSH0 DUP3 DUP3 PUSH1 0x40 MLOAD PUSH2 0x15E SWAP1 PUSH2 0x1E5 JUMP JUMPDEST PUSH2 0x169 SWAP3 SWAP2 SWAP1 PUSH2 0x43C JUMP JUMPDEST PUSH1 0x40 MLOAD DUP1 SWAP2 SUB SWAP1 PUSH0 CREATE DUP1 ISZERO DUP1 ISZERO PUSH2 0x182 JUMPI RETURNDATASIZE PUSH0 DUP1 RETURNDATACOPY RETURNDATASIZE PUSH0 REVERT JUMPDEST POP SWAP1 POP PUSH1 0x1 DUP4 DUP4 PUSH1 0x40 MLOAD PUSH1 0x20 ADD PUSH2 0x19A SWAP3 SWAP2 SWAP1 PUSH2 0x43C JUMP JUMPDEST PUSH1 0x40 MLOAD PUSH1 0x20 DUP2 DUP4 SUB SUB DUP2 MSTORE SWAP1 PUSH1 0x40 MSTORE DUP1 MLOAD SWAP1 PUSH1 0x20 ADD KECCAK256 SWAP1 DUP1 PUSH1 0x1 DUP2 SLOAD ADD DUP1 DUP3 SSTORE DUP1 SWAP2 POP POP PUSH1 0x1 SWAP1 SUB SWAP1 PUSH0 MSTORE PUSH1 0x20 PUSH0 KECCAK256 ADD PUSH0 SWAP1 SWAP2 SWAP1 SWAP2 SWAP1 SWAP2 POP SSTORE POP POP POP JUMP JUMPDEST PUSH2 0x453 DUP1 PUSH2 0x45F DUP4 CODECOPY ADD SWAP1 JUMP JUMPDEST PUSH2 0xB46 DUP1 PUSH2 0x8B2 DUP4 CODECOPY ADD SWAP1 JUMP JUMPDEST PUSH0 DUP1 REVERT JUMPDEST PUSH0 DUP1 REVERT JUMPDEST PUSH0 DUP2 SWAP1 POP SWAP2 SWAP1 POP JUMP JUMPDEST PUSH2 0x20C DUP2 PUSH2 0x1FA JUMP JUMPDEST DUP2 EQ PUSH2 0x216 JUMPI PUSH0 DUP1 REVERT JUMPDEST POP JUMP JUMPDEST PUSH0 DUP2 CALLDATALOAD SWAP1 POP PUSH2 0x227 DUP2 PUSH2 0x203 JUMP JUMPDEST SWAP3 SWAP2 POP POP JUMP JUMPDEST PUSH0 PUSH1 0x20 DUP3 DUP5 SUB SLT ISZERO PUSH2 0x242 JUMPI PUSH2 0x241 PUSH2 0x1F2 JUMP JUMPDEST JUMPDEST PUSH0 PUSH2 0x24F DUP5 DUP3 DUP6 ADD PUSH2 0x219 JUMP JUMPDEST SWAP2 POP POP SWAP3 SWAP2 POP POP JUMP JUMPDEST PUSH0 DUP2 SWAP1 POP SWAP2 SWAP1 POP JUMP JUMPDEST PUSH2 0x26A DUP2 PUSH2 0x258 JUMP JUMPDEST DUP3 MSTORE POP POP JUMP JUMPDEST PUSH0 PUSH1 0x20 DUP3 ADD SWAP1 POP PUSH2 0x283 PUSH0 DUP4 ADD DUP5 PUSH2 0x261 JUMP JUMPDEST SWAP3 SWAP2 POP POP JUMP JUMPDEST PUSH0 PUSH20 0xFFFFFFFFFFFFFFFFFFFFFFFFFFFFFFFFFFFFFFFF DUP3 AND SWAP1 POP SWAP2 SWAP1 POP JUMP JUMPDEST PUSH0 PUSH2 0x2B2 DUP3 PUSH2 0x289 JUMP JUMPDEST SWAP1 POP SWAP2 SWAP1 POP JUMP JUMPDEST PUSH2 0x2C2 DUP2 PUSH2 0x2A8 JUMP JUMPDEST DUP2 EQ PUSH2 0x2CC JUMPI PUSH0 DUP1 REVERT JUMPDEST POP JUMP JUMPDEST PUSH0 DUP2 CALLDATALOAD SWAP1 POP PUSH2 0x2DD DUP2 PUSH2 0x2B9 JUMP JUMPDEST SWAP3 SWAP2 POP POP JUMP JUMPDEST PUSH0 PUSH1 0x20 DUP3 DUP5 SUB SLT ISZERO PUSH2 0x2F8 JUMPI PUSH2 0x2F7 PUSH2 0x1F2 JUMP JUMPDEST JUMPDEST PUSH0 PUSH2 0x305 DUP5 DUP3 DUP6 ADD PUSH2 0x2CF JUMP JUMPDEST SWAP2 POP POP SWAP3 SWAP2 POP POP JUMP JUMPDEST PUSH0 DUP1 REVERT JUMPDEST PUSH0 DUP1 REVERT JUMPDEST PUSH0 DUP1 REVERT JUMPDEST PUSH0 DUP1 DUP4 PUSH1 0x1F DUP5 ADD SLT PUSH2 0x32F JUMPI PUSH2 0x32E PUSH2 0x30E JUMP JUMPDEST JUMPDEST DUP3 CALLDATALOAD SWAP1 POP PUSH8 0xFFFFFFFFFFFFFFFF DUP2 GT ISZERO PUSH2 0x34C JUMPI PUSH2 0x34B PUSH2 0x312 JUMP JUMPDEST JUMPDEST PUSH1 0x20 DUP4 ADD SWAP2 POP DUP4 PUSH1 0x1 DUP3 MUL DUP4 ADD GT ISZERO PUSH2 0x368 JUMPI PUSH2 0x367 PUSH2 0x316 JUMP JUMPDEST JUMPDEST SWAP3 POP SWAP3 SWAP1 POP JUMP JUMPDEST PUSH0 DUP1 PUSH1 0x20 DUP4 DUP6 SUB SLT ISZERO PUSH2 0x385 JUMPI PUSH2 0x384 PUSH2 0x1F2 JUMP JUMPDEST JUMPDEST PUSH0 DUP4 ADD CALLDATALOAD PUSH8 0xFFFFFFFFFFFFFFFF DUP2 GT ISZERO PUSH2 0x3A2 JUMPI PUSH2 0x3A1 PUSH2 0x1F6 JUMP JUMPDEST JUMPDEST PUSH2 0x3AE DUP6 DUP3 DUP7 ADD PUSH2 0x31A JUMP JUMPDEST SWAP3 POP SWAP3 POP POP SWAP3 POP SWAP3 SWAP1 POP JUMP JUMPDEST PUSH2 0x3C3 DUP2 PUSH2 0x2A8 JUMP JUMPDEST DUP3 MSTORE POP POP JUMP JUMPDEST PUSH0 PUSH1 0x20 DUP3 ADD SWAP1 POP PUSH2 0x3DC PUSH0 DUP4 ADD DUP5 PUSH2 0x3BA JUMP JUMPDEST SWAP3 SWAP2 POP POP JUMP JUMPDEST PUSH0 DUP3 DUP3 MSTORE PUSH1 0x20 DUP3 ADD SWAP1 POP SWAP3 SWAP2 POP POP JUMP JUMPDEST DUP3 DUP2 DUP4 CALLDATACOPY PUSH0 DUP4 DUP4 ADD MSTORE POP POP POP JUMP JUMPDEST PUSH0 PUSH1 0x1F NOT PUSH1 0x1F DUP4 ADD AND SWAP1 POP SWAP2 SWAP1 POP JUMP JUMPDEST PUSH0 PUSH2 0x41B DUP4 DUP6 PUSH2 0x3E2 JUMP JUMPDEST SWAP4 POP PUSH2 0x428 DUP4 DUP6 DUP5 PUSH2 0x3F2 JUMP JUMPDEST PUSH2 0x431 DUP4 PUSH2 0x400 JUMP JUMPDEST DUP5 ADD SWAP1 POP SWAP4 SWAP3 POP POP POP JUMP JUMPDEST PUSH0 PUSH1 0x20 DUP3 ADD SWAP1 POP DUP2 DUP2 SUB PUSH0 DUP4 ADD MSTORE PUSH2 0x455 DUP2 DUP5 DUP7 PUSH2 0x410 JUMP JUMPDEST SWAP1 POP SWAP4 SWAP3 POP POP POP JUMP INVALID PUSH1 0xA0 PUSH1 0x40 MSTORE CALLVALUE DUP1 ISZERO PUSH2 0xF JUMPI PUSH0 DUP1 REVERT JUMPDEST POP PUSH1 0x40 MLOAD PUSH2 0x453 CODESIZE SUB DUP1 PUSH2 0x453 DUP4 CODECOPY DUP2 DUP2 ADD PUSH1 0x40 MSTORE DUP2 ADD SWAP1 PUSH2 0x31 SWAP2 SWAP1 PUSH2 0xDE JUMP JUMPDEST TIMESTAMP DUP1 PUSH1 0x80 DUP2 DUP2 MSTORE POP POP POP DUP1 PUSH0 DUP1 PUSH2 0x100 EXP DUP2 SLOAD DUP2 PUSH20 0xFFFFFFFFFFFFFFFFFFFFFFFFFFFFFFFFFFFFFFFF MUL NOT AND SWAP1 DUP4 PUSH20 0xFFFFFFFFFFFFFFFFFFFFFFFFFFFFFFFFFFFFFFFF AND MUL OR SWAP1 SSTORE POP POP PUSH2 0x109 JUMP JUMPDEST PUSH0 DUP1 REVERT JUMPDEST PUSH0 PUSH20 0xFFFFFFFFFFFFFFFFFFFFFFFFFFFFFFFFFFFFFFFF DUP3 AND SWAP1 POP SWAP2 SWAP1 POP JUMP JUMPDEST PUSH0 PUSH2 0xAD DUP3 PUSH2 0x84 JUMP JUMPDEST SWAP1 POP SWAP2 SWAP1 POP JUMP JUMPDEST PUSH2 0xBD DUP2 PUSH2 0xA3 JUMP JUMPDEST DUP2 EQ PUSH2 0xC7 JUMPI PUSH0 DUP1 REVERT JUMPDEST POP JUMP JUMPDEST PUSH0 DUP2 MLOAD SWAP1 POP PUSH2 0xD8 DUP2 PUSH2 0xB4 JUMP JUMPDEST SWAP3 SWAP2 POP POP JUMP JUMPDEST PUSH0 PUSH1 0x20 DUP3 DUP5 SUB SLT ISZERO PUSH2 0xF3 JUMPI PUSH2 0xF2 PUSH2 0x80 JUMP JUMPDEST JUMPDEST PUSH0 PUSH2 0x100 DUP5 DUP3 DUP6 ADD PUSH2 0xCA JUMP JUMPDEST SWAP2 POP POP SWAP3 SWAP2 POP POP JUMP JUMPDEST PUSH1 0x80 MLOAD PUSH2 0x332 PUSH2 0x121 PUSH0 CODECOPY PUSH0 PUSH2 0x103 ADD MSTORE PUSH2 0x332 PUSH0 RETURN INVALID PUSH1 0x80 PUSH1 0x40 MSTORE CALLVALUE DUP1 ISZERO PUSH2 0xF JUMPI PUSH0 DUP1 REVERT JUMPDEST POP PUSH1 0x4 CALLDATASIZE LT PUSH2 0x4A JUMPI PUSH0 CALLDATALOAD PUSH1 0xE0 SHR DUP1 PUSH4 0x781F5C9 EQ PUSH2 0x4E JUMPI DUP1 PUSH4 0x1DCD69EC EQ PUSH2 0x6C JUMPI DUP1 PUSH4 0x266CF109 EQ PUSH2 0x8A JUMPI DUP1 PUSH4 0xC37787D9 EQ PUSH2 0xA8 JUMPI JUMPDEST PUSH0 DUP1 REVERT JUMPDEST PUSH2 0x56 PUSH2 0xC4 JUMP JUMPDEST PUSH1 0x40 MLOAD PUSH2 0x63 SWAP2 SWAP1 PUSH2 0x1FA JUMP JUMPDEST PUSH1 0x40 MLOAD DUP1 SWAP2 SUB SWAP1 RETURN JUMPDEST PUSH2 0x74 PUSH2 0x101 JUMP JUMPDEST PUSH1 0x40 MLOAD PUSH2 0x81 SWAP2 SWAP1 PUSH2 0x232 JUMP JUMPDEST PUSH1 0x40 MLOAD DUP1 SWAP2 SUB SWAP1 RETURN JUMPDEST PUSH2 0x92 PUSH2 0x125 JUMP JUMPDEST PUSH1 0x40 MLOAD PUSH2 0x9F SWAP2 SWAP1 PUSH2 0x28A JUMP JUMPDEST PUSH1 0x40 MLOAD DUP1 SWAP2 SUB SWAP1 RETURN JUMPDEST PUSH2 0xC2 PUSH1 0x4 DUP1 CALLDATASIZE SUB DUP2 ADD SWAP1 PUSH2 0xBD SWAP2 SWAP1 PUSH2 0x2D1 JUMP JUMPDEST PUSH2 0x148 JUMP JUMPDEST STOP JUMPDEST PUSH1 0x60 PUSH1 0x40 MLOAD DUP1 PUSH1 0x40 ADD PUSH1 0x40 MSTORE DUP1 PUSH1 0x7 DUP2 MSTORE PUSH1 0x20 ADD PUSH32 0x6164647265737300000000000000000000000000000000000000000000000000 DUP2 MSTORE POP SWAP1 POP SWAP1 JUMP JUMPDEST PUSH32 0x0 DUP2 JUMP JUMPDEST PUSH0 DUP1 SLOAD SWAP1 PUSH2 0x100 EXP SWAP1 DIV PUSH20 0xFFFFFFFFFFFFFFFFFFFFFFFFFFFFFFFFFFFFFFFF AND DUP2 JUMP JUMPDEST DUP1 PUSH0 DUP1 PUSH2 0x100 EXP DUP2 SLOAD DUP2 PUSH20 0xFFFFFFFFFFFFFFFFFFFFFFFFFFFFFFFFFFFFFFFF MUL NOT AND SWAP1 DUP4 PUSH20 0xFFFFFFFFFFFFFFFFFFFFFFFFFFFFFFFFFFFFFFFF AND MUL OR SWAP1 SSTORE POP POP JUMP JUMPDEST PUSH0 DUP2 MLOAD SWAP1 POP SWAP2 SWAP1 POP JUMP JUMPDEST PUSH0 DUP3 DUP3 MSTORE PUSH1 0x20 DUP3 ADD SWAP1 POP SWAP3 SWAP2 POP POP JUMP JUMPDEST DUP3 DUP2 DUP4 MCOPY PUSH0 DUP4 DUP4 ADD MSTORE POP POP POP JUMP JUMPDEST PUSH0 PUSH1 0x1F NOT PUSH1 0x1F DUP4 ADD AND SWAP1 POP SWAP2 SWAP1 POP JUMP JUMPDEST PUSH0 PUSH2 0x1CC DUP3 PUSH2 0x18A JUMP JUMPDEST PUSH2 0x1D6 DUP2 DUP6 PUSH2 0x194 JUMP JUMPDEST SWAP4 POP PUSH2 0x1E6 DUP2 DUP6 PUSH1 0x20 DUP7 ADD PUSH2 0x1A4 JUMP JUMPDEST PUSH2 0x1EF DUP2 PUSH2 0x1B2 JUMP JUMPDEST DUP5 ADD SWAP2 POP POP SWAP3 SWAP2 POP POP JUMP JUMPDEST PUSH0 PUSH1 0x20 DUP3 ADD SWAP1 POP DUP2 DUP2 SUB PUSH0 DUP4 ADD MSTORE PUSH2 0x212 DUP2 DUP5 PUSH2 0x1C2 JUMP JUMPDEST SWAP1 POP SWAP3 SWAP2 POP POP JUMP JUMPDEST PUSH0 DUP2 SWAP1 POP SWAP2 SWAP1 POP JUMP JUMPDEST PUSH2 0x22C DUP2 PUSH2 0x21A JUMP JUMPDEST DUP3 MSTORE POP POP JUMP JUMPDEST PUSH0 PUSH1 0x20 DUP3 ADD SWAP1 POP PUSH2 0x245 PUSH0 DUP4 ADD DUP5 PUSH2 0x223 JUMP JUMPDEST SWAP3 SWAP2 POP POP JUMP JUMPDEST PUSH0 PUSH20 0xFFFFFFFFFFFFFFFFFFFFFFFFFFFFFFFFFFFFFFFF DUP3 AND SWAP1 POP SWAP2 SWAP1 POP JUMP JUMPDEST PUSH0 PUSH2 0x274 DUP3 PUSH2 0x24B JUMP JUMPDEST SWAP1 POP SWAP2 SWAP1 POP JUMP JUMPDEST PUSH2 0x284 DUP2 PUSH2 0x26A JUMP JUMPDEST DUP3 MSTORE POP POP JUMP JUMPDEST PUSH0 PUSH1 0x20 DUP3 ADD SWAP1 POP PUSH2 0x29D PUSH0 DUP4 ADD DUP5 PUSH2 0x27B JUMP JUMPDEST SWAP3 SWAP2 POP POP JUMP JUMPDEST PUSH0 DUP1 REVERT JUMPDEST PUSH2 0x2B0 DUP2 PUSH2 0x26A JUMP JUMPDEST DUP2 EQ PUSH2 0x2BA JUMPI PUSH0 DUP1 REVERT JUMPDEST POP JUMP JUMPDEST PUSH0 DUP2 CALLDATALOAD SWAP1 POP PUSH2 0x2CB DUP2 PUSH2 0x2A7 JUMP JUMPDEST SWAP3 SWAP2 POP POP JUMP JUMPDEST PUSH0 PUSH1 0x20 DUP3 DUP5 SUB SLT ISZERO PUSH2 0x2E6 JUMPI PUSH2 0x2E5 PUSH2 0x2A3 JUMP JUMPDEST JUMPDEST PUSH0 PUSH2 0x2F3 DUP5 DUP3 DUP6 ADD PUSH2 0x2BD JUMP JUMPDEST SWAP2 POP POP SWAP3 SWAP2 POP POP JUMP INVALID LOG2 PUSH5 0x6970667358 0x22 SLT KECCAK256 SWAP2 MCOPY CALLVALUE XOR COINBASE DUP9 0xC0 SSTORE BALANCE 0x21 EXTCODESIZE SWAP13 0xE 0xEE DUP8 SMOD GAS EXP PUSH18 0x6909679CCFB56D6302747EDF2964736F6C63 NUMBER STOP ADDMOD BYTE STOP CALLER PUSH1 0xA0 PUSH1 0x40 MSTORE CALLVALUE DUP1 ISZERO PUSH2 0xF JUMPI PUSH0 DUP1 REVERT JUMPDEST POP PUSH1 0x40 MLOAD PUSH2 0xB46 CODESIZE SUB DUP1 PUSH2 0xB46 DUP4 CODECOPY DUP2 DUP2 ADD PUSH1 0x40 MSTORE DUP2 ADD SWAP1 PUSH2 0x31 SWAP2 SWAP1 PUSH2 0x19D JUMP JUMPDEST TIMESTAMP DUP1 PUSH1 0x80 DUP2 DUP2 MSTORE POP POP POP DUP1 PUSH0 SWAP1 DUP2 PUSH2 0x49 SWAP2 SWAP1 PUSH2 0x3F1 JUMP JUMPDEST POP POP PUSH2 0x4C0 JUMP JUMPDEST PUSH0 PUSH1 0x40 MLOAD SWAP1 POP SWAP1 JUMP JUMPDEST PUSH0 DUP1 REVERT JUMPDEST PUSH0 DUP1 REVERT JUMPDEST PUSH0 DUP1 REVERT JUMPDEST PUSH0 DUP1 REVERT JUMPDEST PUSH0 PUSH1 0x1F NOT PUSH1 0x1F DUP4 ADD AND SWAP1 POP SWAP2 SWAP1 POP JUMP JUMPDEST PUSH32 0x4E487B7100000000000000000000000000000000000000000000000000000000 PUSH0 MSTORE PUSH1 0x41 PUSH1 0x4 MSTORE PUSH1 0x24 PUSH0 REVERT JUMPDEST PUSH2 0xAF DUP3 PUSH2 0x69 JUMP JUMPDEST DUP2 ADD DUP2 DUP2 LT PUSH8 0xFFFFFFFFFFFFFFFF DUP3 GT OR ISZERO PUSH2 0xCE JUMPI PUSH2 0xCD PUSH2 0x79 JUMP JUMPDEST JUMPDEST DUP1 PUSH1 0x40 MSTORE POP POP POP JUMP JUMPDEST PUSH0 PUSH2 0xE0 PUSH2 0x50 JUMP JUMPDEST SWAP1 POP PUSH2 0xEC DUP3 DUP3 PUSH2 0xA6 JUMP JUMPDEST SWAP2 SWAP1 POP JUMP JUMPDEST PUSH0 PUSH8 0xFFFFFFFFFFFFFFFF DUP3 GT ISZERO PUSH2 0x10B JUMPI PUSH2 0x10A PUSH2 0x79 JUMP JUMPDEST JUMPDEST PUSH2 0x114 DUP3 PUSH2 0x69 JUMP JUMPDEST SWAP1 POP PUSH1 0x20 DUP2 ADD SWAP1 POP SWAP2 SWAP1 POP JUMP JUMPDEST DUP3 DUP2 DUP4 MCOPY PUSH0 DUP4 DUP4 ADD MSTORE POP POP POP JUMP JUMPDEST PUSH0 PUSH2 0x141 PUSH2 0x13C DUP5 PUSH2 0xF1 JUMP JUMPDEST PUSH2 0xD7 JUMP JUMPDEST SWAP1 POP DUP3 DUP2 MSTORE PUSH1 0x20 DUP2 ADD DUP5 DUP5 DUP5 ADD GT ISZERO PUSH2 0x15D JUMPI PUSH2 0x15C PUSH2 0x65 JUMP JUMPDEST JUMPDEST PUSH2 0x168 DUP5 DUP3 DUP6 PUSH2 0x121 JUMP JUMPDEST POP SWAP4 SWAP3 POP POP POP JUMP JUMPDEST PUSH0 DUP3 PUSH1 0x1F DUP4 ADD SLT PUSH2 0x184 JUMPI PUSH2 0x183 PUSH2 0x61 JUMP JUMPDEST JUMPDEST DUP2 MLOAD PUSH2 0x194 DUP5 DUP3 PUSH1 0x20 DUP7 ADD PUSH2 0x12F JUMP JUMPDEST SWAP2 POP POP SWAP3 SWAP2 POP POP JUMP JUMPDEST PUSH0 PUSH1 0x20 DUP3 DUP5 SUB SLT ISZERO PUSH2 0x1B2 JUMPI PUSH2 0x1B1 PUSH2 0x59 JUMP JUMPDEST JUMPDEST PUSH0 DUP3 ADD MLOAD PUSH8 0xFFFFFFFFFFFFFFFF DUP2 GT ISZERO PUSH2 0x1CF JUMPI PUSH2 0x1CE PUSH2 0x5D JUMP JUMPDEST JUMPDEST PUSH2 0x1DB DUP5 DUP3 DUP6 ADD PUSH2 0x170 JUMP JUMPDEST SWAP2 POP POP SWAP3 SWAP2 POP POP JUMP JUMPDEST PUSH0 DUP2 MLOAD SWAP1 POP SWAP2 SWAP1 POP JUMP JUMPDEST PUSH32 0x4E487B7100000000000000000000000000000000000000000000000000000000 PUSH0 MSTORE PUSH1 0x22 PUSH1 0x4 MSTORE PUSH1 0x24 PUSH0 REVERT JUMPDEST PUSH0 PUSH1 0x2 DUP3 DIV SWAP1 POP PUSH1 0x1 DUP3 AND DUP1 PUSH2 0x232 JUMPI PUSH1 0x7F DUP3 AND SWAP2 POP JUMPDEST PUSH1 0x20 DUP3 LT DUP2 SUB PUSH2 0x245 JUMPI PUSH2 0x244 PUSH2 0x1EE JUMP JUMPDEST JUMPDEST POP SWAP2 SWAP1 POP JUMP JUMPDEST PUSH0 DUP2 SWAP1 POP DUP2 PUSH0 MSTORE PUSH1 0x20 PUSH0 KECCAK256 SWAP1 POP SWAP2 SWAP1 POP JUMP JUMPDEST PUSH0 PUSH1 0x20 PUSH1 0x1F DUP4 ADD DIV SWAP1 POP SWAP2 SWAP1 POP JUMP JUMPDEST PUSH0 DUP3 DUP3 SHL SWAP1 POP SWAP3 SWAP2 POP POP JUMP JUMPDEST PUSH0 PUSH1 0x8 DUP4 MUL PUSH2 0x2A7 PUSH32 0xFFFFFFFFFFFFFFFFFFFFFFFFFFFFFFFFFFFFFFFFFFFFFFFFFFFFFFFFFFFFFFFF DUP3 PUSH2 0x26C JUMP JUMPDEST PUSH2 0x2B1 DUP7 DUP4 PUSH2 0x26C JUMP JUMPDEST SWAP6 POP DUP1 NOT DUP5 AND SWAP4 POP DUP1 DUP7 AND DUP5 OR SWAP3 POP POP POP SWAP4 SWAP3 POP POP POP JUMP JUMPDEST PUSH0 DUP2 SWAP1 POP SWAP2 SWAP1 POP JUMP JUMPDEST PUSH0 DUP2 SWAP1 POP SWAP2 SWAP1 POP JUMP JUMPDEST PUSH0 PUSH2 0x2F5 PUSH2 0x2F0 PUSH2 0x2EB DUP5 PUSH2 0x2C9 JUMP JUMPDEST PUSH2 0x2D2 JUMP JUMPDEST PUSH2 0x2C9 JUMP JUMPDEST SWAP1 POP SWAP2 SWAP1 POP JUMP JUMPDEST PUSH0 DUP2 SWAP1 POP SWAP2 SWAP1 POP JUMP JUMPDEST PUSH2 0x30E DUP4 PUSH2 0x2DB JUMP JUMPDEST PUSH2 0x322 PUSH2 0x31A DUP3 PUSH2 0x2FC JUMP JUMPDEST DUP5 DUP5 SLOAD PUSH2 0x278 JUMP JUMPDEST DUP3 SSTORE POP POP POP POP JUMP JUMPDEST PUSH0 SWAP1 JUMP JUMPDEST PUSH2 0x336 PUSH2 0x32A JUMP JUMPDEST PUSH2 0x341 DUP2 DUP5 DUP5 PUSH2 0x305 JUMP JUMPDEST POP POP POP JUMP JUMPDEST JUMPDEST DUP2 DUP2 LT ISZERO PUSH2 0x364 JUMPI PUSH2 0x359 PUSH0 DUP3 PUSH2 0x32E JUMP JUMPDEST PUSH1 0x1 DUP2 ADD SWAP1 POP PUSH2 0x347 JUMP JUMPDEST POP POP JUMP JUMPDEST PUSH1 0x1F DUP3 GT ISZERO PUSH2 0x3A9 JUMPI PUSH2 0x37A DUP2 PUSH2 0x24B JUMP JUMPDEST PUSH2 0x383 DUP5 PUSH2 0x25D JUMP JUMPDEST DUP2 ADD PUSH1 0x20 DUP6 LT ISZERO PUSH2 0x392 JUMPI DUP2 SWAP1 POP JUMPDEST PUSH2 0x3A6 PUSH2 0x39E DUP6 PUSH2 0x25D JUMP JUMPDEST DUP4 ADD DUP3 PUSH2 0x346 JUMP JUMPDEST POP POP JUMPDEST POP POP POP JUMP JUMPDEST PUSH0 DUP3 DUP3 SHR SWAP1 POP SWAP3 SWAP2 POP POP JUMP JUMPDEST PUSH0 PUSH2 0x3C9 PUSH0 NOT DUP5 PUSH1 0x8 MUL PUSH2 0x3AE JUMP JUMPDEST NOT DUP1 DUP4 AND SWAP2 POP POP SWAP3 SWAP2 POP POP JUMP JUMPDEST PUSH0 PUSH2 0x3E1 DUP4 DUP4 PUSH2 0x3BA JUMP JUMPDEST SWAP2 POP DUP3 PUSH1 0x2 MUL DUP3 OR SWAP1 POP SWAP3 SWAP2 POP POP JUMP JUMPDEST PUSH2 0x3FA DUP3 PUSH2 0x1E4 JUMP JUMPDEST PUSH8 0xFFFFFFFFFFFFFFFF DUP2 GT ISZERO PUSH2 0x413 JUMPI PUSH2 0x412 PUSH2 0x79 JUMP JUMPDEST JUMPDEST PUSH2 0x41D DUP3 SLOAD PUSH2 0x21B JUMP JUMPDEST PUSH2 0x428 DUP3 DUP3 DUP6 PUSH2 0x368 JUMP JUMPDEST PUSH0 PUSH1 0x20 SWAP1 POP PUSH1 0x1F DUP4 GT PUSH1 0x1 DUP2 EQ PUSH2 0x459 JUMPI PUSH0 DUP5 ISZERO PUSH2 0x447 JUMPI DUP3 DUP8 ADD MLOAD SWAP1 POP JUMPDEST PUSH2 0x451 DUP6 DUP3 PUSH2 0x3D6 JUMP JUMPDEST DUP7 SSTORE POP PUSH2 0x4B8 JUMP JUMPDEST PUSH1 0x1F NOT DUP5 AND PUSH2 0x467 DUP7 PUSH2 0x24B JUMP JUMPDEST PUSH0 JUMPDEST DUP3 DUP2 LT ISZERO PUSH2 0x48E JUMPI DUP5 DUP10 ADD MLOAD DUP3 SSTORE PUSH1 0x1 DUP3 ADD SWAP2 POP PUSH1 0x20 DUP6 ADD SWAP5 POP PUSH1 0x20 DUP2 ADD SWAP1 POP PUSH2 0x469 JUMP JUMPDEST DUP7 DUP4 LT ISZERO PUSH2 0x4AB JUMPI DUP5 DUP10 ADD MLOAD PUSH2 0x4A7 PUSH1 0x1F DUP10 AND DUP3 PUSH2 0x3BA JUMP JUMPDEST DUP4 SSTORE POP JUMPDEST PUSH1 0x1 PUSH1 0x2 DUP9 MUL ADD DUP9 SSTORE POP POP POP JUMPDEST POP POP POP POP POP POP JUMP JUMPDEST PUSH1 0x80 MLOAD PUSH2 0x66E PUSH2 0x4D8 PUSH0 CODECOPY PUSH0 PUSH2 0x103 ADD MSTORE PUSH2 0x66E PUSH0 RETURN INVALID PUSH1 0x80 PUSH1 0x40 MSTORE CALLVALUE DUP1 ISZERO PUSH2 0xF JUMPI PUSH0 DUP1 REVERT JUMPDEST POP PUSH1 0x4 CALLDATASIZE LT PUSH2 0x4A JUMPI PUSH0 CALLDATALOAD PUSH1 0xE0 SHR DUP1 PUSH4 0x781F5C9 EQ PUSH2 0x4E JUMPI DUP1 PUSH4 0x1DCD69EC EQ PUSH2 0x6C JUMPI DUP1 PUSH4 0x266CF109 EQ PUSH2 0x8A JUMPI DUP1 PUSH4 0x3E0A0099 EQ PUSH2 0xA8 JUMPI JUMPDEST PUSH0 DUP1 REVERT JUMPDEST PUSH2 0x56 PUSH2 0xC4 JUMP JUMPDEST PUSH1 0x40 MLOAD PUSH2 0x63 SWAP2 SWAP1 PUSH2 0x235 JUMP JUMPDEST PUSH1 0x40 MLOAD DUP1 SWAP2 SUB SWAP1 RETURN JUMPDEST PUSH2 0x74 PUSH2 0x101 JUMP JUMPDEST PUSH1 0x40 MLOAD PUSH2 0x81 SWAP2 SWAP1 PUSH2 0x26D JUMP JUMPDEST PUSH1 0x40 MLOAD DUP1 SWAP2 SUB SWAP1 RETURN JUMPDEST PUSH2 0x92 PUSH2 0x125 JUMP JUMPDEST PUSH1 0x40 MLOAD PUSH2 0x9F SWAP2 SWAP1 PUSH2 0x235 JUMP JUMPDEST PUSH1 0x40 MLOAD DUP1 SWAP2 SUB SWAP1 RETURN JUMPDEST PUSH2 0xC2 PUSH1 0x4 DUP1 CALLDATASIZE SUB DUP2 ADD SWAP1 PUSH2 0xBD SWAP2 SWAP1 PUSH2 0x2EF JUMP JUMPDEST PUSH2 0x1B0 JUMP JUMPDEST STOP JUMPDEST PUSH1 0x60 PUSH1 0x40 MLOAD DUP1 PUSH1 0x40 ADD PUSH1 0x40 MSTORE DUP1 PUSH1 0x6 DUP2 MSTORE PUSH1 0x20 ADD PUSH32 0x737472696E670000000000000000000000000000000000000000000000000000 DUP2 MSTORE POP SWAP1 POP SWAP1 JUMP JUMPDEST PUSH32 0x0 DUP2 JUMP JUMPDEST PUSH0 DUP1 SLOAD PUSH2 0x131 SWAP1 PUSH2 0x367 JUMP JUMPDEST DUP1 PUSH1 0x1F ADD PUSH1 0x20 DUP1 SWAP2 DIV MUL PUSH1 0x20 ADD PUSH1 0x40 MLOAD SWAP1 DUP2 ADD PUSH1 0x40 MSTORE DUP1 SWAP3 SWAP2 SWAP1 DUP2 DUP2 MSTORE PUSH1 0x20 ADD DUP3 DUP1 SLOAD PUSH2 0x15D SWAP1 PUSH2 0x367 JUMP JUMPDEST DUP1 ISZERO PUSH2 0x1A8 JUMPI DUP1 PUSH1 0x1F LT PUSH2 0x17F JUMPI PUSH2 0x100 DUP1 DUP4 SLOAD DIV MUL DUP4 MSTORE SWAP2 PUSH1 0x20 ADD SWAP2 PUSH2 0x1A8 JUMP JUMPDEST DUP3 ADD SWAP2 SWAP1 PUSH0 MSTORE PUSH1 0x20 PUSH0 KECCAK256 SWAP1 JUMPDEST DUP2 SLOAD DUP2 MSTORE SWAP1 PUSH1 0x1 ADD SWAP1 PUSH1 0x20 ADD DUP1 DUP4 GT PUSH2 0x18B JUMPI DUP3 SWAP1 SUB PUSH1 0x1F AND DUP3 ADD SWAP2 JUMPDEST POP POP POP POP POP DUP2 JUMP JUMPDEST DUP2 DUP2 PUSH0 SWAP2 DUP3 PUSH2 0x1C0 SWAP3 SWAP2 SWAP1 PUSH2 0x56B JUMP JUMPDEST POP POP POP JUMP JUMPDEST PUSH0 DUP2 MLOAD SWAP1 POP SWAP2 SWAP1 POP JUMP JUMPDEST PUSH0 DUP3 DUP3 MSTORE PUSH1 0x20 DUP3 ADD SWAP1 POP SWAP3 SWAP2 POP POP JUMP JUMPDEST DUP3 DUP2 DUP4 MCOPY PUSH0 DUP4 DUP4 ADD MSTORE POP POP POP JUMP JUMPDEST PUSH0 PUSH1 0x1F NOT PUSH1 0x1F DUP4 ADD AND SWAP1 POP SWAP2 SWAP1 POP JUMP JUMPDEST PUSH0 PUSH2 0x207 DUP3 PUSH2 0x1C5 JUMP JUMPDEST PUSH2 0x211 DUP2 DUP6 PUSH2 0x1CF JUMP JUMPDEST SWAP4 POP PUSH2 0x221 DUP2 DUP6 PUSH1 0x20 DUP7 ADD PUSH2 0x1DF JUMP JUMPDEST PUSH2 0x22A DUP2 PUSH2 0x1ED JUMP JUMPDEST DUP5 ADD SWAP2 POP POP SWAP3 SWAP2 POP POP JUMP JUMPDEST PUSH0 PUSH1 0x20 DUP3 ADD SWAP1 POP DUP2 DUP2 SUB PUSH0 DUP4 ADD MSTORE PUSH2 0x24D DUP2 DUP5 PUSH2 0x1FD JUMP JUMPDEST SWAP1 POP SWAP3 SWAP2 POP POP JUMP JUMPDEST PUSH0 DUP2 SWAP1 POP SWAP2 SWAP1 POP JUMP JUMPDEST PUSH2 0x267 DUP2 PUSH2 0x255 JUMP JUMPDEST DUP3 MSTORE POP POP JUMP JUMPDEST PUSH0 PUSH1 0x20 DUP3 ADD SWAP1 POP PUSH2 0x280 PUSH0 DUP4 ADD DUP5 PUSH2 0x25E JUMP JUMPDEST SWAP3 SWAP2 POP POP JUMP JUMPDEST PUSH0 DUP1 REVERT JUMPDEST PUSH0 DUP1 REVERT JUMPDEST PUSH0 DUP1 REVERT JUMPDEST PUSH0 DUP1 REVERT JUMPDEST PUSH0 DUP1 REVERT JUMPDEST PUSH0 DUP1 DUP4 PUSH1 0x1F DUP5 ADD SLT PUSH2 0x2AF JUMPI PUSH2 0x2AE PUSH2 0x28E JUMP JUMPDEST JUMPDEST DUP3 CALLDATALOAD SWAP1 POP PUSH8 0xFFFFFFFFFFFFFFFF DUP2 GT ISZERO PUSH2 0x2CC JUMPI PUSH2 0x2CB PUSH2 0x292 JUMP JUMPDEST JUMPDEST PUSH1 0x20 DUP4 ADD SWAP2 POP DUP4 PUSH1 0x1 DUP3 MUL DUP4 ADD GT ISZERO PUSH2 0x2E8 JUMPI PUSH2 0x2E7 PUSH2 0x296 JUMP JUMPDEST JUMPDEST SWAP3 POP SWAP3 SWAP1 POP JUMP JUMPDEST PUSH0 DUP1 PUSH1 0x20 DUP4 DUP6 SUB SLT ISZERO PUSH2 0x305 JUMPI PUSH2 0x304 PUSH2 0x286 JUMP JUMPDEST JUMPDEST PUSH0 DUP4 ADD CALLDATALOAD PUSH8 0xFFFFFFFFFFFFFFFF DUP2 GT ISZERO PUSH2 0x322 JUMPI PUSH2 0x321 PUSH2 0x28A JUMP JUMPDEST JUMPDEST PUSH2 0x32E DUP6 DUP3 DUP7 ADD PUSH2 0x29A JUMP JUMPDEST SWAP3 POP SWAP3 POP POP SWAP3 POP SWAP3 SWAP1 POP JUMP JUMPDEST PUSH32 0x4E487B7100000000000000000000000000000000000000000000000000000000 PUSH0 MSTORE PUSH1 0x22 PUSH1 0x4 MSTORE PUSH1 0x24 PUSH0 REVERT JUMPDEST PUSH0 PUSH1 0x2 DUP3 DIV SWAP1 POP PUSH1 0x1 DUP3 AND DUP1 PUSH2 0x37E JUMPI PUSH1 0x7F DUP3 AND SWAP2 POP JUMPDEST PUSH1 0x20 DUP3 LT DUP2 SUB PUSH2 0x391 JUMPI PUSH2 0x390 PUSH2 0x33A JUMP JUMPDEST JUMPDEST POP SWAP2 SWAP1 POP JUMP JUMPDEST PUSH0 DUP3 SWAP1 POP SWAP3 SWAP2 POP POP JUMP JUMPDEST PUSH32 0x4E487B7100000000000000000000000000000000000000000000000000000000 PUSH0 MSTORE PUSH1 0x41 PUSH1 0x4 MSTORE PUSH1 0x24 PUSH0 REVERT JUMPDEST PUSH0 DUP2 SWAP1 POP DUP2 PUSH0 MSTORE PUSH1 0x20 PUSH0 KECCAK256 SWAP1 POP SWAP2 SWAP1 POP JUMP JUMPDEST PUSH0 PUSH1 0x20 PUSH1 0x1F DUP4 ADD DIV SWAP1 POP SWAP2 SWAP1 POP JUMP JUMPDEST PUSH0 DUP3 DUP3 SHL SWAP1 POP SWAP3 SWAP2 POP POP JUMP JUMPDEST PUSH0 PUSH1 0x8 DUP4 MUL PUSH2 0x42A PUSH32 0xFFFFFFFFFFFFFFFFFFFFFFFFFFFFFFFFFFFFFFFFFFFFFFFFFFFFFFFFFFFFFFFF DUP3 PUSH2 0x3EF JUMP JUMPDEST PUSH2 0x434 DUP7 DUP4 PUSH2 0x3EF JUMP JUMPDEST SWAP6 POP DUP1 NOT DUP5 AND SWAP4 POP DUP1 DUP7 AND DUP5 OR SWAP3 POP POP POP SWAP4 SWAP3 POP POP POP JUMP JUMPDEST PUSH0 DUP2 SWAP1 POP SWAP2 SWAP1 POP JUMP JUMPDEST PUSH0 PUSH2 0x46F PUSH2 0x46A PUSH2 0x465 DUP5 PUSH2 0x255 JUMP JUMPDEST PUSH2 0x44C JUMP JUMPDEST PUSH2 0x255 JUMP JUMPDEST SWAP1 POP SWAP2 SWAP1 POP JUMP JUMPDEST PUSH0 DUP2 SWAP1 POP SWAP2 SWAP1 POP JUMP JUMPDEST PUSH2 0x488 DUP4 PUSH2 0x455 JUMP JUMPDEST PUSH2 0x49C PUSH2 0x494 DUP3 PUSH2 0x476 JUMP JUMPDEST DUP5 DUP5 SLOAD PUSH2 0x3FB JUMP JUMPDEST DUP3 SSTORE POP POP POP POP JUMP JUMPDEST PUSH0 SWAP1 JUMP JUMPDEST PUSH2 0x4B0 PUSH2 0x4A4 JUMP JUMPDEST PUSH2 0x4BB DUP2 DUP5 DUP5 PUSH2 0x47F JUMP JUMPDEST POP POP POP JUMP JUMPDEST JUMPDEST DUP2 DUP2 LT ISZERO PUSH2 0x4DE JUMPI PUSH2 0x4D3 PUSH0 DUP3 PUSH2 0x4A8 JUMP JUMPDEST PUSH1 0x1 DUP2 ADD SWAP1 POP PUSH2 0x4C1 JUMP JUMPDEST POP POP JUMP JUMPDEST PUSH1 0x1F DUP3 GT ISZERO PUSH2 0x523 JUMPI PUSH2 0x4F4 DUP2 PUSH2 0x3CE JUMP JUMPDEST PUSH2 0x4FD DUP5 PUSH2 0x3E0 JUMP JUMPDEST DUP2 ADD PUSH1 0x20 DUP6 LT ISZERO PUSH2 0x50C JUMPI DUP2 SWAP1 POP JUMPDEST PUSH2 0x520 PUSH2 0x518 DUP6 PUSH2 0x3E0 JUMP JUMPDEST DUP4 ADD DUP3 PUSH2 0x4C0 JUMP JUMPDEST POP POP JUMPDEST POP POP POP JUMP JUMPDEST PUSH0 DUP3 DUP3 SHR SWAP1 POP SWAP3 SWAP2 POP POP JUMP JUMPDEST PUSH0 PUSH2 0x543 PUSH0 NOT DUP5 PUSH1 0x8 MUL PUSH2 0x528 JUMP JUMPDEST NOT DUP1 DUP4 AND SWAP2 POP POP SWAP3 SWAP2 POP POP JUMP JUMPDEST PUSH0 PUSH2 0x55B DUP4 DUP4 PUSH2 0x534 JUMP JUMPDEST SWAP2 POP DUP3 PUSH1 0x2 MUL DUP3 OR SWAP1 POP SWAP3 SWAP2 POP POP JUMP JUMPDEST PUSH2 0x575 DUP4 DUP4 PUSH2 0x397 JUMP JUMPDEST PUSH8 0xFFFFFFFFFFFFFFFF DUP2 GT ISZERO PUSH2 0x58E JUMPI PUSH2 0x58D PUSH2 0x3A1 JUMP JUMPDEST JUMPDEST PUSH2 0x598 DUP3 SLOAD PUSH2 0x367 JUMP JUMPDEST PUSH2 0x5A3 DUP3 DUP3 DUP6 PUSH2 0x4E2 JUMP JUMPDEST PUSH0 PUSH1 0x1F DUP4 GT PUSH1 0x1 DUP2 EQ PUSH2 0x5D0 JUMPI PUSH0 DUP5 ISZERO PUSH2 0x5BE JUMPI DUP3 DUP8 ADD CALLDATALOAD SWAP1 POP JUMPDEST PUSH2 0x5C8 DUP6 DUP3 PUSH2 0x550 JUMP JUMPDEST DUP7 SSTORE POP PUSH2 0x62F JUMP JUMPDEST PUSH1 0x1F NOT DUP5 AND PUSH2 0x5DE DUP7 PUSH2 0x3CE JUMP JUMPDEST PUSH0 JUMPDEST DUP3 DUP2 LT ISZERO PUSH2 0x605 JUMPI DUP5 DUP10 ADD CALLDATALOAD DUP3 SSTORE PUSH1 0x1 DUP3 ADD SWAP2 POP PUSH1 0x20 DUP6 ADD SWAP5 POP PUSH1 0x20 DUP2 ADD SWAP1 POP PUSH2 0x5E0 JUMP JUMPDEST DUP7 DUP4 LT ISZERO PUSH2 0x622 JUMPI DUP5 DUP10 ADD CALLDATALOAD PUSH2 0x61E PUSH1 0x1F DUP10 AND DUP3 PUSH2 0x534 JUMP JUMPDEST DUP4 SSTORE POP JUMPDEST PUSH1 0x1 PUSH1 0x2 DUP9 MUL ADD DUP9 SSTORE POP POP POP JUMPDEST POP POP POP POP POP POP POP JUMP INVALID LOG2 PUSH5 0x6970667358 0x22 SLT KECCAK256 0xE3 0xAE 0xD7 0xAD PUSH20 0xFB0DD4961C89FE646B0AB03176C8407F8C7AED9B ISZERO RETURNDATASIZE 0xF7 DUP2 STATICCALL 0xEE EXTCODECOPY PUSH5 0x736F6C6343 STOP ADDMOD BYTE STOP CALLER LOG2 PUSH5 0x6970667358 0x22 SLT KECCAK256 0xC8 0xAF 0xC1 0xF8 XOR 0xD9 PUSH27 0xB613C1E273AA9BA5E2B1300B08F6303BCEC69E0B036A3100346473 PUSH16 0x6C634300081A00330000000000000000 "
				},
				"gasEstimates": {
					"creation": {
						"codeDepositCost": "1033000",
						"executionCost": "1072",
						"totalCost": "1034072"
					},
					"external": {
						"addRecord(address)": "infinite",
						"addRecord(string)": "infinite",
						"records(uint256)": "4849"
					}
				},
				"methodIdentifiers": {
					"addRecord(address)": "99b53463",
					"addRecord(string)": "d81aa8c4",
					"records(uint256)": "34461067"
				}
			},
			"storageLayout": {
				"storage": [
					{
						"astId": 3,
						"contract": "Example_Factory/Factory1.sol:RecordFactory",
						"label": "owner",
						"offset": 0,
						"slot": "0",
						"type": "t_address"
					},
					{
						"astId": 6,
						"contract": "Example_Factory/Factory1.sol:RecordFactory",
						"label": "records",
						"offset": 0,
						"slot": "1",
						"type": "t_array(t_bytes32)dyn_storage"
					}
				],
				"types": {
					"t_address": {
						"encoding": "inplace",
						"label": "address",
						"numberOfBytes": "20"
					},
					"t_array(t_bytes32)dyn_storage": {
						"base": "t_bytes32",
						"encoding": "dynamic_array",
						"label": "bytes32[]",
						"numberOfBytes": "32"
					},
					"t_bytes32": {
						"encoding": "inplace",
						"label": "bytes32",
						"numberOfBytes": "32"
					}
				}
			},
			"userdoc": {
				"kind": "user",
				"methods": {},
				"version": 1
			}
		}
	}
}