{
	"data": {
		"bytecode": {
			"linkReferences": {},
			"object": "608060405234801561000f575f80fd5b50604051610d18380380610d188339818101604052810190610031919061019a565b425f81905550806001908161004691906103ee565b50506104bd565b5f604051905090565b5f80fd5b5f80fd5b5f80fd5b5f80fd5b5f601f19601f8301169050919050565b7f4e487b71000000000000000000000000000000000000000000000000000000005f52604160045260245ffd5b6100ac82610066565b810181811067ffffffffffffffff821117156100cb576100ca610076565b5b80604052505050565b5f6100dd61004d565b90506100e982826100a3565b919050565b5f67ffffffffffffffff82111561010857610107610076565b5b61011182610066565b9050602081019050919050565b8281835e5f83830152505050565b5f61013e610139846100ee565b6100d4565b90508281526020810184848401111561015a57610159610062565b5b61016584828561011e565b509392505050565b5f82601f8301126101815761018061005e565b5b815161019184826020860161012c565b91505092915050565b5f602082840312156101af576101ae610056565b5b5f82015167ffffffffffffffff8111156101cc576101cb61005a565b5b6101d88482850161016d565b91505092915050565b5f81519050919050565b7f4e487b71000000000000000000000000000000000000000000000000000000005f52602260045260245ffd5b5f600282049050600182168061022f57607f821691505b602082108103610242576102416101eb565b5b50919050565b5f819050815f5260205f209050919050565b5f6020601f8301049050919050565b5f82821b905092915050565b5f600883026102a47fffffffffffffffffffffffffffffffffffffffffffffffffffffffffffffffff82610269565b6102ae8683610269565b95508019841693508086168417925050509392505050565b5f819050919050565b5f819050919050565b5f6102f26102ed6102e8846102c6565b6102cf565b6102c6565b9050919050565b5f819050919050565b61030b836102d8565b61031f610317826102f9565b848454610275565b825550505050565b5f90565b610333610327565b61033e818484610302565b505050565b5b81811015610361576103565f8261032b565b600181019050610344565b5050565b601f8211156103a65761037781610248565b6103808461025a565b8101602085101561038f578190505b6103a361039b8561025a565b830182610343565b50505b505050565b5f82821c905092915050565b5f6103c65f19846008026103ab565b1980831691505092915050565b5f6103de83836103b7565b9150826002028217905092915050565b6103f7826101e1565b67ffffffffffffffff8111156104105761040f610076565b5b61041a8254610218565b610425828285610365565b5f60209050601f831160018114610456575f8415610444578287015190505b61044e85826103d3565b8655506104b5565b601f19841661046486610248565b5f5b8281101561048b57848901518255600182019150602085019450602081019050610466565b868310156104a857848901516104a4601f8916826103b7565b8355505b6001600288020188555050505b505050505050565b61084e806104ca5f395ff3fe608060405234801561000f575f80fd5b5060043610610060575f3560e01c80630781f5c91461006457806313af4035146100825780631dcd69ec1461009e5780638da5cb5b146100bc578063c2fb26a6146100da578063e5eab096146100f8575b5f80fd5b61006c610114565b60405161007991906102cd565b60405180910390f35b61009c60048036038101906100979190610358565b610151565b005b6100a6610194565b6040516100b3919061039b565b60405180910390f35b6100c4610199565b6040516100d191906103c3565b60405180910390f35b6100e26101be565b6040516100ef91906102cd565b60405180910390f35b610112600480360381019061010d9190610508565b61024a565b005b60606040518060400160405280600381526020017f656e730000000000000000000000000000000000000000000000000000000000815250905090565b8060025f6101000a81548173ffffffffffffffffffffffffffffffffffffffff021916908373ffffffffffffffffffffffffffffffffffffffff16021790555050565b5f5481565b60025f9054906101000a900473ffffffffffffffffffffffffffffffffffffffff1681565b600180546101cb9061057c565b80601f01602080910402602001604051908101604052809291908181526020018280546101f79061057c565b80156102425780601f1061021957610100808354040283529160200191610242565b820191905f5260205f20905b81548152906001019060200180831161022557829003601f168201915b505050505081565b80600190816102599190610749565b5050565b5f81519050919050565b5f82825260208201905092915050565b8281835e5f83830152505050565b5f601f19601f8301169050919050565b5f61029f8261025d565b6102a98185610267565b93506102b9818560208601610277565b6102c281610285565b840191505092915050565b5f6020820190508181035f8301526102e58184610295565b905092915050565b5f604051905090565b5f80fd5b5f80fd5b5f73ffffffffffffffffffffffffffffffffffffffff82169050919050565b5f610327826102fe565b9050919050565b6103378161031d565b8114610341575f80fd5b50565b5f813590506103528161032e565b92915050565b5f6020828403121561036d5761036c6102f6565b5b5f61037a84828501610344565b91505092915050565b5f819050919050565b61039581610383565b82525050565b5f6020820190506103ae5f83018461038c565b92915050565b6103bd8161031d565b82525050565b5f6020820190506103d65f8301846103b4565b92915050565b5f80fd5b5f80fd5b7f4e487b71000000000000000000000000000000000000000000000000000000005f52604160045260245ffd5b61041a82610285565b810181811067ffffffffffffffff82111715610439576104386103e4565b5b80604052505050565b5f61044b6102ed565b90506104578282610411565b919050565b5f67ffffffffffffffff821115610476576104756103e4565b5b61047f82610285565b9050602081019050919050565b828183375f83830152505050565b5f6104ac6104a78461045c565b610442565b9050828152602081018484840111156104c8576104c76103e0565b5b6104d384828561048c565b509392505050565b5f82601f8301126104ef576104ee6103dc565b5b81356104ff84826020860161049a565b91505092915050565b5f6020828403121561051d5761051c6102f6565b5b5f82013567ffffffffffffffff81111561053a576105396102fa565b5b610546848285016104db565b91505092915050565b7f4e487b71000000000000000000000000000000000000000000000000000000005f52602260045260245ffd5b5f600282049050600182168061059357607f821691505b6020821081036105a6576105a561054f565b5b50919050565b5f819050815f5260205f209050919050565b5f6020601f8301049050919050565b5f82821b905092915050565b5f600883026106087fffffffffffffffffffffffffffffffffffffffffffffffffffffffffffffffff826105cd565b61061286836105cd565b95508019841693508086168417925050509392505050565b5f819050919050565b5f61064d61064861064384610383565b61062a565b610383565b9050919050565b5f819050919050565b61066683610633565b61067a61067282610654565b8484546105d9565b825550505050565b5f90565b61068e610682565b61069981848461065d565b505050565b5b818110156106bc576106b15f82610686565b60018101905061069f565b5050565b601f821115610701576106d2816105ac565b6106db846105be565b810160208510156106ea578190505b6106fe6106f6856105be565b83018261069e565b50505b505050565b5f82821c905092915050565b5f6107215f1984600802610706565b1980831691505092915050565b5f6107398383610712565b9150826002028217905092915050565b6107528261025d565b67ffffffffffffffff81111561076b5761076a6103e4565b5b610775825461057c565b6107808282856106c0565b5f60209050601f8311600181146107b1575f841561079f578287015190505b6107a9858261072e565b865550610810565b601f1984166107bf866105ac565b5f5b828110156107e6578489015182556001820191506020850194506020810190506107c1565b8683101561080357848901516107ff601f891682610712565b8355505b6001600288020188555050505b50505050505056fea26469706673582212206fa8bc52e242bc6d31375e3ea3028140888c0848a8487f33c03a98ef43d8d94b64736f6c634300081a0033",
			"opcodes": "PUSH1 0x80 PUSH1 0x40 MSTORE CALLVALUE DUP1 ISZERO PUSH2 0xF JUMPI PUSH0 DUP1 REVERT JUMPDEST POP PUSH1 0x40 MLOAD PUSH2 0xD18 CODESIZE SUB DUP1 PUSH2 0xD18 DUP4 CODECOPY DUP2 DUP2 ADD PUSH1 0x40 MSTORE DUP2 ADD SWAP1 PUSH2 0x31 SWAP2 SWAP1 PUSH2 0x19A JUMP JUMPDEST TIMESTAMP PUSH0 DUP2 SWAP1 SSTORE POP DUP1 PUSH1 0x1 SWAP1 DUP2 PUSH2 0x46 SWAP2 SWAP1 PUSH2 0x3EE JUMP JUMPDEST POP POP PUSH2 0x4BD JUMP JUMPDEST PUSH0 PUSH1 0x40 MLOAD SWAP1 POP SWAP1 JUMP JUMPDEST PUSH0 DUP1 REVERT JUMPDEST PUSH0 DUP1 REVERT JUMPDEST PUSH0 DUP1 REVERT JUMPDEST PUSH0 DUP1 REVERT JUMPDEST PUSH0 PUSH1 0x1F NOT PUSH1 0x1F DUP4 ADD AND SWAP1 POP SWAP2 SWAP1 POP JUMP JUMPDEST PUSH32 0x4E487B7100000000000000000000000000000000000000000000000000000000 PUSH0 MSTORE PUSH1 0x41 PUSH1 0x4 MSTORE PUSH1 0x24 PUSH0 REVERT JUMPDEST PUSH2 0xAC DUP3 PUSH2 0x66 JUMP JUMPDEST DUP2 ADD DUP2 DUP2 LT PUSH8 0xFFFFFFFFFFFFFFFF DUP3 GT OR ISZERO PUSH2 0xCB JUMPI PUSH2 0xCA PUSH2 0x76 JUMP JUMPDEST JUMPDEST DUP1 PUSH1 0x40 MSTORE POP POP POP JUMP JUMPDEST PUSH0 PUSH2 0xDD PUSH2 0x4D JUMP JUMPDEST SWAP1 POP PUSH2 0xE9 DUP3 DUP3 PUSH2 0xA3 JUMP JUMPDEST SWAP2 SWAP1 POP JUMP JUMPDEST PUSH0 PUSH8 0xFFFFFFFFFFFFFFFF DUP3 GT ISZERO PUSH2 0x108 JUMPI PUSH2 0x107 PUSH2 0x76 JUMP JUMPDEST JUMPDEST PUSH2 0x111 DUP3 PUSH2 0x66 JUMP JUMPDEST SWAP1 POP PUSH1 0x20 DUP2 ADD SWAP1 POP SWAP2 SWAP1 POP JUMP JUMPDEST DUP3 DUP2 DUP4 MCOPY PUSH0 DUP4 DUP4 ADD MSTORE POP POP POP JUMP JUMPDEST PUSH0 PUSH2 0x13E PUSH2 0x139 DUP5 PUSH2 0xEE JUMP JUMPDEST PUSH2 0xD4 JUMP JUMPDEST SWAP1 POP DUP3 DUP2 MSTORE PUSH1 0x20 DUP2 ADD DUP5 DUP5 DUP5 ADD GT ISZERO PUSH2 0x15A JUMPI PUSH2 0x159 PUSH2 0x62 JUMP JUMPDEST JUMPDEST PUSH2 0x165 DUP5 DUP3 DUP6 PUSH2 0x11E JUMP JUMPDEST POP SWAP4 SWAP3 POP POP POP JUMP JUMPDEST PUSH0 DUP3 PUSH1 0x1F DUP4 ADD SLT PUSH2 0x181 JUMPI PUSH2 0x180 PUSH2 0x5E JUMP JUMPDEST JUMPDEST DUP2 MLOAD PUSH2 0x191 DUP5 DUP3 PUSH1 0x20 DUP7 ADD PUSH2 0x12C JUMP JUMPDEST SWAP2 POP POP SWAP3 SWAP2 POP POP JUMP JUMPDEST PUSH0 PUSH1 0x20 DUP3 DUP5 SUB SLT ISZERO PUSH2 0x1AF JUMPI PUSH2 0x1AE PUSH2 0x56 JUMP JUMPDEST JUMPDEST PUSH0 DUP3 ADD MLOAD PUSH8 0xFFFFFFFFFFFFFFFF DUP2 GT ISZERO PUSH2 0x1CC JUMPI PUSH2 0x1CB PUSH2 0x5A JUMP JUMPDEST JUMPDEST PUSH2 0x1D8 DUP5 DUP3 DUP6 ADD PUSH2 0x16D JUMP JUMPDEST SWAP2 POP POP SWAP3 SWAP2 POP POP JUMP JUMPDEST PUSH0 DUP2 MLOAD SWAP1 POP SWAP2 SWAP1 POP JUMP JUMPDEST PUSH32 0x4E487B7100000000000000000000000000000000000000000000000000000000 PUSH0 MSTORE PUSH1 0x22 PUSH1 0x4 MSTORE PUSH1 0x24 PUSH0 REVERT JUMPDEST PUSH0 PUSH1 0x2 DUP3 DIV SWAP1 POP PUSH1 0x1 DUP3 AND DUP1 PUSH2 0x22F JUMPI PUSH1 0x7F DUP3 AND SWAP2 POP JUMPDEST PUSH1 0x20 DUP3 LT DUP2 SUB PUSH2 0x242 JUMPI PUSH2 0x241 PUSH2 0x1EB JUMP JUMPDEST JUMPDEST POP SWAP2 SWAP1 POP JUMP JUMPDEST PUSH0 DUP2 SWAP1 POP DUP2 PUSH0 MSTORE PUSH1 0x20 PUSH0 KECCAK256 SWAP1 POP SWAP2 SWAP1 POP JUMP JUMPDEST PUSH0 PUSH1 0x20 PUSH1 0x1F DUP4 ADD DIV SWAP1 POP SWAP2 SWAP1 POP JUMP JUMPDEST PUSH0 DUP3 DUP3 SHL SWAP1 POP SWAP3 SWAP2 POP POP JUMP JUMPDEST PUSH0 PUSH1 0x8 DUP4 MUL PUSH2 0x2A4 PUSH32 0xFFFFFFFFFFFFFFFFFFFFFFFFFFFFFFFFFFFFFFFFFFFFFFFFFFFFFFFFFFFFFFFF DUP3 PUSH2 0x269 JUMP JUMPDEST PUSH2 0x2AE DUP7 DUP4 PUSH2 0x269 JUMP JUMPDEST SWAP6 POP DUP1 NOT DUP5 AND SWAP4 POP DUP1 DUP7 AND DUP5 OR SWAP3 POP POP POP SWAP4 SWAP3 POP POP POP JUMP JUMPDEST PUSH0 DUP2 SWAP1 POP SWAP2 SWAP1 POP JUMP JUMPDEST PUSH0 DUP2 SWAP1 POP SWAP2 SWAP1 POP JUMP JUMPDEST PUSH0 PUSH2 0x2F2 PUSH2 0x2ED PUSH2 0x2E8 DUP5 PUSH2 0x2C6 JUMP JUMPDEST PUSH2 0x2CF JUMP JUMPDEST PUSH2 0x2C6 JUMP JUMPDEST SWAP1 POP SWAP2 SWAP1 POP JUMP JUMPDEST PUSH0 DUP2 SWAP1 POP SWAP2 SWAP1 POP JUMP JUMPDEST PUSH2 0x30B DUP4 PUSH2 0x2D8 JUMP JUMPDEST PUSH2 0x31F PUSH2 0x317 DUP3 PUSH2 0x2F9 JUMP JUMPDEST DUP5 DUP5 SLOAD PUSH2 0x275 JUMP JUMPDEST DUP3 SSTORE POP POP POP POP JUMP JUMPDEST PUSH0 SWAP1 JUMP JUMPDEST PUSH2 0x333 PUSH2 0x327 JUMP JUMPDEST PUSH2 0x33E DUP2 DUP5 DUP5 PUSH2 0x302 JUMP JUMPDEST POP POP POP JUMP JUMPDEST JUMPDEST DUP2 DUP2 LT ISZERO PUSH2 0x361 JUMPI PUSH2 0x356 PUSH0 DUP3 PUSH2 0x32B JUMP JUMPDEST PUSH1 0x1 DUP2 ADD SWAP1 POP PUSH2 0x344 JUMP JUMPDEST POP POP JUMP JUMPDEST PUSH1 0x1F DUP3 GT ISZERO PUSH2 0x3A6 JUMPI PUSH2 0x377 DUP2 PUSH2 0x248 JUMP JUMPDEST PUSH2 0x380 DUP5 PUSH2 0x25A JUMP JUMPDEST DUP2 ADD PUSH1 0x20 DUP6 LT ISZERO PUSH2 0x38F JUMPI DUP2 SWAP1 POP JUMPDEST PUSH2 0x3A3 PUSH2 0x39B DUP6 PUSH2 0x25A JUMP JUMPDEST DUP4 ADD DUP3 PUSH2 0x343 JUMP JUMPDEST POP POP JUMPDEST POP POP POP JUMP JUMPDEST PUSH0 DUP3 DUP3 SHR SWAP1 POP SWAP3 SWAP2 POP POP JUMP JUMPDEST PUSH0 PUSH2 0x3C6 PUSH0 NOT DUP5 PUSH1 0x8 MUL PUSH2 0x3AB JUMP JUMPDEST NOT DUP1 DUP4 AND SWAP2 POP POP SWAP3 SWAP2 POP POP JUMP JUMPDEST PUSH0 PUSH2 0x3DE DUP4 DUP4 PUSH2 0x3B7 JUMP JUMPDEST SWAP2 POP DUP3 PUSH1 0x2 MUL DUP3 OR SWAP1 POP SWAP3 SWAP2 POP POP JUMP JUMPDEST PUSH2 0x3F7 DUP3 PUSH2 0x1E1 JUMP JUMPDEST PUSH8 0xFFFFFFFFFFFFFFFF DUP2 GT ISZERO PUSH2 0x410 JUMPI PUSH2 0x40F PUSH2 0x76 JUMP JUMPDEST JUMPDEST PUSH2 0x41A DUP3 SLOAD PUSH2 0x218 JUMP JUMPDEST PUSH2 0x425 DUP3 DUP3 DUP6 PUSH2 0x365 JUMP JUMPDEST PUSH0 PUSH1 0x20 SWAP1 POP PUSH1 0x1F DUP4 GT PUSH1 0x1 DUP2 EQ PUSH2 0x456 JUMPI PUSH0 DUP5 ISZERO PUSH2 0x444 JUMPI DUP3 DUP8 ADD MLOAD SWAP1 POP JUMPDEST PUSH2 0x44E DUP6 DUP3 PUSH2 0x3D3 JUMP JUMPDEST DUP7 SSTORE POP PUSH2 0x4B5 JUMP JUMPDEST PUSH1 0x1F NOT DUP5 AND PUSH2 0x464 DUP7 PUSH2 0x248 JUMP JUMPDEST PUSH0 JUMPDEST DUP3 DUP2 LT ISZERO PUSH2 0x48B JUMPI DUP5 DUP10 ADD MLOAD DUP3 SSTORE PUSH1 0x1 DUP3 ADD SWAP2 POP PUSH1 0x20 DUP6 ADD SWAP5 POP PUSH1 0x20 DUP2 ADD SWAP1 POP PUSH2 0x466 JUMP JUMPDEST DUP7 DUP4 LT ISZERO PUSH2 0x4A8 JUMPI DUP5 DUP10 ADD MLOAD PUSH2 0x4A4 PUSH1 0x1F DUP10 AND DUP3 PUSH2 0x3B7 JUMP JUMPDEST DUP4 SSTORE POP JUMPDEST PUSH1 0x1 PUSH1 0x2 DUP9 MUL ADD DUP9 SSTORE POP POP POP JUMPDEST POP POP POP POP POP POP JUMP JUMPDEST PUSH2 0x84E DUP1 PUSH2 0x4CA PUSH0 CODECOPY PUSH0 RETURN INVALID PUSH1 0x80 PUSH1 0x40 MSTORE CALLVALUE DUP1 ISZERO PUSH2 0xF JUMPI PUSH0 DUP1 REVERT JUMPDEST POP PUSH1 0x4 CALLDATASIZE LT PUSH2 0x60 JUMPI PUSH0 CALLDATALOAD PUSH1 0xE0 SHR DUP1 PUSH4 0x781F5C9 EQ PUSH2 0x64 JUMPI DUP1 PUSH4 0x13AF4035 EQ PUSH2 0x82 JUMPI DUP1 PUSH4 0x1DCD69EC EQ PUSH2 0x9E JUMPI DUP1 PUSH4 0x8DA5CB5B EQ PUSH2 0xBC JUMPI DUP1 PUSH4 0xC2FB26A6 EQ PUSH2 0xDA JUMPI DUP1 PUSH4 0xE5EAB096 EQ PUSH2 0xF8 JUMPI JUMPDEST PUSH0 DUP1 REVERT JUMPDEST PUSH2 0x6C PUSH2 0x114 JUMP JUMPDEST PUSH1 0x40 MLOAD PUSH2 0x79 SWAP2 SWAP1 PUSH2 0x2CD JUMP JUMPDEST PUSH1 0x40 MLOAD DUP1 SWAP2 SUB SWAP1 RETURN JUMPDEST PUSH2 0x9C PUSH1 0x4 DUP1 CALLDATASIZE SUB DUP2 ADD SWAP1 PUSH2 0x97 SWAP2 SWAP1 PUSH2 0x358 JUMP JUMPDEST PUSH2 0x151 JUMP JUMPDEST STOP JUMPDEST PUSH2 0xA6 PUSH2 0x194 JUMP JUMPDEST PUSH1 0x40 MLOAD PUSH2 0xB3 SWAP2 SWAP1 PUSH2 0x39B JUMP JUMPDEST PUSH1 0x40 MLOAD DUP1 SWAP2 SUB SWAP1 RETURN JUMPDEST PUSH2 0xC4 PUSH2 0x199 JUMP JUMPDEST PUSH1 0x40 MLOAD PUSH2 0xD1 SWAP2 SWAP1 PUSH2 0x3C3 JUMP JUMPDEST PUSH1 0x40 MLOAD DUP1 SWAP2 SUB SWAP1 RETURN JUMPDEST PUSH2 0xE2 PUSH2 0x1BE JUMP JUMPDEST PUSH1 0x40 MLOAD PUSH2 0xEF SWAP2 SWAP1 PUSH2 0x2CD JUMP JUMPDEST PUSH1 0x40 MLOAD DUP1 SWAP2 SUB SWAP1 RETURN JUMPDEST PUSH2 0x112 PUSH1 0x4 DUP1 CALLDATASIZE SUB DUP2 ADD SWAP1 PUSH2 0x10D SWAP2 SWAP1 PUSH2 0x508 JUMP JUMPDEST PUSH2 0x24A JUMP JUMPDEST STOP JUMPDEST PUSH1 0x60 PUSH1 0x40 MLOAD DUP1 PUSH1 0x40 ADD PUSH1 0x40 MSTORE DUP1 PUSH1 0x3 DUP2 MSTORE PUSH1 0x20 ADD PUSH32 0x656E730000000000000000000000000000000000000000000000000000000000 DUP2 MSTORE POP SWAP1 POP SWAP1 JUMP JUMPDEST DUP1 PUSH1 0x2 PUSH0 PUSH2 0x100 EXP DUP2 SLOAD DUP2 PUSH20 0xFFFFFFFFFFFFFFFFFFFFFFFFFFFFFFFFFFFFFFFF MUL NOT AND SWAP1 DUP4 PUSH20 0xFFFFFFFFFFFFFFFFFFFFFFFFFFFFFFFFFFFFFFFF AND MUL OR SWAP1 SSTORE POP POP JUMP JUMPDEST PUSH0 SLOAD DUP2 JUMP JUMPDEST PUSH1 0x2 PUSH0 SWAP1 SLOAD SWAP1 PUSH2 0x100 EXP SWAP1 DIV PUSH20 0xFFFFFFFFFFFFFFFFFFFFFFFFFFFFFFFFFFFFFFFF AND DUP2 JUMP JUMPDEST PUSH1 0x1 DUP1 SLOAD PUSH2 0x1CB SWAP1 PUSH2 0x57C JUMP JUMPDEST DUP1 PUSH1 0x1F ADD PUSH1 0x20 DUP1 SWAP2 DIV MUL PUSH1 0x20 ADD PUSH1 0x40 MLOAD SWAP1 DUP2 ADD PUSH1 0x40 MSTORE DUP1 SWAP3 SWAP2 SWAP1 DUP2 DUP2 MSTORE PUSH1 0x20 ADD DUP3 DUP1 SLOAD PUSH2 0x1F7 SWAP1 PUSH2 0x57C JUMP JUMPDEST DUP1 ISZERO PUSH2 0x242 JUMPI DUP1 PUSH1 0x1F LT PUSH2 0x219 JUMPI PUSH2 0x100 DUP1 DUP4 SLOAD DIV MUL DUP4 MSTORE SWAP2 PUSH1 0x20 ADD SWAP2 PUSH2 0x242 JUMP JUMPDEST DUP3 ADD SWAP2 SWAP1 PUSH0 MSTORE PUSH1 0x20 PUSH0 KECCAK256 SWAP1 JUMPDEST DUP2 SLOAD DUP2 MSTORE SWAP1 PUSH1 0x1 ADD SWAP1 PUSH1 0x20 ADD DUP1 DUP4 GT PUSH2 0x225 JUMPI DUP3 SWAP1 SUB PUSH1 0x1F AND DUP3 ADD SWAP2 JUMPDEST POP POP POP POP POP DUP2 JUMP JUMPDEST DUP1 PUSH1 0x1 SWAP1 DUP2 PUSH2 0x259 SWAP2 SWAP1 PUSH2 0x749 JUMP JUMPDEST POP POP JUMP JUMPDEST PUSH0 DUP2 MLOAD SWAP1 POP SWAP2 SWAP1 POP JUMP JUMPDEST PUSH0 DUP3 DUP3 MSTORE PUSH1 0x20 DUP3 ADD SWAP1 POP SWAP3 SWAP2 POP POP JUMP JUMPDEST DUP3 DUP2 DUP4 MCOPY PUSH0 DUP4 DUP4 ADD MSTORE POP POP POP JUMP JUMPDEST PUSH0 PUSH1 0x1F NOT PUSH1 0x1F DUP4 ADD AND SWAP1 POP SWAP2 SWAP1 POP JUMP JUMPDEST PUSH0 PUSH2 0x29F DUP3 PUSH2 0x25D JUMP JUMPDEST PUSH2 0x2A9 DUP2 DUP6 PUSH2 0x267 JUMP JUMPDEST SWAP4 POP PUSH2 0x2B9 DUP2 DUP6 PUSH1 0x20 DUP7 ADD PUSH2 0x277 JUMP JUMPDEST PUSH2 0x2C2 DUP2 PUSH2 0x285 JUMP JUMPDEST DUP5 ADD SWAP2 POP POP SWAP3 SWAP2 POP POP JUMP JUMPDEST PUSH0 PUSH1 0x20 DUP3 ADD SWAP1 POP DUP2 DUP2 SUB PUSH0 DUP4 ADD MSTORE PUSH2 0x2E5 DUP2 DUP5 PUSH2 0x295 JUMP JUMPDEST SWAP1 POP SWAP3 SWAP2 POP POP JUMP JUMPDEST PUSH0 PUSH1 0x40 MLOAD SWAP1 POP SWAP1 JUMP JUMPDEST PUSH0 DUP1 REVERT JUMPDEST PUSH0 DUP1 REVERT JUMPDEST PUSH0 PUSH20 0xFFFFFFFFFFFFFFFFFFFFFFFFFFFFFFFFFFFFFFFF DUP3 AND SWAP1 POP SWAP2 SWAP1 POP JUMP JUMPDEST PUSH0 PUSH2 0x327 DUP3 PUSH2 0x2FE JUMP JUMPDEST SWAP1 POP SWAP2 SWAP1 POP JUMP JUMPDEST PUSH2 0x337 DUP2 PUSH2 0x31D JUMP JUMPDEST DUP2 EQ PUSH2 0x341 JUMPI PUSH0 DUP1 REVERT JUMPDEST POP JUMP JUMPDEST PUSH0 DUP2 CALLDATALOAD SWAP1 POP PUSH2 0x352 DUP2 PUSH2 0x32E JUMP JUMPDEST SWAP3 SWAP2 POP POP JUMP JUMPDEST PUSH0 PUSH1 0x20 DUP3 DUP5 SUB SLT ISZERO PUSH2 0x36D JUMPI PUSH2 0x36C PUSH2 0x2F6 JUMP JUMPDEST JUMPDEST PUSH0 PUSH2 0x37A DUP5 DUP3 DUP6 ADD PUSH2 0x344 JUMP JUMPDEST SWAP2 POP POP SWAP3 SWAP2 POP POP JUMP JUMPDEST PUSH0 DUP2 SWAP1 POP SWAP2 SWAP1 POP JUMP JUMPDEST PUSH2 0x395 DUP2 PUSH2 0x383 JUMP JUMPDEST DUP3 MSTORE POP POP JUMP JUMPDEST PUSH0 PUSH1 0x20 DUP3 ADD SWAP1 POP PUSH2 0x3AE PUSH0 DUP4 ADD DUP5 PUSH2 0x38C JUMP JUMPDEST SWAP3 SWAP2 POP POP JUMP JUMPDEST PUSH2 0x3BD DUP2 PUSH2 0x31D JUMP JUMPDEST DUP3 MSTORE POP POP JUMP JUMPDEST PUSH0 PUSH1 0x20 DUP3 ADD SWAP1 POP PUSH2 0x3D6 PUSH0 DUP4 ADD DUP5 PUSH2 0x3B4 JUMP JUMPDEST SWAP3 SWAP2 POP POP JUMP JUMPDEST PUSH0 DUP1 REVERT JUMPDEST PUSH0 DUP1 REVERT JUMPDEST PUSH32 0x4E487B7100000000000000000000000000000000000000000000000000000000 PUSH0 MSTORE PUSH1 0x41 PUSH1 0x4 MSTORE PUSH1 0x24 PUSH0 REVERT JUMPDEST PUSH2 0x41A DUP3 PUSH2 0x285 JUMP JUMPDEST DUP2 ADD DUP2 DUP2 LT PUSH8 0xFFFFFFFFFFFFFFFF DUP3 GT OR ISZERO PUSH2 0x439 JUMPI PUSH2 0x438 PUSH2 0x3E4 JUMP JUMPDEST JUMPDEST DUP1 PUSH1 0x40 MSTORE POP POP POP JUMP JUMPDEST PUSH0 PUSH2 0x44B PUSH2 0x2ED JUMP JUMPDEST SWAP1 POP PUSH2 0x457 DUP3 DUP3 PUSH2 0x411 JUMP JUMPDEST SWAP2 SWAP1 POP JUMP JUMPDEST PUSH0 PUSH8 0xFFFFFFFFFFFFFFFF DUP3 GT ISZERO PUSH2 0x476 JUMPI PUSH2 0x475 PUSH2 0x3E4 JUMP JUMPDEST JUMPDEST PUSH2 0x47F DUP3 PUSH2 0x285 JUMP JUMPDEST SWAP1 POP PUSH1 0x20 DUP2 ADD SWAP1 POP SWAP2 SWAP1 POP JUMP JUMPDEST DUP3 DUP2 DUP4 CALLDATACOPY PUSH0 DUP4 DUP4 ADD MSTORE POP POP POP JUMP JUMPDEST PUSH0 PUSH2 0x4AC PUSH2 0x4A7 DUP5 PUSH2 0x45C JUMP JUMPDEST PUSH2 0x442 JUMP JUMPDEST SWAP1 POP DUP3 DUP2 MSTORE PUSH1 0x20 DUP2 ADD DUP5 DUP5 DUP5 ADD GT ISZERO PUSH2 0x4C8 JUMPI PUSH2 0x4C7 PUSH2 0x3E0 JUMP JUMPDEST JUMPDEST PUSH2 0x4D3 DUP5 DUP3 DUP6 PUSH2 0x48C JUMP JUMPDEST POP SWAP4 SWAP3 POP POP POP JUMP JUMPDEST PUSH0 DUP3 PUSH1 0x1F DUP4 ADD SLT PUSH2 0x4EF JUMPI PUSH2 0x4EE PUSH2 0x3DC JUMP JUMPDEST JUMPDEST DUP2 CALLDATALOAD PUSH2 0x4FF DUP5 DUP3 PUSH1 0x20 DUP7 ADD PUSH2 0x49A JUMP JUMPDEST SWAP2 POP POP SWAP3 SWAP2 POP POP JUMP JUMPDEST PUSH0 PUSH1 0x20 DUP3 DUP5 SUB SLT ISZERO PUSH2 0x51D JUMPI PUSH2 0x51C PUSH2 0x2F6 JUMP JUMPDEST JUMPDEST PUSH0 DUP3 ADD CALLDATALOAD PUSH8 0xFFFFFFFFFFFFFFFF DUP2 GT ISZERO PUSH2 0x53A JUMPI PUSH2 0x539 PUSH2 0x2FA JUMP JUMPDEST JUMPDEST PUSH2 0x546 DUP5 DUP3 DUP6 ADD PUSH2 0x4DB JUMP JUMPDEST SWAP2 POP POP SWAP3 SWAP2 POP POP JUMP JUMPDEST PUSH32 0x4E487B7100000000000000000000000000000000000000000000000000000000 PUSH0 MSTORE PUSH1 0x22 PUSH1 0x4 MSTORE PUSH1 0x24 PUSH0 REVERT JUMPDEST PUSH0 PUSH1 0x2 DUP3 DIV SWAP1 POP PUSH1 0x1 DUP3 AND DUP1 PUSH2 0x593 JUMPI PUSH1 0x7F DUP3 AND SWAP2 POP JUMPDEST PUSH1 0x20 DUP3 LT DUP2 SUB PUSH2 0x5A6 JUMPI PUSH2 0x5A5 PUSH2 0x54F JUMP JUMPDEST JUMPDEST POP SWAP2 SWAP1 POP JUMP JUMPDEST PUSH0 DUP2 SWAP1 POP DUP2 PUSH0 MSTORE PUSH1 0x20 PUSH0 KECCAK256 SWAP1 POP SWAP2 SWAP1 POP JUMP JUMPDEST PUSH0 PUSH1 0x20 PUSH1 0x1F DUP4 ADD DIV SWAP1 POP SWAP2 SWAP1 POP JUMP JUMPDEST PUSH0 DUP3 DUP3 SHL SWAP1 POP SWAP3 SWAP2 POP POP JUMP JUMPDEST PUSH0 PUSH1 0x8 DUP4 MUL PUSH2 0x608 PUSH32 0xFFFFFFFFFFFFFFFFFFFFFFFFFFFFFFFFFFFFFFFFFFFFFFFFFFFFFFFFFFFFFFFF DUP3 PUSH2 0x5CD JUMP JUMPDEST PUSH2 0x612 DUP7 DUP4 PUSH2 0x5CD JUMP JUMPDEST SWAP6 POP DUP1 NOT DUP5 AND SWAP4 POP DUP1 DUP7 AND DUP5 OR SWAP3 POP POP POP SWAP4 SWAP3 POP POP POP JUMP JUMPDEST PUSH0 DUP2 SWAP1 POP SWAP2 SWAP1 POP JUMP JUMPDEST PUSH0 PUSH2 0x64D PUSH2 0x648 PUSH2 0x643 DUP5 PUSH2 0x383 JUMP JUMPDEST PUSH2 0x62A JUMP JUMPDEST PUSH2 0x383 JUMP JUMPDEST SWAP1 POP SWAP2 SWAP1 POP JUMP JUMPDEST PUSH0 DUP2 SWAP1 POP SWAP2 SWAP1 POP JUMP JUMPDEST PUSH2 0x666 DUP4 PUSH2 0x633 JUMP JUMPDEST PUSH2 0x67A PUSH2 0x672 DUP3 PUSH2 0x654 JUMP JUMPDEST DUP5 DUP5 SLOAD PUSH2 0x5D9 JUMP JUMPDEST DUP3 SSTORE POP POP POP POP JUMP JUMPDEST PUSH0 SWAP1 JUMP JUMPDEST PUSH2 0x68E PUSH2 0x682 JUMP JUMPDEST PUSH2 0x699 DUP2 DUP5 DUP5 PUSH2 0x65D JUMP JUMPDEST POP POP POP JUMP JUMPDEST JUMPDEST DUP2 DUP2 LT ISZERO PUSH2 0x6BC JUMPI PUSH2 0x6B1 PUSH0 DUP3 PUSH2 0x686 JUMP JUMPDEST PUSH1 0x1 DUP2 ADD SWAP1 POP PUSH2 0x69F JUMP JUMPDEST POP POP JUMP JUMPDEST PUSH1 0x1F DUP3 GT ISZERO PUSH2 0x701 JUMPI PUSH2 0x6D2 DUP2 PUSH2 0x5AC JUMP JUMPDEST PUSH2 0x6DB DUP5 PUSH2 0x5BE JUMP JUMPDEST DUP2 ADD PUSH1 0x20 DUP6 LT ISZERO PUSH2 0x6EA JUMPI DUP2 SWAP1 POP JUMPDEST PUSH2 0x6FE PUSH2 0x6F6 DUP6 PUSH2 0x5BE JUMP JUMPDEST DUP4 ADD DUP3 PUSH2 0x69E JUMP JUMPDEST POP POP JUMPDEST POP POP POP JUMP JUMPDEST PUSH0 DUP3 DUP3 SHR SWAP1 POP SWAP3 SWAP2 POP POP JUMP JUMPDEST PUSH0 PUSH2 0x721 PUSH0 NOT DUP5 PUSH1 0x8 MUL PUSH2 0x706 JUMP JUMPDEST NOT DUP1 DUP4 AND SWAP2 POP POP SWAP3 SWAP2 POP POP JUMP JUMPDEST PUSH0 PUSH2 0x739 DUP4 DUP4 PUSH2 0x712 JUMP JUMPDEST SWAP2 POP DUP3 PUSH1 0x2 MUL DUP3 OR SWAP1 POP SWAP3 SWAP2 POP POP JUMP JUMPDEST PUSH2 0x752 DUP3 PUSH2 0x25D JUMP JUMPDEST PUSH8 0xFFFFFFFFFFFFFFFF DUP2 GT ISZERO PUSH2 0x76B JUMPI PUSH2 0x76A PUSH2 0x3E4 JUMP JUMPDEST JUMPDEST PUSH2 0x775 DUP3 SLOAD PUSH2 0x57C JUMP JUMPDEST PUSH2 0x780 DUP3 DUP3 DUP6 PUSH2 0x6C0 JUMP JUMPDEST PUSH0 PUSH1 0x20 SWAP1 POP PUSH1 0x1F DUP4 GT PUSH1 0x1 DUP2 EQ PUSH2 0x7B1 JUMPI PUSH0 DUP5 ISZERO PUSH2 0x79F JUMPI DUP3 DUP8 ADD MLOAD SWAP1 POP JUMPDEST PUSH2 0x7A9 DUP6 DUP3 PUSH2 0x72E JUMP JUMPDEST DUP7 SSTORE POP PUSH2 0x810 JUMP JUMPDEST PUSH1 0x1F NOT DUP5 AND PUSH2 0x7BF DUP7 PUSH2 0x5AC JUMP JUMPDEST PUSH0 JUMPDEST DUP3 DUP2 LT ISZERO PUSH2 0x7E6 JUMPI DUP5 DUP10 ADD MLOAD DUP3 SSTORE PUSH1 0x1 DUP3 ADD SWAP2 POP PUSH1 0x20 DUP6 ADD SWAP5 POP PUSH1 0x20 DUP2 ADD SWAP1 POP PUSH2 0x7C1 JUMP JUMPDEST DUP7 DUP4 LT ISZERO PUSH2 0x803 JUMPI DUP5 DUP10 ADD MLOAD PUSH2 0x7FF PUSH1 0x1F DUP10 AND DUP3 PUSH2 0x712 JUMP JUMPDEST DUP4 SSTORE POP JUMPDEST PUSH1 0x1 PUSH1 0x2 DUP9 MUL ADD DUP9 SSTORE POP POP POP JUMPDEST POP POP POP POP POP POP JUMP INVALID LOG2 PUSH5 0x6970667358 0x22 SLT KECCAK256 PUSH16 0xA8BC52E242BC6D31375E3EA302814088 DUP13 ADDMOD BASEFEE 0xA8 BASEFEE PUSH32 0x33C03A98EF43D8D94B64736F6C634300081A0033000000000000000000000000 "
		},
		"gasEstimates": {
			"creation": {
				"codeDepositCost": "425200",
				"executionCost": "infinite",
				"totalCost": "infinite"
			},
			"external": {
				"domain()": "infinite",
				"getRecordType()": "infinite",
				"owner()": "2552",
				"setDomain(string)": "infinite",
				"setOwner(address)": "24715",
				"timeOfCreation()": "2446"
			}
		},
		"methodIdentifiers": {
			"domain()": "c2fb26a6",
			"getRecordType()": "0781f5c9",
			"owner()": "8da5cb5b",
			"setDomain(string)": "e5eab096",
			"setOwner(address)": "13af4035",
			"timeOfCreation()": "1dcd69ec"
		}
	},
	"abi": [
		{
			"inputs": [
				{
					"internalType": "string",
					"name": "_domain",
					"type": "string"
				}
			],
			"stateMutability": "nonpayable",
			"type": "constructor"
		},
		{
			"inputs": [],
			"name": "domain",
			"outputs": [
				{
					"internalType": "string",
					"name": "",
					"type": "string"
				}
			],
			"stateMutability": "view",
			"type": "function"
		},
		{
			"inputs": [],
			"name": "getRecordType",
			"outputs": [
				{
					"internalType": "string",
					"name": "",
					"type": "string"
				}
			],
			"stateMutability": "pure",
			"type": "function"
		},
		{
			"inputs": [],
			"name": "owner",
			"outputs": [
				{
					"internalType": "address",
					"name": "",
					"type": "address"
				}
			],
			"stateMutability": "view",
			"type": "function"
		},
		{
			"inputs": [
				{
					"internalType": "string",
					"name": "_domain",
					"type": "string"
				}
			],
			"name": "setDomain",
			"outputs": [],
			"stateMutability": "nonpayable",
			"type": "function"
		},
		{
			"inputs": [
				{
					"internalType": "address",
					"name": "_owner",
					"type": "address"
				}
			],
			"name": "setOwner",
			"outputs": [],
			"stateMutability": "nonpayable",
			"type": "function"
		},
		{
			"inputs": [],
			"name": "timeOfCreation",
			"outputs": [
				{
					"internalType": "uint256",
					"name": "",
					"type": "uint256"
				}
			],
			"stateMutability": "view",
			"type": "function"
		}
	]
}