{
	"data": {
		"bytecode": {
			"linkReferences": {},
			"object": "608060405234801561000f575f80fd5b50335f73ffffffffffffffffffffffffffffffffffffffff168173ffffffffffffffffffffffffffffffffffffffff1603610081575f6040517f1e4fbdf70000000000000000000000000000000000000000000000000000000081526004016100789190610196565b60405180910390fd5b6100908161009660201b60201c565b506101af565b5f805f9054906101000a900473ffffffffffffffffffffffffffffffffffffffff169050815f806101000a81548173ffffffffffffffffffffffffffffffffffffffff021916908373ffffffffffffffffffffffffffffffffffffffff1602179055508173ffffffffffffffffffffffffffffffffffffffff168173ffffffffffffffffffffffffffffffffffffffff167f8be0079c531659141344cd1fd0a4f28419497f9722a3daafe3b4186f6b6457e060405160405180910390a35050565b5f73ffffffffffffffffffffffffffffffffffffffff82169050919050565b5f61018082610157565b9050919050565b61019081610176565b82525050565b5f6020820190506101a95f830184610187565b92915050565b610f5d806101bc5f395ff3fe608060405234801561000f575f80fd5b506004361061009c575f3560e01c80638da5cb5b116100645780638da5cb5b14610157578063b323bbd714610175578063f096506b14610191578063f2fde38b146101c1578063fab52689146101dd5761009c565b80631f4c13c1146100a057806329ce1ec5146100d057806334461067146100ec5780635a94ae901461011c578063715018a61461014d575b5f80fd5b6100ba60048036038101906100b591906107ac565b61020d565b6040516100c79190610853565b60405180910390f35b6100ea60048036038101906100e591906108cd565b61022a565b005b6101066004803603810190610101919061092b565b61028a565b60405161011391906109a8565b60405180910390f35b610136600480360381019061013191906107ac565b610330565b6040516101449291906109d7565b60405180910390f35b610155610354565b005b61015f610367565b60405161016c9190610a05565b60405180910390f35b61018f600480360381019061018a91906107ac565b61038e565b005b6101ab60048036038101906101a691906107ac565b610453565b6040516101b89190610a05565b60405180910390f35b6101db60048036038101906101d691906108cd565b61046f565b005b6101f760048036038101906101f291906108cd565b6104f3565b6040516102049190610a38565b60405180910390f35b6060818060200190518101906102239190610aef565b9050919050565b610232610510565b600160025f8373ffffffffffffffffffffffffffffffffffffffff1673ffffffffffffffffffffffffffffffffffffffff1681526020019081526020015f205f6101000a81548160ff02191690831515021790555050565b60018181548110610299575f80fd5b905f5260205f20015f9150905080546102b190610b63565b80601f01602080910402602001604051908101604052809291908181526020018280546102dd90610b63565b80156103285780601f106102ff57610100808354040283529160200191610328565b820191905f5260205f20905b81548152906001019060200180831161030b57829003601f168201915b505050505081565b60605f828060200190518101906103479190610bce565b8092508193505050915091565b61035c610510565b6103655f610597565b565b5f805f9054906101000a900473ffffffffffffffffffffffffffffffffffffffff16905090565b6001151560025f3373ffffffffffffffffffffffffffffffffffffffff1673ffffffffffffffffffffffffffffffffffffffff1681526020019081526020015f205f9054906101000a900460ff1615151461041e576040517f08c379a000000000000000000000000000000000000000000000000000000000815260040161041590610c72565b60405180910390fd5b600181908060018154018082558091505060019003905f5260205f20015f90919091909150908161044f9190610e2d565b5050565b5f818060200190518101906104689190610efc565b9050919050565b610477610510565b5f73ffffffffffffffffffffffffffffffffffffffff168173ffffffffffffffffffffffffffffffffffffffff16036104e7575f6040517f1e4fbdf70000000000000000000000000000000000000000000000000000000081526004016104de9190610a05565b60405180910390fd5b6104f081610597565b50565b6002602052805f5260405f205f915054906101000a900460ff1681565b610518610658565b73ffffffffffffffffffffffffffffffffffffffff16610536610367565b73ffffffffffffffffffffffffffffffffffffffff161461059557610559610658565b6040517f118cdaa700000000000000000000000000000000000000000000000000000000815260040161058c9190610a05565b60405180910390fd5b565b5f805f9054906101000a900473ffffffffffffffffffffffffffffffffffffffff169050815f806101000a81548173ffffffffffffffffffffffffffffffffffffffff021916908373ffffffffffffffffffffffffffffffffffffffff1602179055508173ffffffffffffffffffffffffffffffffffffffff168173ffffffffffffffffffffffffffffffffffffffff167f8be0079c531659141344cd1fd0a4f28419497f9722a3daafe3b4186f6b6457e060405160405180910390a35050565b5f33905090565b5f604051905090565b5f80fd5b5f80fd5b5f80fd5b5f80fd5b5f601f19601f8301169050919050565b7f4e487b71000000000000000000000000000000000000000000000000000000005f52604160045260245ffd5b6106be82610678565b810181811067ffffffffffffffff821117156106dd576106dc610688565b5b80604052505050565b5f6106ef61065f565b90506106fb82826106b5565b919050565b5f67ffffffffffffffff82111561071a57610719610688565b5b61072382610678565b9050602081019050919050565b828183375f83830152505050565b5f61075061074b84610700565b6106e6565b90508281526020810184848401111561076c5761076b610674565b5b610777848285610730565b509392505050565b5f82601f83011261079357610792610670565b5b81356107a384826020860161073e565b91505092915050565b5f602082840312156107c1576107c0610668565b5b5f82013567ffffffffffffffff8111156107de576107dd61066c565b5b6107ea8482850161077f565b91505092915050565b5f81519050919050565b5f82825260208201905092915050565b8281835e5f83830152505050565b5f610825826107f3565b61082f81856107fd565b935061083f81856020860161080d565b61084881610678565b840191505092915050565b5f6020820190508181035f83015261086b818461081b565b905092915050565b5f73ffffffffffffffffffffffffffffffffffffffff82169050919050565b5f61089c82610873565b9050919050565b6108ac81610892565b81146108b6575f80fd5b50565b5f813590506108c7816108a3565b92915050565b5f602082840312156108e2576108e1610668565b5b5f6108ef848285016108b9565b91505092915050565b5f819050919050565b61090a816108f8565b8114610914575f80fd5b50565b5f8135905061092581610901565b92915050565b5f602082840312156109405761093f610668565b5b5f61094d84828501610917565b91505092915050565b5f81519050919050565b5f82825260208201905092915050565b5f61097a82610956565b6109848185610960565b935061099481856020860161080d565b61099d81610678565b840191505092915050565b5f6020820190508181035f8301526109c08184610970565b905092915050565b6109d181610892565b82525050565b5f6040820190508181035f8301526109ef818561081b565b90506109fe60208301846109c8565b9392505050565b5f602082019050610a185f8301846109c8565b92915050565b5f8115159050919050565b610a3281610a1e565b82525050565b5f602082019050610a4b5f830184610a29565b92915050565b5f67ffffffffffffffff821115610a6b57610a6a610688565b5b610a7482610678565b9050602081019050919050565b5f610a93610a8e84610a51565b6106e6565b905082815260208101848484011115610aaf57610aae610674565b5b610aba84828561080d565b509392505050565b5f82601f830112610ad657610ad5610670565b5b8151610ae6848260208601610a81565b91505092915050565b5f60208284031215610b0457610b03610668565b5b5f82015167ffffffffffffffff811115610b2157610b2061066c565b5b610b2d84828501610ac2565b91505092915050565b7f4e487b71000000000000000000000000000000000000000000000000000000005f52602260045260245ffd5b5f6002820490506001821680610b7a57607f821691505b602082108103610b8d57610b8c610b36565b5b50919050565b5f610b9d82610873565b9050919050565b610bad81610b93565b8114610bb7575f80fd5b50565b5f81519050610bc881610ba4565b92915050565b5f8060408385031215610be457610be3610668565b5b5f83015167ffffffffffffffff811115610c0157610c0061066c565b5b610c0d85828601610ac2565b9250506020610c1e85828601610bba565b9150509250929050565b7f4e6f7420696e20666163746f72696573210000000000000000000000000000005f82015250565b5f610c5c6011836107fd565b9150610c6782610c28565b602082019050919050565b5f6020820190508181035f830152610c8981610c50565b9050919050565b5f819050815f5260205f209050919050565b5f6020601f8301049050919050565b5f82821b905092915050565b5f60088302610cec7fffffffffffffffffffffffffffffffffffffffffffffffffffffffffffffffff82610cb1565b610cf68683610cb1565b95508019841693508086168417925050509392505050565b5f819050919050565b5f610d31610d2c610d27846108f8565b610d0e565b6108f8565b9050919050565b5f819050919050565b610d4a83610d17565b610d5e610d5682610d38565b848454610cbd565b825550505050565b5f90565b610d72610d66565b610d7d818484610d41565b505050565b5b81811015610da057610d955f82610d6a565b600181019050610d83565b5050565b601f821115610de557610db681610c90565b610dbf84610ca2565b81016020851015610dce578190505b610de2610dda85610ca2565b830182610d82565b50505b505050565b5f82821c905092915050565b5f610e055f1984600802610dea565b1980831691505092915050565b5f610e1d8383610df6565b9150826002028217905092915050565b610e3682610956565b67ffffffffffffffff811115610e4f57610e4e610688565b5b610e598254610b63565b610e64828285610da4565b5f60209050601f831160018114610e95575f8415610e83578287015190505b610e8d8582610e12565b865550610ef4565b601f198416610ea386610c90565b5f5b82811015610eca57848901518255600182019150602085019450602081019050610ea5565b86831015610ee75784890151610ee3601f891682610df6565b8355505b6001600288020188555050505b505050505050565b5f60208284031215610f1157610f10610668565b5b5f610f1e84828501610bba565b9150509291505056fea26469706673582212200c3acda5772ba5bb6fdfc429eb46044979b591dc98d5fbf2922955c1bd37f0a764736f6c634300081a0033",
			"opcodes": "PUSH1 0x80 PUSH1 0x40 MSTORE CALLVALUE DUP1 ISZERO PUSH2 0xF JUMPI PUSH0 DUP1 REVERT JUMPDEST POP CALLER PUSH0 PUSH20 0xFFFFFFFFFFFFFFFFFFFFFFFFFFFFFFFFFFFFFFFF AND DUP2 PUSH20 0xFFFFFFFFFFFFFFFFFFFFFFFFFFFFFFFFFFFFFFFF AND SUB PUSH2 0x81 JUMPI PUSH0 PUSH1 0x40 MLOAD PUSH32 0x1E4FBDF700000000000000000000000000000000000000000000000000000000 DUP2 MSTORE PUSH1 0x4 ADD PUSH2 0x78 SWAP2 SWAP1 PUSH2 0x196 JUMP JUMPDEST PUSH1 0x40 MLOAD DUP1 SWAP2 SUB SWAP1 REVERT JUMPDEST PUSH2 0x90 DUP2 PUSH2 0x96 PUSH1 0x20 SHL PUSH1 0x20 SHR JUMP JUMPDEST POP PUSH2 0x1AF JUMP JUMPDEST PUSH0 DUP1 PUSH0 SWAP1 SLOAD SWAP1 PUSH2 0x100 EXP SWAP1 DIV PUSH20 0xFFFFFFFFFFFFFFFFFFFFFFFFFFFFFFFFFFFFFFFF AND SWAP1 POP DUP2 PUSH0 DUP1 PUSH2 0x100 EXP DUP2 SLOAD DUP2 PUSH20 0xFFFFFFFFFFFFFFFFFFFFFFFFFFFFFFFFFFFFFFFF MUL NOT AND SWAP1 DUP4 PUSH20 0xFFFFFFFFFFFFFFFFFFFFFFFFFFFFFFFFFFFFFFFF AND MUL OR SWAP1 SSTORE POP DUP2 PUSH20 0xFFFFFFFFFFFFFFFFFFFFFFFFFFFFFFFFFFFFFFFF AND DUP2 PUSH20 0xFFFFFFFFFFFFFFFFFFFFFFFFFFFFFFFFFFFFFFFF AND PUSH32 0x8BE0079C531659141344CD1FD0A4F28419497F9722A3DAAFE3B4186F6B6457E0 PUSH1 0x40 MLOAD PUSH1 0x40 MLOAD DUP1 SWAP2 SUB SWAP1 LOG3 POP POP JUMP JUMPDEST PUSH0 PUSH20 0xFFFFFFFFFFFFFFFFFFFFFFFFFFFFFFFFFFFFFFFF DUP3 AND SWAP1 POP SWAP2 SWAP1 POP JUMP JUMPDEST PUSH0 PUSH2 0x180 DUP3 PUSH2 0x157 JUMP JUMPDEST SWAP1 POP SWAP2 SWAP1 POP JUMP JUMPDEST PUSH2 0x190 DUP2 PUSH2 0x176 JUMP JUMPDEST DUP3 MSTORE POP POP JUMP JUMPDEST PUSH0 PUSH1 0x20 DUP3 ADD SWAP1 POP PUSH2 0x1A9 PUSH0 DUP4 ADD DUP5 PUSH2 0x187 JUMP JUMPDEST SWAP3 SWAP2 POP POP JUMP JUMPDEST PUSH2 0xF5D DUP1 PUSH2 0x1BC PUSH0 CODECOPY PUSH0 RETURN INVALID PUSH1 0x80 PUSH1 0x40 MSTORE CALLVALUE DUP1 ISZERO PUSH2 0xF JUMPI PUSH0 DUP1 REVERT JUMPDEST POP PUSH1 0x4 CALLDATASIZE LT PUSH2 0x9C JUMPI PUSH0 CALLDATALOAD PUSH1 0xE0 SHR DUP1 PUSH4 0x8DA5CB5B GT PUSH2 0x64 JUMPI DUP1 PUSH4 0x8DA5CB5B EQ PUSH2 0x157 JUMPI DUP1 PUSH4 0xB323BBD7 EQ PUSH2 0x175 JUMPI DUP1 PUSH4 0xF096506B EQ PUSH2 0x191 JUMPI DUP1 PUSH4 0xF2FDE38B EQ PUSH2 0x1C1 JUMPI DUP1 PUSH4 0xFAB52689 EQ PUSH2 0x1DD JUMPI PUSH2 0x9C JUMP JUMPDEST DUP1 PUSH4 0x1F4C13C1 EQ PUSH2 0xA0 JUMPI DUP1 PUSH4 0x29CE1EC5 EQ PUSH2 0xD0 JUMPI DUP1 PUSH4 0x34461067 EQ PUSH2 0xEC JUMPI DUP1 PUSH4 0x5A94AE90 EQ PUSH2 0x11C JUMPI DUP1 PUSH4 0x715018A6 EQ PUSH2 0x14D JUMPI JUMPDEST PUSH0 DUP1 REVERT JUMPDEST PUSH2 0xBA PUSH1 0x4 DUP1 CALLDATASIZE SUB DUP2 ADD SWAP1 PUSH2 0xB5 SWAP2 SWAP1 PUSH2 0x7AC JUMP JUMPDEST PUSH2 0x20D JUMP JUMPDEST PUSH1 0x40 MLOAD PUSH2 0xC7 SWAP2 SWAP1 PUSH2 0x853 JUMP JUMPDEST PUSH1 0x40 MLOAD DUP1 SWAP2 SUB SWAP1 RETURN JUMPDEST PUSH2 0xEA PUSH1 0x4 DUP1 CALLDATASIZE SUB DUP2 ADD SWAP1 PUSH2 0xE5 SWAP2 SWAP1 PUSH2 0x8CD JUMP JUMPDEST PUSH2 0x22A JUMP JUMPDEST STOP JUMPDEST PUSH2 0x106 PUSH1 0x4 DUP1 CALLDATASIZE SUB DUP2 ADD SWAP1 PUSH2 0x101 SWAP2 SWAP1 PUSH2 0x92B JUMP JUMPDEST PUSH2 0x28A JUMP JUMPDEST PUSH1 0x40 MLOAD PUSH2 0x113 SWAP2 SWAP1 PUSH2 0x9A8 JUMP JUMPDEST PUSH1 0x40 MLOAD DUP1 SWAP2 SUB SWAP1 RETURN JUMPDEST PUSH2 0x136 PUSH1 0x4 DUP1 CALLDATASIZE SUB DUP2 ADD SWAP1 PUSH2 0x131 SWAP2 SWAP1 PUSH2 0x7AC JUMP JUMPDEST PUSH2 0x330 JUMP JUMPDEST PUSH1 0x40 MLOAD PUSH2 0x144 SWAP3 SWAP2 SWAP1 PUSH2 0x9D7 JUMP JUMPDEST PUSH1 0x40 MLOAD DUP1 SWAP2 SUB SWAP1 RETURN JUMPDEST PUSH2 0x155 PUSH2 0x354 JUMP JUMPDEST STOP JUMPDEST PUSH2 0x15F PUSH2 0x367 JUMP JUMPDEST PUSH1 0x40 MLOAD PUSH2 0x16C SWAP2 SWAP1 PUSH2 0xA05 JUMP JUMPDEST PUSH1 0x40 MLOAD DUP1 SWAP2 SUB SWAP1 RETURN JUMPDEST PUSH2 0x18F PUSH1 0x4 DUP1 CALLDATASIZE SUB DUP2 ADD SWAP1 PUSH2 0x18A SWAP2 SWAP1 PUSH2 0x7AC JUMP JUMPDEST PUSH2 0x38E JUMP JUMPDEST STOP JUMPDEST PUSH2 0x1AB PUSH1 0x4 DUP1 CALLDATASIZE SUB DUP2 ADD SWAP1 PUSH2 0x1A6 SWAP2 SWAP1 PUSH2 0x7AC JUMP JUMPDEST PUSH2 0x453 JUMP JUMPDEST PUSH1 0x40 MLOAD PUSH2 0x1B8 SWAP2 SWAP1 PUSH2 0xA05 JUMP JUMPDEST PUSH1 0x40 MLOAD DUP1 SWAP2 SUB SWAP1 RETURN JUMPDEST PUSH2 0x1DB PUSH1 0x4 DUP1 CALLDATASIZE SUB DUP2 ADD SWAP1 PUSH2 0x1D6 SWAP2 SWAP1 PUSH2 0x8CD JUMP JUMPDEST PUSH2 0x46F JUMP JUMPDEST STOP JUMPDEST PUSH2 0x1F7 PUSH1 0x4 DUP1 CALLDATASIZE SUB DUP2 ADD SWAP1 PUSH2 0x1F2 SWAP2 SWAP1 PUSH2 0x8CD JUMP JUMPDEST PUSH2 0x4F3 JUMP JUMPDEST PUSH1 0x40 MLOAD PUSH2 0x204 SWAP2 SWAP1 PUSH2 0xA38 JUMP JUMPDEST PUSH1 0x40 MLOAD DUP1 SWAP2 SUB SWAP1 RETURN JUMPDEST PUSH1 0x60 DUP2 DUP1 PUSH1 0x20 ADD SWAP1 MLOAD DUP2 ADD SWAP1 PUSH2 0x223 SWAP2 SWAP1 PUSH2 0xAEF JUMP JUMPDEST SWAP1 POP SWAP2 SWAP1 POP JUMP JUMPDEST PUSH2 0x232 PUSH2 0x510 JUMP JUMPDEST PUSH1 0x1 PUSH1 0x2 PUSH0 DUP4 PUSH20 0xFFFFFFFFFFFFFFFFFFFFFFFFFFFFFFFFFFFFFFFF AND PUSH20 0xFFFFFFFFFFFFFFFFFFFFFFFFFFFFFFFFFFFFFFFF AND DUP2 MSTORE PUSH1 0x20 ADD SWAP1 DUP2 MSTORE PUSH1 0x20 ADD PUSH0 KECCAK256 PUSH0 PUSH2 0x100 EXP DUP2 SLOAD DUP2 PUSH1 0xFF MUL NOT AND SWAP1 DUP4 ISZERO ISZERO MUL OR SWAP1 SSTORE POP POP JUMP JUMPDEST PUSH1 0x1 DUP2 DUP2 SLOAD DUP2 LT PUSH2 0x299 JUMPI PUSH0 DUP1 REVERT JUMPDEST SWAP1 PUSH0 MSTORE PUSH1 0x20 PUSH0 KECCAK256 ADD PUSH0 SWAP2 POP SWAP1 POP DUP1 SLOAD PUSH2 0x2B1 SWAP1 PUSH2 0xB63 JUMP JUMPDEST DUP1 PUSH1 0x1F ADD PUSH1 0x20 DUP1 SWAP2 DIV MUL PUSH1 0x20 ADD PUSH1 0x40 MLOAD SWAP1 DUP2 ADD PUSH1 0x40 MSTORE DUP1 SWAP3 SWAP2 SWAP1 DUP2 DUP2 MSTORE PUSH1 0x20 ADD DUP3 DUP1 SLOAD PUSH2 0x2DD SWAP1 PUSH2 0xB63 JUMP JUMPDEST DUP1 ISZERO PUSH2 0x328 JUMPI DUP1 PUSH1 0x1F LT PUSH2 0x2FF JUMPI PUSH2 0x100 DUP1 DUP4 SLOAD DIV MUL DUP4 MSTORE SWAP2 PUSH1 0x20 ADD SWAP2 PUSH2 0x328 JUMP JUMPDEST DUP3 ADD SWAP2 SWAP1 PUSH0 MSTORE PUSH1 0x20 PUSH0 KECCAK256 SWAP1 JUMPDEST DUP2 SLOAD DUP2 MSTORE SWAP1 PUSH1 0x1 ADD SWAP1 PUSH1 0x20 ADD DUP1 DUP4 GT PUSH2 0x30B JUMPI DUP3 SWAP1 SUB PUSH1 0x1F AND DUP3 ADD SWAP2 JUMPDEST POP POP POP POP POP DUP2 JUMP JUMPDEST PUSH1 0x60 PUSH0 DUP3 DUP1 PUSH1 0x20 ADD SWAP1 MLOAD DUP2 ADD SWAP1 PUSH2 0x347 SWAP2 SWAP1 PUSH2 0xBCE JUMP JUMPDEST DUP1 SWAP3 POP DUP2 SWAP4 POP POP POP SWAP2 POP SWAP2 JUMP JUMPDEST PUSH2 0x35C PUSH2 0x510 JUMP JUMPDEST PUSH2 0x365 PUSH0 PUSH2 0x597 JUMP JUMPDEST JUMP JUMPDEST PUSH0 DUP1 PUSH0 SWAP1 SLOAD SWAP1 PUSH2 0x100 EXP SWAP1 DIV PUSH20 0xFFFFFFFFFFFFFFFFFFFFFFFFFFFFFFFFFFFFFFFF AND SWAP1 POP SWAP1 JUMP JUMPDEST PUSH1 0x1 ISZERO ISZERO PUSH1 0x2 PUSH0 CALLER PUSH20 0xFFFFFFFFFFFFFFFFFFFFFFFFFFFFFFFFFFFFFFFF AND PUSH20 0xFFFFFFFFFFFFFFFFFFFFFFFFFFFFFFFFFFFFFFFF AND DUP2 MSTORE PUSH1 0x20 ADD SWAP1 DUP2 MSTORE PUSH1 0x20 ADD PUSH0 KECCAK256 PUSH0 SWAP1 SLOAD SWAP1 PUSH2 0x100 EXP SWAP1 DIV PUSH1 0xFF AND ISZERO ISZERO EQ PUSH2 0x41E JUMPI PUSH1 0x40 MLOAD PUSH32 0x8C379A000000000000000000000000000000000000000000000000000000000 DUP2 MSTORE PUSH1 0x4 ADD PUSH2 0x415 SWAP1 PUSH2 0xC72 JUMP JUMPDEST PUSH1 0x40 MLOAD DUP1 SWAP2 SUB SWAP1 REVERT JUMPDEST PUSH1 0x1 DUP2 SWAP1 DUP1 PUSH1 0x1 DUP2 SLOAD ADD DUP1 DUP3 SSTORE DUP1 SWAP2 POP POP PUSH1 0x1 SWAP1 SUB SWAP1 PUSH0 MSTORE PUSH1 0x20 PUSH0 KECCAK256 ADD PUSH0 SWAP1 SWAP2 SWAP1 SWAP2 SWAP1 SWAP2 POP SWAP1 DUP2 PUSH2 0x44F SWAP2 SWAP1 PUSH2 0xE2D JUMP JUMPDEST POP POP JUMP JUMPDEST PUSH0 DUP2 DUP1 PUSH1 0x20 ADD SWAP1 MLOAD DUP2 ADD SWAP1 PUSH2 0x468 SWAP2 SWAP1 PUSH2 0xEFC JUMP JUMPDEST SWAP1 POP SWAP2 SWAP1 POP JUMP JUMPDEST PUSH2 0x477 PUSH2 0x510 JUMP JUMPDEST PUSH0 PUSH20 0xFFFFFFFFFFFFFFFFFFFFFFFFFFFFFFFFFFFFFFFF AND DUP2 PUSH20 0xFFFFFFFFFFFFFFFFFFFFFFFFFFFFFFFFFFFFFFFF AND SUB PUSH2 0x4E7 JUMPI PUSH0 PUSH1 0x40 MLOAD PUSH32 0x1E4FBDF700000000000000000000000000000000000000000000000000000000 DUP2 MSTORE PUSH1 0x4 ADD PUSH2 0x4DE SWAP2 SWAP1 PUSH2 0xA05 JUMP JUMPDEST PUSH1 0x40 MLOAD DUP1 SWAP2 SUB SWAP1 REVERT JUMPDEST PUSH2 0x4F0 DUP2 PUSH2 0x597 JUMP JUMPDEST POP JUMP JUMPDEST PUSH1 0x2 PUSH1 0x20 MSTORE DUP1 PUSH0 MSTORE PUSH1 0x40 PUSH0 KECCAK256 PUSH0 SWAP2 POP SLOAD SWAP1 PUSH2 0x100 EXP SWAP1 DIV PUSH1 0xFF AND DUP2 JUMP JUMPDEST PUSH2 0x518 PUSH2 0x658 JUMP JUMPDEST PUSH20 0xFFFFFFFFFFFFFFFFFFFFFFFFFFFFFFFFFFFFFFFF AND PUSH2 0x536 PUSH2 0x367 JUMP JUMPDEST PUSH20 0xFFFFFFFFFFFFFFFFFFFFFFFFFFFFFFFFFFFFFFFF AND EQ PUSH2 0x595 JUMPI PUSH2 0x559 PUSH2 0x658 JUMP JUMPDEST PUSH1 0x40 MLOAD PUSH32 0x118CDAA700000000000000000000000000000000000000000000000000000000 DUP2 MSTORE PUSH1 0x4 ADD PUSH2 0x58C SWAP2 SWAP1 PUSH2 0xA05 JUMP JUMPDEST PUSH1 0x40 MLOAD DUP1 SWAP2 SUB SWAP1 REVERT JUMPDEST JUMP JUMPDEST PUSH0 DUP1 PUSH0 SWAP1 SLOAD SWAP1 PUSH2 0x100 EXP SWAP1 DIV PUSH20 0xFFFFFFFFFFFFFFFFFFFFFFFFFFFFFFFFFFFFFFFF AND SWAP1 POP DUP2 PUSH0 DUP1 PUSH2 0x100 EXP DUP2 SLOAD DUP2 PUSH20 0xFFFFFFFFFFFFFFFFFFFFFFFFFFFFFFFFFFFFFFFF MUL NOT AND SWAP1 DUP4 PUSH20 0xFFFFFFFFFFFFFFFFFFFFFFFFFFFFFFFFFFFFFFFF AND MUL OR SWAP1 SSTORE POP DUP2 PUSH20 0xFFFFFFFFFFFFFFFFFFFFFFFFFFFFFFFFFFFFFFFF AND DUP2 PUSH20 0xFFFFFFFFFFFFFFFFFFFFFFFFFFFFFFFFFFFFFFFF AND PUSH32 0x8BE0079C531659141344CD1FD0A4F28419497F9722A3DAAFE3B4186F6B6457E0 PUSH1 0x40 MLOAD PUSH1 0x40 MLOAD DUP1 SWAP2 SUB SWAP1 LOG3 POP POP JUMP JUMPDEST PUSH0 CALLER SWAP1 POP SWAP1 JUMP JUMPDEST PUSH0 PUSH1 0x40 MLOAD SWAP1 POP SWAP1 JUMP JUMPDEST PUSH0 DUP1 REVERT JUMPDEST PUSH0 DUP1 REVERT JUMPDEST PUSH0 DUP1 REVERT JUMPDEST PUSH0 DUP1 REVERT JUMPDEST PUSH0 PUSH1 0x1F NOT PUSH1 0x1F DUP4 ADD AND SWAP1 POP SWAP2 SWAP1 POP JUMP JUMPDEST PUSH32 0x4E487B7100000000000000000000000000000000000000000000000000000000 PUSH0 MSTORE PUSH1 0x41 PUSH1 0x4 MSTORE PUSH1 0x24 PUSH0 REVERT JUMPDEST PUSH2 0x6BE DUP3 PUSH2 0x678 JUMP JUMPDEST DUP2 ADD DUP2 DUP2 LT PUSH8 0xFFFFFFFFFFFFFFFF DUP3 GT OR ISZERO PUSH2 0x6DD JUMPI PUSH2 0x6DC PUSH2 0x688 JUMP JUMPDEST JUMPDEST DUP1 PUSH1 0x40 MSTORE POP POP POP JUMP JUMPDEST PUSH0 PUSH2 0x6EF PUSH2 0x65F JUMP JUMPDEST SWAP1 POP PUSH2 0x6FB DUP3 DUP3 PUSH2 0x6B5 JUMP JUMPDEST SWAP2 SWAP1 POP JUMP JUMPDEST PUSH0 PUSH8 0xFFFFFFFFFFFFFFFF DUP3 GT ISZERO PUSH2 0x71A JUMPI PUSH2 0x719 PUSH2 0x688 JUMP JUMPDEST JUMPDEST PUSH2 0x723 DUP3 PUSH2 0x678 JUMP JUMPDEST SWAP1 POP PUSH1 0x20 DUP2 ADD SWAP1 POP SWAP2 SWAP1 POP JUMP JUMPDEST DUP3 DUP2 DUP4 CALLDATACOPY PUSH0 DUP4 DUP4 ADD MSTORE POP POP POP JUMP JUMPDEST PUSH0 PUSH2 0x750 PUSH2 0x74B DUP5 PUSH2 0x700 JUMP JUMPDEST PUSH2 0x6E6 JUMP JUMPDEST SWAP1 POP DUP3 DUP2 MSTORE PUSH1 0x20 DUP2 ADD DUP5 DUP5 DUP5 ADD GT ISZERO PUSH2 0x76C JUMPI PUSH2 0x76B PUSH2 0x674 JUMP JUMPDEST JUMPDEST PUSH2 0x777 DUP5 DUP3 DUP6 PUSH2 0x730 JUMP JUMPDEST POP SWAP4 SWAP3 POP POP POP JUMP JUMPDEST PUSH0 DUP3 PUSH1 0x1F DUP4 ADD SLT PUSH2 0x793 JUMPI PUSH2 0x792 PUSH2 0x670 JUMP JUMPDEST JUMPDEST DUP2 CALLDATALOAD PUSH2 0x7A3 DUP5 DUP3 PUSH1 0x20 DUP7 ADD PUSH2 0x73E JUMP JUMPDEST SWAP2 POP POP SWAP3 SWAP2 POP POP JUMP JUMPDEST PUSH0 PUSH1 0x20 DUP3 DUP5 SUB SLT ISZERO PUSH2 0x7C1 JUMPI PUSH2 0x7C0 PUSH2 0x668 JUMP JUMPDEST JUMPDEST PUSH0 DUP3 ADD CALLDATALOAD PUSH8 0xFFFFFFFFFFFFFFFF DUP2 GT ISZERO PUSH2 0x7DE JUMPI PUSH2 0x7DD PUSH2 0x66C JUMP JUMPDEST JUMPDEST PUSH2 0x7EA DUP5 DUP3 DUP6 ADD PUSH2 0x77F JUMP JUMPDEST SWAP2 POP POP SWAP3 SWAP2 POP POP JUMP JUMPDEST PUSH0 DUP2 MLOAD SWAP1 POP SWAP2 SWAP1 POP JUMP JUMPDEST PUSH0 DUP3 DUP3 MSTORE PUSH1 0x20 DUP3 ADD SWAP1 POP SWAP3 SWAP2 POP POP JUMP JUMPDEST DUP3 DUP2 DUP4 MCOPY PUSH0 DUP4 DUP4 ADD MSTORE POP POP POP JUMP JUMPDEST PUSH0 PUSH2 0x825 DUP3 PUSH2 0x7F3 JUMP JUMPDEST PUSH2 0x82F DUP2 DUP6 PUSH2 0x7FD JUMP JUMPDEST SWAP4 POP PUSH2 0x83F DUP2 DUP6 PUSH1 0x20 DUP7 ADD PUSH2 0x80D JUMP JUMPDEST PUSH2 0x848 DUP2 PUSH2 0x678 JUMP JUMPDEST DUP5 ADD SWAP2 POP POP SWAP3 SWAP2 POP POP JUMP JUMPDEST PUSH0 PUSH1 0x20 DUP3 ADD SWAP1 POP DUP2 DUP2 SUB PUSH0 DUP4 ADD MSTORE PUSH2 0x86B DUP2 DUP5 PUSH2 0x81B JUMP JUMPDEST SWAP1 POP SWAP3 SWAP2 POP POP JUMP JUMPDEST PUSH0 PUSH20 0xFFFFFFFFFFFFFFFFFFFFFFFFFFFFFFFFFFFFFFFF DUP3 AND SWAP1 POP SWAP2 SWAP1 POP JUMP JUMPDEST PUSH0 PUSH2 0x89C DUP3 PUSH2 0x873 JUMP JUMPDEST SWAP1 POP SWAP2 SWAP1 POP JUMP JUMPDEST PUSH2 0x8AC DUP2 PUSH2 0x892 JUMP JUMPDEST DUP2 EQ PUSH2 0x8B6 JUMPI PUSH0 DUP1 REVERT JUMPDEST POP JUMP JUMPDEST PUSH0 DUP2 CALLDATALOAD SWAP1 POP PUSH2 0x8C7 DUP2 PUSH2 0x8A3 JUMP JUMPDEST SWAP3 SWAP2 POP POP JUMP JUMPDEST PUSH0 PUSH1 0x20 DUP3 DUP5 SUB SLT ISZERO PUSH2 0x8E2 JUMPI PUSH2 0x8E1 PUSH2 0x668 JUMP JUMPDEST JUMPDEST PUSH0 PUSH2 0x8EF DUP5 DUP3 DUP6 ADD PUSH2 0x8B9 JUMP JUMPDEST SWAP2 POP POP SWAP3 SWAP2 POP POP JUMP JUMPDEST PUSH0 DUP2 SWAP1 POP SWAP2 SWAP1 POP JUMP JUMPDEST PUSH2 0x90A DUP2 PUSH2 0x8F8 JUMP JUMPDEST DUP2 EQ PUSH2 0x914 JUMPI PUSH0 DUP1 REVERT JUMPDEST POP JUMP JUMPDEST PUSH0 DUP2 CALLDATALOAD SWAP1 POP PUSH2 0x925 DUP2 PUSH2 0x901 JUMP JUMPDEST SWAP3 SWAP2 POP POP JUMP JUMPDEST PUSH0 PUSH1 0x20 DUP3 DUP5 SUB SLT ISZERO PUSH2 0x940 JUMPI PUSH2 0x93F PUSH2 0x668 JUMP JUMPDEST JUMPDEST PUSH0 PUSH2 0x94D DUP5 DUP3 DUP6 ADD PUSH2 0x917 JUMP JUMPDEST SWAP2 POP POP SWAP3 SWAP2 POP POP JUMP JUMPDEST PUSH0 DUP2 MLOAD SWAP1 POP SWAP2 SWAP1 POP JUMP JUMPDEST PUSH0 DUP3 DUP3 MSTORE PUSH1 0x20 DUP3 ADD SWAP1 POP SWAP3 SWAP2 POP POP JUMP JUMPDEST PUSH0 PUSH2 0x97A DUP3 PUSH2 0x956 JUMP JUMPDEST PUSH2 0x984 DUP2 DUP6 PUSH2 0x960 JUMP JUMPDEST SWAP4 POP PUSH2 0x994 DUP2 DUP6 PUSH1 0x20 DUP7 ADD PUSH2 0x80D JUMP JUMPDEST PUSH2 0x99D DUP2 PUSH2 0x678 JUMP JUMPDEST DUP5 ADD SWAP2 POP POP SWAP3 SWAP2 POP POP JUMP JUMPDEST PUSH0 PUSH1 0x20 DUP3 ADD SWAP1 POP DUP2 DUP2 SUB PUSH0 DUP4 ADD MSTORE PUSH2 0x9C0 DUP2 DUP5 PUSH2 0x970 JUMP JUMPDEST SWAP1 POP SWAP3 SWAP2 POP POP JUMP JUMPDEST PUSH2 0x9D1 DUP2 PUSH2 0x892 JUMP JUMPDEST DUP3 MSTORE POP POP JUMP JUMPDEST PUSH0 PUSH1 0x40 DUP3 ADD SWAP1 POP DUP2 DUP2 SUB PUSH0 DUP4 ADD MSTORE PUSH2 0x9EF DUP2 DUP6 PUSH2 0x81B JUMP JUMPDEST SWAP1 POP PUSH2 0x9FE PUSH1 0x20 DUP4 ADD DUP5 PUSH2 0x9C8 JUMP JUMPDEST SWAP4 SWAP3 POP POP POP JUMP JUMPDEST PUSH0 PUSH1 0x20 DUP3 ADD SWAP1 POP PUSH2 0xA18 PUSH0 DUP4 ADD DUP5 PUSH2 0x9C8 JUMP JUMPDEST SWAP3 SWAP2 POP POP JUMP JUMPDEST PUSH0 DUP2 ISZERO ISZERO SWAP1 POP SWAP2 SWAP1 POP JUMP JUMPDEST PUSH2 0xA32 DUP2 PUSH2 0xA1E JUMP JUMPDEST DUP3 MSTORE POP POP JUMP JUMPDEST PUSH0 PUSH1 0x20 DUP3 ADD SWAP1 POP PUSH2 0xA4B PUSH0 DUP4 ADD DUP5 PUSH2 0xA29 JUMP JUMPDEST SWAP3 SWAP2 POP POP JUMP JUMPDEST PUSH0 PUSH8 0xFFFFFFFFFFFFFFFF DUP3 GT ISZERO PUSH2 0xA6B JUMPI PUSH2 0xA6A PUSH2 0x688 JUMP JUMPDEST JUMPDEST PUSH2 0xA74 DUP3 PUSH2 0x678 JUMP JUMPDEST SWAP1 POP PUSH1 0x20 DUP2 ADD SWAP1 POP SWAP2 SWAP1 POP JUMP JUMPDEST PUSH0 PUSH2 0xA93 PUSH2 0xA8E DUP5 PUSH2 0xA51 JUMP JUMPDEST PUSH2 0x6E6 JUMP JUMPDEST SWAP1 POP DUP3 DUP2 MSTORE PUSH1 0x20 DUP2 ADD DUP5 DUP5 DUP5 ADD GT ISZERO PUSH2 0xAAF JUMPI PUSH2 0xAAE PUSH2 0x674 JUMP JUMPDEST JUMPDEST PUSH2 0xABA DUP5 DUP3 DUP6 PUSH2 0x80D JUMP JUMPDEST POP SWAP4 SWAP3 POP POP POP JUMP JUMPDEST PUSH0 DUP3 PUSH1 0x1F DUP4 ADD SLT PUSH2 0xAD6 JUMPI PUSH2 0xAD5 PUSH2 0x670 JUMP JUMPDEST JUMPDEST DUP2 MLOAD PUSH2 0xAE6 DUP5 DUP3 PUSH1 0x20 DUP7 ADD PUSH2 0xA81 JUMP JUMPDEST SWAP2 POP POP SWAP3 SWAP2 POP POP JUMP JUMPDEST PUSH0 PUSH1 0x20 DUP3 DUP5 SUB SLT ISZERO PUSH2 0xB04 JUMPI PUSH2 0xB03 PUSH2 0x668 JUMP JUMPDEST JUMPDEST PUSH0 DUP3 ADD MLOAD PUSH8 0xFFFFFFFFFFFFFFFF DUP2 GT ISZERO PUSH2 0xB21 JUMPI PUSH2 0xB20 PUSH2 0x66C JUMP JUMPDEST JUMPDEST PUSH2 0xB2D DUP5 DUP3 DUP6 ADD PUSH2 0xAC2 JUMP JUMPDEST SWAP2 POP POP SWAP3 SWAP2 POP POP JUMP JUMPDEST PUSH32 0x4E487B7100000000000000000000000000000000000000000000000000000000 PUSH0 MSTORE PUSH1 0x22 PUSH1 0x4 MSTORE PUSH1 0x24 PUSH0 REVERT JUMPDEST PUSH0 PUSH1 0x2 DUP3 DIV SWAP1 POP PUSH1 0x1 DUP3 AND DUP1 PUSH2 0xB7A JUMPI PUSH1 0x7F DUP3 AND SWAP2 POP JUMPDEST PUSH1 0x20 DUP3 LT DUP2 SUB PUSH2 0xB8D JUMPI PUSH2 0xB8C PUSH2 0xB36 JUMP JUMPDEST JUMPDEST POP SWAP2 SWAP1 POP JUMP JUMPDEST PUSH0 PUSH2 0xB9D DUP3 PUSH2 0x873 JUMP JUMPDEST SWAP1 POP SWAP2 SWAP1 POP JUMP JUMPDEST PUSH2 0xBAD DUP2 PUSH2 0xB93 JUMP JUMPDEST DUP2 EQ PUSH2 0xBB7 JUMPI PUSH0 DUP1 REVERT JUMPDEST POP JUMP JUMPDEST PUSH0 DUP2 MLOAD SWAP1 POP PUSH2 0xBC8 DUP2 PUSH2 0xBA4 JUMP JUMPDEST SWAP3 SWAP2 POP POP JUMP JUMPDEST PUSH0 DUP1 PUSH1 0x40 DUP4 DUP6 SUB SLT ISZERO PUSH2 0xBE4 JUMPI PUSH2 0xBE3 PUSH2 0x668 JUMP JUMPDEST JUMPDEST PUSH0 DUP4 ADD MLOAD PUSH8 0xFFFFFFFFFFFFFFFF DUP2 GT ISZERO PUSH2 0xC01 JUMPI PUSH2 0xC00 PUSH2 0x66C JUMP JUMPDEST JUMPDEST PUSH2 0xC0D DUP6 DUP3 DUP7 ADD PUSH2 0xAC2 JUMP JUMPDEST SWAP3 POP POP PUSH1 0x20 PUSH2 0xC1E DUP6 DUP3 DUP7 ADD PUSH2 0xBBA JUMP JUMPDEST SWAP2 POP POP SWAP3 POP SWAP3 SWAP1 POP JUMP JUMPDEST PUSH32 0x4E6F7420696E20666163746F7269657321000000000000000000000000000000 PUSH0 DUP3 ADD MSTORE POP JUMP JUMPDEST PUSH0 PUSH2 0xC5C PUSH1 0x11 DUP4 PUSH2 0x7FD JUMP JUMPDEST SWAP2 POP PUSH2 0xC67 DUP3 PUSH2 0xC28 JUMP JUMPDEST PUSH1 0x20 DUP3 ADD SWAP1 POP SWAP2 SWAP1 POP JUMP JUMPDEST PUSH0 PUSH1 0x20 DUP3 ADD SWAP1 POP DUP2 DUP2 SUB PUSH0 DUP4 ADD MSTORE PUSH2 0xC89 DUP2 PUSH2 0xC50 JUMP JUMPDEST SWAP1 POP SWAP2 SWAP1 POP JUMP JUMPDEST PUSH0 DUP2 SWAP1 POP DUP2 PUSH0 MSTORE PUSH1 0x20 PUSH0 KECCAK256 SWAP1 POP SWAP2 SWAP1 POP JUMP JUMPDEST PUSH0 PUSH1 0x20 PUSH1 0x1F DUP4 ADD DIV SWAP1 POP SWAP2 SWAP1 POP JUMP JUMPDEST PUSH0 DUP3 DUP3 SHL SWAP1 POP SWAP3 SWAP2 POP POP JUMP JUMPDEST PUSH0 PUSH1 0x8 DUP4 MUL PUSH2 0xCEC PUSH32 0xFFFFFFFFFFFFFFFFFFFFFFFFFFFFFFFFFFFFFFFFFFFFFFFFFFFFFFFFFFFFFFFF DUP3 PUSH2 0xCB1 JUMP JUMPDEST PUSH2 0xCF6 DUP7 DUP4 PUSH2 0xCB1 JUMP JUMPDEST SWAP6 POP DUP1 NOT DUP5 AND SWAP4 POP DUP1 DUP7 AND DUP5 OR SWAP3 POP POP POP SWAP4 SWAP3 POP POP POP JUMP JUMPDEST PUSH0 DUP2 SWAP1 POP SWAP2 SWAP1 POP JUMP JUMPDEST PUSH0 PUSH2 0xD31 PUSH2 0xD2C PUSH2 0xD27 DUP5 PUSH2 0x8F8 JUMP JUMPDEST PUSH2 0xD0E JUMP JUMPDEST PUSH2 0x8F8 JUMP JUMPDEST SWAP1 POP SWAP2 SWAP1 POP JUMP JUMPDEST PUSH0 DUP2 SWAP1 POP SWAP2 SWAP1 POP JUMP JUMPDEST PUSH2 0xD4A DUP4 PUSH2 0xD17 JUMP JUMPDEST PUSH2 0xD5E PUSH2 0xD56 DUP3 PUSH2 0xD38 JUMP JUMPDEST DUP5 DUP5 SLOAD PUSH2 0xCBD JUMP JUMPDEST DUP3 SSTORE POP POP POP POP JUMP JUMPDEST PUSH0 SWAP1 JUMP JUMPDEST PUSH2 0xD72 PUSH2 0xD66 JUMP JUMPDEST PUSH2 0xD7D DUP2 DUP5 DUP5 PUSH2 0xD41 JUMP JUMPDEST POP POP POP JUMP JUMPDEST JUMPDEST DUP2 DUP2 LT ISZERO PUSH2 0xDA0 JUMPI PUSH2 0xD95 PUSH0 DUP3 PUSH2 0xD6A JUMP JUMPDEST PUSH1 0x1 DUP2 ADD SWAP1 POP PUSH2 0xD83 JUMP JUMPDEST POP POP JUMP JUMPDEST PUSH1 0x1F DUP3 GT ISZERO PUSH2 0xDE5 JUMPI PUSH2 0xDB6 DUP2 PUSH2 0xC90 JUMP JUMPDEST PUSH2 0xDBF DUP5 PUSH2 0xCA2 JUMP JUMPDEST DUP2 ADD PUSH1 0x20 DUP6 LT ISZERO PUSH2 0xDCE JUMPI DUP2 SWAP1 POP JUMPDEST PUSH2 0xDE2 PUSH2 0xDDA DUP6 PUSH2 0xCA2 JUMP JUMPDEST DUP4 ADD DUP3 PUSH2 0xD82 JUMP JUMPDEST POP POP JUMPDEST POP POP POP JUMP JUMPDEST PUSH0 DUP3 DUP3 SHR SWAP1 POP SWAP3 SWAP2 POP POP JUMP JUMPDEST PUSH0 PUSH2 0xE05 PUSH0 NOT DUP5 PUSH1 0x8 MUL PUSH2 0xDEA JUMP JUMPDEST NOT DUP1 DUP4 AND SWAP2 POP POP SWAP3 SWAP2 POP POP JUMP JUMPDEST PUSH0 PUSH2 0xE1D DUP4 DUP4 PUSH2 0xDF6 JUMP JUMPDEST SWAP2 POP DUP3 PUSH1 0x2 MUL DUP3 OR SWAP1 POP SWAP3 SWAP2 POP POP JUMP JUMPDEST PUSH2 0xE36 DUP3 PUSH2 0x956 JUMP JUMPDEST PUSH8 0xFFFFFFFFFFFFFFFF DUP2 GT ISZERO PUSH2 0xE4F JUMPI PUSH2 0xE4E PUSH2 0x688 JUMP JUMPDEST JUMPDEST PUSH2 0xE59 DUP3 SLOAD PUSH2 0xB63 JUMP JUMPDEST PUSH2 0xE64 DUP3 DUP3 DUP6 PUSH2 0xDA4 JUMP JUMPDEST PUSH0 PUSH1 0x20 SWAP1 POP PUSH1 0x1F DUP4 GT PUSH1 0x1 DUP2 EQ PUSH2 0xE95 JUMPI PUSH0 DUP5 ISZERO PUSH2 0xE83 JUMPI DUP3 DUP8 ADD MLOAD SWAP1 POP JUMPDEST PUSH2 0xE8D DUP6 DUP3 PUSH2 0xE12 JUMP JUMPDEST DUP7 SSTORE POP PUSH2 0xEF4 JUMP JUMPDEST PUSH1 0x1F NOT DUP5 AND PUSH2 0xEA3 DUP7 PUSH2 0xC90 JUMP JUMPDEST PUSH0 JUMPDEST DUP3 DUP2 LT ISZERO PUSH2 0xECA JUMPI DUP5 DUP10 ADD MLOAD DUP3 SSTORE PUSH1 0x1 DUP3 ADD SWAP2 POP PUSH1 0x20 DUP6 ADD SWAP5 POP PUSH1 0x20 DUP2 ADD SWAP1 POP PUSH2 0xEA5 JUMP JUMPDEST DUP7 DUP4 LT ISZERO PUSH2 0xEE7 JUMPI DUP5 DUP10 ADD MLOAD PUSH2 0xEE3 PUSH1 0x1F DUP10 AND DUP3 PUSH2 0xDF6 JUMP JUMPDEST DUP4 SSTORE POP JUMPDEST PUSH1 0x1 PUSH1 0x2 DUP9 MUL ADD DUP9 SSTORE POP POP POP JUMPDEST POP POP POP POP POP POP JUMP JUMPDEST PUSH0 PUSH1 0x20 DUP3 DUP5 SUB SLT ISZERO PUSH2 0xF11 JUMPI PUSH2 0xF10 PUSH2 0x668 JUMP JUMPDEST JUMPDEST PUSH0 PUSH2 0xF1E DUP5 DUP3 DUP6 ADD PUSH2 0xBBA JUMP JUMPDEST SWAP2 POP POP SWAP3 SWAP2 POP POP JUMP INVALID LOG2 PUSH5 0x6970667358 0x22 SLT KECCAK256 0xC GASPRICE 0xCD 0xA5 PUSH24 0x2BA5BB6FDFC429EB46044979B591DC98D5FBF2922955C1BD CALLDATACOPY CREATE 0xA7 PUSH5 0x736F6C6343 STOP ADDMOD BYTE STOP CALLER "
		},
		"gasEstimates": {
			"creation": {
				"codeDepositCost": "786600",
				"executionCost": "infinite",
				"totalCost": "infinite"
			},
			"external": {
				"addFactory(address)": "infinite",
				"addRecord(bytes)": "infinite",
				"decodeAddrRecord(bytes)": "infinite",
				"decodeEnsRecord(bytes)": "infinite",
				"decodeStringRecord(bytes)": "infinite",
				"factories(address)": "2921",
				"owner()": "2515",
				"records(uint256)": "infinite",
				"renounceOwnership()": "infinite",
				"transferOwnership(address)": "infinite"
			}
		},
		"methodIdentifiers": {
			"addFactory(address)": "29ce1ec5",
			"addRecord(bytes)": "b323bbd7",
			"decodeAddrRecord(bytes)": "f096506b",
			"decodeEnsRecord(bytes)": "5a94ae90",
			"decodeStringRecord(bytes)": "1f4c13c1",
			"factories(address)": "fab52689",
			"owner()": "8da5cb5b",
			"records(uint256)": "34461067",
			"renounceOwnership()": "715018a6",
			"transferOwnership(address)": "f2fde38b"
		}
	},
	"abi": [
		{
			"inputs": [
				{
					"internalType": "address",
					"name": "owner",
					"type": "address"
				}
			],
			"name": "OwnableInvalidOwner",
			"type": "error"
		},
		{
			"inputs": [
				{
					"internalType": "address",
					"name": "account",
					"type": "address"
				}
			],
			"name": "OwnableUnauthorizedAccount",
			"type": "error"
		},
		{
			"anonymous": false,
			"inputs": [
				{
					"indexed": true,
					"internalType": "address",
					"name": "previousOwner",
					"type": "address"
				},
				{
					"indexed": true,
					"internalType": "address",
					"name": "newOwner",
					"type": "address"
				}
			],
			"name": "OwnershipTransferred",
			"type": "event"
		},
		{
			"inputs": [
				{
					"internalType": "address",
					"name": "_addrFactory",
					"type": "address"
				}
			],
			"name": "addFactory",
			"outputs": [],
			"stateMutability": "nonpayable",
			"type": "function"
		},
		{
			"inputs": [
				{
					"internalType": "bytes",
					"name": "_encodeRecord",
					"type": "bytes"
				}
			],
			"name": "addRecord",
			"outputs": [],
			"stateMutability": "nonpayable",
			"type": "function"
		},
		{
			"inputs": [
				{
					"internalType": "bytes",
					"name": "data",
					"type": "bytes"
				}
			],
			"name": "decodeAddrRecord",
			"outputs": [
				{
					"internalType": "address",
					"name": "_record",
					"type": "address"
				}
			],
			"stateMutability": "nonpayable",
			"type": "function"
		},
		{
			"inputs": [
				{
					"internalType": "bytes",
					"name": "data",
					"type": "bytes"
				}
			],
			"name": "decodeEnsRecord",
			"outputs": [
				{
					"internalType": "string",
					"name": "_domain",
					"type": "string"
				},
				{
					"internalType": "address",
					"name": "_owner",
					"type": "address"
				}
			],
			"stateMutability": "nonpayable",
			"type": "function"
		},
		{
			"inputs": [
				{
					"internalType": "bytes",
					"name": "data",
					"type": "bytes"
				}
			],
			"name": "decodeStringRecord",
			"outputs": [
				{
					"internalType": "string",
					"name": "_record",
					"type": "string"
				}
			],
			"stateMutability": "nonpayable",
			"type": "function"
		},
		{
			"inputs": [
				{
					"internalType": "address",
					"name": "",
					"type": "address"
				}
			],
			"name": "factories",
			"outputs": [
				{
					"internalType": "bool",
					"name": "",
					"type": "bool"
				}
			],
			"stateMutability": "view",
			"type": "function"
		},
		{
			"inputs": [],
			"name": "owner",
			"outputs": [
				{
					"internalType": "address",
					"name": "",
					"type": "address"
				}
			],
			"stateMutability": "view",
			"type": "function"
		},
		{
			"inputs": [
				{
					"internalType": "uint256",
					"name": "",
					"type": "uint256"
				}
			],
			"name": "records",
			"outputs": [
				{
					"internalType": "bytes",
					"name": "",
					"type": "bytes"
				}
			],
			"stateMutability": "view",
			"type": "function"
		},
		{
			"inputs": [],
			"name": "renounceOwnership",
			"outputs": [],
			"stateMutability": "nonpayable",
			"type": "function"
		},
		{
			"inputs": [
				{
					"internalType": "address",
					"name": "newOwner",
					"type": "address"
				}
			],
			"name": "transferOwnership",
			"outputs": [],
			"stateMutability": "nonpayable",
			"type": "function"
		}
	]
}