{
	"data": {
		"bytecode": {
			"linkReferences": {},
			"object": "608060405234801561000f575f80fd5b506040516111d83803806111d8833981810160405281019061003191906100d6565b80805f806101000a81548173ffffffffffffffffffffffffffffffffffffffff021916908373ffffffffffffffffffffffffffffffffffffffff1602179055505050610101565b5f80fd5b5f73ffffffffffffffffffffffffffffffffffffffff82169050919050565b5f6100a58261007c565b9050919050565b6100b58161009b565b81146100bf575f80fd5b50565b5f815190506100d0816100ac565b92915050565b5f602082840312156100eb576100ea610078565b5b5f6100f8848285016100c2565b91505092915050565b6110ca8061010e5f395ff3fe608060405234801561000f575f80fd5b5060043610610029575f3560e01c8063d81aa8c41461002d575b5f80fd5b6100476004803603810190610042919061035d565b610049565b005b5f8160405161005790610203565b6100619190610404565b604051809103905ff08015801561007a573d5f803e3d5ffd5b5090506100c55f8054906101000a900473ffffffffffffffffffffffffffffffffffffffff16836040516020016100b19190610404565b6040516020818303038152906040526100c9565b5050565b5f8273ffffffffffffffffffffffffffffffffffffffff16826040516024016100f29190610476565b6040516020818303038152906040527fb323bbd7000000000000000000000000000000000000000000000000000000007bffffffffffffffffffffffffffffffffffffffffffffffffffffffff19166020820180517bffffffffffffffffffffffffffffffffffffffffffffffffffffffff838183161783525050505060405161017c91906104d0565b5f604051808303815f865af19150503d805f81146101b5576040519150601f19603f3d011682016040523d82523d5f602084013e6101ba565b606091505b50509050806101fe576040517f08c379a00000000000000000000000000000000000000000000000000000000081526004016101f590610530565b60405180910390fd5b505050565b610b468061054f83390190565b5f604051905090565b5f80fd5b5f80fd5b5f80fd5b5f80fd5b5f601f19601f8301169050919050565b7f4e487b71000000000000000000000000000000000000000000000000000000005f52604160045260245ffd5b61026f82610229565b810181811067ffffffffffffffff8211171561028e5761028d610239565b5b80604052505050565b5f6102a0610210565b90506102ac8282610266565b919050565b5f67ffffffffffffffff8211156102cb576102ca610239565b5b6102d482610229565b9050602081019050919050565b828183375f83830152505050565b5f6103016102fc846102b1565b610297565b90508281526020810184848401111561031d5761031c610225565b5b6103288482856102e1565b509392505050565b5f82601f83011261034457610343610221565b5b81356103548482602086016102ef565b91505092915050565b5f6020828403121561037257610371610219565b5b5f82013567ffffffffffffffff81111561038f5761038e61021d565b5b61039b84828501610330565b91505092915050565b5f81519050919050565b5f82825260208201905092915050565b8281835e5f83830152505050565b5f6103d6826103a4565b6103e081856103ae565b93506103f08185602086016103be565b6103f981610229565b840191505092915050565b5f6020820190508181035f83015261041c81846103cc565b905092915050565b5f81519050919050565b5f82825260208201905092915050565b5f61044882610424565b610452818561042e565b93506104628185602086016103be565b61046b81610229565b840191505092915050565b5f6020820190508181035f83015261048e818461043e565b905092915050565b5f81905092915050565b5f6104aa82610424565b6104b48185610496565b93506104c48185602086016103be565b80840191505092915050565b5f6104db82846104a0565b915081905092915050565b7f6661696c656400000000000000000000000000000000000000000000000000005f82015250565b5f61051a6006836103ae565b9150610525826104e6565b602082019050919050565b5f6020820190508181035f8301526105478161050e565b905091905056fe60a060405234801561000f575f80fd5b50604051610b46380380610b468339818101604052810190610031919061019d565b42806080818152505050805f908161004991906103f1565b50506104c0565b5f604051905090565b5f80fd5b5f80fd5b5f80fd5b5f80fd5b5f601f19601f8301169050919050565b7f4e487b71000000000000000000000000000000000000000000000000000000005f52604160045260245ffd5b6100af82610069565b810181811067ffffffffffffffff821117156100ce576100cd610079565b5b80604052505050565b5f6100e0610050565b90506100ec82826100a6565b919050565b5f67ffffffffffffffff82111561010b5761010a610079565b5b61011482610069565b9050602081019050919050565b8281835e5f83830152505050565b5f61014161013c846100f1565b6100d7565b90508281526020810184848401111561015d5761015c610065565b5b610168848285610121565b509392505050565b5f82601f83011261018457610183610061565b5b815161019484826020860161012f565b91505092915050565b5f602082840312156101b2576101b1610059565b5b5f82015167ffffffffffffffff8111156101cf576101ce61005d565b5b6101db84828501610170565b91505092915050565b5f81519050919050565b7f4e487b71000000000000000000000000000000000000000000000000000000005f52602260045260245ffd5b5f600282049050600182168061023257607f821691505b602082108103610245576102446101ee565b5b50919050565b5f819050815f5260205f209050919050565b5f6020601f8301049050919050565b5f82821b905092915050565b5f600883026102a77fffffffffffffffffffffffffffffffffffffffffffffffffffffffffffffffff8261026c565b6102b1868361026c565b95508019841693508086168417925050509392505050565b5f819050919050565b5f819050919050565b5f6102f56102f06102eb846102c9565b6102d2565b6102c9565b9050919050565b5f819050919050565b61030e836102db565b61032261031a826102fc565b848454610278565b825550505050565b5f90565b61033661032a565b610341818484610305565b505050565b5b81811015610364576103595f8261032e565b600181019050610347565b5050565b601f8211156103a95761037a8161024b565b6103838461025d565b81016020851015610392578190505b6103a661039e8561025d565b830182610346565b50505b505050565b5f82821c905092915050565b5f6103c95f19846008026103ae565b1980831691505092915050565b5f6103e183836103ba565b9150826002028217905092915050565b6103fa826101e4565b67ffffffffffffffff81111561041357610412610079565b5b61041d825461021b565b610428828285610368565b5f60209050601f831160018114610459575f8415610447578287015190505b61045185826103d6565b8655506104b8565b601f1984166104678661024b565b5f5b8281101561048e57848901518255600182019150602085019450602081019050610469565b868310156104ab57848901516104a7601f8916826103ba565b8355505b6001600288020188555050505b505050505050565b60805161066e6104d85f395f610103015261066e5ff3fe608060405234801561000f575f80fd5b506004361061004a575f3560e01c80630781f5c91461004e5780631dcd69ec1461006c578063266cf1091461008a5780633e0a0099146100a8575b5f80fd5b6100566100c4565b6040516100639190610235565b60405180910390f35b610074610101565b604051610081919061026d565b60405180910390f35b610092610125565b60405161009f9190610235565b60405180910390f35b6100c260048036038101906100bd91906102ef565b6101b0565b005b60606040518060400160405280600681526020017f737472696e670000000000000000000000000000000000000000000000000000815250905090565b7f000000000000000000000000000000000000000000000000000000000000000081565b5f805461013190610367565b80601f016020809104026020016040519081016040528092919081815260200182805461015d90610367565b80156101a85780601f1061017f576101008083540402835291602001916101a8565b820191905f5260205f20905b81548152906001019060200180831161018b57829003601f168201915b505050505081565b81815f91826101c092919061056b565b505050565b5f81519050919050565b5f82825260208201905092915050565b8281835e5f83830152505050565b5f601f19601f8301169050919050565b5f610207826101c5565b61021181856101cf565b93506102218185602086016101df565b61022a816101ed565b840191505092915050565b5f6020820190508181035f83015261024d81846101fd565b905092915050565b5f819050919050565b61026781610255565b82525050565b5f6020820190506102805f83018461025e565b92915050565b5f80fd5b5f80fd5b5f80fd5b5f80fd5b5f80fd5b5f8083601f8401126102af576102ae61028e565b5b8235905067ffffffffffffffff8111156102cc576102cb610292565b5b6020830191508360018202830111156102e8576102e7610296565b5b9250929050565b5f806020838503121561030557610304610286565b5b5f83013567ffffffffffffffff8111156103225761032161028a565b5b61032e8582860161029a565b92509250509250929050565b7f4e487b71000000000000000000000000000000000000000000000000000000005f52602260045260245ffd5b5f600282049050600182168061037e57607f821691505b6020821081036103915761039061033a565b5b50919050565b5f82905092915050565b7f4e487b71000000000000000000000000000000000000000000000000000000005f52604160045260245ffd5b5f819050815f5260205f209050919050565b5f6020601f8301049050919050565b5f82821b905092915050565b5f6008830261042a7fffffffffffffffffffffffffffffffffffffffffffffffffffffffffffffffff826103ef565b61043486836103ef565b95508019841693508086168417925050509392505050565b5f819050919050565b5f61046f61046a61046584610255565b61044c565b610255565b9050919050565b5f819050919050565b61048883610455565b61049c61049482610476565b8484546103fb565b825550505050565b5f90565b6104b06104a4565b6104bb81848461047f565b505050565b5b818110156104de576104d35f826104a8565b6001810190506104c1565b5050565b601f821115610523576104f4816103ce565b6104fd846103e0565b8101602085101561050c578190505b610520610518856103e0565b8301826104c0565b50505b505050565b5f82821c905092915050565b5f6105435f1984600802610528565b1980831691505092915050565b5f61055b8383610534565b9150826002028217905092915050565b6105758383610397565b67ffffffffffffffff81111561058e5761058d6103a1565b5b6105988254610367565b6105a38282856104e2565b5f601f8311600181146105d0575f84156105be578287013590505b6105c88582610550565b86555061062f565b601f1984166105de866103ce565b5f5b82811015610605578489013582556001820191506020850194506020810190506105e0565b86831015610622578489013561061e601f891682610534565b8355505b6001600288020188555050505b5050505050505056fea2646970667358221220164faa7b8eada325d57353b955af537d535c136aed03f80d8b1452a6865fb26d64736f6c634300081a0033a26469706673582212200272d08574fdcf31cf1f6274a547d33017664999811e154405956a08cee48af564736f6c634300081a0033",
			"opcodes": "PUSH1 0x80 PUSH1 0x40 MSTORE CALLVALUE DUP1 ISZERO PUSH2 0xF JUMPI PUSH0 DUP1 REVERT JUMPDEST POP PUSH1 0x40 MLOAD PUSH2 0x11D8 CODESIZE SUB DUP1 PUSH2 0x11D8 DUP4 CODECOPY DUP2 DUP2 ADD PUSH1 0x40 MSTORE DUP2 ADD SWAP1 PUSH2 0x31 SWAP2 SWAP1 PUSH2 0xD6 JUMP JUMPDEST DUP1 DUP1 PUSH0 DUP1 PUSH2 0x100 EXP DUP2 SLOAD DUP2 PUSH20 0xFFFFFFFFFFFFFFFFFFFFFFFFFFFFFFFFFFFFFFFF MUL NOT AND SWAP1 DUP4 PUSH20 0xFFFFFFFFFFFFFFFFFFFFFFFFFFFFFFFFFFFFFFFF AND MUL OR SWAP1 SSTORE POP POP POP PUSH2 0x101 JUMP JUMPDEST PUSH0 DUP1 REVERT JUMPDEST PUSH0 PUSH20 0xFFFFFFFFFFFFFFFFFFFFFFFFFFFFFFFFFFFFFFFF DUP3 AND SWAP1 POP SWAP2 SWAP1 POP JUMP JUMPDEST PUSH0 PUSH2 0xA5 DUP3 PUSH2 0x7C JUMP JUMPDEST SWAP1 POP SWAP2 SWAP1 POP JUMP JUMPDEST PUSH2 0xB5 DUP2 PUSH2 0x9B JUMP JUMPDEST DUP2 EQ PUSH2 0xBF JUMPI PUSH0 DUP1 REVERT JUMPDEST POP JUMP JUMPDEST PUSH0 DUP2 MLOAD SWAP1 POP PUSH2 0xD0 DUP2 PUSH2 0xAC JUMP JUMPDEST SWAP3 SWAP2 POP POP JUMP JUMPDEST PUSH0 PUSH1 0x20 DUP3 DUP5 SUB SLT ISZERO PUSH2 0xEB JUMPI PUSH2 0xEA PUSH2 0x78 JUMP JUMPDEST JUMPDEST PUSH0 PUSH2 0xF8 DUP5 DUP3 DUP6 ADD PUSH2 0xC2 JUMP JUMPDEST SWAP2 POP POP SWAP3 SWAP2 POP POP JUMP JUMPDEST PUSH2 0x10CA DUP1 PUSH2 0x10E PUSH0 CODECOPY PUSH0 RETURN INVALID PUSH1 0x80 PUSH1 0x40 MSTORE CALLVALUE DUP1 ISZERO PUSH2 0xF JUMPI PUSH0 DUP1 REVERT JUMPDEST POP PUSH1 0x4 CALLDATASIZE LT PUSH2 0x29 JUMPI PUSH0 CALLDATALOAD PUSH1 0xE0 SHR DUP1 PUSH4 0xD81AA8C4 EQ PUSH2 0x2D JUMPI JUMPDEST PUSH0 DUP1 REVERT JUMPDEST PUSH2 0x47 PUSH1 0x4 DUP1 CALLDATASIZE SUB DUP2 ADD SWAP1 PUSH2 0x42 SWAP2 SWAP1 PUSH2 0x35D JUMP JUMPDEST PUSH2 0x49 JUMP JUMPDEST STOP JUMPDEST PUSH0 DUP2 PUSH1 0x40 MLOAD PUSH2 0x57 SWAP1 PUSH2 0x203 JUMP JUMPDEST PUSH2 0x61 SWAP2 SWAP1 PUSH2 0x404 JUMP JUMPDEST PUSH1 0x40 MLOAD DUP1 SWAP2 SUB SWAP1 PUSH0 CREATE DUP1 ISZERO DUP1 ISZERO PUSH2 0x7A JUMPI RETURNDATASIZE PUSH0 DUP1 RETURNDATACOPY RETURNDATASIZE PUSH0 REVERT JUMPDEST POP SWAP1 POP PUSH2 0xC5 PUSH0 DUP1 SLOAD SWAP1 PUSH2 0x100 EXP SWAP1 DIV PUSH20 0xFFFFFFFFFFFFFFFFFFFFFFFFFFFFFFFFFFFFFFFF AND DUP4 PUSH1 0x40 MLOAD PUSH1 0x20 ADD PUSH2 0xB1 SWAP2 SWAP1 PUSH2 0x404 JUMP JUMPDEST PUSH1 0x40 MLOAD PUSH1 0x20 DUP2 DUP4 SUB SUB DUP2 MSTORE SWAP1 PUSH1 0x40 MSTORE PUSH2 0xC9 JUMP JUMPDEST POP POP JUMP JUMPDEST PUSH0 DUP3 PUSH20 0xFFFFFFFFFFFFFFFFFFFFFFFFFFFFFFFFFFFFFFFF AND DUP3 PUSH1 0x40 MLOAD PUSH1 0x24 ADD PUSH2 0xF2 SWAP2 SWAP1 PUSH2 0x476 JUMP JUMPDEST PUSH1 0x40 MLOAD PUSH1 0x20 DUP2 DUP4 SUB SUB DUP2 MSTORE SWAP1 PUSH1 0x40 MSTORE PUSH32 0xB323BBD700000000000000000000000000000000000000000000000000000000 PUSH28 0xFFFFFFFFFFFFFFFFFFFFFFFFFFFFFFFFFFFFFFFFFFFFFFFFFFFFFFFF NOT AND PUSH1 0x20 DUP3 ADD DUP1 MLOAD PUSH28 0xFFFFFFFFFFFFFFFFFFFFFFFFFFFFFFFFFFFFFFFFFFFFFFFFFFFFFFFF DUP4 DUP2 DUP4 AND OR DUP4 MSTORE POP POP POP POP PUSH1 0x40 MLOAD PUSH2 0x17C SWAP2 SWAP1 PUSH2 0x4D0 JUMP JUMPDEST PUSH0 PUSH1 0x40 MLOAD DUP1 DUP4 SUB DUP2 PUSH0 DUP7 GAS CALL SWAP2 POP POP RETURNDATASIZE DUP1 PUSH0 DUP2 EQ PUSH2 0x1B5 JUMPI PUSH1 0x40 MLOAD SWAP2 POP PUSH1 0x1F NOT PUSH1 0x3F RETURNDATASIZE ADD AND DUP3 ADD PUSH1 0x40 MSTORE RETURNDATASIZE DUP3 MSTORE RETURNDATASIZE PUSH0 PUSH1 0x20 DUP5 ADD RETURNDATACOPY PUSH2 0x1BA JUMP JUMPDEST PUSH1 0x60 SWAP2 POP JUMPDEST POP POP SWAP1 POP DUP1 PUSH2 0x1FE JUMPI PUSH1 0x40 MLOAD PUSH32 0x8C379A000000000000000000000000000000000000000000000000000000000 DUP2 MSTORE PUSH1 0x4 ADD PUSH2 0x1F5 SWAP1 PUSH2 0x530 JUMP JUMPDEST PUSH1 0x40 MLOAD DUP1 SWAP2 SUB SWAP1 REVERT JUMPDEST POP POP POP JUMP JUMPDEST PUSH2 0xB46 DUP1 PUSH2 0x54F DUP4 CODECOPY ADD SWAP1 JUMP JUMPDEST PUSH0 PUSH1 0x40 MLOAD SWAP1 POP SWAP1 JUMP JUMPDEST PUSH0 DUP1 REVERT JUMPDEST PUSH0 DUP1 REVERT JUMPDEST PUSH0 DUP1 REVERT JUMPDEST PUSH0 DUP1 REVERT JUMPDEST PUSH0 PUSH1 0x1F NOT PUSH1 0x1F DUP4 ADD AND SWAP1 POP SWAP2 SWAP1 POP JUMP JUMPDEST PUSH32 0x4E487B7100000000000000000000000000000000000000000000000000000000 PUSH0 MSTORE PUSH1 0x41 PUSH1 0x4 MSTORE PUSH1 0x24 PUSH0 REVERT JUMPDEST PUSH2 0x26F DUP3 PUSH2 0x229 JUMP JUMPDEST DUP2 ADD DUP2 DUP2 LT PUSH8 0xFFFFFFFFFFFFFFFF DUP3 GT OR ISZERO PUSH2 0x28E JUMPI PUSH2 0x28D PUSH2 0x239 JUMP JUMPDEST JUMPDEST DUP1 PUSH1 0x40 MSTORE POP POP POP JUMP JUMPDEST PUSH0 PUSH2 0x2A0 PUSH2 0x210 JUMP JUMPDEST SWAP1 POP PUSH2 0x2AC DUP3 DUP3 PUSH2 0x266 JUMP JUMPDEST SWAP2 SWAP1 POP JUMP JUMPDEST PUSH0 PUSH8 0xFFFFFFFFFFFFFFFF DUP3 GT ISZERO PUSH2 0x2CB JUMPI PUSH2 0x2CA PUSH2 0x239 JUMP JUMPDEST JUMPDEST PUSH2 0x2D4 DUP3 PUSH2 0x229 JUMP JUMPDEST SWAP1 POP PUSH1 0x20 DUP2 ADD SWAP1 POP SWAP2 SWAP1 POP JUMP JUMPDEST DUP3 DUP2 DUP4 CALLDATACOPY PUSH0 DUP4 DUP4 ADD MSTORE POP POP POP JUMP JUMPDEST PUSH0 PUSH2 0x301 PUSH2 0x2FC DUP5 PUSH2 0x2B1 JUMP JUMPDEST PUSH2 0x297 JUMP JUMPDEST SWAP1 POP DUP3 DUP2 MSTORE PUSH1 0x20 DUP2 ADD DUP5 DUP5 DUP5 ADD GT ISZERO PUSH2 0x31D JUMPI PUSH2 0x31C PUSH2 0x225 JUMP JUMPDEST JUMPDEST PUSH2 0x328 DUP5 DUP3 DUP6 PUSH2 0x2E1 JUMP JUMPDEST POP SWAP4 SWAP3 POP POP POP JUMP JUMPDEST PUSH0 DUP3 PUSH1 0x1F DUP4 ADD SLT PUSH2 0x344 JUMPI PUSH2 0x343 PUSH2 0x221 JUMP JUMPDEST JUMPDEST DUP2 CALLDATALOAD PUSH2 0x354 DUP5 DUP3 PUSH1 0x20 DUP7 ADD PUSH2 0x2EF JUMP JUMPDEST SWAP2 POP POP SWAP3 SWAP2 POP POP JUMP JUMPDEST PUSH0 PUSH1 0x20 DUP3 DUP5 SUB SLT ISZERO PUSH2 0x372 JUMPI PUSH2 0x371 PUSH2 0x219 JUMP JUMPDEST JUMPDEST PUSH0 DUP3 ADD CALLDATALOAD PUSH8 0xFFFFFFFFFFFFFFFF DUP2 GT ISZERO PUSH2 0x38F JUMPI PUSH2 0x38E PUSH2 0x21D JUMP JUMPDEST JUMPDEST PUSH2 0x39B DUP5 DUP3 DUP6 ADD PUSH2 0x330 JUMP JUMPDEST SWAP2 POP POP SWAP3 SWAP2 POP POP JUMP JUMPDEST PUSH0 DUP2 MLOAD SWAP1 POP SWAP2 SWAP1 POP JUMP JUMPDEST PUSH0 DUP3 DUP3 MSTORE PUSH1 0x20 DUP3 ADD SWAP1 POP SWAP3 SWAP2 POP POP JUMP JUMPDEST DUP3 DUP2 DUP4 MCOPY PUSH0 DUP4 DUP4 ADD MSTORE POP POP POP JUMP JUMPDEST PUSH0 PUSH2 0x3D6 DUP3 PUSH2 0x3A4 JUMP JUMPDEST PUSH2 0x3E0 DUP2 DUP6 PUSH2 0x3AE JUMP JUMPDEST SWAP4 POP PUSH2 0x3F0 DUP2 DUP6 PUSH1 0x20 DUP7 ADD PUSH2 0x3BE JUMP JUMPDEST PUSH2 0x3F9 DUP2 PUSH2 0x229 JUMP JUMPDEST DUP5 ADD SWAP2 POP POP SWAP3 SWAP2 POP POP JUMP JUMPDEST PUSH0 PUSH1 0x20 DUP3 ADD SWAP1 POP DUP2 DUP2 SUB PUSH0 DUP4 ADD MSTORE PUSH2 0x41C DUP2 DUP5 PUSH2 0x3CC JUMP JUMPDEST SWAP1 POP SWAP3 SWAP2 POP POP JUMP JUMPDEST PUSH0 DUP2 MLOAD SWAP1 POP SWAP2 SWAP1 POP JUMP JUMPDEST PUSH0 DUP3 DUP3 MSTORE PUSH1 0x20 DUP3 ADD SWAP1 POP SWAP3 SWAP2 POP POP JUMP JUMPDEST PUSH0 PUSH2 0x448 DUP3 PUSH2 0x424 JUMP JUMPDEST PUSH2 0x452 DUP2 DUP6 PUSH2 0x42E JUMP JUMPDEST SWAP4 POP PUSH2 0x462 DUP2 DUP6 PUSH1 0x20 DUP7 ADD PUSH2 0x3BE JUMP JUMPDEST PUSH2 0x46B DUP2 PUSH2 0x229 JUMP JUMPDEST DUP5 ADD SWAP2 POP POP SWAP3 SWAP2 POP POP JUMP JUMPDEST PUSH0 PUSH1 0x20 DUP3 ADD SWAP1 POP DUP2 DUP2 SUB PUSH0 DUP4 ADD MSTORE PUSH2 0x48E DUP2 DUP5 PUSH2 0x43E JUMP JUMPDEST SWAP1 POP SWAP3 SWAP2 POP POP JUMP JUMPDEST PUSH0 DUP2 SWAP1 POP SWAP3 SWAP2 POP POP JUMP JUMPDEST PUSH0 PUSH2 0x4AA DUP3 PUSH2 0x424 JUMP JUMPDEST PUSH2 0x4B4 DUP2 DUP6 PUSH2 0x496 JUMP JUMPDEST SWAP4 POP PUSH2 0x4C4 DUP2 DUP6 PUSH1 0x20 DUP7 ADD PUSH2 0x3BE JUMP JUMPDEST DUP1 DUP5 ADD SWAP2 POP POP SWAP3 SWAP2 POP POP JUMP JUMPDEST PUSH0 PUSH2 0x4DB DUP3 DUP5 PUSH2 0x4A0 JUMP JUMPDEST SWAP2 POP DUP2 SWAP1 POP SWAP3 SWAP2 POP POP JUMP JUMPDEST PUSH32 0x6661696C65640000000000000000000000000000000000000000000000000000 PUSH0 DUP3 ADD MSTORE POP JUMP JUMPDEST PUSH0 PUSH2 0x51A PUSH1 0x6 DUP4 PUSH2 0x3AE JUMP JUMPDEST SWAP2 POP PUSH2 0x525 DUP3 PUSH2 0x4E6 JUMP JUMPDEST PUSH1 0x20 DUP3 ADD SWAP1 POP SWAP2 SWAP1 POP JUMP JUMPDEST PUSH0 PUSH1 0x20 DUP3 ADD SWAP1 POP DUP2 DUP2 SUB PUSH0 DUP4 ADD MSTORE PUSH2 0x547 DUP2 PUSH2 0x50E JUMP JUMPDEST SWAP1 POP SWAP2 SWAP1 POP JUMP INVALID PUSH1 0xA0 PUSH1 0x40 MSTORE CALLVALUE DUP1 ISZERO PUSH2 0xF JUMPI PUSH0 DUP1 REVERT JUMPDEST POP PUSH1 0x40 MLOAD PUSH2 0xB46 CODESIZE SUB DUP1 PUSH2 0xB46 DUP4 CODECOPY DUP2 DUP2 ADD PUSH1 0x40 MSTORE DUP2 ADD SWAP1 PUSH2 0x31 SWAP2 SWAP1 PUSH2 0x19D JUMP JUMPDEST TIMESTAMP DUP1 PUSH1 0x80 DUP2 DUP2 MSTORE POP POP POP DUP1 PUSH0 SWAP1 DUP2 PUSH2 0x49 SWAP2 SWAP1 PUSH2 0x3F1 JUMP JUMPDEST POP POP PUSH2 0x4C0 JUMP JUMPDEST PUSH0 PUSH1 0x40 MLOAD SWAP1 POP SWAP1 JUMP JUMPDEST PUSH0 DUP1 REVERT JUMPDEST PUSH0 DUP1 REVERT JUMPDEST PUSH0 DUP1 REVERT JUMPDEST PUSH0 DUP1 REVERT JUMPDEST PUSH0 PUSH1 0x1F NOT PUSH1 0x1F DUP4 ADD AND SWAP1 POP SWAP2 SWAP1 POP JUMP JUMPDEST PUSH32 0x4E487B7100000000000000000000000000000000000000000000000000000000 PUSH0 MSTORE PUSH1 0x41 PUSH1 0x4 MSTORE PUSH1 0x24 PUSH0 REVERT JUMPDEST PUSH2 0xAF DUP3 PUSH2 0x69 JUMP JUMPDEST DUP2 ADD DUP2 DUP2 LT PUSH8 0xFFFFFFFFFFFFFFFF DUP3 GT OR ISZERO PUSH2 0xCE JUMPI PUSH2 0xCD PUSH2 0x79 JUMP JUMPDEST JUMPDEST DUP1 PUSH1 0x40 MSTORE POP POP POP JUMP JUMPDEST PUSH0 PUSH2 0xE0 PUSH2 0x50 JUMP JUMPDEST SWAP1 POP PUSH2 0xEC DUP3 DUP3 PUSH2 0xA6 JUMP JUMPDEST SWAP2 SWAP1 POP JUMP JUMPDEST PUSH0 PUSH8 0xFFFFFFFFFFFFFFFF DUP3 GT ISZERO PUSH2 0x10B JUMPI PUSH2 0x10A PUSH2 0x79 JUMP JUMPDEST JUMPDEST PUSH2 0x114 DUP3 PUSH2 0x69 JUMP JUMPDEST SWAP1 POP PUSH1 0x20 DUP2 ADD SWAP1 POP SWAP2 SWAP1 POP JUMP JUMPDEST DUP3 DUP2 DUP4 MCOPY PUSH0 DUP4 DUP4 ADD MSTORE POP POP POP JUMP JUMPDEST PUSH0 PUSH2 0x141 PUSH2 0x13C DUP5 PUSH2 0xF1 JUMP JUMPDEST PUSH2 0xD7 JUMP JUMPDEST SWAP1 POP DUP3 DUP2 MSTORE PUSH1 0x20 DUP2 ADD DUP5 DUP5 DUP5 ADD GT ISZERO PUSH2 0x15D JUMPI PUSH2 0x15C PUSH2 0x65 JUMP JUMPDEST JUMPDEST PUSH2 0x168 DUP5 DUP3 DUP6 PUSH2 0x121 JUMP JUMPDEST POP SWAP4 SWAP3 POP POP POP JUMP JUMPDEST PUSH0 DUP3 PUSH1 0x1F DUP4 ADD SLT PUSH2 0x184 JUMPI PUSH2 0x183 PUSH2 0x61 JUMP JUMPDEST JUMPDEST DUP2 MLOAD PUSH2 0x194 DUP5 DUP3 PUSH1 0x20 DUP7 ADD PUSH2 0x12F JUMP JUMPDEST SWAP2 POP POP SWAP3 SWAP2 POP POP JUMP JUMPDEST PUSH0 PUSH1 0x20 DUP3 DUP5 SUB SLT ISZERO PUSH2 0x1B2 JUMPI PUSH2 0x1B1 PUSH2 0x59 JUMP JUMPDEST JUMPDEST PUSH0 DUP3 ADD MLOAD PUSH8 0xFFFFFFFFFFFFFFFF DUP2 GT ISZERO PUSH2 0x1CF JUMPI PUSH2 0x1CE PUSH2 0x5D JUMP JUMPDEST JUMPDEST PUSH2 0x1DB DUP5 DUP3 DUP6 ADD PUSH2 0x170 JUMP JUMPDEST SWAP2 POP POP SWAP3 SWAP2 POP POP JUMP JUMPDEST PUSH0 DUP2 MLOAD SWAP1 POP SWAP2 SWAP1 POP JUMP JUMPDEST PUSH32 0x4E487B7100000000000000000000000000000000000000000000000000000000 PUSH0 MSTORE PUSH1 0x22 PUSH1 0x4 MSTORE PUSH1 0x24 PUSH0 REVERT JUMPDEST PUSH0 PUSH1 0x2 DUP3 DIV SWAP1 POP PUSH1 0x1 DUP3 AND DUP1 PUSH2 0x232 JUMPI PUSH1 0x7F DUP3 AND SWAP2 POP JUMPDEST PUSH1 0x20 DUP3 LT DUP2 SUB PUSH2 0x245 JUMPI PUSH2 0x244 PUSH2 0x1EE JUMP JUMPDEST JUMPDEST POP SWAP2 SWAP1 POP JUMP JUMPDEST PUSH0 DUP2 SWAP1 POP DUP2 PUSH0 MSTORE PUSH1 0x20 PUSH0 KECCAK256 SWAP1 POP SWAP2 SWAP1 POP JUMP JUMPDEST PUSH0 PUSH1 0x20 PUSH1 0x1F DUP4 ADD DIV SWAP1 POP SWAP2 SWAP1 POP JUMP JUMPDEST PUSH0 DUP3 DUP3 SHL SWAP1 POP SWAP3 SWAP2 POP POP JUMP JUMPDEST PUSH0 PUSH1 0x8 DUP4 MUL PUSH2 0x2A7 PUSH32 0xFFFFFFFFFFFFFFFFFFFFFFFFFFFFFFFFFFFFFFFFFFFFFFFFFFFFFFFFFFFFFFFF DUP3 PUSH2 0x26C JUMP JUMPDEST PUSH2 0x2B1 DUP7 DUP4 PUSH2 0x26C JUMP JUMPDEST SWAP6 POP DUP1 NOT DUP5 AND SWAP4 POP DUP1 DUP7 AND DUP5 OR SWAP3 POP POP POP SWAP4 SWAP3 POP POP POP JUMP JUMPDEST PUSH0 DUP2 SWAP1 POP SWAP2 SWAP1 POP JUMP JUMPDEST PUSH0 DUP2 SWAP1 POP SWAP2 SWAP1 POP JUMP JUMPDEST PUSH0 PUSH2 0x2F5 PUSH2 0x2F0 PUSH2 0x2EB DUP5 PUSH2 0x2C9 JUMP JUMPDEST PUSH2 0x2D2 JUMP JUMPDEST PUSH2 0x2C9 JUMP JUMPDEST SWAP1 POP SWAP2 SWAP1 POP JUMP JUMPDEST PUSH0 DUP2 SWAP1 POP SWAP2 SWAP1 POP JUMP JUMPDEST PUSH2 0x30E DUP4 PUSH2 0x2DB JUMP JUMPDEST PUSH2 0x322 PUSH2 0x31A DUP3 PUSH2 0x2FC JUMP JUMPDEST DUP5 DUP5 SLOAD PUSH2 0x278 JUMP JUMPDEST DUP3 SSTORE POP POP POP POP JUMP JUMPDEST PUSH0 SWAP1 JUMP JUMPDEST PUSH2 0x336 PUSH2 0x32A JUMP JUMPDEST PUSH2 0x341 DUP2 DUP5 DUP5 PUSH2 0x305 JUMP JUMPDEST POP POP POP JUMP JUMPDEST JUMPDEST DUP2 DUP2 LT ISZERO PUSH2 0x364 JUMPI PUSH2 0x359 PUSH0 DUP3 PUSH2 0x32E JUMP JUMPDEST PUSH1 0x1 DUP2 ADD SWAP1 POP PUSH2 0x347 JUMP JUMPDEST POP POP JUMP JUMPDEST PUSH1 0x1F DUP3 GT ISZERO PUSH2 0x3A9 JUMPI PUSH2 0x37A DUP2 PUSH2 0x24B JUMP JUMPDEST PUSH2 0x383 DUP5 PUSH2 0x25D JUMP JUMPDEST DUP2 ADD PUSH1 0x20 DUP6 LT ISZERO PUSH2 0x392 JUMPI DUP2 SWAP1 POP JUMPDEST PUSH2 0x3A6 PUSH2 0x39E DUP6 PUSH2 0x25D JUMP JUMPDEST DUP4 ADD DUP3 PUSH2 0x346 JUMP JUMPDEST POP POP JUMPDEST POP POP POP JUMP JUMPDEST PUSH0 DUP3 DUP3 SHR SWAP1 POP SWAP3 SWAP2 POP POP JUMP JUMPDEST PUSH0 PUSH2 0x3C9 PUSH0 NOT DUP5 PUSH1 0x8 MUL PUSH2 0x3AE JUMP JUMPDEST NOT DUP1 DUP4 AND SWAP2 POP POP SWAP3 SWAP2 POP POP JUMP JUMPDEST PUSH0 PUSH2 0x3E1 DUP4 DUP4 PUSH2 0x3BA JUMP JUMPDEST SWAP2 POP DUP3 PUSH1 0x2 MUL DUP3 OR SWAP1 POP SWAP3 SWAP2 POP POP JUMP JUMPDEST PUSH2 0x3FA DUP3 PUSH2 0x1E4 JUMP JUMPDEST PUSH8 0xFFFFFFFFFFFFFFFF DUP2 GT ISZERO PUSH2 0x413 JUMPI PUSH2 0x412 PUSH2 0x79 JUMP JUMPDEST JUMPDEST PUSH2 0x41D DUP3 SLOAD PUSH2 0x21B JUMP JUMPDEST PUSH2 0x428 DUP3 DUP3 DUP6 PUSH2 0x368 JUMP JUMPDEST PUSH0 PUSH1 0x20 SWAP1 POP PUSH1 0x1F DUP4 GT PUSH1 0x1 DUP2 EQ PUSH2 0x459 JUMPI PUSH0 DUP5 ISZERO PUSH2 0x447 JUMPI DUP3 DUP8 ADD MLOAD SWAP1 POP JUMPDEST PUSH2 0x451 DUP6 DUP3 PUSH2 0x3D6 JUMP JUMPDEST DUP7 SSTORE POP PUSH2 0x4B8 JUMP JUMPDEST PUSH1 0x1F NOT DUP5 AND PUSH2 0x467 DUP7 PUSH2 0x24B JUMP JUMPDEST PUSH0 JUMPDEST DUP3 DUP2 LT ISZERO PUSH2 0x48E JUMPI DUP5 DUP10 ADD MLOAD DUP3 SSTORE PUSH1 0x1 DUP3 ADD SWAP2 POP PUSH1 0x20 DUP6 ADD SWAP5 POP PUSH1 0x20 DUP2 ADD SWAP1 POP PUSH2 0x469 JUMP JUMPDEST DUP7 DUP4 LT ISZERO PUSH2 0x4AB JUMPI DUP5 DUP10 ADD MLOAD PUSH2 0x4A7 PUSH1 0x1F DUP10 AND DUP3 PUSH2 0x3BA JUMP JUMPDEST DUP4 SSTORE POP JUMPDEST PUSH1 0x1 PUSH1 0x2 DUP9 MUL ADD DUP9 SSTORE POP POP POP JUMPDEST POP POP POP POP POP POP JUMP JUMPDEST PUSH1 0x80 MLOAD PUSH2 0x66E PUSH2 0x4D8 PUSH0 CODECOPY PUSH0 PUSH2 0x103 ADD MSTORE PUSH2 0x66E PUSH0 RETURN INVALID PUSH1 0x80 PUSH1 0x40 MSTORE CALLVALUE DUP1 ISZERO PUSH2 0xF JUMPI PUSH0 DUP1 REVERT JUMPDEST POP PUSH1 0x4 CALLDATASIZE LT PUSH2 0x4A JUMPI PUSH0 CALLDATALOAD PUSH1 0xE0 SHR DUP1 PUSH4 0x781F5C9 EQ PUSH2 0x4E JUMPI DUP1 PUSH4 0x1DCD69EC EQ PUSH2 0x6C JUMPI DUP1 PUSH4 0x266CF109 EQ PUSH2 0x8A JUMPI DUP1 PUSH4 0x3E0A0099 EQ PUSH2 0xA8 JUMPI JUMPDEST PUSH0 DUP1 REVERT JUMPDEST PUSH2 0x56 PUSH2 0xC4 JUMP JUMPDEST PUSH1 0x40 MLOAD PUSH2 0x63 SWAP2 SWAP1 PUSH2 0x235 JUMP JUMPDEST PUSH1 0x40 MLOAD DUP1 SWAP2 SUB SWAP1 RETURN JUMPDEST PUSH2 0x74 PUSH2 0x101 JUMP JUMPDEST PUSH1 0x40 MLOAD PUSH2 0x81 SWAP2 SWAP1 PUSH2 0x26D JUMP JUMPDEST PUSH1 0x40 MLOAD DUP1 SWAP2 SUB SWAP1 RETURN JUMPDEST PUSH2 0x92 PUSH2 0x125 JUMP JUMPDEST PUSH1 0x40 MLOAD PUSH2 0x9F SWAP2 SWAP1 PUSH2 0x235 JUMP JUMPDEST PUSH1 0x40 MLOAD DUP1 SWAP2 SUB SWAP1 RETURN JUMPDEST PUSH2 0xC2 PUSH1 0x4 DUP1 CALLDATASIZE SUB DUP2 ADD SWAP1 PUSH2 0xBD SWAP2 SWAP1 PUSH2 0x2EF JUMP JUMPDEST PUSH2 0x1B0 JUMP JUMPDEST STOP JUMPDEST PUSH1 0x60 PUSH1 0x40 MLOAD DUP1 PUSH1 0x40 ADD PUSH1 0x40 MSTORE DUP1 PUSH1 0x6 DUP2 MSTORE PUSH1 0x20 ADD PUSH32 0x737472696E670000000000000000000000000000000000000000000000000000 DUP2 MSTORE POP SWAP1 POP SWAP1 JUMP JUMPDEST PUSH32 0x0 DUP2 JUMP JUMPDEST PUSH0 DUP1 SLOAD PUSH2 0x131 SWAP1 PUSH2 0x367 JUMP JUMPDEST DUP1 PUSH1 0x1F ADD PUSH1 0x20 DUP1 SWAP2 DIV MUL PUSH1 0x20 ADD PUSH1 0x40 MLOAD SWAP1 DUP2 ADD PUSH1 0x40 MSTORE DUP1 SWAP3 SWAP2 SWAP1 DUP2 DUP2 MSTORE PUSH1 0x20 ADD DUP3 DUP1 SLOAD PUSH2 0x15D SWAP1 PUSH2 0x367 JUMP JUMPDEST DUP1 ISZERO PUSH2 0x1A8 JUMPI DUP1 PUSH1 0x1F LT PUSH2 0x17F JUMPI PUSH2 0x100 DUP1 DUP4 SLOAD DIV MUL DUP4 MSTORE SWAP2 PUSH1 0x20 ADD SWAP2 PUSH2 0x1A8 JUMP JUMPDEST DUP3 ADD SWAP2 SWAP1 PUSH0 MSTORE PUSH1 0x20 PUSH0 KECCAK256 SWAP1 JUMPDEST DUP2 SLOAD DUP2 MSTORE SWAP1 PUSH1 0x1 ADD SWAP1 PUSH1 0x20 ADD DUP1 DUP4 GT PUSH2 0x18B JUMPI DUP3 SWAP1 SUB PUSH1 0x1F AND DUP3 ADD SWAP2 JUMPDEST POP POP POP POP POP DUP2 JUMP JUMPDEST DUP2 DUP2 PUSH0 SWAP2 DUP3 PUSH2 0x1C0 SWAP3 SWAP2 SWAP1 PUSH2 0x56B JUMP JUMPDEST POP POP POP JUMP JUMPDEST PUSH0 DUP2 MLOAD SWAP1 POP SWAP2 SWAP1 POP JUMP JUMPDEST PUSH0 DUP3 DUP3 MSTORE PUSH1 0x20 DUP3 ADD SWAP1 POP SWAP3 SWAP2 POP POP JUMP JUMPDEST DUP3 DUP2 DUP4 MCOPY PUSH0 DUP4 DUP4 ADD MSTORE POP POP POP JUMP JUMPDEST PUSH0 PUSH1 0x1F NOT PUSH1 0x1F DUP4 ADD AND SWAP1 POP SWAP2 SWAP1 POP JUMP JUMPDEST PUSH0 PUSH2 0x207 DUP3 PUSH2 0x1C5 JUMP JUMPDEST PUSH2 0x211 DUP2 DUP6 PUSH2 0x1CF JUMP JUMPDEST SWAP4 POP PUSH2 0x221 DUP2 DUP6 PUSH1 0x20 DUP7 ADD PUSH2 0x1DF JUMP JUMPDEST PUSH2 0x22A DUP2 PUSH2 0x1ED JUMP JUMPDEST DUP5 ADD SWAP2 POP POP SWAP3 SWAP2 POP POP JUMP JUMPDEST PUSH0 PUSH1 0x20 DUP3 ADD SWAP1 POP DUP2 DUP2 SUB PUSH0 DUP4 ADD MSTORE PUSH2 0x24D DUP2 DUP5 PUSH2 0x1FD JUMP JUMPDEST SWAP1 POP SWAP3 SWAP2 POP POP JUMP JUMPDEST PUSH0 DUP2 SWAP1 POP SWAP2 SWAP1 POP JUMP JUMPDEST PUSH2 0x267 DUP2 PUSH2 0x255 JUMP JUMPDEST DUP3 MSTORE POP POP JUMP JUMPDEST PUSH0 PUSH1 0x20 DUP3 ADD SWAP1 POP PUSH2 0x280 PUSH0 DUP4 ADD DUP5 PUSH2 0x25E JUMP JUMPDEST SWAP3 SWAP2 POP POP JUMP JUMPDEST PUSH0 DUP1 REVERT JUMPDEST PUSH0 DUP1 REVERT JUMPDEST PUSH0 DUP1 REVERT JUMPDEST PUSH0 DUP1 REVERT JUMPDEST PUSH0 DUP1 REVERT JUMPDEST PUSH0 DUP1 DUP4 PUSH1 0x1F DUP5 ADD SLT PUSH2 0x2AF JUMPI PUSH2 0x2AE PUSH2 0x28E JUMP JUMPDEST JUMPDEST DUP3 CALLDATALOAD SWAP1 POP PUSH8 0xFFFFFFFFFFFFFFFF DUP2 GT ISZERO PUSH2 0x2CC JUMPI PUSH2 0x2CB PUSH2 0x292 JUMP JUMPDEST JUMPDEST PUSH1 0x20 DUP4 ADD SWAP2 POP DUP4 PUSH1 0x1 DUP3 MUL DUP4 ADD GT ISZERO PUSH2 0x2E8 JUMPI PUSH2 0x2E7 PUSH2 0x296 JUMP JUMPDEST JUMPDEST SWAP3 POP SWAP3 SWAP1 POP JUMP JUMPDEST PUSH0 DUP1 PUSH1 0x20 DUP4 DUP6 SUB SLT ISZERO PUSH2 0x305 JUMPI PUSH2 0x304 PUSH2 0x286 JUMP JUMPDEST JUMPDEST PUSH0 DUP4 ADD CALLDATALOAD PUSH8 0xFFFFFFFFFFFFFFFF DUP2 GT ISZERO PUSH2 0x322 JUMPI PUSH2 0x321 PUSH2 0x28A JUMP JUMPDEST JUMPDEST PUSH2 0x32E DUP6 DUP3 DUP7 ADD PUSH2 0x29A JUMP JUMPDEST SWAP3 POP SWAP3 POP POP SWAP3 POP SWAP3 SWAP1 POP JUMP JUMPDEST PUSH32 0x4E487B7100000000000000000000000000000000000000000000000000000000 PUSH0 MSTORE PUSH1 0x22 PUSH1 0x4 MSTORE PUSH1 0x24 PUSH0 REVERT JUMPDEST PUSH0 PUSH1 0x2 DUP3 DIV SWAP1 POP PUSH1 0x1 DUP3 AND DUP1 PUSH2 0x37E JUMPI PUSH1 0x7F DUP3 AND SWAP2 POP JUMPDEST PUSH1 0x20 DUP3 LT DUP2 SUB PUSH2 0x391 JUMPI PUSH2 0x390 PUSH2 0x33A JUMP JUMPDEST JUMPDEST POP SWAP2 SWAP1 POP JUMP JUMPDEST PUSH0 DUP3 SWAP1 POP SWAP3 SWAP2 POP POP JUMP JUMPDEST PUSH32 0x4E487B7100000000000000000000000000000000000000000000000000000000 PUSH0 MSTORE PUSH1 0x41 PUSH1 0x4 MSTORE PUSH1 0x24 PUSH0 REVERT JUMPDEST PUSH0 DUP2 SWAP1 POP DUP2 PUSH0 MSTORE PUSH1 0x20 PUSH0 KECCAK256 SWAP1 POP SWAP2 SWAP1 POP JUMP JUMPDEST PUSH0 PUSH1 0x20 PUSH1 0x1F DUP4 ADD DIV SWAP1 POP SWAP2 SWAP1 POP JUMP JUMPDEST PUSH0 DUP3 DUP3 SHL SWAP1 POP SWAP3 SWAP2 POP POP JUMP JUMPDEST PUSH0 PUSH1 0x8 DUP4 MUL PUSH2 0x42A PUSH32 0xFFFFFFFFFFFFFFFFFFFFFFFFFFFFFFFFFFFFFFFFFFFFFFFFFFFFFFFFFFFFFFFF DUP3 PUSH2 0x3EF JUMP JUMPDEST PUSH2 0x434 DUP7 DUP4 PUSH2 0x3EF JUMP JUMPDEST SWAP6 POP DUP1 NOT DUP5 AND SWAP4 POP DUP1 DUP7 AND DUP5 OR SWAP3 POP POP POP SWAP4 SWAP3 POP POP POP JUMP JUMPDEST PUSH0 DUP2 SWAP1 POP SWAP2 SWAP1 POP JUMP JUMPDEST PUSH0 PUSH2 0x46F PUSH2 0x46A PUSH2 0x465 DUP5 PUSH2 0x255 JUMP JUMPDEST PUSH2 0x44C JUMP JUMPDEST PUSH2 0x255 JUMP JUMPDEST SWAP1 POP SWAP2 SWAP1 POP JUMP JUMPDEST PUSH0 DUP2 SWAP1 POP SWAP2 SWAP1 POP JUMP JUMPDEST PUSH2 0x488 DUP4 PUSH2 0x455 JUMP JUMPDEST PUSH2 0x49C PUSH2 0x494 DUP3 PUSH2 0x476 JUMP JUMPDEST DUP5 DUP5 SLOAD PUSH2 0x3FB JUMP JUMPDEST DUP3 SSTORE POP POP POP POP JUMP JUMPDEST PUSH0 SWAP1 JUMP JUMPDEST PUSH2 0x4B0 PUSH2 0x4A4 JUMP JUMPDEST PUSH2 0x4BB DUP2 DUP5 DUP5 PUSH2 0x47F JUMP JUMPDEST POP POP POP JUMP JUMPDEST JUMPDEST DUP2 DUP2 LT ISZERO PUSH2 0x4DE JUMPI PUSH2 0x4D3 PUSH0 DUP3 PUSH2 0x4A8 JUMP JUMPDEST PUSH1 0x1 DUP2 ADD SWAP1 POP PUSH2 0x4C1 JUMP JUMPDEST POP POP JUMP JUMPDEST PUSH1 0x1F DUP3 GT ISZERO PUSH2 0x523 JUMPI PUSH2 0x4F4 DUP2 PUSH2 0x3CE JUMP JUMPDEST PUSH2 0x4FD DUP5 PUSH2 0x3E0 JUMP JUMPDEST DUP2 ADD PUSH1 0x20 DUP6 LT ISZERO PUSH2 0x50C JUMPI DUP2 SWAP1 POP JUMPDEST PUSH2 0x520 PUSH2 0x518 DUP6 PUSH2 0x3E0 JUMP JUMPDEST DUP4 ADD DUP3 PUSH2 0x4C0 JUMP JUMPDEST POP POP JUMPDEST POP POP POP JUMP JUMPDEST PUSH0 DUP3 DUP3 SHR SWAP1 POP SWAP3 SWAP2 POP POP JUMP JUMPDEST PUSH0 PUSH2 0x543 PUSH0 NOT DUP5 PUSH1 0x8 MUL PUSH2 0x528 JUMP JUMPDEST NOT DUP1 DUP4 AND SWAP2 POP POP SWAP3 SWAP2 POP POP JUMP JUMPDEST PUSH0 PUSH2 0x55B DUP4 DUP4 PUSH2 0x534 JUMP JUMPDEST SWAP2 POP DUP3 PUSH1 0x2 MUL DUP3 OR SWAP1 POP SWAP3 SWAP2 POP POP JUMP JUMPDEST PUSH2 0x575 DUP4 DUP4 PUSH2 0x397 JUMP JUMPDEST PUSH8 0xFFFFFFFFFFFFFFFF DUP2 GT ISZERO PUSH2 0x58E JUMPI PUSH2 0x58D PUSH2 0x3A1 JUMP JUMPDEST JUMPDEST PUSH2 0x598 DUP3 SLOAD PUSH2 0x367 JUMP JUMPDEST PUSH2 0x5A3 DUP3 DUP3 DUP6 PUSH2 0x4E2 JUMP JUMPDEST PUSH0 PUSH1 0x1F DUP4 GT PUSH1 0x1 DUP2 EQ PUSH2 0x5D0 JUMPI PUSH0 DUP5 ISZERO PUSH2 0x5BE JUMPI DUP3 DUP8 ADD CALLDATALOAD SWAP1 POP JUMPDEST PUSH2 0x5C8 DUP6 DUP3 PUSH2 0x550 JUMP JUMPDEST DUP7 SSTORE POP PUSH2 0x62F JUMP JUMPDEST PUSH1 0x1F NOT DUP5 AND PUSH2 0x5DE DUP7 PUSH2 0x3CE JUMP JUMPDEST PUSH0 JUMPDEST DUP3 DUP2 LT ISZERO PUSH2 0x605 JUMPI DUP5 DUP10 ADD CALLDATALOAD DUP3 SSTORE PUSH1 0x1 DUP3 ADD SWAP2 POP PUSH1 0x20 DUP6 ADD SWAP5 POP PUSH1 0x20 DUP2 ADD SWAP1 POP PUSH2 0x5E0 JUMP JUMPDEST DUP7 DUP4 LT ISZERO PUSH2 0x622 JUMPI DUP5 DUP10 ADD CALLDATALOAD PUSH2 0x61E PUSH1 0x1F DUP10 AND DUP3 PUSH2 0x534 JUMP JUMPDEST DUP4 SSTORE POP JUMPDEST PUSH1 0x1 PUSH1 0x2 DUP9 MUL ADD DUP9 SSTORE POP POP POP JUMPDEST POP POP POP POP POP POP POP JUMP INVALID LOG2 PUSH5 0x6970667358 0x22 SLT KECCAK256 AND 0x4F 0xAA PUSH28 0x8EADA325D57353B955AF537D535C136AED03F80D8B1452A6865FB26D PUSH5 0x736F6C6343 STOP ADDMOD BYTE STOP CALLER LOG2 PUSH5 0x6970667358 0x22 SLT KECCAK256 MUL PUSH19 0xD08574FDCF31CF1F6274A547D3301766499981 0x1E ISZERO PREVRANDAO SDIV SWAP6 PUSH11 0x8CEE48AF564736F6C6343 STOP ADDMOD BYTE STOP CALLER "
		},
		"gasEstimates": {
			"creation": {
				"codeDepositCost": "859600",
				"executionCost": "infinite",
				"totalCost": "infinite"
			},
			"external": {
				"addRecord(string)": "infinite"
			}
		},
		"methodIdentifiers": {
			"addRecord(string)": "d81aa8c4"
		}
	},
	"abi": [
		{
			"inputs": [
				{
					"internalType": "address",
					"name": "_addressRecordStorage",
					"type": "address"
				}
			],
			"stateMutability": "nonpayable",
			"type": "constructor"
		},
		{
			"inputs": [
				{
					"internalType": "string",
					"name": "_record",
					"type": "string"
				}
			],
			"name": "addRecord",
			"outputs": [],
			"stateMutability": "nonpayable",
			"type": "function"
		}
	]
}